{
	"contracts/Updated_1/1_User Registration and Authentication.sol": {
		"UserContract": {
			"abi": [
				{
					"anonymous": false,
					"inputs": [
						{
							"indexed": true,
							"internalType": "address",
							"name": "user",
							"type": "address"
						},
						{
							"indexed": false,
							"internalType": "string",
							"name": "email",
							"type": "string"
						}
					],
					"name": "UserRegistered",
					"type": "event"
				},
				{
					"inputs": [
						{
							"internalType": "address",
							"name": "userAddress",
							"type": "address"
						}
					],
					"name": "isUserRegistered",
					"outputs": [
						{
							"internalType": "bool",
							"name": "",
							"type": "bool"
						}
					],
					"stateMutability": "view",
					"type": "function"
				},
				{
					"inputs": [
						{
							"internalType": "string",
							"name": "email",
							"type": "string"
						}
					],
					"name": "registerUser",
					"outputs": [],
					"stateMutability": "nonpayable",
					"type": "function"
				},
				{
					"inputs": [
						{
							"internalType": "address",
							"name": "",
							"type": "address"
						}
					],
					"name": "users",
					"outputs": [
						{
							"internalType": "address",
							"name": "walletAddress",
							"type": "address"
						},
						{
							"internalType": "string",
							"name": "email",
							"type": "string"
						},
						{
							"internalType": "bool",
							"name": "isRegistered",
							"type": "bool"
						}
					],
					"stateMutability": "view",
					"type": "function"
				}
			],
			"devdoc": {
				"kind": "dev",
				"methods": {},
				"version": 1
			},
			"evm": {
				"assembly": "    /* \"contracts/Updated_1/1_User Registration and Authentication.sol\":60:804  contract UserContract {... */\n  mstore(0x40, 0x80)\n  callvalue\n  dup1\n  iszero\n  tag_1\n  jumpi\n  0x00\n  dup1\n  revert\ntag_1:\n  pop\n  dataSize(sub_0)\n  dup1\n  dataOffset(sub_0)\n  0x00\n  codecopy\n  0x00\n  return\nstop\n\nsub_0: assembly {\n        /* \"contracts/Updated_1/1_User Registration and Authentication.sol\":60:804  contract UserContract {... */\n      mstore(0x40, 0x80)\n      callvalue\n      dup1\n      iszero\n      tag_1\n      jumpi\n      0x00\n      dup1\n      revert\n    tag_1:\n      pop\n      jumpi(tag_2, lt(calldatasize, 0x04))\n      shr(0xe0, calldataload(0x00))\n      dup1\n      0x163f7522\n      eq\n      tag_3\n      jumpi\n      dup1\n      0x704f1b94\n      eq\n      tag_4\n      jumpi\n      dup1\n      0xa87430ba\n      eq\n      tag_5\n      jumpi\n    tag_2:\n      0x00\n      dup1\n      revert\n        /* \"contracts/Updated_1/1_User Registration and Authentication.sol\":670:801  function isUserRegistered(address userAddress) public view returns (bool) {... */\n    tag_3:\n      tag_6\n      0x04\n      dup1\n      calldatasize\n      sub\n      dup2\n      add\n      swap1\n      tag_7\n      swap2\n      swap1\n      tag_8\n      jump\t// in\n    tag_7:\n      tag_9\n      jump\t// in\n    tag_6:\n      mload(0x40)\n      tag_10\n      swap2\n      swap1\n      tag_11\n      jump\t// in\n    tag_10:\n      mload(0x40)\n      dup1\n      swap2\n      sub\n      swap1\n      return\n        /* \"contracts/Updated_1/1_User Registration and Authentication.sol\":309:662  function registerUser(string memory email) public {... */\n    tag_4:\n      tag_12\n      0x04\n      dup1\n      calldatasize\n      sub\n      dup2\n      add\n      swap1\n      tag_13\n      swap2\n      swap1\n      tag_14\n      jump\t// in\n    tag_13:\n      tag_15\n      jump\t// in\n    tag_12:\n      stop\n        /* \"contracts/Updated_1/1_User Registration and Authentication.sol\":200:237  mapping(address => User) public users */\n    tag_5:\n      tag_16\n      0x04\n      dup1\n      calldatasize\n      sub\n      dup2\n      add\n      swap1\n      tag_17\n      swap2\n      swap1\n      tag_8\n      jump\t// in\n    tag_17:\n      tag_18\n      jump\t// in\n    tag_16:\n      mload(0x40)\n      tag_19\n      swap4\n      swap3\n      swap2\n      swap1\n      tag_20\n      jump\t// in\n    tag_19:\n      mload(0x40)\n      dup1\n      swap2\n      sub\n      swap1\n      return\n        /* \"contracts/Updated_1/1_User Registration and Authentication.sol\":670:801  function isUserRegistered(address userAddress) public view returns (bool) {... */\n    tag_9:\n        /* \"contracts/Updated_1/1_User Registration and Authentication.sol\":738:742  bool */\n      0x00\n        /* \"contracts/Updated_1/1_User Registration and Authentication.sol\":762:767  users */\n      dup1\n        /* \"contracts/Updated_1/1_User Registration and Authentication.sol\":762:780  users[userAddress] */\n      0x00\n        /* \"contracts/Updated_1/1_User Registration and Authentication.sol\":768:779  userAddress */\n      dup4\n        /* \"contracts/Updated_1/1_User Registration and Authentication.sol\":762:780  users[userAddress] */\n      0xffffffffffffffffffffffffffffffffffffffff\n      and\n      0xffffffffffffffffffffffffffffffffffffffff\n      and\n      dup2\n      mstore\n      0x20\n      add\n      swap1\n      dup2\n      mstore\n      0x20\n      add\n      0x00\n      keccak256\n        /* \"contracts/Updated_1/1_User Registration and Authentication.sol\":762:793  users[userAddress].isRegistered */\n      0x02\n      add\n      0x00\n      swap1\n      sload\n      swap1\n      0x0100\n      exp\n      swap1\n      div\n      0xff\n      and\n        /* \"contracts/Updated_1/1_User Registration and Authentication.sol\":755:793  return users[userAddress].isRegistered */\n      swap1\n      pop\n        /* \"contracts/Updated_1/1_User Registration and Authentication.sol\":670:801  function isUserRegistered(address userAddress) public view returns (bool) {... */\n      swap2\n      swap1\n      pop\n      jump\t// out\n        /* \"contracts/Updated_1/1_User Registration and Authentication.sol\":309:662  function registerUser(string memory email) public {... */\n    tag_15:\n        /* \"contracts/Updated_1/1_User Registration and Authentication.sol\":379:384  users */\n      0x00\n        /* \"contracts/Updated_1/1_User Registration and Authentication.sol\":379:396  users[msg.sender] */\n      dup1\n        /* \"contracts/Updated_1/1_User Registration and Authentication.sol\":385:395  msg.sender */\n      caller\n        /* \"contracts/Updated_1/1_User Registration and Authentication.sol\":379:396  users[msg.sender] */\n      0xffffffffffffffffffffffffffffffffffffffff\n      and\n      0xffffffffffffffffffffffffffffffffffffffff\n      and\n      dup2\n      mstore\n      0x20\n      add\n      swap1\n      dup2\n      mstore\n      0x20\n      add\n      0x00\n      keccak256\n        /* \"contracts/Updated_1/1_User Registration and Authentication.sol\":379:409  users[msg.sender].isRegistered */\n      0x02\n      add\n      0x00\n      swap1\n      sload\n      swap1\n      0x0100\n      exp\n      swap1\n      div\n      0xff\n      and\n        /* \"contracts/Updated_1/1_User Registration and Authentication.sol\":378:409  !users[msg.sender].isRegistered */\n      iszero\n        /* \"contracts/Updated_1/1_User Registration and Authentication.sol\":370:437  require(!users[msg.sender].isRegistered, \"User already registered\") */\n      tag_23\n      jumpi\n      mload(0x40)\n      0x08c379a000000000000000000000000000000000000000000000000000000000\n      dup2\n      mstore\n      0x04\n      add\n      tag_24\n      swap1\n      tag_25\n      jump\t// in\n    tag_24:\n      mload(0x40)\n      dup1\n      swap2\n      sub\n      swap1\n      revert\n    tag_23:\n        /* \"contracts/Updated_1/1_User Registration and Authentication.sol\":478:595  User({... */\n      mload(0x40)\n      dup1\n      0x60\n      add\n      0x40\n      mstore\n      dup1\n        /* \"contracts/Updated_1/1_User Registration and Authentication.sol\":513:523  msg.sender */\n      caller\n        /* \"contracts/Updated_1/1_User Registration and Authentication.sol\":478:595  User({... */\n      0xffffffffffffffffffffffffffffffffffffffff\n      and\n      dup2\n      mstore\n      0x20\n      add\n        /* \"contracts/Updated_1/1_User Registration and Authentication.sol\":545:550  email */\n      dup3\n        /* \"contracts/Updated_1/1_User Registration and Authentication.sol\":478:595  User({... */\n      dup2\n      mstore\n      0x20\n      add\n        /* \"contracts/Updated_1/1_User Registration and Authentication.sol\":579:583  true */\n      0x01\n        /* \"contracts/Updated_1/1_User Registration and Authentication.sol\":478:595  User({... */\n      iszero\n      iszero\n      dup2\n      mstore\n      pop\n        /* \"contracts/Updated_1/1_User Registration and Authentication.sol\":458:463  users */\n      0x00\n        /* \"contracts/Updated_1/1_User Registration and Authentication.sol\":458:475  users[msg.sender] */\n      dup1\n        /* \"contracts/Updated_1/1_User Registration and Authentication.sol\":464:474  msg.sender */\n      caller\n        /* \"contracts/Updated_1/1_User Registration and Authentication.sol\":458:475  users[msg.sender] */\n      0xffffffffffffffffffffffffffffffffffffffff\n      and\n      0xffffffffffffffffffffffffffffffffffffffff\n      and\n      dup2\n      mstore\n      0x20\n      add\n      swap1\n      dup2\n      mstore\n      0x20\n      add\n      0x00\n      keccak256\n        /* \"contracts/Updated_1/1_User Registration and Authentication.sol\":458:595  users[msg.sender] = User({... */\n      0x00\n      dup3\n      add\n      mload\n      dup2\n      0x00\n      add\n      exp(0x0100, 0x00)\n      dup2\n      sload\n      dup2\n      0xffffffffffffffffffffffffffffffffffffffff\n      mul\n      not\n      and\n      swap1\n      dup4\n      0xffffffffffffffffffffffffffffffffffffffff\n      and\n      mul\n      or\n      swap1\n      sstore\n      pop\n      0x20\n      dup3\n      add\n      mload\n      dup2\n      0x01\n      add\n      swap1\n      dup2\n      tag_26\n      swap2\n      swap1\n      tag_27\n      jump\t// in\n    tag_26:\n      pop\n      0x40\n      dup3\n      add\n      mload\n      dup2\n      0x02\n      add\n      exp(0x0100, 0x00)\n      dup2\n      sload\n      dup2\n      0xff\n      mul\n      not\n      and\n      swap1\n      dup4\n      iszero\n      iszero\n      mul\n      or\n      swap1\n      sstore\n      pop\n      swap1\n      pop\n      pop\n        /* \"contracts/Updated_1/1_User Registration and Authentication.sol\":636:646  msg.sender */\n      caller\n        /* \"contracts/Updated_1/1_User Registration and Authentication.sol\":621:654  UserRegistered(msg.sender, email) */\n      0xffffffffffffffffffffffffffffffffffffffff\n      and\n      0x48cac28ad4dc618e15f4c2dd5e97751182f166de97b25618318b2112aa951a2f\n        /* \"contracts/Updated_1/1_User Registration and Authentication.sol\":648:653  email */\n      dup3\n        /* \"contracts/Updated_1/1_User Registration and Authentication.sol\":621:654  UserRegistered(msg.sender, email) */\n      mload(0x40)\n      tag_28\n      swap2\n      swap1\n      tag_29\n      jump\t// in\n    tag_28:\n      mload(0x40)\n      dup1\n      swap2\n      sub\n      swap1\n      log2\n        /* \"contracts/Updated_1/1_User Registration and Authentication.sol\":309:662  function registerUser(string memory email) public {... */\n      pop\n      jump\t// out\n        /* \"contracts/Updated_1/1_User Registration and Authentication.sol\":200:237  mapping(address => User) public users */\n    tag_18:\n      mstore(0x20, 0x00)\n      dup1\n      0x00\n      mstore\n      keccak256(0x00, 0x40)\n      0x00\n      swap2\n      pop\n      swap1\n      pop\n      dup1\n      0x00\n      add\n      0x00\n      swap1\n      sload\n      swap1\n      0x0100\n      exp\n      swap1\n      div\n      0xffffffffffffffffffffffffffffffffffffffff\n      and\n      swap1\n      dup1\n      0x01\n      add\n      dup1\n      sload\n      tag_30\n      swap1\n      tag_31\n      jump\t// in\n    tag_30:\n      dup1\n      0x1f\n      add\n      0x20\n      dup1\n      swap2\n      div\n      mul\n      0x20\n      add\n      mload(0x40)\n      swap1\n      dup2\n      add\n      0x40\n      mstore\n      dup1\n      swap3\n      swap2\n      swap1\n      dup2\n      dup2\n      mstore\n      0x20\n      add\n      dup3\n      dup1\n      sload\n      tag_32\n      swap1\n      tag_31\n      jump\t// in\n    tag_32:\n      dup1\n      iszero\n      tag_33\n      jumpi\n      dup1\n      0x1f\n      lt\n      tag_34\n      jumpi\n      0x0100\n      dup1\n      dup4\n      sload\n      div\n      mul\n      dup4\n      mstore\n      swap2\n      0x20\n      add\n      swap2\n      jump(tag_33)\n    tag_34:\n      dup3\n      add\n      swap2\n      swap1\n      0x00\n      mstore\n      keccak256(0x00, 0x20)\n      swap1\n    tag_35:\n      dup2\n      sload\n      dup2\n      mstore\n      swap1\n      0x01\n      add\n      swap1\n      0x20\n      add\n      dup1\n      dup4\n      gt\n      tag_35\n      jumpi\n      dup3\n      swap1\n      sub\n      0x1f\n      and\n      dup3\n      add\n      swap2\n    tag_33:\n      pop\n      pop\n      pop\n      pop\n      pop\n      swap1\n      dup1\n      0x02\n      add\n      0x00\n      swap1\n      sload\n      swap1\n      0x0100\n      exp\n      swap1\n      div\n      0xff\n      and\n      swap1\n      pop\n      dup4\n      jump\t// out\n        /* \"#utility.yul\":7:82   */\n    tag_36:\n        /* \"#utility.yul\":40:46   */\n      0x00\n        /* \"#utility.yul\":73:75   */\n      0x40\n        /* \"#utility.yul\":67:76   */\n      mload\n        /* \"#utility.yul\":57:76   */\n      swap1\n      pop\n        /* \"#utility.yul\":7:82   */\n      swap1\n      jump\t// out\n        /* \"#utility.yul\":88:205   */\n    tag_37:\n        /* \"#utility.yul\":197:198   */\n      0x00\n        /* \"#utility.yul\":194:195   */\n      dup1\n        /* \"#utility.yul\":187:199   */\n      revert\n        /* \"#utility.yul\":211:328   */\n    tag_38:\n        /* \"#utility.yul\":320:321   */\n      0x00\n        /* \"#utility.yul\":317:318   */\n      dup1\n        /* \"#utility.yul\":310:322   */\n      revert\n        /* \"#utility.yul\":334:460   */\n    tag_39:\n        /* \"#utility.yul\":371:378   */\n      0x00\n        /* \"#utility.yul\":411:453   */\n      0xffffffffffffffffffffffffffffffffffffffff\n        /* \"#utility.yul\":404:409   */\n      dup3\n        /* \"#utility.yul\":400:454   */\n      and\n        /* \"#utility.yul\":389:454   */\n      swap1\n      pop\n        /* \"#utility.yul\":334:460   */\n      swap2\n      swap1\n      pop\n      jump\t// out\n        /* \"#utility.yul\":466:562   */\n    tag_40:\n        /* \"#utility.yul\":503:510   */\n      0x00\n        /* \"#utility.yul\":532:556   */\n      tag_85\n        /* \"#utility.yul\":550:555   */\n      dup3\n        /* \"#utility.yul\":532:556   */\n      tag_39\n      jump\t// in\n    tag_85:\n        /* \"#utility.yul\":521:556   */\n      swap1\n      pop\n        /* \"#utility.yul\":466:562   */\n      swap2\n      swap1\n      pop\n      jump\t// out\n        /* \"#utility.yul\":568:690   */\n    tag_41:\n        /* \"#utility.yul\":641:665   */\n      tag_87\n        /* \"#utility.yul\":659:664   */\n      dup2\n        /* \"#utility.yul\":641:665   */\n      tag_40\n      jump\t// in\n    tag_87:\n        /* \"#utility.yul\":634:639   */\n      dup2\n        /* \"#utility.yul\":631:666   */\n      eq\n        /* \"#utility.yul\":621:684   */\n      tag_88\n      jumpi\n        /* \"#utility.yul\":680:681   */\n      0x00\n        /* \"#utility.yul\":677:678   */\n      dup1\n        /* \"#utility.yul\":670:682   */\n      revert\n        /* \"#utility.yul\":621:684   */\n    tag_88:\n        /* \"#utility.yul\":568:690   */\n      pop\n      jump\t// out\n        /* \"#utility.yul\":696:835   */\n    tag_42:\n        /* \"#utility.yul\":742:747   */\n      0x00\n        /* \"#utility.yul\":780:786   */\n      dup2\n        /* \"#utility.yul\":767:787   */\n      calldataload\n        /* \"#utility.yul\":758:787   */\n      swap1\n      pop\n        /* \"#utility.yul\":796:829   */\n      tag_90\n        /* \"#utility.yul\":823:828   */\n      dup2\n        /* \"#utility.yul\":796:829   */\n      tag_41\n      jump\t// in\n    tag_90:\n        /* \"#utility.yul\":696:835   */\n      swap3\n      swap2\n      pop\n      pop\n      jump\t// out\n        /* \"#utility.yul\":841:1170   */\n    tag_8:\n        /* \"#utility.yul\":900:906   */\n      0x00\n        /* \"#utility.yul\":949:951   */\n      0x20\n        /* \"#utility.yul\":937:946   */\n      dup3\n        /* \"#utility.yul\":928:935   */\n      dup5\n        /* \"#utility.yul\":924:947   */\n      sub\n        /* \"#utility.yul\":920:952   */\n      slt\n        /* \"#utility.yul\":917:1036   */\n      iszero\n      tag_92\n      jumpi\n        /* \"#utility.yul\":955:1034   */\n      tag_93\n      tag_37\n      jump\t// in\n    tag_93:\n        /* \"#utility.yul\":917:1036   */\n    tag_92:\n        /* \"#utility.yul\":1075:1076   */\n      0x00\n        /* \"#utility.yul\":1100:1153   */\n      tag_94\n        /* \"#utility.yul\":1145:1152   */\n      dup5\n        /* \"#utility.yul\":1136:1142   */\n      dup3\n        /* \"#utility.yul\":1125:1134   */\n      dup6\n        /* \"#utility.yul\":1121:1143   */\n      add\n        /* \"#utility.yul\":1100:1153   */\n      tag_42\n      jump\t// in\n    tag_94:\n        /* \"#utility.yul\":1090:1153   */\n      swap2\n      pop\n        /* \"#utility.yul\":1046:1163   */\n      pop\n        /* \"#utility.yul\":841:1170   */\n      swap3\n      swap2\n      pop\n      pop\n      jump\t// out\n        /* \"#utility.yul\":1176:1266   */\n    tag_43:\n        /* \"#utility.yul\":1210:1217   */\n      0x00\n        /* \"#utility.yul\":1253:1258   */\n      dup2\n        /* \"#utility.yul\":1246:1259   */\n      iszero\n        /* \"#utility.yul\":1239:1260   */\n      iszero\n        /* \"#utility.yul\":1228:1260   */\n      swap1\n      pop\n        /* \"#utility.yul\":1176:1266   */\n      swap2\n      swap1\n      pop\n      jump\t// out\n        /* \"#utility.yul\":1272:1381   */\n    tag_44:\n        /* \"#utility.yul\":1353:1374   */\n      tag_97\n        /* \"#utility.yul\":1368:1373   */\n      dup2\n        /* \"#utility.yul\":1353:1374   */\n      tag_43\n      jump\t// in\n    tag_97:\n        /* \"#utility.yul\":1348:1351   */\n      dup3\n        /* \"#utility.yul\":1341:1375   */\n      mstore\n        /* \"#utility.yul\":1272:1381   */\n      pop\n      pop\n      jump\t// out\n        /* \"#utility.yul\":1387:1597   */\n    tag_11:\n        /* \"#utility.yul\":1474:1478   */\n      0x00\n        /* \"#utility.yul\":1512:1514   */\n      0x20\n        /* \"#utility.yul\":1501:1510   */\n      dup3\n        /* \"#utility.yul\":1497:1515   */\n      add\n        /* \"#utility.yul\":1489:1515   */\n      swap1\n      pop\n        /* \"#utility.yul\":1525:1590   */\n      tag_99\n        /* \"#utility.yul\":1587:1588   */\n      0x00\n        /* \"#utility.yul\":1576:1585   */\n      dup4\n        /* \"#utility.yul\":1572:1589   */\n      add\n        /* \"#utility.yul\":1563:1569   */\n      dup5\n        /* \"#utility.yul\":1525:1590   */\n      tag_44\n      jump\t// in\n    tag_99:\n        /* \"#utility.yul\":1387:1597   */\n      swap3\n      swap2\n      pop\n      pop\n      jump\t// out\n        /* \"#utility.yul\":1603:1720   */\n    tag_45:\n        /* \"#utility.yul\":1712:1713   */\n      0x00\n        /* \"#utility.yul\":1709:1710   */\n      dup1\n        /* \"#utility.yul\":1702:1714   */\n      revert\n        /* \"#utility.yul\":1726:1843   */\n    tag_46:\n        /* \"#utility.yul\":1835:1836   */\n      0x00\n        /* \"#utility.yul\":1832:1833   */\n      dup1\n        /* \"#utility.yul\":1825:1837   */\n      revert\n        /* \"#utility.yul\":1849:1951   */\n    tag_47:\n        /* \"#utility.yul\":1890:1896   */\n      0x00\n        /* \"#utility.yul\":1941:1943   */\n      0x1f\n        /* \"#utility.yul\":1937:1944   */\n      not\n        /* \"#utility.yul\":1932:1934   */\n      0x1f\n        /* \"#utility.yul\":1925:1930   */\n      dup4\n        /* \"#utility.yul\":1921:1935   */\n      add\n        /* \"#utility.yul\":1917:1945   */\n      and\n        /* \"#utility.yul\":1907:1945   */\n      swap1\n      pop\n        /* \"#utility.yul\":1849:1951   */\n      swap2\n      swap1\n      pop\n      jump\t// out\n        /* \"#utility.yul\":1957:2137   */\n    tag_48:\n        /* \"#utility.yul\":2005:2082   */\n      0x4e487b7100000000000000000000000000000000000000000000000000000000\n        /* \"#utility.yul\":2002:2003   */\n      0x00\n        /* \"#utility.yul\":1995:2083   */\n      mstore\n        /* \"#utility.yul\":2102:2106   */\n      0x41\n        /* \"#utility.yul\":2099:2100   */\n      0x04\n        /* \"#utility.yul\":2092:2107   */\n      mstore\n        /* \"#utility.yul\":2126:2130   */\n      0x24\n        /* \"#utility.yul\":2123:2124   */\n      0x00\n        /* \"#utility.yul\":2116:2131   */\n      revert\n        /* \"#utility.yul\":2143:2424   */\n    tag_49:\n        /* \"#utility.yul\":2226:2253   */\n      tag_105\n        /* \"#utility.yul\":2248:2252   */\n      dup3\n        /* \"#utility.yul\":2226:2253   */\n      tag_47\n      jump\t// in\n    tag_105:\n        /* \"#utility.yul\":2218:2224   */\n      dup2\n        /* \"#utility.yul\":2214:2254   */\n      add\n        /* \"#utility.yul\":2356:2362   */\n      dup2\n        /* \"#utility.yul\":2344:2354   */\n      dup2\n        /* \"#utility.yul\":2341:2363   */\n      lt\n        /* \"#utility.yul\":2320:2338   */\n      0xffffffffffffffff\n        /* \"#utility.yul\":2308:2318   */\n      dup3\n        /* \"#utility.yul\":2305:2339   */\n      gt\n        /* \"#utility.yul\":2302:2364   */\n      or\n        /* \"#utility.yul\":2299:2387   */\n      iszero\n      tag_106\n      jumpi\n        /* \"#utility.yul\":2367:2385   */\n      tag_107\n      tag_48\n      jump\t// in\n    tag_107:\n        /* \"#utility.yul\":2299:2387   */\n    tag_106:\n        /* \"#utility.yul\":2407:2417   */\n      dup1\n        /* \"#utility.yul\":2403:2405   */\n      0x40\n        /* \"#utility.yul\":2396:2418   */\n      mstore\n        /* \"#utility.yul\":2186:2424   */\n      pop\n        /* \"#utility.yul\":2143:2424   */\n      pop\n      pop\n      jump\t// out\n        /* \"#utility.yul\":2430:2559   */\n    tag_50:\n        /* \"#utility.yul\":2464:2470   */\n      0x00\n        /* \"#utility.yul\":2491:2511   */\n      tag_109\n      tag_36\n      jump\t// in\n    tag_109:\n        /* \"#utility.yul\":2481:2511   */\n      swap1\n      pop\n        /* \"#utility.yul\":2520:2553   */\n      tag_110\n        /* \"#utility.yul\":2548:2552   */\n      dup3\n        /* \"#utility.yul\":2540:2546   */\n      dup3\n        /* \"#utility.yul\":2520:2553   */\n      tag_49\n      jump\t// in\n    tag_110:\n        /* \"#utility.yul\":2430:2559   */\n      swap2\n      swap1\n      pop\n      jump\t// out\n        /* \"#utility.yul\":2565:2873   */\n    tag_51:\n        /* \"#utility.yul\":2627:2631   */\n      0x00\n        /* \"#utility.yul\":2717:2735   */\n      0xffffffffffffffff\n        /* \"#utility.yul\":2709:2715   */\n      dup3\n        /* \"#utility.yul\":2706:2736   */\n      gt\n        /* \"#utility.yul\":2703:2759   */\n      iszero\n      tag_112\n      jumpi\n        /* \"#utility.yul\":2739:2757   */\n      tag_113\n      tag_48\n      jump\t// in\n    tag_113:\n        /* \"#utility.yul\":2703:2759   */\n    tag_112:\n        /* \"#utility.yul\":2777:2806   */\n      tag_114\n        /* \"#utility.yul\":2799:2805   */\n      dup3\n        /* \"#utility.yul\":2777:2806   */\n      tag_47\n      jump\t// in\n    tag_114:\n        /* \"#utility.yul\":2769:2806   */\n      swap1\n      pop\n        /* \"#utility.yul\":2861:2865   */\n      0x20\n        /* \"#utility.yul\":2855:2859   */\n      dup2\n        /* \"#utility.yul\":2851:2866   */\n      add\n        /* \"#utility.yul\":2843:2866   */\n      swap1\n      pop\n        /* \"#utility.yul\":2565:2873   */\n      swap2\n      swap1\n      pop\n      jump\t// out\n        /* \"#utility.yul\":2879:3027   */\n    tag_52:\n        /* \"#utility.yul\":2977:2983   */\n      dup3\n        /* \"#utility.yul\":2972:2975   */\n      dup2\n        /* \"#utility.yul\":2967:2970   */\n      dup4\n        /* \"#utility.yul\":2954:2984   */\n      calldatacopy\n        /* \"#utility.yul\":3018:3019   */\n      0x00\n        /* \"#utility.yul\":3009:3015   */\n      dup4\n        /* \"#utility.yul\":3004:3007   */\n      dup4\n        /* \"#utility.yul\":3000:3016   */\n      add\n        /* \"#utility.yul\":2993:3020   */\n      mstore\n        /* \"#utility.yul\":2879:3027   */\n      pop\n      pop\n      pop\n      jump\t// out\n        /* \"#utility.yul\":3033:3458   */\n    tag_53:\n        /* \"#utility.yul\":3111:3116   */\n      0x00\n        /* \"#utility.yul\":3136:3202   */\n      tag_117\n        /* \"#utility.yul\":3152:3201   */\n      tag_118\n        /* \"#utility.yul\":3194:3200   */\n      dup5\n        /* \"#utility.yul\":3152:3201   */\n      tag_51\n      jump\t// in\n    tag_118:\n        /* \"#utility.yul\":3136:3202   */\n      tag_50\n      jump\t// in\n    tag_117:\n        /* \"#utility.yul\":3127:3202   */\n      swap1\n      pop\n        /* \"#utility.yul\":3225:3231   */\n      dup3\n        /* \"#utility.yul\":3218:3223   */\n      dup2\n        /* \"#utility.yul\":3211:3232   */\n      mstore\n        /* \"#utility.yul\":3263:3267   */\n      0x20\n        /* \"#utility.yul\":3256:3261   */\n      dup2\n        /* \"#utility.yul\":3252:3268   */\n      add\n        /* \"#utility.yul\":3301:3304   */\n      dup5\n        /* \"#utility.yul\":3292:3298   */\n      dup5\n        /* \"#utility.yul\":3287:3290   */\n      dup5\n        /* \"#utility.yul\":3283:3299   */\n      add\n        /* \"#utility.yul\":3280:3305   */\n      gt\n        /* \"#utility.yul\":3277:3389   */\n      iszero\n      tag_119\n      jumpi\n        /* \"#utility.yul\":3308:3387   */\n      tag_120\n      tag_46\n      jump\t// in\n    tag_120:\n        /* \"#utility.yul\":3277:3389   */\n    tag_119:\n        /* \"#utility.yul\":3398:3452   */\n      tag_121\n        /* \"#utility.yul\":3445:3451   */\n      dup5\n        /* \"#utility.yul\":3440:3443   */\n      dup3\n        /* \"#utility.yul\":3435:3438   */\n      dup6\n        /* \"#utility.yul\":3398:3452   */\n      tag_52\n      jump\t// in\n    tag_121:\n        /* \"#utility.yul\":3117:3458   */\n      pop\n        /* \"#utility.yul\":3033:3458   */\n      swap4\n      swap3\n      pop\n      pop\n      pop\n      jump\t// out\n        /* \"#utility.yul\":3478:3818   */\n    tag_54:\n        /* \"#utility.yul\":3534:3539   */\n      0x00\n        /* \"#utility.yul\":3583:3586   */\n      dup3\n        /* \"#utility.yul\":3576:3580   */\n      0x1f\n        /* \"#utility.yul\":3568:3574   */\n      dup4\n        /* \"#utility.yul\":3564:3581   */\n      add\n        /* \"#utility.yul\":3560:3587   */\n      slt\n        /* \"#utility.yul\":3550:3672   */\n      tag_123\n      jumpi\n        /* \"#utility.yul\":3591:3670   */\n      tag_124\n      tag_45\n      jump\t// in\n    tag_124:\n        /* \"#utility.yul\":3550:3672   */\n    tag_123:\n        /* \"#utility.yul\":3708:3714   */\n      dup2\n        /* \"#utility.yul\":3695:3715   */\n      calldataload\n        /* \"#utility.yul\":3733:3812   */\n      tag_125\n        /* \"#utility.yul\":3808:3811   */\n      dup5\n        /* \"#utility.yul\":3800:3806   */\n      dup3\n        /* \"#utility.yul\":3793:3797   */\n      0x20\n        /* \"#utility.yul\":3785:3791   */\n      dup7\n        /* \"#utility.yul\":3781:3798   */\n      add\n        /* \"#utility.yul\":3733:3812   */\n      tag_53\n      jump\t// in\n    tag_125:\n        /* \"#utility.yul\":3724:3812   */\n      swap2\n      pop\n        /* \"#utility.yul\":3540:3818   */\n      pop\n        /* \"#utility.yul\":3478:3818   */\n      swap3\n      swap2\n      pop\n      pop\n      jump\t// out\n        /* \"#utility.yul\":3824:4333   */\n    tag_14:\n        /* \"#utility.yul\":3893:3899   */\n      0x00\n        /* \"#utility.yul\":3942:3944   */\n      0x20\n        /* \"#utility.yul\":3930:3939   */\n      dup3\n        /* \"#utility.yul\":3921:3928   */\n      dup5\n        /* \"#utility.yul\":3917:3940   */\n      sub\n        /* \"#utility.yul\":3913:3945   */\n      slt\n        /* \"#utility.yul\":3910:4029   */\n      iszero\n      tag_127\n      jumpi\n        /* \"#utility.yul\":3948:4027   */\n      tag_128\n      tag_37\n      jump\t// in\n    tag_128:\n        /* \"#utility.yul\":3910:4029   */\n    tag_127:\n        /* \"#utility.yul\":4096:4097   */\n      0x00\n        /* \"#utility.yul\":4085:4094   */\n      dup3\n        /* \"#utility.yul\":4081:4098   */\n      add\n        /* \"#utility.yul\":4068:4099   */\n      calldataload\n        /* \"#utility.yul\":4126:4144   */\n      0xffffffffffffffff\n        /* \"#utility.yul\":4118:4124   */\n      dup2\n        /* \"#utility.yul\":4115:4145   */\n      gt\n        /* \"#utility.yul\":4112:4229   */\n      iszero\n      tag_129\n      jumpi\n        /* \"#utility.yul\":4148:4227   */\n      tag_130\n      tag_38\n      jump\t// in\n    tag_130:\n        /* \"#utility.yul\":4112:4229   */\n    tag_129:\n        /* \"#utility.yul\":4253:4316   */\n      tag_131\n        /* \"#utility.yul\":4308:4315   */\n      dup5\n        /* \"#utility.yul\":4299:4305   */\n      dup3\n        /* \"#utility.yul\":4288:4297   */\n      dup6\n        /* \"#utility.yul\":4284:4306   */\n      add\n        /* \"#utility.yul\":4253:4316   */\n      tag_54\n      jump\t// in\n    tag_131:\n        /* \"#utility.yul\":4243:4316   */\n      swap2\n      pop\n        /* \"#utility.yul\":4039:4326   */\n      pop\n        /* \"#utility.yul\":3824:4333   */\n      swap3\n      swap2\n      pop\n      pop\n      jump\t// out\n        /* \"#utility.yul\":4339:4457   */\n    tag_55:\n        /* \"#utility.yul\":4426:4450   */\n      tag_133\n        /* \"#utility.yul\":4444:4449   */\n      dup2\n        /* \"#utility.yul\":4426:4450   */\n      tag_40\n      jump\t// in\n    tag_133:\n        /* \"#utility.yul\":4421:4424   */\n      dup3\n        /* \"#utility.yul\":4414:4451   */\n      mstore\n        /* \"#utility.yul\":4339:4457   */\n      pop\n      pop\n      jump\t// out\n        /* \"#utility.yul\":4463:4562   */\n    tag_56:\n        /* \"#utility.yul\":4515:4521   */\n      0x00\n        /* \"#utility.yul\":4549:4554   */\n      dup2\n        /* \"#utility.yul\":4543:4555   */\n      mload\n        /* \"#utility.yul\":4533:4555   */\n      swap1\n      pop\n        /* \"#utility.yul\":4463:4562   */\n      swap2\n      swap1\n      pop\n      jump\t// out\n        /* \"#utility.yul\":4568:4737   */\n    tag_57:\n        /* \"#utility.yul\":4652:4663   */\n      0x00\n        /* \"#utility.yul\":4686:4692   */\n      dup3\n        /* \"#utility.yul\":4681:4684   */\n      dup3\n        /* \"#utility.yul\":4674:4693   */\n      mstore\n        /* \"#utility.yul\":4726:4730   */\n      0x20\n        /* \"#utility.yul\":4721:4724   */\n      dup3\n        /* \"#utility.yul\":4717:4731   */\n      add\n        /* \"#utility.yul\":4702:4731   */\n      swap1\n      pop\n        /* \"#utility.yul\":4568:4737   */\n      swap3\n      swap2\n      pop\n      pop\n      jump\t// out\n        /* \"#utility.yul\":4743:4882   */\n    tag_58:\n        /* \"#utility.yul\":4832:4838   */\n      dup3\n        /* \"#utility.yul\":4827:4830   */\n      dup2\n        /* \"#utility.yul\":4822:4825   */\n      dup4\n        /* \"#utility.yul\":4816:4839   */\n      mcopy\n        /* \"#utility.yul\":4873:4874   */\n      0x00\n        /* \"#utility.yul\":4864:4870   */\n      dup4\n        /* \"#utility.yul\":4859:4862   */\n      dup4\n        /* \"#utility.yul\":4855:4871   */\n      add\n        /* \"#utility.yul\":4848:4875   */\n      mstore\n        /* \"#utility.yul\":4743:4882   */\n      pop\n      pop\n      pop\n      jump\t// out\n        /* \"#utility.yul\":4888:5265   */\n    tag_59:\n        /* \"#utility.yul\":4976:4979   */\n      0x00\n        /* \"#utility.yul\":5004:5043   */\n      tag_138\n        /* \"#utility.yul\":5037:5042   */\n      dup3\n        /* \"#utility.yul\":5004:5043   */\n      tag_56\n      jump\t// in\n    tag_138:\n        /* \"#utility.yul\":5059:5130   */\n      tag_139\n        /* \"#utility.yul\":5123:5129   */\n      dup2\n        /* \"#utility.yul\":5118:5121   */\n      dup6\n        /* \"#utility.yul\":5059:5130   */\n      tag_57\n      jump\t// in\n    tag_139:\n        /* \"#utility.yul\":5052:5130   */\n      swap4\n      pop\n        /* \"#utility.yul\":5139:5204   */\n      tag_140\n        /* \"#utility.yul\":5197:5203   */\n      dup2\n        /* \"#utility.yul\":5192:5195   */\n      dup6\n        /* \"#utility.yul\":5185:5189   */\n      0x20\n        /* \"#utility.yul\":5178:5183   */\n      dup7\n        /* \"#utility.yul\":5174:5190   */\n      add\n        /* \"#utility.yul\":5139:5204   */\n      tag_58\n      jump\t// in\n    tag_140:\n        /* \"#utility.yul\":5229:5258   */\n      tag_141\n        /* \"#utility.yul\":5251:5257   */\n      dup2\n        /* \"#utility.yul\":5229:5258   */\n      tag_47\n      jump\t// in\n    tag_141:\n        /* \"#utility.yul\":5224:5227   */\n      dup5\n        /* \"#utility.yul\":5220:5259   */\n      add\n        /* \"#utility.yul\":5213:5259   */\n      swap2\n      pop\n        /* \"#utility.yul\":4980:5265   */\n      pop\n        /* \"#utility.yul\":4888:5265   */\n      swap3\n      swap2\n      pop\n      pop\n      jump\t// out\n        /* \"#utility.yul\":5271:5792   */\n    tag_20:\n        /* \"#utility.yul\":5434:5438   */\n      0x00\n        /* \"#utility.yul\":5472:5474   */\n      0x60\n        /* \"#utility.yul\":5461:5470   */\n      dup3\n        /* \"#utility.yul\":5457:5475   */\n      add\n        /* \"#utility.yul\":5449:5475   */\n      swap1\n      pop\n        /* \"#utility.yul\":5485:5556   */\n      tag_143\n        /* \"#utility.yul\":5553:5554   */\n      0x00\n        /* \"#utility.yul\":5542:5551   */\n      dup4\n        /* \"#utility.yul\":5538:5555   */\n      add\n        /* \"#utility.yul\":5529:5535   */\n      dup7\n        /* \"#utility.yul\":5485:5556   */\n      tag_55\n      jump\t// in\n    tag_143:\n        /* \"#utility.yul\":5603:5612   */\n      dup2\n        /* \"#utility.yul\":5597:5601   */\n      dup2\n        /* \"#utility.yul\":5593:5613   */\n      sub\n        /* \"#utility.yul\":5588:5590   */\n      0x20\n        /* \"#utility.yul\":5577:5586   */\n      dup4\n        /* \"#utility.yul\":5573:5591   */\n      add\n        /* \"#utility.yul\":5566:5614   */\n      mstore\n        /* \"#utility.yul\":5631:5709   */\n      tag_144\n        /* \"#utility.yul\":5704:5708   */\n      dup2\n        /* \"#utility.yul\":5695:5701   */\n      dup6\n        /* \"#utility.yul\":5631:5709   */\n      tag_59\n      jump\t// in\n    tag_144:\n        /* \"#utility.yul\":5623:5709   */\n      swap1\n      pop\n        /* \"#utility.yul\":5719:5785   */\n      tag_145\n        /* \"#utility.yul\":5781:5783   */\n      0x40\n        /* \"#utility.yul\":5770:5779   */\n      dup4\n        /* \"#utility.yul\":5766:5784   */\n      add\n        /* \"#utility.yul\":5757:5763   */\n      dup5\n        /* \"#utility.yul\":5719:5785   */\n      tag_44\n      jump\t// in\n    tag_145:\n        /* \"#utility.yul\":5271:5792   */\n      swap5\n      swap4\n      pop\n      pop\n      pop\n      pop\n      jump\t// out\n        /* \"#utility.yul\":5798:5971   */\n    tag_60:\n        /* \"#utility.yul\":5938:5963   */\n      0x5573657220616c72656164792072656769737465726564000000000000000000\n        /* \"#utility.yul\":5934:5935   */\n      0x00\n        /* \"#utility.yul\":5926:5932   */\n      dup3\n        /* \"#utility.yul\":5922:5936   */\n      add\n        /* \"#utility.yul\":5915:5964   */\n      mstore\n        /* \"#utility.yul\":5798:5971   */\n      pop\n      jump\t// out\n        /* \"#utility.yul\":5977:6343   */\n    tag_61:\n        /* \"#utility.yul\":6119:6122   */\n      0x00\n        /* \"#utility.yul\":6140:6207   */\n      tag_148\n        /* \"#utility.yul\":6204:6206   */\n      0x17\n        /* \"#utility.yul\":6199:6202   */\n      dup4\n        /* \"#utility.yul\":6140:6207   */\n      tag_57\n      jump\t// in\n    tag_148:\n        /* \"#utility.yul\":6133:6207   */\n      swap2\n      pop\n        /* \"#utility.yul\":6216:6309   */\n      tag_149\n        /* \"#utility.yul\":6305:6308   */\n      dup3\n        /* \"#utility.yul\":6216:6309   */\n      tag_60\n      jump\t// in\n    tag_149:\n        /* \"#utility.yul\":6334:6336   */\n      0x20\n        /* \"#utility.yul\":6329:6332   */\n      dup3\n        /* \"#utility.yul\":6325:6337   */\n      add\n        /* \"#utility.yul\":6318:6337   */\n      swap1\n      pop\n        /* \"#utility.yul\":5977:6343   */\n      swap2\n      swap1\n      pop\n      jump\t// out\n        /* \"#utility.yul\":6349:6768   */\n    tag_25:\n        /* \"#utility.yul\":6515:6519   */\n      0x00\n        /* \"#utility.yul\":6553:6555   */\n      0x20\n        /* \"#utility.yul\":6542:6551   */\n      dup3\n        /* \"#utility.yul\":6538:6556   */\n      add\n        /* \"#utility.yul\":6530:6556   */\n      swap1\n      pop\n        /* \"#utility.yul\":6602:6611   */\n      dup2\n        /* \"#utility.yul\":6596:6600   */\n      dup2\n        /* \"#utility.yul\":6592:6612   */\n      sub\n        /* \"#utility.yul\":6588:6589   */\n      0x00\n        /* \"#utility.yul\":6577:6586   */\n      dup4\n        /* \"#utility.yul\":6573:6590   */\n      add\n        /* \"#utility.yul\":6566:6613   */\n      mstore\n        /* \"#utility.yul\":6630:6761   */\n      tag_151\n        /* \"#utility.yul\":6756:6760   */\n      dup2\n        /* \"#utility.yul\":6630:6761   */\n      tag_61\n      jump\t// in\n    tag_151:\n        /* \"#utility.yul\":6622:6761   */\n      swap1\n      pop\n        /* \"#utility.yul\":6349:6768   */\n      swap2\n      swap1\n      pop\n      jump\t// out\n        /* \"#utility.yul\":6774:6954   */\n    tag_62:\n        /* \"#utility.yul\":6822:6899   */\n      0x4e487b7100000000000000000000000000000000000000000000000000000000\n        /* \"#utility.yul\":6819:6820   */\n      0x00\n        /* \"#utility.yul\":6812:6900   */\n      mstore\n        /* \"#utility.yul\":6919:6923   */\n      0x22\n        /* \"#utility.yul\":6916:6917   */\n      0x04\n        /* \"#utility.yul\":6909:6924   */\n      mstore\n        /* \"#utility.yul\":6943:6947   */\n      0x24\n        /* \"#utility.yul\":6940:6941   */\n      0x00\n        /* \"#utility.yul\":6933:6948   */\n      revert\n        /* \"#utility.yul\":6960:7280   */\n    tag_31:\n        /* \"#utility.yul\":7004:7010   */\n      0x00\n        /* \"#utility.yul\":7041:7042   */\n      0x02\n        /* \"#utility.yul\":7035:7039   */\n      dup3\n        /* \"#utility.yul\":7031:7043   */\n      div\n        /* \"#utility.yul\":7021:7043   */\n      swap1\n      pop\n        /* \"#utility.yul\":7088:7089   */\n      0x01\n        /* \"#utility.yul\":7082:7086   */\n      dup3\n        /* \"#utility.yul\":7078:7090   */\n      and\n        /* \"#utility.yul\":7109:7127   */\n      dup1\n        /* \"#utility.yul\":7099:7180   */\n      tag_154\n      jumpi\n        /* \"#utility.yul\":7165:7169   */\n      0x7f\n        /* \"#utility.yul\":7157:7163   */\n      dup3\n        /* \"#utility.yul\":7153:7170   */\n      and\n        /* \"#utility.yul\":7143:7170   */\n      swap2\n      pop\n        /* \"#utility.yul\":7099:7180   */\n    tag_154:\n        /* \"#utility.yul\":7227:7229   */\n      0x20\n        /* \"#utility.yul\":7219:7225   */\n      dup3\n        /* \"#utility.yul\":7216:7230   */\n      lt\n        /* \"#utility.yul\":7196:7214   */\n      dup2\n        /* \"#utility.yul\":7193:7231   */\n      sub\n        /* \"#utility.yul\":7190:7274   */\n      tag_155\n      jumpi\n        /* \"#utility.yul\":7246:7264   */\n      tag_156\n      tag_62\n      jump\t// in\n    tag_156:\n        /* \"#utility.yul\":7190:7274   */\n    tag_155:\n        /* \"#utility.yul\":7011:7280   */\n      pop\n        /* \"#utility.yul\":6960:7280   */\n      swap2\n      swap1\n      pop\n      jump\t// out\n        /* \"#utility.yul\":7286:7427   */\n    tag_63:\n        /* \"#utility.yul\":7335:7339   */\n      0x00\n        /* \"#utility.yul\":7358:7361   */\n      dup2\n        /* \"#utility.yul\":7350:7361   */\n      swap1\n      pop\n        /* \"#utility.yul\":7381:7384   */\n      dup2\n        /* \"#utility.yul\":7378:7379   */\n      0x00\n        /* \"#utility.yul\":7371:7385   */\n      mstore\n        /* \"#utility.yul\":7415:7419   */\n      0x20\n        /* \"#utility.yul\":7412:7413   */\n      0x00\n        /* \"#utility.yul\":7402:7420   */\n      keccak256\n        /* \"#utility.yul\":7394:7420   */\n      swap1\n      pop\n        /* \"#utility.yul\":7286:7427   */\n      swap2\n      swap1\n      pop\n      jump\t// out\n        /* \"#utility.yul\":7433:7526   */\n    tag_64:\n        /* \"#utility.yul\":7470:7476   */\n      0x00\n        /* \"#utility.yul\":7517:7519   */\n      0x20\n        /* \"#utility.yul\":7512:7514   */\n      0x1f\n        /* \"#utility.yul\":7505:7510   */\n      dup4\n        /* \"#utility.yul\":7501:7515   */\n      add\n        /* \"#utility.yul\":7497:7520   */\n      div\n        /* \"#utility.yul\":7487:7520   */\n      swap1\n      pop\n        /* \"#utility.yul\":7433:7526   */\n      swap2\n      swap1\n      pop\n      jump\t// out\n        /* \"#utility.yul\":7532:7639   */\n    tag_65:\n        /* \"#utility.yul\":7576:7584   */\n      0x00\n        /* \"#utility.yul\":7626:7631   */\n      dup3\n        /* \"#utility.yul\":7620:7624   */\n      dup3\n        /* \"#utility.yul\":7616:7632   */\n      shl\n        /* \"#utility.yul\":7595:7632   */\n      swap1\n      pop\n        /* \"#utility.yul\":7532:7639   */\n      swap3\n      swap2\n      pop\n      pop\n      jump\t// out\n        /* \"#utility.yul\":7645:8038   */\n    tag_66:\n        /* \"#utility.yul\":7714:7720   */\n      0x00\n        /* \"#utility.yul\":7764:7765   */\n      0x08\n        /* \"#utility.yul\":7752:7762   */\n      dup4\n        /* \"#utility.yul\":7748:7766   */\n      mul\n        /* \"#utility.yul\":7787:7884   */\n      tag_161\n        /* \"#utility.yul\":7817:7883   */\n      0xffffffffffffffffffffffffffffffffffffffffffffffffffffffffffffffff\n        /* \"#utility.yul\":7806:7815   */\n      dup3\n        /* \"#utility.yul\":7787:7884   */\n      tag_65\n      jump\t// in\n    tag_161:\n        /* \"#utility.yul\":7905:7944   */\n      tag_162\n        /* \"#utility.yul\":7935:7943   */\n      dup7\n        /* \"#utility.yul\":7924:7933   */\n      dup4\n        /* \"#utility.yul\":7905:7944   */\n      tag_65\n      jump\t// in\n    tag_162:\n        /* \"#utility.yul\":7893:7944   */\n      swap6\n      pop\n        /* \"#utility.yul\":7977:7981   */\n      dup1\n        /* \"#utility.yul\":7973:7982   */\n      not\n        /* \"#utility.yul\":7966:7971   */\n      dup5\n        /* \"#utility.yul\":7962:7983   */\n      and\n        /* \"#utility.yul\":7953:7983   */\n      swap4\n      pop\n        /* \"#utility.yul\":8026:8030   */\n      dup1\n        /* \"#utility.yul\":8016:8024   */\n      dup7\n        /* \"#utility.yul\":8012:8031   */\n      and\n        /* \"#utility.yul\":8005:8010   */\n      dup5\n        /* \"#utility.yul\":8002:8032   */\n      or\n        /* \"#utility.yul\":7992:8032   */\n      swap3\n      pop\n        /* \"#utility.yul\":7721:8038   */\n      pop\n      pop\n        /* \"#utility.yul\":7645:8038   */\n      swap4\n      swap3\n      pop\n      pop\n      pop\n      jump\t// out\n        /* \"#utility.yul\":8044:8121   */\n    tag_67:\n        /* \"#utility.yul\":8081:8088   */\n      0x00\n        /* \"#utility.yul\":8110:8115   */\n      dup2\n        /* \"#utility.yul\":8099:8115   */\n      swap1\n      pop\n        /* \"#utility.yul\":8044:8121   */\n      swap2\n      swap1\n      pop\n      jump\t// out\n        /* \"#utility.yul\":8127:8187   */\n    tag_68:\n        /* \"#utility.yul\":8155:8158   */\n      0x00\n        /* \"#utility.yul\":8176:8181   */\n      dup2\n        /* \"#utility.yul\":8169:8181   */\n      swap1\n      pop\n        /* \"#utility.yul\":8127:8187   */\n      swap2\n      swap1\n      pop\n      jump\t// out\n        /* \"#utility.yul\":8193:8335   */\n    tag_69:\n        /* \"#utility.yul\":8243:8252   */\n      0x00\n        /* \"#utility.yul\":8276:8329   */\n      tag_166\n        /* \"#utility.yul\":8294:8328   */\n      tag_167\n        /* \"#utility.yul\":8303:8327   */\n      tag_168\n        /* \"#utility.yul\":8321:8326   */\n      dup5\n        /* \"#utility.yul\":8303:8327   */\n      tag_67\n      jump\t// in\n    tag_168:\n        /* \"#utility.yul\":8294:8328   */\n      tag_68\n      jump\t// in\n    tag_167:\n        /* \"#utility.yul\":8276:8329   */\n      tag_67\n      jump\t// in\n    tag_166:\n        /* \"#utility.yul\":8263:8329   */\n      swap1\n      pop\n        /* \"#utility.yul\":8193:8335   */\n      swap2\n      swap1\n      pop\n      jump\t// out\n        /* \"#utility.yul\":8341:8416   */\n    tag_70:\n        /* \"#utility.yul\":8384:8387   */\n      0x00\n        /* \"#utility.yul\":8405:8410   */\n      dup2\n        /* \"#utility.yul\":8398:8410   */\n      swap1\n      pop\n        /* \"#utility.yul\":8341:8416   */\n      swap2\n      swap1\n      pop\n      jump\t// out\n        /* \"#utility.yul\":8422:8691   */\n    tag_71:\n        /* \"#utility.yul\":8532:8571   */\n      tag_171\n        /* \"#utility.yul\":8563:8570   */\n      dup4\n        /* \"#utility.yul\":8532:8571   */\n      tag_69\n      jump\t// in\n    tag_171:\n        /* \"#utility.yul\":8593:8684   */\n      tag_172\n        /* \"#utility.yul\":8642:8683   */\n      tag_173\n        /* \"#utility.yul\":8666:8682   */\n      dup3\n        /* \"#utility.yul\":8642:8683   */\n      tag_70\n      jump\t// in\n    tag_173:\n        /* \"#utility.yul\":8634:8640   */\n      dup5\n        /* \"#utility.yul\":8627:8631   */\n      dup5\n        /* \"#utility.yul\":8621:8632   */\n      sload\n        /* \"#utility.yul\":8593:8684   */\n      tag_66\n      jump\t// in\n    tag_172:\n        /* \"#utility.yul\":8587:8591   */\n      dup3\n        /* \"#utility.yul\":8580:8685   */\n      sstore\n        /* \"#utility.yul\":8498:8691   */\n      pop\n        /* \"#utility.yul\":8422:8691   */\n      pop\n      pop\n      pop\n      jump\t// out\n        /* \"#utility.yul\":8697:8770   */\n    tag_72:\n        /* \"#utility.yul\":8742:8745   */\n      0x00\n        /* \"#utility.yul\":8697:8770   */\n      swap1\n      jump\t// out\n        /* \"#utility.yul\":8776:8965   */\n    tag_73:\n        /* \"#utility.yul\":8853:8885   */\n      tag_176\n      tag_72\n      jump\t// in\n    tag_176:\n        /* \"#utility.yul\":8894:8959   */\n      tag_177\n        /* \"#utility.yul\":8952:8958   */\n      dup2\n        /* \"#utility.yul\":8944:8950   */\n      dup5\n        /* \"#utility.yul\":8938:8942   */\n      dup5\n        /* \"#utility.yul\":8894:8959   */\n      tag_71\n      jump\t// in\n    tag_177:\n        /* \"#utility.yul\":8829:8965   */\n      pop\n        /* \"#utility.yul\":8776:8965   */\n      pop\n      pop\n      jump\t// out\n        /* \"#utility.yul\":8971:9157   */\n    tag_74:\n        /* \"#utility.yul\":9031:9151   */\n    tag_179:\n        /* \"#utility.yul\":9048:9051   */\n      dup2\n        /* \"#utility.yul\":9041:9046   */\n      dup2\n        /* \"#utility.yul\":9038:9052   */\n      lt\n        /* \"#utility.yul\":9031:9151   */\n      iszero\n      tag_181\n      jumpi\n        /* \"#utility.yul\":9102:9141   */\n      tag_182\n        /* \"#utility.yul\":9139:9140   */\n      0x00\n        /* \"#utility.yul\":9132:9137   */\n      dup3\n        /* \"#utility.yul\":9102:9141   */\n      tag_73\n      jump\t// in\n    tag_182:\n        /* \"#utility.yul\":9075:9076   */\n      0x01\n        /* \"#utility.yul\":9068:9073   */\n      dup2\n        /* \"#utility.yul\":9064:9077   */\n      add\n        /* \"#utility.yul\":9055:9077   */\n      swap1\n      pop\n        /* \"#utility.yul\":9031:9151   */\n      jump(tag_179)\n    tag_181:\n        /* \"#utility.yul\":8971:9157   */\n      pop\n      pop\n      jump\t// out\n        /* \"#utility.yul\":9163:9706   */\n    tag_75:\n        /* \"#utility.yul\":9264:9266   */\n      0x1f\n        /* \"#utility.yul\":9259:9262   */\n      dup3\n        /* \"#utility.yul\":9256:9267   */\n      gt\n        /* \"#utility.yul\":9253:9699   */\n      iszero\n      tag_184\n      jumpi\n        /* \"#utility.yul\":9298:9336   */\n      tag_185\n        /* \"#utility.yul\":9330:9335   */\n      dup2\n        /* \"#utility.yul\":9298:9336   */\n      tag_63\n      jump\t// in\n    tag_185:\n        /* \"#utility.yul\":9382:9411   */\n      tag_186\n        /* \"#utility.yul\":9400:9410   */\n      dup5\n        /* \"#utility.yul\":9382:9411   */\n      tag_64\n      jump\t// in\n    tag_186:\n        /* \"#utility.yul\":9372:9380   */\n      dup2\n        /* \"#utility.yul\":9368:9412   */\n      add\n        /* \"#utility.yul\":9565:9567   */\n      0x20\n        /* \"#utility.yul\":9553:9563   */\n      dup6\n        /* \"#utility.yul\":9550:9568   */\n      lt\n        /* \"#utility.yul\":9547:9596   */\n      iszero\n      tag_187\n      jumpi\n        /* \"#utility.yul\":9586:9594   */\n      dup2\n        /* \"#utility.yul\":9571:9594   */\n      swap1\n      pop\n        /* \"#utility.yul\":9547:9596   */\n    tag_187:\n        /* \"#utility.yul\":9609:9689   */\n      tag_188\n        /* \"#utility.yul\":9665:9687   */\n      tag_189\n        /* \"#utility.yul\":9683:9686   */\n      dup6\n        /* \"#utility.yul\":9665:9687   */\n      tag_64\n      jump\t// in\n    tag_189:\n        /* \"#utility.yul\":9655:9663   */\n      dup4\n        /* \"#utility.yul\":9651:9688   */\n      add\n        /* \"#utility.yul\":9638:9649   */\n      dup3\n        /* \"#utility.yul\":9609:9689   */\n      tag_74\n      jump\t// in\n    tag_188:\n        /* \"#utility.yul\":9268:9699   */\n      pop\n      pop\n        /* \"#utility.yul\":9253:9699   */\n    tag_184:\n        /* \"#utility.yul\":9163:9706   */\n      pop\n      pop\n      pop\n      jump\t// out\n        /* \"#utility.yul\":9712:9829   */\n    tag_76:\n        /* \"#utility.yul\":9766:9774   */\n      0x00\n        /* \"#utility.yul\":9816:9821   */\n      dup3\n        /* \"#utility.yul\":9810:9814   */\n      dup3\n        /* \"#utility.yul\":9806:9822   */\n      shr\n        /* \"#utility.yul\":9785:9822   */\n      swap1\n      pop\n        /* \"#utility.yul\":9712:9829   */\n      swap3\n      swap2\n      pop\n      pop\n      jump\t// out\n        /* \"#utility.yul\":9835:10004   */\n    tag_77:\n        /* \"#utility.yul\":9879:9885   */\n      0x00\n        /* \"#utility.yul\":9912:9963   */\n      tag_192\n        /* \"#utility.yul\":9960:9961   */\n      0x00\n        /* \"#utility.yul\":9956:9962   */\n      not\n        /* \"#utility.yul\":9948:9953   */\n      dup5\n        /* \"#utility.yul\":9945:9946   */\n      0x08\n        /* \"#utility.yul\":9941:9954   */\n      mul\n        /* \"#utility.yul\":9912:9963   */\n      tag_76\n      jump\t// in\n    tag_192:\n        /* \"#utility.yul\":9908:9964   */\n      not\n        /* \"#utility.yul\":9993:9997   */\n      dup1\n        /* \"#utility.yul\":9987:9991   */\n      dup4\n        /* \"#utility.yul\":9983:9998   */\n      and\n        /* \"#utility.yul\":9973:9998   */\n      swap2\n      pop\n        /* \"#utility.yul\":9886:10004   */\n      pop\n        /* \"#utility.yul\":9835:10004   */\n      swap3\n      swap2\n      pop\n      pop\n      jump\t// out\n        /* \"#utility.yul\":10009:10304   */\n    tag_78:\n        /* \"#utility.yul\":10085:10089   */\n      0x00\n        /* \"#utility.yul\":10231:10260   */\n      tag_194\n        /* \"#utility.yul\":10256:10259   */\n      dup4\n        /* \"#utility.yul\":10250:10254   */\n      dup4\n        /* \"#utility.yul\":10231:10260   */\n      tag_77\n      jump\t// in\n    tag_194:\n        /* \"#utility.yul\":10223:10260   */\n      swap2\n      pop\n        /* \"#utility.yul\":10293:10296   */\n      dup3\n        /* \"#utility.yul\":10290:10291   */\n      0x02\n        /* \"#utility.yul\":10286:10297   */\n      mul\n        /* \"#utility.yul\":10280:10284   */\n      dup3\n        /* \"#utility.yul\":10277:10298   */\n      or\n        /* \"#utility.yul\":10269:10298   */\n      swap1\n      pop\n        /* \"#utility.yul\":10009:10304   */\n      swap3\n      swap2\n      pop\n      pop\n      jump\t// out\n        /* \"#utility.yul\":10309:11704   */\n    tag_27:\n        /* \"#utility.yul\":10426:10463   */\n      tag_196\n        /* \"#utility.yul\":10459:10462   */\n      dup3\n        /* \"#utility.yul\":10426:10463   */\n      tag_56\n      jump\t// in\n    tag_196:\n        /* \"#utility.yul\":10528:10546   */\n      0xffffffffffffffff\n        /* \"#utility.yul\":10520:10526   */\n      dup2\n        /* \"#utility.yul\":10517:10547   */\n      gt\n        /* \"#utility.yul\":10514:10570   */\n      iszero\n      tag_197\n      jumpi\n        /* \"#utility.yul\":10550:10568   */\n      tag_198\n      tag_48\n      jump\t// in\n    tag_198:\n        /* \"#utility.yul\":10514:10570   */\n    tag_197:\n        /* \"#utility.yul\":10594:10632   */\n      tag_199\n        /* \"#utility.yul\":10626:10630   */\n      dup3\n        /* \"#utility.yul\":10620:10631   */\n      sload\n        /* \"#utility.yul\":10594:10632   */\n      tag_31\n      jump\t// in\n    tag_199:\n        /* \"#utility.yul\":10679:10746   */\n      tag_200\n        /* \"#utility.yul\":10739:10745   */\n      dup3\n        /* \"#utility.yul\":10731:10737   */\n      dup3\n        /* \"#utility.yul\":10725:10729   */\n      dup6\n        /* \"#utility.yul\":10679:10746   */\n      tag_75\n      jump\t// in\n    tag_200:\n        /* \"#utility.yul\":10773:10774   */\n      0x00\n        /* \"#utility.yul\":10797:10801   */\n      0x20\n        /* \"#utility.yul\":10784:10801   */\n      swap1\n      pop\n        /* \"#utility.yul\":10829:10831   */\n      0x1f\n        /* \"#utility.yul\":10821:10827   */\n      dup4\n        /* \"#utility.yul\":10818:10832   */\n      gt\n        /* \"#utility.yul\":10846:10847   */\n      0x01\n        /* \"#utility.yul\":10841:11459   */\n      dup2\n      eq\n      tag_202\n      jumpi\n        /* \"#utility.yul\":11503:11504   */\n      0x00\n        /* \"#utility.yul\":11520:11526   */\n      dup5\n        /* \"#utility.yul\":11517:11594   */\n      iszero\n      tag_203\n      jumpi\n        /* \"#utility.yul\":11569:11578   */\n      dup3\n        /* \"#utility.yul\":11564:11567   */\n      dup8\n        /* \"#utility.yul\":11560:11579   */\n      add\n        /* \"#utility.yul\":11554:11580   */\n      mload\n        /* \"#utility.yul\":11545:11580   */\n      swap1\n      pop\n        /* \"#utility.yul\":11517:11594   */\n    tag_203:\n        /* \"#utility.yul\":11620:11687   */\n      tag_204\n        /* \"#utility.yul\":11680:11686   */\n      dup6\n        /* \"#utility.yul\":11673:11678   */\n      dup3\n        /* \"#utility.yul\":11620:11687   */\n      tag_78\n      jump\t// in\n    tag_204:\n        /* \"#utility.yul\":11614:11618   */\n      dup7\n        /* \"#utility.yul\":11607:11688   */\n      sstore\n        /* \"#utility.yul\":11476:11698   */\n      pop\n        /* \"#utility.yul\":10811:11698   */\n      jump(tag_201)\n        /* \"#utility.yul\":10841:11459   */\n    tag_202:\n        /* \"#utility.yul\":10893:10897   */\n      0x1f\n        /* \"#utility.yul\":10889:10898   */\n      not\n        /* \"#utility.yul\":10881:10887   */\n      dup5\n        /* \"#utility.yul\":10877:10899   */\n      and\n        /* \"#utility.yul\":10927:10964   */\n      tag_205\n        /* \"#utility.yul\":10959:10963   */\n      dup7\n        /* \"#utility.yul\":10927:10964   */\n      tag_63\n      jump\t// in\n    tag_205:\n        /* \"#utility.yul\":10986:10987   */\n      0x00\n        /* \"#utility.yul\":11000:11208   */\n    tag_206:\n        /* \"#utility.yul\":11014:11021   */\n      dup3\n        /* \"#utility.yul\":11011:11012   */\n      dup2\n        /* \"#utility.yul\":11008:11022   */\n      lt\n        /* \"#utility.yul\":11000:11208   */\n      iszero\n      tag_208\n      jumpi\n        /* \"#utility.yul\":11093:11102   */\n      dup5\n        /* \"#utility.yul\":11088:11091   */\n      dup10\n        /* \"#utility.yul\":11084:11103   */\n      add\n        /* \"#utility.yul\":11078:11104   */\n      mload\n        /* \"#utility.yul\":11070:11076   */\n      dup3\n        /* \"#utility.yul\":11063:11105   */\n      sstore\n        /* \"#utility.yul\":11144:11145   */\n      0x01\n        /* \"#utility.yul\":11136:11142   */\n      dup3\n        /* \"#utility.yul\":11132:11146   */\n      add\n        /* \"#utility.yul\":11122:11146   */\n      swap2\n      pop\n        /* \"#utility.yul\":11191:11193   */\n      0x20\n        /* \"#utility.yul\":11180:11189   */\n      dup6\n        /* \"#utility.yul\":11176:11194   */\n      add\n        /* \"#utility.yul\":11163:11194   */\n      swap5\n      pop\n        /* \"#utility.yul\":11037:11041   */\n      0x20\n        /* \"#utility.yul\":11034:11035   */\n      dup2\n        /* \"#utility.yul\":11030:11042   */\n      add\n        /* \"#utility.yul\":11025:11042   */\n      swap1\n      pop\n        /* \"#utility.yul\":11000:11208   */\n      jump(tag_206)\n    tag_208:\n        /* \"#utility.yul\":11236:11242   */\n      dup7\n        /* \"#utility.yul\":11227:11234   */\n      dup4\n        /* \"#utility.yul\":11224:11243   */\n      lt\n        /* \"#utility.yul\":11221:11400   */\n      iszero\n      tag_209\n      jumpi\n        /* \"#utility.yul\":11294:11303   */\n      dup5\n        /* \"#utility.yul\":11289:11292   */\n      dup10\n        /* \"#utility.yul\":11285:11304   */\n      add\n        /* \"#utility.yul\":11279:11305   */\n      mload\n        /* \"#utility.yul\":11337:11385   */\n      tag_210\n        /* \"#utility.yul\":11379:11383   */\n      0x1f\n        /* \"#utility.yul\":11371:11377   */\n      dup10\n        /* \"#utility.yul\":11367:11384   */\n      and\n        /* \"#utility.yul\":11356:11365   */\n      dup3\n        /* \"#utility.yul\":11337:11385   */\n      tag_77\n      jump\t// in\n    tag_210:\n        /* \"#utility.yul\":11329:11335   */\n      dup4\n        /* \"#utility.yul\":11322:11386   */\n      sstore\n        /* \"#utility.yul\":11244:11400   */\n      pop\n        /* \"#utility.yul\":11221:11400   */\n    tag_209:\n        /* \"#utility.yul\":11446:11447   */\n      0x01\n        /* \"#utility.yul\":11442:11443   */\n      0x02\n        /* \"#utility.yul\":11434:11440   */\n      dup9\n        /* \"#utility.yul\":11430:11444   */\n      mul\n        /* \"#utility.yul\":11426:11448   */\n      add\n        /* \"#utility.yul\":11420:11424   */\n      dup9\n        /* \"#utility.yul\":11413:11449   */\n      sstore\n        /* \"#utility.yul\":10848:11459   */\n      pop\n      pop\n      pop\n        /* \"#utility.yul\":10811:11698   */\n    tag_201:\n      pop\n        /* \"#utility.yul\":10401:11704   */\n      pop\n      pop\n      pop\n        /* \"#utility.yul\":10309:11704   */\n      pop\n      pop\n      jump\t// out\n        /* \"#utility.yul\":11710:12023   */\n    tag_29:\n        /* \"#utility.yul\":11823:11827   */\n      0x00\n        /* \"#utility.yul\":11861:11863   */\n      0x20\n        /* \"#utility.yul\":11850:11859   */\n      dup3\n        /* \"#utility.yul\":11846:11864   */\n      add\n        /* \"#utility.yul\":11838:11864   */\n      swap1\n      pop\n        /* \"#utility.yul\":11910:11919   */\n      dup2\n        /* \"#utility.yul\":11904:11908   */\n      dup2\n        /* \"#utility.yul\":11900:11920   */\n      sub\n        /* \"#utility.yul\":11896:11897   */\n      0x00\n        /* \"#utility.yul\":11885:11894   */\n      dup4\n        /* \"#utility.yul\":11881:11898   */\n      add\n        /* \"#utility.yul\":11874:11921   */\n      mstore\n        /* \"#utility.yul\":11938:12016   */\n      tag_212\n        /* \"#utility.yul\":12011:12015   */\n      dup2\n        /* \"#utility.yul\":12002:12008   */\n      dup5\n        /* \"#utility.yul\":11938:12016   */\n      tag_59\n      jump\t// in\n    tag_212:\n        /* \"#utility.yul\":11930:12016   */\n      swap1\n      pop\n        /* \"#utility.yul\":11710:12023   */\n      swap3\n      swap2\n      pop\n      pop\n      jump\t// out\n\n    auxdata: 0xa2646970667358221220280a17395ec290aadf77ab25a1875a90c7306daaeeb7a0b763c6d012c98fce0364736f6c634300081a0033\n}\n",
				"bytecode": {
					"linkReferences": {},
					"object": "6080604052348015600e575f80fd5b50610a3b8061001c5f395ff3fe608060405234801561000f575f80fd5b506004361061003f575f3560e01c8063163f752214610043578063704f1b9414610073578063a87430ba1461008f575b5f80fd5b61005d6004803603810190610058919061041f565b6100c1565b60405161006a9190610464565b60405180910390f35b61008d600480360381019061008891906105b9565b610115565b005b6100a960048036038101906100a4919061041f565b6102de565b6040516100b89392919061066f565b60405180910390f35b5f805f8373ffffffffffffffffffffffffffffffffffffffff1673ffffffffffffffffffffffffffffffffffffffff1681526020019081526020015f206002015f9054906101000a900460ff169050919050565b5f803373ffffffffffffffffffffffffffffffffffffffff1673ffffffffffffffffffffffffffffffffffffffff1681526020019081526020015f206002015f9054906101000a900460ff16156101a1576040517f08c379a0000000000000000000000000000000000000000000000000000000008152600401610198906106f5565b60405180910390fd5b60405180606001604052803373ffffffffffffffffffffffffffffffffffffffff168152602001828152602001600115158152505f803373ffffffffffffffffffffffffffffffffffffffff1673ffffffffffffffffffffffffffffffffffffffff1681526020019081526020015f205f820151815f015f6101000a81548173ffffffffffffffffffffffffffffffffffffffff021916908373ffffffffffffffffffffffffffffffffffffffff160217905550602082015181600101908161026a9190610916565b506040820151816002015f6101000a81548160ff0219169083151502179055509050503373ffffffffffffffffffffffffffffffffffffffff167f48cac28ad4dc618e15f4c2dd5e97751182f166de97b25618318b2112aa951a2f826040516102d391906109e5565b60405180910390a250565b5f602052805f5260405f205f91509050805f015f9054906101000a900473ffffffffffffffffffffffffffffffffffffffff169080600101805461032190610740565b80601f016020809104026020016040519081016040528092919081815260200182805461034d90610740565b80156103985780601f1061036f57610100808354040283529160200191610398565b820191905f5260205f20905b81548152906001019060200180831161037b57829003601f168201915b505050505090806002015f9054906101000a900460ff16905083565b5f604051905090565b5f80fd5b5f80fd5b5f73ffffffffffffffffffffffffffffffffffffffff82169050919050565b5f6103ee826103c5565b9050919050565b6103fe816103e4565b8114610408575f80fd5b50565b5f81359050610419816103f5565b92915050565b5f60208284031215610434576104336103bd565b5b5f6104418482850161040b565b91505092915050565b5f8115159050919050565b61045e8161044a565b82525050565b5f6020820190506104775f830184610455565b92915050565b5f80fd5b5f80fd5b5f601f19601f8301169050919050565b7f4e487b71000000000000000000000000000000000000000000000000000000005f52604160045260245ffd5b6104cb82610485565b810181811067ffffffffffffffff821117156104ea576104e9610495565b5b80604052505050565b5f6104fc6103b4565b905061050882826104c2565b919050565b5f67ffffffffffffffff82111561052757610526610495565b5b61053082610485565b9050602081019050919050565b828183375f83830152505050565b5f61055d6105588461050d565b6104f3565b90508281526020810184848401111561057957610578610481565b5b61058484828561053d565b509392505050565b5f82601f8301126105a05761059f61047d565b5b81356105b084826020860161054b565b91505092915050565b5f602082840312156105ce576105cd6103bd565b5b5f82013567ffffffffffffffff8111156105eb576105ea6103c1565b5b6105f78482850161058c565b91505092915050565b610609816103e4565b82525050565b5f81519050919050565b5f82825260208201905092915050565b8281835e5f83830152505050565b5f6106418261060f565b61064b8185610619565b935061065b818560208601610629565b61066481610485565b840191505092915050565b5f6060820190506106825f830186610600565b81810360208301526106948185610637565b90506106a36040830184610455565b949350505050565b7f5573657220616c726561647920726567697374657265640000000000000000005f82015250565b5f6106df601783610619565b91506106ea826106ab565b602082019050919050565b5f6020820190508181035f83015261070c816106d3565b9050919050565b7f4e487b71000000000000000000000000000000000000000000000000000000005f52602260045260245ffd5b5f600282049050600182168061075757607f821691505b60208210810361076a57610769610713565b5b50919050565b5f819050815f5260205f209050919050565b5f6020601f8301049050919050565b5f82821b905092915050565b5f600883026107cc7fffffffffffffffffffffffffffffffffffffffffffffffffffffffffffffffff82610791565b6107d68683610791565b95508019841693508086168417925050509392505050565b5f819050919050565b5f819050919050565b5f61081a610815610810846107ee565b6107f7565b6107ee565b9050919050565b5f819050919050565b61083383610800565b61084761083f82610821565b84845461079d565b825550505050565b5f90565b61085b61084f565b61086681848461082a565b505050565b5b818110156108895761087e5f82610853565b60018101905061086c565b5050565b601f8211156108ce5761089f81610770565b6108a884610782565b810160208510156108b7578190505b6108cb6108c385610782565b83018261086b565b50505b505050565b5f82821c905092915050565b5f6108ee5f19846008026108d3565b1980831691505092915050565b5f61090683836108df565b9150826002028217905092915050565b61091f8261060f565b67ffffffffffffffff81111561093857610937610495565b5b6109428254610740565b61094d82828561088d565b5f60209050601f83116001811461097e575f841561096c578287015190505b61097685826108fb565b8655506109dd565b601f19841661098c86610770565b5f5b828110156109b35784890151825560018201915060208501945060208101905061098e565b868310156109d057848901516109cc601f8916826108df565b8355505b6001600288020188555050505b505050505050565b5f6020820190508181035f8301526109fd8184610637565b90509291505056fea2646970667358221220280a17395ec290aadf77ab25a1875a90c7306daaeeb7a0b763c6d012c98fce0364736f6c634300081a0033",
					"opcodes": "PUSH1 0x80 PUSH1 0x40 MSTORE CALLVALUE DUP1 ISZERO PUSH1 0xE JUMPI PUSH0 DUP1 REVERT JUMPDEST POP PUSH2 0xA3B DUP1 PUSH2 0x1C PUSH0 CODECOPY PUSH0 RETURN INVALID PUSH1 0x80 PUSH1 0x40 MSTORE CALLVALUE DUP1 ISZERO PUSH2 0xF JUMPI PUSH0 DUP1 REVERT JUMPDEST POP PUSH1 0x4 CALLDATASIZE LT PUSH2 0x3F JUMPI PUSH0 CALLDATALOAD PUSH1 0xE0 SHR DUP1 PUSH4 0x163F7522 EQ PUSH2 0x43 JUMPI DUP1 PUSH4 0x704F1B94 EQ PUSH2 0x73 JUMPI DUP1 PUSH4 0xA87430BA EQ PUSH2 0x8F JUMPI JUMPDEST PUSH0 DUP1 REVERT JUMPDEST PUSH2 0x5D PUSH1 0x4 DUP1 CALLDATASIZE SUB DUP2 ADD SWAP1 PUSH2 0x58 SWAP2 SWAP1 PUSH2 0x41F JUMP JUMPDEST PUSH2 0xC1 JUMP JUMPDEST PUSH1 0x40 MLOAD PUSH2 0x6A SWAP2 SWAP1 PUSH2 0x464 JUMP JUMPDEST PUSH1 0x40 MLOAD DUP1 SWAP2 SUB SWAP1 RETURN JUMPDEST PUSH2 0x8D PUSH1 0x4 DUP1 CALLDATASIZE SUB DUP2 ADD SWAP1 PUSH2 0x88 SWAP2 SWAP1 PUSH2 0x5B9 JUMP JUMPDEST PUSH2 0x115 JUMP JUMPDEST STOP JUMPDEST PUSH2 0xA9 PUSH1 0x4 DUP1 CALLDATASIZE SUB DUP2 ADD SWAP1 PUSH2 0xA4 SWAP2 SWAP1 PUSH2 0x41F JUMP JUMPDEST PUSH2 0x2DE JUMP JUMPDEST PUSH1 0x40 MLOAD PUSH2 0xB8 SWAP4 SWAP3 SWAP2 SWAP1 PUSH2 0x66F JUMP JUMPDEST PUSH1 0x40 MLOAD DUP1 SWAP2 SUB SWAP1 RETURN JUMPDEST PUSH0 DUP1 PUSH0 DUP4 PUSH20 0xFFFFFFFFFFFFFFFFFFFFFFFFFFFFFFFFFFFFFFFF AND PUSH20 0xFFFFFFFFFFFFFFFFFFFFFFFFFFFFFFFFFFFFFFFF AND DUP2 MSTORE PUSH1 0x20 ADD SWAP1 DUP2 MSTORE PUSH1 0x20 ADD PUSH0 KECCAK256 PUSH1 0x2 ADD PUSH0 SWAP1 SLOAD SWAP1 PUSH2 0x100 EXP SWAP1 DIV PUSH1 0xFF AND SWAP1 POP SWAP2 SWAP1 POP JUMP JUMPDEST PUSH0 DUP1 CALLER PUSH20 0xFFFFFFFFFFFFFFFFFFFFFFFFFFFFFFFFFFFFFFFF AND PUSH20 0xFFFFFFFFFFFFFFFFFFFFFFFFFFFFFFFFFFFFFFFF AND DUP2 MSTORE PUSH1 0x20 ADD SWAP1 DUP2 MSTORE PUSH1 0x20 ADD PUSH0 KECCAK256 PUSH1 0x2 ADD PUSH0 SWAP1 SLOAD SWAP1 PUSH2 0x100 EXP SWAP1 DIV PUSH1 0xFF AND ISZERO PUSH2 0x1A1 JUMPI PUSH1 0x40 MLOAD PUSH32 0x8C379A000000000000000000000000000000000000000000000000000000000 DUP2 MSTORE PUSH1 0x4 ADD PUSH2 0x198 SWAP1 PUSH2 0x6F5 JUMP JUMPDEST PUSH1 0x40 MLOAD DUP1 SWAP2 SUB SWAP1 REVERT JUMPDEST PUSH1 0x40 MLOAD DUP1 PUSH1 0x60 ADD PUSH1 0x40 MSTORE DUP1 CALLER PUSH20 0xFFFFFFFFFFFFFFFFFFFFFFFFFFFFFFFFFFFFFFFF AND DUP2 MSTORE PUSH1 0x20 ADD DUP3 DUP2 MSTORE PUSH1 0x20 ADD PUSH1 0x1 ISZERO ISZERO DUP2 MSTORE POP PUSH0 DUP1 CALLER PUSH20 0xFFFFFFFFFFFFFFFFFFFFFFFFFFFFFFFFFFFFFFFF AND PUSH20 0xFFFFFFFFFFFFFFFFFFFFFFFFFFFFFFFFFFFFFFFF AND DUP2 MSTORE PUSH1 0x20 ADD SWAP1 DUP2 MSTORE PUSH1 0x20 ADD PUSH0 KECCAK256 PUSH0 DUP3 ADD MLOAD DUP2 PUSH0 ADD PUSH0 PUSH2 0x100 EXP DUP2 SLOAD DUP2 PUSH20 0xFFFFFFFFFFFFFFFFFFFFFFFFFFFFFFFFFFFFFFFF MUL NOT AND SWAP1 DUP4 PUSH20 0xFFFFFFFFFFFFFFFFFFFFFFFFFFFFFFFFFFFFFFFF AND MUL OR SWAP1 SSTORE POP PUSH1 0x20 DUP3 ADD MLOAD DUP2 PUSH1 0x1 ADD SWAP1 DUP2 PUSH2 0x26A SWAP2 SWAP1 PUSH2 0x916 JUMP JUMPDEST POP PUSH1 0x40 DUP3 ADD MLOAD DUP2 PUSH1 0x2 ADD PUSH0 PUSH2 0x100 EXP DUP2 SLOAD DUP2 PUSH1 0xFF MUL NOT AND SWAP1 DUP4 ISZERO ISZERO MUL OR SWAP1 SSTORE POP SWAP1 POP POP CALLER PUSH20 0xFFFFFFFFFFFFFFFFFFFFFFFFFFFFFFFFFFFFFFFF AND PUSH32 0x48CAC28AD4DC618E15F4C2DD5E97751182F166DE97B25618318B2112AA951A2F DUP3 PUSH1 0x40 MLOAD PUSH2 0x2D3 SWAP2 SWAP1 PUSH2 0x9E5 JUMP JUMPDEST PUSH1 0x40 MLOAD DUP1 SWAP2 SUB SWAP1 LOG2 POP JUMP JUMPDEST PUSH0 PUSH1 0x20 MSTORE DUP1 PUSH0 MSTORE PUSH1 0x40 PUSH0 KECCAK256 PUSH0 SWAP2 POP SWAP1 POP DUP1 PUSH0 ADD PUSH0 SWAP1 SLOAD SWAP1 PUSH2 0x100 EXP SWAP1 DIV PUSH20 0xFFFFFFFFFFFFFFFFFFFFFFFFFFFFFFFFFFFFFFFF AND SWAP1 DUP1 PUSH1 0x1 ADD DUP1 SLOAD PUSH2 0x321 SWAP1 PUSH2 0x740 JUMP JUMPDEST DUP1 PUSH1 0x1F ADD PUSH1 0x20 DUP1 SWAP2 DIV MUL PUSH1 0x20 ADD PUSH1 0x40 MLOAD SWAP1 DUP2 ADD PUSH1 0x40 MSTORE DUP1 SWAP3 SWAP2 SWAP1 DUP2 DUP2 MSTORE PUSH1 0x20 ADD DUP3 DUP1 SLOAD PUSH2 0x34D SWAP1 PUSH2 0x740 JUMP JUMPDEST DUP1 ISZERO PUSH2 0x398 JUMPI DUP1 PUSH1 0x1F LT PUSH2 0x36F JUMPI PUSH2 0x100 DUP1 DUP4 SLOAD DIV MUL DUP4 MSTORE SWAP2 PUSH1 0x20 ADD SWAP2 PUSH2 0x398 JUMP JUMPDEST DUP3 ADD SWAP2 SWAP1 PUSH0 MSTORE PUSH1 0x20 PUSH0 KECCAK256 SWAP1 JUMPDEST DUP2 SLOAD DUP2 MSTORE SWAP1 PUSH1 0x1 ADD SWAP1 PUSH1 0x20 ADD DUP1 DUP4 GT PUSH2 0x37B JUMPI DUP3 SWAP1 SUB PUSH1 0x1F AND DUP3 ADD SWAP2 JUMPDEST POP POP POP POP POP SWAP1 DUP1 PUSH1 0x2 ADD PUSH0 SWAP1 SLOAD SWAP1 PUSH2 0x100 EXP SWAP1 DIV PUSH1 0xFF AND SWAP1 POP DUP4 JUMP JUMPDEST PUSH0 PUSH1 0x40 MLOAD SWAP1 POP SWAP1 JUMP JUMPDEST PUSH0 DUP1 REVERT JUMPDEST PUSH0 DUP1 REVERT JUMPDEST PUSH0 PUSH20 0xFFFFFFFFFFFFFFFFFFFFFFFFFFFFFFFFFFFFFFFF DUP3 AND SWAP1 POP SWAP2 SWAP1 POP JUMP JUMPDEST PUSH0 PUSH2 0x3EE DUP3 PUSH2 0x3C5 JUMP JUMPDEST SWAP1 POP SWAP2 SWAP1 POP JUMP JUMPDEST PUSH2 0x3FE DUP2 PUSH2 0x3E4 JUMP JUMPDEST DUP2 EQ PUSH2 0x408 JUMPI PUSH0 DUP1 REVERT JUMPDEST POP JUMP JUMPDEST PUSH0 DUP2 CALLDATALOAD SWAP1 POP PUSH2 0x419 DUP2 PUSH2 0x3F5 JUMP JUMPDEST SWAP3 SWAP2 POP POP JUMP JUMPDEST PUSH0 PUSH1 0x20 DUP3 DUP5 SUB SLT ISZERO PUSH2 0x434 JUMPI PUSH2 0x433 PUSH2 0x3BD JUMP JUMPDEST JUMPDEST PUSH0 PUSH2 0x441 DUP5 DUP3 DUP6 ADD PUSH2 0x40B JUMP JUMPDEST SWAP2 POP POP SWAP3 SWAP2 POP POP JUMP JUMPDEST PUSH0 DUP2 ISZERO ISZERO SWAP1 POP SWAP2 SWAP1 POP JUMP JUMPDEST PUSH2 0x45E DUP2 PUSH2 0x44A JUMP JUMPDEST DUP3 MSTORE POP POP JUMP JUMPDEST PUSH0 PUSH1 0x20 DUP3 ADD SWAP1 POP PUSH2 0x477 PUSH0 DUP4 ADD DUP5 PUSH2 0x455 JUMP JUMPDEST SWAP3 SWAP2 POP POP JUMP JUMPDEST PUSH0 DUP1 REVERT JUMPDEST PUSH0 DUP1 REVERT JUMPDEST PUSH0 PUSH1 0x1F NOT PUSH1 0x1F DUP4 ADD AND SWAP1 POP SWAP2 SWAP1 POP JUMP JUMPDEST PUSH32 0x4E487B7100000000000000000000000000000000000000000000000000000000 PUSH0 MSTORE PUSH1 0x41 PUSH1 0x4 MSTORE PUSH1 0x24 PUSH0 REVERT JUMPDEST PUSH2 0x4CB DUP3 PUSH2 0x485 JUMP JUMPDEST DUP2 ADD DUP2 DUP2 LT PUSH8 0xFFFFFFFFFFFFFFFF DUP3 GT OR ISZERO PUSH2 0x4EA JUMPI PUSH2 0x4E9 PUSH2 0x495 JUMP JUMPDEST JUMPDEST DUP1 PUSH1 0x40 MSTORE POP POP POP JUMP JUMPDEST PUSH0 PUSH2 0x4FC PUSH2 0x3B4 JUMP JUMPDEST SWAP1 POP PUSH2 0x508 DUP3 DUP3 PUSH2 0x4C2 JUMP JUMPDEST SWAP2 SWAP1 POP JUMP JUMPDEST PUSH0 PUSH8 0xFFFFFFFFFFFFFFFF DUP3 GT ISZERO PUSH2 0x527 JUMPI PUSH2 0x526 PUSH2 0x495 JUMP JUMPDEST JUMPDEST PUSH2 0x530 DUP3 PUSH2 0x485 JUMP JUMPDEST SWAP1 POP PUSH1 0x20 DUP2 ADD SWAP1 POP SWAP2 SWAP1 POP JUMP JUMPDEST DUP3 DUP2 DUP4 CALLDATACOPY PUSH0 DUP4 DUP4 ADD MSTORE POP POP POP JUMP JUMPDEST PUSH0 PUSH2 0x55D PUSH2 0x558 DUP5 PUSH2 0x50D JUMP JUMPDEST PUSH2 0x4F3 JUMP JUMPDEST SWAP1 POP DUP3 DUP2 MSTORE PUSH1 0x20 DUP2 ADD DUP5 DUP5 DUP5 ADD GT ISZERO PUSH2 0x579 JUMPI PUSH2 0x578 PUSH2 0x481 JUMP JUMPDEST JUMPDEST PUSH2 0x584 DUP5 DUP3 DUP6 PUSH2 0x53D JUMP JUMPDEST POP SWAP4 SWAP3 POP POP POP JUMP JUMPDEST PUSH0 DUP3 PUSH1 0x1F DUP4 ADD SLT PUSH2 0x5A0 JUMPI PUSH2 0x59F PUSH2 0x47D JUMP JUMPDEST JUMPDEST DUP2 CALLDATALOAD PUSH2 0x5B0 DUP5 DUP3 PUSH1 0x20 DUP7 ADD PUSH2 0x54B JUMP JUMPDEST SWAP2 POP POP SWAP3 SWAP2 POP POP JUMP JUMPDEST PUSH0 PUSH1 0x20 DUP3 DUP5 SUB SLT ISZERO PUSH2 0x5CE JUMPI PUSH2 0x5CD PUSH2 0x3BD JUMP JUMPDEST JUMPDEST PUSH0 DUP3 ADD CALLDATALOAD PUSH8 0xFFFFFFFFFFFFFFFF DUP2 GT ISZERO PUSH2 0x5EB JUMPI PUSH2 0x5EA PUSH2 0x3C1 JUMP JUMPDEST JUMPDEST PUSH2 0x5F7 DUP5 DUP3 DUP6 ADD PUSH2 0x58C JUMP JUMPDEST SWAP2 POP POP SWAP3 SWAP2 POP POP JUMP JUMPDEST PUSH2 0x609 DUP2 PUSH2 0x3E4 JUMP JUMPDEST DUP3 MSTORE POP POP JUMP JUMPDEST PUSH0 DUP2 MLOAD SWAP1 POP SWAP2 SWAP1 POP JUMP JUMPDEST PUSH0 DUP3 DUP3 MSTORE PUSH1 0x20 DUP3 ADD SWAP1 POP SWAP3 SWAP2 POP POP JUMP JUMPDEST DUP3 DUP2 DUP4 MCOPY PUSH0 DUP4 DUP4 ADD MSTORE POP POP POP JUMP JUMPDEST PUSH0 PUSH2 0x641 DUP3 PUSH2 0x60F JUMP JUMPDEST PUSH2 0x64B DUP2 DUP6 PUSH2 0x619 JUMP JUMPDEST SWAP4 POP PUSH2 0x65B DUP2 DUP6 PUSH1 0x20 DUP7 ADD PUSH2 0x629 JUMP JUMPDEST PUSH2 0x664 DUP2 PUSH2 0x485 JUMP JUMPDEST DUP5 ADD SWAP2 POP POP SWAP3 SWAP2 POP POP JUMP JUMPDEST PUSH0 PUSH1 0x60 DUP3 ADD SWAP1 POP PUSH2 0x682 PUSH0 DUP4 ADD DUP7 PUSH2 0x600 JUMP JUMPDEST DUP2 DUP2 SUB PUSH1 0x20 DUP4 ADD MSTORE PUSH2 0x694 DUP2 DUP6 PUSH2 0x637 JUMP JUMPDEST SWAP1 POP PUSH2 0x6A3 PUSH1 0x40 DUP4 ADD DUP5 PUSH2 0x455 JUMP JUMPDEST SWAP5 SWAP4 POP POP POP POP JUMP JUMPDEST PUSH32 0x5573657220616C72656164792072656769737465726564000000000000000000 PUSH0 DUP3 ADD MSTORE POP JUMP JUMPDEST PUSH0 PUSH2 0x6DF PUSH1 0x17 DUP4 PUSH2 0x619 JUMP JUMPDEST SWAP2 POP PUSH2 0x6EA DUP3 PUSH2 0x6AB JUMP JUMPDEST PUSH1 0x20 DUP3 ADD SWAP1 POP SWAP2 SWAP1 POP JUMP JUMPDEST PUSH0 PUSH1 0x20 DUP3 ADD SWAP1 POP DUP2 DUP2 SUB PUSH0 DUP4 ADD MSTORE PUSH2 0x70C DUP2 PUSH2 0x6D3 JUMP JUMPDEST SWAP1 POP SWAP2 SWAP1 POP JUMP JUMPDEST PUSH32 0x4E487B7100000000000000000000000000000000000000000000000000000000 PUSH0 MSTORE PUSH1 0x22 PUSH1 0x4 MSTORE PUSH1 0x24 PUSH0 REVERT JUMPDEST PUSH0 PUSH1 0x2 DUP3 DIV SWAP1 POP PUSH1 0x1 DUP3 AND DUP1 PUSH2 0x757 JUMPI PUSH1 0x7F DUP3 AND SWAP2 POP JUMPDEST PUSH1 0x20 DUP3 LT DUP2 SUB PUSH2 0x76A JUMPI PUSH2 0x769 PUSH2 0x713 JUMP JUMPDEST JUMPDEST POP SWAP2 SWAP1 POP JUMP JUMPDEST PUSH0 DUP2 SWAP1 POP DUP2 PUSH0 MSTORE PUSH1 0x20 PUSH0 KECCAK256 SWAP1 POP SWAP2 SWAP1 POP JUMP JUMPDEST PUSH0 PUSH1 0x20 PUSH1 0x1F DUP4 ADD DIV SWAP1 POP SWAP2 SWAP1 POP JUMP JUMPDEST PUSH0 DUP3 DUP3 SHL SWAP1 POP SWAP3 SWAP2 POP POP JUMP JUMPDEST PUSH0 PUSH1 0x8 DUP4 MUL PUSH2 0x7CC PUSH32 0xFFFFFFFFFFFFFFFFFFFFFFFFFFFFFFFFFFFFFFFFFFFFFFFFFFFFFFFFFFFFFFFF DUP3 PUSH2 0x791 JUMP JUMPDEST PUSH2 0x7D6 DUP7 DUP4 PUSH2 0x791 JUMP JUMPDEST SWAP6 POP DUP1 NOT DUP5 AND SWAP4 POP DUP1 DUP7 AND DUP5 OR SWAP3 POP POP POP SWAP4 SWAP3 POP POP POP JUMP JUMPDEST PUSH0 DUP2 SWAP1 POP SWAP2 SWAP1 POP JUMP JUMPDEST PUSH0 DUP2 SWAP1 POP SWAP2 SWAP1 POP JUMP JUMPDEST PUSH0 PUSH2 0x81A PUSH2 0x815 PUSH2 0x810 DUP5 PUSH2 0x7EE JUMP JUMPDEST PUSH2 0x7F7 JUMP JUMPDEST PUSH2 0x7EE JUMP JUMPDEST SWAP1 POP SWAP2 SWAP1 POP JUMP JUMPDEST PUSH0 DUP2 SWAP1 POP SWAP2 SWAP1 POP JUMP JUMPDEST PUSH2 0x833 DUP4 PUSH2 0x800 JUMP JUMPDEST PUSH2 0x847 PUSH2 0x83F DUP3 PUSH2 0x821 JUMP JUMPDEST DUP5 DUP5 SLOAD PUSH2 0x79D JUMP JUMPDEST DUP3 SSTORE POP POP POP POP JUMP JUMPDEST PUSH0 SWAP1 JUMP JUMPDEST PUSH2 0x85B PUSH2 0x84F JUMP JUMPDEST PUSH2 0x866 DUP2 DUP5 DUP5 PUSH2 0x82A JUMP JUMPDEST POP POP POP JUMP JUMPDEST JUMPDEST DUP2 DUP2 LT ISZERO PUSH2 0x889 JUMPI PUSH2 0x87E PUSH0 DUP3 PUSH2 0x853 JUMP JUMPDEST PUSH1 0x1 DUP2 ADD SWAP1 POP PUSH2 0x86C JUMP JUMPDEST POP POP JUMP JUMPDEST PUSH1 0x1F DUP3 GT ISZERO PUSH2 0x8CE JUMPI PUSH2 0x89F DUP2 PUSH2 0x770 JUMP JUMPDEST PUSH2 0x8A8 DUP5 PUSH2 0x782 JUMP JUMPDEST DUP2 ADD PUSH1 0x20 DUP6 LT ISZERO PUSH2 0x8B7 JUMPI DUP2 SWAP1 POP JUMPDEST PUSH2 0x8CB PUSH2 0x8C3 DUP6 PUSH2 0x782 JUMP JUMPDEST DUP4 ADD DUP3 PUSH2 0x86B JUMP JUMPDEST POP POP JUMPDEST POP POP POP JUMP JUMPDEST PUSH0 DUP3 DUP3 SHR SWAP1 POP SWAP3 SWAP2 POP POP JUMP JUMPDEST PUSH0 PUSH2 0x8EE PUSH0 NOT DUP5 PUSH1 0x8 MUL PUSH2 0x8D3 JUMP JUMPDEST NOT DUP1 DUP4 AND SWAP2 POP POP SWAP3 SWAP2 POP POP JUMP JUMPDEST PUSH0 PUSH2 0x906 DUP4 DUP4 PUSH2 0x8DF JUMP JUMPDEST SWAP2 POP DUP3 PUSH1 0x2 MUL DUP3 OR SWAP1 POP SWAP3 SWAP2 POP POP JUMP JUMPDEST PUSH2 0x91F DUP3 PUSH2 0x60F JUMP JUMPDEST PUSH8 0xFFFFFFFFFFFFFFFF DUP2 GT ISZERO PUSH2 0x938 JUMPI PUSH2 0x937 PUSH2 0x495 JUMP JUMPDEST JUMPDEST PUSH2 0x942 DUP3 SLOAD PUSH2 0x740 JUMP JUMPDEST PUSH2 0x94D DUP3 DUP3 DUP6 PUSH2 0x88D JUMP JUMPDEST PUSH0 PUSH1 0x20 SWAP1 POP PUSH1 0x1F DUP4 GT PUSH1 0x1 DUP2 EQ PUSH2 0x97E JUMPI PUSH0 DUP5 ISZERO PUSH2 0x96C JUMPI DUP3 DUP8 ADD MLOAD SWAP1 POP JUMPDEST PUSH2 0x976 DUP6 DUP3 PUSH2 0x8FB JUMP JUMPDEST DUP7 SSTORE POP PUSH2 0x9DD JUMP JUMPDEST PUSH1 0x1F NOT DUP5 AND PUSH2 0x98C DUP7 PUSH2 0x770 JUMP JUMPDEST PUSH0 JUMPDEST DUP3 DUP2 LT ISZERO PUSH2 0x9B3 JUMPI DUP5 DUP10 ADD MLOAD DUP3 SSTORE PUSH1 0x1 DUP3 ADD SWAP2 POP PUSH1 0x20 DUP6 ADD SWAP5 POP PUSH1 0x20 DUP2 ADD SWAP1 POP PUSH2 0x98E JUMP JUMPDEST DUP7 DUP4 LT ISZERO PUSH2 0x9D0 JUMPI DUP5 DUP10 ADD MLOAD PUSH2 0x9CC PUSH1 0x1F DUP10 AND DUP3 PUSH2 0x8DF JUMP JUMPDEST DUP4 SSTORE POP JUMPDEST PUSH1 0x1 PUSH1 0x2 DUP9 MUL ADD DUP9 SSTORE POP POP POP JUMPDEST POP POP POP POP POP POP JUMP JUMPDEST PUSH0 PUSH1 0x20 DUP3 ADD SWAP1 POP DUP2 DUP2 SUB PUSH0 DUP4 ADD MSTORE PUSH2 0x9FD DUP2 DUP5 PUSH2 0x637 JUMP JUMPDEST SWAP1 POP SWAP3 SWAP2 POP POP JUMP INVALID LOG2 PUSH5 0x6970667358 0x22 SLT KECCAK256 0x28 EXP OR CODECOPY MCOPY 0xC2 SWAP1 0xAA 0xDF PUSH24 0xAB25A1875A90C7306DAAEEB7A0B763C6D012C98FCE036473 PUSH16 0x6C634300081A00330000000000000000 "
				},
				"gasEstimates": {
					"creation": {
						"codeDepositCost": "523800",
						"executionCost": "554",
						"totalCost": "524354"
					},
					"external": {
						"isUserRegistered(address)": "2854",
						"registerUser(string)": "infinite",
						"users(address)": "infinite"
					}
				},
				"methodIdentifiers": {
					"isUserRegistered(address)": "163f7522",
					"registerUser(string)": "704f1b94",
					"users(address)": "a87430ba"
				}
			},
			"storageLayout": {
				"storage": [
					{
						"astId": 13,
						"contract": "contracts/Updated_1/1_User Registration and Authentication.sol:UserContract",
						"label": "users",
						"offset": 0,
						"slot": "0",
						"type": "t_mapping(t_address,t_struct(User)8_storage)"
					}
				],
				"types": {
					"t_address": {
						"encoding": "inplace",
						"label": "address",
						"numberOfBytes": "20"
					},
					"t_bool": {
						"encoding": "inplace",
						"label": "bool",
						"numberOfBytes": "1"
					},
					"t_mapping(t_address,t_struct(User)8_storage)": {
						"encoding": "mapping",
						"key": "t_address",
						"label": "mapping(address => struct UserContract.User)",
						"numberOfBytes": "32",
						"value": "t_struct(User)8_storage"
					},
					"t_string_storage": {
						"encoding": "bytes",
						"label": "string",
						"numberOfBytes": "32"
					},
					"t_struct(User)8_storage": {
						"encoding": "inplace",
						"label": "struct UserContract.User",
						"members": [
							{
								"astId": 3,
								"contract": "contracts/Updated_1/1_User Registration and Authentication.sol:UserContract",
								"label": "walletAddress",
								"offset": 0,
								"slot": "0",
								"type": "t_address"
							},
							{
								"astId": 5,
								"contract": "contracts/Updated_1/1_User Registration and Authentication.sol:UserContract",
								"label": "email",
								"offset": 0,
								"slot": "1",
								"type": "t_string_storage"
							},
							{
								"astId": 7,
								"contract": "contracts/Updated_1/1_User Registration and Authentication.sol:UserContract",
								"label": "isRegistered",
								"offset": 0,
								"slot": "2",
								"type": "t_bool"
							}
						],
						"numberOfBytes": "96"
					}
				}
			},
			"userdoc": {
				"kind": "user",
				"methods": {},
				"version": 1
			}
		}
	}
}