{
	"contracts/Updated_1/TransactionContract_2.sol": {
		"TransactionContract": {
			"abi": [
				{
					"inputs": [
						{
							"internalType": "address",
							"name": "_arbitrator",
							"type": "address"
						}
					],
					"stateMutability": "nonpayable",
					"type": "constructor"
				},
				{
					"anonymous": false,
					"inputs": [
						{
							"indexed": false,
							"internalType": "uint256",
							"name": "propertyId",
							"type": "uint256"
						},
						{
							"indexed": false,
							"internalType": "address",
							"name": "by",
							"type": "address"
						}
					],
					"name": "DisputeRaised",
					"type": "event"
				},
				{
					"anonymous": false,
					"inputs": [
						{
							"indexed": false,
							"internalType": "uint256",
							"name": "propertyId",
							"type": "uint256"
						},
						{
							"indexed": false,
							"internalType": "string",
							"name": "decision",
							"type": "string"
						}
					],
					"name": "DisputeResolved",
					"type": "event"
				},
				{
					"anonymous": false,
					"inputs": [
						{
							"indexed": false,
							"internalType": "uint256",
							"name": "propertyId",
							"type": "uint256"
						}
					],
					"name": "DocumentsVerified",
					"type": "event"
				},
				{
					"anonymous": false,
					"inputs": [
						{
							"indexed": false,
							"internalType": "uint256",
							"name": "propertyId",
							"type": "uint256"
						},
						{
							"indexed": false,
							"internalType": "uint256",
							"name": "amount",
							"type": "uint256"
						}
					],
					"name": "EscrowDeposit",
					"type": "event"
				},
				{
					"anonymous": false,
					"inputs": [
						{
							"indexed": false,
							"internalType": "uint256",
							"name": "propertyId",
							"type": "uint256"
						},
						{
							"indexed": false,
							"internalType": "address",
							"name": "to",
							"type": "address"
						}
					],
					"name": "FundsReleased",
					"type": "event"
				},
				{
					"anonymous": false,
					"inputs": [
						{
							"indexed": false,
							"internalType": "uint256",
							"name": "propertyId",
							"type": "uint256"
						}
					],
					"name": "TransactionCompleted",
					"type": "event"
				},
				{
					"anonymous": false,
					"inputs": [
						{
							"indexed": false,
							"internalType": "uint256",
							"name": "propertyId",
							"type": "uint256"
						},
						{
							"indexed": false,
							"internalType": "address",
							"name": "buyer",
							"type": "address"
						},
						{
							"indexed": false,
							"internalType": "address",
							"name": "seller",
							"type": "address"
						},
						{
							"indexed": false,
							"internalType": "uint256",
							"name": "amount",
							"type": "uint256"
						},
						{
							"indexed": false,
							"internalType": "uint256",
							"name": "escrowFee",
							"type": "uint256"
						}
					],
					"name": "TransactionInitiated",
					"type": "event"
				},
				{
					"inputs": [],
					"name": "abortTransaction",
					"outputs": [],
					"stateMutability": "nonpayable",
					"type": "function"
				},
				{
					"inputs": [],
					"name": "arbitrator",
					"outputs": [
						{
							"internalType": "address",
							"name": "",
							"type": "address"
						}
					],
					"stateMutability": "view",
					"type": "function"
				},
				{
					"inputs": [],
					"name": "buyer",
					"outputs": [
						{
							"internalType": "address payable",
							"name": "",
							"type": "address"
						}
					],
					"stateMutability": "view",
					"type": "function"
				},
				{
					"inputs": [],
					"name": "depositToEscrow",
					"outputs": [],
					"stateMutability": "payable",
					"type": "function"
				},
				{
					"inputs": [
						{
							"internalType": "uint256",
							"name": "",
							"type": "uint256"
						}
					],
					"name": "disputes",
					"outputs": [
						{
							"internalType": "bool",
							"name": "",
							"type": "bool"
						}
					],
					"stateMutability": "view",
					"type": "function"
				},
				{
					"inputs": [],
					"name": "documentsVerified",
					"outputs": [
						{
							"internalType": "bool",
							"name": "",
							"type": "bool"
						}
					],
					"stateMutability": "view",
					"type": "function"
				},
				{
					"inputs": [],
					"name": "escrowFee",
					"outputs": [
						{
							"internalType": "uint256",
							"name": "",
							"type": "uint256"
						}
					],
					"stateMutability": "view",
					"type": "function"
				},
				{
					"inputs": [],
					"name": "fundsInEscrow",
					"outputs": [
						{
							"internalType": "bool",
							"name": "",
							"type": "bool"
						}
					],
					"stateMutability": "view",
					"type": "function"
				},
				{
					"inputs": [],
					"name": "getTransactionDetails",
					"outputs": [
						{
							"internalType": "address",
							"name": "",
							"type": "address"
						},
						{
							"internalType": "address",
							"name": "",
							"type": "address"
						},
						{
							"internalType": "uint256",
							"name": "",
							"type": "uint256"
						},
						{
							"internalType": "uint256",
							"name": "",
							"type": "uint256"
						},
						{
							"internalType": "uint256",
							"name": "",
							"type": "uint256"
						},
						{
							"internalType": "enum TransactionContract.Status",
							"name": "",
							"type": "uint8"
						},
						{
							"internalType": "bool",
							"name": "",
							"type": "bool"
						},
						{
							"internalType": "bool",
							"name": "",
							"type": "bool"
						}
					],
					"stateMutability": "view",
					"type": "function"
				},
				{
					"inputs": [
						{
							"internalType": "uint256",
							"name": "_propertyId",
							"type": "uint256"
						},
						{
							"internalType": "address payable",
							"name": "_seller",
							"type": "address"
						},
						{
							"internalType": "uint256",
							"name": "_escrowFee",
							"type": "uint256"
						}
					],
					"name": "initiateTransaction",
					"outputs": [],
					"stateMutability": "payable",
					"type": "function"
				},
				{
					"inputs": [],
					"name": "propertyId",
					"outputs": [
						{
							"internalType": "uint256",
							"name": "",
							"type": "uint256"
						}
					],
					"stateMutability": "view",
					"type": "function"
				},
				{
					"inputs": [],
					"name": "raiseDispute",
					"outputs": [],
					"stateMutability": "nonpayable",
					"type": "function"
				},
				{
					"inputs": [],
					"name": "releaseFunds",
					"outputs": [],
					"stateMutability": "nonpayable",
					"type": "function"
				},
				{
					"inputs": [
						{
							"internalType": "string",
							"name": "decision",
							"type": "string"
						}
					],
					"name": "resolveDispute",
					"outputs": [],
					"stateMutability": "nonpayable",
					"type": "function"
				},
				{
					"inputs": [],
					"name": "seller",
					"outputs": [
						{
							"internalType": "address payable",
							"name": "",
							"type": "address"
						}
					],
					"stateMutability": "view",
					"type": "function"
				},
				{
					"inputs": [],
					"name": "status",
					"outputs": [
						{
							"internalType": "enum TransactionContract.Status",
							"name": "",
							"type": "uint8"
						}
					],
					"stateMutability": "view",
					"type": "function"
				},
				{
					"inputs": [],
					"name": "value",
					"outputs": [
						{
							"internalType": "uint256",
							"name": "",
							"type": "uint256"
						}
					],
					"stateMutability": "view",
					"type": "function"
				},
				{
					"inputs": [],
					"name": "verifyDocuments",
					"outputs": [],
					"stateMutability": "nonpayable",
					"type": "function"
				}
			],
			"devdoc": {
				"kind": "dev",
				"methods": {},
				"version": 1
			},
			"evm": {
				"assembly": "    /* \"contracts/Updated_1/TransactionContract_2.sol\":60:5020  contract TransactionContract {... */\n  mstore(0x40, 0x80)\n    /* \"contracts/Updated_1/TransactionContract_2.sol\":1672:1748  constructor(address _arbitrator) {... */\n  callvalue\n  dup1\n  iszero\n  tag_1\n  jumpi\n  0x00\n  dup1\n  revert\ntag_1:\n  pop\n  mload(0x40)\n  sub(codesize, bytecodeSize)\n  dup1\n  bytecodeSize\n  dup4\n  codecopy\n  dup2\n  dup2\n  add\n  0x40\n  mstore\n  dup2\n  add\n  swap1\n  tag_2\n  swap2\n  swap1\n  tag_3\n  jump\t// in\ntag_2:\n    /* \"contracts/Updated_1/TransactionContract_2.sol\":1729:1740  _arbitrator */\n  dup1\n    /* \"contracts/Updated_1/TransactionContract_2.sol\":1716:1726  arbitrator */\n  0x02\n  0x00\n    /* \"contracts/Updated_1/TransactionContract_2.sol\":1716:1740  arbitrator = _arbitrator */\n  0x0100\n  exp\n  dup2\n  sload\n  dup2\n  0xffffffffffffffffffffffffffffffffffffffff\n  mul\n  not\n  and\n  swap1\n  dup4\n  0xffffffffffffffffffffffffffffffffffffffff\n  and\n  mul\n  or\n  swap1\n  sstore\n  pop\n    /* \"contracts/Updated_1/TransactionContract_2.sol\":1672:1748  constructor(address _arbitrator) {... */\n  pop\n    /* \"contracts/Updated_1/TransactionContract_2.sol\":60:5020  contract TransactionContract {... */\n  jump(tag_6)\n    /* \"#utility.yul\":88:205   */\ntag_8:\n    /* \"#utility.yul\":197:198   */\n  0x00\n    /* \"#utility.yul\":194:195   */\n  dup1\n    /* \"#utility.yul\":187:199   */\n  revert\n    /* \"#utility.yul\":334:460   */\ntag_10:\n    /* \"#utility.yul\":371:378   */\n  0x00\n    /* \"#utility.yul\":411:453   */\n  0xffffffffffffffffffffffffffffffffffffffff\n    /* \"#utility.yul\":404:409   */\n  dup3\n    /* \"#utility.yul\":400:454   */\n  and\n    /* \"#utility.yul\":389:454   */\n  swap1\n  pop\n    /* \"#utility.yul\":334:460   */\n  swap2\n  swap1\n  pop\n  jump\t// out\n    /* \"#utility.yul\":466:562   */\ntag_11:\n    /* \"#utility.yul\":503:510   */\n  0x00\n    /* \"#utility.yul\":532:556   */\n  tag_20\n    /* \"#utility.yul\":550:555   */\n  dup3\n    /* \"#utility.yul\":532:556   */\n  tag_10\n  jump\t// in\ntag_20:\n    /* \"#utility.yul\":521:556   */\n  swap1\n  pop\n    /* \"#utility.yul\":466:562   */\n  swap2\n  swap1\n  pop\n  jump\t// out\n    /* \"#utility.yul\":568:690   */\ntag_12:\n    /* \"#utility.yul\":641:665   */\n  tag_22\n    /* \"#utility.yul\":659:664   */\n  dup2\n    /* \"#utility.yul\":641:665   */\n  tag_11\n  jump\t// in\ntag_22:\n    /* \"#utility.yul\":634:639   */\n  dup2\n    /* \"#utility.yul\":631:666   */\n  eq\n    /* \"#utility.yul\":621:684   */\n  tag_23\n  jumpi\n    /* \"#utility.yul\":680:681   */\n  0x00\n    /* \"#utility.yul\":677:678   */\n  dup1\n    /* \"#utility.yul\":670:682   */\n  revert\n    /* \"#utility.yul\":621:684   */\ntag_23:\n    /* \"#utility.yul\":568:690   */\n  pop\n  jump\t// out\n    /* \"#utility.yul\":696:839   */\ntag_13:\n    /* \"#utility.yul\":753:758   */\n  0x00\n    /* \"#utility.yul\":784:790   */\n  dup2\n    /* \"#utility.yul\":778:791   */\n  mload\n    /* \"#utility.yul\":769:791   */\n  swap1\n  pop\n    /* \"#utility.yul\":800:833   */\n  tag_25\n    /* \"#utility.yul\":827:832   */\n  dup2\n    /* \"#utility.yul\":800:833   */\n  tag_12\n  jump\t// in\ntag_25:\n    /* \"#utility.yul\":696:839   */\n  swap3\n  swap2\n  pop\n  pop\n  jump\t// out\n    /* \"#utility.yul\":845:1196   */\ntag_3:\n    /* \"#utility.yul\":915:921   */\n  0x00\n    /* \"#utility.yul\":964:966   */\n  0x20\n    /* \"#utility.yul\":952:961   */\n  dup3\n    /* \"#utility.yul\":943:950   */\n  dup5\n    /* \"#utility.yul\":939:962   */\n  sub\n    /* \"#utility.yul\":935:967   */\n  slt\n    /* \"#utility.yul\":932:1051   */\n  iszero\n  tag_27\n  jumpi\n    /* \"#utility.yul\":970:1049   */\n  tag_28\n  tag_8\n  jump\t// in\ntag_28:\n    /* \"#utility.yul\":932:1051   */\ntag_27:\n    /* \"#utility.yul\":1090:1091   */\n  0x00\n    /* \"#utility.yul\":1115:1179   */\n  tag_29\n    /* \"#utility.yul\":1171:1178   */\n  dup5\n    /* \"#utility.yul\":1162:1168   */\n  dup3\n    /* \"#utility.yul\":1151:1160   */\n  dup6\n    /* \"#utility.yul\":1147:1169   */\n  add\n    /* \"#utility.yul\":1115:1179   */\n  tag_13\n  jump\t// in\ntag_29:\n    /* \"#utility.yul\":1105:1179   */\n  swap2\n  pop\n    /* \"#utility.yul\":1061:1189   */\n  pop\n    /* \"#utility.yul\":845:1196   */\n  swap3\n  swap2\n  pop\n  pop\n  jump\t// out\n    /* \"contracts/Updated_1/TransactionContract_2.sol\":60:5020  contract TransactionContract {... */\ntag_6:\n  dataSize(sub_0)\n  dup1\n  dataOffset(sub_0)\n  0x00\n  codecopy\n  0x00\n  return\nstop\n\nsub_0: assembly {\n        /* \"contracts/Updated_1/TransactionContract_2.sol\":60:5020  contract TransactionContract {... */\n      mstore(0x40, 0x80)\n      jumpi(tag_1, lt(calldatasize, 0x04))\n      shr(0xe0, calldataload(0x00))\n      dup1\n      0x6cc6cde1\n      gt\n      tag_20\n      jumpi\n      dup1\n      0x8f2238ba\n      gt\n      tag_21\n      jumpi\n      dup1\n      0x8f2238ba\n      eq\n      tag_15\n      jumpi\n      dup1\n      0xd695ddb9\n      eq\n      tag_16\n      jumpi\n      dup1\n      0xd7c5b29f\n      eq\n      tag_17\n      jumpi\n      dup1\n      0xd8a5cc03\n      eq\n      tag_18\n      jumpi\n      dup1\n      0xee7a3b8e\n      eq\n      tag_19\n      jumpi\n      jump(tag_1)\n    tag_21:\n      dup1\n      0x6cc6cde1\n      eq\n      tag_11\n      jumpi\n      dup1\n      0x6daa2d44\n      eq\n      tag_12\n      jumpi\n      dup1\n      0x6f651901\n      eq\n      tag_13\n      jumpi\n      dup1\n      0x7150d8ae\n      eq\n      tag_14\n      jumpi\n      jump(tag_1)\n    tag_20:\n      dup1\n      0x3fa4f245\n      gt\n      tag_22\n      jumpi\n      dup1\n      0x3fa4f245\n      eq\n      tag_6\n      jumpi\n      dup1\n      0x564a565d\n      eq\n      tag_7\n      jumpi\n      dup1\n      0x5a22147e\n      eq\n      tag_8\n      jumpi\n      dup1\n      0x69d89575\n      eq\n      tag_9\n      jumpi\n      dup1\n      0x6a5b428b\n      eq\n      tag_10\n      jumpi\n      jump(tag_1)\n    tag_22:\n      dup1\n      0x08551a53\n      eq\n      tag_2\n      jumpi\n      dup1\n      0x200d2ed2\n      eq\n      tag_3\n      jumpi\n      dup1\n      0x370c6001\n      eq\n      tag_4\n      jumpi\n      dup1\n      0x3eb5241d\n      eq\n      tag_5\n      jumpi\n    tag_1:\n      0x00\n      dup1\n      revert\n        /* \"contracts/Updated_1/TransactionContract_2.sol\":277:306  address payable public seller */\n    tag_2:\n      callvalue\n      dup1\n      iszero\n      tag_23\n      jumpi\n      0x00\n      dup1\n      revert\n    tag_23:\n      pop\n      tag_24\n      tag_25\n      jump\t// in\n    tag_24:\n      mload(0x40)\n      tag_26\n      swap2\n      swap1\n      tag_27\n      jump\t// in\n    tag_26:\n      mload(0x40)\n      dup1\n      swap2\n      sub\n      swap1\n      return\n        /* \"contracts/Updated_1/TransactionContract_2.sol\":213:233  Status public status */\n    tag_3:\n      callvalue\n      dup1\n      iszero\n      tag_28\n      jumpi\n      0x00\n      dup1\n      revert\n    tag_28:\n      pop\n      tag_29\n      tag_30\n      jump\t// in\n    tag_29:\n      mload(0x40)\n      tag_31\n      swap2\n      swap1\n      tag_32\n      jump\t// in\n    tag_31:\n      mload(0x40)\n      dup1\n      swap2\n      sub\n      swap1\n      return\n        /* \"contracts/Updated_1/TransactionContract_2.sol\":4405:4621  function abortTransaction() public onlyBuyer inStatus(Status.Created) {... */\n    tag_4:\n      callvalue\n      dup1\n      iszero\n      tag_33\n      jumpi\n      0x00\n      dup1\n      revert\n    tag_33:\n      pop\n      tag_34\n      tag_35\n      jump\t// in\n    tag_34:\n      stop\n        /* \"contracts/Updated_1/TransactionContract_2.sol\":2498:2773  function depositToEscrow() external payable onlyBuyer inStatus(Status.Created) {... */\n    tag_5:\n      tag_36\n      tag_37\n      jump\t// in\n    tag_36:\n      stop\n        /* \"contracts/Updated_1/TransactionContract_2.sol\":345:362  uint public value */\n    tag_6:\n      callvalue\n      dup1\n      iszero\n      tag_38\n      jumpi\n      0x00\n      dup1\n      revert\n    tag_38:\n      pop\n      tag_39\n      tag_40\n      jump\t// in\n    tag_39:\n      mload(0x40)\n      tag_41\n      swap2\n      swap1\n      tag_42\n      jump\t// in\n    tag_41:\n      mload(0x40)\n      dup1\n      swap2\n      sub\n      swap1\n      return\n        /* \"contracts/Updated_1/TransactionContract_2.sol\":574:614  mapping(uint256 => bool) public disputes */\n    tag_7:\n      callvalue\n      dup1\n      iszero\n      tag_43\n      jumpi\n      0x00\n      dup1\n      revert\n    tag_43:\n      pop\n      tag_44\n      0x04\n      dup1\n      calldatasize\n      sub\n      dup2\n      add\n      swap1\n      tag_45\n      swap2\n      swap1\n      tag_46\n      jump\t// in\n    tag_45:\n      tag_47\n      jump\t// in\n    tag_44:\n      mload(0x40)\n      tag_48\n      swap2\n      swap1\n      tag_49\n      jump\t// in\n    tag_48:\n      mload(0x40)\n      dup1\n      swap2\n      sub\n      swap1\n      return\n        /* \"contracts/Updated_1/TransactionContract_2.sol\":1869:2456  function initiateTransaction(uint _propertyId, address payable _seller, uint _escrowFee) public payable {... */\n    tag_8:\n      tag_50\n      0x04\n      dup1\n      calldatasize\n      sub\n      dup2\n      add\n      swap1\n      tag_51\n      swap2\n      swap1\n      tag_52\n      jump\t// in\n    tag_51:\n      tag_53\n      jump\t// in\n    tag_50:\n      stop\n        /* \"contracts/Updated_1/TransactionContract_2.sol\":3085:3745  function releaseFunds() external onlyBuyer inStatus(Status.ConditionVerified) {... */\n    tag_9:\n      callvalue\n      dup1\n      iszero\n      tag_54\n      jumpi\n      0x00\n      dup1\n      revert\n    tag_54:\n      pop\n      tag_55\n      tag_56\n      jump\t// in\n    tag_55:\n      stop\n        /* \"contracts/Updated_1/TransactionContract_2.sol\":421:442  uint public escrowFee */\n    tag_10:\n      callvalue\n      dup1\n      iszero\n      tag_57\n      jumpi\n      0x00\n      dup1\n      revert\n    tag_57:\n      pop\n      tag_58\n      tag_59\n      jump\t// in\n    tag_58:\n      mload(0x40)\n      tag_60\n      swap2\n      swap1\n      tag_42\n      jump\t// in\n    tag_60:\n      mload(0x40)\n      dup1\n      swap2\n      sub\n      swap1\n      return\n        /* \"contracts/Updated_1/TransactionContract_2.sol\":313:338  address public arbitrator */\n    tag_11:\n      callvalue\n      dup1\n      iszero\n      tag_61\n      jumpi\n      0x00\n      dup1\n      revert\n    tag_61:\n      pop\n      tag_62\n      tag_63\n      jump\t// in\n    tag_62:\n      mload(0x40)\n      tag_64\n      swap2\n      swap1\n      tag_65\n      jump\t// in\n    tag_64:\n      mload(0x40)\n      dup1\n      swap2\n      sub\n      swap1\n      return\n        /* \"contracts/Updated_1/TransactionContract_2.sol\":3777:4089  function raiseDispute() external inStatus(Status.ConditionVerified) {... */\n    tag_12:\n      callvalue\n      dup1\n      iszero\n      tag_66\n      jumpi\n      0x00\n      dup1\n      revert\n    tag_66:\n      pop\n      tag_67\n      tag_68\n      jump\t// in\n    tag_67:\n      stop\n        /* \"contracts/Updated_1/TransactionContract_2.sol\":504:533  bool public documentsVerified */\n    tag_13:\n      callvalue\n      dup1\n      iszero\n      tag_69\n      jumpi\n      0x00\n      dup1\n      revert\n    tag_69:\n      pop\n      tag_70\n      tag_71\n      jump\t// in\n    tag_70:\n      mload(0x40)\n      tag_72\n      swap2\n      swap1\n      tag_49\n      jump\t// in\n    tag_72:\n      mload(0x40)\n      dup1\n      swap2\n      sub\n      swap1\n      return\n        /* \"contracts/Updated_1/TransactionContract_2.sol\":242:270  address payable public buyer */\n    tag_14:\n      callvalue\n      dup1\n      iszero\n      tag_73\n      jumpi\n      0x00\n      dup1\n      revert\n    tag_73:\n      pop\n      tag_74\n      tag_75\n      jump\t// in\n    tag_74:\n      mload(0x40)\n      tag_76\n      swap2\n      swap1\n      tag_27\n      jump\t// in\n    tag_76:\n      mload(0x40)\n      dup1\n      swap2\n      sub\n      swap1\n      return\n        /* \"contracts/Updated_1/TransactionContract_2.sol\":4137:4371  function resolveDispute(string memory decision) external onlyArbitrator inStatus(Status.Dispute) {... */\n    tag_15:\n      callvalue\n      dup1\n      iszero\n      tag_77\n      jumpi\n      0x00\n      dup1\n      revert\n    tag_77:\n      pop\n      tag_78\n      0x04\n      dup1\n      calldatasize\n      sub\n      dup2\n      add\n      swap1\n      tag_79\n      swap2\n      swap1\n      tag_80\n      jump\t// in\n    tag_79:\n      tag_81\n      jump\t// in\n    tag_78:\n      stop\n        /* \"contracts/Updated_1/TransactionContract_2.sol\":2806:3013  function verifyDocuments() external onlySeller inStatus(Status.InEscrow) {... */\n    tag_16:\n      callvalue\n      dup1\n      iszero\n      tag_82\n      jumpi\n      0x00\n      dup1\n      revert\n    tag_82:\n      pop\n      tag_83\n      tag_84\n      jump\t// in\n    tag_83:\n      stop\n        /* \"contracts/Updated_1/TransactionContract_2.sol\":540:565  bool public fundsInEscrow */\n    tag_17:\n      callvalue\n      dup1\n      iszero\n      tag_85\n      jumpi\n      0x00\n      dup1\n      revert\n    tag_85:\n      pop\n      tag_86\n      tag_87\n      jump\t// in\n    tag_86:\n      mload(0x40)\n      tag_88\n      swap2\n      swap1\n      tag_49\n      jump\t// in\n    tag_88:\n      mload(0x40)\n      dup1\n      swap2\n      sub\n      swap1\n      return\n        /* \"contracts/Updated_1/TransactionContract_2.sol\":4661:5017  function getTransactionDetails() external view returns (... */\n    tag_18:\n      callvalue\n      dup1\n      iszero\n      tag_89\n      jumpi\n      0x00\n      dup1\n      revert\n    tag_89:\n      pop\n      tag_90\n      tag_91\n      jump\t// in\n    tag_90:\n      mload(0x40)\n      tag_92\n      swap9\n      swap8\n      swap7\n      swap6\n      swap5\n      swap4\n      swap3\n      swap2\n      swap1\n      tag_93\n      jump\t// in\n    tag_92:\n      mload(0x40)\n      dup1\n      swap2\n      sub\n      swap1\n      return\n        /* \"contracts/Updated_1/TransactionContract_2.sol\":475:497  uint public propertyId */\n    tag_19:\n      callvalue\n      dup1\n      iszero\n      tag_94\n      jumpi\n      0x00\n      dup1\n      revert\n    tag_94:\n      pop\n      tag_95\n      tag_96\n      jump\t// in\n    tag_95:\n      mload(0x40)\n      tag_97\n      swap2\n      swap1\n      tag_42\n      jump\t// in\n    tag_97:\n      mload(0x40)\n      dup1\n      swap2\n      sub\n      swap1\n      return\n        /* \"contracts/Updated_1/TransactionContract_2.sol\":277:306  address payable public seller */\n    tag_25:\n      0x01\n      0x00\n      swap1\n      sload\n      swap1\n      0x0100\n      exp\n      swap1\n      div\n      0xffffffffffffffffffffffffffffffffffffffff\n      and\n      dup2\n      jump\t// out\n        /* \"contracts/Updated_1/TransactionContract_2.sol\":213:233  Status public status */\n    tag_30:\n      0x00\n      dup1\n      sload\n      swap1\n      0x0100\n      exp\n      swap1\n      div\n      0xff\n      and\n      dup2\n      jump\t// out\n        /* \"contracts/Updated_1/TransactionContract_2.sol\":4405:4621  function abortTransaction() public onlyBuyer inStatus(Status.Created) {... */\n    tag_35:\n        /* \"contracts/Updated_1/TransactionContract_2.sol\":1159:1164  buyer */\n      0x00\n      0x01\n      swap1\n      sload\n      swap1\n      0x0100\n      exp\n      swap1\n      div\n      0xffffffffffffffffffffffffffffffffffffffff\n      and\n        /* \"contracts/Updated_1/TransactionContract_2.sol\":1145:1164  msg.sender == buyer */\n      0xffffffffffffffffffffffffffffffffffffffff\n      and\n        /* \"contracts/Updated_1/TransactionContract_2.sol\":1145:1155  msg.sender */\n      caller\n        /* \"contracts/Updated_1/TransactionContract_2.sol\":1145:1164  msg.sender == buyer */\n      0xffffffffffffffffffffffffffffffffffffffff\n      and\n      eq\n        /* \"contracts/Updated_1/TransactionContract_2.sol\":1137:1203  require(msg.sender == buyer, \"Only buyer can call this function.\") */\n      tag_99\n      jumpi\n      mload(0x40)\n      0x08c379a000000000000000000000000000000000000000000000000000000000\n      dup2\n      mstore\n      0x04\n      add\n      tag_100\n      swap1\n      tag_101\n      jump\t// in\n    tag_100:\n      mload(0x40)\n      dup1\n      swap2\n      sub\n      swap1\n      revert\n    tag_99:\n        /* \"contracts/Updated_1/TransactionContract_2.sol\":4459:4473  Status.Created */\n      0x00\n        /* \"contracts/Updated_1/TransactionContract_2.sol\":1561:1568  _status */\n      dup1\n        /* \"contracts/Updated_1/TransactionContract_2.sol\":1551:1568  status == _status */\n      0x05\n      dup2\n      gt\n      iszero\n      tag_103\n      jumpi\n      tag_104\n      tag_105\n      jump\t// in\n    tag_104:\n    tag_103:\n        /* \"contracts/Updated_1/TransactionContract_2.sol\":1551:1557  status */\n      0x00\n      dup1\n      sload\n      swap1\n      0x0100\n      exp\n      swap1\n      div\n      0xff\n      and\n        /* \"contracts/Updated_1/TransactionContract_2.sol\":1551:1568  status == _status */\n      0x05\n      dup2\n      gt\n      iszero\n      tag_106\n      jumpi\n      tag_107\n      tag_105\n      jump\t// in\n    tag_107:\n    tag_106:\n      eq\n        /* \"contracts/Updated_1/TransactionContract_2.sol\":1543:1600  require(status == _status, \"Invalid transaction status.\") */\n      tag_108\n      jumpi\n      mload(0x40)\n      0x08c379a000000000000000000000000000000000000000000000000000000000\n      dup2\n      mstore\n      0x04\n      add\n      tag_109\n      swap1\n      tag_110\n      jump\t// in\n    tag_109:\n      mload(0x40)\n      dup1\n      swap2\n      sub\n      swap1\n      revert\n    tag_108:\n        /* \"contracts/Updated_1/TransactionContract_2.sol\":4486:4491  buyer */\n      0x00\n      0x01\n      swap1\n      sload\n      swap1\n      0x0100\n      exp\n      swap1\n      div\n      0xffffffffffffffffffffffffffffffffffffffff\n      and\n        /* \"contracts/Updated_1/TransactionContract_2.sol\":4486:4500  buyer.transfer */\n      0xffffffffffffffffffffffffffffffffffffffff\n      and\n        /* \"contracts/Updated_1/TransactionContract_2.sol\":4486:4523  buyer.transfer(address(this).balance) */\n      0x08fc\n        /* \"contracts/Updated_1/TransactionContract_2.sol\":4501:4522  address(this).balance */\n      selfbalance\n        /* \"contracts/Updated_1/TransactionContract_2.sol\":4486:4523  buyer.transfer(address(this).balance) */\n      swap1\n      dup2\n      iszero\n      mul\n      swap1\n      mload(0x40)\n      0x00\n      mload(0x40)\n      dup1\n      dup4\n      sub\n      dup2\n      dup6\n      dup9\n      dup9\n      call\n      swap4\n      pop\n      pop\n      pop\n      pop\n      iszero\n      dup1\n      iszero\n      tag_113\n      jumpi\n      returndatasize\n      0x00\n      dup1\n      returndatacopy\n      revert(0x00, returndatasize)\n    tag_113:\n      pop\n        /* \"contracts/Updated_1/TransactionContract_2.sol\":4543:4559  Status.Completed */\n      0x03\n        /* \"contracts/Updated_1/TransactionContract_2.sol\":4534:4540  status */\n      0x00\n      dup1\n        /* \"contracts/Updated_1/TransactionContract_2.sol\":4534:4559  status = Status.Completed */\n      0x0100\n      exp\n      dup2\n      sload\n      dup2\n      0xff\n      mul\n      not\n      and\n      swap1\n      dup4\n      0x05\n      dup2\n      gt\n      iszero\n      tag_114\n      jumpi\n      tag_115\n      tag_105\n      jump\t// in\n    tag_115:\n    tag_114:\n      mul\n      or\n      swap1\n      sstore\n      pop\n        /* \"contracts/Updated_1/TransactionContract_2.sol\":1214:1215  _ */\n      pop\n        /* \"contracts/Updated_1/TransactionContract_2.sol\":4405:4621  function abortTransaction() public onlyBuyer inStatus(Status.Created) {... */\n      jump\t// out\n        /* \"contracts/Updated_1/TransactionContract_2.sol\":2498:2773  function depositToEscrow() external payable onlyBuyer inStatus(Status.Created) {... */\n    tag_37:\n        /* \"contracts/Updated_1/TransactionContract_2.sol\":1159:1164  buyer */\n      0x00\n      0x01\n      swap1\n      sload\n      swap1\n      0x0100\n      exp\n      swap1\n      div\n      0xffffffffffffffffffffffffffffffffffffffff\n      and\n        /* \"contracts/Updated_1/TransactionContract_2.sol\":1145:1164  msg.sender == buyer */\n      0xffffffffffffffffffffffffffffffffffffffff\n      and\n        /* \"contracts/Updated_1/TransactionContract_2.sol\":1145:1155  msg.sender */\n      caller\n        /* \"contracts/Updated_1/TransactionContract_2.sol\":1145:1164  msg.sender == buyer */\n      0xffffffffffffffffffffffffffffffffffffffff\n      and\n      eq\n        /* \"contracts/Updated_1/TransactionContract_2.sol\":1137:1203  require(msg.sender == buyer, \"Only buyer can call this function.\") */\n      tag_117\n      jumpi\n      mload(0x40)\n      0x08c379a000000000000000000000000000000000000000000000000000000000\n      dup2\n      mstore\n      0x04\n      add\n      tag_118\n      swap1\n      tag_101\n      jump\t// in\n    tag_118:\n      mload(0x40)\n      dup1\n      swap2\n      sub\n      swap1\n      revert\n    tag_117:\n        /* \"contracts/Updated_1/TransactionContract_2.sol\":2561:2575  Status.Created */\n      0x00\n        /* \"contracts/Updated_1/TransactionContract_2.sol\":1561:1568  _status */\n      dup1\n        /* \"contracts/Updated_1/TransactionContract_2.sol\":1551:1568  status == _status */\n      0x05\n      dup2\n      gt\n      iszero\n      tag_120\n      jumpi\n      tag_121\n      tag_105\n      jump\t// in\n    tag_121:\n    tag_120:\n        /* \"contracts/Updated_1/TransactionContract_2.sol\":1551:1557  status */\n      0x00\n      dup1\n      sload\n      swap1\n      0x0100\n      exp\n      swap1\n      div\n      0xff\n      and\n        /* \"contracts/Updated_1/TransactionContract_2.sol\":1551:1568  status == _status */\n      0x05\n      dup2\n      gt\n      iszero\n      tag_122\n      jumpi\n      tag_123\n      tag_105\n      jump\t// in\n    tag_123:\n    tag_122:\n      eq\n        /* \"contracts/Updated_1/TransactionContract_2.sol\":1543:1600  require(status == _status, \"Invalid transaction status.\") */\n      tag_124\n      jumpi\n      mload(0x40)\n      0x08c379a000000000000000000000000000000000000000000000000000000000\n      dup2\n      mstore\n      0x04\n      add\n      tag_125\n      swap1\n      tag_110\n      jump\t// in\n    tag_125:\n      mload(0x40)\n      dup1\n      swap2\n      sub\n      swap1\n      revert\n    tag_124:\n        /* \"contracts/Updated_1/TransactionContract_2.sol\":2609:2614  value */\n      sload(0x03)\n        /* \"contracts/Updated_1/TransactionContract_2.sol\":2596:2605  msg.value */\n      callvalue\n        /* \"contracts/Updated_1/TransactionContract_2.sol\":2596:2614  msg.value == value */\n      eq\n        /* \"contracts/Updated_1/TransactionContract_2.sol\":2588:2643  require(msg.value == value, \"Incorrect deposit amount\") */\n      tag_127\n      jumpi\n      mload(0x40)\n      0x08c379a000000000000000000000000000000000000000000000000000000000\n      dup2\n      mstore\n      0x04\n      add\n      tag_128\n      swap1\n      tag_129\n      jump\t// in\n    tag_128:\n      mload(0x40)\n      dup1\n      swap2\n      sub\n      swap1\n      revert\n    tag_127:\n        /* \"contracts/Updated_1/TransactionContract_2.sol\":2672:2676  true */\n      0x01\n        /* \"contracts/Updated_1/TransactionContract_2.sol\":2656:2669  fundsInEscrow */\n      0x06\n      0x01\n        /* \"contracts/Updated_1/TransactionContract_2.sol\":2656:2676  fundsInEscrow = true */\n      0x0100\n      exp\n      dup2\n      sload\n      dup2\n      0xff\n      mul\n      not\n      and\n      swap1\n      dup4\n      iszero\n      iszero\n      mul\n      or\n      swap1\n      sstore\n      pop\n        /* \"contracts/Updated_1/TransactionContract_2.sol\":2696:2711  Status.InEscrow */\n      0x01\n        /* \"contracts/Updated_1/TransactionContract_2.sol\":2687:2693  status */\n      0x00\n      dup1\n        /* \"contracts/Updated_1/TransactionContract_2.sol\":2687:2711  status = Status.InEscrow */\n      0x0100\n      exp\n      dup2\n      sload\n      dup2\n      0xff\n      mul\n      not\n      and\n      swap1\n      dup4\n      0x05\n      dup2\n      gt\n      iszero\n      tag_130\n      jumpi\n      tag_131\n      tag_105\n      jump\t// in\n    tag_131:\n    tag_130:\n      mul\n      or\n      swap1\n      sstore\n      pop\n        /* \"contracts/Updated_1/TransactionContract_2.sol\":2729:2765  EscrowDeposit(propertyId, msg.value) */\n      0xe1137f40a690bb272ef6abb40ecd678d3e0a5a521604a6579e7e49cd64545567\n        /* \"contracts/Updated_1/TransactionContract_2.sol\":2743:2753  propertyId */\n      sload(0x05)\n        /* \"contracts/Updated_1/TransactionContract_2.sol\":2755:2764  msg.value */\n      callvalue\n        /* \"contracts/Updated_1/TransactionContract_2.sol\":2729:2765  EscrowDeposit(propertyId, msg.value) */\n      mload(0x40)\n      tag_132\n      swap3\n      swap2\n      swap1\n      tag_133\n      jump\t// in\n    tag_132:\n      mload(0x40)\n      dup1\n      swap2\n      sub\n      swap1\n      log1\n        /* \"contracts/Updated_1/TransactionContract_2.sol\":1214:1215  _ */\n      pop\n        /* \"contracts/Updated_1/TransactionContract_2.sol\":2498:2773  function depositToEscrow() external payable onlyBuyer inStatus(Status.Created) {... */\n      jump\t// out\n        /* \"contracts/Updated_1/TransactionContract_2.sol\":345:362  uint public value */\n    tag_40:\n      sload(0x03)\n      dup2\n      jump\t// out\n        /* \"contracts/Updated_1/TransactionContract_2.sol\":574:614  mapping(uint256 => bool) public disputes */\n    tag_47:\n      mstore(0x20, 0x07)\n      dup1\n      0x00\n      mstore\n      keccak256(0x00, 0x40)\n      0x00\n      swap2\n      pop\n      sload\n      swap1\n      0x0100\n      exp\n      swap1\n      div\n      0xff\n      and\n      dup2\n      jump\t// out\n        /* \"contracts/Updated_1/TransactionContract_2.sol\":1869:2456  function initiateTransaction(uint _propertyId, address payable _seller, uint _escrowFee) public payable {... */\n    tag_53:\n        /* \"contracts/Updated_1/TransactionContract_2.sol\":2004:2014  _escrowFee */\n      dup1\n        /* \"contracts/Updated_1/TransactionContract_2.sol\":1992:2001  msg.value */\n      callvalue\n        /* \"contracts/Updated_1/TransactionContract_2.sol\":1992:2014  msg.value > _escrowFee */\n      gt\n        /* \"contracts/Updated_1/TransactionContract_2.sol\":1984:2072  require(msg.value > _escrowFee, \"Transaction value must be greater than the escrow fee\") */\n      tag_135\n      jumpi\n      mload(0x40)\n      0x08c379a000000000000000000000000000000000000000000000000000000000\n      dup2\n      mstore\n      0x04\n      add\n      tag_136\n      swap1\n      tag_137\n      jump\t// in\n    tag_136:\n      mload(0x40)\n      dup1\n      swap2\n      sub\n      swap1\n      revert\n    tag_135:\n        /* \"contracts/Updated_1/TransactionContract_2.sol\":2142:2152  msg.sender */\n      caller\n        /* \"contracts/Updated_1/TransactionContract_2.sol\":2126:2131  buyer */\n      0x00\n      0x01\n        /* \"contracts/Updated_1/TransactionContract_2.sol\":2126:2153  buyer = payable(msg.sender) */\n      0x0100\n      exp\n      dup2\n      sload\n      dup2\n      0xffffffffffffffffffffffffffffffffffffffff\n      mul\n      not\n      and\n      swap1\n      dup4\n      0xffffffffffffffffffffffffffffffffffffffff\n      and\n      mul\n      or\n      swap1\n      sstore\n      pop\n        /* \"contracts/Updated_1/TransactionContract_2.sol\":2173:2180  _seller */\n      dup2\n        /* \"contracts/Updated_1/TransactionContract_2.sol\":2164:2170  seller */\n      0x01\n      0x00\n        /* \"contracts/Updated_1/TransactionContract_2.sol\":2164:2180  seller = _seller */\n      0x0100\n      exp\n      dup2\n      sload\n      dup2\n      0xffffffffffffffffffffffffffffffffffffffff\n      mul\n      not\n      and\n      swap1\n      dup4\n      0xffffffffffffffffffffffffffffffffffffffff\n      and\n      mul\n      or\n      swap1\n      sstore\n      pop\n        /* \"contracts/Updated_1/TransactionContract_2.sol\":2204:2215  _propertyId */\n      dup3\n        /* \"contracts/Updated_1/TransactionContract_2.sol\":2191:2201  propertyId */\n      0x05\n        /* \"contracts/Updated_1/TransactionContract_2.sol\":2191:2215  propertyId = _propertyId */\n      dup2\n      swap1\n      sstore\n      pop\n        /* \"contracts/Updated_1/TransactionContract_2.sol\":2238:2248  _escrowFee */\n      dup1\n        /* \"contracts/Updated_1/TransactionContract_2.sol\":2226:2235  escrowFee */\n      0x04\n        /* \"contracts/Updated_1/TransactionContract_2.sol\":2226:2248  escrowFee = _escrowFee */\n      dup2\n      swap1\n      sstore\n      pop\n        /* \"contracts/Updated_1/TransactionContract_2.sol\":2279:2289  _escrowFee */\n      dup1\n        /* \"contracts/Updated_1/TransactionContract_2.sol\":2267:2276  msg.value */\n      callvalue\n        /* \"contracts/Updated_1/TransactionContract_2.sol\":2267:2289  msg.value - _escrowFee */\n      tag_138\n      swap2\n      swap1\n      tag_139\n      jump\t// in\n    tag_138:\n        /* \"contracts/Updated_1/TransactionContract_2.sol\":2259:2264  value */\n      0x03\n        /* \"contracts/Updated_1/TransactionContract_2.sol\":2259:2289  value = msg.value - _escrowFee */\n      dup2\n      swap1\n      sstore\n      pop\n        /* \"contracts/Updated_1/TransactionContract_2.sol\":2351:2365  Status.Created */\n      0x00\n        /* \"contracts/Updated_1/TransactionContract_2.sol\":2342:2348  status */\n      dup1\n      0x00\n        /* \"contracts/Updated_1/TransactionContract_2.sol\":2342:2365  status = Status.Created */\n      0x0100\n      exp\n      dup2\n      sload\n      dup2\n      0xff\n      mul\n      not\n      and\n      swap1\n      dup4\n      0x05\n      dup2\n      gt\n      iszero\n      tag_140\n      jumpi\n      tag_141\n      tag_105\n      jump\t// in\n    tag_141:\n    tag_140:\n      mul\n      or\n      swap1\n      sstore\n      pop\n        /* \"contracts/Updated_1/TransactionContract_2.sol\":2383:2448  TransactionInitiated(propertyId, buyer, seller, value, escrowFee) */\n      0xfc215f5a30991a81a74ec61733c1d7cf5fc914fff34e3600456fd02be4976f44\n        /* \"contracts/Updated_1/TransactionContract_2.sol\":2404:2414  propertyId */\n      sload(0x05)\n        /* \"contracts/Updated_1/TransactionContract_2.sol\":2416:2421  buyer */\n      0x00\n      0x01\n      swap1\n      sload\n      swap1\n      0x0100\n      exp\n      swap1\n      div\n      0xffffffffffffffffffffffffffffffffffffffff\n      and\n        /* \"contracts/Updated_1/TransactionContract_2.sol\":2423:2429  seller */\n      0x01\n      0x00\n      swap1\n      sload\n      swap1\n      0x0100\n      exp\n      swap1\n      div\n      0xffffffffffffffffffffffffffffffffffffffff\n      and\n        /* \"contracts/Updated_1/TransactionContract_2.sol\":2431:2436  value */\n      sload(0x03)\n        /* \"contracts/Updated_1/TransactionContract_2.sol\":2438:2447  escrowFee */\n      sload(0x04)\n        /* \"contracts/Updated_1/TransactionContract_2.sol\":2383:2448  TransactionInitiated(propertyId, buyer, seller, value, escrowFee) */\n      mload(0x40)\n      tag_142\n      swap6\n      swap5\n      swap4\n      swap3\n      swap2\n      swap1\n      tag_143\n      jump\t// in\n    tag_142:\n      mload(0x40)\n      dup1\n      swap2\n      sub\n      swap1\n      log1\n        /* \"contracts/Updated_1/TransactionContract_2.sol\":1869:2456  function initiateTransaction(uint _propertyId, address payable _seller, uint _escrowFee) public payable {... */\n      pop\n      pop\n      pop\n      jump\t// out\n        /* \"contracts/Updated_1/TransactionContract_2.sol\":3085:3745  function releaseFunds() external onlyBuyer inStatus(Status.ConditionVerified) {... */\n    tag_56:\n        /* \"contracts/Updated_1/TransactionContract_2.sol\":1159:1164  buyer */\n      0x00\n      0x01\n      swap1\n      sload\n      swap1\n      0x0100\n      exp\n      swap1\n      div\n      0xffffffffffffffffffffffffffffffffffffffff\n      and\n        /* \"contracts/Updated_1/TransactionContract_2.sol\":1145:1164  msg.sender == buyer */\n      0xffffffffffffffffffffffffffffffffffffffff\n      and\n        /* \"contracts/Updated_1/TransactionContract_2.sol\":1145:1155  msg.sender */\n      caller\n        /* \"contracts/Updated_1/TransactionContract_2.sol\":1145:1164  msg.sender == buyer */\n      0xffffffffffffffffffffffffffffffffffffffff\n      and\n      eq\n        /* \"contracts/Updated_1/TransactionContract_2.sol\":1137:1203  require(msg.sender == buyer, \"Only buyer can call this function.\") */\n      tag_145\n      jumpi\n      mload(0x40)\n      0x08c379a000000000000000000000000000000000000000000000000000000000\n      dup2\n      mstore\n      0x04\n      add\n      tag_146\n      swap1\n      tag_101\n      jump\t// in\n    tag_146:\n      mload(0x40)\n      dup1\n      swap2\n      sub\n      swap1\n      revert\n    tag_145:\n        /* \"contracts/Updated_1/TransactionContract_2.sol\":3137:3161  Status.ConditionVerified */\n      0x02\n        /* \"contracts/Updated_1/TransactionContract_2.sol\":1561:1568  _status */\n      dup1\n        /* \"contracts/Updated_1/TransactionContract_2.sol\":1551:1568  status == _status */\n      0x05\n      dup2\n      gt\n      iszero\n      tag_148\n      jumpi\n      tag_149\n      tag_105\n      jump\t// in\n    tag_149:\n    tag_148:\n        /* \"contracts/Updated_1/TransactionContract_2.sol\":1551:1557  status */\n      0x00\n      dup1\n      sload\n      swap1\n      0x0100\n      exp\n      swap1\n      div\n      0xff\n      and\n        /* \"contracts/Updated_1/TransactionContract_2.sol\":1551:1568  status == _status */\n      0x05\n      dup2\n      gt\n      iszero\n      tag_150\n      jumpi\n      tag_151\n      tag_105\n      jump\t// in\n    tag_151:\n    tag_150:\n      eq\n        /* \"contracts/Updated_1/TransactionContract_2.sol\":1543:1600  require(status == _status, \"Invalid transaction status.\") */\n      tag_152\n      jumpi\n      mload(0x40)\n      0x08c379a000000000000000000000000000000000000000000000000000000000\n      dup2\n      mstore\n      0x04\n      add\n      tag_153\n      swap1\n      tag_110\n      jump\t// in\n    tag_153:\n      mload(0x40)\n      dup1\n      swap2\n      sub\n      swap1\n      revert\n    tag_152:\n        /* \"contracts/Updated_1/TransactionContract_2.sol\":3182:3195  fundsInEscrow */\n      0x06\n      0x01\n      swap1\n      sload\n      swap1\n      0x0100\n      exp\n      swap1\n      div\n      0xff\n      and\n        /* \"contracts/Updated_1/TransactionContract_2.sol\":3174:3223  require(fundsInEscrow, \"Funds are not in escrow\") */\n      tag_155\n      jumpi\n      mload(0x40)\n      0x08c379a000000000000000000000000000000000000000000000000000000000\n      dup2\n      mstore\n      0x04\n      add\n      tag_156\n      swap1\n      tag_157\n      jump\t// in\n    tag_156:\n      mload(0x40)\n      dup1\n      swap2\n      sub\n      swap1\n      revert\n    tag_155:\n        /* \"contracts/Updated_1/TransactionContract_2.sol\":3242:3259  documentsVerified */\n      0x06\n      0x00\n      swap1\n      sload\n      swap1\n      0x0100\n      exp\n      swap1\n      div\n      0xff\n      and\n        /* \"contracts/Updated_1/TransactionContract_2.sol\":3234:3290  require(documentsVerified, \"Documents must be verified\") */\n      tag_158\n      jumpi\n      mload(0x40)\n      0x08c379a000000000000000000000000000000000000000000000000000000000\n      dup2\n      mstore\n      0x04\n      add\n      tag_159\n      swap1\n      tag_160\n      jump\t// in\n    tag_159:\n      mload(0x40)\n      dup1\n      swap2\n      sub\n      swap1\n      revert\n    tag_158:\n        /* \"contracts/Updated_1/TransactionContract_2.sol\":3312:3328  Status.Completed */\n      0x03\n        /* \"contracts/Updated_1/TransactionContract_2.sol\":3303:3309  status */\n      0x00\n      dup1\n        /* \"contracts/Updated_1/TransactionContract_2.sol\":3303:3328  status = Status.Completed */\n      0x0100\n      exp\n      dup2\n      sload\n      dup2\n      0xff\n      mul\n      not\n      and\n      swap1\n      dup4\n      0x05\n      dup2\n      gt\n      iszero\n      tag_161\n      jumpi\n      tag_162\n      tag_105\n      jump\t// in\n    tag_162:\n    tag_161:\n      mul\n      or\n      swap1\n      sstore\n      pop\n        /* \"contracts/Updated_1/TransactionContract_2.sol\":3355:3360  false */\n      0x00\n        /* \"contracts/Updated_1/TransactionContract_2.sol\":3339:3352  fundsInEscrow */\n      0x06\n      0x01\n        /* \"contracts/Updated_1/TransactionContract_2.sol\":3339:3360  fundsInEscrow = false */\n      0x0100\n      exp\n      dup2\n      sload\n      dup2\n      0xff\n      mul\n      not\n      and\n      swap1\n      dup4\n      iszero\n      iszero\n      mul\n      or\n      swap1\n      sstore\n      pop\n        /* \"contracts/Updated_1/TransactionContract_2.sol\":3374:3386  bool success */\n      0x00\n        /* \"contracts/Updated_1/TransactionContract_2.sol\":3392:3398  seller */\n      0x01\n      0x00\n      swap1\n      sload\n      swap1\n      0x0100\n      exp\n      swap1\n      div\n      0xffffffffffffffffffffffffffffffffffffffff\n      and\n        /* \"contracts/Updated_1/TransactionContract_2.sol\":3392:3403  seller.call */\n      0xffffffffffffffffffffffffffffffffffffffff\n      and\n        /* \"contracts/Updated_1/TransactionContract_2.sol\":3411:3416  value */\n      sload(0x03)\n        /* \"contracts/Updated_1/TransactionContract_2.sol\":3392:3421  seller.call{value: value}(\"\") */\n      mload(0x40)\n      tag_163\n      swap1\n      tag_164\n      jump\t// in\n    tag_163:\n      0x00\n      mload(0x40)\n      dup1\n      dup4\n      sub\n      dup2\n      dup6\n      dup8\n      gas\n      call\n      swap3\n      pop\n      pop\n      pop\n      returndatasize\n      dup1\n      0x00\n      dup2\n      eq\n      tag_167\n      jumpi\n      mload(0x40)\n      swap2\n      pop\n      and(add(returndatasize, 0x3f), not(0x1f))\n      dup3\n      add\n      0x40\n      mstore\n      returndatasize\n      dup3\n      mstore\n      returndatasize\n      0x00\n      0x20\n      dup5\n      add\n      returndatacopy\n      jump(tag_166)\n    tag_167:\n      0x60\n      swap2\n      pop\n    tag_166:\n      pop\n        /* \"contracts/Updated_1/TransactionContract_2.sol\":3373:3421  (bool success, ) = seller.call{value: value}(\"\") */\n      pop\n      swap1\n      pop\n        /* \"contracts/Updated_1/TransactionContract_2.sol\":3440:3447  success */\n      dup1\n        /* \"contracts/Updated_1/TransactionContract_2.sol\":3432:3477  require(success, \"Transfer to seller failed\") */\n      tag_168\n      jumpi\n      mload(0x40)\n      0x08c379a000000000000000000000000000000000000000000000000000000000\n      dup2\n      mstore\n      0x04\n      add\n      tag_169\n      swap1\n      tag_170\n      jump\t// in\n    tag_169:\n      mload(0x40)\n      dup1\n      swap2\n      sub\n      swap1\n      revert\n    tag_168:\n        /* \"contracts/Updated_1/TransactionContract_2.sol\":3551:3556  buyer */\n      0x00\n      0x01\n      swap1\n      sload\n      swap1\n      0x0100\n      exp\n      swap1\n      div\n      0xffffffffffffffffffffffffffffffffffffffff\n      and\n        /* \"contracts/Updated_1/TransactionContract_2.sol\":3551:3561  buyer.call */\n      0xffffffffffffffffffffffffffffffffffffffff\n      and\n        /* \"contracts/Updated_1/TransactionContract_2.sol\":3569:3578  escrowFee */\n      sload(0x04)\n        /* \"contracts/Updated_1/TransactionContract_2.sol\":3551:3583  buyer.call{value: escrowFee}(\"\") */\n      mload(0x40)\n      tag_171\n      swap1\n      tag_164\n      jump\t// in\n    tag_171:\n      0x00\n      mload(0x40)\n      dup1\n      dup4\n      sub\n      dup2\n      dup6\n      dup8\n      gas\n      call\n      swap3\n      pop\n      pop\n      pop\n      returndatasize\n      dup1\n      0x00\n      dup2\n      eq\n      tag_174\n      jumpi\n      mload(0x40)\n      swap2\n      pop\n      and(add(returndatasize, 0x3f), not(0x1f))\n      dup3\n      add\n      0x40\n      mstore\n      returndatasize\n      dup3\n      mstore\n      returndatasize\n      0x00\n      0x20\n      dup5\n      add\n      returndatacopy\n      jump(tag_173)\n    tag_174:\n      0x60\n      swap2\n      pop\n    tag_173:\n      pop\n        /* \"contracts/Updated_1/TransactionContract_2.sol\":3537:3583  (success, ) = buyer.call{value: escrowFee}(\"\") */\n      pop\n      dup1\n      swap2\n      pop\n      pop\n        /* \"contracts/Updated_1/TransactionContract_2.sol\":3602:3609  success */\n      dup1\n        /* \"contracts/Updated_1/TransactionContract_2.sol\":3594:3638  require(success, \"Escrow fee refund failed\") */\n      tag_175\n      jumpi\n      mload(0x40)\n      0x08c379a000000000000000000000000000000000000000000000000000000000\n      dup2\n      mstore\n      0x04\n      add\n      tag_176\n      swap1\n      tag_177\n      jump\t// in\n    tag_176:\n      mload(0x40)\n      dup1\n      swap2\n      sub\n      swap1\n      revert\n    tag_175:\n        /* \"contracts/Updated_1/TransactionContract_2.sol\":3656:3689  FundsReleased(propertyId, seller) */\n      0x8f5073d0a7a22ba450e278541077e181af457be74bea91e61f1f99e6bb40748e\n        /* \"contracts/Updated_1/TransactionContract_2.sol\":3670:3680  propertyId */\n      sload(0x05)\n        /* \"contracts/Updated_1/TransactionContract_2.sol\":3682:3688  seller */\n      0x01\n      0x00\n      swap1\n      sload\n      swap1\n      0x0100\n      exp\n      swap1\n      div\n      0xffffffffffffffffffffffffffffffffffffffff\n      and\n        /* \"contracts/Updated_1/TransactionContract_2.sol\":3656:3689  FundsReleased(propertyId, seller) */\n      mload(0x40)\n      tag_178\n      swap3\n      swap2\n      swap1\n      tag_179\n      jump\t// in\n    tag_178:\n      mload(0x40)\n      dup1\n      swap2\n      sub\n      swap1\n      log1\n        /* \"contracts/Updated_1/TransactionContract_2.sol\":3705:3737  TransactionCompleted(propertyId) */\n      0x161186077e0cdfa49fae16d54ce01ea091439dbf14243419593fa6c051c906c8\n        /* \"contracts/Updated_1/TransactionContract_2.sol\":3726:3736  propertyId */\n      sload(0x05)\n        /* \"contracts/Updated_1/TransactionContract_2.sol\":3705:3737  TransactionCompleted(propertyId) */\n      mload(0x40)\n      tag_180\n      swap2\n      swap1\n      tag_42\n      jump\t// in\n    tag_180:\n      mload(0x40)\n      dup1\n      swap2\n      sub\n      swap1\n      log1\n        /* \"contracts/Updated_1/TransactionContract_2.sol\":3163:3745  {... */\n      pop\n        /* \"contracts/Updated_1/TransactionContract_2.sol\":1214:1215  _ */\n      pop\n        /* \"contracts/Updated_1/TransactionContract_2.sol\":3085:3745  function releaseFunds() external onlyBuyer inStatus(Status.ConditionVerified) {... */\n      jump\t// out\n        /* \"contracts/Updated_1/TransactionContract_2.sol\":421:442  uint public escrowFee */\n    tag_59:\n      sload(0x04)\n      dup2\n      jump\t// out\n        /* \"contracts/Updated_1/TransactionContract_2.sol\":313:338  address public arbitrator */\n    tag_63:\n      0x02\n      0x00\n      swap1\n      sload\n      swap1\n      0x0100\n      exp\n      swap1\n      div\n      0xffffffffffffffffffffffffffffffffffffffff\n      and\n      dup2\n      jump\t// out\n        /* \"contracts/Updated_1/TransactionContract_2.sol\":3777:4089  function raiseDispute() external inStatus(Status.ConditionVerified) {... */\n    tag_68:\n        /* \"contracts/Updated_1/TransactionContract_2.sol\":3819:3843  Status.ConditionVerified */\n      0x02\n        /* \"contracts/Updated_1/TransactionContract_2.sol\":1561:1568  _status */\n      dup1\n        /* \"contracts/Updated_1/TransactionContract_2.sol\":1551:1568  status == _status */\n      0x05\n      dup2\n      gt\n      iszero\n      tag_182\n      jumpi\n      tag_183\n      tag_105\n      jump\t// in\n    tag_183:\n    tag_182:\n        /* \"contracts/Updated_1/TransactionContract_2.sol\":1551:1557  status */\n      0x00\n      dup1\n      sload\n      swap1\n      0x0100\n      exp\n      swap1\n      div\n      0xff\n      and\n        /* \"contracts/Updated_1/TransactionContract_2.sol\":1551:1568  status == _status */\n      0x05\n      dup2\n      gt\n      iszero\n      tag_184\n      jumpi\n      tag_185\n      tag_105\n      jump\t// in\n    tag_185:\n    tag_184:\n      eq\n        /* \"contracts/Updated_1/TransactionContract_2.sol\":1543:1600  require(status == _status, \"Invalid transaction status.\") */\n      tag_186\n      jumpi\n      mload(0x40)\n      0x08c379a000000000000000000000000000000000000000000000000000000000\n      dup2\n      mstore\n      0x04\n      add\n      tag_187\n      swap1\n      tag_110\n      jump\t// in\n    tag_187:\n      mload(0x40)\n      dup1\n      swap2\n      sub\n      swap1\n      revert\n    tag_186:\n        /* \"contracts/Updated_1/TransactionContract_2.sol\":3878:3883  buyer */\n      0x00\n      0x01\n      swap1\n      sload\n      swap1\n      0x0100\n      exp\n      swap1\n      div\n      0xffffffffffffffffffffffffffffffffffffffff\n      and\n        /* \"contracts/Updated_1/TransactionContract_2.sol\":3864:3883  msg.sender == buyer */\n      0xffffffffffffffffffffffffffffffffffffffff\n      and\n        /* \"contracts/Updated_1/TransactionContract_2.sol\":3864:3874  msg.sender */\n      caller\n        /* \"contracts/Updated_1/TransactionContract_2.sol\":3864:3883  msg.sender == buyer */\n      0xffffffffffffffffffffffffffffffffffffffff\n      and\n      eq\n        /* \"contracts/Updated_1/TransactionContract_2.sol\":3864:3907  msg.sender == buyer || msg.sender == seller */\n      dup1\n      tag_189\n      jumpi\n      pop\n        /* \"contracts/Updated_1/TransactionContract_2.sol\":3901:3907  seller */\n      0x01\n      0x00\n      swap1\n      sload\n      swap1\n      0x0100\n      exp\n      swap1\n      div\n      0xffffffffffffffffffffffffffffffffffffffff\n      and\n        /* \"contracts/Updated_1/TransactionContract_2.sol\":3887:3907  msg.sender == seller */\n      0xffffffffffffffffffffffffffffffffffffffff\n      and\n        /* \"contracts/Updated_1/TransactionContract_2.sol\":3887:3897  msg.sender */\n      caller\n        /* \"contracts/Updated_1/TransactionContract_2.sol\":3887:3907  msg.sender == seller */\n      0xffffffffffffffffffffffffffffffffffffffff\n      and\n      eq\n        /* \"contracts/Updated_1/TransactionContract_2.sol\":3864:3907  msg.sender == buyer || msg.sender == seller */\n    tag_189:\n        /* \"contracts/Updated_1/TransactionContract_2.sol\":3856:3952  require(msg.sender == buyer || msg.sender == seller, \"Only buyer or seller can raise a dispute\") */\n      tag_190\n      jumpi\n      mload(0x40)\n      0x08c379a000000000000000000000000000000000000000000000000000000000\n      dup2\n      mstore\n      0x04\n      add\n      tag_191\n      swap1\n      tag_192\n      jump\t// in\n    tag_191:\n      mload(0x40)\n      dup1\n      swap2\n      sub\n      swap1\n      revert\n    tag_190:\n        /* \"contracts/Updated_1/TransactionContract_2.sol\":3974:3988  Status.Dispute */\n      0x04\n        /* \"contracts/Updated_1/TransactionContract_2.sol\":3965:3971  status */\n      0x00\n      dup1\n        /* \"contracts/Updated_1/TransactionContract_2.sol\":3965:3988  status = Status.Dispute */\n      0x0100\n      exp\n      dup2\n      sload\n      dup2\n      0xff\n      mul\n      not\n      and\n      swap1\n      dup4\n      0x05\n      dup2\n      gt\n      iszero\n      tag_193\n      jumpi\n      tag_194\n      tag_105\n      jump\t// in\n    tag_194:\n    tag_193:\n      mul\n      or\n      swap1\n      sstore\n      pop\n        /* \"contracts/Updated_1/TransactionContract_2.sol\":4022:4026  true */\n      0x01\n        /* \"contracts/Updated_1/TransactionContract_2.sol\":3999:4007  disputes */\n      0x07\n        /* \"contracts/Updated_1/TransactionContract_2.sol\":3999:4019  disputes[propertyId] */\n      0x00\n        /* \"contracts/Updated_1/TransactionContract_2.sol\":4008:4018  propertyId */\n      sload(0x05)\n        /* \"contracts/Updated_1/TransactionContract_2.sol\":3999:4019  disputes[propertyId] */\n      dup2\n      mstore\n      0x20\n      add\n      swap1\n      dup2\n      mstore\n      0x20\n      add\n      0x00\n      keccak256\n      0x00\n        /* \"contracts/Updated_1/TransactionContract_2.sol\":3999:4026  disputes[propertyId] = true */\n      0x0100\n      exp\n      dup2\n      sload\n      dup2\n      0xff\n      mul\n      not\n      and\n      swap1\n      dup4\n      iszero\n      iszero\n      mul\n      or\n      swap1\n      sstore\n      pop\n        /* \"contracts/Updated_1/TransactionContract_2.sol\":4044:4081  DisputeRaised(propertyId, msg.sender) */\n      0x84a477df8a28a4276ca6dee4458a06c3015f30c477d9c949ede4e13ff8a552b4\n        /* \"contracts/Updated_1/TransactionContract_2.sol\":4058:4068  propertyId */\n      sload(0x05)\n        /* \"contracts/Updated_1/TransactionContract_2.sol\":4070:4080  msg.sender */\n      caller\n        /* \"contracts/Updated_1/TransactionContract_2.sol\":4044:4081  DisputeRaised(propertyId, msg.sender) */\n      mload(0x40)\n      tag_195\n      swap3\n      swap2\n      swap1\n      tag_196\n      jump\t// in\n    tag_195:\n      mload(0x40)\n      dup1\n      swap2\n      sub\n      swap1\n      log1\n        /* \"contracts/Updated_1/TransactionContract_2.sol\":3777:4089  function raiseDispute() external inStatus(Status.ConditionVerified) {... */\n      pop\n      jump\t// out\n        /* \"contracts/Updated_1/TransactionContract_2.sol\":504:533  bool public documentsVerified */\n    tag_71:\n      0x06\n      0x00\n      swap1\n      sload\n      swap1\n      0x0100\n      exp\n      swap1\n      div\n      0xff\n      and\n      dup2\n      jump\t// out\n        /* \"contracts/Updated_1/TransactionContract_2.sol\":242:270  address payable public buyer */\n    tag_75:\n      0x00\n      0x01\n      swap1\n      sload\n      swap1\n      0x0100\n      exp\n      swap1\n      div\n      0xffffffffffffffffffffffffffffffffffffffff\n      and\n      dup2\n      jump\t// out\n        /* \"contracts/Updated_1/TransactionContract_2.sol\":4137:4371  function resolveDispute(string memory decision) external onlyArbitrator inStatus(Status.Dispute) {... */\n    tag_81:\n        /* \"contracts/Updated_1/TransactionContract_2.sol\":1419:1429  arbitrator */\n      0x02\n      0x00\n      swap1\n      sload\n      swap1\n      0x0100\n      exp\n      swap1\n      div\n      0xffffffffffffffffffffffffffffffffffffffff\n      and\n        /* \"contracts/Updated_1/TransactionContract_2.sol\":1405:1429  msg.sender == arbitrator */\n      0xffffffffffffffffffffffffffffffffffffffff\n      and\n        /* \"contracts/Updated_1/TransactionContract_2.sol\":1405:1415  msg.sender */\n      caller\n        /* \"contracts/Updated_1/TransactionContract_2.sol\":1405:1429  msg.sender == arbitrator */\n      0xffffffffffffffffffffffffffffffffffffffff\n      and\n      eq\n        /* \"contracts/Updated_1/TransactionContract_2.sol\":1397:1470  require(msg.sender == arbitrator, \"Only arbitrator can resolve disputes\") */\n      tag_198\n      jumpi\n      mload(0x40)\n      0x08c379a000000000000000000000000000000000000000000000000000000000\n      dup2\n      mstore\n      0x04\n      add\n      tag_199\n      swap1\n      tag_200\n      jump\t// in\n    tag_199:\n      mload(0x40)\n      dup1\n      swap2\n      sub\n      swap1\n      revert\n    tag_198:\n        /* \"contracts/Updated_1/TransactionContract_2.sol\":4218:4232  Status.Dispute */\n      0x04\n        /* \"contracts/Updated_1/TransactionContract_2.sol\":1561:1568  _status */\n      dup1\n        /* \"contracts/Updated_1/TransactionContract_2.sol\":1551:1568  status == _status */\n      0x05\n      dup2\n      gt\n      iszero\n      tag_202\n      jumpi\n      tag_203\n      tag_105\n      jump\t// in\n    tag_203:\n    tag_202:\n        /* \"contracts/Updated_1/TransactionContract_2.sol\":1551:1557  status */\n      0x00\n      dup1\n      sload\n      swap1\n      0x0100\n      exp\n      swap1\n      div\n      0xff\n      and\n        /* \"contracts/Updated_1/TransactionContract_2.sol\":1551:1568  status == _status */\n      0x05\n      dup2\n      gt\n      iszero\n      tag_204\n      jumpi\n      tag_205\n      tag_105\n      jump\t// in\n    tag_205:\n    tag_204:\n      eq\n        /* \"contracts/Updated_1/TransactionContract_2.sol\":1543:1600  require(status == _status, \"Invalid transaction status.\") */\n      tag_206\n      jumpi\n      mload(0x40)\n      0x08c379a000000000000000000000000000000000000000000000000000000000\n      dup2\n      mstore\n      0x04\n      add\n      tag_207\n      swap1\n      tag_110\n      jump\t// in\n    tag_207:\n      mload(0x40)\n      dup1\n      swap2\n      sub\n      swap1\n      revert\n    tag_206:\n        /* \"contracts/Updated_1/TransactionContract_2.sol\":4254:4269  Status.Resolved */\n      0x05\n        /* \"contracts/Updated_1/TransactionContract_2.sol\":4245:4251  status */\n      0x00\n      dup1\n        /* \"contracts/Updated_1/TransactionContract_2.sol\":4245:4269  status = Status.Resolved */\n      0x0100\n      exp\n      dup2\n      sload\n      dup2\n      0xff\n      mul\n      not\n      and\n      swap1\n      dup4\n      0x05\n      dup2\n      gt\n      iszero\n      tag_209\n      jumpi\n      tag_210\n      tag_105\n      jump\t// in\n    tag_210:\n    tag_209:\n      mul\n      or\n      swap1\n      sstore\n      pop\n        /* \"contracts/Updated_1/TransactionContract_2.sol\":4303:4308  false */\n      0x00\n        /* \"contracts/Updated_1/TransactionContract_2.sol\":4280:4288  disputes */\n      0x07\n        /* \"contracts/Updated_1/TransactionContract_2.sol\":4280:4300  disputes[propertyId] */\n      0x00\n        /* \"contracts/Updated_1/TransactionContract_2.sol\":4289:4299  propertyId */\n      sload(0x05)\n        /* \"contracts/Updated_1/TransactionContract_2.sol\":4280:4300  disputes[propertyId] */\n      dup2\n      mstore\n      0x20\n      add\n      swap1\n      dup2\n      mstore\n      0x20\n      add\n      0x00\n      keccak256\n      0x00\n        /* \"contracts/Updated_1/TransactionContract_2.sol\":4280:4308  disputes[propertyId] = false */\n      0x0100\n      exp\n      dup2\n      sload\n      dup2\n      0xff\n      mul\n      not\n      and\n      swap1\n      dup4\n      iszero\n      iszero\n      mul\n      or\n      swap1\n      sstore\n      pop\n        /* \"contracts/Updated_1/TransactionContract_2.sol\":4326:4363  DisputeResolved(propertyId, decision) */\n      0x831764ac02a33c193cba23a0de34c986e9b50402bf3c9febf6ff2f63d4c0435d\n        /* \"contracts/Updated_1/TransactionContract_2.sol\":4342:4352  propertyId */\n      sload(0x05)\n        /* \"contracts/Updated_1/TransactionContract_2.sol\":4354:4362  decision */\n      dup4\n        /* \"contracts/Updated_1/TransactionContract_2.sol\":4326:4363  DisputeResolved(propertyId, decision) */\n      mload(0x40)\n      tag_211\n      swap3\n      swap2\n      swap1\n      tag_212\n      jump\t// in\n    tag_211:\n      mload(0x40)\n      dup1\n      swap2\n      sub\n      swap1\n      log1\n        /* \"contracts/Updated_1/TransactionContract_2.sol\":1481:1482  _ */\n      pop\n        /* \"contracts/Updated_1/TransactionContract_2.sol\":4137:4371  function resolveDispute(string memory decision) external onlyArbitrator inStatus(Status.Dispute) {... */\n      pop\n      jump\t// out\n        /* \"contracts/Updated_1/TransactionContract_2.sol\":2806:3013  function verifyDocuments() external onlySeller inStatus(Status.InEscrow) {... */\n    tag_84:\n        /* \"contracts/Updated_1/TransactionContract_2.sol\":1286:1292  seller */\n      0x01\n      0x00\n      swap1\n      sload\n      swap1\n      0x0100\n      exp\n      swap1\n      div\n      0xffffffffffffffffffffffffffffffffffffffff\n      and\n        /* \"contracts/Updated_1/TransactionContract_2.sol\":1272:1292  msg.sender == seller */\n      0xffffffffffffffffffffffffffffffffffffffff\n      and\n        /* \"contracts/Updated_1/TransactionContract_2.sol\":1272:1282  msg.sender */\n      caller\n        /* \"contracts/Updated_1/TransactionContract_2.sol\":1272:1292  msg.sender == seller */\n      0xffffffffffffffffffffffffffffffffffffffff\n      and\n      eq\n        /* \"contracts/Updated_1/TransactionContract_2.sol\":1264:1332  require(msg.sender == seller, \"Only seller can call this function.\") */\n      tag_214\n      jumpi\n      mload(0x40)\n      0x08c379a000000000000000000000000000000000000000000000000000000000\n      dup2\n      mstore\n      0x04\n      add\n      tag_215\n      swap1\n      tag_216\n      jump\t// in\n    tag_215:\n      mload(0x40)\n      dup1\n      swap2\n      sub\n      swap1\n      revert\n    tag_214:\n        /* \"contracts/Updated_1/TransactionContract_2.sol\":2862:2877  Status.InEscrow */\n      0x01\n        /* \"contracts/Updated_1/TransactionContract_2.sol\":1561:1568  _status */\n      dup1\n        /* \"contracts/Updated_1/TransactionContract_2.sol\":1551:1568  status == _status */\n      0x05\n      dup2\n      gt\n      iszero\n      tag_218\n      jumpi\n      tag_219\n      tag_105\n      jump\t// in\n    tag_219:\n    tag_218:\n        /* \"contracts/Updated_1/TransactionContract_2.sol\":1551:1557  status */\n      0x00\n      dup1\n      sload\n      swap1\n      0x0100\n      exp\n      swap1\n      div\n      0xff\n      and\n        /* \"contracts/Updated_1/TransactionContract_2.sol\":1551:1568  status == _status */\n      0x05\n      dup2\n      gt\n      iszero\n      tag_220\n      jumpi\n      tag_221\n      tag_105\n      jump\t// in\n    tag_221:\n    tag_220:\n      eq\n        /* \"contracts/Updated_1/TransactionContract_2.sol\":1543:1600  require(status == _status, \"Invalid transaction status.\") */\n      tag_222\n      jumpi\n      mload(0x40)\n      0x08c379a000000000000000000000000000000000000000000000000000000000\n      dup2\n      mstore\n      0x04\n      add\n      tag_223\n      swap1\n      tag_110\n      jump\t// in\n    tag_223:\n      mload(0x40)\n      dup1\n      swap2\n      sub\n      swap1\n      revert\n    tag_222:\n        /* \"contracts/Updated_1/TransactionContract_2.sol\":2910:2914  true */\n      0x01\n        /* \"contracts/Updated_1/TransactionContract_2.sol\":2890:2907  documentsVerified */\n      0x06\n      0x00\n        /* \"contracts/Updated_1/TransactionContract_2.sol\":2890:2914  documentsVerified = true */\n      0x0100\n      exp\n      dup2\n      sload\n      dup2\n      0xff\n      mul\n      not\n      and\n      swap1\n      dup4\n      iszero\n      iszero\n      mul\n      or\n      swap1\n      sstore\n      pop\n        /* \"contracts/Updated_1/TransactionContract_2.sol\":2934:2958  Status.ConditionVerified */\n      0x02\n        /* \"contracts/Updated_1/TransactionContract_2.sol\":2925:2931  status */\n      0x00\n      dup1\n        /* \"contracts/Updated_1/TransactionContract_2.sol\":2925:2958  status = Status.ConditionVerified */\n      0x0100\n      exp\n      dup2\n      sload\n      dup2\n      0xff\n      mul\n      not\n      and\n      swap1\n      dup4\n      0x05\n      dup2\n      gt\n      iszero\n      tag_225\n      jumpi\n      tag_226\n      tag_105\n      jump\t// in\n    tag_226:\n    tag_225:\n      mul\n      or\n      swap1\n      sstore\n      pop\n        /* \"contracts/Updated_1/TransactionContract_2.sol\":2976:3005  DocumentsVerified(propertyId) */\n      0x6041f9d8afd08f868c84c410d8277bc0413acc3357dd18459b9a726dcbbca5a4\n        /* \"contracts/Updated_1/TransactionContract_2.sol\":2994:3004  propertyId */\n      sload(0x05)\n        /* \"contracts/Updated_1/TransactionContract_2.sol\":2976:3005  DocumentsVerified(propertyId) */\n      mload(0x40)\n      tag_227\n      swap2\n      swap1\n      tag_42\n      jump\t// in\n    tag_227:\n      mload(0x40)\n      dup1\n      swap2\n      sub\n      swap1\n      log1\n        /* \"contracts/Updated_1/TransactionContract_2.sol\":1343:1344  _ */\n      pop\n        /* \"contracts/Updated_1/TransactionContract_2.sol\":2806:3013  function verifyDocuments() external onlySeller inStatus(Status.InEscrow) {... */\n      jump\t// out\n        /* \"contracts/Updated_1/TransactionContract_2.sol\":540:565  bool public fundsInEscrow */\n    tag_87:\n      0x06\n      0x01\n      swap1\n      sload\n      swap1\n      0x0100\n      exp\n      swap1\n      div\n      0xff\n      and\n      dup2\n      jump\t// out\n        /* \"contracts/Updated_1/TransactionContract_2.sol\":4661:5017  function getTransactionDetails() external view returns (... */\n    tag_91:\n        /* \"contracts/Updated_1/TransactionContract_2.sol\":4727:4734  address */\n      0x00\n        /* \"contracts/Updated_1/TransactionContract_2.sol\":4736:4743  address */\n      dup1\n        /* \"contracts/Updated_1/TransactionContract_2.sol\":4745:4749  uint */\n      0x00\n        /* \"contracts/Updated_1/TransactionContract_2.sol\":4751:4755  uint */\n      dup1\n        /* \"contracts/Updated_1/TransactionContract_2.sol\":4757:4761  uint */\n      0x00\n        /* \"contracts/Updated_1/TransactionContract_2.sol\":4763:4769  Status */\n      dup1\n        /* \"contracts/Updated_1/TransactionContract_2.sol\":4771:4775  bool */\n      0x00\n        /* \"contracts/Updated_1/TransactionContract_2.sol\":4777:4781  bool */\n      dup1\n        /* \"contracts/Updated_1/TransactionContract_2.sol\":4822:4827  buyer */\n      0x00\n      0x01\n      swap1\n      sload\n      swap1\n      0x0100\n      exp\n      swap1\n      div\n      0xffffffffffffffffffffffffffffffffffffffff\n      and\n        /* \"contracts/Updated_1/TransactionContract_2.sol\":4842:4848  seller */\n      0x01\n      0x00\n      swap1\n      sload\n      swap1\n      0x0100\n      exp\n      swap1\n      div\n      0xffffffffffffffffffffffffffffffffffffffff\n      and\n        /* \"contracts/Updated_1/TransactionContract_2.sol\":4863:4873  propertyId */\n      sload(0x05)\n        /* \"contracts/Updated_1/TransactionContract_2.sol\":4888:4893  value */\n      sload(0x03)\n        /* \"contracts/Updated_1/TransactionContract_2.sol\":4908:4917  escrowFee */\n      sload(0x04)\n        /* \"contracts/Updated_1/TransactionContract_2.sol\":4932:4938  status */\n      0x00\n      dup1\n      sload\n      swap1\n      0x0100\n      exp\n      swap1\n      div\n      0xff\n      and\n        /* \"contracts/Updated_1/TransactionContract_2.sol\":4953:4966  fundsInEscrow */\n      0x06\n      0x01\n      swap1\n      sload\n      swap1\n      0x0100\n      exp\n      swap1\n      div\n      0xff\n      and\n        /* \"contracts/Updated_1/TransactionContract_2.sol\":4981:4998  documentsVerified */\n      0x06\n      0x00\n      swap1\n      sload\n      swap1\n      0x0100\n      exp\n      swap1\n      div\n      0xff\n      and\n        /* \"contracts/Updated_1/TransactionContract_2.sol\":4800:5009  return (... */\n      swap8\n      pop\n      swap8\n      pop\n      swap8\n      pop\n      swap8\n      pop\n      swap8\n      pop\n      swap8\n      pop\n      swap8\n      pop\n      swap8\n      pop\n        /* \"contracts/Updated_1/TransactionContract_2.sol\":4661:5017  function getTransactionDetails() external view returns (... */\n      swap1\n      swap2\n      swap3\n      swap4\n      swap5\n      swap6\n      swap7\n      swap8\n      jump\t// out\n        /* \"contracts/Updated_1/TransactionContract_2.sol\":475:497  uint public propertyId */\n    tag_96:\n      sload(0x05)\n      dup2\n      jump\t// out\n        /* \"#utility.yul\":7:133   */\n    tag_229:\n        /* \"#utility.yul\":44:51   */\n      0x00\n        /* \"#utility.yul\":84:126   */\n      0xffffffffffffffffffffffffffffffffffffffff\n        /* \"#utility.yul\":77:82   */\n      dup3\n        /* \"#utility.yul\":73:127   */\n      and\n        /* \"#utility.yul\":62:127   */\n      swap1\n      pop\n        /* \"#utility.yul\":7:133   */\n      swap2\n      swap1\n      pop\n      jump\t// out\n        /* \"#utility.yul\":139:243   */\n    tag_230:\n        /* \"#utility.yul\":184:191   */\n      0x00\n        /* \"#utility.yul\":213:237   */\n      tag_297\n        /* \"#utility.yul\":231:236   */\n      dup3\n        /* \"#utility.yul\":213:237   */\n      tag_229\n      jump\t// in\n    tag_297:\n        /* \"#utility.yul\":202:237   */\n      swap1\n      pop\n        /* \"#utility.yul\":139:243   */\n      swap2\n      swap1\n      pop\n      jump\t// out\n        /* \"#utility.yul\":249:391   */\n    tag_231:\n        /* \"#utility.yul\":352:384   */\n      tag_299\n        /* \"#utility.yul\":378:383   */\n      dup2\n        /* \"#utility.yul\":352:384   */\n      tag_230\n      jump\t// in\n    tag_299:\n        /* \"#utility.yul\":347:350   */\n      dup3\n        /* \"#utility.yul\":340:385   */\n      mstore\n        /* \"#utility.yul\":249:391   */\n      pop\n      pop\n      jump\t// out\n        /* \"#utility.yul\":397:651   */\n    tag_27:\n        /* \"#utility.yul\":506:510   */\n      0x00\n        /* \"#utility.yul\":544:546   */\n      0x20\n        /* \"#utility.yul\":533:542   */\n      dup3\n        /* \"#utility.yul\":529:547   */\n      add\n        /* \"#utility.yul\":521:547   */\n      swap1\n      pop\n        /* \"#utility.yul\":557:644   */\n      tag_301\n        /* \"#utility.yul\":641:642   */\n      0x00\n        /* \"#utility.yul\":630:639   */\n      dup4\n        /* \"#utility.yul\":626:643   */\n      add\n        /* \"#utility.yul\":617:623   */\n      dup5\n        /* \"#utility.yul\":557:644   */\n      tag_231\n      jump\t// in\n    tag_301:\n        /* \"#utility.yul\":397:651   */\n      swap3\n      swap2\n      pop\n      pop\n      jump\t// out\n        /* \"#utility.yul\":657:837   */\n    tag_105:\n        /* \"#utility.yul\":705:782   */\n      0x4e487b7100000000000000000000000000000000000000000000000000000000\n        /* \"#utility.yul\":702:703   */\n      0x00\n        /* \"#utility.yul\":695:783   */\n      mstore\n        /* \"#utility.yul\":802:806   */\n      0x21\n        /* \"#utility.yul\":799:800   */\n      0x04\n        /* \"#utility.yul\":792:807   */\n      mstore\n        /* \"#utility.yul\":826:830   */\n      0x24\n        /* \"#utility.yul\":823:824   */\n      0x00\n        /* \"#utility.yul\":816:831   */\n      revert\n        /* \"#utility.yul\":843:956   */\n    tag_232:\n        /* \"#utility.yul\":924:925   */\n      0x06\n        /* \"#utility.yul\":917:922   */\n      dup2\n        /* \"#utility.yul\":914:926   */\n      lt\n        /* \"#utility.yul\":904:950   */\n      tag_304\n      jumpi\n        /* \"#utility.yul\":930:948   */\n      tag_305\n      tag_105\n      jump\t// in\n    tag_305:\n        /* \"#utility.yul\":904:950   */\n    tag_304:\n        /* \"#utility.yul\":843:956   */\n      pop\n      jump\t// out\n        /* \"#utility.yul\":962:1089   */\n    tag_233:\n        /* \"#utility.yul\":1007:1014   */\n      0x00\n        /* \"#utility.yul\":1036:1041   */\n      dup2\n        /* \"#utility.yul\":1025:1041   */\n      swap1\n      pop\n        /* \"#utility.yul\":1042:1083   */\n      tag_307\n        /* \"#utility.yul\":1077:1082   */\n      dup3\n        /* \"#utility.yul\":1042:1083   */\n      tag_232\n      jump\t// in\n    tag_307:\n        /* \"#utility.yul\":962:1089   */\n      swap2\n      swap1\n      pop\n      jump\t// out\n        /* \"#utility.yul\":1095:1222   */\n    tag_234:\n        /* \"#utility.yul\":1151:1160   */\n      0x00\n        /* \"#utility.yul\":1184:1216   */\n      tag_309\n        /* \"#utility.yul\":1210:1215   */\n      dup3\n        /* \"#utility.yul\":1184:1216   */\n      tag_233\n      jump\t// in\n    tag_309:\n        /* \"#utility.yul\":1171:1216   */\n      swap1\n      pop\n        /* \"#utility.yul\":1095:1222   */\n      swap2\n      swap1\n      pop\n      jump\t// out\n        /* \"#utility.yul\":1228:1371   */\n    tag_235:\n        /* \"#utility.yul\":1321:1364   */\n      tag_311\n        /* \"#utility.yul\":1358:1363   */\n      dup2\n        /* \"#utility.yul\":1321:1364   */\n      tag_234\n      jump\t// in\n    tag_311:\n        /* \"#utility.yul\":1316:1319   */\n      dup3\n        /* \"#utility.yul\":1309:1365   */\n      mstore\n        /* \"#utility.yul\":1228:1371   */\n      pop\n      pop\n      jump\t// out\n        /* \"#utility.yul\":1377:1611   */\n    tag_32:\n        /* \"#utility.yul\":1476:1480   */\n      0x00\n        /* \"#utility.yul\":1514:1516   */\n      0x20\n        /* \"#utility.yul\":1503:1512   */\n      dup3\n        /* \"#utility.yul\":1499:1517   */\n      add\n        /* \"#utility.yul\":1491:1517   */\n      swap1\n      pop\n        /* \"#utility.yul\":1527:1604   */\n      tag_313\n        /* \"#utility.yul\":1601:1602   */\n      0x00\n        /* \"#utility.yul\":1590:1599   */\n      dup4\n        /* \"#utility.yul\":1586:1603   */\n      add\n        /* \"#utility.yul\":1577:1583   */\n      dup5\n        /* \"#utility.yul\":1527:1604   */\n      tag_235\n      jump\t// in\n    tag_313:\n        /* \"#utility.yul\":1377:1611   */\n      swap3\n      swap2\n      pop\n      pop\n      jump\t// out\n        /* \"#utility.yul\":1617:1694   */\n    tag_236:\n        /* \"#utility.yul\":1654:1661   */\n      0x00\n        /* \"#utility.yul\":1683:1688   */\n      dup2\n        /* \"#utility.yul\":1672:1688   */\n      swap1\n      pop\n        /* \"#utility.yul\":1617:1694   */\n      swap2\n      swap1\n      pop\n      jump\t// out\n        /* \"#utility.yul\":1700:1818   */\n    tag_237:\n        /* \"#utility.yul\":1787:1811   */\n      tag_316\n        /* \"#utility.yul\":1805:1810   */\n      dup2\n        /* \"#utility.yul\":1787:1811   */\n      tag_236\n      jump\t// in\n    tag_316:\n        /* \"#utility.yul\":1782:1785   */\n      dup3\n        /* \"#utility.yul\":1775:1812   */\n      mstore\n        /* \"#utility.yul\":1700:1818   */\n      pop\n      pop\n      jump\t// out\n        /* \"#utility.yul\":1824:2046   */\n    tag_42:\n        /* \"#utility.yul\":1917:1921   */\n      0x00\n        /* \"#utility.yul\":1955:1957   */\n      0x20\n        /* \"#utility.yul\":1944:1953   */\n      dup3\n        /* \"#utility.yul\":1940:1958   */\n      add\n        /* \"#utility.yul\":1932:1958   */\n      swap1\n      pop\n        /* \"#utility.yul\":1968:2039   */\n      tag_318\n        /* \"#utility.yul\":2036:2037   */\n      0x00\n        /* \"#utility.yul\":2025:2034   */\n      dup4\n        /* \"#utility.yul\":2021:2038   */\n      add\n        /* \"#utility.yul\":2012:2018   */\n      dup5\n        /* \"#utility.yul\":1968:2039   */\n      tag_237\n      jump\t// in\n    tag_318:\n        /* \"#utility.yul\":1824:2046   */\n      swap3\n      swap2\n      pop\n      pop\n      jump\t// out\n        /* \"#utility.yul\":2052:2127   */\n    tag_238:\n        /* \"#utility.yul\":2085:2091   */\n      0x00\n        /* \"#utility.yul\":2118:2120   */\n      0x40\n        /* \"#utility.yul\":2112:2121   */\n      mload\n        /* \"#utility.yul\":2102:2121   */\n      swap1\n      pop\n        /* \"#utility.yul\":2052:2127   */\n      swap1\n      jump\t// out\n        /* \"#utility.yul\":2133:2250   */\n    tag_239:\n        /* \"#utility.yul\":2242:2243   */\n      0x00\n        /* \"#utility.yul\":2239:2240   */\n      dup1\n        /* \"#utility.yul\":2232:2244   */\n      revert\n        /* \"#utility.yul\":2256:2373   */\n    tag_240:\n        /* \"#utility.yul\":2365:2366   */\n      0x00\n        /* \"#utility.yul\":2362:2363   */\n      dup1\n        /* \"#utility.yul\":2355:2367   */\n      revert\n        /* \"#utility.yul\":2379:2501   */\n    tag_241:\n        /* \"#utility.yul\":2452:2476   */\n      tag_323\n        /* \"#utility.yul\":2470:2475   */\n      dup2\n        /* \"#utility.yul\":2452:2476   */\n      tag_236\n      jump\t// in\n    tag_323:\n        /* \"#utility.yul\":2445:2450   */\n      dup2\n        /* \"#utility.yul\":2442:2477   */\n      eq\n        /* \"#utility.yul\":2432:2495   */\n      tag_324\n      jumpi\n        /* \"#utility.yul\":2491:2492   */\n      0x00\n        /* \"#utility.yul\":2488:2489   */\n      dup1\n        /* \"#utility.yul\":2481:2493   */\n      revert\n        /* \"#utility.yul\":2432:2495   */\n    tag_324:\n        /* \"#utility.yul\":2379:2501   */\n      pop\n      jump\t// out\n        /* \"#utility.yul\":2507:2646   */\n    tag_242:\n        /* \"#utility.yul\":2553:2558   */\n      0x00\n        /* \"#utility.yul\":2591:2597   */\n      dup2\n        /* \"#utility.yul\":2578:2598   */\n      calldataload\n        /* \"#utility.yul\":2569:2598   */\n      swap1\n      pop\n        /* \"#utility.yul\":2607:2640   */\n      tag_326\n        /* \"#utility.yul\":2634:2639   */\n      dup2\n        /* \"#utility.yul\":2607:2640   */\n      tag_241\n      jump\t// in\n    tag_326:\n        /* \"#utility.yul\":2507:2646   */\n      swap3\n      swap2\n      pop\n      pop\n      jump\t// out\n        /* \"#utility.yul\":2652:2981   */\n    tag_46:\n        /* \"#utility.yul\":2711:2717   */\n      0x00\n        /* \"#utility.yul\":2760:2762   */\n      0x20\n        /* \"#utility.yul\":2748:2757   */\n      dup3\n        /* \"#utility.yul\":2739:2746   */\n      dup5\n        /* \"#utility.yul\":2735:2758   */\n      sub\n        /* \"#utility.yul\":2731:2763   */\n      slt\n        /* \"#utility.yul\":2728:2847   */\n      iszero\n      tag_328\n      jumpi\n        /* \"#utility.yul\":2766:2845   */\n      tag_329\n      tag_239\n      jump\t// in\n    tag_329:\n        /* \"#utility.yul\":2728:2847   */\n    tag_328:\n        /* \"#utility.yul\":2886:2887   */\n      0x00\n        /* \"#utility.yul\":2911:2964   */\n      tag_330\n        /* \"#utility.yul\":2956:2963   */\n      dup5\n        /* \"#utility.yul\":2947:2953   */\n      dup3\n        /* \"#utility.yul\":2936:2945   */\n      dup6\n        /* \"#utility.yul\":2932:2954   */\n      add\n        /* \"#utility.yul\":2911:2964   */\n      tag_242\n      jump\t// in\n    tag_330:\n        /* \"#utility.yul\":2901:2964   */\n      swap2\n      pop\n        /* \"#utility.yul\":2857:2974   */\n      pop\n        /* \"#utility.yul\":2652:2981   */\n      swap3\n      swap2\n      pop\n      pop\n      jump\t// out\n        /* \"#utility.yul\":2987:3077   */\n    tag_243:\n        /* \"#utility.yul\":3021:3028   */\n      0x00\n        /* \"#utility.yul\":3064:3069   */\n      dup2\n        /* \"#utility.yul\":3057:3070   */\n      iszero\n        /* \"#utility.yul\":3050:3071   */\n      iszero\n        /* \"#utility.yul\":3039:3071   */\n      swap1\n      pop\n        /* \"#utility.yul\":2987:3077   */\n      swap2\n      swap1\n      pop\n      jump\t// out\n        /* \"#utility.yul\":3083:3192   */\n    tag_244:\n        /* \"#utility.yul\":3164:3185   */\n      tag_333\n        /* \"#utility.yul\":3179:3184   */\n      dup2\n        /* \"#utility.yul\":3164:3185   */\n      tag_243\n      jump\t// in\n    tag_333:\n        /* \"#utility.yul\":3159:3162   */\n      dup3\n        /* \"#utility.yul\":3152:3186   */\n      mstore\n        /* \"#utility.yul\":3083:3192   */\n      pop\n      pop\n      jump\t// out\n        /* \"#utility.yul\":3198:3408   */\n    tag_49:\n        /* \"#utility.yul\":3285:3289   */\n      0x00\n        /* \"#utility.yul\":3323:3325   */\n      0x20\n        /* \"#utility.yul\":3312:3321   */\n      dup3\n        /* \"#utility.yul\":3308:3326   */\n      add\n        /* \"#utility.yul\":3300:3326   */\n      swap1\n      pop\n        /* \"#utility.yul\":3336:3401   */\n      tag_335\n        /* \"#utility.yul\":3398:3399   */\n      0x00\n        /* \"#utility.yul\":3387:3396   */\n      dup4\n        /* \"#utility.yul\":3383:3400   */\n      add\n        /* \"#utility.yul\":3374:3380   */\n      dup5\n        /* \"#utility.yul\":3336:3401   */\n      tag_244\n      jump\t// in\n    tag_335:\n        /* \"#utility.yul\":3198:3408   */\n      swap3\n      swap2\n      pop\n      pop\n      jump\t// out\n        /* \"#utility.yul\":3414:3552   */\n    tag_245:\n        /* \"#utility.yul\":3495:3527   */\n      tag_337\n        /* \"#utility.yul\":3521:3526   */\n      dup2\n        /* \"#utility.yul\":3495:3527   */\n      tag_230\n      jump\t// in\n    tag_337:\n        /* \"#utility.yul\":3488:3493   */\n      dup2\n        /* \"#utility.yul\":3485:3528   */\n      eq\n        /* \"#utility.yul\":3475:3546   */\n      tag_338\n      jumpi\n        /* \"#utility.yul\":3542:3543   */\n      0x00\n        /* \"#utility.yul\":3539:3540   */\n      dup1\n        /* \"#utility.yul\":3532:3544   */\n      revert\n        /* \"#utility.yul\":3475:3546   */\n    tag_338:\n        /* \"#utility.yul\":3414:3552   */\n      pop\n      jump\t// out\n        /* \"#utility.yul\":3558:3713   */\n    tag_246:\n        /* \"#utility.yul\":3612:3617   */\n      0x00\n        /* \"#utility.yul\":3650:3656   */\n      dup2\n        /* \"#utility.yul\":3637:3657   */\n      calldataload\n        /* \"#utility.yul\":3628:3657   */\n      swap1\n      pop\n        /* \"#utility.yul\":3666:3707   */\n      tag_340\n        /* \"#utility.yul\":3701:3706   */\n      dup2\n        /* \"#utility.yul\":3666:3707   */\n      tag_245\n      jump\t// in\n    tag_340:\n        /* \"#utility.yul\":3558:3713   */\n      swap3\n      swap2\n      pop\n      pop\n      jump\t// out\n        /* \"#utility.yul\":3719:4354   */\n    tag_52:\n        /* \"#utility.yul\":3804:3810   */\n      0x00\n        /* \"#utility.yul\":3812:3818   */\n      dup1\n        /* \"#utility.yul\":3820:3826   */\n      0x00\n        /* \"#utility.yul\":3869:3871   */\n      0x60\n        /* \"#utility.yul\":3857:3866   */\n      dup5\n        /* \"#utility.yul\":3848:3855   */\n      dup7\n        /* \"#utility.yul\":3844:3867   */\n      sub\n        /* \"#utility.yul\":3840:3872   */\n      slt\n        /* \"#utility.yul\":3837:3956   */\n      iszero\n      tag_342\n      jumpi\n        /* \"#utility.yul\":3875:3954   */\n      tag_343\n      tag_239\n      jump\t// in\n    tag_343:\n        /* \"#utility.yul\":3837:3956   */\n    tag_342:\n        /* \"#utility.yul\":3995:3996   */\n      0x00\n        /* \"#utility.yul\":4020:4073   */\n      tag_344\n        /* \"#utility.yul\":4065:4072   */\n      dup7\n        /* \"#utility.yul\":4056:4062   */\n      dup3\n        /* \"#utility.yul\":4045:4054   */\n      dup8\n        /* \"#utility.yul\":4041:4063   */\n      add\n        /* \"#utility.yul\":4020:4073   */\n      tag_242\n      jump\t// in\n    tag_344:\n        /* \"#utility.yul\":4010:4073   */\n      swap4\n      pop\n        /* \"#utility.yul\":3966:4083   */\n      pop\n        /* \"#utility.yul\":4122:4124   */\n      0x20\n        /* \"#utility.yul\":4148:4209   */\n      tag_345\n        /* \"#utility.yul\":4201:4208   */\n      dup7\n        /* \"#utility.yul\":4192:4198   */\n      dup3\n        /* \"#utility.yul\":4181:4190   */\n      dup8\n        /* \"#utility.yul\":4177:4199   */\n      add\n        /* \"#utility.yul\":4148:4209   */\n      tag_246\n      jump\t// in\n    tag_345:\n        /* \"#utility.yul\":4138:4209   */\n      swap3\n      pop\n        /* \"#utility.yul\":4093:4219   */\n      pop\n        /* \"#utility.yul\":4258:4260   */\n      0x40\n        /* \"#utility.yul\":4284:4337   */\n      tag_346\n        /* \"#utility.yul\":4329:4336   */\n      dup7\n        /* \"#utility.yul\":4320:4326   */\n      dup3\n        /* \"#utility.yul\":4309:4318   */\n      dup8\n        /* \"#utility.yul\":4305:4327   */\n      add\n        /* \"#utility.yul\":4284:4337   */\n      tag_242\n      jump\t// in\n    tag_346:\n        /* \"#utility.yul\":4274:4337   */\n      swap2\n      pop\n        /* \"#utility.yul\":4229:4347   */\n      pop\n        /* \"#utility.yul\":3719:4354   */\n      swap3\n      pop\n      swap3\n      pop\n      swap3\n      jump\t// out\n        /* \"#utility.yul\":4360:4456   */\n    tag_247:\n        /* \"#utility.yul\":4397:4404   */\n      0x00\n        /* \"#utility.yul\":4426:4450   */\n      tag_348\n        /* \"#utility.yul\":4444:4449   */\n      dup3\n        /* \"#utility.yul\":4426:4450   */\n      tag_229\n      jump\t// in\n    tag_348:\n        /* \"#utility.yul\":4415:4450   */\n      swap1\n      pop\n        /* \"#utility.yul\":4360:4456   */\n      swap2\n      swap1\n      pop\n      jump\t// out\n        /* \"#utility.yul\":4462:4580   */\n    tag_248:\n        /* \"#utility.yul\":4549:4573   */\n      tag_350\n        /* \"#utility.yul\":4567:4572   */\n      dup2\n        /* \"#utility.yul\":4549:4573   */\n      tag_247\n      jump\t// in\n    tag_350:\n        /* \"#utility.yul\":4544:4547   */\n      dup3\n        /* \"#utility.yul\":4537:4574   */\n      mstore\n        /* \"#utility.yul\":4462:4580   */\n      pop\n      pop\n      jump\t// out\n        /* \"#utility.yul\":4586:4808   */\n    tag_65:\n        /* \"#utility.yul\":4679:4683   */\n      0x00\n        /* \"#utility.yul\":4717:4719   */\n      0x20\n        /* \"#utility.yul\":4706:4715   */\n      dup3\n        /* \"#utility.yul\":4702:4720   */\n      add\n        /* \"#utility.yul\":4694:4720   */\n      swap1\n      pop\n        /* \"#utility.yul\":4730:4801   */\n      tag_352\n        /* \"#utility.yul\":4798:4799   */\n      0x00\n        /* \"#utility.yul\":4787:4796   */\n      dup4\n        /* \"#utility.yul\":4783:4800   */\n      add\n        /* \"#utility.yul\":4774:4780   */\n      dup5\n        /* \"#utility.yul\":4730:4801   */\n      tag_248\n      jump\t// in\n    tag_352:\n        /* \"#utility.yul\":4586:4808   */\n      swap3\n      swap2\n      pop\n      pop\n      jump\t// out\n        /* \"#utility.yul\":4814:4931   */\n    tag_249:\n        /* \"#utility.yul\":4923:4924   */\n      0x00\n        /* \"#utility.yul\":4920:4921   */\n      dup1\n        /* \"#utility.yul\":4913:4925   */\n      revert\n        /* \"#utility.yul\":4937:5054   */\n    tag_250:\n        /* \"#utility.yul\":5046:5047   */\n      0x00\n        /* \"#utility.yul\":5043:5044   */\n      dup1\n        /* \"#utility.yul\":5036:5048   */\n      revert\n        /* \"#utility.yul\":5060:5162   */\n    tag_251:\n        /* \"#utility.yul\":5101:5107   */\n      0x00\n        /* \"#utility.yul\":5152:5154   */\n      0x1f\n        /* \"#utility.yul\":5148:5155   */\n      not\n        /* \"#utility.yul\":5143:5145   */\n      0x1f\n        /* \"#utility.yul\":5136:5141   */\n      dup4\n        /* \"#utility.yul\":5132:5146   */\n      add\n        /* \"#utility.yul\":5128:5156   */\n      and\n        /* \"#utility.yul\":5118:5156   */\n      swap1\n      pop\n        /* \"#utility.yul\":5060:5162   */\n      swap2\n      swap1\n      pop\n      jump\t// out\n        /* \"#utility.yul\":5168:5348   */\n    tag_252:\n        /* \"#utility.yul\":5216:5293   */\n      0x4e487b7100000000000000000000000000000000000000000000000000000000\n        /* \"#utility.yul\":5213:5214   */\n      0x00\n        /* \"#utility.yul\":5206:5294   */\n      mstore\n        /* \"#utility.yul\":5313:5317   */\n      0x41\n        /* \"#utility.yul\":5310:5311   */\n      0x04\n        /* \"#utility.yul\":5303:5318   */\n      mstore\n        /* \"#utility.yul\":5337:5341   */\n      0x24\n        /* \"#utility.yul\":5334:5335   */\n      0x00\n        /* \"#utility.yul\":5327:5342   */\n      revert\n        /* \"#utility.yul\":5354:5635   */\n    tag_253:\n        /* \"#utility.yul\":5437:5464   */\n      tag_358\n        /* \"#utility.yul\":5459:5463   */\n      dup3\n        /* \"#utility.yul\":5437:5464   */\n      tag_251\n      jump\t// in\n    tag_358:\n        /* \"#utility.yul\":5429:5435   */\n      dup2\n        /* \"#utility.yul\":5425:5465   */\n      add\n        /* \"#utility.yul\":5567:5573   */\n      dup2\n        /* \"#utility.yul\":5555:5565   */\n      dup2\n        /* \"#utility.yul\":5552:5574   */\n      lt\n        /* \"#utility.yul\":5531:5549   */\n      0xffffffffffffffff\n        /* \"#utility.yul\":5519:5529   */\n      dup3\n        /* \"#utility.yul\":5516:5550   */\n      gt\n        /* \"#utility.yul\":5513:5575   */\n      or\n        /* \"#utility.yul\":5510:5598   */\n      iszero\n      tag_359\n      jumpi\n        /* \"#utility.yul\":5578:5596   */\n      tag_360\n      tag_252\n      jump\t// in\n    tag_360:\n        /* \"#utility.yul\":5510:5598   */\n    tag_359:\n        /* \"#utility.yul\":5618:5628   */\n      dup1\n        /* \"#utility.yul\":5614:5616   */\n      0x40\n        /* \"#utility.yul\":5607:5629   */\n      mstore\n        /* \"#utility.yul\":5397:5635   */\n      pop\n        /* \"#utility.yul\":5354:5635   */\n      pop\n      pop\n      jump\t// out\n        /* \"#utility.yul\":5641:5770   */\n    tag_254:\n        /* \"#utility.yul\":5675:5681   */\n      0x00\n        /* \"#utility.yul\":5702:5722   */\n      tag_362\n      tag_238\n      jump\t// in\n    tag_362:\n        /* \"#utility.yul\":5692:5722   */\n      swap1\n      pop\n        /* \"#utility.yul\":5731:5764   */\n      tag_363\n        /* \"#utility.yul\":5759:5763   */\n      dup3\n        /* \"#utility.yul\":5751:5757   */\n      dup3\n        /* \"#utility.yul\":5731:5764   */\n      tag_253\n      jump\t// in\n    tag_363:\n        /* \"#utility.yul\":5641:5770   */\n      swap2\n      swap1\n      pop\n      jump\t// out\n        /* \"#utility.yul\":5776:6084   */\n    tag_255:\n        /* \"#utility.yul\":5838:5842   */\n      0x00\n        /* \"#utility.yul\":5928:5946   */\n      0xffffffffffffffff\n        /* \"#utility.yul\":5920:5926   */\n      dup3\n        /* \"#utility.yul\":5917:5947   */\n      gt\n        /* \"#utility.yul\":5914:5970   */\n      iszero\n      tag_365\n      jumpi\n        /* \"#utility.yul\":5950:5968   */\n      tag_366\n      tag_252\n      jump\t// in\n    tag_366:\n        /* \"#utility.yul\":5914:5970   */\n    tag_365:\n        /* \"#utility.yul\":5988:6017   */\n      tag_367\n        /* \"#utility.yul\":6010:6016   */\n      dup3\n        /* \"#utility.yul\":5988:6017   */\n      tag_251\n      jump\t// in\n    tag_367:\n        /* \"#utility.yul\":5980:6017   */\n      swap1\n      pop\n        /* \"#utility.yul\":6072:6076   */\n      0x20\n        /* \"#utility.yul\":6066:6070   */\n      dup2\n        /* \"#utility.yul\":6062:6077   */\n      add\n        /* \"#utility.yul\":6054:6077   */\n      swap1\n      pop\n        /* \"#utility.yul\":5776:6084   */\n      swap2\n      swap1\n      pop\n      jump\t// out\n        /* \"#utility.yul\":6090:6238   */\n    tag_256:\n        /* \"#utility.yul\":6188:6194   */\n      dup3\n        /* \"#utility.yul\":6183:6186   */\n      dup2\n        /* \"#utility.yul\":6178:6181   */\n      dup4\n        /* \"#utility.yul\":6165:6195   */\n      calldatacopy\n        /* \"#utility.yul\":6229:6230   */\n      0x00\n        /* \"#utility.yul\":6220:6226   */\n      dup4\n        /* \"#utility.yul\":6215:6218   */\n      dup4\n        /* \"#utility.yul\":6211:6227   */\n      add\n        /* \"#utility.yul\":6204:6231   */\n      mstore\n        /* \"#utility.yul\":6090:6238   */\n      pop\n      pop\n      pop\n      jump\t// out\n        /* \"#utility.yul\":6244:6669   */\n    tag_257:\n        /* \"#utility.yul\":6322:6327   */\n      0x00\n        /* \"#utility.yul\":6347:6413   */\n      tag_370\n        /* \"#utility.yul\":6363:6412   */\n      tag_371\n        /* \"#utility.yul\":6405:6411   */\n      dup5\n        /* \"#utility.yul\":6363:6412   */\n      tag_255\n      jump\t// in\n    tag_371:\n        /* \"#utility.yul\":6347:6413   */\n      tag_254\n      jump\t// in\n    tag_370:\n        /* \"#utility.yul\":6338:6413   */\n      swap1\n      pop\n        /* \"#utility.yul\":6436:6442   */\n      dup3\n        /* \"#utility.yul\":6429:6434   */\n      dup2\n        /* \"#utility.yul\":6422:6443   */\n      mstore\n        /* \"#utility.yul\":6474:6478   */\n      0x20\n        /* \"#utility.yul\":6467:6472   */\n      dup2\n        /* \"#utility.yul\":6463:6479   */\n      add\n        /* \"#utility.yul\":6512:6515   */\n      dup5\n        /* \"#utility.yul\":6503:6509   */\n      dup5\n        /* \"#utility.yul\":6498:6501   */\n      dup5\n        /* \"#utility.yul\":6494:6510   */\n      add\n        /* \"#utility.yul\":6491:6516   */\n      gt\n        /* \"#utility.yul\":6488:6600   */\n      iszero\n      tag_372\n      jumpi\n        /* \"#utility.yul\":6519:6598   */\n      tag_373\n      tag_250\n      jump\t// in\n    tag_373:\n        /* \"#utility.yul\":6488:6600   */\n    tag_372:\n        /* \"#utility.yul\":6609:6663   */\n      tag_374\n        /* \"#utility.yul\":6656:6662   */\n      dup5\n        /* \"#utility.yul\":6651:6654   */\n      dup3\n        /* \"#utility.yul\":6646:6649   */\n      dup6\n        /* \"#utility.yul\":6609:6663   */\n      tag_256\n      jump\t// in\n    tag_374:\n        /* \"#utility.yul\":6328:6669   */\n      pop\n        /* \"#utility.yul\":6244:6669   */\n      swap4\n      swap3\n      pop\n      pop\n      pop\n      jump\t// out\n        /* \"#utility.yul\":6689:7029   */\n    tag_258:\n        /* \"#utility.yul\":6745:6750   */\n      0x00\n        /* \"#utility.yul\":6794:6797   */\n      dup3\n        /* \"#utility.yul\":6787:6791   */\n      0x1f\n        /* \"#utility.yul\":6779:6785   */\n      dup4\n        /* \"#utility.yul\":6775:6792   */\n      add\n        /* \"#utility.yul\":6771:6798   */\n      slt\n        /* \"#utility.yul\":6761:6883   */\n      tag_376\n      jumpi\n        /* \"#utility.yul\":6802:6881   */\n      tag_377\n      tag_249\n      jump\t// in\n    tag_377:\n        /* \"#utility.yul\":6761:6883   */\n    tag_376:\n        /* \"#utility.yul\":6919:6925   */\n      dup2\n        /* \"#utility.yul\":6906:6926   */\n      calldataload\n        /* \"#utility.yul\":6944:7023   */\n      tag_378\n        /* \"#utility.yul\":7019:7022   */\n      dup5\n        /* \"#utility.yul\":7011:7017   */\n      dup3\n        /* \"#utility.yul\":7004:7008   */\n      0x20\n        /* \"#utility.yul\":6996:7002   */\n      dup7\n        /* \"#utility.yul\":6992:7009   */\n      add\n        /* \"#utility.yul\":6944:7023   */\n      tag_257\n      jump\t// in\n    tag_378:\n        /* \"#utility.yul\":6935:7023   */\n      swap2\n      pop\n        /* \"#utility.yul\":6751:7029   */\n      pop\n        /* \"#utility.yul\":6689:7029   */\n      swap3\n      swap2\n      pop\n      pop\n      jump\t// out\n        /* \"#utility.yul\":7035:7544   */\n    tag_80:\n        /* \"#utility.yul\":7104:7110   */\n      0x00\n        /* \"#utility.yul\":7153:7155   */\n      0x20\n        /* \"#utility.yul\":7141:7150   */\n      dup3\n        /* \"#utility.yul\":7132:7139   */\n      dup5\n        /* \"#utility.yul\":7128:7151   */\n      sub\n        /* \"#utility.yul\":7124:7156   */\n      slt\n        /* \"#utility.yul\":7121:7240   */\n      iszero\n      tag_380\n      jumpi\n        /* \"#utility.yul\":7159:7238   */\n      tag_381\n      tag_239\n      jump\t// in\n    tag_381:\n        /* \"#utility.yul\":7121:7240   */\n    tag_380:\n        /* \"#utility.yul\":7307:7308   */\n      0x00\n        /* \"#utility.yul\":7296:7305   */\n      dup3\n        /* \"#utility.yul\":7292:7309   */\n      add\n        /* \"#utility.yul\":7279:7310   */\n      calldataload\n        /* \"#utility.yul\":7337:7355   */\n      0xffffffffffffffff\n        /* \"#utility.yul\":7329:7335   */\n      dup2\n        /* \"#utility.yul\":7326:7356   */\n      gt\n        /* \"#utility.yul\":7323:7440   */\n      iszero\n      tag_382\n      jumpi\n        /* \"#utility.yul\":7359:7438   */\n      tag_383\n      tag_240\n      jump\t// in\n    tag_383:\n        /* \"#utility.yul\":7323:7440   */\n    tag_382:\n        /* \"#utility.yul\":7464:7527   */\n      tag_384\n        /* \"#utility.yul\":7519:7526   */\n      dup5\n        /* \"#utility.yul\":7510:7516   */\n      dup3\n        /* \"#utility.yul\":7499:7508   */\n      dup6\n        /* \"#utility.yul\":7495:7517   */\n      add\n        /* \"#utility.yul\":7464:7527   */\n      tag_258\n      jump\t// in\n    tag_384:\n        /* \"#utility.yul\":7454:7527   */\n      swap2\n      pop\n        /* \"#utility.yul\":7250:7537   */\n      pop\n        /* \"#utility.yul\":7035:7544   */\n      swap3\n      swap2\n      pop\n      pop\n      jump\t// out\n        /* \"#utility.yul\":7550:8535   */\n    tag_93:\n        /* \"#utility.yul\":7833:7837   */\n      0x00\n        /* \"#utility.yul\":7871:7874   */\n      0x0100\n        /* \"#utility.yul\":7860:7869   */\n      dup3\n        /* \"#utility.yul\":7856:7875   */\n      add\n        /* \"#utility.yul\":7848:7875   */\n      swap1\n      pop\n        /* \"#utility.yul\":7885:7956   */\n      tag_386\n        /* \"#utility.yul\":7953:7954   */\n      0x00\n        /* \"#utility.yul\":7942:7951   */\n      dup4\n        /* \"#utility.yul\":7938:7955   */\n      add\n        /* \"#utility.yul\":7929:7935   */\n      dup12\n        /* \"#utility.yul\":7885:7956   */\n      tag_248\n      jump\t// in\n    tag_386:\n        /* \"#utility.yul\":7966:8038   */\n      tag_387\n        /* \"#utility.yul\":8034:8036   */\n      0x20\n        /* \"#utility.yul\":8023:8032   */\n      dup4\n        /* \"#utility.yul\":8019:8037   */\n      add\n        /* \"#utility.yul\":8010:8016   */\n      dup11\n        /* \"#utility.yul\":7966:8038   */\n      tag_248\n      jump\t// in\n    tag_387:\n        /* \"#utility.yul\":8048:8120   */\n      tag_388\n        /* \"#utility.yul\":8116:8118   */\n      0x40\n        /* \"#utility.yul\":8105:8114   */\n      dup4\n        /* \"#utility.yul\":8101:8119   */\n      add\n        /* \"#utility.yul\":8092:8098   */\n      dup10\n        /* \"#utility.yul\":8048:8120   */\n      tag_237\n      jump\t// in\n    tag_388:\n        /* \"#utility.yul\":8130:8202   */\n      tag_389\n        /* \"#utility.yul\":8198:8200   */\n      0x60\n        /* \"#utility.yul\":8187:8196   */\n      dup4\n        /* \"#utility.yul\":8183:8201   */\n      add\n        /* \"#utility.yul\":8174:8180   */\n      dup9\n        /* \"#utility.yul\":8130:8202   */\n      tag_237\n      jump\t// in\n    tag_389:\n        /* \"#utility.yul\":8212:8285   */\n      tag_390\n        /* \"#utility.yul\":8280:8283   */\n      0x80\n        /* \"#utility.yul\":8269:8278   */\n      dup4\n        /* \"#utility.yul\":8265:8284   */\n      add\n        /* \"#utility.yul\":8256:8262   */\n      dup8\n        /* \"#utility.yul\":8212:8285   */\n      tag_237\n      jump\t// in\n    tag_390:\n        /* \"#utility.yul\":8295:8374   */\n      tag_391\n        /* \"#utility.yul\":8369:8372   */\n      0xa0\n        /* \"#utility.yul\":8358:8367   */\n      dup4\n        /* \"#utility.yul\":8354:8373   */\n      add\n        /* \"#utility.yul\":8345:8351   */\n      dup7\n        /* \"#utility.yul\":8295:8374   */\n      tag_235\n      jump\t// in\n    tag_391:\n        /* \"#utility.yul\":8384:8451   */\n      tag_392\n        /* \"#utility.yul\":8446:8449   */\n      0xc0\n        /* \"#utility.yul\":8435:8444   */\n      dup4\n        /* \"#utility.yul\":8431:8450   */\n      add\n        /* \"#utility.yul\":8422:8428   */\n      dup6\n        /* \"#utility.yul\":8384:8451   */\n      tag_244\n      jump\t// in\n    tag_392:\n        /* \"#utility.yul\":8461:8528   */\n      tag_393\n        /* \"#utility.yul\":8523:8526   */\n      0xe0\n        /* \"#utility.yul\":8512:8521   */\n      dup4\n        /* \"#utility.yul\":8508:8527   */\n      add\n        /* \"#utility.yul\":8499:8505   */\n      dup5\n        /* \"#utility.yul\":8461:8528   */\n      tag_244\n      jump\t// in\n    tag_393:\n        /* \"#utility.yul\":7550:8535   */\n      swap10\n      swap9\n      pop\n      pop\n      pop\n      pop\n      pop\n      pop\n      pop\n      pop\n      pop\n      jump\t// out\n        /* \"#utility.yul\":8541:8710   */\n    tag_259:\n        /* \"#utility.yul\":8625:8636   */\n      0x00\n        /* \"#utility.yul\":8659:8665   */\n      dup3\n        /* \"#utility.yul\":8654:8657   */\n      dup3\n        /* \"#utility.yul\":8647:8666   */\n      mstore\n        /* \"#utility.yul\":8699:8703   */\n      0x20\n        /* \"#utility.yul\":8694:8697   */\n      dup3\n        /* \"#utility.yul\":8690:8704   */\n      add\n        /* \"#utility.yul\":8675:8704   */\n      swap1\n      pop\n        /* \"#utility.yul\":8541:8710   */\n      swap3\n      swap2\n      pop\n      pop\n      jump\t// out\n        /* \"#utility.yul\":8716:8937   */\n    tag_260:\n        /* \"#utility.yul\":8856:8890   */\n      0x4f6e6c792062757965722063616e2063616c6c20746869732066756e6374696f\n        /* \"#utility.yul\":8852:8853   */\n      0x00\n        /* \"#utility.yul\":8844:8850   */\n      dup3\n        /* \"#utility.yul\":8840:8854   */\n      add\n        /* \"#utility.yul\":8833:8891   */\n      mstore\n        /* \"#utility.yul\":8925:8929   */\n      0x6e2e000000000000000000000000000000000000000000000000000000000000\n        /* \"#utility.yul\":8920:8922   */\n      0x20\n        /* \"#utility.yul\":8912:8918   */\n      dup3\n        /* \"#utility.yul\":8908:8923   */\n      add\n        /* \"#utility.yul\":8901:8930   */\n      mstore\n        /* \"#utility.yul\":8716:8937   */\n      pop\n      jump\t// out\n        /* \"#utility.yul\":8943:9309   */\n    tag_261:\n        /* \"#utility.yul\":9085:9088   */\n      0x00\n        /* \"#utility.yul\":9106:9173   */\n      tag_397\n        /* \"#utility.yul\":9170:9172   */\n      0x22\n        /* \"#utility.yul\":9165:9168   */\n      dup4\n        /* \"#utility.yul\":9106:9173   */\n      tag_259\n      jump\t// in\n    tag_397:\n        /* \"#utility.yul\":9099:9173   */\n      swap2\n      pop\n        /* \"#utility.yul\":9182:9275   */\n      tag_398\n        /* \"#utility.yul\":9271:9274   */\n      dup3\n        /* \"#utility.yul\":9182:9275   */\n      tag_260\n      jump\t// in\n    tag_398:\n        /* \"#utility.yul\":9300:9302   */\n      0x40\n        /* \"#utility.yul\":9295:9298   */\n      dup3\n        /* \"#utility.yul\":9291:9303   */\n      add\n        /* \"#utility.yul\":9284:9303   */\n      swap1\n      pop\n        /* \"#utility.yul\":8943:9309   */\n      swap2\n      swap1\n      pop\n      jump\t// out\n        /* \"#utility.yul\":9315:9734   */\n    tag_101:\n        /* \"#utility.yul\":9481:9485   */\n      0x00\n        /* \"#utility.yul\":9519:9521   */\n      0x20\n        /* \"#utility.yul\":9508:9517   */\n      dup3\n        /* \"#utility.yul\":9504:9522   */\n      add\n        /* \"#utility.yul\":9496:9522   */\n      swap1\n      pop\n        /* \"#utility.yul\":9568:9577   */\n      dup2\n        /* \"#utility.yul\":9562:9566   */\n      dup2\n        /* \"#utility.yul\":9558:9578   */\n      sub\n        /* \"#utility.yul\":9554:9555   */\n      0x00\n        /* \"#utility.yul\":9543:9552   */\n      dup4\n        /* \"#utility.yul\":9539:9556   */\n      add\n        /* \"#utility.yul\":9532:9579   */\n      mstore\n        /* \"#utility.yul\":9596:9727   */\n      tag_400\n        /* \"#utility.yul\":9722:9726   */\n      dup2\n        /* \"#utility.yul\":9596:9727   */\n      tag_261\n      jump\t// in\n    tag_400:\n        /* \"#utility.yul\":9588:9727   */\n      swap1\n      pop\n        /* \"#utility.yul\":9315:9734   */\n      swap2\n      swap1\n      pop\n      jump\t// out\n        /* \"#utility.yul\":9740:9917   */\n    tag_262:\n        /* \"#utility.yul\":9880:9909   */\n      0x496e76616c6964207472616e73616374696f6e207374617475732e0000000000\n        /* \"#utility.yul\":9876:9877   */\n      0x00\n        /* \"#utility.yul\":9868:9874   */\n      dup3\n        /* \"#utility.yul\":9864:9878   */\n      add\n        /* \"#utility.yul\":9857:9910   */\n      mstore\n        /* \"#utility.yul\":9740:9917   */\n      pop\n      jump\t// out\n        /* \"#utility.yul\":9923:10289   */\n    tag_263:\n        /* \"#utility.yul\":10065:10068   */\n      0x00\n        /* \"#utility.yul\":10086:10153   */\n      tag_403\n        /* \"#utility.yul\":10150:10152   */\n      0x1b\n        /* \"#utility.yul\":10145:10148   */\n      dup4\n        /* \"#utility.yul\":10086:10153   */\n      tag_259\n      jump\t// in\n    tag_403:\n        /* \"#utility.yul\":10079:10153   */\n      swap2\n      pop\n        /* \"#utility.yul\":10162:10255   */\n      tag_404\n        /* \"#utility.yul\":10251:10254   */\n      dup3\n        /* \"#utility.yul\":10162:10255   */\n      tag_262\n      jump\t// in\n    tag_404:\n        /* \"#utility.yul\":10280:10282   */\n      0x20\n        /* \"#utility.yul\":10275:10278   */\n      dup3\n        /* \"#utility.yul\":10271:10283   */\n      add\n        /* \"#utility.yul\":10264:10283   */\n      swap1\n      pop\n        /* \"#utility.yul\":9923:10289   */\n      swap2\n      swap1\n      pop\n      jump\t// out\n        /* \"#utility.yul\":10295:10714   */\n    tag_110:\n        /* \"#utility.yul\":10461:10465   */\n      0x00\n        /* \"#utility.yul\":10499:10501   */\n      0x20\n        /* \"#utility.yul\":10488:10497   */\n      dup3\n        /* \"#utility.yul\":10484:10502   */\n      add\n        /* \"#utility.yul\":10476:10502   */\n      swap1\n      pop\n        /* \"#utility.yul\":10548:10557   */\n      dup2\n        /* \"#utility.yul\":10542:10546   */\n      dup2\n        /* \"#utility.yul\":10538:10558   */\n      sub\n        /* \"#utility.yul\":10534:10535   */\n      0x00\n        /* \"#utility.yul\":10523:10532   */\n      dup4\n        /* \"#utility.yul\":10519:10536   */\n      add\n        /* \"#utility.yul\":10512:10559   */\n      mstore\n        /* \"#utility.yul\":10576:10707   */\n      tag_406\n        /* \"#utility.yul\":10702:10706   */\n      dup2\n        /* \"#utility.yul\":10576:10707   */\n      tag_263\n      jump\t// in\n    tag_406:\n        /* \"#utility.yul\":10568:10707   */\n      swap1\n      pop\n        /* \"#utility.yul\":10295:10714   */\n      swap2\n      swap1\n      pop\n      jump\t// out\n        /* \"#utility.yul\":10720:10894   */\n    tag_264:\n        /* \"#utility.yul\":10860:10886   */\n      0x496e636f7272656374206465706f73697420616d6f756e740000000000000000\n        /* \"#utility.yul\":10856:10857   */\n      0x00\n        /* \"#utility.yul\":10848:10854   */\n      dup3\n        /* \"#utility.yul\":10844:10858   */\n      add\n        /* \"#utility.yul\":10837:10887   */\n      mstore\n        /* \"#utility.yul\":10720:10894   */\n      pop\n      jump\t// out\n        /* \"#utility.yul\":10900:11266   */\n    tag_265:\n        /* \"#utility.yul\":11042:11045   */\n      0x00\n        /* \"#utility.yul\":11063:11130   */\n      tag_409\n        /* \"#utility.yul\":11127:11129   */\n      0x18\n        /* \"#utility.yul\":11122:11125   */\n      dup4\n        /* \"#utility.yul\":11063:11130   */\n      tag_259\n      jump\t// in\n    tag_409:\n        /* \"#utility.yul\":11056:11130   */\n      swap2\n      pop\n        /* \"#utility.yul\":11139:11232   */\n      tag_410\n        /* \"#utility.yul\":11228:11231   */\n      dup3\n        /* \"#utility.yul\":11139:11232   */\n      tag_264\n      jump\t// in\n    tag_410:\n        /* \"#utility.yul\":11257:11259   */\n      0x20\n        /* \"#utility.yul\":11252:11255   */\n      dup3\n        /* \"#utility.yul\":11248:11260   */\n      add\n        /* \"#utility.yul\":11241:11260   */\n      swap1\n      pop\n        /* \"#utility.yul\":10900:11266   */\n      swap2\n      swap1\n      pop\n      jump\t// out\n        /* \"#utility.yul\":11272:11691   */\n    tag_129:\n        /* \"#utility.yul\":11438:11442   */\n      0x00\n        /* \"#utility.yul\":11476:11478   */\n      0x20\n        /* \"#utility.yul\":11465:11474   */\n      dup3\n        /* \"#utility.yul\":11461:11479   */\n      add\n        /* \"#utility.yul\":11453:11479   */\n      swap1\n      pop\n        /* \"#utility.yul\":11525:11534   */\n      dup2\n        /* \"#utility.yul\":11519:11523   */\n      dup2\n        /* \"#utility.yul\":11515:11535   */\n      sub\n        /* \"#utility.yul\":11511:11512   */\n      0x00\n        /* \"#utility.yul\":11500:11509   */\n      dup4\n        /* \"#utility.yul\":11496:11513   */\n      add\n        /* \"#utility.yul\":11489:11536   */\n      mstore\n        /* \"#utility.yul\":11553:11684   */\n      tag_412\n        /* \"#utility.yul\":11679:11683   */\n      dup2\n        /* \"#utility.yul\":11553:11684   */\n      tag_265\n      jump\t// in\n    tag_412:\n        /* \"#utility.yul\":11545:11684   */\n      swap1\n      pop\n        /* \"#utility.yul\":11272:11691   */\n      swap2\n      swap1\n      pop\n      jump\t// out\n        /* \"#utility.yul\":11697:12029   */\n    tag_133:\n        /* \"#utility.yul\":11818:11822   */\n      0x00\n        /* \"#utility.yul\":11856:11858   */\n      0x40\n        /* \"#utility.yul\":11845:11854   */\n      dup3\n        /* \"#utility.yul\":11841:11859   */\n      add\n        /* \"#utility.yul\":11833:11859   */\n      swap1\n      pop\n        /* \"#utility.yul\":11869:11940   */\n      tag_414\n        /* \"#utility.yul\":11937:11938   */\n      0x00\n        /* \"#utility.yul\":11926:11935   */\n      dup4\n        /* \"#utility.yul\":11922:11939   */\n      add\n        /* \"#utility.yul\":11913:11919   */\n      dup6\n        /* \"#utility.yul\":11869:11940   */\n      tag_237\n      jump\t// in\n    tag_414:\n        /* \"#utility.yul\":11950:12022   */\n      tag_415\n        /* \"#utility.yul\":12018:12020   */\n      0x20\n        /* \"#utility.yul\":12007:12016   */\n      dup4\n        /* \"#utility.yul\":12003:12021   */\n      add\n        /* \"#utility.yul\":11994:12000   */\n      dup5\n        /* \"#utility.yul\":11950:12022   */\n      tag_237\n      jump\t// in\n    tag_415:\n        /* \"#utility.yul\":11697:12029   */\n      swap4\n      swap3\n      pop\n      pop\n      pop\n      jump\t// out\n        /* \"#utility.yul\":12035:12275   */\n    tag_266:\n        /* \"#utility.yul\":12175:12209   */\n      0x5472616e73616374696f6e2076616c7565206d75737420626520677265617465\n        /* \"#utility.yul\":12171:12172   */\n      0x00\n        /* \"#utility.yul\":12163:12169   */\n      dup3\n        /* \"#utility.yul\":12159:12173   */\n      add\n        /* \"#utility.yul\":12152:12210   */\n      mstore\n        /* \"#utility.yul\":12244:12267   */\n      0x72207468616e2074686520657363726f77206665650000000000000000000000\n        /* \"#utility.yul\":12239:12241   */\n      0x20\n        /* \"#utility.yul\":12231:12237   */\n      dup3\n        /* \"#utility.yul\":12227:12242   */\n      add\n        /* \"#utility.yul\":12220:12268   */\n      mstore\n        /* \"#utility.yul\":12035:12275   */\n      pop\n      jump\t// out\n        /* \"#utility.yul\":12281:12647   */\n    tag_267:\n        /* \"#utility.yul\":12423:12426   */\n      0x00\n        /* \"#utility.yul\":12444:12511   */\n      tag_418\n        /* \"#utility.yul\":12508:12510   */\n      0x35\n        /* \"#utility.yul\":12503:12506   */\n      dup4\n        /* \"#utility.yul\":12444:12511   */\n      tag_259\n      jump\t// in\n    tag_418:\n        /* \"#utility.yul\":12437:12511   */\n      swap2\n      pop\n        /* \"#utility.yul\":12520:12613   */\n      tag_419\n        /* \"#utility.yul\":12609:12612   */\n      dup3\n        /* \"#utility.yul\":12520:12613   */\n      tag_266\n      jump\t// in\n    tag_419:\n        /* \"#utility.yul\":12638:12640   */\n      0x40\n        /* \"#utility.yul\":12633:12636   */\n      dup3\n        /* \"#utility.yul\":12629:12641   */\n      add\n        /* \"#utility.yul\":12622:12641   */\n      swap1\n      pop\n        /* \"#utility.yul\":12281:12647   */\n      swap2\n      swap1\n      pop\n      jump\t// out\n        /* \"#utility.yul\":12653:13072   */\n    tag_137:\n        /* \"#utility.yul\":12819:12823   */\n      0x00\n        /* \"#utility.yul\":12857:12859   */\n      0x20\n        /* \"#utility.yul\":12846:12855   */\n      dup3\n        /* \"#utility.yul\":12842:12860   */\n      add\n        /* \"#utility.yul\":12834:12860   */\n      swap1\n      pop\n        /* \"#utility.yul\":12906:12915   */\n      dup2\n        /* \"#utility.yul\":12900:12904   */\n      dup2\n        /* \"#utility.yul\":12896:12916   */\n      sub\n        /* \"#utility.yul\":12892:12893   */\n      0x00\n        /* \"#utility.yul\":12881:12890   */\n      dup4\n        /* \"#utility.yul\":12877:12894   */\n      add\n        /* \"#utility.yul\":12870:12917   */\n      mstore\n        /* \"#utility.yul\":12934:13065   */\n      tag_421\n        /* \"#utility.yul\":13060:13064   */\n      dup2\n        /* \"#utility.yul\":12934:13065   */\n      tag_267\n      jump\t// in\n    tag_421:\n        /* \"#utility.yul\":12926:13065   */\n      swap1\n      pop\n        /* \"#utility.yul\":12653:13072   */\n      swap2\n      swap1\n      pop\n      jump\t// out\n        /* \"#utility.yul\":13078:13258   */\n    tag_268:\n        /* \"#utility.yul\":13126:13203   */\n      0x4e487b7100000000000000000000000000000000000000000000000000000000\n        /* \"#utility.yul\":13123:13124   */\n      0x00\n        /* \"#utility.yul\":13116:13204   */\n      mstore\n        /* \"#utility.yul\":13223:13227   */\n      0x11\n        /* \"#utility.yul\":13220:13221   */\n      0x04\n        /* \"#utility.yul\":13213:13228   */\n      mstore\n        /* \"#utility.yul\":13247:13251   */\n      0x24\n        /* \"#utility.yul\":13244:13245   */\n      0x00\n        /* \"#utility.yul\":13237:13252   */\n      revert\n        /* \"#utility.yul\":13264:13458   */\n    tag_139:\n        /* \"#utility.yul\":13304:13308   */\n      0x00\n        /* \"#utility.yul\":13324:13344   */\n      tag_424\n        /* \"#utility.yul\":13342:13343   */\n      dup3\n        /* \"#utility.yul\":13324:13344   */\n      tag_236\n      jump\t// in\n    tag_424:\n        /* \"#utility.yul\":13319:13344   */\n      swap2\n      pop\n        /* \"#utility.yul\":13358:13378   */\n      tag_425\n        /* \"#utility.yul\":13376:13377   */\n      dup4\n        /* \"#utility.yul\":13358:13378   */\n      tag_236\n      jump\t// in\n    tag_425:\n        /* \"#utility.yul\":13353:13378   */\n      swap3\n      pop\n        /* \"#utility.yul\":13402:13403   */\n      dup3\n        /* \"#utility.yul\":13399:13400   */\n      dup3\n        /* \"#utility.yul\":13395:13404   */\n      sub\n        /* \"#utility.yul\":13387:13404   */\n      swap1\n      pop\n        /* \"#utility.yul\":13426:13427   */\n      dup2\n        /* \"#utility.yul\":13420:13424   */\n      dup2\n        /* \"#utility.yul\":13417:13428   */\n      gt\n        /* \"#utility.yul\":13414:13451   */\n      iszero\n      tag_426\n      jumpi\n        /* \"#utility.yul\":13431:13449   */\n      tag_427\n      tag_268\n      jump\t// in\n    tag_427:\n        /* \"#utility.yul\":13414:13451   */\n    tag_426:\n        /* \"#utility.yul\":13264:13458   */\n      swap3\n      swap2\n      pop\n      pop\n      jump\t// out\n        /* \"#utility.yul\":13464:13524   */\n    tag_269:\n        /* \"#utility.yul\":13492:13495   */\n      0x00\n        /* \"#utility.yul\":13513:13518   */\n      dup2\n        /* \"#utility.yul\":13506:13518   */\n      swap1\n      pop\n        /* \"#utility.yul\":13464:13524   */\n      swap2\n      swap1\n      pop\n      jump\t// out\n        /* \"#utility.yul\":13530:13672   */\n    tag_270:\n        /* \"#utility.yul\":13580:13589   */\n      0x00\n        /* \"#utility.yul\":13613:13666   */\n      tag_430\n        /* \"#utility.yul\":13631:13665   */\n      tag_431\n        /* \"#utility.yul\":13640:13664   */\n      tag_432\n        /* \"#utility.yul\":13658:13663   */\n      dup5\n        /* \"#utility.yul\":13640:13664   */\n      tag_229\n      jump\t// in\n    tag_432:\n        /* \"#utility.yul\":13631:13665   */\n      tag_269\n      jump\t// in\n    tag_431:\n        /* \"#utility.yul\":13613:13666   */\n      tag_229\n      jump\t// in\n    tag_430:\n        /* \"#utility.yul\":13600:13666   */\n      swap1\n      pop\n        /* \"#utility.yul\":13530:13672   */\n      swap2\n      swap1\n      pop\n      jump\t// out\n        /* \"#utility.yul\":13678:13804   */\n    tag_271:\n        /* \"#utility.yul\":13728:13737   */\n      0x00\n        /* \"#utility.yul\":13761:13798   */\n      tag_434\n        /* \"#utility.yul\":13792:13797   */\n      dup3\n        /* \"#utility.yul\":13761:13798   */\n      tag_270\n      jump\t// in\n    tag_434:\n        /* \"#utility.yul\":13748:13798   */\n      swap1\n      pop\n        /* \"#utility.yul\":13678:13804   */\n      swap2\n      swap1\n      pop\n      jump\t// out\n        /* \"#utility.yul\":13810:13944   */\n    tag_272:\n        /* \"#utility.yul\":13868:13877   */\n      0x00\n        /* \"#utility.yul\":13901:13938   */\n      tag_436\n        /* \"#utility.yul\":13932:13937   */\n      dup3\n        /* \"#utility.yul\":13901:13938   */\n      tag_271\n      jump\t// in\n    tag_436:\n        /* \"#utility.yul\":13888:13938   */\n      swap1\n      pop\n        /* \"#utility.yul\":13810:13944   */\n      swap2\n      swap1\n      pop\n      jump\t// out\n        /* \"#utility.yul\":13950:14097   */\n    tag_273:\n        /* \"#utility.yul\":14045:14090   */\n      tag_438\n        /* \"#utility.yul\":14084:14089   */\n      dup2\n        /* \"#utility.yul\":14045:14090   */\n      tag_272\n      jump\t// in\n    tag_438:\n        /* \"#utility.yul\":14040:14043   */\n      dup3\n        /* \"#utility.yul\":14033:14091   */\n      mstore\n        /* \"#utility.yul\":13950:14097   */\n      pop\n      pop\n      jump\t// out\n        /* \"#utility.yul\":14103:14799   */\n    tag_143:\n        /* \"#utility.yul\":14324:14328   */\n      0x00\n        /* \"#utility.yul\":14362:14365   */\n      0xa0\n        /* \"#utility.yul\":14351:14360   */\n      dup3\n        /* \"#utility.yul\":14347:14366   */\n      add\n        /* \"#utility.yul\":14339:14366   */\n      swap1\n      pop\n        /* \"#utility.yul\":14376:14447   */\n      tag_440\n        /* \"#utility.yul\":14444:14445   */\n      0x00\n        /* \"#utility.yul\":14433:14442   */\n      dup4\n        /* \"#utility.yul\":14429:14446   */\n      add\n        /* \"#utility.yul\":14420:14426   */\n      dup9\n        /* \"#utility.yul\":14376:14447   */\n      tag_237\n      jump\t// in\n    tag_440:\n        /* \"#utility.yul\":14457:14537   */\n      tag_441\n        /* \"#utility.yul\":14533:14535   */\n      0x20\n        /* \"#utility.yul\":14522:14531   */\n      dup4\n        /* \"#utility.yul\":14518:14536   */\n      add\n        /* \"#utility.yul\":14509:14515   */\n      dup8\n        /* \"#utility.yul\":14457:14537   */\n      tag_273\n      jump\t// in\n    tag_441:\n        /* \"#utility.yul\":14547:14627   */\n      tag_442\n        /* \"#utility.yul\":14623:14625   */\n      0x40\n        /* \"#utility.yul\":14612:14621   */\n      dup4\n        /* \"#utility.yul\":14608:14626   */\n      add\n        /* \"#utility.yul\":14599:14605   */\n      dup7\n        /* \"#utility.yul\":14547:14627   */\n      tag_273\n      jump\t// in\n    tag_442:\n        /* \"#utility.yul\":14637:14709   */\n      tag_443\n        /* \"#utility.yul\":14705:14707   */\n      0x60\n        /* \"#utility.yul\":14694:14703   */\n      dup4\n        /* \"#utility.yul\":14690:14708   */\n      add\n        /* \"#utility.yul\":14681:14687   */\n      dup6\n        /* \"#utility.yul\":14637:14709   */\n      tag_237\n      jump\t// in\n    tag_443:\n        /* \"#utility.yul\":14719:14792   */\n      tag_444\n        /* \"#utility.yul\":14787:14790   */\n      0x80\n        /* \"#utility.yul\":14776:14785   */\n      dup4\n        /* \"#utility.yul\":14772:14791   */\n      add\n        /* \"#utility.yul\":14763:14769   */\n      dup5\n        /* \"#utility.yul\":14719:14792   */\n      tag_237\n      jump\t// in\n    tag_444:\n        /* \"#utility.yul\":14103:14799   */\n      swap7\n      swap6\n      pop\n      pop\n      pop\n      pop\n      pop\n      pop\n      jump\t// out\n        /* \"#utility.yul\":14805:14978   */\n    tag_274:\n        /* \"#utility.yul\":14945:14970   */\n      0x46756e647320617265206e6f7420696e20657363726f77000000000000000000\n        /* \"#utility.yul\":14941:14942   */\n      0x00\n        /* \"#utility.yul\":14933:14939   */\n      dup3\n        /* \"#utility.yul\":14929:14943   */\n      add\n        /* \"#utility.yul\":14922:14971   */\n      mstore\n        /* \"#utility.yul\":14805:14978   */\n      pop\n      jump\t// out\n        /* \"#utility.yul\":14984:15350   */\n    tag_275:\n        /* \"#utility.yul\":15126:15129   */\n      0x00\n        /* \"#utility.yul\":15147:15214   */\n      tag_447\n        /* \"#utility.yul\":15211:15213   */\n      0x17\n        /* \"#utility.yul\":15206:15209   */\n      dup4\n        /* \"#utility.yul\":15147:15214   */\n      tag_259\n      jump\t// in\n    tag_447:\n        /* \"#utility.yul\":15140:15214   */\n      swap2\n      pop\n        /* \"#utility.yul\":15223:15316   */\n      tag_448\n        /* \"#utility.yul\":15312:15315   */\n      dup3\n        /* \"#utility.yul\":15223:15316   */\n      tag_274\n      jump\t// in\n    tag_448:\n        /* \"#utility.yul\":15341:15343   */\n      0x20\n        /* \"#utility.yul\":15336:15339   */\n      dup3\n        /* \"#utility.yul\":15332:15344   */\n      add\n        /* \"#utility.yul\":15325:15344   */\n      swap1\n      pop\n        /* \"#utility.yul\":14984:15350   */\n      swap2\n      swap1\n      pop\n      jump\t// out\n        /* \"#utility.yul\":15356:15775   */\n    tag_157:\n        /* \"#utility.yul\":15522:15526   */\n      0x00\n        /* \"#utility.yul\":15560:15562   */\n      0x20\n        /* \"#utility.yul\":15549:15558   */\n      dup3\n        /* \"#utility.yul\":15545:15563   */\n      add\n        /* \"#utility.yul\":15537:15563   */\n      swap1\n      pop\n        /* \"#utility.yul\":15609:15618   */\n      dup2\n        /* \"#utility.yul\":15603:15607   */\n      dup2\n        /* \"#utility.yul\":15599:15619   */\n      sub\n        /* \"#utility.yul\":15595:15596   */\n      0x00\n        /* \"#utility.yul\":15584:15593   */\n      dup4\n        /* \"#utility.yul\":15580:15597   */\n      add\n        /* \"#utility.yul\":15573:15620   */\n      mstore\n        /* \"#utility.yul\":15637:15768   */\n      tag_450\n        /* \"#utility.yul\":15763:15767   */\n      dup2\n        /* \"#utility.yul\":15637:15768   */\n      tag_275\n      jump\t// in\n    tag_450:\n        /* \"#utility.yul\":15629:15768   */\n      swap1\n      pop\n        /* \"#utility.yul\":15356:15775   */\n      swap2\n      swap1\n      pop\n      jump\t// out\n        /* \"#utility.yul\":15781:15957   */\n    tag_276:\n        /* \"#utility.yul\":15921:15949   */\n      0x446f63756d656e7473206d757374206265207665726966696564000000000000\n        /* \"#utility.yul\":15917:15918   */\n      0x00\n        /* \"#utility.yul\":15909:15915   */\n      dup3\n        /* \"#utility.yul\":15905:15919   */\n      add\n        /* \"#utility.yul\":15898:15950   */\n      mstore\n        /* \"#utility.yul\":15781:15957   */\n      pop\n      jump\t// out\n        /* \"#utility.yul\":15963:16329   */\n    tag_277:\n        /* \"#utility.yul\":16105:16108   */\n      0x00\n        /* \"#utility.yul\":16126:16193   */\n      tag_453\n        /* \"#utility.yul\":16190:16192   */\n      0x1a\n        /* \"#utility.yul\":16185:16188   */\n      dup4\n        /* \"#utility.yul\":16126:16193   */\n      tag_259\n      jump\t// in\n    tag_453:\n        /* \"#utility.yul\":16119:16193   */\n      swap2\n      pop\n        /* \"#utility.yul\":16202:16295   */\n      tag_454\n        /* \"#utility.yul\":16291:16294   */\n      dup3\n        /* \"#utility.yul\":16202:16295   */\n      tag_276\n      jump\t// in\n    tag_454:\n        /* \"#utility.yul\":16320:16322   */\n      0x20\n        /* \"#utility.yul\":16315:16318   */\n      dup3\n        /* \"#utility.yul\":16311:16323   */\n      add\n        /* \"#utility.yul\":16304:16323   */\n      swap1\n      pop\n        /* \"#utility.yul\":15963:16329   */\n      swap2\n      swap1\n      pop\n      jump\t// out\n        /* \"#utility.yul\":16335:16754   */\n    tag_160:\n        /* \"#utility.yul\":16501:16505   */\n      0x00\n        /* \"#utility.yul\":16539:16541   */\n      0x20\n        /* \"#utility.yul\":16528:16537   */\n      dup3\n        /* \"#utility.yul\":16524:16542   */\n      add\n        /* \"#utility.yul\":16516:16542   */\n      swap1\n      pop\n        /* \"#utility.yul\":16588:16597   */\n      dup2\n        /* \"#utility.yul\":16582:16586   */\n      dup2\n        /* \"#utility.yul\":16578:16598   */\n      sub\n        /* \"#utility.yul\":16574:16575   */\n      0x00\n        /* \"#utility.yul\":16563:16572   */\n      dup4\n        /* \"#utility.yul\":16559:16576   */\n      add\n        /* \"#utility.yul\":16552:16599   */\n      mstore\n        /* \"#utility.yul\":16616:16747   */\n      tag_456\n        /* \"#utility.yul\":16742:16746   */\n      dup2\n        /* \"#utility.yul\":16616:16747   */\n      tag_277\n      jump\t// in\n    tag_456:\n        /* \"#utility.yul\":16608:16747   */\n      swap1\n      pop\n        /* \"#utility.yul\":16335:16754   */\n      swap2\n      swap1\n      pop\n      jump\t// out\n        /* \"#utility.yul\":16760:16907   */\n    tag_278:\n        /* \"#utility.yul\":16861:16872   */\n      0x00\n        /* \"#utility.yul\":16898:16901   */\n      dup2\n        /* \"#utility.yul\":16883:16901   */\n      swap1\n      pop\n        /* \"#utility.yul\":16760:16907   */\n      swap3\n      swap2\n      pop\n      pop\n      jump\t// out\n        /* \"#utility.yul\":16913:17027   */\n    tag_279:\n      pop\n      jump\t// out\n        /* \"#utility.yul\":17033:17431   */\n    tag_280:\n        /* \"#utility.yul\":17192:17195   */\n      0x00\n        /* \"#utility.yul\":17213:17296   */\n      tag_460\n        /* \"#utility.yul\":17294:17295   */\n      0x00\n        /* \"#utility.yul\":17289:17292   */\n      dup4\n        /* \"#utility.yul\":17213:17296   */\n      tag_278\n      jump\t// in\n    tag_460:\n        /* \"#utility.yul\":17206:17296   */\n      swap2\n      pop\n        /* \"#utility.yul\":17305:17398   */\n      tag_461\n        /* \"#utility.yul\":17394:17397   */\n      dup3\n        /* \"#utility.yul\":17305:17398   */\n      tag_279\n      jump\t// in\n    tag_461:\n        /* \"#utility.yul\":17423:17424   */\n      0x00\n        /* \"#utility.yul\":17418:17421   */\n      dup3\n        /* \"#utility.yul\":17414:17425   */\n      add\n        /* \"#utility.yul\":17407:17425   */\n      swap1\n      pop\n        /* \"#utility.yul\":17033:17431   */\n      swap2\n      swap1\n      pop\n      jump\t// out\n        /* \"#utility.yul\":17437:17816   */\n    tag_164:\n        /* \"#utility.yul\":17621:17624   */\n      0x00\n        /* \"#utility.yul\":17643:17790   */\n      tag_463\n        /* \"#utility.yul\":17786:17789   */\n      dup3\n        /* \"#utility.yul\":17643:17790   */\n      tag_280\n      jump\t// in\n    tag_463:\n        /* \"#utility.yul\":17636:17790   */\n      swap2\n      pop\n        /* \"#utility.yul\":17807:17810   */\n      dup2\n        /* \"#utility.yul\":17800:17810   */\n      swap1\n      pop\n        /* \"#utility.yul\":17437:17816   */\n      swap2\n      swap1\n      pop\n      jump\t// out\n        /* \"#utility.yul\":17822:17997   */\n    tag_281:\n        /* \"#utility.yul\":17962:17989   */\n      0x5472616e7366657220746f2073656c6c6572206661696c656400000000000000\n        /* \"#utility.yul\":17958:17959   */\n      0x00\n        /* \"#utility.yul\":17950:17956   */\n      dup3\n        /* \"#utility.yul\":17946:17960   */\n      add\n        /* \"#utility.yul\":17939:17990   */\n      mstore\n        /* \"#utility.yul\":17822:17997   */\n      pop\n      jump\t// out\n        /* \"#utility.yul\":18003:18369   */\n    tag_282:\n        /* \"#utility.yul\":18145:18148   */\n      0x00\n        /* \"#utility.yul\":18166:18233   */\n      tag_466\n        /* \"#utility.yul\":18230:18232   */\n      0x19\n        /* \"#utility.yul\":18225:18228   */\n      dup4\n        /* \"#utility.yul\":18166:18233   */\n      tag_259\n      jump\t// in\n    tag_466:\n        /* \"#utility.yul\":18159:18233   */\n      swap2\n      pop\n        /* \"#utility.yul\":18242:18335   */\n      tag_467\n        /* \"#utility.yul\":18331:18334   */\n      dup3\n        /* \"#utility.yul\":18242:18335   */\n      tag_281\n      jump\t// in\n    tag_467:\n        /* \"#utility.yul\":18360:18362   */\n      0x20\n        /* \"#utility.yul\":18355:18358   */\n      dup3\n        /* \"#utility.yul\":18351:18363   */\n      add\n        /* \"#utility.yul\":18344:18363   */\n      swap1\n      pop\n        /* \"#utility.yul\":18003:18369   */\n      swap2\n      swap1\n      pop\n      jump\t// out\n        /* \"#utility.yul\":18375:18794   */\n    tag_170:\n        /* \"#utility.yul\":18541:18545   */\n      0x00\n        /* \"#utility.yul\":18579:18581   */\n      0x20\n        /* \"#utility.yul\":18568:18577   */\n      dup3\n        /* \"#utility.yul\":18564:18582   */\n      add\n        /* \"#utility.yul\":18556:18582   */\n      swap1\n      pop\n        /* \"#utility.yul\":18628:18637   */\n      dup2\n        /* \"#utility.yul\":18622:18626   */\n      dup2\n        /* \"#utility.yul\":18618:18638   */\n      sub\n        /* \"#utility.yul\":18614:18615   */\n      0x00\n        /* \"#utility.yul\":18603:18612   */\n      dup4\n        /* \"#utility.yul\":18599:18616   */\n      add\n        /* \"#utility.yul\":18592:18639   */\n      mstore\n        /* \"#utility.yul\":18656:18787   */\n      tag_469\n        /* \"#utility.yul\":18782:18786   */\n      dup2\n        /* \"#utility.yul\":18656:18787   */\n      tag_282\n      jump\t// in\n    tag_469:\n        /* \"#utility.yul\":18648:18787   */\n      swap1\n      pop\n        /* \"#utility.yul\":18375:18794   */\n      swap2\n      swap1\n      pop\n      jump\t// out\n        /* \"#utility.yul\":18800:18974   */\n    tag_283:\n        /* \"#utility.yul\":18940:18966   */\n      0x457363726f772066656520726566756e64206661696c65640000000000000000\n        /* \"#utility.yul\":18936:18937   */\n      0x00\n        /* \"#utility.yul\":18928:18934   */\n      dup3\n        /* \"#utility.yul\":18924:18938   */\n      add\n        /* \"#utility.yul\":18917:18967   */\n      mstore\n        /* \"#utility.yul\":18800:18974   */\n      pop\n      jump\t// out\n        /* \"#utility.yul\":18980:19346   */\n    tag_284:\n        /* \"#utility.yul\":19122:19125   */\n      0x00\n        /* \"#utility.yul\":19143:19210   */\n      tag_472\n        /* \"#utility.yul\":19207:19209   */\n      0x18\n        /* \"#utility.yul\":19202:19205   */\n      dup4\n        /* \"#utility.yul\":19143:19210   */\n      tag_259\n      jump\t// in\n    tag_472:\n        /* \"#utility.yul\":19136:19210   */\n      swap2\n      pop\n        /* \"#utility.yul\":19219:19312   */\n      tag_473\n        /* \"#utility.yul\":19308:19311   */\n      dup3\n        /* \"#utility.yul\":19219:19312   */\n      tag_283\n      jump\t// in\n    tag_473:\n        /* \"#utility.yul\":19337:19339   */\n      0x20\n        /* \"#utility.yul\":19332:19335   */\n      dup3\n        /* \"#utility.yul\":19328:19340   */\n      add\n        /* \"#utility.yul\":19321:19340   */\n      swap1\n      pop\n        /* \"#utility.yul\":18980:19346   */\n      swap2\n      swap1\n      pop\n      jump\t// out\n        /* \"#utility.yul\":19352:19771   */\n    tag_177:\n        /* \"#utility.yul\":19518:19522   */\n      0x00\n        /* \"#utility.yul\":19556:19558   */\n      0x20\n        /* \"#utility.yul\":19545:19554   */\n      dup3\n        /* \"#utility.yul\":19541:19559   */\n      add\n        /* \"#utility.yul\":19533:19559   */\n      swap1\n      pop\n        /* \"#utility.yul\":19605:19614   */\n      dup2\n        /* \"#utility.yul\":19599:19603   */\n      dup2\n        /* \"#utility.yul\":19595:19615   */\n      sub\n        /* \"#utility.yul\":19591:19592   */\n      0x00\n        /* \"#utility.yul\":19580:19589   */\n      dup4\n        /* \"#utility.yul\":19576:19593   */\n      add\n        /* \"#utility.yul\":19569:19616   */\n      mstore\n        /* \"#utility.yul\":19633:19764   */\n      tag_475\n        /* \"#utility.yul\":19759:19763   */\n      dup2\n        /* \"#utility.yul\":19633:19764   */\n      tag_284\n      jump\t// in\n    tag_475:\n        /* \"#utility.yul\":19625:19764   */\n      swap1\n      pop\n        /* \"#utility.yul\":19352:19771   */\n      swap2\n      swap1\n      pop\n      jump\t// out\n        /* \"#utility.yul\":19777:20125   */\n    tag_179:\n        /* \"#utility.yul\":19906:19910   */\n      0x00\n        /* \"#utility.yul\":19944:19946   */\n      0x40\n        /* \"#utility.yul\":19933:19942   */\n      dup3\n        /* \"#utility.yul\":19929:19947   */\n      add\n        /* \"#utility.yul\":19921:19947   */\n      swap1\n      pop\n        /* \"#utility.yul\":19957:20028   */\n      tag_477\n        /* \"#utility.yul\":20025:20026   */\n      0x00\n        /* \"#utility.yul\":20014:20023   */\n      dup4\n        /* \"#utility.yul\":20010:20027   */\n      add\n        /* \"#utility.yul\":20001:20007   */\n      dup6\n        /* \"#utility.yul\":19957:20028   */\n      tag_237\n      jump\t// in\n    tag_477:\n        /* \"#utility.yul\":20038:20118   */\n      tag_478\n        /* \"#utility.yul\":20114:20116   */\n      0x20\n        /* \"#utility.yul\":20103:20112   */\n      dup4\n        /* \"#utility.yul\":20099:20117   */\n      add\n        /* \"#utility.yul\":20090:20096   */\n      dup5\n        /* \"#utility.yul\":20038:20118   */\n      tag_273\n      jump\t// in\n    tag_478:\n        /* \"#utility.yul\":19777:20125   */\n      swap4\n      swap3\n      pop\n      pop\n      pop\n      jump\t// out\n        /* \"#utility.yul\":20131:20358   */\n    tag_285:\n        /* \"#utility.yul\":20271:20305   */\n      0x4f6e6c79206275796572206f722073656c6c65722063616e2072616973652061\n        /* \"#utility.yul\":20267:20268   */\n      0x00\n        /* \"#utility.yul\":20259:20265   */\n      dup3\n        /* \"#utility.yul\":20255:20269   */\n      add\n        /* \"#utility.yul\":20248:20306   */\n      mstore\n        /* \"#utility.yul\":20340:20350   */\n      0x2064697370757465000000000000000000000000000000000000000000000000\n        /* \"#utility.yul\":20335:20337   */\n      0x20\n        /* \"#utility.yul\":20327:20333   */\n      dup3\n        /* \"#utility.yul\":20323:20338   */\n      add\n        /* \"#utility.yul\":20316:20351   */\n      mstore\n        /* \"#utility.yul\":20131:20358   */\n      pop\n      jump\t// out\n        /* \"#utility.yul\":20364:20730   */\n    tag_286:\n        /* \"#utility.yul\":20506:20509   */\n      0x00\n        /* \"#utility.yul\":20527:20594   */\n      tag_481\n        /* \"#utility.yul\":20591:20593   */\n      0x28\n        /* \"#utility.yul\":20586:20589   */\n      dup4\n        /* \"#utility.yul\":20527:20594   */\n      tag_259\n      jump\t// in\n    tag_481:\n        /* \"#utility.yul\":20520:20594   */\n      swap2\n      pop\n        /* \"#utility.yul\":20603:20696   */\n      tag_482\n        /* \"#utility.yul\":20692:20695   */\n      dup3\n        /* \"#utility.yul\":20603:20696   */\n      tag_285\n      jump\t// in\n    tag_482:\n        /* \"#utility.yul\":20721:20723   */\n      0x40\n        /* \"#utility.yul\":20716:20719   */\n      dup3\n        /* \"#utility.yul\":20712:20724   */\n      add\n        /* \"#utility.yul\":20705:20724   */\n      swap1\n      pop\n        /* \"#utility.yul\":20364:20730   */\n      swap2\n      swap1\n      pop\n      jump\t// out\n        /* \"#utility.yul\":20736:21155   */\n    tag_192:\n        /* \"#utility.yul\":20902:20906   */\n      0x00\n        /* \"#utility.yul\":20940:20942   */\n      0x20\n        /* \"#utility.yul\":20929:20938   */\n      dup3\n        /* \"#utility.yul\":20925:20943   */\n      add\n        /* \"#utility.yul\":20917:20943   */\n      swap1\n      pop\n        /* \"#utility.yul\":20989:20998   */\n      dup2\n        /* \"#utility.yul\":20983:20987   */\n      dup2\n        /* \"#utility.yul\":20979:20999   */\n      sub\n        /* \"#utility.yul\":20975:20976   */\n      0x00\n        /* \"#utility.yul\":20964:20973   */\n      dup4\n        /* \"#utility.yul\":20960:20977   */\n      add\n        /* \"#utility.yul\":20953:21000   */\n      mstore\n        /* \"#utility.yul\":21017:21148   */\n      tag_484\n        /* \"#utility.yul\":21143:21147   */\n      dup2\n        /* \"#utility.yul\":21017:21148   */\n      tag_286\n      jump\t// in\n    tag_484:\n        /* \"#utility.yul\":21009:21148   */\n      swap1\n      pop\n        /* \"#utility.yul\":20736:21155   */\n      swap2\n      swap1\n      pop\n      jump\t// out\n        /* \"#utility.yul\":21161:21493   */\n    tag_196:\n        /* \"#utility.yul\":21282:21286   */\n      0x00\n        /* \"#utility.yul\":21320:21322   */\n      0x40\n        /* \"#utility.yul\":21309:21318   */\n      dup3\n        /* \"#utility.yul\":21305:21323   */\n      add\n        /* \"#utility.yul\":21297:21323   */\n      swap1\n      pop\n        /* \"#utility.yul\":21333:21404   */\n      tag_486\n        /* \"#utility.yul\":21401:21402   */\n      0x00\n        /* \"#utility.yul\":21390:21399   */\n      dup4\n        /* \"#utility.yul\":21386:21403   */\n      add\n        /* \"#utility.yul\":21377:21383   */\n      dup6\n        /* \"#utility.yul\":21333:21404   */\n      tag_237\n      jump\t// in\n    tag_486:\n        /* \"#utility.yul\":21414:21486   */\n      tag_487\n        /* \"#utility.yul\":21482:21484   */\n      0x20\n        /* \"#utility.yul\":21471:21480   */\n      dup4\n        /* \"#utility.yul\":21467:21485   */\n      add\n        /* \"#utility.yul\":21458:21464   */\n      dup5\n        /* \"#utility.yul\":21414:21486   */\n      tag_248\n      jump\t// in\n    tag_487:\n        /* \"#utility.yul\":21161:21493   */\n      swap4\n      swap3\n      pop\n      pop\n      pop\n      jump\t// out\n        /* \"#utility.yul\":21499:21722   */\n    tag_287:\n        /* \"#utility.yul\":21639:21673   */\n      0x4f6e6c792061726269747261746f722063616e207265736f6c76652064697370\n        /* \"#utility.yul\":21635:21636   */\n      0x00\n        /* \"#utility.yul\":21627:21633   */\n      dup3\n        /* \"#utility.yul\":21623:21637   */\n      add\n        /* \"#utility.yul\":21616:21674   */\n      mstore\n        /* \"#utility.yul\":21708:21714   */\n      0x7574657300000000000000000000000000000000000000000000000000000000\n        /* \"#utility.yul\":21703:21705   */\n      0x20\n        /* \"#utility.yul\":21695:21701   */\n      dup3\n        /* \"#utility.yul\":21691:21706   */\n      add\n        /* \"#utility.yul\":21684:21715   */\n      mstore\n        /* \"#utility.yul\":21499:21722   */\n      pop\n      jump\t// out\n        /* \"#utility.yul\":21728:22094   */\n    tag_288:\n        /* \"#utility.yul\":21870:21873   */\n      0x00\n        /* \"#utility.yul\":21891:21958   */\n      tag_490\n        /* \"#utility.yul\":21955:21957   */\n      0x24\n        /* \"#utility.yul\":21950:21953   */\n      dup4\n        /* \"#utility.yul\":21891:21958   */\n      tag_259\n      jump\t// in\n    tag_490:\n        /* \"#utility.yul\":21884:21958   */\n      swap2\n      pop\n        /* \"#utility.yul\":21967:22060   */\n      tag_491\n        /* \"#utility.yul\":22056:22059   */\n      dup3\n        /* \"#utility.yul\":21967:22060   */\n      tag_287\n      jump\t// in\n    tag_491:\n        /* \"#utility.yul\":22085:22087   */\n      0x40\n        /* \"#utility.yul\":22080:22083   */\n      dup3\n        /* \"#utility.yul\":22076:22088   */\n      add\n        /* \"#utility.yul\":22069:22088   */\n      swap1\n      pop\n        /* \"#utility.yul\":21728:22094   */\n      swap2\n      swap1\n      pop\n      jump\t// out\n        /* \"#utility.yul\":22100:22519   */\n    tag_200:\n        /* \"#utility.yul\":22266:22270   */\n      0x00\n        /* \"#utility.yul\":22304:22306   */\n      0x20\n        /* \"#utility.yul\":22293:22302   */\n      dup3\n        /* \"#utility.yul\":22289:22307   */\n      add\n        /* \"#utility.yul\":22281:22307   */\n      swap1\n      pop\n        /* \"#utility.yul\":22353:22362   */\n      dup2\n        /* \"#utility.yul\":22347:22351   */\n      dup2\n        /* \"#utility.yul\":22343:22363   */\n      sub\n        /* \"#utility.yul\":22339:22340   */\n      0x00\n        /* \"#utility.yul\":22328:22337   */\n      dup4\n        /* \"#utility.yul\":22324:22341   */\n      add\n        /* \"#utility.yul\":22317:22364   */\n      mstore\n        /* \"#utility.yul\":22381:22512   */\n      tag_493\n        /* \"#utility.yul\":22507:22511   */\n      dup2\n        /* \"#utility.yul\":22381:22512   */\n      tag_288\n      jump\t// in\n    tag_493:\n        /* \"#utility.yul\":22373:22512   */\n      swap1\n      pop\n        /* \"#utility.yul\":22100:22519   */\n      swap2\n      swap1\n      pop\n      jump\t// out\n        /* \"#utility.yul\":22525:22624   */\n    tag_289:\n        /* \"#utility.yul\":22577:22583   */\n      0x00\n        /* \"#utility.yul\":22611:22616   */\n      dup2\n        /* \"#utility.yul\":22605:22617   */\n      mload\n        /* \"#utility.yul\":22595:22617   */\n      swap1\n      pop\n        /* \"#utility.yul\":22525:22624   */\n      swap2\n      swap1\n      pop\n      jump\t// out\n        /* \"#utility.yul\":22630:22769   */\n    tag_290:\n        /* \"#utility.yul\":22719:22725   */\n      dup3\n        /* \"#utility.yul\":22714:22717   */\n      dup2\n        /* \"#utility.yul\":22709:22712   */\n      dup4\n        /* \"#utility.yul\":22703:22726   */\n      mcopy\n        /* \"#utility.yul\":22760:22761   */\n      0x00\n        /* \"#utility.yul\":22751:22757   */\n      dup4\n        /* \"#utility.yul\":22746:22749   */\n      dup4\n        /* \"#utility.yul\":22742:22758   */\n      add\n        /* \"#utility.yul\":22735:22762   */\n      mstore\n        /* \"#utility.yul\":22630:22769   */\n      pop\n      pop\n      pop\n      jump\t// out\n        /* \"#utility.yul\":22775:23152   */\n    tag_291:\n        /* \"#utility.yul\":22863:22866   */\n      0x00\n        /* \"#utility.yul\":22891:22930   */\n      tag_497\n        /* \"#utility.yul\":22924:22929   */\n      dup3\n        /* \"#utility.yul\":22891:22930   */\n      tag_289\n      jump\t// in\n    tag_497:\n        /* \"#utility.yul\":22946:23017   */\n      tag_498\n        /* \"#utility.yul\":23010:23016   */\n      dup2\n        /* \"#utility.yul\":23005:23008   */\n      dup6\n        /* \"#utility.yul\":22946:23017   */\n      tag_259\n      jump\t// in\n    tag_498:\n        /* \"#utility.yul\":22939:23017   */\n      swap4\n      pop\n        /* \"#utility.yul\":23026:23091   */\n      tag_499\n        /* \"#utility.yul\":23084:23090   */\n      dup2\n        /* \"#utility.yul\":23079:23082   */\n      dup6\n        /* \"#utility.yul\":23072:23076   */\n      0x20\n        /* \"#utility.yul\":23065:23070   */\n      dup7\n        /* \"#utility.yul\":23061:23077   */\n      add\n        /* \"#utility.yul\":23026:23091   */\n      tag_290\n      jump\t// in\n    tag_499:\n        /* \"#utility.yul\":23116:23145   */\n      tag_500\n        /* \"#utility.yul\":23138:23144   */\n      dup2\n        /* \"#utility.yul\":23116:23145   */\n      tag_251\n      jump\t// in\n    tag_500:\n        /* \"#utility.yul\":23111:23114   */\n      dup5\n        /* \"#utility.yul\":23107:23146   */\n      add\n        /* \"#utility.yul\":23100:23146   */\n      swap2\n      pop\n        /* \"#utility.yul\":22867:23152   */\n      pop\n        /* \"#utility.yul\":22775:23152   */\n      swap3\n      swap2\n      pop\n      pop\n      jump\t// out\n        /* \"#utility.yul\":23158:23581   */\n    tag_212:\n        /* \"#utility.yul\":23299:23303   */\n      0x00\n        /* \"#utility.yul\":23337:23339   */\n      0x40\n        /* \"#utility.yul\":23326:23335   */\n      dup3\n        /* \"#utility.yul\":23322:23340   */\n      add\n        /* \"#utility.yul\":23314:23340   */\n      swap1\n      pop\n        /* \"#utility.yul\":23350:23421   */\n      tag_502\n        /* \"#utility.yul\":23418:23419   */\n      0x00\n        /* \"#utility.yul\":23407:23416   */\n      dup4\n        /* \"#utility.yul\":23403:23420   */\n      add\n        /* \"#utility.yul\":23394:23400   */\n      dup6\n        /* \"#utility.yul\":23350:23421   */\n      tag_237\n      jump\t// in\n    tag_502:\n        /* \"#utility.yul\":23468:23477   */\n      dup2\n        /* \"#utility.yul\":23462:23466   */\n      dup2\n        /* \"#utility.yul\":23458:23478   */\n      sub\n        /* \"#utility.yul\":23453:23455   */\n      0x20\n        /* \"#utility.yul\":23442:23451   */\n      dup4\n        /* \"#utility.yul\":23438:23456   */\n      add\n        /* \"#utility.yul\":23431:23479   */\n      mstore\n        /* \"#utility.yul\":23496:23574   */\n      tag_503\n        /* \"#utility.yul\":23569:23573   */\n      dup2\n        /* \"#utility.yul\":23560:23566   */\n      dup5\n        /* \"#utility.yul\":23496:23574   */\n      tag_291\n      jump\t// in\n    tag_503:\n        /* \"#utility.yul\":23488:23574   */\n      swap1\n      pop\n        /* \"#utility.yul\":23158:23581   */\n      swap4\n      swap3\n      pop\n      pop\n      pop\n      jump\t// out\n        /* \"#utility.yul\":23587:23809   */\n    tag_292:\n        /* \"#utility.yul\":23727:23761   */\n      0x4f6e6c792073656c6c65722063616e2063616c6c20746869732066756e637469\n        /* \"#utility.yul\":23723:23724   */\n      0x00\n        /* \"#utility.yul\":23715:23721   */\n      dup3\n        /* \"#utility.yul\":23711:23725   */\n      add\n        /* \"#utility.yul\":23704:23762   */\n      mstore\n        /* \"#utility.yul\":23796:23801   */\n      0x6f6e2e0000000000000000000000000000000000000000000000000000000000\n        /* \"#utility.yul\":23791:23793   */\n      0x20\n        /* \"#utility.yul\":23783:23789   */\n      dup3\n        /* \"#utility.yul\":23779:23794   */\n      add\n        /* \"#utility.yul\":23772:23802   */\n      mstore\n        /* \"#utility.yul\":23587:23809   */\n      pop\n      jump\t// out\n        /* \"#utility.yul\":23815:24181   */\n    tag_293:\n        /* \"#utility.yul\":23957:23960   */\n      0x00\n        /* \"#utility.yul\":23978:24045   */\n      tag_506\n        /* \"#utility.yul\":24042:24044   */\n      0x23\n        /* \"#utility.yul\":24037:24040   */\n      dup4\n        /* \"#utility.yul\":23978:24045   */\n      tag_259\n      jump\t// in\n    tag_506:\n        /* \"#utility.yul\":23971:24045   */\n      swap2\n      pop\n        /* \"#utility.yul\":24054:24147   */\n      tag_507\n        /* \"#utility.yul\":24143:24146   */\n      dup3\n        /* \"#utility.yul\":24054:24147   */\n      tag_292\n      jump\t// in\n    tag_507:\n        /* \"#utility.yul\":24172:24174   */\n      0x40\n        /* \"#utility.yul\":24167:24170   */\n      dup3\n        /* \"#utility.yul\":24163:24175   */\n      add\n        /* \"#utility.yul\":24156:24175   */\n      swap1\n      pop\n        /* \"#utility.yul\":23815:24181   */\n      swap2\n      swap1\n      pop\n      jump\t// out\n        /* \"#utility.yul\":24187:24606   */\n    tag_216:\n        /* \"#utility.yul\":24353:24357   */\n      0x00\n        /* \"#utility.yul\":24391:24393   */\n      0x20\n        /* \"#utility.yul\":24380:24389   */\n      dup3\n        /* \"#utility.yul\":24376:24394   */\n      add\n        /* \"#utility.yul\":24368:24394   */\n      swap1\n      pop\n        /* \"#utility.yul\":24440:24449   */\n      dup2\n        /* \"#utility.yul\":24434:24438   */\n      dup2\n        /* \"#utility.yul\":24430:24450   */\n      sub\n        /* \"#utility.yul\":24426:24427   */\n      0x00\n        /* \"#utility.yul\":24415:24424   */\n      dup4\n        /* \"#utility.yul\":24411:24428   */\n      add\n        /* \"#utility.yul\":24404:24451   */\n      mstore\n        /* \"#utility.yul\":24468:24599   */\n      tag_509\n        /* \"#utility.yul\":24594:24598   */\n      dup2\n        /* \"#utility.yul\":24468:24599   */\n      tag_293\n      jump\t// in\n    tag_509:\n        /* \"#utility.yul\":24460:24599   */\n      swap1\n      pop\n        /* \"#utility.yul\":24187:24606   */\n      swap2\n      swap1\n      pop\n      jump\t// out\n\n    auxdata: 0xa2646970667358221220ed93998ca860858ce700ca7a51c083999ed2924e4e9e12427419e5aa7fa29cf164736f6c634300081a0033\n}\n",
				"bytecode": {
					"linkReferences": {},
					"object": "608060405234801561000f575f80fd5b50604051612037380380612037833981810160405281019061003191906100d5565b8060025f6101000a81548173ffffffffffffffffffffffffffffffffffffffff021916908373ffffffffffffffffffffffffffffffffffffffff16021790555050610100565b5f80fd5b5f73ffffffffffffffffffffffffffffffffffffffff82169050919050565b5f6100a48261007b565b9050919050565b6100b48161009a565b81146100be575f80fd5b50565b5f815190506100cf816100ab565b92915050565b5f602082840312156100ea576100e9610077565b5b5f6100f7848285016100c1565b91505092915050565b611f2a8061010d5f395ff3fe608060405260043610610108575f3560e01c80636cc6cde1116100945780638f2238ba116100635780638f2238ba146102d6578063d695ddb9146102fe578063d7c5b29f14610314578063d8a5cc031461033e578063ee7a3b8e1461036f57610108565b80636cc6cde1146102425780636daa2d441461026c5780636f651901146102825780637150d8ae146102ac57610108565b80633fa4f245116100db5780633fa4f24514610180578063564a565d146101aa5780635a22147e146101e657806369d89575146102025780636a5b428b1461021857610108565b806308551a531461010c578063200d2ed214610136578063370c6001146101605780633eb5241d14610176575b5f80fd5b348015610117575f80fd5b50610120610399565b60405161012d919061134d565b60405180910390f35b348015610141575f80fd5b5061014a6103be565b60405161015791906113d9565b60405180910390f35b34801561016b575f80fd5b506101746103ce565b005b61017e610561565b005b34801561018b575f80fd5b50610194610729565b6040516101a1919061140a565b60405180910390f35b3480156101b5575f80fd5b506101d060048036038101906101cb919061145e565b61072f565b6040516101dd91906114a3565b60405180910390f35b61020060048036038101906101fb91906114e6565b61074c565b005b34801561020d575f80fd5b506102166108e2565b005b348015610223575f80fd5b5061022c610cf5565b604051610239919061140a565b60405180910390f35b34801561024d575f80fd5b50610256610cfb565b6040516102639190611556565b60405180910390f35b348015610277575f80fd5b50610280610d20565b005b34801561028d575f80fd5b50610296610f0c565b6040516102a391906114a3565b60405180910390f35b3480156102b7575f80fd5b506102c0610f1e565b6040516102cd919061134d565b60405180910390f35b3480156102e1575f80fd5b506102fc60048036038101906102f791906116ab565b610f43565b005b348015610309575f80fd5b506103126110d8565b005b34801561031f575f80fd5b5061032861125a565b60405161033591906114a3565b60405180910390f35b348015610349575f80fd5b5061035261126d565b6040516103669897969594939291906116f2565b60405180910390f35b34801561037a575f80fd5b50610383611308565b604051610390919061140a565b60405180910390f35b60015f9054906101000a900473ffffffffffffffffffffffffffffffffffffffff1681565b5f8054906101000a900460ff1681565b5f60019054906101000a900473ffffffffffffffffffffffffffffffffffffffff1673ffffffffffffffffffffffffffffffffffffffff163373ffffffffffffffffffffffffffffffffffffffff161461045d576040517f08c379a0000000000000000000000000000000000000000000000000000000008152600401610454906117ee565b60405180910390fd5b5f80600581111561047157610470611366565b5b5f8054906101000a900460ff1660058111156104905761048f611366565b5b146104d0576040517f08c379a00000000000000000000000000000000000000000000000000000000081526004016104c790611856565b60405180910390fd5b5f60019054906101000a900473ffffffffffffffffffffffffffffffffffffffff1673ffffffffffffffffffffffffffffffffffffffff166108fc4790811502906040515f60405180830381858888f19350505050158015610534573d5f803e3d5ffd5b5060035f806101000a81548160ff0219169083600581111561055957610558611366565b5b021790555050565b5f60019054906101000a900473ffffffffffffffffffffffffffffffffffffffff1673ffffffffffffffffffffffffffffffffffffffff163373ffffffffffffffffffffffffffffffffffffffff16146105f0576040517f08c379a00000000000000000000000000000000000000000000000000000000081526004016105e7906117ee565b60405180910390fd5b5f80600581111561060457610603611366565b5b5f8054906101000a900460ff16600581111561062357610622611366565b5b14610663576040517f08c379a000000000000000000000000000000000000000000000000000000000815260040161065a90611856565b60405180910390fd5b60035434146106a7576040517f08c379a000000000000000000000000000000000000000000000000000000000815260040161069e906118be565b60405180910390fd5b6001600660016101000a81548160ff02191690831515021790555060015f806101000a81548160ff021916908360058111156106e6576106e5611366565b5b02179055507fe1137f40a690bb272ef6abb40ecd678d3e0a5a521604a6579e7e49cd645455676005543460405161071e9291906118dc565b60405180910390a150565b60035481565b6007602052805f5260405f205f915054906101000a900460ff1681565b80341161078e576040517f08c379a000000000000000000000000000000000000000000000000000000000815260040161078590611973565b60405180910390fd5b335f60016101000a81548173ffffffffffffffffffffffffffffffffffffffff021916908373ffffffffffffffffffffffffffffffffffffffff1602179055508160015f6101000a81548173ffffffffffffffffffffffffffffffffffffffff021916908373ffffffffffffffffffffffffffffffffffffffff1602179055508260058190555080600481905550803461082891906119be565b6003819055505f805f6101000a81548160ff0219169083600581111561085157610850611366565b5b02179055507ffc215f5a30991a81a74ec61733c1d7cf5fc914fff34e3600456fd02be4976f446005545f60019054906101000a900473ffffffffffffffffffffffffffffffffffffffff1660015f9054906101000a900473ffffffffffffffffffffffffffffffffffffffff166003546004546040516108d5959493929190611a4c565b60405180910390a1505050565b5f60019054906101000a900473ffffffffffffffffffffffffffffffffffffffff1673ffffffffffffffffffffffffffffffffffffffff163373ffffffffffffffffffffffffffffffffffffffff1614610971576040517f08c379a0000000000000000000000000000000000000000000000000000000008152600401610968906117ee565b60405180910390fd5b600280600581111561098657610985611366565b5b5f8054906101000a900460ff1660058111156109a5576109a4611366565b5b146109e5576040517f08c379a00000000000000000000000000000000000000000000000000000000081526004016109dc90611856565b60405180910390fd5b600660019054906101000a900460ff16610a34576040517f08c379a0000000000000000000000000000000000000000000000000000000008152600401610a2b90611ae7565b60405180910390fd5b60065f9054906101000a900460ff16610a82576040517f08c379a0000000000000000000000000000000000000000000000000000000008152600401610a7990611b4f565b60405180910390fd5b60035f806101000a81548160ff02191690836005811115610aa657610aa5611366565b5b02179055505f600660016101000a81548160ff0219169083151502179055505f60015f9054906101000a900473ffffffffffffffffffffffffffffffffffffffff1673ffffffffffffffffffffffffffffffffffffffff16600354604051610b0d90611b9a565b5f6040518083038185875af1925050503d805f8114610b47576040519150601f19603f3d011682016040523d82523d5f602084013e610b4c565b606091505b5050905080610b90576040517f08c379a0000000000000000000000000000000000000000000000000000000008152600401610b8790611bf8565b60405180910390fd5b5f60019054906101000a900473ffffffffffffffffffffffffffffffffffffffff1673ffffffffffffffffffffffffffffffffffffffff16600454604051610bd790611b9a565b5f6040518083038185875af1925050503d805f8114610c11576040519150601f19603f3d011682016040523d82523d5f602084013e610c16565b606091505b50508091505080610c5c576040517f08c379a0000000000000000000000000000000000000000000000000000000008152600401610c5390611c60565b60405180910390fd5b7f8f5073d0a7a22ba450e278541077e181af457be74bea91e61f1f99e6bb40748e60055460015f9054906101000a900473ffffffffffffffffffffffffffffffffffffffff16604051610cb0929190611c7e565b60405180910390a17f161186077e0cdfa49fae16d54ce01ea091439dbf14243419593fa6c051c906c8600554604051610ce9919061140a565b60405180910390a15050565b60045481565b60025f9054906101000a900473ffffffffffffffffffffffffffffffffffffffff1681565b6002806005811115610d3557610d34611366565b5b5f8054906101000a900460ff166005811115610d5457610d53611366565b5b14610d94576040517f08c379a0000000000000000000000000000000000000000000000000000000008152600401610d8b90611856565b60405180910390fd5b5f60019054906101000a900473ffffffffffffffffffffffffffffffffffffffff1673ffffffffffffffffffffffffffffffffffffffff163373ffffffffffffffffffffffffffffffffffffffff161480610e3b575060015f9054906101000a900473ffffffffffffffffffffffffffffffffffffffff1673ffffffffffffffffffffffffffffffffffffffff163373ffffffffffffffffffffffffffffffffffffffff16145b610e7a576040517f08c379a0000000000000000000000000000000000000000000000000000000008152600401610e7190611d15565b60405180910390fd5b60045f806101000a81548160ff02191690836005811115610e9e57610e9d611366565b5b0217905550600160075f60055481526020019081526020015f205f6101000a81548160ff0219169083151502179055507f84a477df8a28a4276ca6dee4458a06c3015f30c477d9c949ede4e13ff8a552b460055433604051610f01929190611d33565b60405180910390a150565b60065f9054906101000a900460ff1681565b5f60019054906101000a900473ffffffffffffffffffffffffffffffffffffffff1681565b60025f9054906101000a900473ffffffffffffffffffffffffffffffffffffffff1673ffffffffffffffffffffffffffffffffffffffff163373ffffffffffffffffffffffffffffffffffffffff1614610fd2576040517f08c379a0000000000000000000000000000000000000000000000000000000008152600401610fc990611dca565b60405180910390fd5b6004806005811115610fe757610fe6611366565b5b5f8054906101000a900460ff16600581111561100657611005611366565b5b14611046576040517f08c379a000000000000000000000000000000000000000000000000000000000815260040161103d90611856565b60405180910390fd5b60055f806101000a81548160ff0219169083600581111561106a57611069611366565b5b02179055505f60075f60055481526020019081526020015f205f6101000a81548160ff0219169083151502179055507f831764ac02a33c193cba23a0de34c986e9b50402bf3c9febf6ff2f63d4c0435d600554836040516110cc929190611e38565b60405180910390a15050565b60015f9054906101000a900473ffffffffffffffffffffffffffffffffffffffff1673ffffffffffffffffffffffffffffffffffffffff163373ffffffffffffffffffffffffffffffffffffffff1614611167576040517f08c379a000000000000000000000000000000000000000000000000000000000815260040161115e90611ed6565b60405180910390fd5b600180600581111561117c5761117b611366565b5b5f8054906101000a900460ff16600581111561119b5761119a611366565b5b146111db576040517f08c379a00000000000000000000000000000000000000000000000000000000081526004016111d290611856565b60405180910390fd5b600160065f6101000a81548160ff02191690831515021790555060025f806101000a81548160ff0219169083600581111561121957611218611366565b5b02179055507f6041f9d8afd08f868c84c410d8277bc0413acc3357dd18459b9a726dcbbca5a460055460405161124f919061140a565b60405180910390a150565b600660019054906101000a900460ff1681565b5f805f805f805f805f60019054906101000a900473ffffffffffffffffffffffffffffffffffffffff1660015f9054906101000a900473ffffffffffffffffffffffffffffffffffffffff166005546003546004545f8054906101000a900460ff16600660019054906101000a900460ff1660065f9054906101000a900460ff16975097509750975097509750975097509091929394959697565b60055481565b5f73ffffffffffffffffffffffffffffffffffffffff82169050919050565b5f6113378261130e565b9050919050565b6113478161132d565b82525050565b5f6020820190506113605f83018461133e565b92915050565b7f4e487b71000000000000000000000000000000000000000000000000000000005f52602160045260245ffd5b600681106113a4576113a3611366565b5b50565b5f8190506113b482611393565b919050565b5f6113c3826113a7565b9050919050565b6113d3816113b9565b82525050565b5f6020820190506113ec5f8301846113ca565b92915050565b5f819050919050565b611404816113f2565b82525050565b5f60208201905061141d5f8301846113fb565b92915050565b5f604051905090565b5f80fd5b5f80fd5b61143d816113f2565b8114611447575f80fd5b50565b5f8135905061145881611434565b92915050565b5f602082840312156114735761147261142c565b5b5f6114808482850161144a565b91505092915050565b5f8115159050919050565b61149d81611489565b82525050565b5f6020820190506114b65f830184611494565b92915050565b6114c58161132d565b81146114cf575f80fd5b50565b5f813590506114e0816114bc565b92915050565b5f805f606084860312156114fd576114fc61142c565b5b5f61150a8682870161144a565b935050602061151b868287016114d2565b925050604061152c8682870161144a565b9150509250925092565b5f6115408261130e565b9050919050565b61155081611536565b82525050565b5f6020820190506115695f830184611547565b92915050565b5f80fd5b5f80fd5b5f601f19601f8301169050919050565b7f4e487b71000000000000000000000000000000000000000000000000000000005f52604160045260245ffd5b6115bd82611577565b810181811067ffffffffffffffff821117156115dc576115db611587565b5b80604052505050565b5f6115ee611423565b90506115fa82826115b4565b919050565b5f67ffffffffffffffff82111561161957611618611587565b5b61162282611577565b9050602081019050919050565b828183375f83830152505050565b5f61164f61164a846115ff565b6115e5565b90508281526020810184848401111561166b5761166a611573565b5b61167684828561162f565b509392505050565b5f82601f8301126116925761169161156f565b5b81356116a284826020860161163d565b91505092915050565b5f602082840312156116c0576116bf61142c565b5b5f82013567ffffffffffffffff8111156116dd576116dc611430565b5b6116e98482850161167e565b91505092915050565b5f610100820190506117065f83018b611547565b611713602083018a611547565b61172060408301896113fb565b61172d60608301886113fb565b61173a60808301876113fb565b61174760a08301866113ca565b61175460c0830185611494565b61176160e0830184611494565b9998505050505050505050565b5f82825260208201905092915050565b7f4f6e6c792062757965722063616e2063616c6c20746869732066756e6374696f5f8201527f6e2e000000000000000000000000000000000000000000000000000000000000602082015250565b5f6117d860228361176e565b91506117e38261177e565b604082019050919050565b5f6020820190508181035f830152611805816117cc565b9050919050565b7f496e76616c6964207472616e73616374696f6e207374617475732e00000000005f82015250565b5f611840601b8361176e565b915061184b8261180c565b602082019050919050565b5f6020820190508181035f83015261186d81611834565b9050919050565b7f496e636f7272656374206465706f73697420616d6f756e7400000000000000005f82015250565b5f6118a860188361176e565b91506118b382611874565b602082019050919050565b5f6020820190508181035f8301526118d58161189c565b9050919050565b5f6040820190506118ef5f8301856113fb565b6118fc60208301846113fb565b9392505050565b7f5472616e73616374696f6e2076616c7565206d757374206265206772656174655f8201527f72207468616e2074686520657363726f77206665650000000000000000000000602082015250565b5f61195d60358361176e565b915061196882611903565b604082019050919050565b5f6020820190508181035f83015261198a81611951565b9050919050565b7f4e487b71000000000000000000000000000000000000000000000000000000005f52601160045260245ffd5b5f6119c8826113f2565b91506119d3836113f2565b92508282039050818111156119eb576119ea611991565b5b92915050565b5f819050919050565b5f611a14611a0f611a0a8461130e565b6119f1565b61130e565b9050919050565b5f611a25826119fa565b9050919050565b5f611a3682611a1b565b9050919050565b611a4681611a2c565b82525050565b5f60a082019050611a5f5f8301886113fb565b611a6c6020830187611a3d565b611a796040830186611a3d565b611a8660608301856113fb565b611a9360808301846113fb565b9695505050505050565b7f46756e647320617265206e6f7420696e20657363726f770000000000000000005f82015250565b5f611ad160178361176e565b9150611adc82611a9d565b602082019050919050565b5f6020820190508181035f830152611afe81611ac5565b9050919050565b7f446f63756d656e7473206d7573742062652076657269666965640000000000005f82015250565b5f611b39601a8361176e565b9150611b4482611b05565b602082019050919050565b5f6020820190508181035f830152611b6681611b2d565b9050919050565b5f81905092915050565b50565b5f611b855f83611b6d565b9150611b9082611b77565b5f82019050919050565b5f611ba482611b7a565b9150819050919050565b7f5472616e7366657220746f2073656c6c6572206661696c6564000000000000005f82015250565b5f611be260198361176e565b9150611bed82611bae565b602082019050919050565b5f6020820190508181035f830152611c0f81611bd6565b9050919050565b7f457363726f772066656520726566756e64206661696c656400000000000000005f82015250565b5f611c4a60188361176e565b9150611c5582611c16565b602082019050919050565b5f6020820190508181035f830152611c7781611c3e565b9050919050565b5f604082019050611c915f8301856113fb565b611c9e6020830184611a3d565b9392505050565b7f4f6e6c79206275796572206f722073656c6c65722063616e20726169736520615f8201527f2064697370757465000000000000000000000000000000000000000000000000602082015250565b5f611cff60288361176e565b9150611d0a82611ca5565b604082019050919050565b5f6020820190508181035f830152611d2c81611cf3565b9050919050565b5f604082019050611d465f8301856113fb565b611d536020830184611547565b9392505050565b7f4f6e6c792061726269747261746f722063616e207265736f6c766520646973705f8201527f7574657300000000000000000000000000000000000000000000000000000000602082015250565b5f611db460248361176e565b9150611dbf82611d5a565b604082019050919050565b5f6020820190508181035f830152611de181611da8565b9050919050565b5f81519050919050565b8281835e5f83830152505050565b5f611e0a82611de8565b611e14818561176e565b9350611e24818560208601611df2565b611e2d81611577565b840191505092915050565b5f604082019050611e4b5f8301856113fb565b8181036020830152611e5d8184611e00565b90509392505050565b7f4f6e6c792073656c6c65722063616e2063616c6c20746869732066756e6374695f8201527f6f6e2e0000000000000000000000000000000000000000000000000000000000602082015250565b5f611ec060238361176e565b9150611ecb82611e66565b604082019050919050565b5f6020820190508181035f830152611eed81611eb4565b905091905056fea2646970667358221220ed93998ca860858ce700ca7a51c083999ed2924e4e9e12427419e5aa7fa29cf164736f6c634300081a0033",
					"opcodes": "PUSH1 0x80 PUSH1 0x40 MSTORE CALLVALUE DUP1 ISZERO PUSH2 0xF JUMPI PUSH0 DUP1 REVERT JUMPDEST POP PUSH1 0x40 MLOAD PUSH2 0x2037 CODESIZE SUB DUP1 PUSH2 0x2037 DUP4 CODECOPY DUP2 DUP2 ADD PUSH1 0x40 MSTORE DUP2 ADD SWAP1 PUSH2 0x31 SWAP2 SWAP1 PUSH2 0xD5 JUMP JUMPDEST DUP1 PUSH1 0x2 PUSH0 PUSH2 0x100 EXP DUP2 SLOAD DUP2 PUSH20 0xFFFFFFFFFFFFFFFFFFFFFFFFFFFFFFFFFFFFFFFF MUL NOT AND SWAP1 DUP4 PUSH20 0xFFFFFFFFFFFFFFFFFFFFFFFFFFFFFFFFFFFFFFFF AND MUL OR SWAP1 SSTORE POP POP PUSH2 0x100 JUMP JUMPDEST PUSH0 DUP1 REVERT JUMPDEST PUSH0 PUSH20 0xFFFFFFFFFFFFFFFFFFFFFFFFFFFFFFFFFFFFFFFF DUP3 AND SWAP1 POP SWAP2 SWAP1 POP JUMP JUMPDEST PUSH0 PUSH2 0xA4 DUP3 PUSH2 0x7B JUMP JUMPDEST SWAP1 POP SWAP2 SWAP1 POP JUMP JUMPDEST PUSH2 0xB4 DUP2 PUSH2 0x9A JUMP JUMPDEST DUP2 EQ PUSH2 0xBE JUMPI PUSH0 DUP1 REVERT JUMPDEST POP JUMP JUMPDEST PUSH0 DUP2 MLOAD SWAP1 POP PUSH2 0xCF DUP2 PUSH2 0xAB JUMP JUMPDEST SWAP3 SWAP2 POP POP JUMP JUMPDEST PUSH0 PUSH1 0x20 DUP3 DUP5 SUB SLT ISZERO PUSH2 0xEA JUMPI PUSH2 0xE9 PUSH2 0x77 JUMP JUMPDEST JUMPDEST PUSH0 PUSH2 0xF7 DUP5 DUP3 DUP6 ADD PUSH2 0xC1 JUMP JUMPDEST SWAP2 POP POP SWAP3 SWAP2 POP POP JUMP JUMPDEST PUSH2 0x1F2A DUP1 PUSH2 0x10D PUSH0 CODECOPY PUSH0 RETURN INVALID PUSH1 0x80 PUSH1 0x40 MSTORE PUSH1 0x4 CALLDATASIZE LT PUSH2 0x108 JUMPI PUSH0 CALLDATALOAD PUSH1 0xE0 SHR DUP1 PUSH4 0x6CC6CDE1 GT PUSH2 0x94 JUMPI DUP1 PUSH4 0x8F2238BA GT PUSH2 0x63 JUMPI DUP1 PUSH4 0x8F2238BA EQ PUSH2 0x2D6 JUMPI DUP1 PUSH4 0xD695DDB9 EQ PUSH2 0x2FE JUMPI DUP1 PUSH4 0xD7C5B29F EQ PUSH2 0x314 JUMPI DUP1 PUSH4 0xD8A5CC03 EQ PUSH2 0x33E JUMPI DUP1 PUSH4 0xEE7A3B8E EQ PUSH2 0x36F JUMPI PUSH2 0x108 JUMP JUMPDEST DUP1 PUSH4 0x6CC6CDE1 EQ PUSH2 0x242 JUMPI DUP1 PUSH4 0x6DAA2D44 EQ PUSH2 0x26C JUMPI DUP1 PUSH4 0x6F651901 EQ PUSH2 0x282 JUMPI DUP1 PUSH4 0x7150D8AE EQ PUSH2 0x2AC JUMPI PUSH2 0x108 JUMP JUMPDEST DUP1 PUSH4 0x3FA4F245 GT PUSH2 0xDB JUMPI DUP1 PUSH4 0x3FA4F245 EQ PUSH2 0x180 JUMPI DUP1 PUSH4 0x564A565D EQ PUSH2 0x1AA JUMPI DUP1 PUSH4 0x5A22147E EQ PUSH2 0x1E6 JUMPI DUP1 PUSH4 0x69D89575 EQ PUSH2 0x202 JUMPI DUP1 PUSH4 0x6A5B428B EQ PUSH2 0x218 JUMPI PUSH2 0x108 JUMP JUMPDEST DUP1 PUSH4 0x8551A53 EQ PUSH2 0x10C JUMPI DUP1 PUSH4 0x200D2ED2 EQ PUSH2 0x136 JUMPI DUP1 PUSH4 0x370C6001 EQ PUSH2 0x160 JUMPI DUP1 PUSH4 0x3EB5241D EQ PUSH2 0x176 JUMPI JUMPDEST PUSH0 DUP1 REVERT JUMPDEST CALLVALUE DUP1 ISZERO PUSH2 0x117 JUMPI PUSH0 DUP1 REVERT JUMPDEST POP PUSH2 0x120 PUSH2 0x399 JUMP JUMPDEST PUSH1 0x40 MLOAD PUSH2 0x12D SWAP2 SWAP1 PUSH2 0x134D JUMP JUMPDEST PUSH1 0x40 MLOAD DUP1 SWAP2 SUB SWAP1 RETURN JUMPDEST CALLVALUE DUP1 ISZERO PUSH2 0x141 JUMPI PUSH0 DUP1 REVERT JUMPDEST POP PUSH2 0x14A PUSH2 0x3BE JUMP JUMPDEST PUSH1 0x40 MLOAD PUSH2 0x157 SWAP2 SWAP1 PUSH2 0x13D9 JUMP JUMPDEST PUSH1 0x40 MLOAD DUP1 SWAP2 SUB SWAP1 RETURN JUMPDEST CALLVALUE DUP1 ISZERO PUSH2 0x16B JUMPI PUSH0 DUP1 REVERT JUMPDEST POP PUSH2 0x174 PUSH2 0x3CE JUMP JUMPDEST STOP JUMPDEST PUSH2 0x17E PUSH2 0x561 JUMP JUMPDEST STOP JUMPDEST CALLVALUE DUP1 ISZERO PUSH2 0x18B JUMPI PUSH0 DUP1 REVERT JUMPDEST POP PUSH2 0x194 PUSH2 0x729 JUMP JUMPDEST PUSH1 0x40 MLOAD PUSH2 0x1A1 SWAP2 SWAP1 PUSH2 0x140A JUMP JUMPDEST PUSH1 0x40 MLOAD DUP1 SWAP2 SUB SWAP1 RETURN JUMPDEST CALLVALUE DUP1 ISZERO PUSH2 0x1B5 JUMPI PUSH0 DUP1 REVERT JUMPDEST POP PUSH2 0x1D0 PUSH1 0x4 DUP1 CALLDATASIZE SUB DUP2 ADD SWAP1 PUSH2 0x1CB SWAP2 SWAP1 PUSH2 0x145E JUMP JUMPDEST PUSH2 0x72F JUMP JUMPDEST PUSH1 0x40 MLOAD PUSH2 0x1DD SWAP2 SWAP1 PUSH2 0x14A3 JUMP JUMPDEST PUSH1 0x40 MLOAD DUP1 SWAP2 SUB SWAP1 RETURN JUMPDEST PUSH2 0x200 PUSH1 0x4 DUP1 CALLDATASIZE SUB DUP2 ADD SWAP1 PUSH2 0x1FB SWAP2 SWAP1 PUSH2 0x14E6 JUMP JUMPDEST PUSH2 0x74C JUMP JUMPDEST STOP JUMPDEST CALLVALUE DUP1 ISZERO PUSH2 0x20D JUMPI PUSH0 DUP1 REVERT JUMPDEST POP PUSH2 0x216 PUSH2 0x8E2 JUMP JUMPDEST STOP JUMPDEST CALLVALUE DUP1 ISZERO PUSH2 0x223 JUMPI PUSH0 DUP1 REVERT JUMPDEST POP PUSH2 0x22C PUSH2 0xCF5 JUMP JUMPDEST PUSH1 0x40 MLOAD PUSH2 0x239 SWAP2 SWAP1 PUSH2 0x140A JUMP JUMPDEST PUSH1 0x40 MLOAD DUP1 SWAP2 SUB SWAP1 RETURN JUMPDEST CALLVALUE DUP1 ISZERO PUSH2 0x24D JUMPI PUSH0 DUP1 REVERT JUMPDEST POP PUSH2 0x256 PUSH2 0xCFB JUMP JUMPDEST PUSH1 0x40 MLOAD PUSH2 0x263 SWAP2 SWAP1 PUSH2 0x1556 JUMP JUMPDEST PUSH1 0x40 MLOAD DUP1 SWAP2 SUB SWAP1 RETURN JUMPDEST CALLVALUE DUP1 ISZERO PUSH2 0x277 JUMPI PUSH0 DUP1 REVERT JUMPDEST POP PUSH2 0x280 PUSH2 0xD20 JUMP JUMPDEST STOP JUMPDEST CALLVALUE DUP1 ISZERO PUSH2 0x28D JUMPI PUSH0 DUP1 REVERT JUMPDEST POP PUSH2 0x296 PUSH2 0xF0C JUMP JUMPDEST PUSH1 0x40 MLOAD PUSH2 0x2A3 SWAP2 SWAP1 PUSH2 0x14A3 JUMP JUMPDEST PUSH1 0x40 MLOAD DUP1 SWAP2 SUB SWAP1 RETURN JUMPDEST CALLVALUE DUP1 ISZERO PUSH2 0x2B7 JUMPI PUSH0 DUP1 REVERT JUMPDEST POP PUSH2 0x2C0 PUSH2 0xF1E JUMP JUMPDEST PUSH1 0x40 MLOAD PUSH2 0x2CD SWAP2 SWAP1 PUSH2 0x134D JUMP JUMPDEST PUSH1 0x40 MLOAD DUP1 SWAP2 SUB SWAP1 RETURN JUMPDEST CALLVALUE DUP1 ISZERO PUSH2 0x2E1 JUMPI PUSH0 DUP1 REVERT JUMPDEST POP PUSH2 0x2FC PUSH1 0x4 DUP1 CALLDATASIZE SUB DUP2 ADD SWAP1 PUSH2 0x2F7 SWAP2 SWAP1 PUSH2 0x16AB JUMP JUMPDEST PUSH2 0xF43 JUMP JUMPDEST STOP JUMPDEST CALLVALUE DUP1 ISZERO PUSH2 0x309 JUMPI PUSH0 DUP1 REVERT JUMPDEST POP PUSH2 0x312 PUSH2 0x10D8 JUMP JUMPDEST STOP JUMPDEST CALLVALUE DUP1 ISZERO PUSH2 0x31F JUMPI PUSH0 DUP1 REVERT JUMPDEST POP PUSH2 0x328 PUSH2 0x125A JUMP JUMPDEST PUSH1 0x40 MLOAD PUSH2 0x335 SWAP2 SWAP1 PUSH2 0x14A3 JUMP JUMPDEST PUSH1 0x40 MLOAD DUP1 SWAP2 SUB SWAP1 RETURN JUMPDEST CALLVALUE DUP1 ISZERO PUSH2 0x349 JUMPI PUSH0 DUP1 REVERT JUMPDEST POP PUSH2 0x352 PUSH2 0x126D JUMP JUMPDEST PUSH1 0x40 MLOAD PUSH2 0x366 SWAP9 SWAP8 SWAP7 SWAP6 SWAP5 SWAP4 SWAP3 SWAP2 SWAP1 PUSH2 0x16F2 JUMP JUMPDEST PUSH1 0x40 MLOAD DUP1 SWAP2 SUB SWAP1 RETURN JUMPDEST CALLVALUE DUP1 ISZERO PUSH2 0x37A JUMPI PUSH0 DUP1 REVERT JUMPDEST POP PUSH2 0x383 PUSH2 0x1308 JUMP JUMPDEST PUSH1 0x40 MLOAD PUSH2 0x390 SWAP2 SWAP1 PUSH2 0x140A JUMP JUMPDEST PUSH1 0x40 MLOAD DUP1 SWAP2 SUB SWAP1 RETURN JUMPDEST PUSH1 0x1 PUSH0 SWAP1 SLOAD SWAP1 PUSH2 0x100 EXP SWAP1 DIV PUSH20 0xFFFFFFFFFFFFFFFFFFFFFFFFFFFFFFFFFFFFFFFF AND DUP2 JUMP JUMPDEST PUSH0 DUP1 SLOAD SWAP1 PUSH2 0x100 EXP SWAP1 DIV PUSH1 0xFF AND DUP2 JUMP JUMPDEST PUSH0 PUSH1 0x1 SWAP1 SLOAD SWAP1 PUSH2 0x100 EXP SWAP1 DIV PUSH20 0xFFFFFFFFFFFFFFFFFFFFFFFFFFFFFFFFFFFFFFFF AND PUSH20 0xFFFFFFFFFFFFFFFFFFFFFFFFFFFFFFFFFFFFFFFF AND CALLER PUSH20 0xFFFFFFFFFFFFFFFFFFFFFFFFFFFFFFFFFFFFFFFF AND EQ PUSH2 0x45D JUMPI PUSH1 0x40 MLOAD PUSH32 0x8C379A000000000000000000000000000000000000000000000000000000000 DUP2 MSTORE PUSH1 0x4 ADD PUSH2 0x454 SWAP1 PUSH2 0x17EE JUMP JUMPDEST PUSH1 0x40 MLOAD DUP1 SWAP2 SUB SWAP1 REVERT JUMPDEST PUSH0 DUP1 PUSH1 0x5 DUP2 GT ISZERO PUSH2 0x471 JUMPI PUSH2 0x470 PUSH2 0x1366 JUMP JUMPDEST JUMPDEST PUSH0 DUP1 SLOAD SWAP1 PUSH2 0x100 EXP SWAP1 DIV PUSH1 0xFF AND PUSH1 0x5 DUP2 GT ISZERO PUSH2 0x490 JUMPI PUSH2 0x48F PUSH2 0x1366 JUMP JUMPDEST JUMPDEST EQ PUSH2 0x4D0 JUMPI PUSH1 0x40 MLOAD PUSH32 0x8C379A000000000000000000000000000000000000000000000000000000000 DUP2 MSTORE PUSH1 0x4 ADD PUSH2 0x4C7 SWAP1 PUSH2 0x1856 JUMP JUMPDEST PUSH1 0x40 MLOAD DUP1 SWAP2 SUB SWAP1 REVERT JUMPDEST PUSH0 PUSH1 0x1 SWAP1 SLOAD SWAP1 PUSH2 0x100 EXP SWAP1 DIV PUSH20 0xFFFFFFFFFFFFFFFFFFFFFFFFFFFFFFFFFFFFFFFF AND PUSH20 0xFFFFFFFFFFFFFFFFFFFFFFFFFFFFFFFFFFFFFFFF AND PUSH2 0x8FC SELFBALANCE SWAP1 DUP2 ISZERO MUL SWAP1 PUSH1 0x40 MLOAD PUSH0 PUSH1 0x40 MLOAD DUP1 DUP4 SUB DUP2 DUP6 DUP9 DUP9 CALL SWAP4 POP POP POP POP ISZERO DUP1 ISZERO PUSH2 0x534 JUMPI RETURNDATASIZE PUSH0 DUP1 RETURNDATACOPY RETURNDATASIZE PUSH0 REVERT JUMPDEST POP PUSH1 0x3 PUSH0 DUP1 PUSH2 0x100 EXP DUP2 SLOAD DUP2 PUSH1 0xFF MUL NOT AND SWAP1 DUP4 PUSH1 0x5 DUP2 GT ISZERO PUSH2 0x559 JUMPI PUSH2 0x558 PUSH2 0x1366 JUMP JUMPDEST JUMPDEST MUL OR SWAP1 SSTORE POP POP JUMP JUMPDEST PUSH0 PUSH1 0x1 SWAP1 SLOAD SWAP1 PUSH2 0x100 EXP SWAP1 DIV PUSH20 0xFFFFFFFFFFFFFFFFFFFFFFFFFFFFFFFFFFFFFFFF AND PUSH20 0xFFFFFFFFFFFFFFFFFFFFFFFFFFFFFFFFFFFFFFFF AND CALLER PUSH20 0xFFFFFFFFFFFFFFFFFFFFFFFFFFFFFFFFFFFFFFFF AND EQ PUSH2 0x5F0 JUMPI PUSH1 0x40 MLOAD PUSH32 0x8C379A000000000000000000000000000000000000000000000000000000000 DUP2 MSTORE PUSH1 0x4 ADD PUSH2 0x5E7 SWAP1 PUSH2 0x17EE JUMP JUMPDEST PUSH1 0x40 MLOAD DUP1 SWAP2 SUB SWAP1 REVERT JUMPDEST PUSH0 DUP1 PUSH1 0x5 DUP2 GT ISZERO PUSH2 0x604 JUMPI PUSH2 0x603 PUSH2 0x1366 JUMP JUMPDEST JUMPDEST PUSH0 DUP1 SLOAD SWAP1 PUSH2 0x100 EXP SWAP1 DIV PUSH1 0xFF AND PUSH1 0x5 DUP2 GT ISZERO PUSH2 0x623 JUMPI PUSH2 0x622 PUSH2 0x1366 JUMP JUMPDEST JUMPDEST EQ PUSH2 0x663 JUMPI PUSH1 0x40 MLOAD PUSH32 0x8C379A000000000000000000000000000000000000000000000000000000000 DUP2 MSTORE PUSH1 0x4 ADD PUSH2 0x65A SWAP1 PUSH2 0x1856 JUMP JUMPDEST PUSH1 0x40 MLOAD DUP1 SWAP2 SUB SWAP1 REVERT JUMPDEST PUSH1 0x3 SLOAD CALLVALUE EQ PUSH2 0x6A7 JUMPI PUSH1 0x40 MLOAD PUSH32 0x8C379A000000000000000000000000000000000000000000000000000000000 DUP2 MSTORE PUSH1 0x4 ADD PUSH2 0x69E SWAP1 PUSH2 0x18BE JUMP JUMPDEST PUSH1 0x40 MLOAD DUP1 SWAP2 SUB SWAP1 REVERT JUMPDEST PUSH1 0x1 PUSH1 0x6 PUSH1 0x1 PUSH2 0x100 EXP DUP2 SLOAD DUP2 PUSH1 0xFF MUL NOT AND SWAP1 DUP4 ISZERO ISZERO MUL OR SWAP1 SSTORE POP PUSH1 0x1 PUSH0 DUP1 PUSH2 0x100 EXP DUP2 SLOAD DUP2 PUSH1 0xFF MUL NOT AND SWAP1 DUP4 PUSH1 0x5 DUP2 GT ISZERO PUSH2 0x6E6 JUMPI PUSH2 0x6E5 PUSH2 0x1366 JUMP JUMPDEST JUMPDEST MUL OR SWAP1 SSTORE POP PUSH32 0xE1137F40A690BB272EF6ABB40ECD678D3E0A5A521604A6579E7E49CD64545567 PUSH1 0x5 SLOAD CALLVALUE PUSH1 0x40 MLOAD PUSH2 0x71E SWAP3 SWAP2 SWAP1 PUSH2 0x18DC JUMP JUMPDEST PUSH1 0x40 MLOAD DUP1 SWAP2 SUB SWAP1 LOG1 POP JUMP JUMPDEST PUSH1 0x3 SLOAD DUP2 JUMP JUMPDEST PUSH1 0x7 PUSH1 0x20 MSTORE DUP1 PUSH0 MSTORE PUSH1 0x40 PUSH0 KECCAK256 PUSH0 SWAP2 POP SLOAD SWAP1 PUSH2 0x100 EXP SWAP1 DIV PUSH1 0xFF AND DUP2 JUMP JUMPDEST DUP1 CALLVALUE GT PUSH2 0x78E JUMPI PUSH1 0x40 MLOAD PUSH32 0x8C379A000000000000000000000000000000000000000000000000000000000 DUP2 MSTORE PUSH1 0x4 ADD PUSH2 0x785 SWAP1 PUSH2 0x1973 JUMP JUMPDEST PUSH1 0x40 MLOAD DUP1 SWAP2 SUB SWAP1 REVERT JUMPDEST CALLER PUSH0 PUSH1 0x1 PUSH2 0x100 EXP DUP2 SLOAD DUP2 PUSH20 0xFFFFFFFFFFFFFFFFFFFFFFFFFFFFFFFFFFFFFFFF MUL NOT AND SWAP1 DUP4 PUSH20 0xFFFFFFFFFFFFFFFFFFFFFFFFFFFFFFFFFFFFFFFF AND MUL OR SWAP1 SSTORE POP DUP2 PUSH1 0x1 PUSH0 PUSH2 0x100 EXP DUP2 SLOAD DUP2 PUSH20 0xFFFFFFFFFFFFFFFFFFFFFFFFFFFFFFFFFFFFFFFF MUL NOT AND SWAP1 DUP4 PUSH20 0xFFFFFFFFFFFFFFFFFFFFFFFFFFFFFFFFFFFFFFFF AND MUL OR SWAP1 SSTORE POP DUP3 PUSH1 0x5 DUP2 SWAP1 SSTORE POP DUP1 PUSH1 0x4 DUP2 SWAP1 SSTORE POP DUP1 CALLVALUE PUSH2 0x828 SWAP2 SWAP1 PUSH2 0x19BE JUMP JUMPDEST PUSH1 0x3 DUP2 SWAP1 SSTORE POP PUSH0 DUP1 PUSH0 PUSH2 0x100 EXP DUP2 SLOAD DUP2 PUSH1 0xFF MUL NOT AND SWAP1 DUP4 PUSH1 0x5 DUP2 GT ISZERO PUSH2 0x851 JUMPI PUSH2 0x850 PUSH2 0x1366 JUMP JUMPDEST JUMPDEST MUL OR SWAP1 SSTORE POP PUSH32 0xFC215F5A30991A81A74EC61733C1D7CF5FC914FFF34E3600456FD02BE4976F44 PUSH1 0x5 SLOAD PUSH0 PUSH1 0x1 SWAP1 SLOAD SWAP1 PUSH2 0x100 EXP SWAP1 DIV PUSH20 0xFFFFFFFFFFFFFFFFFFFFFFFFFFFFFFFFFFFFFFFF AND PUSH1 0x1 PUSH0 SWAP1 SLOAD SWAP1 PUSH2 0x100 EXP SWAP1 DIV PUSH20 0xFFFFFFFFFFFFFFFFFFFFFFFFFFFFFFFFFFFFFFFF AND PUSH1 0x3 SLOAD PUSH1 0x4 SLOAD PUSH1 0x40 MLOAD PUSH2 0x8D5 SWAP6 SWAP5 SWAP4 SWAP3 SWAP2 SWAP1 PUSH2 0x1A4C JUMP JUMPDEST PUSH1 0x40 MLOAD DUP1 SWAP2 SUB SWAP1 LOG1 POP POP POP JUMP JUMPDEST PUSH0 PUSH1 0x1 SWAP1 SLOAD SWAP1 PUSH2 0x100 EXP SWAP1 DIV PUSH20 0xFFFFFFFFFFFFFFFFFFFFFFFFFFFFFFFFFFFFFFFF AND PUSH20 0xFFFFFFFFFFFFFFFFFFFFFFFFFFFFFFFFFFFFFFFF AND CALLER PUSH20 0xFFFFFFFFFFFFFFFFFFFFFFFFFFFFFFFFFFFFFFFF AND EQ PUSH2 0x971 JUMPI PUSH1 0x40 MLOAD PUSH32 0x8C379A000000000000000000000000000000000000000000000000000000000 DUP2 MSTORE PUSH1 0x4 ADD PUSH2 0x968 SWAP1 PUSH2 0x17EE JUMP JUMPDEST PUSH1 0x40 MLOAD DUP1 SWAP2 SUB SWAP1 REVERT JUMPDEST PUSH1 0x2 DUP1 PUSH1 0x5 DUP2 GT ISZERO PUSH2 0x986 JUMPI PUSH2 0x985 PUSH2 0x1366 JUMP JUMPDEST JUMPDEST PUSH0 DUP1 SLOAD SWAP1 PUSH2 0x100 EXP SWAP1 DIV PUSH1 0xFF AND PUSH1 0x5 DUP2 GT ISZERO PUSH2 0x9A5 JUMPI PUSH2 0x9A4 PUSH2 0x1366 JUMP JUMPDEST JUMPDEST EQ PUSH2 0x9E5 JUMPI PUSH1 0x40 MLOAD PUSH32 0x8C379A000000000000000000000000000000000000000000000000000000000 DUP2 MSTORE PUSH1 0x4 ADD PUSH2 0x9DC SWAP1 PUSH2 0x1856 JUMP JUMPDEST PUSH1 0x40 MLOAD DUP1 SWAP2 SUB SWAP1 REVERT JUMPDEST PUSH1 0x6 PUSH1 0x1 SWAP1 SLOAD SWAP1 PUSH2 0x100 EXP SWAP1 DIV PUSH1 0xFF AND PUSH2 0xA34 JUMPI PUSH1 0x40 MLOAD PUSH32 0x8C379A000000000000000000000000000000000000000000000000000000000 DUP2 MSTORE PUSH1 0x4 ADD PUSH2 0xA2B SWAP1 PUSH2 0x1AE7 JUMP JUMPDEST PUSH1 0x40 MLOAD DUP1 SWAP2 SUB SWAP1 REVERT JUMPDEST PUSH1 0x6 PUSH0 SWAP1 SLOAD SWAP1 PUSH2 0x100 EXP SWAP1 DIV PUSH1 0xFF AND PUSH2 0xA82 JUMPI PUSH1 0x40 MLOAD PUSH32 0x8C379A000000000000000000000000000000000000000000000000000000000 DUP2 MSTORE PUSH1 0x4 ADD PUSH2 0xA79 SWAP1 PUSH2 0x1B4F JUMP JUMPDEST PUSH1 0x40 MLOAD DUP1 SWAP2 SUB SWAP1 REVERT JUMPDEST PUSH1 0x3 PUSH0 DUP1 PUSH2 0x100 EXP DUP2 SLOAD DUP2 PUSH1 0xFF MUL NOT AND SWAP1 DUP4 PUSH1 0x5 DUP2 GT ISZERO PUSH2 0xAA6 JUMPI PUSH2 0xAA5 PUSH2 0x1366 JUMP JUMPDEST JUMPDEST MUL OR SWAP1 SSTORE POP PUSH0 PUSH1 0x6 PUSH1 0x1 PUSH2 0x100 EXP DUP2 SLOAD DUP2 PUSH1 0xFF MUL NOT AND SWAP1 DUP4 ISZERO ISZERO MUL OR SWAP1 SSTORE POP PUSH0 PUSH1 0x1 PUSH0 SWAP1 SLOAD SWAP1 PUSH2 0x100 EXP SWAP1 DIV PUSH20 0xFFFFFFFFFFFFFFFFFFFFFFFFFFFFFFFFFFFFFFFF AND PUSH20 0xFFFFFFFFFFFFFFFFFFFFFFFFFFFFFFFFFFFFFFFF AND PUSH1 0x3 SLOAD PUSH1 0x40 MLOAD PUSH2 0xB0D SWAP1 PUSH2 0x1B9A JUMP JUMPDEST PUSH0 PUSH1 0x40 MLOAD DUP1 DUP4 SUB DUP2 DUP6 DUP8 GAS CALL SWAP3 POP POP POP RETURNDATASIZE DUP1 PUSH0 DUP2 EQ PUSH2 0xB47 JUMPI PUSH1 0x40 MLOAD SWAP2 POP PUSH1 0x1F NOT PUSH1 0x3F RETURNDATASIZE ADD AND DUP3 ADD PUSH1 0x40 MSTORE RETURNDATASIZE DUP3 MSTORE RETURNDATASIZE PUSH0 PUSH1 0x20 DUP5 ADD RETURNDATACOPY PUSH2 0xB4C JUMP JUMPDEST PUSH1 0x60 SWAP2 POP JUMPDEST POP POP SWAP1 POP DUP1 PUSH2 0xB90 JUMPI PUSH1 0x40 MLOAD PUSH32 0x8C379A000000000000000000000000000000000000000000000000000000000 DUP2 MSTORE PUSH1 0x4 ADD PUSH2 0xB87 SWAP1 PUSH2 0x1BF8 JUMP JUMPDEST PUSH1 0x40 MLOAD DUP1 SWAP2 SUB SWAP1 REVERT JUMPDEST PUSH0 PUSH1 0x1 SWAP1 SLOAD SWAP1 PUSH2 0x100 EXP SWAP1 DIV PUSH20 0xFFFFFFFFFFFFFFFFFFFFFFFFFFFFFFFFFFFFFFFF AND PUSH20 0xFFFFFFFFFFFFFFFFFFFFFFFFFFFFFFFFFFFFFFFF AND PUSH1 0x4 SLOAD PUSH1 0x40 MLOAD PUSH2 0xBD7 SWAP1 PUSH2 0x1B9A JUMP JUMPDEST PUSH0 PUSH1 0x40 MLOAD DUP1 DUP4 SUB DUP2 DUP6 DUP8 GAS CALL SWAP3 POP POP POP RETURNDATASIZE DUP1 PUSH0 DUP2 EQ PUSH2 0xC11 JUMPI PUSH1 0x40 MLOAD SWAP2 POP PUSH1 0x1F NOT PUSH1 0x3F RETURNDATASIZE ADD AND DUP3 ADD PUSH1 0x40 MSTORE RETURNDATASIZE DUP3 MSTORE RETURNDATASIZE PUSH0 PUSH1 0x20 DUP5 ADD RETURNDATACOPY PUSH2 0xC16 JUMP JUMPDEST PUSH1 0x60 SWAP2 POP JUMPDEST POP POP DUP1 SWAP2 POP POP DUP1 PUSH2 0xC5C JUMPI PUSH1 0x40 MLOAD PUSH32 0x8C379A000000000000000000000000000000000000000000000000000000000 DUP2 MSTORE PUSH1 0x4 ADD PUSH2 0xC53 SWAP1 PUSH2 0x1C60 JUMP JUMPDEST PUSH1 0x40 MLOAD DUP1 SWAP2 SUB SWAP1 REVERT JUMPDEST PUSH32 0x8F5073D0A7A22BA450E278541077E181AF457BE74BEA91E61F1F99E6BB40748E PUSH1 0x5 SLOAD PUSH1 0x1 PUSH0 SWAP1 SLOAD SWAP1 PUSH2 0x100 EXP SWAP1 DIV PUSH20 0xFFFFFFFFFFFFFFFFFFFFFFFFFFFFFFFFFFFFFFFF AND PUSH1 0x40 MLOAD PUSH2 0xCB0 SWAP3 SWAP2 SWAP1 PUSH2 0x1C7E JUMP JUMPDEST PUSH1 0x40 MLOAD DUP1 SWAP2 SUB SWAP1 LOG1 PUSH32 0x161186077E0CDFA49FAE16D54CE01EA091439DBF14243419593FA6C051C906C8 PUSH1 0x5 SLOAD PUSH1 0x40 MLOAD PUSH2 0xCE9 SWAP2 SWAP1 PUSH2 0x140A JUMP JUMPDEST PUSH1 0x40 MLOAD DUP1 SWAP2 SUB SWAP1 LOG1 POP POP JUMP JUMPDEST PUSH1 0x4 SLOAD DUP2 JUMP JUMPDEST PUSH1 0x2 PUSH0 SWAP1 SLOAD SWAP1 PUSH2 0x100 EXP SWAP1 DIV PUSH20 0xFFFFFFFFFFFFFFFFFFFFFFFFFFFFFFFFFFFFFFFF AND DUP2 JUMP JUMPDEST PUSH1 0x2 DUP1 PUSH1 0x5 DUP2 GT ISZERO PUSH2 0xD35 JUMPI PUSH2 0xD34 PUSH2 0x1366 JUMP JUMPDEST JUMPDEST PUSH0 DUP1 SLOAD SWAP1 PUSH2 0x100 EXP SWAP1 DIV PUSH1 0xFF AND PUSH1 0x5 DUP2 GT ISZERO PUSH2 0xD54 JUMPI PUSH2 0xD53 PUSH2 0x1366 JUMP JUMPDEST JUMPDEST EQ PUSH2 0xD94 JUMPI PUSH1 0x40 MLOAD PUSH32 0x8C379A000000000000000000000000000000000000000000000000000000000 DUP2 MSTORE PUSH1 0x4 ADD PUSH2 0xD8B SWAP1 PUSH2 0x1856 JUMP JUMPDEST PUSH1 0x40 MLOAD DUP1 SWAP2 SUB SWAP1 REVERT JUMPDEST PUSH0 PUSH1 0x1 SWAP1 SLOAD SWAP1 PUSH2 0x100 EXP SWAP1 DIV PUSH20 0xFFFFFFFFFFFFFFFFFFFFFFFFFFFFFFFFFFFFFFFF AND PUSH20 0xFFFFFFFFFFFFFFFFFFFFFFFFFFFFFFFFFFFFFFFF AND CALLER PUSH20 0xFFFFFFFFFFFFFFFFFFFFFFFFFFFFFFFFFFFFFFFF AND EQ DUP1 PUSH2 0xE3B JUMPI POP PUSH1 0x1 PUSH0 SWAP1 SLOAD SWAP1 PUSH2 0x100 EXP SWAP1 DIV PUSH20 0xFFFFFFFFFFFFFFFFFFFFFFFFFFFFFFFFFFFFFFFF AND PUSH20 0xFFFFFFFFFFFFFFFFFFFFFFFFFFFFFFFFFFFFFFFF AND CALLER PUSH20 0xFFFFFFFFFFFFFFFFFFFFFFFFFFFFFFFFFFFFFFFF AND EQ JUMPDEST PUSH2 0xE7A JUMPI PUSH1 0x40 MLOAD PUSH32 0x8C379A000000000000000000000000000000000000000000000000000000000 DUP2 MSTORE PUSH1 0x4 ADD PUSH2 0xE71 SWAP1 PUSH2 0x1D15 JUMP JUMPDEST PUSH1 0x40 MLOAD DUP1 SWAP2 SUB SWAP1 REVERT JUMPDEST PUSH1 0x4 PUSH0 DUP1 PUSH2 0x100 EXP DUP2 SLOAD DUP2 PUSH1 0xFF MUL NOT AND SWAP1 DUP4 PUSH1 0x5 DUP2 GT ISZERO PUSH2 0xE9E JUMPI PUSH2 0xE9D PUSH2 0x1366 JUMP JUMPDEST JUMPDEST MUL OR SWAP1 SSTORE POP PUSH1 0x1 PUSH1 0x7 PUSH0 PUSH1 0x5 SLOAD DUP2 MSTORE PUSH1 0x20 ADD SWAP1 DUP2 MSTORE PUSH1 0x20 ADD PUSH0 KECCAK256 PUSH0 PUSH2 0x100 EXP DUP2 SLOAD DUP2 PUSH1 0xFF MUL NOT AND SWAP1 DUP4 ISZERO ISZERO MUL OR SWAP1 SSTORE POP PUSH32 0x84A477DF8A28A4276CA6DEE4458A06C3015F30C477D9C949EDE4E13FF8A552B4 PUSH1 0x5 SLOAD CALLER PUSH1 0x40 MLOAD PUSH2 0xF01 SWAP3 SWAP2 SWAP1 PUSH2 0x1D33 JUMP JUMPDEST PUSH1 0x40 MLOAD DUP1 SWAP2 SUB SWAP1 LOG1 POP JUMP JUMPDEST PUSH1 0x6 PUSH0 SWAP1 SLOAD SWAP1 PUSH2 0x100 EXP SWAP1 DIV PUSH1 0xFF AND DUP2 JUMP JUMPDEST PUSH0 PUSH1 0x1 SWAP1 SLOAD SWAP1 PUSH2 0x100 EXP SWAP1 DIV PUSH20 0xFFFFFFFFFFFFFFFFFFFFFFFFFFFFFFFFFFFFFFFF AND DUP2 JUMP JUMPDEST PUSH1 0x2 PUSH0 SWAP1 SLOAD SWAP1 PUSH2 0x100 EXP SWAP1 DIV PUSH20 0xFFFFFFFFFFFFFFFFFFFFFFFFFFFFFFFFFFFFFFFF AND PUSH20 0xFFFFFFFFFFFFFFFFFFFFFFFFFFFFFFFFFFFFFFFF AND CALLER PUSH20 0xFFFFFFFFFFFFFFFFFFFFFFFFFFFFFFFFFFFFFFFF AND EQ PUSH2 0xFD2 JUMPI PUSH1 0x40 MLOAD PUSH32 0x8C379A000000000000000000000000000000000000000000000000000000000 DUP2 MSTORE PUSH1 0x4 ADD PUSH2 0xFC9 SWAP1 PUSH2 0x1DCA JUMP JUMPDEST PUSH1 0x40 MLOAD DUP1 SWAP2 SUB SWAP1 REVERT JUMPDEST PUSH1 0x4 DUP1 PUSH1 0x5 DUP2 GT ISZERO PUSH2 0xFE7 JUMPI PUSH2 0xFE6 PUSH2 0x1366 JUMP JUMPDEST JUMPDEST PUSH0 DUP1 SLOAD SWAP1 PUSH2 0x100 EXP SWAP1 DIV PUSH1 0xFF AND PUSH1 0x5 DUP2 GT ISZERO PUSH2 0x1006 JUMPI PUSH2 0x1005 PUSH2 0x1366 JUMP JUMPDEST JUMPDEST EQ PUSH2 0x1046 JUMPI PUSH1 0x40 MLOAD PUSH32 0x8C379A000000000000000000000000000000000000000000000000000000000 DUP2 MSTORE PUSH1 0x4 ADD PUSH2 0x103D SWAP1 PUSH2 0x1856 JUMP JUMPDEST PUSH1 0x40 MLOAD DUP1 SWAP2 SUB SWAP1 REVERT JUMPDEST PUSH1 0x5 PUSH0 DUP1 PUSH2 0x100 EXP DUP2 SLOAD DUP2 PUSH1 0xFF MUL NOT AND SWAP1 DUP4 PUSH1 0x5 DUP2 GT ISZERO PUSH2 0x106A JUMPI PUSH2 0x1069 PUSH2 0x1366 JUMP JUMPDEST JUMPDEST MUL OR SWAP1 SSTORE POP PUSH0 PUSH1 0x7 PUSH0 PUSH1 0x5 SLOAD DUP2 MSTORE PUSH1 0x20 ADD SWAP1 DUP2 MSTORE PUSH1 0x20 ADD PUSH0 KECCAK256 PUSH0 PUSH2 0x100 EXP DUP2 SLOAD DUP2 PUSH1 0xFF MUL NOT AND SWAP1 DUP4 ISZERO ISZERO MUL OR SWAP1 SSTORE POP PUSH32 0x831764AC02A33C193CBA23A0DE34C986E9B50402BF3C9FEBF6FF2F63D4C0435D PUSH1 0x5 SLOAD DUP4 PUSH1 0x40 MLOAD PUSH2 0x10CC SWAP3 SWAP2 SWAP1 PUSH2 0x1E38 JUMP JUMPDEST PUSH1 0x40 MLOAD DUP1 SWAP2 SUB SWAP1 LOG1 POP POP JUMP JUMPDEST PUSH1 0x1 PUSH0 SWAP1 SLOAD SWAP1 PUSH2 0x100 EXP SWAP1 DIV PUSH20 0xFFFFFFFFFFFFFFFFFFFFFFFFFFFFFFFFFFFFFFFF AND PUSH20 0xFFFFFFFFFFFFFFFFFFFFFFFFFFFFFFFFFFFFFFFF AND CALLER PUSH20 0xFFFFFFFFFFFFFFFFFFFFFFFFFFFFFFFFFFFFFFFF AND EQ PUSH2 0x1167 JUMPI PUSH1 0x40 MLOAD PUSH32 0x8C379A000000000000000000000000000000000000000000000000000000000 DUP2 MSTORE PUSH1 0x4 ADD PUSH2 0x115E SWAP1 PUSH2 0x1ED6 JUMP JUMPDEST PUSH1 0x40 MLOAD DUP1 SWAP2 SUB SWAP1 REVERT JUMPDEST PUSH1 0x1 DUP1 PUSH1 0x5 DUP2 GT ISZERO PUSH2 0x117C JUMPI PUSH2 0x117B PUSH2 0x1366 JUMP JUMPDEST JUMPDEST PUSH0 DUP1 SLOAD SWAP1 PUSH2 0x100 EXP SWAP1 DIV PUSH1 0xFF AND PUSH1 0x5 DUP2 GT ISZERO PUSH2 0x119B JUMPI PUSH2 0x119A PUSH2 0x1366 JUMP JUMPDEST JUMPDEST EQ PUSH2 0x11DB JUMPI PUSH1 0x40 MLOAD PUSH32 0x8C379A000000000000000000000000000000000000000000000000000000000 DUP2 MSTORE PUSH1 0x4 ADD PUSH2 0x11D2 SWAP1 PUSH2 0x1856 JUMP JUMPDEST PUSH1 0x40 MLOAD DUP1 SWAP2 SUB SWAP1 REVERT JUMPDEST PUSH1 0x1 PUSH1 0x6 PUSH0 PUSH2 0x100 EXP DUP2 SLOAD DUP2 PUSH1 0xFF MUL NOT AND SWAP1 DUP4 ISZERO ISZERO MUL OR SWAP1 SSTORE POP PUSH1 0x2 PUSH0 DUP1 PUSH2 0x100 EXP DUP2 SLOAD DUP2 PUSH1 0xFF MUL NOT AND SWAP1 DUP4 PUSH1 0x5 DUP2 GT ISZERO PUSH2 0x1219 JUMPI PUSH2 0x1218 PUSH2 0x1366 JUMP JUMPDEST JUMPDEST MUL OR SWAP1 SSTORE POP PUSH32 0x6041F9D8AFD08F868C84C410D8277BC0413ACC3357DD18459B9A726DCBBCA5A4 PUSH1 0x5 SLOAD PUSH1 0x40 MLOAD PUSH2 0x124F SWAP2 SWAP1 PUSH2 0x140A JUMP JUMPDEST PUSH1 0x40 MLOAD DUP1 SWAP2 SUB SWAP1 LOG1 POP JUMP JUMPDEST PUSH1 0x6 PUSH1 0x1 SWAP1 SLOAD SWAP1 PUSH2 0x100 EXP SWAP1 DIV PUSH1 0xFF AND DUP2 JUMP JUMPDEST PUSH0 DUP1 PUSH0 DUP1 PUSH0 DUP1 PUSH0 DUP1 PUSH0 PUSH1 0x1 SWAP1 SLOAD SWAP1 PUSH2 0x100 EXP SWAP1 DIV PUSH20 0xFFFFFFFFFFFFFFFFFFFFFFFFFFFFFFFFFFFFFFFF AND PUSH1 0x1 PUSH0 SWAP1 SLOAD SWAP1 PUSH2 0x100 EXP SWAP1 DIV PUSH20 0xFFFFFFFFFFFFFFFFFFFFFFFFFFFFFFFFFFFFFFFF AND PUSH1 0x5 SLOAD PUSH1 0x3 SLOAD PUSH1 0x4 SLOAD PUSH0 DUP1 SLOAD SWAP1 PUSH2 0x100 EXP SWAP1 DIV PUSH1 0xFF AND PUSH1 0x6 PUSH1 0x1 SWAP1 SLOAD SWAP1 PUSH2 0x100 EXP SWAP1 DIV PUSH1 0xFF AND PUSH1 0x6 PUSH0 SWAP1 SLOAD SWAP1 PUSH2 0x100 EXP SWAP1 DIV PUSH1 0xFF AND SWAP8 POP SWAP8 POP SWAP8 POP SWAP8 POP SWAP8 POP SWAP8 POP SWAP8 POP SWAP8 POP SWAP1 SWAP2 SWAP3 SWAP4 SWAP5 SWAP6 SWAP7 SWAP8 JUMP JUMPDEST PUSH1 0x5 SLOAD DUP2 JUMP JUMPDEST PUSH0 PUSH20 0xFFFFFFFFFFFFFFFFFFFFFFFFFFFFFFFFFFFFFFFF DUP3 AND SWAP1 POP SWAP2 SWAP1 POP JUMP JUMPDEST PUSH0 PUSH2 0x1337 DUP3 PUSH2 0x130E JUMP JUMPDEST SWAP1 POP SWAP2 SWAP1 POP JUMP JUMPDEST PUSH2 0x1347 DUP2 PUSH2 0x132D JUMP JUMPDEST DUP3 MSTORE POP POP JUMP JUMPDEST PUSH0 PUSH1 0x20 DUP3 ADD SWAP1 POP PUSH2 0x1360 PUSH0 DUP4 ADD DUP5 PUSH2 0x133E JUMP JUMPDEST SWAP3 SWAP2 POP POP JUMP JUMPDEST PUSH32 0x4E487B7100000000000000000000000000000000000000000000000000000000 PUSH0 MSTORE PUSH1 0x21 PUSH1 0x4 MSTORE PUSH1 0x24 PUSH0 REVERT JUMPDEST PUSH1 0x6 DUP2 LT PUSH2 0x13A4 JUMPI PUSH2 0x13A3 PUSH2 0x1366 JUMP JUMPDEST JUMPDEST POP JUMP JUMPDEST PUSH0 DUP2 SWAP1 POP PUSH2 0x13B4 DUP3 PUSH2 0x1393 JUMP JUMPDEST SWAP2 SWAP1 POP JUMP JUMPDEST PUSH0 PUSH2 0x13C3 DUP3 PUSH2 0x13A7 JUMP JUMPDEST SWAP1 POP SWAP2 SWAP1 POP JUMP JUMPDEST PUSH2 0x13D3 DUP2 PUSH2 0x13B9 JUMP JUMPDEST DUP3 MSTORE POP POP JUMP JUMPDEST PUSH0 PUSH1 0x20 DUP3 ADD SWAP1 POP PUSH2 0x13EC PUSH0 DUP4 ADD DUP5 PUSH2 0x13CA JUMP JUMPDEST SWAP3 SWAP2 POP POP JUMP JUMPDEST PUSH0 DUP2 SWAP1 POP SWAP2 SWAP1 POP JUMP JUMPDEST PUSH2 0x1404 DUP2 PUSH2 0x13F2 JUMP JUMPDEST DUP3 MSTORE POP POP JUMP JUMPDEST PUSH0 PUSH1 0x20 DUP3 ADD SWAP1 POP PUSH2 0x141D PUSH0 DUP4 ADD DUP5 PUSH2 0x13FB JUMP JUMPDEST SWAP3 SWAP2 POP POP JUMP JUMPDEST PUSH0 PUSH1 0x40 MLOAD SWAP1 POP SWAP1 JUMP JUMPDEST PUSH0 DUP1 REVERT JUMPDEST PUSH0 DUP1 REVERT JUMPDEST PUSH2 0x143D DUP2 PUSH2 0x13F2 JUMP JUMPDEST DUP2 EQ PUSH2 0x1447 JUMPI PUSH0 DUP1 REVERT JUMPDEST POP JUMP JUMPDEST PUSH0 DUP2 CALLDATALOAD SWAP1 POP PUSH2 0x1458 DUP2 PUSH2 0x1434 JUMP JUMPDEST SWAP3 SWAP2 POP POP JUMP JUMPDEST PUSH0 PUSH1 0x20 DUP3 DUP5 SUB SLT ISZERO PUSH2 0x1473 JUMPI PUSH2 0x1472 PUSH2 0x142C JUMP JUMPDEST JUMPDEST PUSH0 PUSH2 0x1480 DUP5 DUP3 DUP6 ADD PUSH2 0x144A JUMP JUMPDEST SWAP2 POP POP SWAP3 SWAP2 POP POP JUMP JUMPDEST PUSH0 DUP2 ISZERO ISZERO SWAP1 POP SWAP2 SWAP1 POP JUMP JUMPDEST PUSH2 0x149D DUP2 PUSH2 0x1489 JUMP JUMPDEST DUP3 MSTORE POP POP JUMP JUMPDEST PUSH0 PUSH1 0x20 DUP3 ADD SWAP1 POP PUSH2 0x14B6 PUSH0 DUP4 ADD DUP5 PUSH2 0x1494 JUMP JUMPDEST SWAP3 SWAP2 POP POP JUMP JUMPDEST PUSH2 0x14C5 DUP2 PUSH2 0x132D JUMP JUMPDEST DUP2 EQ PUSH2 0x14CF JUMPI PUSH0 DUP1 REVERT JUMPDEST POP JUMP JUMPDEST PUSH0 DUP2 CALLDATALOAD SWAP1 POP PUSH2 0x14E0 DUP2 PUSH2 0x14BC JUMP JUMPDEST SWAP3 SWAP2 POP POP JUMP JUMPDEST PUSH0 DUP1 PUSH0 PUSH1 0x60 DUP5 DUP7 SUB SLT ISZERO PUSH2 0x14FD JUMPI PUSH2 0x14FC PUSH2 0x142C JUMP JUMPDEST JUMPDEST PUSH0 PUSH2 0x150A DUP7 DUP3 DUP8 ADD PUSH2 0x144A JUMP JUMPDEST SWAP4 POP POP PUSH1 0x20 PUSH2 0x151B DUP7 DUP3 DUP8 ADD PUSH2 0x14D2 JUMP JUMPDEST SWAP3 POP POP PUSH1 0x40 PUSH2 0x152C DUP7 DUP3 DUP8 ADD PUSH2 0x144A JUMP JUMPDEST SWAP2 POP POP SWAP3 POP SWAP3 POP SWAP3 JUMP JUMPDEST PUSH0 PUSH2 0x1540 DUP3 PUSH2 0x130E JUMP JUMPDEST SWAP1 POP SWAP2 SWAP1 POP JUMP JUMPDEST PUSH2 0x1550 DUP2 PUSH2 0x1536 JUMP JUMPDEST DUP3 MSTORE POP POP JUMP JUMPDEST PUSH0 PUSH1 0x20 DUP3 ADD SWAP1 POP PUSH2 0x1569 PUSH0 DUP4 ADD DUP5 PUSH2 0x1547 JUMP JUMPDEST SWAP3 SWAP2 POP POP JUMP JUMPDEST PUSH0 DUP1 REVERT JUMPDEST PUSH0 DUP1 REVERT JUMPDEST PUSH0 PUSH1 0x1F NOT PUSH1 0x1F DUP4 ADD AND SWAP1 POP SWAP2 SWAP1 POP JUMP JUMPDEST PUSH32 0x4E487B7100000000000000000000000000000000000000000000000000000000 PUSH0 MSTORE PUSH1 0x41 PUSH1 0x4 MSTORE PUSH1 0x24 PUSH0 REVERT JUMPDEST PUSH2 0x15BD DUP3 PUSH2 0x1577 JUMP JUMPDEST DUP2 ADD DUP2 DUP2 LT PUSH8 0xFFFFFFFFFFFFFFFF DUP3 GT OR ISZERO PUSH2 0x15DC JUMPI PUSH2 0x15DB PUSH2 0x1587 JUMP JUMPDEST JUMPDEST DUP1 PUSH1 0x40 MSTORE POP POP POP JUMP JUMPDEST PUSH0 PUSH2 0x15EE PUSH2 0x1423 JUMP JUMPDEST SWAP1 POP PUSH2 0x15FA DUP3 DUP3 PUSH2 0x15B4 JUMP JUMPDEST SWAP2 SWAP1 POP JUMP JUMPDEST PUSH0 PUSH8 0xFFFFFFFFFFFFFFFF DUP3 GT ISZERO PUSH2 0x1619 JUMPI PUSH2 0x1618 PUSH2 0x1587 JUMP JUMPDEST JUMPDEST PUSH2 0x1622 DUP3 PUSH2 0x1577 JUMP JUMPDEST SWAP1 POP PUSH1 0x20 DUP2 ADD SWAP1 POP SWAP2 SWAP1 POP JUMP JUMPDEST DUP3 DUP2 DUP4 CALLDATACOPY PUSH0 DUP4 DUP4 ADD MSTORE POP POP POP JUMP JUMPDEST PUSH0 PUSH2 0x164F PUSH2 0x164A DUP5 PUSH2 0x15FF JUMP JUMPDEST PUSH2 0x15E5 JUMP JUMPDEST SWAP1 POP DUP3 DUP2 MSTORE PUSH1 0x20 DUP2 ADD DUP5 DUP5 DUP5 ADD GT ISZERO PUSH2 0x166B JUMPI PUSH2 0x166A PUSH2 0x1573 JUMP JUMPDEST JUMPDEST PUSH2 0x1676 DUP5 DUP3 DUP6 PUSH2 0x162F JUMP JUMPDEST POP SWAP4 SWAP3 POP POP POP JUMP JUMPDEST PUSH0 DUP3 PUSH1 0x1F DUP4 ADD SLT PUSH2 0x1692 JUMPI PUSH2 0x1691 PUSH2 0x156F JUMP JUMPDEST JUMPDEST DUP2 CALLDATALOAD PUSH2 0x16A2 DUP5 DUP3 PUSH1 0x20 DUP7 ADD PUSH2 0x163D JUMP JUMPDEST SWAP2 POP POP SWAP3 SWAP2 POP POP JUMP JUMPDEST PUSH0 PUSH1 0x20 DUP3 DUP5 SUB SLT ISZERO PUSH2 0x16C0 JUMPI PUSH2 0x16BF PUSH2 0x142C JUMP JUMPDEST JUMPDEST PUSH0 DUP3 ADD CALLDATALOAD PUSH8 0xFFFFFFFFFFFFFFFF DUP2 GT ISZERO PUSH2 0x16DD JUMPI PUSH2 0x16DC PUSH2 0x1430 JUMP JUMPDEST JUMPDEST PUSH2 0x16E9 DUP5 DUP3 DUP6 ADD PUSH2 0x167E JUMP JUMPDEST SWAP2 POP POP SWAP3 SWAP2 POP POP JUMP JUMPDEST PUSH0 PUSH2 0x100 DUP3 ADD SWAP1 POP PUSH2 0x1706 PUSH0 DUP4 ADD DUP12 PUSH2 0x1547 JUMP JUMPDEST PUSH2 0x1713 PUSH1 0x20 DUP4 ADD DUP11 PUSH2 0x1547 JUMP JUMPDEST PUSH2 0x1720 PUSH1 0x40 DUP4 ADD DUP10 PUSH2 0x13FB JUMP JUMPDEST PUSH2 0x172D PUSH1 0x60 DUP4 ADD DUP9 PUSH2 0x13FB JUMP JUMPDEST PUSH2 0x173A PUSH1 0x80 DUP4 ADD DUP8 PUSH2 0x13FB JUMP JUMPDEST PUSH2 0x1747 PUSH1 0xA0 DUP4 ADD DUP7 PUSH2 0x13CA JUMP JUMPDEST PUSH2 0x1754 PUSH1 0xC0 DUP4 ADD DUP6 PUSH2 0x1494 JUMP JUMPDEST PUSH2 0x1761 PUSH1 0xE0 DUP4 ADD DUP5 PUSH2 0x1494 JUMP JUMPDEST SWAP10 SWAP9 POP POP POP POP POP POP POP POP POP JUMP JUMPDEST PUSH0 DUP3 DUP3 MSTORE PUSH1 0x20 DUP3 ADD SWAP1 POP SWAP3 SWAP2 POP POP JUMP JUMPDEST PUSH32 0x4F6E6C792062757965722063616E2063616C6C20746869732066756E6374696F PUSH0 DUP3 ADD MSTORE PUSH32 0x6E2E000000000000000000000000000000000000000000000000000000000000 PUSH1 0x20 DUP3 ADD MSTORE POP JUMP JUMPDEST PUSH0 PUSH2 0x17D8 PUSH1 0x22 DUP4 PUSH2 0x176E JUMP JUMPDEST SWAP2 POP PUSH2 0x17E3 DUP3 PUSH2 0x177E JUMP JUMPDEST PUSH1 0x40 DUP3 ADD SWAP1 POP SWAP2 SWAP1 POP JUMP JUMPDEST PUSH0 PUSH1 0x20 DUP3 ADD SWAP1 POP DUP2 DUP2 SUB PUSH0 DUP4 ADD MSTORE PUSH2 0x1805 DUP2 PUSH2 0x17CC JUMP JUMPDEST SWAP1 POP SWAP2 SWAP1 POP JUMP JUMPDEST PUSH32 0x496E76616C6964207472616E73616374696F6E207374617475732E0000000000 PUSH0 DUP3 ADD MSTORE POP JUMP JUMPDEST PUSH0 PUSH2 0x1840 PUSH1 0x1B DUP4 PUSH2 0x176E JUMP JUMPDEST SWAP2 POP PUSH2 0x184B DUP3 PUSH2 0x180C JUMP JUMPDEST PUSH1 0x20 DUP3 ADD SWAP1 POP SWAP2 SWAP1 POP JUMP JUMPDEST PUSH0 PUSH1 0x20 DUP3 ADD SWAP1 POP DUP2 DUP2 SUB PUSH0 DUP4 ADD MSTORE PUSH2 0x186D DUP2 PUSH2 0x1834 JUMP JUMPDEST SWAP1 POP SWAP2 SWAP1 POP JUMP JUMPDEST PUSH32 0x496E636F7272656374206465706F73697420616D6F756E740000000000000000 PUSH0 DUP3 ADD MSTORE POP JUMP JUMPDEST PUSH0 PUSH2 0x18A8 PUSH1 0x18 DUP4 PUSH2 0x176E JUMP JUMPDEST SWAP2 POP PUSH2 0x18B3 DUP3 PUSH2 0x1874 JUMP JUMPDEST PUSH1 0x20 DUP3 ADD SWAP1 POP SWAP2 SWAP1 POP JUMP JUMPDEST PUSH0 PUSH1 0x20 DUP3 ADD SWAP1 POP DUP2 DUP2 SUB PUSH0 DUP4 ADD MSTORE PUSH2 0x18D5 DUP2 PUSH2 0x189C JUMP JUMPDEST SWAP1 POP SWAP2 SWAP1 POP JUMP JUMPDEST PUSH0 PUSH1 0x40 DUP3 ADD SWAP1 POP PUSH2 0x18EF PUSH0 DUP4 ADD DUP6 PUSH2 0x13FB JUMP JUMPDEST PUSH2 0x18FC PUSH1 0x20 DUP4 ADD DUP5 PUSH2 0x13FB JUMP JUMPDEST SWAP4 SWAP3 POP POP POP JUMP JUMPDEST PUSH32 0x5472616E73616374696F6E2076616C7565206D75737420626520677265617465 PUSH0 DUP3 ADD MSTORE PUSH32 0x72207468616E2074686520657363726F77206665650000000000000000000000 PUSH1 0x20 DUP3 ADD MSTORE POP JUMP JUMPDEST PUSH0 PUSH2 0x195D PUSH1 0x35 DUP4 PUSH2 0x176E JUMP JUMPDEST SWAP2 POP PUSH2 0x1968 DUP3 PUSH2 0x1903 JUMP JUMPDEST PUSH1 0x40 DUP3 ADD SWAP1 POP SWAP2 SWAP1 POP JUMP JUMPDEST PUSH0 PUSH1 0x20 DUP3 ADD SWAP1 POP DUP2 DUP2 SUB PUSH0 DUP4 ADD MSTORE PUSH2 0x198A DUP2 PUSH2 0x1951 JUMP JUMPDEST SWAP1 POP SWAP2 SWAP1 POP JUMP JUMPDEST PUSH32 0x4E487B7100000000000000000000000000000000000000000000000000000000 PUSH0 MSTORE PUSH1 0x11 PUSH1 0x4 MSTORE PUSH1 0x24 PUSH0 REVERT JUMPDEST PUSH0 PUSH2 0x19C8 DUP3 PUSH2 0x13F2 JUMP JUMPDEST SWAP2 POP PUSH2 0x19D3 DUP4 PUSH2 0x13F2 JUMP JUMPDEST SWAP3 POP DUP3 DUP3 SUB SWAP1 POP DUP2 DUP2 GT ISZERO PUSH2 0x19EB JUMPI PUSH2 0x19EA PUSH2 0x1991 JUMP JUMPDEST JUMPDEST SWAP3 SWAP2 POP POP JUMP JUMPDEST PUSH0 DUP2 SWAP1 POP SWAP2 SWAP1 POP JUMP JUMPDEST PUSH0 PUSH2 0x1A14 PUSH2 0x1A0F PUSH2 0x1A0A DUP5 PUSH2 0x130E JUMP JUMPDEST PUSH2 0x19F1 JUMP JUMPDEST PUSH2 0x130E JUMP JUMPDEST SWAP1 POP SWAP2 SWAP1 POP JUMP JUMPDEST PUSH0 PUSH2 0x1A25 DUP3 PUSH2 0x19FA JUMP JUMPDEST SWAP1 POP SWAP2 SWAP1 POP JUMP JUMPDEST PUSH0 PUSH2 0x1A36 DUP3 PUSH2 0x1A1B JUMP JUMPDEST SWAP1 POP SWAP2 SWAP1 POP JUMP JUMPDEST PUSH2 0x1A46 DUP2 PUSH2 0x1A2C JUMP JUMPDEST DUP3 MSTORE POP POP JUMP JUMPDEST PUSH0 PUSH1 0xA0 DUP3 ADD SWAP1 POP PUSH2 0x1A5F PUSH0 DUP4 ADD DUP9 PUSH2 0x13FB JUMP JUMPDEST PUSH2 0x1A6C PUSH1 0x20 DUP4 ADD DUP8 PUSH2 0x1A3D JUMP JUMPDEST PUSH2 0x1A79 PUSH1 0x40 DUP4 ADD DUP7 PUSH2 0x1A3D JUMP JUMPDEST PUSH2 0x1A86 PUSH1 0x60 DUP4 ADD DUP6 PUSH2 0x13FB JUMP JUMPDEST PUSH2 0x1A93 PUSH1 0x80 DUP4 ADD DUP5 PUSH2 0x13FB JUMP JUMPDEST SWAP7 SWAP6 POP POP POP POP POP POP JUMP JUMPDEST PUSH32 0x46756E647320617265206E6F7420696E20657363726F77000000000000000000 PUSH0 DUP3 ADD MSTORE POP JUMP JUMPDEST PUSH0 PUSH2 0x1AD1 PUSH1 0x17 DUP4 PUSH2 0x176E JUMP JUMPDEST SWAP2 POP PUSH2 0x1ADC DUP3 PUSH2 0x1A9D JUMP JUMPDEST PUSH1 0x20 DUP3 ADD SWAP1 POP SWAP2 SWAP1 POP JUMP JUMPDEST PUSH0 PUSH1 0x20 DUP3 ADD SWAP1 POP DUP2 DUP2 SUB PUSH0 DUP4 ADD MSTORE PUSH2 0x1AFE DUP2 PUSH2 0x1AC5 JUMP JUMPDEST SWAP1 POP SWAP2 SWAP1 POP JUMP JUMPDEST PUSH32 0x446F63756D656E7473206D757374206265207665726966696564000000000000 PUSH0 DUP3 ADD MSTORE POP JUMP JUMPDEST PUSH0 PUSH2 0x1B39 PUSH1 0x1A DUP4 PUSH2 0x176E JUMP JUMPDEST SWAP2 POP PUSH2 0x1B44 DUP3 PUSH2 0x1B05 JUMP JUMPDEST PUSH1 0x20 DUP3 ADD SWAP1 POP SWAP2 SWAP1 POP JUMP JUMPDEST PUSH0 PUSH1 0x20 DUP3 ADD SWAP1 POP DUP2 DUP2 SUB PUSH0 DUP4 ADD MSTORE PUSH2 0x1B66 DUP2 PUSH2 0x1B2D JUMP JUMPDEST SWAP1 POP SWAP2 SWAP1 POP JUMP JUMPDEST PUSH0 DUP2 SWAP1 POP SWAP3 SWAP2 POP POP JUMP JUMPDEST POP JUMP JUMPDEST PUSH0 PUSH2 0x1B85 PUSH0 DUP4 PUSH2 0x1B6D JUMP JUMPDEST SWAP2 POP PUSH2 0x1B90 DUP3 PUSH2 0x1B77 JUMP JUMPDEST PUSH0 DUP3 ADD SWAP1 POP SWAP2 SWAP1 POP JUMP JUMPDEST PUSH0 PUSH2 0x1BA4 DUP3 PUSH2 0x1B7A JUMP JUMPDEST SWAP2 POP DUP2 SWAP1 POP SWAP2 SWAP1 POP JUMP JUMPDEST PUSH32 0x5472616E7366657220746F2073656C6C6572206661696C656400000000000000 PUSH0 DUP3 ADD MSTORE POP JUMP JUMPDEST PUSH0 PUSH2 0x1BE2 PUSH1 0x19 DUP4 PUSH2 0x176E JUMP JUMPDEST SWAP2 POP PUSH2 0x1BED DUP3 PUSH2 0x1BAE JUMP JUMPDEST PUSH1 0x20 DUP3 ADD SWAP1 POP SWAP2 SWAP1 POP JUMP JUMPDEST PUSH0 PUSH1 0x20 DUP3 ADD SWAP1 POP DUP2 DUP2 SUB PUSH0 DUP4 ADD MSTORE PUSH2 0x1C0F DUP2 PUSH2 0x1BD6 JUMP JUMPDEST SWAP1 POP SWAP2 SWAP1 POP JUMP JUMPDEST PUSH32 0x457363726F772066656520726566756E64206661696C65640000000000000000 PUSH0 DUP3 ADD MSTORE POP JUMP JUMPDEST PUSH0 PUSH2 0x1C4A PUSH1 0x18 DUP4 PUSH2 0x176E JUMP JUMPDEST SWAP2 POP PUSH2 0x1C55 DUP3 PUSH2 0x1C16 JUMP JUMPDEST PUSH1 0x20 DUP3 ADD SWAP1 POP SWAP2 SWAP1 POP JUMP JUMPDEST PUSH0 PUSH1 0x20 DUP3 ADD SWAP1 POP DUP2 DUP2 SUB PUSH0 DUP4 ADD MSTORE PUSH2 0x1C77 DUP2 PUSH2 0x1C3E JUMP JUMPDEST SWAP1 POP SWAP2 SWAP1 POP JUMP JUMPDEST PUSH0 PUSH1 0x40 DUP3 ADD SWAP1 POP PUSH2 0x1C91 PUSH0 DUP4 ADD DUP6 PUSH2 0x13FB JUMP JUMPDEST PUSH2 0x1C9E PUSH1 0x20 DUP4 ADD DUP5 PUSH2 0x1A3D JUMP JUMPDEST SWAP4 SWAP3 POP POP POP JUMP JUMPDEST PUSH32 0x4F6E6C79206275796572206F722073656C6C65722063616E2072616973652061 PUSH0 DUP3 ADD MSTORE PUSH32 0x2064697370757465000000000000000000000000000000000000000000000000 PUSH1 0x20 DUP3 ADD MSTORE POP JUMP JUMPDEST PUSH0 PUSH2 0x1CFF PUSH1 0x28 DUP4 PUSH2 0x176E JUMP JUMPDEST SWAP2 POP PUSH2 0x1D0A DUP3 PUSH2 0x1CA5 JUMP JUMPDEST PUSH1 0x40 DUP3 ADD SWAP1 POP SWAP2 SWAP1 POP JUMP JUMPDEST PUSH0 PUSH1 0x20 DUP3 ADD SWAP1 POP DUP2 DUP2 SUB PUSH0 DUP4 ADD MSTORE PUSH2 0x1D2C DUP2 PUSH2 0x1CF3 JUMP JUMPDEST SWAP1 POP SWAP2 SWAP1 POP JUMP JUMPDEST PUSH0 PUSH1 0x40 DUP3 ADD SWAP1 POP PUSH2 0x1D46 PUSH0 DUP4 ADD DUP6 PUSH2 0x13FB JUMP JUMPDEST PUSH2 0x1D53 PUSH1 0x20 DUP4 ADD DUP5 PUSH2 0x1547 JUMP JUMPDEST SWAP4 SWAP3 POP POP POP JUMP JUMPDEST PUSH32 0x4F6E6C792061726269747261746F722063616E207265736F6C76652064697370 PUSH0 DUP3 ADD MSTORE PUSH32 0x7574657300000000000000000000000000000000000000000000000000000000 PUSH1 0x20 DUP3 ADD MSTORE POP JUMP JUMPDEST PUSH0 PUSH2 0x1DB4 PUSH1 0x24 DUP4 PUSH2 0x176E JUMP JUMPDEST SWAP2 POP PUSH2 0x1DBF DUP3 PUSH2 0x1D5A JUMP JUMPDEST PUSH1 0x40 DUP3 ADD SWAP1 POP SWAP2 SWAP1 POP JUMP JUMPDEST PUSH0 PUSH1 0x20 DUP3 ADD SWAP1 POP DUP2 DUP2 SUB PUSH0 DUP4 ADD MSTORE PUSH2 0x1DE1 DUP2 PUSH2 0x1DA8 JUMP JUMPDEST SWAP1 POP SWAP2 SWAP1 POP JUMP JUMPDEST PUSH0 DUP2 MLOAD SWAP1 POP SWAP2 SWAP1 POP JUMP JUMPDEST DUP3 DUP2 DUP4 MCOPY PUSH0 DUP4 DUP4 ADD MSTORE POP POP POP JUMP JUMPDEST PUSH0 PUSH2 0x1E0A DUP3 PUSH2 0x1DE8 JUMP JUMPDEST PUSH2 0x1E14 DUP2 DUP6 PUSH2 0x176E JUMP JUMPDEST SWAP4 POP PUSH2 0x1E24 DUP2 DUP6 PUSH1 0x20 DUP7 ADD PUSH2 0x1DF2 JUMP JUMPDEST PUSH2 0x1E2D DUP2 PUSH2 0x1577 JUMP JUMPDEST DUP5 ADD SWAP2 POP POP SWAP3 SWAP2 POP POP JUMP JUMPDEST PUSH0 PUSH1 0x40 DUP3 ADD SWAP1 POP PUSH2 0x1E4B PUSH0 DUP4 ADD DUP6 PUSH2 0x13FB JUMP JUMPDEST DUP2 DUP2 SUB PUSH1 0x20 DUP4 ADD MSTORE PUSH2 0x1E5D DUP2 DUP5 PUSH2 0x1E00 JUMP JUMPDEST SWAP1 POP SWAP4 SWAP3 POP POP POP JUMP JUMPDEST PUSH32 0x4F6E6C792073656C6C65722063616E2063616C6C20746869732066756E637469 PUSH0 DUP3 ADD MSTORE PUSH32 0x6F6E2E0000000000000000000000000000000000000000000000000000000000 PUSH1 0x20 DUP3 ADD MSTORE POP JUMP JUMPDEST PUSH0 PUSH2 0x1EC0 PUSH1 0x23 DUP4 PUSH2 0x176E JUMP JUMPDEST SWAP2 POP PUSH2 0x1ECB DUP3 PUSH2 0x1E66 JUMP JUMPDEST PUSH1 0x40 DUP3 ADD SWAP1 POP SWAP2 SWAP1 POP JUMP JUMPDEST PUSH0 PUSH1 0x20 DUP3 ADD SWAP1 POP DUP2 DUP2 SUB PUSH0 DUP4 ADD MSTORE PUSH2 0x1EED DUP2 PUSH2 0x1EB4 JUMP JUMPDEST SWAP1 POP SWAP2 SWAP1 POP JUMP INVALID LOG2 PUSH5 0x6970667358 0x22 SLT KECCAK256 0xED SWAP4 SWAP10 DUP13 0xA8 PUSH1 0x85 DUP13 0xE7 STOP 0xCA PUSH27 0x51C083999ED2924E4E9E12427419E5AA7FA29CF164736F6C634300 ADDMOD BYTE STOP CALLER "
				},
				"gasEstimates": {
					"creation": {
						"codeDepositCost": "1595600",
						"executionCost": "infinite",
						"totalCost": "infinite"
					},
					"external": {
						"abortTransaction()": "infinite",
						"arbitrator()": "2531",
						"buyer()": "2647",
						"depositToEscrow()": "infinite",
						"disputes(uint256)": "2830",
						"documentsVerified()": "2533",
						"escrowFee()": "2536",
						"fundsInEscrow()": "2583",
						"getTransactionDetails()": "infinite",
						"initiateTransaction(uint256,address,uint256)": "infinite",
						"propertyId()": "2535",
						"raiseDispute()": "61214",
						"releaseFunds()": "infinite",
						"resolveDispute(string)": "infinite",
						"seller()": "2532",
						"status()": "2597",
						"value()": "2448",
						"verifyDocuments()": "56408"
					}
				},
				"methodIdentifiers": {
					"abortTransaction()": "370c6001",
					"arbitrator()": "6cc6cde1",
					"buyer()": "7150d8ae",
					"depositToEscrow()": "3eb5241d",
					"disputes(uint256)": "564a565d",
					"documentsVerified()": "6f651901",
					"escrowFee()": "6a5b428b",
					"fundsInEscrow()": "d7c5b29f",
					"getTransactionDetails()": "d8a5cc03",
					"initiateTransaction(uint256,address,uint256)": "5a22147e",
					"propertyId()": "ee7a3b8e",
					"raiseDispute()": "6daa2d44",
					"releaseFunds()": "69d89575",
					"resolveDispute(string)": "8f2238ba",
					"seller()": "08551a53",
					"status()": "200d2ed2",
					"value()": "3fa4f245",
					"verifyDocuments()": "d695ddb9"
				}
			},
			"storageLayout": {
				"storage": [
					{
						"astId": 11,
						"contract": "contracts/Updated_1/TransactionContract_2.sol:TransactionContract",
						"label": "status",
						"offset": 0,
						"slot": "0",
						"type": "t_enum(Status)8"
					},
					{
						"astId": 13,
						"contract": "contracts/Updated_1/TransactionContract_2.sol:TransactionContract",
						"label": "buyer",
						"offset": 1,
						"slot": "0",
						"type": "t_address_payable"
					},
					{
						"astId": 15,
						"contract": "contracts/Updated_1/TransactionContract_2.sol:TransactionContract",
						"label": "seller",
						"offset": 0,
						"slot": "1",
						"type": "t_address_payable"
					},
					{
						"astId": 17,
						"contract": "contracts/Updated_1/TransactionContract_2.sol:TransactionContract",
						"label": "arbitrator",
						"offset": 0,
						"slot": "2",
						"type": "t_address"
					},
					{
						"astId": 19,
						"contract": "contracts/Updated_1/TransactionContract_2.sol:TransactionContract",
						"label": "value",
						"offset": 0,
						"slot": "3",
						"type": "t_uint256"
					},
					{
						"astId": 21,
						"contract": "contracts/Updated_1/TransactionContract_2.sol:TransactionContract",
						"label": "escrowFee",
						"offset": 0,
						"slot": "4",
						"type": "t_uint256"
					},
					{
						"astId": 23,
						"contract": "contracts/Updated_1/TransactionContract_2.sol:TransactionContract",
						"label": "propertyId",
						"offset": 0,
						"slot": "5",
						"type": "t_uint256"
					},
					{
						"astId": 25,
						"contract": "contracts/Updated_1/TransactionContract_2.sol:TransactionContract",
						"label": "documentsVerified",
						"offset": 0,
						"slot": "6",
						"type": "t_bool"
					},
					{
						"astId": 27,
						"contract": "contracts/Updated_1/TransactionContract_2.sol:TransactionContract",
						"label": "fundsInEscrow",
						"offset": 1,
						"slot": "6",
						"type": "t_bool"
					},
					{
						"astId": 31,
						"contract": "contracts/Updated_1/TransactionContract_2.sol:TransactionContract",
						"label": "disputes",
						"offset": 0,
						"slot": "7",
						"type": "t_mapping(t_uint256,t_bool)"
					}
				],
				"types": {
					"t_address": {
						"encoding": "inplace",
						"label": "address",
						"numberOfBytes": "20"
					},
					"t_address_payable": {
						"encoding": "inplace",
						"label": "address payable",
						"numberOfBytes": "20"
					},
					"t_bool": {
						"encoding": "inplace",
						"label": "bool",
						"numberOfBytes": "1"
					},
					"t_enum(Status)8": {
						"encoding": "inplace",
						"label": "enum TransactionContract.Status",
						"numberOfBytes": "1"
					},
					"t_mapping(t_uint256,t_bool)": {
						"encoding": "mapping",
						"key": "t_uint256",
						"label": "mapping(uint256 => bool)",
						"numberOfBytes": "32",
						"value": "t_bool"
					},
					"t_uint256": {
						"encoding": "inplace",
						"label": "uint256",
						"numberOfBytes": "32"
					}
				}
			},
			"userdoc": {
				"kind": "user",
				"methods": {},
				"version": 1
			}
		}
	}
}