{
	"contracts/Updated_1/DocumentContract.sol": {
		"DocumentContract": {
			"abi": [
				{
					"anonymous": false,
					"inputs": [
						{
							"indexed": false,
							"internalType": "uint256",
							"name": "documentId",
							"type": "uint256"
						},
						{
							"indexed": true,
							"internalType": "address",
							"name": "uploader",
							"type": "address"
						},
						{
							"indexed": false,
							"internalType": "string",
							"name": "hash",
							"type": "string"
						}
					],
					"name": "DocumentUploaded",
					"type": "event"
				},
				{
					"anonymous": false,
					"inputs": [
						{
							"indexed": false,
							"internalType": "uint256",
							"name": "documentId",
							"type": "uint256"
						}
					],
					"name": "DocumentVerified",
					"type": "event"
				},
				{
					"inputs": [],
					"name": "documentCount",
					"outputs": [
						{
							"internalType": "uint256",
							"name": "",
							"type": "uint256"
						}
					],
					"stateMutability": "view",
					"type": "function"
				},
				{
					"inputs": [
						{
							"internalType": "uint256",
							"name": "",
							"type": "uint256"
						}
					],
					"name": "documents",
					"outputs": [
						{
							"internalType": "uint256",
							"name": "id",
							"type": "uint256"
						},
						{
							"internalType": "address",
							"name": "uploader",
							"type": "address"
						},
						{
							"internalType": "string",
							"name": "hash",
							"type": "string"
						},
						{
							"internalType": "bool",
							"name": "isVerified",
							"type": "bool"
						}
					],
					"stateMutability": "view",
					"type": "function"
				},
				{
					"inputs": [
						{
							"internalType": "uint256",
							"name": "documentId",
							"type": "uint256"
						}
					],
					"name": "isDocumentVerified",
					"outputs": [
						{
							"internalType": "bool",
							"name": "",
							"type": "bool"
						}
					],
					"stateMutability": "view",
					"type": "function"
				},
				{
					"inputs": [
						{
							"internalType": "string",
							"name": "hash",
							"type": "string"
						}
					],
					"name": "uploadDocument",
					"outputs": [],
					"stateMutability": "nonpayable",
					"type": "function"
				},
				{
					"inputs": [
						{
							"internalType": "uint256",
							"name": "documentId",
							"type": "uint256"
						}
					],
					"name": "verifyDocument",
					"outputs": [],
					"stateMutability": "nonpayable",
					"type": "function"
				}
			],
			"devdoc": {
				"kind": "dev",
				"methods": {},
				"version": 1
			},
			"evm": {
				"assembly": "    /* \"contracts/Updated_1/DocumentContract.sol\":60:1212  contract DocumentContract {... */\n  mstore(0x40, 0x80)\n  callvalue\n  dup1\n  iszero\n  tag_1\n  jumpi\n  0x00\n  dup1\n  revert\ntag_1:\n  pop\n  dataSize(sub_0)\n  dup1\n  dataOffset(sub_0)\n  0x00\n  codecopy\n  0x00\n  return\nstop\n\nsub_0: assembly {\n        /* \"contracts/Updated_1/DocumentContract.sol\":60:1212  contract DocumentContract {... */\n      mstore(0x40, 0x80)\n      callvalue\n      dup1\n      iszero\n      tag_1\n      jumpi\n      0x00\n      dup1\n      revert\n    tag_1:\n      pop\n      jumpi(tag_2, lt(calldatasize, 0x04))\n      shr(0xe0, calldataload(0x00))\n      dup1\n      0x6dda61d9\n      eq\n      tag_3\n      jumpi\n      dup1\n      0xa5b16b2e\n      eq\n      tag_4\n      jumpi\n      dup1\n      0xb7f5576d\n      eq\n      tag_5\n      jumpi\n      dup1\n      0xc2ed2b05\n      eq\n      tag_6\n      jumpi\n      dup1\n      0xf1675bef\n      eq\n      tag_7\n      jumpi\n    tag_2:\n      0x00\n      dup1\n      revert\n        /* \"contracts/Updated_1/DocumentContract.sol\":792:1068  function verifyDocument(uint256 documentId) public {... */\n    tag_3:\n      tag_8\n      0x04\n      dup1\n      calldatasize\n      sub\n      dup2\n      add\n      swap1\n      tag_9\n      swap2\n      swap1\n      tag_10\n      jump\t// in\n    tag_9:\n      tag_11\n      jump\t// in\n    tag_8:\n      stop\n        /* \"contracts/Updated_1/DocumentContract.sol\":221:249  uint256 public documentCount */\n    tag_4:\n      tag_12\n      tag_13\n      jump\t// in\n    tag_12:\n      mload(0x40)\n      tag_14\n      swap2\n      swap1\n      tag_15\n      jump\t// in\n    tag_14:\n      mload(0x40)\n      dup1\n      swap2\n      sub\n      swap1\n      return\n        /* \"contracts/Updated_1/DocumentContract.sol\":449:784  function uploadDocument(string memory hash) public {... */\n    tag_5:\n      tag_16\n      0x04\n      dup1\n      calldatasize\n      sub\n      dup2\n      add\n      swap1\n      tag_17\n      swap2\n      swap1\n      tag_18\n      jump\t// in\n    tag_17:\n      tag_19\n      jump\t// in\n    tag_16:\n      stop\n        /* \"contracts/Updated_1/DocumentContract.sol\":256:301  mapping(uint256 => Document) public documents */\n    tag_6:\n      tag_20\n      0x04\n      dup1\n      calldatasize\n      sub\n      dup2\n      add\n      swap1\n      tag_21\n      swap2\n      swap1\n      tag_10\n      jump\t// in\n    tag_21:\n      tag_22\n      jump\t// in\n    tag_20:\n      mload(0x40)\n      tag_23\n      swap5\n      swap4\n      swap3\n      swap2\n      swap1\n      tag_24\n      jump\t// in\n    tag_23:\n      mload(0x40)\n      dup1\n      swap2\n      sub\n      swap1\n      return\n        /* \"contracts/Updated_1/DocumentContract.sol\":1076:1209  function isDocumentVerified(uint256 documentId) public view returns (bool) {... */\n    tag_7:\n      tag_25\n      0x04\n      dup1\n      calldatasize\n      sub\n      dup2\n      add\n      swap1\n      tag_26\n      swap2\n      swap1\n      tag_10\n      jump\t// in\n    tag_26:\n      tag_27\n      jump\t// in\n    tag_25:\n      mload(0x40)\n      tag_28\n      swap2\n      swap1\n      tag_29\n      jump\t// in\n    tag_28:\n      mload(0x40)\n      dup1\n      swap2\n      sub\n      swap1\n      return\n        /* \"contracts/Updated_1/DocumentContract.sol\":792:1068  function verifyDocument(uint256 documentId) public {... */\n    tag_11:\n        /* \"contracts/Updated_1/DocumentContract.sol\":854:879  Document storage document */\n      0x00\n        /* \"contracts/Updated_1/DocumentContract.sol\":882:891  documents */\n      0x01\n        /* \"contracts/Updated_1/DocumentContract.sol\":882:903  documents[documentId] */\n      0x00\n        /* \"contracts/Updated_1/DocumentContract.sol\":892:902  documentId */\n      dup4\n        /* \"contracts/Updated_1/DocumentContract.sol\":882:903  documents[documentId] */\n      dup2\n      mstore\n      0x20\n      add\n      swap1\n      dup2\n      mstore\n      0x20\n      add\n      0x00\n      keccak256\n        /* \"contracts/Updated_1/DocumentContract.sol\":854:903  Document storage document = documents[documentId] */\n      swap1\n      pop\n        /* \"contracts/Updated_1/DocumentContract.sol\":923:931  document */\n      dup1\n        /* \"contracts/Updated_1/DocumentContract.sol\":923:942  document.isVerified */\n      0x03\n      add\n      0x00\n      swap1\n      sload\n      swap1\n      0x0100\n      exp\n      swap1\n      div\n      0xff\n      and\n        /* \"contracts/Updated_1/DocumentContract.sol\":922:942  !document.isVerified */\n      iszero\n        /* \"contracts/Updated_1/DocumentContract.sol\":914:975  require(!document.isVerified, \"Document is already verified\") */\n      tag_31\n      jumpi\n      mload(0x40)\n      0x08c379a000000000000000000000000000000000000000000000000000000000\n      dup2\n      mstore\n      0x04\n      add\n      tag_32\n      swap1\n      tag_33\n      jump\t// in\n    tag_32:\n      mload(0x40)\n      dup1\n      swap2\n      sub\n      swap1\n      revert\n    tag_31:\n        /* \"contracts/Updated_1/DocumentContract.sol\":1010:1014  true */\n      0x01\n        /* \"contracts/Updated_1/DocumentContract.sol\":988:996  document */\n      dup2\n        /* \"contracts/Updated_1/DocumentContract.sol\":988:1007  document.isVerified */\n      0x03\n      add\n      0x00\n        /* \"contracts/Updated_1/DocumentContract.sol\":988:1014  document.isVerified = true */\n      0x0100\n      exp\n      dup2\n      sload\n      dup2\n      0xff\n      mul\n      not\n      and\n      swap1\n      dup4\n      iszero\n      iszero\n      mul\n      or\n      swap1\n      sstore\n      pop\n        /* \"contracts/Updated_1/DocumentContract.sol\":1032:1060  DocumentVerified(documentId) */\n      0x4b93fd5160fbc8b35d08aff650902cf41c86e6df325a3eabab5bcca811976cf7\n        /* \"contracts/Updated_1/DocumentContract.sol\":1049:1059  documentId */\n      dup3\n        /* \"contracts/Updated_1/DocumentContract.sol\":1032:1060  DocumentVerified(documentId) */\n      mload(0x40)\n      tag_34\n      swap2\n      swap1\n      tag_15\n      jump\t// in\n    tag_34:\n      mload(0x40)\n      dup1\n      swap2\n      sub\n      swap1\n      log1\n        /* \"contracts/Updated_1/DocumentContract.sol\":843:1068  {... */\n      pop\n        /* \"contracts/Updated_1/DocumentContract.sol\":792:1068  function verifyDocument(uint256 documentId) public {... */\n      pop\n      jump\t// out\n        /* \"contracts/Updated_1/DocumentContract.sol\":221:249  uint256 public documentCount */\n    tag_13:\n      sload(0x00)\n      dup2\n      jump\t// out\n        /* \"contracts/Updated_1/DocumentContract.sol\":449:784  function uploadDocument(string memory hash) public {... */\n    tag_19:\n        /* \"contracts/Updated_1/DocumentContract.sol\":511:524  documentCount */\n      0x00\n      dup1\n        /* \"contracts/Updated_1/DocumentContract.sol\":511:526  documentCount++ */\n      dup2\n      sload\n      dup1\n      swap3\n      swap2\n      swap1\n      tag_36\n      swap1\n      tag_37\n      jump\t// in\n    tag_36:\n      swap2\n      swap1\n      pop\n      sstore\n      pop\n        /* \"contracts/Updated_1/DocumentContract.sol\":564:709  Document({... */\n      mload(0x40)\n      dup1\n      0x80\n      add\n      0x40\n      mstore\n      dup1\n        /* \"contracts/Updated_1/DocumentContract.sol\":592:605  documentCount */\n      sload(0x00)\n        /* \"contracts/Updated_1/DocumentContract.sol\":564:709  Document({... */\n      dup2\n      mstore\n      0x20\n      add\n        /* \"contracts/Updated_1/DocumentContract.sol\":630:640  msg.sender */\n      caller\n        /* \"contracts/Updated_1/DocumentContract.sol\":564:709  Document({... */\n      0xffffffffffffffffffffffffffffffffffffffff\n      and\n      dup2\n      mstore\n      0x20\n      add\n        /* \"contracts/Updated_1/DocumentContract.sol\":661:665  hash */\n      dup3\n        /* \"contracts/Updated_1/DocumentContract.sol\":564:709  Document({... */\n      dup2\n      mstore\n      0x20\n      add\n        /* \"contracts/Updated_1/DocumentContract.sol\":692:697  false */\n      0x00\n        /* \"contracts/Updated_1/DocumentContract.sol\":564:709  Document({... */\n      iszero\n      iszero\n      dup2\n      mstore\n      pop\n        /* \"contracts/Updated_1/DocumentContract.sol\":537:546  documents */\n      0x01\n        /* \"contracts/Updated_1/DocumentContract.sol\":537:561  documents[documentCount] */\n      0x00\n        /* \"contracts/Updated_1/DocumentContract.sol\":547:560  documentCount */\n      dup1\n      sload\n        /* \"contracts/Updated_1/DocumentContract.sol\":537:561  documents[documentCount] */\n      dup2\n      mstore\n      0x20\n      add\n      swap1\n      dup2\n      mstore\n      0x20\n      add\n      0x00\n      keccak256\n        /* \"contracts/Updated_1/DocumentContract.sol\":537:709  documents[documentCount] = Document({... */\n      0x00\n      dup3\n      add\n      mload\n      dup2\n      0x00\n      add\n      sstore\n      0x20\n      dup3\n      add\n      mload\n      dup2\n      0x01\n      add\n      exp(0x0100, 0x00)\n      dup2\n      sload\n      dup2\n      0xffffffffffffffffffffffffffffffffffffffff\n      mul\n      not\n      and\n      swap1\n      dup4\n      0xffffffffffffffffffffffffffffffffffffffff\n      and\n      mul\n      or\n      swap1\n      sstore\n      pop\n      0x40\n      dup3\n      add\n      mload\n      dup2\n      0x02\n      add\n      swap1\n      dup2\n      tag_38\n      swap2\n      swap1\n      tag_39\n      jump\t// in\n    tag_38:\n      pop\n      0x60\n      dup3\n      add\n      mload\n      dup2\n      0x03\n      add\n      exp(0x0100, 0x00)\n      dup2\n      sload\n      dup2\n      0xff\n      mul\n      not\n      and\n      swap1\n      dup4\n      iszero\n      iszero\n      mul\n      or\n      swap1\n      sstore\n      pop\n      swap1\n      pop\n      pop\n        /* \"contracts/Updated_1/DocumentContract.sol\":759:769  msg.sender */\n      caller\n        /* \"contracts/Updated_1/DocumentContract.sol\":727:776  DocumentUploaded(documentCount, msg.sender, hash) */\n      0xffffffffffffffffffffffffffffffffffffffff\n      and\n      0xffaa94bbdb06ce69a1cd16a5a05500d4475f2b769b7da620be594121265017f9\n        /* \"contracts/Updated_1/DocumentContract.sol\":744:757  documentCount */\n      sload(0x00)\n        /* \"contracts/Updated_1/DocumentContract.sol\":771:775  hash */\n      dup4\n        /* \"contracts/Updated_1/DocumentContract.sol\":727:776  DocumentUploaded(documentCount, msg.sender, hash) */\n      mload(0x40)\n      tag_40\n      swap3\n      swap2\n      swap1\n      tag_41\n      jump\t// in\n    tag_40:\n      mload(0x40)\n      dup1\n      swap2\n      sub\n      swap1\n      log2\n        /* \"contracts/Updated_1/DocumentContract.sol\":449:784  function uploadDocument(string memory hash) public {... */\n      pop\n      jump\t// out\n        /* \"contracts/Updated_1/DocumentContract.sol\":256:301  mapping(uint256 => Document) public documents */\n    tag_22:\n      mstore(0x20, 0x01)\n      dup1\n      0x00\n      mstore\n      keccak256(0x00, 0x40)\n      0x00\n      swap2\n      pop\n      swap1\n      pop\n      dup1\n      0x00\n      add\n      sload\n      swap1\n      dup1\n      0x01\n      add\n      0x00\n      swap1\n      sload\n      swap1\n      0x0100\n      exp\n      swap1\n      div\n      0xffffffffffffffffffffffffffffffffffffffff\n      and\n      swap1\n      dup1\n      0x02\n      add\n      dup1\n      sload\n      tag_42\n      swap1\n      tag_43\n      jump\t// in\n    tag_42:\n      dup1\n      0x1f\n      add\n      0x20\n      dup1\n      swap2\n      div\n      mul\n      0x20\n      add\n      mload(0x40)\n      swap1\n      dup2\n      add\n      0x40\n      mstore\n      dup1\n      swap3\n      swap2\n      swap1\n      dup2\n      dup2\n      mstore\n      0x20\n      add\n      dup3\n      dup1\n      sload\n      tag_44\n      swap1\n      tag_43\n      jump\t// in\n    tag_44:\n      dup1\n      iszero\n      tag_45\n      jumpi\n      dup1\n      0x1f\n      lt\n      tag_46\n      jumpi\n      0x0100\n      dup1\n      dup4\n      sload\n      div\n      mul\n      dup4\n      mstore\n      swap2\n      0x20\n      add\n      swap2\n      jump(tag_45)\n    tag_46:\n      dup3\n      add\n      swap2\n      swap1\n      0x00\n      mstore\n      keccak256(0x00, 0x20)\n      swap1\n    tag_47:\n      dup2\n      sload\n      dup2\n      mstore\n      swap1\n      0x01\n      add\n      swap1\n      0x20\n      add\n      dup1\n      dup4\n      gt\n      tag_47\n      jumpi\n      dup3\n      swap1\n      sub\n      0x1f\n      and\n      dup3\n      add\n      swap2\n    tag_45:\n      pop\n      pop\n      pop\n      pop\n      pop\n      swap1\n      dup1\n      0x03\n      add\n      0x00\n      swap1\n      sload\n      swap1\n      0x0100\n      exp\n      swap1\n      div\n      0xff\n      and\n      swap1\n      pop\n      dup5\n      jump\t// out\n        /* \"contracts/Updated_1/DocumentContract.sol\":1076:1209  function isDocumentVerified(uint256 documentId) public view returns (bool) {... */\n    tag_27:\n        /* \"contracts/Updated_1/DocumentContract.sol\":1145:1149  bool */\n      0x00\n        /* \"contracts/Updated_1/DocumentContract.sol\":1169:1178  documents */\n      0x01\n        /* \"contracts/Updated_1/DocumentContract.sol\":1169:1190  documents[documentId] */\n      0x00\n        /* \"contracts/Updated_1/DocumentContract.sol\":1179:1189  documentId */\n      dup4\n        /* \"contracts/Updated_1/DocumentContract.sol\":1169:1190  documents[documentId] */\n      dup2\n      mstore\n      0x20\n      add\n      swap1\n      dup2\n      mstore\n      0x20\n      add\n      0x00\n      keccak256\n        /* \"contracts/Updated_1/DocumentContract.sol\":1169:1201  documents[documentId].isVerified */\n      0x03\n      add\n      0x00\n      swap1\n      sload\n      swap1\n      0x0100\n      exp\n      swap1\n      div\n      0xff\n      and\n        /* \"contracts/Updated_1/DocumentContract.sol\":1162:1201  return documents[documentId].isVerified */\n      swap1\n      pop\n        /* \"contracts/Updated_1/DocumentContract.sol\":1076:1209  function isDocumentVerified(uint256 documentId) public view returns (bool) {... */\n      swap2\n      swap1\n      pop\n      jump\t// out\n        /* \"#utility.yul\":7:82   */\n    tag_49:\n        /* \"#utility.yul\":40:46   */\n      0x00\n        /* \"#utility.yul\":73:75   */\n      0x40\n        /* \"#utility.yul\":67:76   */\n      mload\n        /* \"#utility.yul\":57:76   */\n      swap1\n      pop\n        /* \"#utility.yul\":7:82   */\n      swap1\n      jump\t// out\n        /* \"#utility.yul\":88:205   */\n    tag_50:\n        /* \"#utility.yul\":197:198   */\n      0x00\n        /* \"#utility.yul\":194:195   */\n      dup1\n        /* \"#utility.yul\":187:199   */\n      revert\n        /* \"#utility.yul\":211:328   */\n    tag_51:\n        /* \"#utility.yul\":320:321   */\n      0x00\n        /* \"#utility.yul\":317:318   */\n      dup1\n        /* \"#utility.yul\":310:322   */\n      revert\n        /* \"#utility.yul\":334:411   */\n    tag_52:\n        /* \"#utility.yul\":371:378   */\n      0x00\n        /* \"#utility.yul\":400:405   */\n      dup2\n        /* \"#utility.yul\":389:405   */\n      swap1\n      pop\n        /* \"#utility.yul\":334:411   */\n      swap2\n      swap1\n      pop\n      jump\t// out\n        /* \"#utility.yul\":417:539   */\n    tag_53:\n        /* \"#utility.yul\":490:514   */\n      tag_100\n        /* \"#utility.yul\":508:513   */\n      dup2\n        /* \"#utility.yul\":490:514   */\n      tag_52\n      jump\t// in\n    tag_100:\n        /* \"#utility.yul\":483:488   */\n      dup2\n        /* \"#utility.yul\":480:515   */\n      eq\n        /* \"#utility.yul\":470:533   */\n      tag_101\n      jumpi\n        /* \"#utility.yul\":529:530   */\n      0x00\n        /* \"#utility.yul\":526:527   */\n      dup1\n        /* \"#utility.yul\":519:531   */\n      revert\n        /* \"#utility.yul\":470:533   */\n    tag_101:\n        /* \"#utility.yul\":417:539   */\n      pop\n      jump\t// out\n        /* \"#utility.yul\":545:684   */\n    tag_54:\n        /* \"#utility.yul\":591:596   */\n      0x00\n        /* \"#utility.yul\":629:635   */\n      dup2\n        /* \"#utility.yul\":616:636   */\n      calldataload\n        /* \"#utility.yul\":607:636   */\n      swap1\n      pop\n        /* \"#utility.yul\":645:678   */\n      tag_103\n        /* \"#utility.yul\":672:677   */\n      dup2\n        /* \"#utility.yul\":645:678   */\n      tag_53\n      jump\t// in\n    tag_103:\n        /* \"#utility.yul\":545:684   */\n      swap3\n      swap2\n      pop\n      pop\n      jump\t// out\n        /* \"#utility.yul\":690:1019   */\n    tag_10:\n        /* \"#utility.yul\":749:755   */\n      0x00\n        /* \"#utility.yul\":798:800   */\n      0x20\n        /* \"#utility.yul\":786:795   */\n      dup3\n        /* \"#utility.yul\":777:784   */\n      dup5\n        /* \"#utility.yul\":773:796   */\n      sub\n        /* \"#utility.yul\":769:801   */\n      slt\n        /* \"#utility.yul\":766:885   */\n      iszero\n      tag_105\n      jumpi\n        /* \"#utility.yul\":804:883   */\n      tag_106\n      tag_50\n      jump\t// in\n    tag_106:\n        /* \"#utility.yul\":766:885   */\n    tag_105:\n        /* \"#utility.yul\":924:925   */\n      0x00\n        /* \"#utility.yul\":949:1002   */\n      tag_107\n        /* \"#utility.yul\":994:1001   */\n      dup5\n        /* \"#utility.yul\":985:991   */\n      dup3\n        /* \"#utility.yul\":974:983   */\n      dup6\n        /* \"#utility.yul\":970:992   */\n      add\n        /* \"#utility.yul\":949:1002   */\n      tag_54\n      jump\t// in\n    tag_107:\n        /* \"#utility.yul\":939:1002   */\n      swap2\n      pop\n        /* \"#utility.yul\":895:1012   */\n      pop\n        /* \"#utility.yul\":690:1019   */\n      swap3\n      swap2\n      pop\n      pop\n      jump\t// out\n        /* \"#utility.yul\":1025:1143   */\n    tag_55:\n        /* \"#utility.yul\":1112:1136   */\n      tag_109\n        /* \"#utility.yul\":1130:1135   */\n      dup2\n        /* \"#utility.yul\":1112:1136   */\n      tag_52\n      jump\t// in\n    tag_109:\n        /* \"#utility.yul\":1107:1110   */\n      dup3\n        /* \"#utility.yul\":1100:1137   */\n      mstore\n        /* \"#utility.yul\":1025:1143   */\n      pop\n      pop\n      jump\t// out\n        /* \"#utility.yul\":1149:1371   */\n    tag_15:\n        /* \"#utility.yul\":1242:1246   */\n      0x00\n        /* \"#utility.yul\":1280:1282   */\n      0x20\n        /* \"#utility.yul\":1269:1278   */\n      dup3\n        /* \"#utility.yul\":1265:1283   */\n      add\n        /* \"#utility.yul\":1257:1283   */\n      swap1\n      pop\n        /* \"#utility.yul\":1293:1364   */\n      tag_111\n        /* \"#utility.yul\":1361:1362   */\n      0x00\n        /* \"#utility.yul\":1350:1359   */\n      dup4\n        /* \"#utility.yul\":1346:1363   */\n      add\n        /* \"#utility.yul\":1337:1343   */\n      dup5\n        /* \"#utility.yul\":1293:1364   */\n      tag_55\n      jump\t// in\n    tag_111:\n        /* \"#utility.yul\":1149:1371   */\n      swap3\n      swap2\n      pop\n      pop\n      jump\t// out\n        /* \"#utility.yul\":1377:1494   */\n    tag_56:\n        /* \"#utility.yul\":1486:1487   */\n      0x00\n        /* \"#utility.yul\":1483:1484   */\n      dup1\n        /* \"#utility.yul\":1476:1488   */\n      revert\n        /* \"#utility.yul\":1500:1617   */\n    tag_57:\n        /* \"#utility.yul\":1609:1610   */\n      0x00\n        /* \"#utility.yul\":1606:1607   */\n      dup1\n        /* \"#utility.yul\":1599:1611   */\n      revert\n        /* \"#utility.yul\":1623:1725   */\n    tag_58:\n        /* \"#utility.yul\":1664:1670   */\n      0x00\n        /* \"#utility.yul\":1715:1717   */\n      0x1f\n        /* \"#utility.yul\":1711:1718   */\n      not\n        /* \"#utility.yul\":1706:1708   */\n      0x1f\n        /* \"#utility.yul\":1699:1704   */\n      dup4\n        /* \"#utility.yul\":1695:1709   */\n      add\n        /* \"#utility.yul\":1691:1719   */\n      and\n        /* \"#utility.yul\":1681:1719   */\n      swap1\n      pop\n        /* \"#utility.yul\":1623:1725   */\n      swap2\n      swap1\n      pop\n      jump\t// out\n        /* \"#utility.yul\":1731:1911   */\n    tag_59:\n        /* \"#utility.yul\":1779:1856   */\n      0x4e487b7100000000000000000000000000000000000000000000000000000000\n        /* \"#utility.yul\":1776:1777   */\n      0x00\n        /* \"#utility.yul\":1769:1857   */\n      mstore\n        /* \"#utility.yul\":1876:1880   */\n      0x41\n        /* \"#utility.yul\":1873:1874   */\n      0x04\n        /* \"#utility.yul\":1866:1881   */\n      mstore\n        /* \"#utility.yul\":1900:1904   */\n      0x24\n        /* \"#utility.yul\":1897:1898   */\n      0x00\n        /* \"#utility.yul\":1890:1905   */\n      revert\n        /* \"#utility.yul\":1917:2198   */\n    tag_60:\n        /* \"#utility.yul\":2000:2027   */\n      tag_117\n        /* \"#utility.yul\":2022:2026   */\n      dup3\n        /* \"#utility.yul\":2000:2027   */\n      tag_58\n      jump\t// in\n    tag_117:\n        /* \"#utility.yul\":1992:1998   */\n      dup2\n        /* \"#utility.yul\":1988:2028   */\n      add\n        /* \"#utility.yul\":2130:2136   */\n      dup2\n        /* \"#utility.yul\":2118:2128   */\n      dup2\n        /* \"#utility.yul\":2115:2137   */\n      lt\n        /* \"#utility.yul\":2094:2112   */\n      0xffffffffffffffff\n        /* \"#utility.yul\":2082:2092   */\n      dup3\n        /* \"#utility.yul\":2079:2113   */\n      gt\n        /* \"#utility.yul\":2076:2138   */\n      or\n        /* \"#utility.yul\":2073:2161   */\n      iszero\n      tag_118\n      jumpi\n        /* \"#utility.yul\":2141:2159   */\n      tag_119\n      tag_59\n      jump\t// in\n    tag_119:\n        /* \"#utility.yul\":2073:2161   */\n    tag_118:\n        /* \"#utility.yul\":2181:2191   */\n      dup1\n        /* \"#utility.yul\":2177:2179   */\n      0x40\n        /* \"#utility.yul\":2170:2192   */\n      mstore\n        /* \"#utility.yul\":1960:2198   */\n      pop\n        /* \"#utility.yul\":1917:2198   */\n      pop\n      pop\n      jump\t// out\n        /* \"#utility.yul\":2204:2333   */\n    tag_61:\n        /* \"#utility.yul\":2238:2244   */\n      0x00\n        /* \"#utility.yul\":2265:2285   */\n      tag_121\n      tag_49\n      jump\t// in\n    tag_121:\n        /* \"#utility.yul\":2255:2285   */\n      swap1\n      pop\n        /* \"#utility.yul\":2294:2327   */\n      tag_122\n        /* \"#utility.yul\":2322:2326   */\n      dup3\n        /* \"#utility.yul\":2314:2320   */\n      dup3\n        /* \"#utility.yul\":2294:2327   */\n      tag_60\n      jump\t// in\n    tag_122:\n        /* \"#utility.yul\":2204:2333   */\n      swap2\n      swap1\n      pop\n      jump\t// out\n        /* \"#utility.yul\":2339:2647   */\n    tag_62:\n        /* \"#utility.yul\":2401:2405   */\n      0x00\n        /* \"#utility.yul\":2491:2509   */\n      0xffffffffffffffff\n        /* \"#utility.yul\":2483:2489   */\n      dup3\n        /* \"#utility.yul\":2480:2510   */\n      gt\n        /* \"#utility.yul\":2477:2533   */\n      iszero\n      tag_124\n      jumpi\n        /* \"#utility.yul\":2513:2531   */\n      tag_125\n      tag_59\n      jump\t// in\n    tag_125:\n        /* \"#utility.yul\":2477:2533   */\n    tag_124:\n        /* \"#utility.yul\":2551:2580   */\n      tag_126\n        /* \"#utility.yul\":2573:2579   */\n      dup3\n        /* \"#utility.yul\":2551:2580   */\n      tag_58\n      jump\t// in\n    tag_126:\n        /* \"#utility.yul\":2543:2580   */\n      swap1\n      pop\n        /* \"#utility.yul\":2635:2639   */\n      0x20\n        /* \"#utility.yul\":2629:2633   */\n      dup2\n        /* \"#utility.yul\":2625:2640   */\n      add\n        /* \"#utility.yul\":2617:2640   */\n      swap1\n      pop\n        /* \"#utility.yul\":2339:2647   */\n      swap2\n      swap1\n      pop\n      jump\t// out\n        /* \"#utility.yul\":2653:2801   */\n    tag_63:\n        /* \"#utility.yul\":2751:2757   */\n      dup3\n        /* \"#utility.yul\":2746:2749   */\n      dup2\n        /* \"#utility.yul\":2741:2744   */\n      dup4\n        /* \"#utility.yul\":2728:2758   */\n      calldatacopy\n        /* \"#utility.yul\":2792:2793   */\n      0x00\n        /* \"#utility.yul\":2783:2789   */\n      dup4\n        /* \"#utility.yul\":2778:2781   */\n      dup4\n        /* \"#utility.yul\":2774:2790   */\n      add\n        /* \"#utility.yul\":2767:2794   */\n      mstore\n        /* \"#utility.yul\":2653:2801   */\n      pop\n      pop\n      pop\n      jump\t// out\n        /* \"#utility.yul\":2807:3232   */\n    tag_64:\n        /* \"#utility.yul\":2885:2890   */\n      0x00\n        /* \"#utility.yul\":2910:2976   */\n      tag_129\n        /* \"#utility.yul\":2926:2975   */\n      tag_130\n        /* \"#utility.yul\":2968:2974   */\n      dup5\n        /* \"#utility.yul\":2926:2975   */\n      tag_62\n      jump\t// in\n    tag_130:\n        /* \"#utility.yul\":2910:2976   */\n      tag_61\n      jump\t// in\n    tag_129:\n        /* \"#utility.yul\":2901:2976   */\n      swap1\n      pop\n        /* \"#utility.yul\":2999:3005   */\n      dup3\n        /* \"#utility.yul\":2992:2997   */\n      dup2\n        /* \"#utility.yul\":2985:3006   */\n      mstore\n        /* \"#utility.yul\":3037:3041   */\n      0x20\n        /* \"#utility.yul\":3030:3035   */\n      dup2\n        /* \"#utility.yul\":3026:3042   */\n      add\n        /* \"#utility.yul\":3075:3078   */\n      dup5\n        /* \"#utility.yul\":3066:3072   */\n      dup5\n        /* \"#utility.yul\":3061:3064   */\n      dup5\n        /* \"#utility.yul\":3057:3073   */\n      add\n        /* \"#utility.yul\":3054:3079   */\n      gt\n        /* \"#utility.yul\":3051:3163   */\n      iszero\n      tag_131\n      jumpi\n        /* \"#utility.yul\":3082:3161   */\n      tag_132\n      tag_57\n      jump\t// in\n    tag_132:\n        /* \"#utility.yul\":3051:3163   */\n    tag_131:\n        /* \"#utility.yul\":3172:3226   */\n      tag_133\n        /* \"#utility.yul\":3219:3225   */\n      dup5\n        /* \"#utility.yul\":3214:3217   */\n      dup3\n        /* \"#utility.yul\":3209:3212   */\n      dup6\n        /* \"#utility.yul\":3172:3226   */\n      tag_63\n      jump\t// in\n    tag_133:\n        /* \"#utility.yul\":2891:3232   */\n      pop\n        /* \"#utility.yul\":2807:3232   */\n      swap4\n      swap3\n      pop\n      pop\n      pop\n      jump\t// out\n        /* \"#utility.yul\":3252:3592   */\n    tag_65:\n        /* \"#utility.yul\":3308:3313   */\n      0x00\n        /* \"#utility.yul\":3357:3360   */\n      dup3\n        /* \"#utility.yul\":3350:3354   */\n      0x1f\n        /* \"#utility.yul\":3342:3348   */\n      dup4\n        /* \"#utility.yul\":3338:3355   */\n      add\n        /* \"#utility.yul\":3334:3361   */\n      slt\n        /* \"#utility.yul\":3324:3446   */\n      tag_135\n      jumpi\n        /* \"#utility.yul\":3365:3444   */\n      tag_136\n      tag_56\n      jump\t// in\n    tag_136:\n        /* \"#utility.yul\":3324:3446   */\n    tag_135:\n        /* \"#utility.yul\":3482:3488   */\n      dup2\n        /* \"#utility.yul\":3469:3489   */\n      calldataload\n        /* \"#utility.yul\":3507:3586   */\n      tag_137\n        /* \"#utility.yul\":3582:3585   */\n      dup5\n        /* \"#utility.yul\":3574:3580   */\n      dup3\n        /* \"#utility.yul\":3567:3571   */\n      0x20\n        /* \"#utility.yul\":3559:3565   */\n      dup7\n        /* \"#utility.yul\":3555:3572   */\n      add\n        /* \"#utility.yul\":3507:3586   */\n      tag_64\n      jump\t// in\n    tag_137:\n        /* \"#utility.yul\":3498:3586   */\n      swap2\n      pop\n        /* \"#utility.yul\":3314:3592   */\n      pop\n        /* \"#utility.yul\":3252:3592   */\n      swap3\n      swap2\n      pop\n      pop\n      jump\t// out\n        /* \"#utility.yul\":3598:4107   */\n    tag_18:\n        /* \"#utility.yul\":3667:3673   */\n      0x00\n        /* \"#utility.yul\":3716:3718   */\n      0x20\n        /* \"#utility.yul\":3704:3713   */\n      dup3\n        /* \"#utility.yul\":3695:3702   */\n      dup5\n        /* \"#utility.yul\":3691:3714   */\n      sub\n        /* \"#utility.yul\":3687:3719   */\n      slt\n        /* \"#utility.yul\":3684:3803   */\n      iszero\n      tag_139\n      jumpi\n        /* \"#utility.yul\":3722:3801   */\n      tag_140\n      tag_50\n      jump\t// in\n    tag_140:\n        /* \"#utility.yul\":3684:3803   */\n    tag_139:\n        /* \"#utility.yul\":3870:3871   */\n      0x00\n        /* \"#utility.yul\":3859:3868   */\n      dup3\n        /* \"#utility.yul\":3855:3872   */\n      add\n        /* \"#utility.yul\":3842:3873   */\n      calldataload\n        /* \"#utility.yul\":3900:3918   */\n      0xffffffffffffffff\n        /* \"#utility.yul\":3892:3898   */\n      dup2\n        /* \"#utility.yul\":3889:3919   */\n      gt\n        /* \"#utility.yul\":3886:4003   */\n      iszero\n      tag_141\n      jumpi\n        /* \"#utility.yul\":3922:4001   */\n      tag_142\n      tag_51\n      jump\t// in\n    tag_142:\n        /* \"#utility.yul\":3886:4003   */\n    tag_141:\n        /* \"#utility.yul\":4027:4090   */\n      tag_143\n        /* \"#utility.yul\":4082:4089   */\n      dup5\n        /* \"#utility.yul\":4073:4079   */\n      dup3\n        /* \"#utility.yul\":4062:4071   */\n      dup6\n        /* \"#utility.yul\":4058:4080   */\n      add\n        /* \"#utility.yul\":4027:4090   */\n      tag_65\n      jump\t// in\n    tag_143:\n        /* \"#utility.yul\":4017:4090   */\n      swap2\n      pop\n        /* \"#utility.yul\":3813:4100   */\n      pop\n        /* \"#utility.yul\":3598:4107   */\n      swap3\n      swap2\n      pop\n      pop\n      jump\t// out\n        /* \"#utility.yul\":4113:4239   */\n    tag_66:\n        /* \"#utility.yul\":4150:4157   */\n      0x00\n        /* \"#utility.yul\":4190:4232   */\n      0xffffffffffffffffffffffffffffffffffffffff\n        /* \"#utility.yul\":4183:4188   */\n      dup3\n        /* \"#utility.yul\":4179:4233   */\n      and\n        /* \"#utility.yul\":4168:4233   */\n      swap1\n      pop\n        /* \"#utility.yul\":4113:4239   */\n      swap2\n      swap1\n      pop\n      jump\t// out\n        /* \"#utility.yul\":4245:4341   */\n    tag_67:\n        /* \"#utility.yul\":4282:4289   */\n      0x00\n        /* \"#utility.yul\":4311:4335   */\n      tag_146\n        /* \"#utility.yul\":4329:4334   */\n      dup3\n        /* \"#utility.yul\":4311:4335   */\n      tag_66\n      jump\t// in\n    tag_146:\n        /* \"#utility.yul\":4300:4335   */\n      swap1\n      pop\n        /* \"#utility.yul\":4245:4341   */\n      swap2\n      swap1\n      pop\n      jump\t// out\n        /* \"#utility.yul\":4347:4465   */\n    tag_68:\n        /* \"#utility.yul\":4434:4458   */\n      tag_148\n        /* \"#utility.yul\":4452:4457   */\n      dup2\n        /* \"#utility.yul\":4434:4458   */\n      tag_67\n      jump\t// in\n    tag_148:\n        /* \"#utility.yul\":4429:4432   */\n      dup3\n        /* \"#utility.yul\":4422:4459   */\n      mstore\n        /* \"#utility.yul\":4347:4465   */\n      pop\n      pop\n      jump\t// out\n        /* \"#utility.yul\":4471:4570   */\n    tag_69:\n        /* \"#utility.yul\":4523:4529   */\n      0x00\n        /* \"#utility.yul\":4557:4562   */\n      dup2\n        /* \"#utility.yul\":4551:4563   */\n      mload\n        /* \"#utility.yul\":4541:4563   */\n      swap1\n      pop\n        /* \"#utility.yul\":4471:4570   */\n      swap2\n      swap1\n      pop\n      jump\t// out\n        /* \"#utility.yul\":4576:4745   */\n    tag_70:\n        /* \"#utility.yul\":4660:4671   */\n      0x00\n        /* \"#utility.yul\":4694:4700   */\n      dup3\n        /* \"#utility.yul\":4689:4692   */\n      dup3\n        /* \"#utility.yul\":4682:4701   */\n      mstore\n        /* \"#utility.yul\":4734:4738   */\n      0x20\n        /* \"#utility.yul\":4729:4732   */\n      dup3\n        /* \"#utility.yul\":4725:4739   */\n      add\n        /* \"#utility.yul\":4710:4739   */\n      swap1\n      pop\n        /* \"#utility.yul\":4576:4745   */\n      swap3\n      swap2\n      pop\n      pop\n      jump\t// out\n        /* \"#utility.yul\":4751:4890   */\n    tag_71:\n        /* \"#utility.yul\":4840:4846   */\n      dup3\n        /* \"#utility.yul\":4835:4838   */\n      dup2\n        /* \"#utility.yul\":4830:4833   */\n      dup4\n        /* \"#utility.yul\":4824:4847   */\n      mcopy\n        /* \"#utility.yul\":4881:4882   */\n      0x00\n        /* \"#utility.yul\":4872:4878   */\n      dup4\n        /* \"#utility.yul\":4867:4870   */\n      dup4\n        /* \"#utility.yul\":4863:4879   */\n      add\n        /* \"#utility.yul\":4856:4883   */\n      mstore\n        /* \"#utility.yul\":4751:4890   */\n      pop\n      pop\n      pop\n      jump\t// out\n        /* \"#utility.yul\":4896:5273   */\n    tag_72:\n        /* \"#utility.yul\":4984:4987   */\n      0x00\n        /* \"#utility.yul\":5012:5051   */\n      tag_153\n        /* \"#utility.yul\":5045:5050   */\n      dup3\n        /* \"#utility.yul\":5012:5051   */\n      tag_69\n      jump\t// in\n    tag_153:\n        /* \"#utility.yul\":5067:5138   */\n      tag_154\n        /* \"#utility.yul\":5131:5137   */\n      dup2\n        /* \"#utility.yul\":5126:5129   */\n      dup6\n        /* \"#utility.yul\":5067:5138   */\n      tag_70\n      jump\t// in\n    tag_154:\n        /* \"#utility.yul\":5060:5138   */\n      swap4\n      pop\n        /* \"#utility.yul\":5147:5212   */\n      tag_155\n        /* \"#utility.yul\":5205:5211   */\n      dup2\n        /* \"#utility.yul\":5200:5203   */\n      dup6\n        /* \"#utility.yul\":5193:5197   */\n      0x20\n        /* \"#utility.yul\":5186:5191   */\n      dup7\n        /* \"#utility.yul\":5182:5198   */\n      add\n        /* \"#utility.yul\":5147:5212   */\n      tag_71\n      jump\t// in\n    tag_155:\n        /* \"#utility.yul\":5237:5266   */\n      tag_156\n        /* \"#utility.yul\":5259:5265   */\n      dup2\n        /* \"#utility.yul\":5237:5266   */\n      tag_58\n      jump\t// in\n    tag_156:\n        /* \"#utility.yul\":5232:5235   */\n      dup5\n        /* \"#utility.yul\":5228:5267   */\n      add\n        /* \"#utility.yul\":5221:5267   */\n      swap2\n      pop\n        /* \"#utility.yul\":4988:5273   */\n      pop\n        /* \"#utility.yul\":4896:5273   */\n      swap3\n      swap2\n      pop\n      pop\n      jump\t// out\n        /* \"#utility.yul\":5279:5369   */\n    tag_73:\n        /* \"#utility.yul\":5313:5320   */\n      0x00\n        /* \"#utility.yul\":5356:5361   */\n      dup2\n        /* \"#utility.yul\":5349:5362   */\n      iszero\n        /* \"#utility.yul\":5342:5363   */\n      iszero\n        /* \"#utility.yul\":5331:5363   */\n      swap1\n      pop\n        /* \"#utility.yul\":5279:5369   */\n      swap2\n      swap1\n      pop\n      jump\t// out\n        /* \"#utility.yul\":5375:5484   */\n    tag_74:\n        /* \"#utility.yul\":5456:5477   */\n      tag_159\n        /* \"#utility.yul\":5471:5476   */\n      dup2\n        /* \"#utility.yul\":5456:5477   */\n      tag_73\n      jump\t// in\n    tag_159:\n        /* \"#utility.yul\":5451:5454   */\n      dup3\n        /* \"#utility.yul\":5444:5478   */\n      mstore\n        /* \"#utility.yul\":5375:5484   */\n      pop\n      pop\n      jump\t// out\n        /* \"#utility.yul\":5490:6122   */\n    tag_24:\n        /* \"#utility.yul\":5681:5685   */\n      0x00\n        /* \"#utility.yul\":5719:5722   */\n      0x80\n        /* \"#utility.yul\":5708:5717   */\n      dup3\n        /* \"#utility.yul\":5704:5723   */\n      add\n        /* \"#utility.yul\":5696:5723   */\n      swap1\n      pop\n        /* \"#utility.yul\":5733:5804   */\n      tag_161\n        /* \"#utility.yul\":5801:5802   */\n      0x00\n        /* \"#utility.yul\":5790:5799   */\n      dup4\n        /* \"#utility.yul\":5786:5803   */\n      add\n        /* \"#utility.yul\":5777:5783   */\n      dup8\n        /* \"#utility.yul\":5733:5804   */\n      tag_55\n      jump\t// in\n    tag_161:\n        /* \"#utility.yul\":5814:5886   */\n      tag_162\n        /* \"#utility.yul\":5882:5884   */\n      0x20\n        /* \"#utility.yul\":5871:5880   */\n      dup4\n        /* \"#utility.yul\":5867:5885   */\n      add\n        /* \"#utility.yul\":5858:5864   */\n      dup7\n        /* \"#utility.yul\":5814:5886   */\n      tag_68\n      jump\t// in\n    tag_162:\n        /* \"#utility.yul\":5933:5942   */\n      dup2\n        /* \"#utility.yul\":5927:5931   */\n      dup2\n        /* \"#utility.yul\":5923:5943   */\n      sub\n        /* \"#utility.yul\":5918:5920   */\n      0x40\n        /* \"#utility.yul\":5907:5916   */\n      dup4\n        /* \"#utility.yul\":5903:5921   */\n      add\n        /* \"#utility.yul\":5896:5944   */\n      mstore\n        /* \"#utility.yul\":5961:6039   */\n      tag_163\n        /* \"#utility.yul\":6034:6038   */\n      dup2\n        /* \"#utility.yul\":6025:6031   */\n      dup6\n        /* \"#utility.yul\":5961:6039   */\n      tag_72\n      jump\t// in\n    tag_163:\n        /* \"#utility.yul\":5953:6039   */\n      swap1\n      pop\n        /* \"#utility.yul\":6049:6115   */\n      tag_164\n        /* \"#utility.yul\":6111:6113   */\n      0x60\n        /* \"#utility.yul\":6100:6109   */\n      dup4\n        /* \"#utility.yul\":6096:6114   */\n      add\n        /* \"#utility.yul\":6087:6093   */\n      dup5\n        /* \"#utility.yul\":6049:6115   */\n      tag_74\n      jump\t// in\n    tag_164:\n        /* \"#utility.yul\":5490:6122   */\n      swap6\n      swap5\n      pop\n      pop\n      pop\n      pop\n      pop\n      jump\t// out\n        /* \"#utility.yul\":6128:6338   */\n    tag_29:\n        /* \"#utility.yul\":6215:6219   */\n      0x00\n        /* \"#utility.yul\":6253:6255   */\n      0x20\n        /* \"#utility.yul\":6242:6251   */\n      dup3\n        /* \"#utility.yul\":6238:6256   */\n      add\n        /* \"#utility.yul\":6230:6256   */\n      swap1\n      pop\n        /* \"#utility.yul\":6266:6331   */\n      tag_166\n        /* \"#utility.yul\":6328:6329   */\n      0x00\n        /* \"#utility.yul\":6317:6326   */\n      dup4\n        /* \"#utility.yul\":6313:6330   */\n      add\n        /* \"#utility.yul\":6304:6310   */\n      dup5\n        /* \"#utility.yul\":6266:6331   */\n      tag_74\n      jump\t// in\n    tag_166:\n        /* \"#utility.yul\":6128:6338   */\n      swap3\n      swap2\n      pop\n      pop\n      jump\t// out\n        /* \"#utility.yul\":6344:6522   */\n    tag_75:\n        /* \"#utility.yul\":6484:6514   */\n      0x446f63756d656e7420697320616c726561647920766572696669656400000000\n        /* \"#utility.yul\":6480:6481   */\n      0x00\n        /* \"#utility.yul\":6472:6478   */\n      dup3\n        /* \"#utility.yul\":6468:6482   */\n      add\n        /* \"#utility.yul\":6461:6515   */\n      mstore\n        /* \"#utility.yul\":6344:6522   */\n      pop\n      jump\t// out\n        /* \"#utility.yul\":6528:6894   */\n    tag_76:\n        /* \"#utility.yul\":6670:6673   */\n      0x00\n        /* \"#utility.yul\":6691:6758   */\n      tag_169\n        /* \"#utility.yul\":6755:6757   */\n      0x1c\n        /* \"#utility.yul\":6750:6753   */\n      dup4\n        /* \"#utility.yul\":6691:6758   */\n      tag_70\n      jump\t// in\n    tag_169:\n        /* \"#utility.yul\":6684:6758   */\n      swap2\n      pop\n        /* \"#utility.yul\":6767:6860   */\n      tag_170\n        /* \"#utility.yul\":6856:6859   */\n      dup3\n        /* \"#utility.yul\":6767:6860   */\n      tag_75\n      jump\t// in\n    tag_170:\n        /* \"#utility.yul\":6885:6887   */\n      0x20\n        /* \"#utility.yul\":6880:6883   */\n      dup3\n        /* \"#utility.yul\":6876:6888   */\n      add\n        /* \"#utility.yul\":6869:6888   */\n      swap1\n      pop\n        /* \"#utility.yul\":6528:6894   */\n      swap2\n      swap1\n      pop\n      jump\t// out\n        /* \"#utility.yul\":6900:7319   */\n    tag_33:\n        /* \"#utility.yul\":7066:7070   */\n      0x00\n        /* \"#utility.yul\":7104:7106   */\n      0x20\n        /* \"#utility.yul\":7093:7102   */\n      dup3\n        /* \"#utility.yul\":7089:7107   */\n      add\n        /* \"#utility.yul\":7081:7107   */\n      swap1\n      pop\n        /* \"#utility.yul\":7153:7162   */\n      dup2\n        /* \"#utility.yul\":7147:7151   */\n      dup2\n        /* \"#utility.yul\":7143:7163   */\n      sub\n        /* \"#utility.yul\":7139:7140   */\n      0x00\n        /* \"#utility.yul\":7128:7137   */\n      dup4\n        /* \"#utility.yul\":7124:7141   */\n      add\n        /* \"#utility.yul\":7117:7164   */\n      mstore\n        /* \"#utility.yul\":7181:7312   */\n      tag_172\n        /* \"#utility.yul\":7307:7311   */\n      dup2\n        /* \"#utility.yul\":7181:7312   */\n      tag_76\n      jump\t// in\n    tag_172:\n        /* \"#utility.yul\":7173:7312   */\n      swap1\n      pop\n        /* \"#utility.yul\":6900:7319   */\n      swap2\n      swap1\n      pop\n      jump\t// out\n        /* \"#utility.yul\":7325:7505   */\n    tag_77:\n        /* \"#utility.yul\":7373:7450   */\n      0x4e487b7100000000000000000000000000000000000000000000000000000000\n        /* \"#utility.yul\":7370:7371   */\n      0x00\n        /* \"#utility.yul\":7363:7451   */\n      mstore\n        /* \"#utility.yul\":7470:7474   */\n      0x11\n        /* \"#utility.yul\":7467:7468   */\n      0x04\n        /* \"#utility.yul\":7460:7475   */\n      mstore\n        /* \"#utility.yul\":7494:7498   */\n      0x24\n        /* \"#utility.yul\":7491:7492   */\n      0x00\n        /* \"#utility.yul\":7484:7499   */\n      revert\n        /* \"#utility.yul\":7511:7744   */\n    tag_37:\n        /* \"#utility.yul\":7550:7553   */\n      0x00\n        /* \"#utility.yul\":7573:7597   */\n      tag_175\n        /* \"#utility.yul\":7591:7596   */\n      dup3\n        /* \"#utility.yul\":7573:7597   */\n      tag_52\n      jump\t// in\n    tag_175:\n        /* \"#utility.yul\":7564:7597   */\n      swap2\n      pop\n        /* \"#utility.yul\":7619:7685   */\n      0xffffffffffffffffffffffffffffffffffffffffffffffffffffffffffffffff\n        /* \"#utility.yul\":7612:7617   */\n      dup3\n        /* \"#utility.yul\":7609:7686   */\n      sub\n        /* \"#utility.yul\":7606:7709   */\n      tag_176\n      jumpi\n        /* \"#utility.yul\":7689:7707   */\n      tag_177\n      tag_77\n      jump\t// in\n    tag_177:\n        /* \"#utility.yul\":7606:7709   */\n    tag_176:\n        /* \"#utility.yul\":7736:7737   */\n      0x01\n        /* \"#utility.yul\":7729:7734   */\n      dup3\n        /* \"#utility.yul\":7725:7738   */\n      add\n        /* \"#utility.yul\":7718:7738   */\n      swap1\n      pop\n        /* \"#utility.yul\":7511:7744   */\n      swap2\n      swap1\n      pop\n      jump\t// out\n        /* \"#utility.yul\":7750:7930   */\n    tag_78:\n        /* \"#utility.yul\":7798:7875   */\n      0x4e487b7100000000000000000000000000000000000000000000000000000000\n        /* \"#utility.yul\":7795:7796   */\n      0x00\n        /* \"#utility.yul\":7788:7876   */\n      mstore\n        /* \"#utility.yul\":7895:7899   */\n      0x22\n        /* \"#utility.yul\":7892:7893   */\n      0x04\n        /* \"#utility.yul\":7885:7900   */\n      mstore\n        /* \"#utility.yul\":7919:7923   */\n      0x24\n        /* \"#utility.yul\":7916:7917   */\n      0x00\n        /* \"#utility.yul\":7909:7924   */\n      revert\n        /* \"#utility.yul\":7936:8256   */\n    tag_43:\n        /* \"#utility.yul\":7980:7986   */\n      0x00\n        /* \"#utility.yul\":8017:8018   */\n      0x02\n        /* \"#utility.yul\":8011:8015   */\n      dup3\n        /* \"#utility.yul\":8007:8019   */\n      div\n        /* \"#utility.yul\":7997:8019   */\n      swap1\n      pop\n        /* \"#utility.yul\":8064:8065   */\n      0x01\n        /* \"#utility.yul\":8058:8062   */\n      dup3\n        /* \"#utility.yul\":8054:8066   */\n      and\n        /* \"#utility.yul\":8085:8103   */\n      dup1\n        /* \"#utility.yul\":8075:8156   */\n      tag_180\n      jumpi\n        /* \"#utility.yul\":8141:8145   */\n      0x7f\n        /* \"#utility.yul\":8133:8139   */\n      dup3\n        /* \"#utility.yul\":8129:8146   */\n      and\n        /* \"#utility.yul\":8119:8146   */\n      swap2\n      pop\n        /* \"#utility.yul\":8075:8156   */\n    tag_180:\n        /* \"#utility.yul\":8203:8205   */\n      0x20\n        /* \"#utility.yul\":8195:8201   */\n      dup3\n        /* \"#utility.yul\":8192:8206   */\n      lt\n        /* \"#utility.yul\":8172:8190   */\n      dup2\n        /* \"#utility.yul\":8169:8207   */\n      sub\n        /* \"#utility.yul\":8166:8250   */\n      tag_181\n      jumpi\n        /* \"#utility.yul\":8222:8240   */\n      tag_182\n      tag_78\n      jump\t// in\n    tag_182:\n        /* \"#utility.yul\":8166:8250   */\n    tag_181:\n        /* \"#utility.yul\":7987:8256   */\n      pop\n        /* \"#utility.yul\":7936:8256   */\n      swap2\n      swap1\n      pop\n      jump\t// out\n        /* \"#utility.yul\":8262:8403   */\n    tag_79:\n        /* \"#utility.yul\":8311:8315   */\n      0x00\n        /* \"#utility.yul\":8334:8337   */\n      dup2\n        /* \"#utility.yul\":8326:8337   */\n      swap1\n      pop\n        /* \"#utility.yul\":8357:8360   */\n      dup2\n        /* \"#utility.yul\":8354:8355   */\n      0x00\n        /* \"#utility.yul\":8347:8361   */\n      mstore\n        /* \"#utility.yul\":8391:8395   */\n      0x20\n        /* \"#utility.yul\":8388:8389   */\n      0x00\n        /* \"#utility.yul\":8378:8396   */\n      keccak256\n        /* \"#utility.yul\":8370:8396   */\n      swap1\n      pop\n        /* \"#utility.yul\":8262:8403   */\n      swap2\n      swap1\n      pop\n      jump\t// out\n        /* \"#utility.yul\":8409:8502   */\n    tag_80:\n        /* \"#utility.yul\":8446:8452   */\n      0x00\n        /* \"#utility.yul\":8493:8495   */\n      0x20\n        /* \"#utility.yul\":8488:8490   */\n      0x1f\n        /* \"#utility.yul\":8481:8486   */\n      dup4\n        /* \"#utility.yul\":8477:8491   */\n      add\n        /* \"#utility.yul\":8473:8496   */\n      div\n        /* \"#utility.yul\":8463:8496   */\n      swap1\n      pop\n        /* \"#utility.yul\":8409:8502   */\n      swap2\n      swap1\n      pop\n      jump\t// out\n        /* \"#utility.yul\":8508:8615   */\n    tag_81:\n        /* \"#utility.yul\":8552:8560   */\n      0x00\n        /* \"#utility.yul\":8602:8607   */\n      dup3\n        /* \"#utility.yul\":8596:8600   */\n      dup3\n        /* \"#utility.yul\":8592:8608   */\n      shl\n        /* \"#utility.yul\":8571:8608   */\n      swap1\n      pop\n        /* \"#utility.yul\":8508:8615   */\n      swap3\n      swap2\n      pop\n      pop\n      jump\t// out\n        /* \"#utility.yul\":8621:9014   */\n    tag_82:\n        /* \"#utility.yul\":8690:8696   */\n      0x00\n        /* \"#utility.yul\":8740:8741   */\n      0x08\n        /* \"#utility.yul\":8728:8738   */\n      dup4\n        /* \"#utility.yul\":8724:8742   */\n      mul\n        /* \"#utility.yul\":8763:8860   */\n      tag_187\n        /* \"#utility.yul\":8793:8859   */\n      0xffffffffffffffffffffffffffffffffffffffffffffffffffffffffffffffff\n        /* \"#utility.yul\":8782:8791   */\n      dup3\n        /* \"#utility.yul\":8763:8860   */\n      tag_81\n      jump\t// in\n    tag_187:\n        /* \"#utility.yul\":8881:8920   */\n      tag_188\n        /* \"#utility.yul\":8911:8919   */\n      dup7\n        /* \"#utility.yul\":8900:8909   */\n      dup4\n        /* \"#utility.yul\":8881:8920   */\n      tag_81\n      jump\t// in\n    tag_188:\n        /* \"#utility.yul\":8869:8920   */\n      swap6\n      pop\n        /* \"#utility.yul\":8953:8957   */\n      dup1\n        /* \"#utility.yul\":8949:8958   */\n      not\n        /* \"#utility.yul\":8942:8947   */\n      dup5\n        /* \"#utility.yul\":8938:8959   */\n      and\n        /* \"#utility.yul\":8929:8959   */\n      swap4\n      pop\n        /* \"#utility.yul\":9002:9006   */\n      dup1\n        /* \"#utility.yul\":8992:9000   */\n      dup7\n        /* \"#utility.yul\":8988:9007   */\n      and\n        /* \"#utility.yul\":8981:8986   */\n      dup5\n        /* \"#utility.yul\":8978:9008   */\n      or\n        /* \"#utility.yul\":8968:9008   */\n      swap3\n      pop\n        /* \"#utility.yul\":8697:9014   */\n      pop\n      pop\n        /* \"#utility.yul\":8621:9014   */\n      swap4\n      swap3\n      pop\n      pop\n      pop\n      jump\t// out\n        /* \"#utility.yul\":9020:9080   */\n    tag_83:\n        /* \"#utility.yul\":9048:9051   */\n      0x00\n        /* \"#utility.yul\":9069:9074   */\n      dup2\n        /* \"#utility.yul\":9062:9074   */\n      swap1\n      pop\n        /* \"#utility.yul\":9020:9080   */\n      swap2\n      swap1\n      pop\n      jump\t// out\n        /* \"#utility.yul\":9086:9228   */\n    tag_84:\n        /* \"#utility.yul\":9136:9145   */\n      0x00\n        /* \"#utility.yul\":9169:9222   */\n      tag_191\n        /* \"#utility.yul\":9187:9221   */\n      tag_192\n        /* \"#utility.yul\":9196:9220   */\n      tag_193\n        /* \"#utility.yul\":9214:9219   */\n      dup5\n        /* \"#utility.yul\":9196:9220   */\n      tag_52\n      jump\t// in\n    tag_193:\n        /* \"#utility.yul\":9187:9221   */\n      tag_83\n      jump\t// in\n    tag_192:\n        /* \"#utility.yul\":9169:9222   */\n      tag_52\n      jump\t// in\n    tag_191:\n        /* \"#utility.yul\":9156:9222   */\n      swap1\n      pop\n        /* \"#utility.yul\":9086:9228   */\n      swap2\n      swap1\n      pop\n      jump\t// out\n        /* \"#utility.yul\":9234:9309   */\n    tag_85:\n        /* \"#utility.yul\":9277:9280   */\n      0x00\n        /* \"#utility.yul\":9298:9303   */\n      dup2\n        /* \"#utility.yul\":9291:9303   */\n      swap1\n      pop\n        /* \"#utility.yul\":9234:9309   */\n      swap2\n      swap1\n      pop\n      jump\t// out\n        /* \"#utility.yul\":9315:9584   */\n    tag_86:\n        /* \"#utility.yul\":9425:9464   */\n      tag_196\n        /* \"#utility.yul\":9456:9463   */\n      dup4\n        /* \"#utility.yul\":9425:9464   */\n      tag_84\n      jump\t// in\n    tag_196:\n        /* \"#utility.yul\":9486:9577   */\n      tag_197\n        /* \"#utility.yul\":9535:9576   */\n      tag_198\n        /* \"#utility.yul\":9559:9575   */\n      dup3\n        /* \"#utility.yul\":9535:9576   */\n      tag_85\n      jump\t// in\n    tag_198:\n        /* \"#utility.yul\":9527:9533   */\n      dup5\n        /* \"#utility.yul\":9520:9524   */\n      dup5\n        /* \"#utility.yul\":9514:9525   */\n      sload\n        /* \"#utility.yul\":9486:9577   */\n      tag_82\n      jump\t// in\n    tag_197:\n        /* \"#utility.yul\":9480:9484   */\n      dup3\n        /* \"#utility.yul\":9473:9578   */\n      sstore\n        /* \"#utility.yul\":9391:9584   */\n      pop\n        /* \"#utility.yul\":9315:9584   */\n      pop\n      pop\n      pop\n      jump\t// out\n        /* \"#utility.yul\":9590:9663   */\n    tag_87:\n        /* \"#utility.yul\":9635:9638   */\n      0x00\n        /* \"#utility.yul\":9590:9663   */\n      swap1\n      jump\t// out\n        /* \"#utility.yul\":9669:9858   */\n    tag_88:\n        /* \"#utility.yul\":9746:9778   */\n      tag_201\n      tag_87\n      jump\t// in\n    tag_201:\n        /* \"#utility.yul\":9787:9852   */\n      tag_202\n        /* \"#utility.yul\":9845:9851   */\n      dup2\n        /* \"#utility.yul\":9837:9843   */\n      dup5\n        /* \"#utility.yul\":9831:9835   */\n      dup5\n        /* \"#utility.yul\":9787:9852   */\n      tag_86\n      jump\t// in\n    tag_202:\n        /* \"#utility.yul\":9722:9858   */\n      pop\n        /* \"#utility.yul\":9669:9858   */\n      pop\n      pop\n      jump\t// out\n        /* \"#utility.yul\":9864:10050   */\n    tag_89:\n        /* \"#utility.yul\":9924:10044   */\n    tag_204:\n        /* \"#utility.yul\":9941:9944   */\n      dup2\n        /* \"#utility.yul\":9934:9939   */\n      dup2\n        /* \"#utility.yul\":9931:9945   */\n      lt\n        /* \"#utility.yul\":9924:10044   */\n      iszero\n      tag_206\n      jumpi\n        /* \"#utility.yul\":9995:10034   */\n      tag_207\n        /* \"#utility.yul\":10032:10033   */\n      0x00\n        /* \"#utility.yul\":10025:10030   */\n      dup3\n        /* \"#utility.yul\":9995:10034   */\n      tag_88\n      jump\t// in\n    tag_207:\n        /* \"#utility.yul\":9968:9969   */\n      0x01\n        /* \"#utility.yul\":9961:9966   */\n      dup2\n        /* \"#utility.yul\":9957:9970   */\n      add\n        /* \"#utility.yul\":9948:9970   */\n      swap1\n      pop\n        /* \"#utility.yul\":9924:10044   */\n      jump(tag_204)\n    tag_206:\n        /* \"#utility.yul\":9864:10050   */\n      pop\n      pop\n      jump\t// out\n        /* \"#utility.yul\":10056:10599   */\n    tag_90:\n        /* \"#utility.yul\":10157:10159   */\n      0x1f\n        /* \"#utility.yul\":10152:10155   */\n      dup3\n        /* \"#utility.yul\":10149:10160   */\n      gt\n        /* \"#utility.yul\":10146:10592   */\n      iszero\n      tag_209\n      jumpi\n        /* \"#utility.yul\":10191:10229   */\n      tag_210\n        /* \"#utility.yul\":10223:10228   */\n      dup2\n        /* \"#utility.yul\":10191:10229   */\n      tag_79\n      jump\t// in\n    tag_210:\n        /* \"#utility.yul\":10275:10304   */\n      tag_211\n        /* \"#utility.yul\":10293:10303   */\n      dup5\n        /* \"#utility.yul\":10275:10304   */\n      tag_80\n      jump\t// in\n    tag_211:\n        /* \"#utility.yul\":10265:10273   */\n      dup2\n        /* \"#utility.yul\":10261:10305   */\n      add\n        /* \"#utility.yul\":10458:10460   */\n      0x20\n        /* \"#utility.yul\":10446:10456   */\n      dup6\n        /* \"#utility.yul\":10443:10461   */\n      lt\n        /* \"#utility.yul\":10440:10489   */\n      iszero\n      tag_212\n      jumpi\n        /* \"#utility.yul\":10479:10487   */\n      dup2\n        /* \"#utility.yul\":10464:10487   */\n      swap1\n      pop\n        /* \"#utility.yul\":10440:10489   */\n    tag_212:\n        /* \"#utility.yul\":10502:10582   */\n      tag_213\n        /* \"#utility.yul\":10558:10580   */\n      tag_214\n        /* \"#utility.yul\":10576:10579   */\n      dup6\n        /* \"#utility.yul\":10558:10580   */\n      tag_80\n      jump\t// in\n    tag_214:\n        /* \"#utility.yul\":10548:10556   */\n      dup4\n        /* \"#utility.yul\":10544:10581   */\n      add\n        /* \"#utility.yul\":10531:10542   */\n      dup3\n        /* \"#utility.yul\":10502:10582   */\n      tag_89\n      jump\t// in\n    tag_213:\n        /* \"#utility.yul\":10161:10592   */\n      pop\n      pop\n        /* \"#utility.yul\":10146:10592   */\n    tag_209:\n        /* \"#utility.yul\":10056:10599   */\n      pop\n      pop\n      pop\n      jump\t// out\n        /* \"#utility.yul\":10605:10722   */\n    tag_91:\n        /* \"#utility.yul\":10659:10667   */\n      0x00\n        /* \"#utility.yul\":10709:10714   */\n      dup3\n        /* \"#utility.yul\":10703:10707   */\n      dup3\n        /* \"#utility.yul\":10699:10715   */\n      shr\n        /* \"#utility.yul\":10678:10715   */\n      swap1\n      pop\n        /* \"#utility.yul\":10605:10722   */\n      swap3\n      swap2\n      pop\n      pop\n      jump\t// out\n        /* \"#utility.yul\":10728:10897   */\n    tag_92:\n        /* \"#utility.yul\":10772:10778   */\n      0x00\n        /* \"#utility.yul\":10805:10856   */\n      tag_217\n        /* \"#utility.yul\":10853:10854   */\n      0x00\n        /* \"#utility.yul\":10849:10855   */\n      not\n        /* \"#utility.yul\":10841:10846   */\n      dup5\n        /* \"#utility.yul\":10838:10839   */\n      0x08\n        /* \"#utility.yul\":10834:10847   */\n      mul\n        /* \"#utility.yul\":10805:10856   */\n      tag_91\n      jump\t// in\n    tag_217:\n        /* \"#utility.yul\":10801:10857   */\n      not\n        /* \"#utility.yul\":10886:10890   */\n      dup1\n        /* \"#utility.yul\":10880:10884   */\n      dup4\n        /* \"#utility.yul\":10876:10891   */\n      and\n        /* \"#utility.yul\":10866:10891   */\n      swap2\n      pop\n        /* \"#utility.yul\":10779:10897   */\n      pop\n        /* \"#utility.yul\":10728:10897   */\n      swap3\n      swap2\n      pop\n      pop\n      jump\t// out\n        /* \"#utility.yul\":10902:11197   */\n    tag_93:\n        /* \"#utility.yul\":10978:10982   */\n      0x00\n        /* \"#utility.yul\":11124:11153   */\n      tag_219\n        /* \"#utility.yul\":11149:11152   */\n      dup4\n        /* \"#utility.yul\":11143:11147   */\n      dup4\n        /* \"#utility.yul\":11124:11153   */\n      tag_92\n      jump\t// in\n    tag_219:\n        /* \"#utility.yul\":11116:11153   */\n      swap2\n      pop\n        /* \"#utility.yul\":11186:11189   */\n      dup3\n        /* \"#utility.yul\":11183:11184   */\n      0x02\n        /* \"#utility.yul\":11179:11190   */\n      mul\n        /* \"#utility.yul\":11173:11177   */\n      dup3\n        /* \"#utility.yul\":11170:11191   */\n      or\n        /* \"#utility.yul\":11162:11191   */\n      swap1\n      pop\n        /* \"#utility.yul\":10902:11197   */\n      swap3\n      swap2\n      pop\n      pop\n      jump\t// out\n        /* \"#utility.yul\":11202:12597   */\n    tag_39:\n        /* \"#utility.yul\":11319:11356   */\n      tag_221\n        /* \"#utility.yul\":11352:11355   */\n      dup3\n        /* \"#utility.yul\":11319:11356   */\n      tag_69\n      jump\t// in\n    tag_221:\n        /* \"#utility.yul\":11421:11439   */\n      0xffffffffffffffff\n        /* \"#utility.yul\":11413:11419   */\n      dup2\n        /* \"#utility.yul\":11410:11440   */\n      gt\n        /* \"#utility.yul\":11407:11463   */\n      iszero\n      tag_222\n      jumpi\n        /* \"#utility.yul\":11443:11461   */\n      tag_223\n      tag_59\n      jump\t// in\n    tag_223:\n        /* \"#utility.yul\":11407:11463   */\n    tag_222:\n        /* \"#utility.yul\":11487:11525   */\n      tag_224\n        /* \"#utility.yul\":11519:11523   */\n      dup3\n        /* \"#utility.yul\":11513:11524   */\n      sload\n        /* \"#utility.yul\":11487:11525   */\n      tag_43\n      jump\t// in\n    tag_224:\n        /* \"#utility.yul\":11572:11639   */\n      tag_225\n        /* \"#utility.yul\":11632:11638   */\n      dup3\n        /* \"#utility.yul\":11624:11630   */\n      dup3\n        /* \"#utility.yul\":11618:11622   */\n      dup6\n        /* \"#utility.yul\":11572:11639   */\n      tag_90\n      jump\t// in\n    tag_225:\n        /* \"#utility.yul\":11666:11667   */\n      0x00\n        /* \"#utility.yul\":11690:11694   */\n      0x20\n        /* \"#utility.yul\":11677:11694   */\n      swap1\n      pop\n        /* \"#utility.yul\":11722:11724   */\n      0x1f\n        /* \"#utility.yul\":11714:11720   */\n      dup4\n        /* \"#utility.yul\":11711:11725   */\n      gt\n        /* \"#utility.yul\":11739:11740   */\n      0x01\n        /* \"#utility.yul\":11734:12352   */\n      dup2\n      eq\n      tag_227\n      jumpi\n        /* \"#utility.yul\":12396:12397   */\n      0x00\n        /* \"#utility.yul\":12413:12419   */\n      dup5\n        /* \"#utility.yul\":12410:12487   */\n      iszero\n      tag_228\n      jumpi\n        /* \"#utility.yul\":12462:12471   */\n      dup3\n        /* \"#utility.yul\":12457:12460   */\n      dup8\n        /* \"#utility.yul\":12453:12472   */\n      add\n        /* \"#utility.yul\":12447:12473   */\n      mload\n        /* \"#utility.yul\":12438:12473   */\n      swap1\n      pop\n        /* \"#utility.yul\":12410:12487   */\n    tag_228:\n        /* \"#utility.yul\":12513:12580   */\n      tag_229\n        /* \"#utility.yul\":12573:12579   */\n      dup6\n        /* \"#utility.yul\":12566:12571   */\n      dup3\n        /* \"#utility.yul\":12513:12580   */\n      tag_93\n      jump\t// in\n    tag_229:\n        /* \"#utility.yul\":12507:12511   */\n      dup7\n        /* \"#utility.yul\":12500:12581   */\n      sstore\n        /* \"#utility.yul\":12369:12591   */\n      pop\n        /* \"#utility.yul\":11704:12591   */\n      jump(tag_226)\n        /* \"#utility.yul\":11734:12352   */\n    tag_227:\n        /* \"#utility.yul\":11786:11790   */\n      0x1f\n        /* \"#utility.yul\":11782:11791   */\n      not\n        /* \"#utility.yul\":11774:11780   */\n      dup5\n        /* \"#utility.yul\":11770:11792   */\n      and\n        /* \"#utility.yul\":11820:11857   */\n      tag_230\n        /* \"#utility.yul\":11852:11856   */\n      dup7\n        /* \"#utility.yul\":11820:11857   */\n      tag_79\n      jump\t// in\n    tag_230:\n        /* \"#utility.yul\":11879:11880   */\n      0x00\n        /* \"#utility.yul\":11893:12101   */\n    tag_231:\n        /* \"#utility.yul\":11907:11914   */\n      dup3\n        /* \"#utility.yul\":11904:11905   */\n      dup2\n        /* \"#utility.yul\":11901:11915   */\n      lt\n        /* \"#utility.yul\":11893:12101   */\n      iszero\n      tag_233\n      jumpi\n        /* \"#utility.yul\":11986:11995   */\n      dup5\n        /* \"#utility.yul\":11981:11984   */\n      dup10\n        /* \"#utility.yul\":11977:11996   */\n      add\n        /* \"#utility.yul\":11971:11997   */\n      mload\n        /* \"#utility.yul\":11963:11969   */\n      dup3\n        /* \"#utility.yul\":11956:11998   */\n      sstore\n        /* \"#utility.yul\":12037:12038   */\n      0x01\n        /* \"#utility.yul\":12029:12035   */\n      dup3\n        /* \"#utility.yul\":12025:12039   */\n      add\n        /* \"#utility.yul\":12015:12039   */\n      swap2\n      pop\n        /* \"#utility.yul\":12084:12086   */\n      0x20\n        /* \"#utility.yul\":12073:12082   */\n      dup6\n        /* \"#utility.yul\":12069:12087   */\n      add\n        /* \"#utility.yul\":12056:12087   */\n      swap5\n      pop\n        /* \"#utility.yul\":11930:11934   */\n      0x20\n        /* \"#utility.yul\":11927:11928   */\n      dup2\n        /* \"#utility.yul\":11923:11935   */\n      add\n        /* \"#utility.yul\":11918:11935   */\n      swap1\n      pop\n        /* \"#utility.yul\":11893:12101   */\n      jump(tag_231)\n    tag_233:\n        /* \"#utility.yul\":12129:12135   */\n      dup7\n        /* \"#utility.yul\":12120:12127   */\n      dup4\n        /* \"#utility.yul\":12117:12136   */\n      lt\n        /* \"#utility.yul\":12114:12293   */\n      iszero\n      tag_234\n      jumpi\n        /* \"#utility.yul\":12187:12196   */\n      dup5\n        /* \"#utility.yul\":12182:12185   */\n      dup10\n        /* \"#utility.yul\":12178:12197   */\n      add\n        /* \"#utility.yul\":12172:12198   */\n      mload\n        /* \"#utility.yul\":12230:12278   */\n      tag_235\n        /* \"#utility.yul\":12272:12276   */\n      0x1f\n        /* \"#utility.yul\":12264:12270   */\n      dup10\n        /* \"#utility.yul\":12260:12277   */\n      and\n        /* \"#utility.yul\":12249:12258   */\n      dup3\n        /* \"#utility.yul\":12230:12278   */\n      tag_92\n      jump\t// in\n    tag_235:\n        /* \"#utility.yul\":12222:12228   */\n      dup4\n        /* \"#utility.yul\":12215:12279   */\n      sstore\n        /* \"#utility.yul\":12137:12293   */\n      pop\n        /* \"#utility.yul\":12114:12293   */\n    tag_234:\n        /* \"#utility.yul\":12339:12340   */\n      0x01\n        /* \"#utility.yul\":12335:12336   */\n      0x02\n        /* \"#utility.yul\":12327:12333   */\n      dup9\n        /* \"#utility.yul\":12323:12337   */\n      mul\n        /* \"#utility.yul\":12319:12341   */\n      add\n        /* \"#utility.yul\":12313:12317   */\n      dup9\n        /* \"#utility.yul\":12306:12342   */\n      sstore\n        /* \"#utility.yul\":11741:12352   */\n      pop\n      pop\n      pop\n        /* \"#utility.yul\":11704:12591   */\n    tag_226:\n      pop\n        /* \"#utility.yul\":11294:12597   */\n      pop\n      pop\n      pop\n        /* \"#utility.yul\":11202:12597   */\n      pop\n      pop\n      jump\t// out\n        /* \"#utility.yul\":12603:13026   */\n    tag_41:\n        /* \"#utility.yul\":12744:12748   */\n      0x00\n        /* \"#utility.yul\":12782:12784   */\n      0x40\n        /* \"#utility.yul\":12771:12780   */\n      dup3\n        /* \"#utility.yul\":12767:12785   */\n      add\n        /* \"#utility.yul\":12759:12785   */\n      swap1\n      pop\n        /* \"#utility.yul\":12795:12866   */\n      tag_237\n        /* \"#utility.yul\":12863:12864   */\n      0x00\n        /* \"#utility.yul\":12852:12861   */\n      dup4\n        /* \"#utility.yul\":12848:12865   */\n      add\n        /* \"#utility.yul\":12839:12845   */\n      dup6\n        /* \"#utility.yul\":12795:12866   */\n      tag_55\n      jump\t// in\n    tag_237:\n        /* \"#utility.yul\":12913:12922   */\n      dup2\n        /* \"#utility.yul\":12907:12911   */\n      dup2\n        /* \"#utility.yul\":12903:12923   */\n      sub\n        /* \"#utility.yul\":12898:12900   */\n      0x20\n        /* \"#utility.yul\":12887:12896   */\n      dup4\n        /* \"#utility.yul\":12883:12901   */\n      add\n        /* \"#utility.yul\":12876:12924   */\n      mstore\n        /* \"#utility.yul\":12941:13019   */\n      tag_238\n        /* \"#utility.yul\":13014:13018   */\n      dup2\n        /* \"#utility.yul\":13005:13011   */\n      dup5\n        /* \"#utility.yul\":12941:13019   */\n      tag_72\n      jump\t// in\n    tag_238:\n        /* \"#utility.yul\":12933:13019   */\n      swap1\n      pop\n        /* \"#utility.yul\":12603:13026   */\n      swap4\n      swap3\n      pop\n      pop\n      pop\n      jump\t// out\n\n    auxdata: 0xa2646970667358221220f1e2ebbeb366d629351938e0152ecd6b14e9ed189f7fd80b109c4bc253cf99b064736f6c634300081a0033\n}\n",
				"bytecode": {
					"linkReferences": {},
					"object": "6080604052348015600e575f80fd5b50610b548061001c5f395ff3fe608060405234801561000f575f80fd5b5060043610610055575f3560e01c80636dda61d914610059578063a5b16b2e14610075578063b7f5576d14610093578063c2ed2b05146100af578063f1675bef146100e2575b5f80fd5b610073600480360381019061006e9190610459565b610112565b005b61007d6101ce565b60405161008a9190610493565b60405180910390f35b6100ad60048036038101906100a891906105e8565b6101d3565b005b6100c960048036038101906100c49190610459565b61030f565b6040516100d994939291906106e8565b60405180910390f35b6100fc60048036038101906100f79190610459565b6103ec565b6040516101099190610732565b60405180910390f35b5f60015f8381526020019081526020015f209050806003015f9054906101000a900460ff1615610177576040517f08c379a000000000000000000000000000000000000000000000000000000000815260040161016e90610795565b60405180910390fd5b6001816003015f6101000a81548160ff0219169083151502179055507f4b93fd5160fbc8b35d08aff650902cf41c86e6df325a3eabab5bcca811976cf7826040516101c29190610493565b60405180910390a15050565b5f5481565b5f808154809291906101e4906107e0565b919050555060405180608001604052805f5481526020013373ffffffffffffffffffffffffffffffffffffffff1681526020018281526020015f151581525060015f805481526020019081526020015f205f820151815f01556020820151816001015f6101000a81548173ffffffffffffffffffffffffffffffffffffffff021916908373ffffffffffffffffffffffffffffffffffffffff16021790555060408201518160020190816102989190610a21565b506060820151816003015f6101000a81548160ff0219169083151502179055509050503373ffffffffffffffffffffffffffffffffffffffff167fffaa94bbdb06ce69a1cd16a5a05500d4475f2b769b7da620be594121265017f95f5483604051610304929190610af0565b60405180910390a250565b6001602052805f5260405f205f91509050805f015490806001015f9054906101000a900473ffffffffffffffffffffffffffffffffffffffff169080600201805461035990610854565b80601f016020809104026020016040519081016040528092919081815260200182805461038590610854565b80156103d05780601f106103a7576101008083540402835291602001916103d0565b820191905f5260205f20905b8154815290600101906020018083116103b357829003601f168201915b505050505090806003015f9054906101000a900460ff16905084565b5f60015f8381526020019081526020015f206003015f9054906101000a900460ff169050919050565b5f604051905090565b5f80fd5b5f80fd5b5f819050919050565b61043881610426565b8114610442575f80fd5b50565b5f813590506104538161042f565b92915050565b5f6020828403121561046e5761046d61041e565b5b5f61047b84828501610445565b91505092915050565b61048d81610426565b82525050565b5f6020820190506104a65f830184610484565b92915050565b5f80fd5b5f80fd5b5f601f19601f8301169050919050565b7f4e487b71000000000000000000000000000000000000000000000000000000005f52604160045260245ffd5b6104fa826104b4565b810181811067ffffffffffffffff82111715610519576105186104c4565b5b80604052505050565b5f61052b610415565b905061053782826104f1565b919050565b5f67ffffffffffffffff821115610556576105556104c4565b5b61055f826104b4565b9050602081019050919050565b828183375f83830152505050565b5f61058c6105878461053c565b610522565b9050828152602081018484840111156105a8576105a76104b0565b5b6105b384828561056c565b509392505050565b5f82601f8301126105cf576105ce6104ac565b5b81356105df84826020860161057a565b91505092915050565b5f602082840312156105fd576105fc61041e565b5b5f82013567ffffffffffffffff81111561061a57610619610422565b5b610626848285016105bb565b91505092915050565b5f73ffffffffffffffffffffffffffffffffffffffff82169050919050565b5f6106588261062f565b9050919050565b6106688161064e565b82525050565b5f81519050919050565b5f82825260208201905092915050565b8281835e5f83830152505050565b5f6106a08261066e565b6106aa8185610678565b93506106ba818560208601610688565b6106c3816104b4565b840191505092915050565b5f8115159050919050565b6106e2816106ce565b82525050565b5f6080820190506106fb5f830187610484565b610708602083018661065f565b818103604083015261071a8185610696565b905061072960608301846106d9565b95945050505050565b5f6020820190506107455f8301846106d9565b92915050565b7f446f63756d656e7420697320616c7265616479207665726966696564000000005f82015250565b5f61077f601c83610678565b915061078a8261074b565b602082019050919050565b5f6020820190508181035f8301526107ac81610773565b9050919050565b7f4e487b71000000000000000000000000000000000000000000000000000000005f52601160045260245ffd5b5f6107ea82610426565b91507fffffffffffffffffffffffffffffffffffffffffffffffffffffffffffffffff820361081c5761081b6107b3565b5b600182019050919050565b7f4e487b71000000000000000000000000000000000000000000000000000000005f52602260045260245ffd5b5f600282049050600182168061086b57607f821691505b60208210810361087e5761087d610827565b5b50919050565b5f819050815f5260205f209050919050565b5f6020601f8301049050919050565b5f82821b905092915050565b5f600883026108e07fffffffffffffffffffffffffffffffffffffffffffffffffffffffffffffffff826108a5565b6108ea86836108a5565b95508019841693508086168417925050509392505050565b5f819050919050565b5f61092561092061091b84610426565b610902565b610426565b9050919050565b5f819050919050565b61093e8361090b565b61095261094a8261092c565b8484546108b1565b825550505050565b5f90565b61096661095a565b610971818484610935565b505050565b5b81811015610994576109895f8261095e565b600181019050610977565b5050565b601f8211156109d9576109aa81610884565b6109b384610896565b810160208510156109c2578190505b6109d66109ce85610896565b830182610976565b50505b505050565b5f82821c905092915050565b5f6109f95f19846008026109de565b1980831691505092915050565b5f610a1183836109ea565b9150826002028217905092915050565b610a2a8261066e565b67ffffffffffffffff811115610a4357610a426104c4565b5b610a4d8254610854565b610a58828285610998565b5f60209050601f831160018114610a89575f8415610a77578287015190505b610a818582610a06565b865550610ae8565b601f198416610a9786610884565b5f5b82811015610abe57848901518255600182019150602085019450602081019050610a99565b86831015610adb5784890151610ad7601f8916826109ea565b8355505b6001600288020188555050505b505050505050565b5f604082019050610b035f830185610484565b8181036020830152610b158184610696565b9050939250505056fea2646970667358221220f1e2ebbeb366d629351938e0152ecd6b14e9ed189f7fd80b109c4bc253cf99b064736f6c634300081a0033",
					"opcodes": "PUSH1 0x80 PUSH1 0x40 MSTORE CALLVALUE DUP1 ISZERO PUSH1 0xE JUMPI PUSH0 DUP1 REVERT JUMPDEST POP PUSH2 0xB54 DUP1 PUSH2 0x1C PUSH0 CODECOPY PUSH0 RETURN INVALID PUSH1 0x80 PUSH1 0x40 MSTORE CALLVALUE DUP1 ISZERO PUSH2 0xF JUMPI PUSH0 DUP1 REVERT JUMPDEST POP PUSH1 0x4 CALLDATASIZE LT PUSH2 0x55 JUMPI PUSH0 CALLDATALOAD PUSH1 0xE0 SHR DUP1 PUSH4 0x6DDA61D9 EQ PUSH2 0x59 JUMPI DUP1 PUSH4 0xA5B16B2E EQ PUSH2 0x75 JUMPI DUP1 PUSH4 0xB7F5576D EQ PUSH2 0x93 JUMPI DUP1 PUSH4 0xC2ED2B05 EQ PUSH2 0xAF JUMPI DUP1 PUSH4 0xF1675BEF EQ PUSH2 0xE2 JUMPI JUMPDEST PUSH0 DUP1 REVERT JUMPDEST PUSH2 0x73 PUSH1 0x4 DUP1 CALLDATASIZE SUB DUP2 ADD SWAP1 PUSH2 0x6E SWAP2 SWAP1 PUSH2 0x459 JUMP JUMPDEST PUSH2 0x112 JUMP JUMPDEST STOP JUMPDEST PUSH2 0x7D PUSH2 0x1CE JUMP JUMPDEST PUSH1 0x40 MLOAD PUSH2 0x8A SWAP2 SWAP1 PUSH2 0x493 JUMP JUMPDEST PUSH1 0x40 MLOAD DUP1 SWAP2 SUB SWAP1 RETURN JUMPDEST PUSH2 0xAD PUSH1 0x4 DUP1 CALLDATASIZE SUB DUP2 ADD SWAP1 PUSH2 0xA8 SWAP2 SWAP1 PUSH2 0x5E8 JUMP JUMPDEST PUSH2 0x1D3 JUMP JUMPDEST STOP JUMPDEST PUSH2 0xC9 PUSH1 0x4 DUP1 CALLDATASIZE SUB DUP2 ADD SWAP1 PUSH2 0xC4 SWAP2 SWAP1 PUSH2 0x459 JUMP JUMPDEST PUSH2 0x30F JUMP JUMPDEST PUSH1 0x40 MLOAD PUSH2 0xD9 SWAP5 SWAP4 SWAP3 SWAP2 SWAP1 PUSH2 0x6E8 JUMP JUMPDEST PUSH1 0x40 MLOAD DUP1 SWAP2 SUB SWAP1 RETURN JUMPDEST PUSH2 0xFC PUSH1 0x4 DUP1 CALLDATASIZE SUB DUP2 ADD SWAP1 PUSH2 0xF7 SWAP2 SWAP1 PUSH2 0x459 JUMP JUMPDEST PUSH2 0x3EC JUMP JUMPDEST PUSH1 0x40 MLOAD PUSH2 0x109 SWAP2 SWAP1 PUSH2 0x732 JUMP JUMPDEST PUSH1 0x40 MLOAD DUP1 SWAP2 SUB SWAP1 RETURN JUMPDEST PUSH0 PUSH1 0x1 PUSH0 DUP4 DUP2 MSTORE PUSH1 0x20 ADD SWAP1 DUP2 MSTORE PUSH1 0x20 ADD PUSH0 KECCAK256 SWAP1 POP DUP1 PUSH1 0x3 ADD PUSH0 SWAP1 SLOAD SWAP1 PUSH2 0x100 EXP SWAP1 DIV PUSH1 0xFF AND ISZERO PUSH2 0x177 JUMPI PUSH1 0x40 MLOAD PUSH32 0x8C379A000000000000000000000000000000000000000000000000000000000 DUP2 MSTORE PUSH1 0x4 ADD PUSH2 0x16E SWAP1 PUSH2 0x795 JUMP JUMPDEST PUSH1 0x40 MLOAD DUP1 SWAP2 SUB SWAP1 REVERT JUMPDEST PUSH1 0x1 DUP2 PUSH1 0x3 ADD PUSH0 PUSH2 0x100 EXP DUP2 SLOAD DUP2 PUSH1 0xFF MUL NOT AND SWAP1 DUP4 ISZERO ISZERO MUL OR SWAP1 SSTORE POP PUSH32 0x4B93FD5160FBC8B35D08AFF650902CF41C86E6DF325A3EABAB5BCCA811976CF7 DUP3 PUSH1 0x40 MLOAD PUSH2 0x1C2 SWAP2 SWAP1 PUSH2 0x493 JUMP JUMPDEST PUSH1 0x40 MLOAD DUP1 SWAP2 SUB SWAP1 LOG1 POP POP JUMP JUMPDEST PUSH0 SLOAD DUP2 JUMP JUMPDEST PUSH0 DUP1 DUP2 SLOAD DUP1 SWAP3 SWAP2 SWAP1 PUSH2 0x1E4 SWAP1 PUSH2 0x7E0 JUMP JUMPDEST SWAP2 SWAP1 POP SSTORE POP PUSH1 0x40 MLOAD DUP1 PUSH1 0x80 ADD PUSH1 0x40 MSTORE DUP1 PUSH0 SLOAD DUP2 MSTORE PUSH1 0x20 ADD CALLER PUSH20 0xFFFFFFFFFFFFFFFFFFFFFFFFFFFFFFFFFFFFFFFF AND DUP2 MSTORE PUSH1 0x20 ADD DUP3 DUP2 MSTORE PUSH1 0x20 ADD PUSH0 ISZERO ISZERO DUP2 MSTORE POP PUSH1 0x1 PUSH0 DUP1 SLOAD DUP2 MSTORE PUSH1 0x20 ADD SWAP1 DUP2 MSTORE PUSH1 0x20 ADD PUSH0 KECCAK256 PUSH0 DUP3 ADD MLOAD DUP2 PUSH0 ADD SSTORE PUSH1 0x20 DUP3 ADD MLOAD DUP2 PUSH1 0x1 ADD PUSH0 PUSH2 0x100 EXP DUP2 SLOAD DUP2 PUSH20 0xFFFFFFFFFFFFFFFFFFFFFFFFFFFFFFFFFFFFFFFF MUL NOT AND SWAP1 DUP4 PUSH20 0xFFFFFFFFFFFFFFFFFFFFFFFFFFFFFFFFFFFFFFFF AND MUL OR SWAP1 SSTORE POP PUSH1 0x40 DUP3 ADD MLOAD DUP2 PUSH1 0x2 ADD SWAP1 DUP2 PUSH2 0x298 SWAP2 SWAP1 PUSH2 0xA21 JUMP JUMPDEST POP PUSH1 0x60 DUP3 ADD MLOAD DUP2 PUSH1 0x3 ADD PUSH0 PUSH2 0x100 EXP DUP2 SLOAD DUP2 PUSH1 0xFF MUL NOT AND SWAP1 DUP4 ISZERO ISZERO MUL OR SWAP1 SSTORE POP SWAP1 POP POP CALLER PUSH20 0xFFFFFFFFFFFFFFFFFFFFFFFFFFFFFFFFFFFFFFFF AND PUSH32 0xFFAA94BBDB06CE69A1CD16A5A05500D4475F2B769B7DA620BE594121265017F9 PUSH0 SLOAD DUP4 PUSH1 0x40 MLOAD PUSH2 0x304 SWAP3 SWAP2 SWAP1 PUSH2 0xAF0 JUMP JUMPDEST PUSH1 0x40 MLOAD DUP1 SWAP2 SUB SWAP1 LOG2 POP JUMP JUMPDEST PUSH1 0x1 PUSH1 0x20 MSTORE DUP1 PUSH0 MSTORE PUSH1 0x40 PUSH0 KECCAK256 PUSH0 SWAP2 POP SWAP1 POP DUP1 PUSH0 ADD SLOAD SWAP1 DUP1 PUSH1 0x1 ADD PUSH0 SWAP1 SLOAD SWAP1 PUSH2 0x100 EXP SWAP1 DIV PUSH20 0xFFFFFFFFFFFFFFFFFFFFFFFFFFFFFFFFFFFFFFFF AND SWAP1 DUP1 PUSH1 0x2 ADD DUP1 SLOAD PUSH2 0x359 SWAP1 PUSH2 0x854 JUMP JUMPDEST DUP1 PUSH1 0x1F ADD PUSH1 0x20 DUP1 SWAP2 DIV MUL PUSH1 0x20 ADD PUSH1 0x40 MLOAD SWAP1 DUP2 ADD PUSH1 0x40 MSTORE DUP1 SWAP3 SWAP2 SWAP1 DUP2 DUP2 MSTORE PUSH1 0x20 ADD DUP3 DUP1 SLOAD PUSH2 0x385 SWAP1 PUSH2 0x854 JUMP JUMPDEST DUP1 ISZERO PUSH2 0x3D0 JUMPI DUP1 PUSH1 0x1F LT PUSH2 0x3A7 JUMPI PUSH2 0x100 DUP1 DUP4 SLOAD DIV MUL DUP4 MSTORE SWAP2 PUSH1 0x20 ADD SWAP2 PUSH2 0x3D0 JUMP JUMPDEST DUP3 ADD SWAP2 SWAP1 PUSH0 MSTORE PUSH1 0x20 PUSH0 KECCAK256 SWAP1 JUMPDEST DUP2 SLOAD DUP2 MSTORE SWAP1 PUSH1 0x1 ADD SWAP1 PUSH1 0x20 ADD DUP1 DUP4 GT PUSH2 0x3B3 JUMPI DUP3 SWAP1 SUB PUSH1 0x1F AND DUP3 ADD SWAP2 JUMPDEST POP POP POP POP POP SWAP1 DUP1 PUSH1 0x3 ADD PUSH0 SWAP1 SLOAD SWAP1 PUSH2 0x100 EXP SWAP1 DIV PUSH1 0xFF AND SWAP1 POP DUP5 JUMP JUMPDEST PUSH0 PUSH1 0x1 PUSH0 DUP4 DUP2 MSTORE PUSH1 0x20 ADD SWAP1 DUP2 MSTORE PUSH1 0x20 ADD PUSH0 KECCAK256 PUSH1 0x3 ADD PUSH0 SWAP1 SLOAD SWAP1 PUSH2 0x100 EXP SWAP1 DIV PUSH1 0xFF AND SWAP1 POP SWAP2 SWAP1 POP JUMP JUMPDEST PUSH0 PUSH1 0x40 MLOAD SWAP1 POP SWAP1 JUMP JUMPDEST PUSH0 DUP1 REVERT JUMPDEST PUSH0 DUP1 REVERT JUMPDEST PUSH0 DUP2 SWAP1 POP SWAP2 SWAP1 POP JUMP JUMPDEST PUSH2 0x438 DUP2 PUSH2 0x426 JUMP JUMPDEST DUP2 EQ PUSH2 0x442 JUMPI PUSH0 DUP1 REVERT JUMPDEST POP JUMP JUMPDEST PUSH0 DUP2 CALLDATALOAD SWAP1 POP PUSH2 0x453 DUP2 PUSH2 0x42F JUMP JUMPDEST SWAP3 SWAP2 POP POP JUMP JUMPDEST PUSH0 PUSH1 0x20 DUP3 DUP5 SUB SLT ISZERO PUSH2 0x46E JUMPI PUSH2 0x46D PUSH2 0x41E JUMP JUMPDEST JUMPDEST PUSH0 PUSH2 0x47B DUP5 DUP3 DUP6 ADD PUSH2 0x445 JUMP JUMPDEST SWAP2 POP POP SWAP3 SWAP2 POP POP JUMP JUMPDEST PUSH2 0x48D DUP2 PUSH2 0x426 JUMP JUMPDEST DUP3 MSTORE POP POP JUMP JUMPDEST PUSH0 PUSH1 0x20 DUP3 ADD SWAP1 POP PUSH2 0x4A6 PUSH0 DUP4 ADD DUP5 PUSH2 0x484 JUMP JUMPDEST SWAP3 SWAP2 POP POP JUMP JUMPDEST PUSH0 DUP1 REVERT JUMPDEST PUSH0 DUP1 REVERT JUMPDEST PUSH0 PUSH1 0x1F NOT PUSH1 0x1F DUP4 ADD AND SWAP1 POP SWAP2 SWAP1 POP JUMP JUMPDEST PUSH32 0x4E487B7100000000000000000000000000000000000000000000000000000000 PUSH0 MSTORE PUSH1 0x41 PUSH1 0x4 MSTORE PUSH1 0x24 PUSH0 REVERT JUMPDEST PUSH2 0x4FA DUP3 PUSH2 0x4B4 JUMP JUMPDEST DUP2 ADD DUP2 DUP2 LT PUSH8 0xFFFFFFFFFFFFFFFF DUP3 GT OR ISZERO PUSH2 0x519 JUMPI PUSH2 0x518 PUSH2 0x4C4 JUMP JUMPDEST JUMPDEST DUP1 PUSH1 0x40 MSTORE POP POP POP JUMP JUMPDEST PUSH0 PUSH2 0x52B PUSH2 0x415 JUMP JUMPDEST SWAP1 POP PUSH2 0x537 DUP3 DUP3 PUSH2 0x4F1 JUMP JUMPDEST SWAP2 SWAP1 POP JUMP JUMPDEST PUSH0 PUSH8 0xFFFFFFFFFFFFFFFF DUP3 GT ISZERO PUSH2 0x556 JUMPI PUSH2 0x555 PUSH2 0x4C4 JUMP JUMPDEST JUMPDEST PUSH2 0x55F DUP3 PUSH2 0x4B4 JUMP JUMPDEST SWAP1 POP PUSH1 0x20 DUP2 ADD SWAP1 POP SWAP2 SWAP1 POP JUMP JUMPDEST DUP3 DUP2 DUP4 CALLDATACOPY PUSH0 DUP4 DUP4 ADD MSTORE POP POP POP JUMP JUMPDEST PUSH0 PUSH2 0x58C PUSH2 0x587 DUP5 PUSH2 0x53C JUMP JUMPDEST PUSH2 0x522 JUMP JUMPDEST SWAP1 POP DUP3 DUP2 MSTORE PUSH1 0x20 DUP2 ADD DUP5 DUP5 DUP5 ADD GT ISZERO PUSH2 0x5A8 JUMPI PUSH2 0x5A7 PUSH2 0x4B0 JUMP JUMPDEST JUMPDEST PUSH2 0x5B3 DUP5 DUP3 DUP6 PUSH2 0x56C JUMP JUMPDEST POP SWAP4 SWAP3 POP POP POP JUMP JUMPDEST PUSH0 DUP3 PUSH1 0x1F DUP4 ADD SLT PUSH2 0x5CF JUMPI PUSH2 0x5CE PUSH2 0x4AC JUMP JUMPDEST JUMPDEST DUP2 CALLDATALOAD PUSH2 0x5DF DUP5 DUP3 PUSH1 0x20 DUP7 ADD PUSH2 0x57A JUMP JUMPDEST SWAP2 POP POP SWAP3 SWAP2 POP POP JUMP JUMPDEST PUSH0 PUSH1 0x20 DUP3 DUP5 SUB SLT ISZERO PUSH2 0x5FD JUMPI PUSH2 0x5FC PUSH2 0x41E JUMP JUMPDEST JUMPDEST PUSH0 DUP3 ADD CALLDATALOAD PUSH8 0xFFFFFFFFFFFFFFFF DUP2 GT ISZERO PUSH2 0x61A JUMPI PUSH2 0x619 PUSH2 0x422 JUMP JUMPDEST JUMPDEST PUSH2 0x626 DUP5 DUP3 DUP6 ADD PUSH2 0x5BB JUMP JUMPDEST SWAP2 POP POP SWAP3 SWAP2 POP POP JUMP JUMPDEST PUSH0 PUSH20 0xFFFFFFFFFFFFFFFFFFFFFFFFFFFFFFFFFFFFFFFF DUP3 AND SWAP1 POP SWAP2 SWAP1 POP JUMP JUMPDEST PUSH0 PUSH2 0x658 DUP3 PUSH2 0x62F JUMP JUMPDEST SWAP1 POP SWAP2 SWAP1 POP JUMP JUMPDEST PUSH2 0x668 DUP2 PUSH2 0x64E JUMP JUMPDEST DUP3 MSTORE POP POP JUMP JUMPDEST PUSH0 DUP2 MLOAD SWAP1 POP SWAP2 SWAP1 POP JUMP JUMPDEST PUSH0 DUP3 DUP3 MSTORE PUSH1 0x20 DUP3 ADD SWAP1 POP SWAP3 SWAP2 POP POP JUMP JUMPDEST DUP3 DUP2 DUP4 MCOPY PUSH0 DUP4 DUP4 ADD MSTORE POP POP POP JUMP JUMPDEST PUSH0 PUSH2 0x6A0 DUP3 PUSH2 0x66E JUMP JUMPDEST PUSH2 0x6AA DUP2 DUP6 PUSH2 0x678 JUMP JUMPDEST SWAP4 POP PUSH2 0x6BA DUP2 DUP6 PUSH1 0x20 DUP7 ADD PUSH2 0x688 JUMP JUMPDEST PUSH2 0x6C3 DUP2 PUSH2 0x4B4 JUMP JUMPDEST DUP5 ADD SWAP2 POP POP SWAP3 SWAP2 POP POP JUMP JUMPDEST PUSH0 DUP2 ISZERO ISZERO SWAP1 POP SWAP2 SWAP1 POP JUMP JUMPDEST PUSH2 0x6E2 DUP2 PUSH2 0x6CE JUMP JUMPDEST DUP3 MSTORE POP POP JUMP JUMPDEST PUSH0 PUSH1 0x80 DUP3 ADD SWAP1 POP PUSH2 0x6FB PUSH0 DUP4 ADD DUP8 PUSH2 0x484 JUMP JUMPDEST PUSH2 0x708 PUSH1 0x20 DUP4 ADD DUP7 PUSH2 0x65F JUMP JUMPDEST DUP2 DUP2 SUB PUSH1 0x40 DUP4 ADD MSTORE PUSH2 0x71A DUP2 DUP6 PUSH2 0x696 JUMP JUMPDEST SWAP1 POP PUSH2 0x729 PUSH1 0x60 DUP4 ADD DUP5 PUSH2 0x6D9 JUMP JUMPDEST SWAP6 SWAP5 POP POP POP POP POP JUMP JUMPDEST PUSH0 PUSH1 0x20 DUP3 ADD SWAP1 POP PUSH2 0x745 PUSH0 DUP4 ADD DUP5 PUSH2 0x6D9 JUMP JUMPDEST SWAP3 SWAP2 POP POP JUMP JUMPDEST PUSH32 0x446F63756D656E7420697320616C726561647920766572696669656400000000 PUSH0 DUP3 ADD MSTORE POP JUMP JUMPDEST PUSH0 PUSH2 0x77F PUSH1 0x1C DUP4 PUSH2 0x678 JUMP JUMPDEST SWAP2 POP PUSH2 0x78A DUP3 PUSH2 0x74B JUMP JUMPDEST PUSH1 0x20 DUP3 ADD SWAP1 POP SWAP2 SWAP1 POP JUMP JUMPDEST PUSH0 PUSH1 0x20 DUP3 ADD SWAP1 POP DUP2 DUP2 SUB PUSH0 DUP4 ADD MSTORE PUSH2 0x7AC DUP2 PUSH2 0x773 JUMP JUMPDEST SWAP1 POP SWAP2 SWAP1 POP JUMP JUMPDEST PUSH32 0x4E487B7100000000000000000000000000000000000000000000000000000000 PUSH0 MSTORE PUSH1 0x11 PUSH1 0x4 MSTORE PUSH1 0x24 PUSH0 REVERT JUMPDEST PUSH0 PUSH2 0x7EA DUP3 PUSH2 0x426 JUMP JUMPDEST SWAP2 POP PUSH32 0xFFFFFFFFFFFFFFFFFFFFFFFFFFFFFFFFFFFFFFFFFFFFFFFFFFFFFFFFFFFFFFFF DUP3 SUB PUSH2 0x81C JUMPI PUSH2 0x81B PUSH2 0x7B3 JUMP JUMPDEST JUMPDEST PUSH1 0x1 DUP3 ADD SWAP1 POP SWAP2 SWAP1 POP JUMP JUMPDEST PUSH32 0x4E487B7100000000000000000000000000000000000000000000000000000000 PUSH0 MSTORE PUSH1 0x22 PUSH1 0x4 MSTORE PUSH1 0x24 PUSH0 REVERT JUMPDEST PUSH0 PUSH1 0x2 DUP3 DIV SWAP1 POP PUSH1 0x1 DUP3 AND DUP1 PUSH2 0x86B JUMPI PUSH1 0x7F DUP3 AND SWAP2 POP JUMPDEST PUSH1 0x20 DUP3 LT DUP2 SUB PUSH2 0x87E JUMPI PUSH2 0x87D PUSH2 0x827 JUMP JUMPDEST JUMPDEST POP SWAP2 SWAP1 POP JUMP JUMPDEST PUSH0 DUP2 SWAP1 POP DUP2 PUSH0 MSTORE PUSH1 0x20 PUSH0 KECCAK256 SWAP1 POP SWAP2 SWAP1 POP JUMP JUMPDEST PUSH0 PUSH1 0x20 PUSH1 0x1F DUP4 ADD DIV SWAP1 POP SWAP2 SWAP1 POP JUMP JUMPDEST PUSH0 DUP3 DUP3 SHL SWAP1 POP SWAP3 SWAP2 POP POP JUMP JUMPDEST PUSH0 PUSH1 0x8 DUP4 MUL PUSH2 0x8E0 PUSH32 0xFFFFFFFFFFFFFFFFFFFFFFFFFFFFFFFFFFFFFFFFFFFFFFFFFFFFFFFFFFFFFFFF DUP3 PUSH2 0x8A5 JUMP JUMPDEST PUSH2 0x8EA DUP7 DUP4 PUSH2 0x8A5 JUMP JUMPDEST SWAP6 POP DUP1 NOT DUP5 AND SWAP4 POP DUP1 DUP7 AND DUP5 OR SWAP3 POP POP POP SWAP4 SWAP3 POP POP POP JUMP JUMPDEST PUSH0 DUP2 SWAP1 POP SWAP2 SWAP1 POP JUMP JUMPDEST PUSH0 PUSH2 0x925 PUSH2 0x920 PUSH2 0x91B DUP5 PUSH2 0x426 JUMP JUMPDEST PUSH2 0x902 JUMP JUMPDEST PUSH2 0x426 JUMP JUMPDEST SWAP1 POP SWAP2 SWAP1 POP JUMP JUMPDEST PUSH0 DUP2 SWAP1 POP SWAP2 SWAP1 POP JUMP JUMPDEST PUSH2 0x93E DUP4 PUSH2 0x90B JUMP JUMPDEST PUSH2 0x952 PUSH2 0x94A DUP3 PUSH2 0x92C JUMP JUMPDEST DUP5 DUP5 SLOAD PUSH2 0x8B1 JUMP JUMPDEST DUP3 SSTORE POP POP POP POP JUMP JUMPDEST PUSH0 SWAP1 JUMP JUMPDEST PUSH2 0x966 PUSH2 0x95A JUMP JUMPDEST PUSH2 0x971 DUP2 DUP5 DUP5 PUSH2 0x935 JUMP JUMPDEST POP POP POP JUMP JUMPDEST JUMPDEST DUP2 DUP2 LT ISZERO PUSH2 0x994 JUMPI PUSH2 0x989 PUSH0 DUP3 PUSH2 0x95E JUMP JUMPDEST PUSH1 0x1 DUP2 ADD SWAP1 POP PUSH2 0x977 JUMP JUMPDEST POP POP JUMP JUMPDEST PUSH1 0x1F DUP3 GT ISZERO PUSH2 0x9D9 JUMPI PUSH2 0x9AA DUP2 PUSH2 0x884 JUMP JUMPDEST PUSH2 0x9B3 DUP5 PUSH2 0x896 JUMP JUMPDEST DUP2 ADD PUSH1 0x20 DUP6 LT ISZERO PUSH2 0x9C2 JUMPI DUP2 SWAP1 POP JUMPDEST PUSH2 0x9D6 PUSH2 0x9CE DUP6 PUSH2 0x896 JUMP JUMPDEST DUP4 ADD DUP3 PUSH2 0x976 JUMP JUMPDEST POP POP JUMPDEST POP POP POP JUMP JUMPDEST PUSH0 DUP3 DUP3 SHR SWAP1 POP SWAP3 SWAP2 POP POP JUMP JUMPDEST PUSH0 PUSH2 0x9F9 PUSH0 NOT DUP5 PUSH1 0x8 MUL PUSH2 0x9DE JUMP JUMPDEST NOT DUP1 DUP4 AND SWAP2 POP POP SWAP3 SWAP2 POP POP JUMP JUMPDEST PUSH0 PUSH2 0xA11 DUP4 DUP4 PUSH2 0x9EA JUMP JUMPDEST SWAP2 POP DUP3 PUSH1 0x2 MUL DUP3 OR SWAP1 POP SWAP3 SWAP2 POP POP JUMP JUMPDEST PUSH2 0xA2A DUP3 PUSH2 0x66E JUMP JUMPDEST PUSH8 0xFFFFFFFFFFFFFFFF DUP2 GT ISZERO PUSH2 0xA43 JUMPI PUSH2 0xA42 PUSH2 0x4C4 JUMP JUMPDEST JUMPDEST PUSH2 0xA4D DUP3 SLOAD PUSH2 0x854 JUMP JUMPDEST PUSH2 0xA58 DUP3 DUP3 DUP6 PUSH2 0x998 JUMP JUMPDEST PUSH0 PUSH1 0x20 SWAP1 POP PUSH1 0x1F DUP4 GT PUSH1 0x1 DUP2 EQ PUSH2 0xA89 JUMPI PUSH0 DUP5 ISZERO PUSH2 0xA77 JUMPI DUP3 DUP8 ADD MLOAD SWAP1 POP JUMPDEST PUSH2 0xA81 DUP6 DUP3 PUSH2 0xA06 JUMP JUMPDEST DUP7 SSTORE POP PUSH2 0xAE8 JUMP JUMPDEST PUSH1 0x1F NOT DUP5 AND PUSH2 0xA97 DUP7 PUSH2 0x884 JUMP JUMPDEST PUSH0 JUMPDEST DUP3 DUP2 LT ISZERO PUSH2 0xABE JUMPI DUP5 DUP10 ADD MLOAD DUP3 SSTORE PUSH1 0x1 DUP3 ADD SWAP2 POP PUSH1 0x20 DUP6 ADD SWAP5 POP PUSH1 0x20 DUP2 ADD SWAP1 POP PUSH2 0xA99 JUMP JUMPDEST DUP7 DUP4 LT ISZERO PUSH2 0xADB JUMPI DUP5 DUP10 ADD MLOAD PUSH2 0xAD7 PUSH1 0x1F DUP10 AND DUP3 PUSH2 0x9EA JUMP JUMPDEST DUP4 SSTORE POP JUMPDEST PUSH1 0x1 PUSH1 0x2 DUP9 MUL ADD DUP9 SSTORE POP POP POP JUMPDEST POP POP POP POP POP POP JUMP JUMPDEST PUSH0 PUSH1 0x40 DUP3 ADD SWAP1 POP PUSH2 0xB03 PUSH0 DUP4 ADD DUP6 PUSH2 0x484 JUMP JUMPDEST DUP2 DUP2 SUB PUSH1 0x20 DUP4 ADD MSTORE PUSH2 0xB15 DUP2 DUP5 PUSH2 0x696 JUMP JUMPDEST SWAP1 POP SWAP4 SWAP3 POP POP POP JUMP INVALID LOG2 PUSH5 0x6970667358 0x22 SLT KECCAK256 CALL 0xE2 0xEB 0xBE 0xB3 PUSH7 0xD629351938E015 0x2E 0xCD PUSH12 0x14E9ED189F7FD80B109C4BC2 MSTORE8 0xCF SWAP10 0xB0 PUSH5 0x736F6C6343 STOP ADDMOD BYTE STOP CALLER "
				},
				"gasEstimates": {
					"creation": {
						"codeDepositCost": "580000",
						"executionCost": "611",
						"totalCost": "580611"
					},
					"external": {
						"documentCount()": "2424",
						"documents(uint256)": "infinite",
						"isDocumentVerified(uint256)": "2882",
						"uploadDocument(string)": "infinite",
						"verifyDocument(uint256)": "infinite"
					}
				},
				"methodIdentifiers": {
					"documentCount()": "a5b16b2e",
					"documents(uint256)": "c2ed2b05",
					"isDocumentVerified(uint256)": "f1675bef",
					"uploadDocument(string)": "b7f5576d",
					"verifyDocument(uint256)": "6dda61d9"
				}
			},
			"storageLayout": {
				"storage": [
					{
						"astId": 12,
						"contract": "contracts/Updated_1/DocumentContract.sol:DocumentContract",
						"label": "documentCount",
						"offset": 0,
						"slot": "0",
						"type": "t_uint256"
					},
					{
						"astId": 17,
						"contract": "contracts/Updated_1/DocumentContract.sol:DocumentContract",
						"label": "documents",
						"offset": 0,
						"slot": "1",
						"type": "t_mapping(t_uint256,t_struct(Document)10_storage)"
					}
				],
				"types": {
					"t_address": {
						"encoding": "inplace",
						"label": "address",
						"numberOfBytes": "20"
					},
					"t_bool": {
						"encoding": "inplace",
						"label": "bool",
						"numberOfBytes": "1"
					},
					"t_mapping(t_uint256,t_struct(Document)10_storage)": {
						"encoding": "mapping",
						"key": "t_uint256",
						"label": "mapping(uint256 => struct DocumentContract.Document)",
						"numberOfBytes": "32",
						"value": "t_struct(Document)10_storage"
					},
					"t_string_storage": {
						"encoding": "bytes",
						"label": "string",
						"numberOfBytes": "32"
					},
					"t_struct(Document)10_storage": {
						"encoding": "inplace",
						"label": "struct DocumentContract.Document",
						"members": [
							{
								"astId": 3,
								"contract": "contracts/Updated_1/DocumentContract.sol:DocumentContract",
								"label": "id",
								"offset": 0,
								"slot": "0",
								"type": "t_uint256"
							},
							{
								"astId": 5,
								"contract": "contracts/Updated_1/DocumentContract.sol:DocumentContract",
								"label": "uploader",
								"offset": 0,
								"slot": "1",
								"type": "t_address"
							},
							{
								"astId": 7,
								"contract": "contracts/Updated_1/DocumentContract.sol:DocumentContract",
								"label": "hash",
								"offset": 0,
								"slot": "2",
								"type": "t_string_storage"
							},
							{
								"astId": 9,
								"contract": "contracts/Updated_1/DocumentContract.sol:DocumentContract",
								"label": "isVerified",
								"offset": 0,
								"slot": "3",
								"type": "t_bool"
							}
						],
						"numberOfBytes": "128"
					},
					"t_uint256": {
						"encoding": "inplace",
						"label": "uint256",
						"numberOfBytes": "32"
					}
				}
			},
			"userdoc": {
				"kind": "user",
				"methods": {},
				"version": 1
			}
		}
	}
}