{
	"contracts/Updated_1/PropertyContract.sol": {
		"PropertyContract": {
			"abi": [
				{
					"inputs": [
						{
							"internalType": "address",
							"name": "userContractAddress",
							"type": "address"
						}
					],
					"stateMutability": "nonpayable",
					"type": "constructor"
				},
				{
					"anonymous": false,
					"inputs": [
						{
							"indexed": false,
							"internalType": "uint256",
							"name": "propertyId",
							"type": "uint256"
						},
						{
							"indexed": true,
							"internalType": "address",
							"name": "owner",
							"type": "address"
						},
						{
							"indexed": false,
							"internalType": "string",
							"name": "description",
							"type": "string"
						},
						{
							"indexed": false,
							"internalType": "uint256",
							"name": "price",
							"type": "uint256"
						}
					],
					"name": "PropertyListed",
					"type": "event"
				},
				{
					"anonymous": false,
					"inputs": [
						{
							"indexed": false,
							"internalType": "uint256",
							"name": "propertyId",
							"type": "uint256"
						}
					],
					"name": "PropertyRemoved",
					"type": "event"
				},
				{
					"anonymous": false,
					"inputs": [
						{
							"indexed": false,
							"internalType": "uint256",
							"name": "propertyId",
							"type": "uint256"
						},
						{
							"indexed": false,
							"internalType": "string",
							"name": "description",
							"type": "string"
						},
						{
							"indexed": false,
							"internalType": "uint256",
							"name": "price",
							"type": "uint256"
						}
					],
					"name": "PropertyUpdated",
					"type": "event"
				},
				{
					"inputs": [
						{
							"internalType": "address",
							"name": "owner",
							"type": "address"
						}
					],
					"name": "getPropertiesByOwner",
					"outputs": [
						{
							"internalType": "uint256[]",
							"name": "",
							"type": "uint256[]"
						}
					],
					"stateMutability": "view",
					"type": "function"
				},
				{
					"inputs": [
						{
							"internalType": "uint256",
							"name": "propertyId",
							"type": "uint256"
						}
					],
					"name": "getProperty",
					"outputs": [
						{
							"internalType": "uint256",
							"name": "",
							"type": "uint256"
						},
						{
							"internalType": "address",
							"name": "",
							"type": "address"
						},
						{
							"internalType": "string",
							"name": "",
							"type": "string"
						},
						{
							"internalType": "uint256",
							"name": "",
							"type": "uint256"
						},
						{
							"internalType": "bool",
							"name": "",
							"type": "bool"
						}
					],
					"stateMutability": "view",
					"type": "function"
				},
				{
					"inputs": [
						{
							"internalType": "string",
							"name": "description",
							"type": "string"
						},
						{
							"internalType": "uint256",
							"name": "price",
							"type": "uint256"
						}
					],
					"name": "listProperty",
					"outputs": [],
					"stateMutability": "nonpayable",
					"type": "function"
				},
				{
					"inputs": [
						{
							"internalType": "address",
							"name": "",
							"type": "address"
						},
						{
							"internalType": "uint256",
							"name": "",
							"type": "uint256"
						}
					],
					"name": "ownerProperties",
					"outputs": [
						{
							"internalType": "uint256",
							"name": "",
							"type": "uint256"
						}
					],
					"stateMutability": "view",
					"type": "function"
				},
				{
					"inputs": [
						{
							"internalType": "uint256",
							"name": "",
							"type": "uint256"
						}
					],
					"name": "properties",
					"outputs": [
						{
							"internalType": "uint256",
							"name": "id",
							"type": "uint256"
						},
						{
							"internalType": "address",
							"name": "owner",
							"type": "address"
						},
						{
							"internalType": "string",
							"name": "description",
							"type": "string"
						},
						{
							"internalType": "uint256",
							"name": "price",
							"type": "uint256"
						},
						{
							"internalType": "bool",
							"name": "isListed",
							"type": "bool"
						}
					],
					"stateMutability": "view",
					"type": "function"
				},
				{
					"inputs": [],
					"name": "propertyCount",
					"outputs": [
						{
							"internalType": "uint256",
							"name": "",
							"type": "uint256"
						}
					],
					"stateMutability": "view",
					"type": "function"
				},
				{
					"inputs": [
						{
							"internalType": "uint256",
							"name": "propertyId",
							"type": "uint256"
						}
					],
					"name": "removeProperty",
					"outputs": [],
					"stateMutability": "nonpayable",
					"type": "function"
				},
				{
					"inputs": [
						{
							"internalType": "uint256",
							"name": "propertyId",
							"type": "uint256"
						},
						{
							"internalType": "string",
							"name": "description",
							"type": "string"
						},
						{
							"internalType": "uint256",
							"name": "price",
							"type": "uint256"
						}
					],
					"name": "updateProperty",
					"outputs": [],
					"stateMutability": "nonpayable",
					"type": "function"
				},
				{
					"inputs": [],
					"name": "userContract",
					"outputs": [
						{
							"internalType": "contract UserContract",
							"name": "",
							"type": "address"
						}
					],
					"stateMutability": "view",
					"type": "function"
				}
			],
			"devdoc": {
				"kind": "dev",
				"methods": {},
				"version": 1
			},
			"evm": {
				"assembly": "    /* \"contracts/Updated_1/PropertyContract.sol\":92:2776  contract PropertyContract {... */\n  mstore(0x40, 0x80)\n    /* \"contracts/Updated_1/PropertyContract.sol\":705:813  constructor(address userContractAddress) {... */\n  callvalue\n  dup1\n  iszero\n  tag_1\n  jumpi\n  0x00\n  dup1\n  revert\ntag_1:\n  pop\n  mload(0x40)\n  sub(codesize, bytecodeSize)\n  dup1\n  bytecodeSize\n  dup4\n  codecopy\n  dup2\n  dup2\n  add\n  0x40\n  mstore\n  dup2\n  add\n  swap1\n  tag_2\n  swap2\n  swap1\n  tag_3\n  jump\t// in\ntag_2:\n    /* \"contracts/Updated_1/PropertyContract.sol\":785:804  userContractAddress */\n  dup1\n    /* \"contracts/Updated_1/PropertyContract.sol\":757:769  userContract */\n  0x00\n  dup1\n    /* \"contracts/Updated_1/PropertyContract.sol\":757:805  userContract = UserContract(userContractAddress) */\n  0x0100\n  exp\n  dup2\n  sload\n  dup2\n  0xffffffffffffffffffffffffffffffffffffffff\n  mul\n  not\n  and\n  swap1\n  dup4\n  0xffffffffffffffffffffffffffffffffffffffff\n  and\n  mul\n  or\n  swap1\n  sstore\n  pop\n    /* \"contracts/Updated_1/PropertyContract.sol\":705:813  constructor(address userContractAddress) {... */\n  pop\n    /* \"contracts/Updated_1/PropertyContract.sol\":92:2776  contract PropertyContract {... */\n  jump(tag_6)\n    /* \"#utility.yul\":88:205   */\ntag_8:\n    /* \"#utility.yul\":197:198   */\n  0x00\n    /* \"#utility.yul\":194:195   */\n  dup1\n    /* \"#utility.yul\":187:199   */\n  revert\n    /* \"#utility.yul\":334:460   */\ntag_10:\n    /* \"#utility.yul\":371:378   */\n  0x00\n    /* \"#utility.yul\":411:453   */\n  0xffffffffffffffffffffffffffffffffffffffff\n    /* \"#utility.yul\":404:409   */\n  dup3\n    /* \"#utility.yul\":400:454   */\n  and\n    /* \"#utility.yul\":389:454   */\n  swap1\n  pop\n    /* \"#utility.yul\":334:460   */\n  swap2\n  swap1\n  pop\n  jump\t// out\n    /* \"#utility.yul\":466:562   */\ntag_11:\n    /* \"#utility.yul\":503:510   */\n  0x00\n    /* \"#utility.yul\":532:556   */\n  tag_20\n    /* \"#utility.yul\":550:555   */\n  dup3\n    /* \"#utility.yul\":532:556   */\n  tag_10\n  jump\t// in\ntag_20:\n    /* \"#utility.yul\":521:556   */\n  swap1\n  pop\n    /* \"#utility.yul\":466:562   */\n  swap2\n  swap1\n  pop\n  jump\t// out\n    /* \"#utility.yul\":568:690   */\ntag_12:\n    /* \"#utility.yul\":641:665   */\n  tag_22\n    /* \"#utility.yul\":659:664   */\n  dup2\n    /* \"#utility.yul\":641:665   */\n  tag_11\n  jump\t// in\ntag_22:\n    /* \"#utility.yul\":634:639   */\n  dup2\n    /* \"#utility.yul\":631:666   */\n  eq\n    /* \"#utility.yul\":621:684   */\n  tag_23\n  jumpi\n    /* \"#utility.yul\":680:681   */\n  0x00\n    /* \"#utility.yul\":677:678   */\n  dup1\n    /* \"#utility.yul\":670:682   */\n  revert\n    /* \"#utility.yul\":621:684   */\ntag_23:\n    /* \"#utility.yul\":568:690   */\n  pop\n  jump\t// out\n    /* \"#utility.yul\":696:839   */\ntag_13:\n    /* \"#utility.yul\":753:758   */\n  0x00\n    /* \"#utility.yul\":784:790   */\n  dup2\n    /* \"#utility.yul\":778:791   */\n  mload\n    /* \"#utility.yul\":769:791   */\n  swap1\n  pop\n    /* \"#utility.yul\":800:833   */\n  tag_25\n    /* \"#utility.yul\":827:832   */\n  dup2\n    /* \"#utility.yul\":800:833   */\n  tag_12\n  jump\t// in\ntag_25:\n    /* \"#utility.yul\":696:839   */\n  swap3\n  swap2\n  pop\n  pop\n  jump\t// out\n    /* \"#utility.yul\":845:1196   */\ntag_3:\n    /* \"#utility.yul\":915:921   */\n  0x00\n    /* \"#utility.yul\":964:966   */\n  0x20\n    /* \"#utility.yul\":952:961   */\n  dup3\n    /* \"#utility.yul\":943:950   */\n  dup5\n    /* \"#utility.yul\":939:962   */\n  sub\n    /* \"#utility.yul\":935:967   */\n  slt\n    /* \"#utility.yul\":932:1051   */\n  iszero\n  tag_27\n  jumpi\n    /* \"#utility.yul\":970:1049   */\n  tag_28\n  tag_8\n  jump\t// in\ntag_28:\n    /* \"#utility.yul\":932:1051   */\ntag_27:\n    /* \"#utility.yul\":1090:1091   */\n  0x00\n    /* \"#utility.yul\":1115:1179   */\n  tag_29\n    /* \"#utility.yul\":1171:1178   */\n  dup5\n    /* \"#utility.yul\":1162:1168   */\n  dup3\n    /* \"#utility.yul\":1151:1160   */\n  dup6\n    /* \"#utility.yul\":1147:1169   */\n  add\n    /* \"#utility.yul\":1115:1179   */\n  tag_13\n  jump\t// in\ntag_29:\n    /* \"#utility.yul\":1105:1179   */\n  swap2\n  pop\n    /* \"#utility.yul\":1061:1189   */\n  pop\n    /* \"#utility.yul\":845:1196   */\n  swap3\n  swap2\n  pop\n  pop\n  jump\t// out\n    /* \"contracts/Updated_1/PropertyContract.sol\":92:2776  contract PropertyContract {... */\ntag_6:\n  dataSize(sub_0)\n  dup1\n  dataOffset(sub_0)\n  0x00\n  codecopy\n  0x00\n  return\nstop\n\nsub_0: assembly {\n        /* \"contracts/Updated_1/PropertyContract.sol\":92:2776  contract PropertyContract {... */\n      mstore(0x40, 0x80)\n      callvalue\n      dup1\n      iszero\n      tag_1\n      jumpi\n      0x00\n      dup1\n      revert\n    tag_1:\n      pop\n      jumpi(tag_2, lt(calldatasize, 0x04))\n      shr(0xe0, calldataload(0x00))\n      dup1\n      0x9fcb2748\n      gt\n      tag_12\n      jumpi\n      dup1\n      0x9fcb2748\n      eq\n      tag_7\n      jumpi\n      dup1\n      0xbc43d06f\n      eq\n      tag_8\n      jumpi\n      dup1\n      0xc361a335\n      eq\n      tag_9\n      jumpi\n      dup1\n      0xde9476ad\n      eq\n      tag_10\n      jumpi\n      dup1\n      0xf7b10808\n      eq\n      tag_11\n      jumpi\n      jump(tag_2)\n    tag_12:\n      dup1\n      0x2d64c60a\n      eq\n      tag_3\n      jumpi\n      dup1\n      0x32665ffb\n      eq\n      tag_4\n      jumpi\n      dup1\n      0x5000596b\n      eq\n      tag_5\n      jumpi\n      dup1\n      0x8f48bd5b\n      eq\n      tag_6\n      jumpi\n    tag_2:\n      0x00\n      dup1\n      revert\n        /* \"contracts/Updated_1/PropertyContract.sol\":1382:1843  function updateProperty(uint256 propertyId, string memory description, uint256 price) public {... */\n    tag_3:\n      tag_13\n      0x04\n      dup1\n      calldatasize\n      sub\n      dup2\n      add\n      swap1\n      tag_14\n      swap2\n      swap1\n      tag_15\n      jump\t// in\n    tag_14:\n      tag_16\n      jump\t// in\n    tag_13:\n      stop\n        /* \"contracts/Updated_1/PropertyContract.sol\":2415:2773  function getProperty(uint256 propertyId) public view returns (uint256, address, string memory, uint256, bool) {... */\n    tag_4:\n      tag_17\n      0x04\n      dup1\n      calldatasize\n      sub\n      dup2\n      add\n      swap1\n      tag_18\n      swap2\n      swap1\n      tag_19\n      jump\t// in\n    tag_18:\n      tag_20\n      jump\t// in\n    tag_17:\n      mload(0x40)\n      tag_21\n      swap6\n      swap5\n      swap4\n      swap3\n      swap2\n      swap1\n      tag_22\n      jump\t// in\n    tag_21:\n      mload(0x40)\n      dup1\n      swap2\n      sub\n      swap1\n      return\n        /* \"contracts/Updated_1/PropertyContract.sol\":279:311  UserContract public userContract */\n    tag_5:\n      tag_23\n      tag_24\n      jump\t// in\n    tag_23:\n      mload(0x40)\n      tag_25\n      swap2\n      swap1\n      tag_26\n      jump\t// in\n    tag_25:\n      mload(0x40)\n      dup1\n      swap2\n      sub\n      swap1\n      return\n        /* \"contracts/Updated_1/PropertyContract.sol\":406:458  mapping(address => uint256[]) public ownerProperties */\n    tag_6:\n      tag_27\n      0x04\n      dup1\n      calldatasize\n      sub\n      dup2\n      add\n      swap1\n      tag_28\n      swap2\n      swap1\n      tag_29\n      jump\t// in\n    tag_28:\n      tag_30\n      jump\t// in\n    tag_27:\n      mload(0x40)\n      tag_31\n      swap2\n      swap1\n      tag_32\n      jump\t// in\n    tag_31:\n      mload(0x40)\n      dup1\n      swap2\n      sub\n      swap1\n      return\n        /* \"contracts/Updated_1/PropertyContract.sol\":2216:2348  function getPropertiesByOwner(address owner) public view returns (uint256[] memory) {... */\n    tag_7:\n      tag_33\n      0x04\n      dup1\n      calldatasize\n      sub\n      dup2\n      add\n      swap1\n      tag_34\n      swap2\n      swap1\n      tag_35\n      jump\t// in\n    tag_34:\n      tag_36\n      jump\t// in\n    tag_33:\n      mload(0x40)\n      tag_37\n      swap2\n      swap1\n      tag_38\n      jump\t// in\n    tag_37:\n      mload(0x40)\n      dup1\n      swap2\n      sub\n      swap1\n      return\n        /* \"contracts/Updated_1/PropertyContract.sol\":1851:2208  function removeProperty(uint256 propertyId) public {... */\n    tag_8:\n      tag_39\n      0x04\n      dup1\n      calldatasize\n      sub\n      dup2\n      add\n      swap1\n      tag_40\n      swap2\n      swap1\n      tag_19\n      jump\t// in\n    tag_40:\n      tag_41\n      jump\t// in\n    tag_39:\n      stop\n        /* \"contracts/Updated_1/PropertyContract.sol\":318:346  uint256 public propertyCount */\n    tag_9:\n      tag_42\n      tag_43\n      jump\t// in\n    tag_42:\n      mload(0x40)\n      tag_44\n      swap2\n      swap1\n      tag_32\n      jump\t// in\n    tag_44:\n      mload(0x40)\n      dup1\n      swap2\n      sub\n      swap1\n      return\n        /* \"contracts/Updated_1/PropertyContract.sol\":821:1374  function listProperty(string memory description, uint256 price) public {... */\n    tag_10:\n      tag_45\n      0x04\n      dup1\n      calldatasize\n      sub\n      dup2\n      add\n      swap1\n      tag_46\n      swap2\n      swap1\n      tag_47\n      jump\t// in\n    tag_46:\n      tag_48\n      jump\t// in\n    tag_45:\n      stop\n        /* \"contracts/Updated_1/PropertyContract.sol\":353:399  mapping(uint256 => Property) public properties */\n    tag_11:\n      tag_49\n      0x04\n      dup1\n      calldatasize\n      sub\n      dup2\n      add\n      swap1\n      tag_50\n      swap2\n      swap1\n      tag_19\n      jump\t// in\n    tag_50:\n      tag_51\n      jump\t// in\n    tag_49:\n      mload(0x40)\n      tag_52\n      swap6\n      swap5\n      swap4\n      swap3\n      swap2\n      swap1\n      tag_22\n      jump\t// in\n    tag_52:\n      mload(0x40)\n      dup1\n      swap2\n      sub\n      swap1\n      return\n        /* \"contracts/Updated_1/PropertyContract.sol\":1382:1843  function updateProperty(uint256 propertyId, string memory description, uint256 price) public {... */\n    tag_16:\n        /* \"contracts/Updated_1/PropertyContract.sol\":1486:1511  Property storage property */\n      0x00\n        /* \"contracts/Updated_1/PropertyContract.sol\":1514:1524  properties */\n      0x02\n        /* \"contracts/Updated_1/PropertyContract.sol\":1514:1536  properties[propertyId] */\n      0x00\n        /* \"contracts/Updated_1/PropertyContract.sol\":1525:1535  propertyId */\n      dup6\n        /* \"contracts/Updated_1/PropertyContract.sol\":1514:1536  properties[propertyId] */\n      dup2\n      mstore\n      0x20\n      add\n      swap1\n      dup2\n      mstore\n      0x20\n      add\n      0x00\n      keccak256\n        /* \"contracts/Updated_1/PropertyContract.sol\":1486:1536  Property storage property = properties[propertyId] */\n      swap1\n      pop\n        /* \"contracts/Updated_1/PropertyContract.sol\":1573:1583  msg.sender */\n      caller\n        /* \"contracts/Updated_1/PropertyContract.sol\":1555:1583  property.owner == msg.sender */\n      0xffffffffffffffffffffffffffffffffffffffff\n      and\n        /* \"contracts/Updated_1/PropertyContract.sol\":1555:1563  property */\n      dup2\n        /* \"contracts/Updated_1/PropertyContract.sol\":1555:1569  property.owner */\n      0x01\n      add\n      0x00\n      swap1\n      sload\n      swap1\n      0x0100\n      exp\n      swap1\n      div\n      0xffffffffffffffffffffffffffffffffffffffff\n      and\n        /* \"contracts/Updated_1/PropertyContract.sol\":1555:1583  property.owner == msg.sender */\n      0xffffffffffffffffffffffffffffffffffffffff\n      and\n      eq\n        /* \"contracts/Updated_1/PropertyContract.sol\":1547:1627  require(property.owner == msg.sender, \"Only the owner can update this property\") */\n      tag_54\n      jumpi\n      mload(0x40)\n      0x08c379a000000000000000000000000000000000000000000000000000000000\n      dup2\n      mstore\n      0x04\n      add\n      tag_55\n      swap1\n      tag_56\n      jump\t// in\n    tag_55:\n      mload(0x40)\n      dup1\n      swap2\n      sub\n      swap1\n      revert\n    tag_54:\n        /* \"contracts/Updated_1/PropertyContract.sol\":1646:1654  property */\n      dup1\n        /* \"contracts/Updated_1/PropertyContract.sol\":1646:1663  property.isListed */\n      0x04\n      add\n      0x00\n      swap1\n      sload\n      swap1\n      0x0100\n      exp\n      swap1\n      div\n      0xff\n      and\n        /* \"contracts/Updated_1/PropertyContract.sol\":1638:1690  require(property.isListed, \"Property is not listed\") */\n      tag_57\n      jumpi\n      mload(0x40)\n      0x08c379a000000000000000000000000000000000000000000000000000000000\n      dup2\n      mstore\n      0x04\n      add\n      tag_58\n      swap1\n      tag_59\n      jump\t// in\n    tag_58:\n      mload(0x40)\n      dup1\n      swap2\n      sub\n      swap1\n      revert\n    tag_57:\n        /* \"contracts/Updated_1/PropertyContract.sol\":1726:1737  description */\n      dup3\n        /* \"contracts/Updated_1/PropertyContract.sol\":1703:1711  property */\n      dup2\n        /* \"contracts/Updated_1/PropertyContract.sol\":1703:1723  property.description */\n      0x02\n      add\n        /* \"contracts/Updated_1/PropertyContract.sol\":1703:1737  property.description = description */\n      swap1\n      dup2\n      tag_60\n      swap2\n      swap1\n      tag_61\n      jump\t// in\n    tag_60:\n      pop\n        /* \"contracts/Updated_1/PropertyContract.sol\":1765:1770  price */\n      dup2\n        /* \"contracts/Updated_1/PropertyContract.sol\":1748:1756  property */\n      dup2\n        /* \"contracts/Updated_1/PropertyContract.sol\":1748:1762  property.price */\n      0x03\n      add\n        /* \"contracts/Updated_1/PropertyContract.sol\":1748:1770  property.price = price */\n      dup2\n      swap1\n      sstore\n      pop\n        /* \"contracts/Updated_1/PropertyContract.sol\":1788:1835  PropertyUpdated(propertyId, description, price) */\n      0xc7d6594ab03628ef3f6852d4225a8d2b1461544207142d9c0fba9747a789ade5\n        /* \"contracts/Updated_1/PropertyContract.sol\":1804:1814  propertyId */\n      dup5\n        /* \"contracts/Updated_1/PropertyContract.sol\":1816:1827  description */\n      dup5\n        /* \"contracts/Updated_1/PropertyContract.sol\":1829:1834  price */\n      dup5\n        /* \"contracts/Updated_1/PropertyContract.sol\":1788:1835  PropertyUpdated(propertyId, description, price) */\n      mload(0x40)\n      tag_62\n      swap4\n      swap3\n      swap2\n      swap1\n      tag_63\n      jump\t// in\n    tag_62:\n      mload(0x40)\n      dup1\n      swap2\n      sub\n      swap1\n      log1\n        /* \"contracts/Updated_1/PropertyContract.sol\":1475:1843  {... */\n      pop\n        /* \"contracts/Updated_1/PropertyContract.sol\":1382:1843  function updateProperty(uint256 propertyId, string memory description, uint256 price) public {... */\n      pop\n      pop\n      pop\n      jump\t// out\n        /* \"contracts/Updated_1/PropertyContract.sol\":2415:2773  function getProperty(uint256 propertyId) public view returns (uint256, address, string memory, uint256, bool) {... */\n    tag_20:\n        /* \"contracts/Updated_1/PropertyContract.sol\":2477:2484  uint256 */\n      0x00\n        /* \"contracts/Updated_1/PropertyContract.sol\":2486:2493  address */\n      dup1\n        /* \"contracts/Updated_1/PropertyContract.sol\":2495:2508  string memory */\n      0x60\n        /* \"contracts/Updated_1/PropertyContract.sol\":2510:2517  uint256 */\n      0x00\n        /* \"contracts/Updated_1/PropertyContract.sol\":2519:2523  bool */\n      dup1\n        /* \"contracts/Updated_1/PropertyContract.sol\":2536:2560  Property memory property */\n      0x00\n        /* \"contracts/Updated_1/PropertyContract.sol\":2563:2573  properties */\n      0x02\n        /* \"contracts/Updated_1/PropertyContract.sol\":2563:2585  properties[propertyId] */\n      0x00\n        /* \"contracts/Updated_1/PropertyContract.sol\":2574:2584  propertyId */\n      dup9\n        /* \"contracts/Updated_1/PropertyContract.sol\":2563:2585  properties[propertyId] */\n      dup2\n      mstore\n      0x20\n      add\n      swap1\n      dup2\n      mstore\n      0x20\n      add\n      0x00\n      keccak256\n        /* \"contracts/Updated_1/PropertyContract.sol\":2536:2585  Property memory property = properties[propertyId] */\n      mload(0x40)\n      dup1\n      0xa0\n      add\n      0x40\n      mstore\n      swap1\n      dup2\n      0x00\n      dup3\n      add\n      sload\n      dup2\n      mstore\n      0x20\n      add\n      0x01\n      dup3\n      add\n      0x00\n      swap1\n      sload\n      swap1\n      0x0100\n      exp\n      swap1\n      div\n      0xffffffffffffffffffffffffffffffffffffffff\n      and\n      0xffffffffffffffffffffffffffffffffffffffff\n      and\n      0xffffffffffffffffffffffffffffffffffffffff\n      and\n      dup2\n      mstore\n      0x20\n      add\n      0x02\n      dup3\n      add\n      dup1\n      sload\n      tag_65\n      swap1\n      tag_66\n      jump\t// in\n    tag_65:\n      dup1\n      0x1f\n      add\n      0x20\n      dup1\n      swap2\n      div\n      mul\n      0x20\n      add\n      mload(0x40)\n      swap1\n      dup2\n      add\n      0x40\n      mstore\n      dup1\n      swap3\n      swap2\n      swap1\n      dup2\n      dup2\n      mstore\n      0x20\n      add\n      dup3\n      dup1\n      sload\n      tag_67\n      swap1\n      tag_66\n      jump\t// in\n    tag_67:\n      dup1\n      iszero\n      tag_68\n      jumpi\n      dup1\n      0x1f\n      lt\n      tag_69\n      jumpi\n      0x0100\n      dup1\n      dup4\n      sload\n      div\n      mul\n      dup4\n      mstore\n      swap2\n      0x20\n      add\n      swap2\n      jump(tag_68)\n    tag_69:\n      dup3\n      add\n      swap2\n      swap1\n      0x00\n      mstore\n      keccak256(0x00, 0x20)\n      swap1\n    tag_70:\n      dup2\n      sload\n      dup2\n      mstore\n      swap1\n      0x01\n      add\n      swap1\n      0x20\n      add\n      dup1\n      dup4\n      gt\n      tag_70\n      jumpi\n      dup3\n      swap1\n      sub\n      0x1f\n      and\n      dup3\n      add\n      swap2\n    tag_68:\n      pop\n      pop\n      pop\n      pop\n      pop\n      dup2\n      mstore\n      0x20\n      add\n      0x03\n      dup3\n      add\n      sload\n      dup2\n      mstore\n      0x20\n      add\n      0x04\n      dup3\n      add\n      0x00\n      swap1\n      sload\n      swap1\n      0x0100\n      exp\n      swap1\n      div\n      0xff\n      and\n      iszero\n      iszero\n      iszero\n      iszero\n      dup2\n      mstore\n      pop\n      pop\n      swap1\n      pop\n        /* \"contracts/Updated_1/PropertyContract.sol\":2618:2626  property */\n      dup1\n        /* \"contracts/Updated_1/PropertyContract.sol\":2618:2629  property.id */\n      0x00\n      add\n      mload\n        /* \"contracts/Updated_1/PropertyContract.sol\":2644:2652  property */\n      dup2\n        /* \"contracts/Updated_1/PropertyContract.sol\":2644:2658  property.owner */\n      0x20\n      add\n      mload\n        /* \"contracts/Updated_1/PropertyContract.sol\":2673:2681  property */\n      dup3\n        /* \"contracts/Updated_1/PropertyContract.sol\":2673:2693  property.description */\n      0x40\n      add\n      mload\n        /* \"contracts/Updated_1/PropertyContract.sol\":2708:2716  property */\n      dup4\n        /* \"contracts/Updated_1/PropertyContract.sol\":2708:2722  property.price */\n      0x60\n      add\n      mload\n        /* \"contracts/Updated_1/PropertyContract.sol\":2737:2745  property */\n      dup5\n        /* \"contracts/Updated_1/PropertyContract.sol\":2737:2754  property.isListed */\n      0x80\n      add\n      mload\n        /* \"contracts/Updated_1/PropertyContract.sol\":2596:2765  return (... */\n      swap6\n      pop\n      swap6\n      pop\n      swap6\n      pop\n      swap6\n      pop\n      swap6\n      pop\n      pop\n        /* \"contracts/Updated_1/PropertyContract.sol\":2415:2773  function getProperty(uint256 propertyId) public view returns (uint256, address, string memory, uint256, bool) {... */\n      swap2\n      swap4\n      swap6\n      swap1\n      swap3\n      swap5\n      pop\n      jump\t// out\n        /* \"contracts/Updated_1/PropertyContract.sol\":279:311  UserContract public userContract */\n    tag_24:\n      0x00\n      dup1\n      sload\n      swap1\n      0x0100\n      exp\n      swap1\n      div\n      0xffffffffffffffffffffffffffffffffffffffff\n      and\n      dup2\n      jump\t// out\n        /* \"contracts/Updated_1/PropertyContract.sol\":406:458  mapping(address => uint256[]) public ownerProperties */\n    tag_30:\n      mstore(0x20, 0x03)\n      dup2\n      0x00\n      mstore\n      keccak256(0x00, 0x40)\n      dup2\n      dup2\n      sload\n      dup2\n      lt\n      tag_71\n      jumpi\n      0x00\n      dup1\n      revert\n    tag_71:\n      swap1\n      0x00\n      mstore\n      keccak256(0x00, 0x20)\n      add\n      0x00\n      swap2\n      pop\n      swap2\n      pop\n      pop\n      sload\n      dup2\n      jump\t// out\n        /* \"contracts/Updated_1/PropertyContract.sol\":2216:2348  function getPropertiesByOwner(address owner) public view returns (uint256[] memory) {... */\n    tag_36:\n        /* \"contracts/Updated_1/PropertyContract.sol\":2282:2298  uint256[] memory */\n      0x60\n        /* \"contracts/Updated_1/PropertyContract.sol\":2318:2333  ownerProperties */\n      0x03\n        /* \"contracts/Updated_1/PropertyContract.sol\":2318:2340  ownerProperties[owner] */\n      0x00\n        /* \"contracts/Updated_1/PropertyContract.sol\":2334:2339  owner */\n      dup4\n        /* \"contracts/Updated_1/PropertyContract.sol\":2318:2340  ownerProperties[owner] */\n      0xffffffffffffffffffffffffffffffffffffffff\n      and\n      0xffffffffffffffffffffffffffffffffffffffff\n      and\n      dup2\n      mstore\n      0x20\n      add\n      swap1\n      dup2\n      mstore\n      0x20\n      add\n      0x00\n      keccak256\n        /* \"contracts/Updated_1/PropertyContract.sol\":2311:2340  return ownerProperties[owner] */\n      dup1\n      sload\n      dup1\n      0x20\n      mul\n      0x20\n      add\n      mload(0x40)\n      swap1\n      dup2\n      add\n      0x40\n      mstore\n      dup1\n      swap3\n      swap2\n      swap1\n      dup2\n      dup2\n      mstore\n      0x20\n      add\n      dup3\n      dup1\n      sload\n      dup1\n      iszero\n      tag_74\n      jumpi\n      0x20\n      mul\n      dup3\n      add\n      swap2\n      swap1\n      0x00\n      mstore\n      keccak256(0x00, 0x20)\n      swap1\n    tag_75:\n      dup2\n      sload\n      dup2\n      mstore\n      0x20\n      add\n      swap1\n      0x01\n      add\n      swap1\n      dup1\n      dup4\n      gt\n      tag_75\n      jumpi\n    tag_74:\n      pop\n      pop\n      pop\n      pop\n      pop\n      swap1\n      pop\n        /* \"contracts/Updated_1/PropertyContract.sol\":2216:2348  function getPropertiesByOwner(address owner) public view returns (uint256[] memory) {... */\n      swap2\n      swap1\n      pop\n      jump\t// out\n        /* \"contracts/Updated_1/PropertyContract.sol\":1851:2208  function removeProperty(uint256 propertyId) public {... */\n    tag_41:\n        /* \"contracts/Updated_1/PropertyContract.sol\":1913:1938  Property storage property */\n      0x00\n        /* \"contracts/Updated_1/PropertyContract.sol\":1941:1951  properties */\n      0x02\n        /* \"contracts/Updated_1/PropertyContract.sol\":1941:1963  properties[propertyId] */\n      0x00\n        /* \"contracts/Updated_1/PropertyContract.sol\":1952:1962  propertyId */\n      dup4\n        /* \"contracts/Updated_1/PropertyContract.sol\":1941:1963  properties[propertyId] */\n      dup2\n      mstore\n      0x20\n      add\n      swap1\n      dup2\n      mstore\n      0x20\n      add\n      0x00\n      keccak256\n        /* \"contracts/Updated_1/PropertyContract.sol\":1913:1963  Property storage property = properties[propertyId] */\n      swap1\n      pop\n        /* \"contracts/Updated_1/PropertyContract.sol\":2000:2010  msg.sender */\n      caller\n        /* \"contracts/Updated_1/PropertyContract.sol\":1982:2010  property.owner == msg.sender */\n      0xffffffffffffffffffffffffffffffffffffffff\n      and\n        /* \"contracts/Updated_1/PropertyContract.sol\":1982:1990  property */\n      dup2\n        /* \"contracts/Updated_1/PropertyContract.sol\":1982:1996  property.owner */\n      0x01\n      add\n      0x00\n      swap1\n      sload\n      swap1\n      0x0100\n      exp\n      swap1\n      div\n      0xffffffffffffffffffffffffffffffffffffffff\n      and\n        /* \"contracts/Updated_1/PropertyContract.sol\":1982:2010  property.owner == msg.sender */\n      0xffffffffffffffffffffffffffffffffffffffff\n      and\n      eq\n        /* \"contracts/Updated_1/PropertyContract.sol\":1974:2054  require(property.owner == msg.sender, \"Only the owner can remove this property\") */\n      tag_77\n      jumpi\n      mload(0x40)\n      0x08c379a000000000000000000000000000000000000000000000000000000000\n      dup2\n      mstore\n      0x04\n      add\n      tag_78\n      swap1\n      tag_79\n      jump\t// in\n    tag_78:\n      mload(0x40)\n      dup1\n      swap2\n      sub\n      swap1\n      revert\n    tag_77:\n        /* \"contracts/Updated_1/PropertyContract.sol\":2073:2081  property */\n      dup1\n        /* \"contracts/Updated_1/PropertyContract.sol\":2073:2090  property.isListed */\n      0x04\n      add\n      0x00\n      swap1\n      sload\n      swap1\n      0x0100\n      exp\n      swap1\n      div\n      0xff\n      and\n        /* \"contracts/Updated_1/PropertyContract.sol\":2065:2117  require(property.isListed, \"Property is not listed\") */\n      tag_80\n      jumpi\n      mload(0x40)\n      0x08c379a000000000000000000000000000000000000000000000000000000000\n      dup2\n      mstore\n      0x04\n      add\n      tag_81\n      swap1\n      tag_59\n      jump\t// in\n    tag_81:\n      mload(0x40)\n      dup1\n      swap2\n      sub\n      swap1\n      revert\n    tag_80:\n        /* \"contracts/Updated_1/PropertyContract.sol\":2150:2155  false */\n      0x00\n        /* \"contracts/Updated_1/PropertyContract.sol\":2130:2138  property */\n      dup2\n        /* \"contracts/Updated_1/PropertyContract.sol\":2130:2147  property.isListed */\n      0x04\n      add\n      0x00\n        /* \"contracts/Updated_1/PropertyContract.sol\":2130:2155  property.isListed = false */\n      0x0100\n      exp\n      dup2\n      sload\n      dup2\n      0xff\n      mul\n      not\n      and\n      swap1\n      dup4\n      iszero\n      iszero\n      mul\n      or\n      swap1\n      sstore\n      pop\n        /* \"contracts/Updated_1/PropertyContract.sol\":2173:2200  PropertyRemoved(propertyId) */\n      0x586b7d6bbe3535c99fbb4b183ce687d76307b7b4cb5a6a11e32ce06199d811fc\n        /* \"contracts/Updated_1/PropertyContract.sol\":2189:2199  propertyId */\n      dup3\n        /* \"contracts/Updated_1/PropertyContract.sol\":2173:2200  PropertyRemoved(propertyId) */\n      mload(0x40)\n      tag_82\n      swap2\n      swap1\n      tag_32\n      jump\t// in\n    tag_82:\n      mload(0x40)\n      dup1\n      swap2\n      sub\n      swap1\n      log1\n        /* \"contracts/Updated_1/PropertyContract.sol\":1902:2208  {... */\n      pop\n        /* \"contracts/Updated_1/PropertyContract.sol\":1851:2208  function removeProperty(uint256 propertyId) public {... */\n      pop\n      jump\t// out\n        /* \"contracts/Updated_1/PropertyContract.sol\":318:346  uint256 public propertyCount */\n    tag_43:\n      sload(0x01)\n      dup2\n      jump\t// out\n        /* \"contracts/Updated_1/PropertyContract.sol\":821:1374  function listProperty(string memory description, uint256 price) public {... */\n    tag_48:\n        /* \"contracts/Updated_1/PropertyContract.sol\":911:923  userContract */\n      0x00\n      dup1\n      sload\n      swap1\n      0x0100\n      exp\n      swap1\n      div\n      0xffffffffffffffffffffffffffffffffffffffff\n      and\n        /* \"contracts/Updated_1/PropertyContract.sol\":911:940  userContract.isUserRegistered */\n      0xffffffffffffffffffffffffffffffffffffffff\n      and\n      0x163f7522\n        /* \"contracts/Updated_1/PropertyContract.sol\":941:951  msg.sender */\n      caller\n        /* \"contracts/Updated_1/PropertyContract.sol\":911:952  userContract.isUserRegistered(msg.sender) */\n      mload(0x40)\n      dup3\n      0xffffffff\n      and\n      0xe0\n      shl\n      dup2\n      mstore\n      0x04\n      add\n      tag_84\n      swap2\n      swap1\n      tag_85\n      jump\t// in\n    tag_84:\n      0x20\n      mload(0x40)\n      dup1\n      dup4\n      sub\n      dup2\n      dup7\n      gas\n      staticcall\n      iszero\n      dup1\n      iszero\n      tag_87\n      jumpi\n      returndatasize\n      0x00\n      dup1\n      returndatacopy\n      revert(0x00, returndatasize)\n    tag_87:\n      pop\n      pop\n      pop\n      pop\n      mload(0x40)\n      returndatasize\n      not(0x1f)\n      0x1f\n      dup3\n      add\n      and\n      dup3\n      add\n      dup1\n      0x40\n      mstore\n      pop\n      dup2\n      add\n      swap1\n      tag_88\n      swap2\n      swap1\n      tag_89\n      jump\t// in\n    tag_88:\n        /* \"contracts/Updated_1/PropertyContract.sol\":903:980  require(userContract.isUserRegistered(msg.sender), \"User must be registered\") */\n      tag_90\n      jumpi\n      mload(0x40)\n      0x08c379a000000000000000000000000000000000000000000000000000000000\n      dup2\n      mstore\n      0x04\n      add\n      tag_91\n      swap1\n      tag_92\n      jump\t// in\n    tag_91:\n      mload(0x40)\n      dup1\n      swap2\n      sub\n      swap1\n      revert\n    tag_90:\n        /* \"contracts/Updated_1/PropertyContract.sol\":993:1006  propertyCount */\n      0x01\n      0x00\n        /* \"contracts/Updated_1/PropertyContract.sol\":993:1008  propertyCount++ */\n      dup2\n      sload\n      dup1\n      swap3\n      swap2\n      swap1\n      tag_93\n      swap1\n      tag_94\n      jump\t// in\n    tag_93:\n      swap2\n      swap1\n      pop\n      sstore\n      pop\n        /* \"contracts/Updated_1/PropertyContract.sol\":1047:1227  Property({... */\n      mload(0x40)\n      dup1\n      0xa0\n      add\n      0x40\n      mstore\n      dup1\n        /* \"contracts/Updated_1/PropertyContract.sol\":1075:1088  propertyCount */\n      sload(0x01)\n        /* \"contracts/Updated_1/PropertyContract.sol\":1047:1227  Property({... */\n      dup2\n      mstore\n      0x20\n      add\n        /* \"contracts/Updated_1/PropertyContract.sol\":1110:1120  msg.sender */\n      caller\n        /* \"contracts/Updated_1/PropertyContract.sol\":1047:1227  Property({... */\n      0xffffffffffffffffffffffffffffffffffffffff\n      and\n      dup2\n      mstore\n      0x20\n      add\n        /* \"contracts/Updated_1/PropertyContract.sol\":1148:1159  description */\n      dup4\n        /* \"contracts/Updated_1/PropertyContract.sol\":1047:1227  Property({... */\n      dup2\n      mstore\n      0x20\n      add\n        /* \"contracts/Updated_1/PropertyContract.sol\":1181:1186  price */\n      dup3\n        /* \"contracts/Updated_1/PropertyContract.sol\":1047:1227  Property({... */\n      dup2\n      mstore\n      0x20\n      add\n        /* \"contracts/Updated_1/PropertyContract.sol\":1211:1215  true */\n      0x01\n        /* \"contracts/Updated_1/PropertyContract.sol\":1047:1227  Property({... */\n      iszero\n      iszero\n      dup2\n      mstore\n      pop\n        /* \"contracts/Updated_1/PropertyContract.sol\":1019:1029  properties */\n      0x02\n        /* \"contracts/Updated_1/PropertyContract.sol\":1019:1044  properties[propertyCount] */\n      0x00\n        /* \"contracts/Updated_1/PropertyContract.sol\":1030:1043  propertyCount */\n      sload(0x01)\n        /* \"contracts/Updated_1/PropertyContract.sol\":1019:1044  properties[propertyCount] */\n      dup2\n      mstore\n      0x20\n      add\n      swap1\n      dup2\n      mstore\n      0x20\n      add\n      0x00\n      keccak256\n        /* \"contracts/Updated_1/PropertyContract.sol\":1019:1227  properties[propertyCount] = Property({... */\n      0x00\n      dup3\n      add\n      mload\n      dup2\n      0x00\n      add\n      sstore\n      0x20\n      dup3\n      add\n      mload\n      dup2\n      0x01\n      add\n      exp(0x0100, 0x00)\n      dup2\n      sload\n      dup2\n      0xffffffffffffffffffffffffffffffffffffffff\n      mul\n      not\n      and\n      swap1\n      dup4\n      0xffffffffffffffffffffffffffffffffffffffff\n      and\n      mul\n      or\n      swap1\n      sstore\n      pop\n      0x40\n      dup3\n      add\n      mload\n      dup2\n      0x02\n      add\n      swap1\n      dup2\n      tag_95\n      swap2\n      swap1\n      tag_61\n      jump\t// in\n    tag_95:\n      pop\n      0x60\n      dup3\n      add\n      mload\n      dup2\n      0x03\n      add\n      sstore\n      0x80\n      dup3\n      add\n      mload\n      dup2\n      0x04\n      add\n      exp(0x0100, 0x00)\n      dup2\n      sload\n      dup2\n      0xff\n      mul\n      not\n      and\n      swap1\n      dup4\n      iszero\n      iszero\n      mul\n      or\n      swap1\n      sstore\n      pop\n      swap1\n      pop\n      pop\n        /* \"contracts/Updated_1/PropertyContract.sol\":1240:1255  ownerProperties */\n      0x03\n        /* \"contracts/Updated_1/PropertyContract.sol\":1240:1267  ownerProperties[msg.sender] */\n      0x00\n        /* \"contracts/Updated_1/PropertyContract.sol\":1256:1266  msg.sender */\n      caller\n        /* \"contracts/Updated_1/PropertyContract.sol\":1240:1267  ownerProperties[msg.sender] */\n      0xffffffffffffffffffffffffffffffffffffffff\n      and\n      0xffffffffffffffffffffffffffffffffffffffff\n      and\n      dup2\n      mstore\n      0x20\n      add\n      swap1\n      dup2\n      mstore\n      0x20\n      add\n      0x00\n      keccak256\n        /* \"contracts/Updated_1/PropertyContract.sol\":1273:1286  propertyCount */\n      sload(0x01)\n        /* \"contracts/Updated_1/PropertyContract.sol\":1240:1287  ownerProperties[msg.sender].push(propertyCount) */\n      swap1\n      dup1\n      0x01\n      dup2\n      sload\n      add\n      dup1\n      dup3\n      sstore\n      dup1\n      swap2\n      pop\n      pop\n      0x01\n      swap1\n      sub\n      swap1\n      0x00\n      mstore\n      keccak256(0x00, 0x20)\n      add\n      0x00\n      swap1\n      swap2\n      swap1\n      swap2\n      swap1\n      swap2\n      pop\n      sstore\n        /* \"contracts/Updated_1/PropertyContract.sol\":1335:1345  msg.sender */\n      caller\n        /* \"contracts/Updated_1/PropertyContract.sol\":1305:1366  PropertyListed(propertyCount, msg.sender, description, price) */\n      0xffffffffffffffffffffffffffffffffffffffff\n      and\n      0x4faf3c72065aaaddb6b745e48ea5a8933818b2a856fb6b21dd04b6ac9812b042\n        /* \"contracts/Updated_1/PropertyContract.sol\":1320:1333  propertyCount */\n      sload(0x01)\n        /* \"contracts/Updated_1/PropertyContract.sol\":1347:1358  description */\n      dup5\n        /* \"contracts/Updated_1/PropertyContract.sol\":1360:1365  price */\n      dup5\n        /* \"contracts/Updated_1/PropertyContract.sol\":1305:1366  PropertyListed(propertyCount, msg.sender, description, price) */\n      mload(0x40)\n      tag_97\n      swap4\n      swap3\n      swap2\n      swap1\n      tag_63\n      jump\t// in\n    tag_97:\n      mload(0x40)\n      dup1\n      swap2\n      sub\n      swap1\n      log2\n        /* \"contracts/Updated_1/PropertyContract.sol\":821:1374  function listProperty(string memory description, uint256 price) public {... */\n      pop\n      pop\n      jump\t// out\n        /* \"contracts/Updated_1/PropertyContract.sol\":353:399  mapping(uint256 => Property) public properties */\n    tag_51:\n      mstore(0x20, 0x02)\n      dup1\n      0x00\n      mstore\n      keccak256(0x00, 0x40)\n      0x00\n      swap2\n      pop\n      swap1\n      pop\n      dup1\n      0x00\n      add\n      sload\n      swap1\n      dup1\n      0x01\n      add\n      0x00\n      swap1\n      sload\n      swap1\n      0x0100\n      exp\n      swap1\n      div\n      0xffffffffffffffffffffffffffffffffffffffff\n      and\n      swap1\n      dup1\n      0x02\n      add\n      dup1\n      sload\n      tag_98\n      swap1\n      tag_66\n      jump\t// in\n    tag_98:\n      dup1\n      0x1f\n      add\n      0x20\n      dup1\n      swap2\n      div\n      mul\n      0x20\n      add\n      mload(0x40)\n      swap1\n      dup2\n      add\n      0x40\n      mstore\n      dup1\n      swap3\n      swap2\n      swap1\n      dup2\n      dup2\n      mstore\n      0x20\n      add\n      dup3\n      dup1\n      sload\n      tag_99\n      swap1\n      tag_66\n      jump\t// in\n    tag_99:\n      dup1\n      iszero\n      tag_100\n      jumpi\n      dup1\n      0x1f\n      lt\n      tag_101\n      jumpi\n      0x0100\n      dup1\n      dup4\n      sload\n      div\n      mul\n      dup4\n      mstore\n      swap2\n      0x20\n      add\n      swap2\n      jump(tag_100)\n    tag_101:\n      dup3\n      add\n      swap2\n      swap1\n      0x00\n      mstore\n      keccak256(0x00, 0x20)\n      swap1\n    tag_102:\n      dup2\n      sload\n      dup2\n      mstore\n      swap1\n      0x01\n      add\n      swap1\n      0x20\n      add\n      dup1\n      dup4\n      gt\n      tag_102\n      jumpi\n      dup3\n      swap1\n      sub\n      0x1f\n      and\n      dup3\n      add\n      swap2\n    tag_100:\n      pop\n      pop\n      pop\n      pop\n      pop\n      swap1\n      dup1\n      0x03\n      add\n      sload\n      swap1\n      dup1\n      0x04\n      add\n      0x00\n      swap1\n      sload\n      swap1\n      0x0100\n      exp\n      swap1\n      div\n      0xff\n      and\n      swap1\n      pop\n      dup6\n      jump\t// out\n        /* \"#utility.yul\":7:82   */\n    tag_103:\n        /* \"#utility.yul\":40:46   */\n      0x00\n        /* \"#utility.yul\":73:75   */\n      0x40\n        /* \"#utility.yul\":67:76   */\n      mload\n        /* \"#utility.yul\":57:76   */\n      swap1\n      pop\n        /* \"#utility.yul\":7:82   */\n      swap1\n      jump\t// out\n        /* \"#utility.yul\":88:205   */\n    tag_104:\n        /* \"#utility.yul\":197:198   */\n      0x00\n        /* \"#utility.yul\":194:195   */\n      dup1\n        /* \"#utility.yul\":187:199   */\n      revert\n        /* \"#utility.yul\":211:328   */\n    tag_105:\n        /* \"#utility.yul\":320:321   */\n      0x00\n        /* \"#utility.yul\":317:318   */\n      dup1\n        /* \"#utility.yul\":310:322   */\n      revert\n        /* \"#utility.yul\":334:411   */\n    tag_106:\n        /* \"#utility.yul\":371:378   */\n      0x00\n        /* \"#utility.yul\":400:405   */\n      dup2\n        /* \"#utility.yul\":389:405   */\n      swap1\n      pop\n        /* \"#utility.yul\":334:411   */\n      swap2\n      swap1\n      pop\n      jump\t// out\n        /* \"#utility.yul\":417:539   */\n    tag_107:\n        /* \"#utility.yul\":490:514   */\n      tag_175\n        /* \"#utility.yul\":508:513   */\n      dup2\n        /* \"#utility.yul\":490:514   */\n      tag_106\n      jump\t// in\n    tag_175:\n        /* \"#utility.yul\":483:488   */\n      dup2\n        /* \"#utility.yul\":480:515   */\n      eq\n        /* \"#utility.yul\":470:533   */\n      tag_176\n      jumpi\n        /* \"#utility.yul\":529:530   */\n      0x00\n        /* \"#utility.yul\":526:527   */\n      dup1\n        /* \"#utility.yul\":519:531   */\n      revert\n        /* \"#utility.yul\":470:533   */\n    tag_176:\n        /* \"#utility.yul\":417:539   */\n      pop\n      jump\t// out\n        /* \"#utility.yul\":545:684   */\n    tag_108:\n        /* \"#utility.yul\":591:596   */\n      0x00\n        /* \"#utility.yul\":629:635   */\n      dup2\n        /* \"#utility.yul\":616:636   */\n      calldataload\n        /* \"#utility.yul\":607:636   */\n      swap1\n      pop\n        /* \"#utility.yul\":645:678   */\n      tag_178\n        /* \"#utility.yul\":672:677   */\n      dup2\n        /* \"#utility.yul\":645:678   */\n      tag_107\n      jump\t// in\n    tag_178:\n        /* \"#utility.yul\":545:684   */\n      swap3\n      swap2\n      pop\n      pop\n      jump\t// out\n        /* \"#utility.yul\":690:807   */\n    tag_109:\n        /* \"#utility.yul\":799:800   */\n      0x00\n        /* \"#utility.yul\":796:797   */\n      dup1\n        /* \"#utility.yul\":789:801   */\n      revert\n        /* \"#utility.yul\":813:930   */\n    tag_110:\n        /* \"#utility.yul\":922:923   */\n      0x00\n        /* \"#utility.yul\":919:920   */\n      dup1\n        /* \"#utility.yul\":912:924   */\n      revert\n        /* \"#utility.yul\":936:1038   */\n    tag_111:\n        /* \"#utility.yul\":977:983   */\n      0x00\n        /* \"#utility.yul\":1028:1030   */\n      0x1f\n        /* \"#utility.yul\":1024:1031   */\n      not\n        /* \"#utility.yul\":1019:1021   */\n      0x1f\n        /* \"#utility.yul\":1012:1017   */\n      dup4\n        /* \"#utility.yul\":1008:1022   */\n      add\n        /* \"#utility.yul\":1004:1032   */\n      and\n        /* \"#utility.yul\":994:1032   */\n      swap1\n      pop\n        /* \"#utility.yul\":936:1038   */\n      swap2\n      swap1\n      pop\n      jump\t// out\n        /* \"#utility.yul\":1044:1224   */\n    tag_112:\n        /* \"#utility.yul\":1092:1169   */\n      0x4e487b7100000000000000000000000000000000000000000000000000000000\n        /* \"#utility.yul\":1089:1090   */\n      0x00\n        /* \"#utility.yul\":1082:1170   */\n      mstore\n        /* \"#utility.yul\":1189:1193   */\n      0x41\n        /* \"#utility.yul\":1186:1187   */\n      0x04\n        /* \"#utility.yul\":1179:1194   */\n      mstore\n        /* \"#utility.yul\":1213:1217   */\n      0x24\n        /* \"#utility.yul\":1210:1211   */\n      0x00\n        /* \"#utility.yul\":1203:1218   */\n      revert\n        /* \"#utility.yul\":1230:1511   */\n    tag_113:\n        /* \"#utility.yul\":1313:1340   */\n      tag_184\n        /* \"#utility.yul\":1335:1339   */\n      dup3\n        /* \"#utility.yul\":1313:1340   */\n      tag_111\n      jump\t// in\n    tag_184:\n        /* \"#utility.yul\":1305:1311   */\n      dup2\n        /* \"#utility.yul\":1301:1341   */\n      add\n        /* \"#utility.yul\":1443:1449   */\n      dup2\n        /* \"#utility.yul\":1431:1441   */\n      dup2\n        /* \"#utility.yul\":1428:1450   */\n      lt\n        /* \"#utility.yul\":1407:1425   */\n      0xffffffffffffffff\n        /* \"#utility.yul\":1395:1405   */\n      dup3\n        /* \"#utility.yul\":1392:1426   */\n      gt\n        /* \"#utility.yul\":1389:1451   */\n      or\n        /* \"#utility.yul\":1386:1474   */\n      iszero\n      tag_185\n      jumpi\n        /* \"#utility.yul\":1454:1472   */\n      tag_186\n      tag_112\n      jump\t// in\n    tag_186:\n        /* \"#utility.yul\":1386:1474   */\n    tag_185:\n        /* \"#utility.yul\":1494:1504   */\n      dup1\n        /* \"#utility.yul\":1490:1492   */\n      0x40\n        /* \"#utility.yul\":1483:1505   */\n      mstore\n        /* \"#utility.yul\":1273:1511   */\n      pop\n        /* \"#utility.yul\":1230:1511   */\n      pop\n      pop\n      jump\t// out\n        /* \"#utility.yul\":1517:1646   */\n    tag_114:\n        /* \"#utility.yul\":1551:1557   */\n      0x00\n        /* \"#utility.yul\":1578:1598   */\n      tag_188\n      tag_103\n      jump\t// in\n    tag_188:\n        /* \"#utility.yul\":1568:1598   */\n      swap1\n      pop\n        /* \"#utility.yul\":1607:1640   */\n      tag_189\n        /* \"#utility.yul\":1635:1639   */\n      dup3\n        /* \"#utility.yul\":1627:1633   */\n      dup3\n        /* \"#utility.yul\":1607:1640   */\n      tag_113\n      jump\t// in\n    tag_189:\n        /* \"#utility.yul\":1517:1646   */\n      swap2\n      swap1\n      pop\n      jump\t// out\n        /* \"#utility.yul\":1652:1960   */\n    tag_115:\n        /* \"#utility.yul\":1714:1718   */\n      0x00\n        /* \"#utility.yul\":1804:1822   */\n      0xffffffffffffffff\n        /* \"#utility.yul\":1796:1802   */\n      dup3\n        /* \"#utility.yul\":1793:1823   */\n      gt\n        /* \"#utility.yul\":1790:1846   */\n      iszero\n      tag_191\n      jumpi\n        /* \"#utility.yul\":1826:1844   */\n      tag_192\n      tag_112\n      jump\t// in\n    tag_192:\n        /* \"#utility.yul\":1790:1846   */\n    tag_191:\n        /* \"#utility.yul\":1864:1893   */\n      tag_193\n        /* \"#utility.yul\":1886:1892   */\n      dup3\n        /* \"#utility.yul\":1864:1893   */\n      tag_111\n      jump\t// in\n    tag_193:\n        /* \"#utility.yul\":1856:1893   */\n      swap1\n      pop\n        /* \"#utility.yul\":1948:1952   */\n      0x20\n        /* \"#utility.yul\":1942:1946   */\n      dup2\n        /* \"#utility.yul\":1938:1953   */\n      add\n        /* \"#utility.yul\":1930:1953   */\n      swap1\n      pop\n        /* \"#utility.yul\":1652:1960   */\n      swap2\n      swap1\n      pop\n      jump\t// out\n        /* \"#utility.yul\":1966:2114   */\n    tag_116:\n        /* \"#utility.yul\":2064:2070   */\n      dup3\n        /* \"#utility.yul\":2059:2062   */\n      dup2\n        /* \"#utility.yul\":2054:2057   */\n      dup4\n        /* \"#utility.yul\":2041:2071   */\n      calldatacopy\n        /* \"#utility.yul\":2105:2106   */\n      0x00\n        /* \"#utility.yul\":2096:2102   */\n      dup4\n        /* \"#utility.yul\":2091:2094   */\n      dup4\n        /* \"#utility.yul\":2087:2103   */\n      add\n        /* \"#utility.yul\":2080:2107   */\n      mstore\n        /* \"#utility.yul\":1966:2114   */\n      pop\n      pop\n      pop\n      jump\t// out\n        /* \"#utility.yul\":2120:2545   */\n    tag_117:\n        /* \"#utility.yul\":2198:2203   */\n      0x00\n        /* \"#utility.yul\":2223:2289   */\n      tag_196\n        /* \"#utility.yul\":2239:2288   */\n      tag_197\n        /* \"#utility.yul\":2281:2287   */\n      dup5\n        /* \"#utility.yul\":2239:2288   */\n      tag_115\n      jump\t// in\n    tag_197:\n        /* \"#utility.yul\":2223:2289   */\n      tag_114\n      jump\t// in\n    tag_196:\n        /* \"#utility.yul\":2214:2289   */\n      swap1\n      pop\n        /* \"#utility.yul\":2312:2318   */\n      dup3\n        /* \"#utility.yul\":2305:2310   */\n      dup2\n        /* \"#utility.yul\":2298:2319   */\n      mstore\n        /* \"#utility.yul\":2350:2354   */\n      0x20\n        /* \"#utility.yul\":2343:2348   */\n      dup2\n        /* \"#utility.yul\":2339:2355   */\n      add\n        /* \"#utility.yul\":2388:2391   */\n      dup5\n        /* \"#utility.yul\":2379:2385   */\n      dup5\n        /* \"#utility.yul\":2374:2377   */\n      dup5\n        /* \"#utility.yul\":2370:2386   */\n      add\n        /* \"#utility.yul\":2367:2392   */\n      gt\n        /* \"#utility.yul\":2364:2476   */\n      iszero\n      tag_198\n      jumpi\n        /* \"#utility.yul\":2395:2474   */\n      tag_199\n      tag_110\n      jump\t// in\n    tag_199:\n        /* \"#utility.yul\":2364:2476   */\n    tag_198:\n        /* \"#utility.yul\":2485:2539   */\n      tag_200\n        /* \"#utility.yul\":2532:2538   */\n      dup5\n        /* \"#utility.yul\":2527:2530   */\n      dup3\n        /* \"#utility.yul\":2522:2525   */\n      dup6\n        /* \"#utility.yul\":2485:2539   */\n      tag_116\n      jump\t// in\n    tag_200:\n        /* \"#utility.yul\":2204:2545   */\n      pop\n        /* \"#utility.yul\":2120:2545   */\n      swap4\n      swap3\n      pop\n      pop\n      pop\n      jump\t// out\n        /* \"#utility.yul\":2565:2905   */\n    tag_118:\n        /* \"#utility.yul\":2621:2626   */\n      0x00\n        /* \"#utility.yul\":2670:2673   */\n      dup3\n        /* \"#utility.yul\":2663:2667   */\n      0x1f\n        /* \"#utility.yul\":2655:2661   */\n      dup4\n        /* \"#utility.yul\":2651:2668   */\n      add\n        /* \"#utility.yul\":2647:2674   */\n      slt\n        /* \"#utility.yul\":2637:2759   */\n      tag_202\n      jumpi\n        /* \"#utility.yul\":2678:2757   */\n      tag_203\n      tag_109\n      jump\t// in\n    tag_203:\n        /* \"#utility.yul\":2637:2759   */\n    tag_202:\n        /* \"#utility.yul\":2795:2801   */\n      dup2\n        /* \"#utility.yul\":2782:2802   */\n      calldataload\n        /* \"#utility.yul\":2820:2899   */\n      tag_204\n        /* \"#utility.yul\":2895:2898   */\n      dup5\n        /* \"#utility.yul\":2887:2893   */\n      dup3\n        /* \"#utility.yul\":2880:2884   */\n      0x20\n        /* \"#utility.yul\":2872:2878   */\n      dup7\n        /* \"#utility.yul\":2868:2885   */\n      add\n        /* \"#utility.yul\":2820:2899   */\n      tag_117\n      jump\t// in\n    tag_204:\n        /* \"#utility.yul\":2811:2899   */\n      swap2\n      pop\n        /* \"#utility.yul\":2627:2905   */\n      pop\n        /* \"#utility.yul\":2565:2905   */\n      swap3\n      swap2\n      pop\n      pop\n      jump\t// out\n        /* \"#utility.yul\":2911:3710   */\n    tag_15:\n        /* \"#utility.yul\":2998:3004   */\n      0x00\n        /* \"#utility.yul\":3006:3012   */\n      dup1\n        /* \"#utility.yul\":3014:3020   */\n      0x00\n        /* \"#utility.yul\":3063:3065   */\n      0x60\n        /* \"#utility.yul\":3051:3060   */\n      dup5\n        /* \"#utility.yul\":3042:3049   */\n      dup7\n        /* \"#utility.yul\":3038:3061   */\n      sub\n        /* \"#utility.yul\":3034:3066   */\n      slt\n        /* \"#utility.yul\":3031:3150   */\n      iszero\n      tag_206\n      jumpi\n        /* \"#utility.yul\":3069:3148   */\n      tag_207\n      tag_104\n      jump\t// in\n    tag_207:\n        /* \"#utility.yul\":3031:3150   */\n    tag_206:\n        /* \"#utility.yul\":3189:3190   */\n      0x00\n        /* \"#utility.yul\":3214:3267   */\n      tag_208\n        /* \"#utility.yul\":3259:3266   */\n      dup7\n        /* \"#utility.yul\":3250:3256   */\n      dup3\n        /* \"#utility.yul\":3239:3248   */\n      dup8\n        /* \"#utility.yul\":3235:3257   */\n      add\n        /* \"#utility.yul\":3214:3267   */\n      tag_108\n      jump\t// in\n    tag_208:\n        /* \"#utility.yul\":3204:3267   */\n      swap4\n      pop\n        /* \"#utility.yul\":3160:3277   */\n      pop\n        /* \"#utility.yul\":3344:3346   */\n      0x20\n        /* \"#utility.yul\":3333:3342   */\n      dup5\n        /* \"#utility.yul\":3329:3347   */\n      add\n        /* \"#utility.yul\":3316:3348   */\n      calldataload\n        /* \"#utility.yul\":3375:3393   */\n      0xffffffffffffffff\n        /* \"#utility.yul\":3367:3373   */\n      dup2\n        /* \"#utility.yul\":3364:3394   */\n      gt\n        /* \"#utility.yul\":3361:3478   */\n      iszero\n      tag_209\n      jumpi\n        /* \"#utility.yul\":3397:3476   */\n      tag_210\n      tag_105\n      jump\t// in\n    tag_210:\n        /* \"#utility.yul\":3361:3478   */\n    tag_209:\n        /* \"#utility.yul\":3502:3565   */\n      tag_211\n        /* \"#utility.yul\":3557:3564   */\n      dup7\n        /* \"#utility.yul\":3548:3554   */\n      dup3\n        /* \"#utility.yul\":3537:3546   */\n      dup8\n        /* \"#utility.yul\":3533:3555   */\n      add\n        /* \"#utility.yul\":3502:3565   */\n      tag_118\n      jump\t// in\n    tag_211:\n        /* \"#utility.yul\":3492:3565   */\n      swap3\n      pop\n        /* \"#utility.yul\":3287:3575   */\n      pop\n        /* \"#utility.yul\":3614:3616   */\n      0x40\n        /* \"#utility.yul\":3640:3693   */\n      tag_212\n        /* \"#utility.yul\":3685:3692   */\n      dup7\n        /* \"#utility.yul\":3676:3682   */\n      dup3\n        /* \"#utility.yul\":3665:3674   */\n      dup8\n        /* \"#utility.yul\":3661:3683   */\n      add\n        /* \"#utility.yul\":3640:3693   */\n      tag_108\n      jump\t// in\n    tag_212:\n        /* \"#utility.yul\":3630:3693   */\n      swap2\n      pop\n        /* \"#utility.yul\":3585:3703   */\n      pop\n        /* \"#utility.yul\":2911:3710   */\n      swap3\n      pop\n      swap3\n      pop\n      swap3\n      jump\t// out\n        /* \"#utility.yul\":3716:4045   */\n    tag_19:\n        /* \"#utility.yul\":3775:3781   */\n      0x00\n        /* \"#utility.yul\":3824:3826   */\n      0x20\n        /* \"#utility.yul\":3812:3821   */\n      dup3\n        /* \"#utility.yul\":3803:3810   */\n      dup5\n        /* \"#utility.yul\":3799:3822   */\n      sub\n        /* \"#utility.yul\":3795:3827   */\n      slt\n        /* \"#utility.yul\":3792:3911   */\n      iszero\n      tag_214\n      jumpi\n        /* \"#utility.yul\":3830:3909   */\n      tag_215\n      tag_104\n      jump\t// in\n    tag_215:\n        /* \"#utility.yul\":3792:3911   */\n    tag_214:\n        /* \"#utility.yul\":3950:3951   */\n      0x00\n        /* \"#utility.yul\":3975:4028   */\n      tag_216\n        /* \"#utility.yul\":4020:4027   */\n      dup5\n        /* \"#utility.yul\":4011:4017   */\n      dup3\n        /* \"#utility.yul\":4000:4009   */\n      dup6\n        /* \"#utility.yul\":3996:4018   */\n      add\n        /* \"#utility.yul\":3975:4028   */\n      tag_108\n      jump\t// in\n    tag_216:\n        /* \"#utility.yul\":3965:4028   */\n      swap2\n      pop\n        /* \"#utility.yul\":3921:4038   */\n      pop\n        /* \"#utility.yul\":3716:4045   */\n      swap3\n      swap2\n      pop\n      pop\n      jump\t// out\n        /* \"#utility.yul\":4051:4169   */\n    tag_119:\n        /* \"#utility.yul\":4138:4162   */\n      tag_218\n        /* \"#utility.yul\":4156:4161   */\n      dup2\n        /* \"#utility.yul\":4138:4162   */\n      tag_106\n      jump\t// in\n    tag_218:\n        /* \"#utility.yul\":4133:4136   */\n      dup3\n        /* \"#utility.yul\":4126:4163   */\n      mstore\n        /* \"#utility.yul\":4051:4169   */\n      pop\n      pop\n      jump\t// out\n        /* \"#utility.yul\":4175:4301   */\n    tag_120:\n        /* \"#utility.yul\":4212:4219   */\n      0x00\n        /* \"#utility.yul\":4252:4294   */\n      0xffffffffffffffffffffffffffffffffffffffff\n        /* \"#utility.yul\":4245:4250   */\n      dup3\n        /* \"#utility.yul\":4241:4295   */\n      and\n        /* \"#utility.yul\":4230:4295   */\n      swap1\n      pop\n        /* \"#utility.yul\":4175:4301   */\n      swap2\n      swap1\n      pop\n      jump\t// out\n        /* \"#utility.yul\":4307:4403   */\n    tag_121:\n        /* \"#utility.yul\":4344:4351   */\n      0x00\n        /* \"#utility.yul\":4373:4397   */\n      tag_221\n        /* \"#utility.yul\":4391:4396   */\n      dup3\n        /* \"#utility.yul\":4373:4397   */\n      tag_120\n      jump\t// in\n    tag_221:\n        /* \"#utility.yul\":4362:4397   */\n      swap1\n      pop\n        /* \"#utility.yul\":4307:4403   */\n      swap2\n      swap1\n      pop\n      jump\t// out\n        /* \"#utility.yul\":4409:4527   */\n    tag_122:\n        /* \"#utility.yul\":4496:4520   */\n      tag_223\n        /* \"#utility.yul\":4514:4519   */\n      dup2\n        /* \"#utility.yul\":4496:4520   */\n      tag_121\n      jump\t// in\n    tag_223:\n        /* \"#utility.yul\":4491:4494   */\n      dup3\n        /* \"#utility.yul\":4484:4521   */\n      mstore\n        /* \"#utility.yul\":4409:4527   */\n      pop\n      pop\n      jump\t// out\n        /* \"#utility.yul\":4533:4632   */\n    tag_123:\n        /* \"#utility.yul\":4585:4591   */\n      0x00\n        /* \"#utility.yul\":4619:4624   */\n      dup2\n        /* \"#utility.yul\":4613:4625   */\n      mload\n        /* \"#utility.yul\":4603:4625   */\n      swap1\n      pop\n        /* \"#utility.yul\":4533:4632   */\n      swap2\n      swap1\n      pop\n      jump\t// out\n        /* \"#utility.yul\":4638:4807   */\n    tag_124:\n        /* \"#utility.yul\":4722:4733   */\n      0x00\n        /* \"#utility.yul\":4756:4762   */\n      dup3\n        /* \"#utility.yul\":4751:4754   */\n      dup3\n        /* \"#utility.yul\":4744:4763   */\n      mstore\n        /* \"#utility.yul\":4796:4800   */\n      0x20\n        /* \"#utility.yul\":4791:4794   */\n      dup3\n        /* \"#utility.yul\":4787:4801   */\n      add\n        /* \"#utility.yul\":4772:4801   */\n      swap1\n      pop\n        /* \"#utility.yul\":4638:4807   */\n      swap3\n      swap2\n      pop\n      pop\n      jump\t// out\n        /* \"#utility.yul\":4813:4952   */\n    tag_125:\n        /* \"#utility.yul\":4902:4908   */\n      dup3\n        /* \"#utility.yul\":4897:4900   */\n      dup2\n        /* \"#utility.yul\":4892:4895   */\n      dup4\n        /* \"#utility.yul\":4886:4909   */\n      mcopy\n        /* \"#utility.yul\":4943:4944   */\n      0x00\n        /* \"#utility.yul\":4934:4940   */\n      dup4\n        /* \"#utility.yul\":4929:4932   */\n      dup4\n        /* \"#utility.yul\":4925:4941   */\n      add\n        /* \"#utility.yul\":4918:4945   */\n      mstore\n        /* \"#utility.yul\":4813:4952   */\n      pop\n      pop\n      pop\n      jump\t// out\n        /* \"#utility.yul\":4958:5335   */\n    tag_126:\n        /* \"#utility.yul\":5046:5049   */\n      0x00\n        /* \"#utility.yul\":5074:5113   */\n      tag_228\n        /* \"#utility.yul\":5107:5112   */\n      dup3\n        /* \"#utility.yul\":5074:5113   */\n      tag_123\n      jump\t// in\n    tag_228:\n        /* \"#utility.yul\":5129:5200   */\n      tag_229\n        /* \"#utility.yul\":5193:5199   */\n      dup2\n        /* \"#utility.yul\":5188:5191   */\n      dup6\n        /* \"#utility.yul\":5129:5200   */\n      tag_124\n      jump\t// in\n    tag_229:\n        /* \"#utility.yul\":5122:5200   */\n      swap4\n      pop\n        /* \"#utility.yul\":5209:5274   */\n      tag_230\n        /* \"#utility.yul\":5267:5273   */\n      dup2\n        /* \"#utility.yul\":5262:5265   */\n      dup6\n        /* \"#utility.yul\":5255:5259   */\n      0x20\n        /* \"#utility.yul\":5248:5253   */\n      dup7\n        /* \"#utility.yul\":5244:5260   */\n      add\n        /* \"#utility.yul\":5209:5274   */\n      tag_125\n      jump\t// in\n    tag_230:\n        /* \"#utility.yul\":5299:5328   */\n      tag_231\n        /* \"#utility.yul\":5321:5327   */\n      dup2\n        /* \"#utility.yul\":5299:5328   */\n      tag_111\n      jump\t// in\n    tag_231:\n        /* \"#utility.yul\":5294:5297   */\n      dup5\n        /* \"#utility.yul\":5290:5329   */\n      add\n        /* \"#utility.yul\":5283:5329   */\n      swap2\n      pop\n        /* \"#utility.yul\":5050:5335   */\n      pop\n        /* \"#utility.yul\":4958:5335   */\n      swap3\n      swap2\n      pop\n      pop\n      jump\t// out\n        /* \"#utility.yul\":5341:5431   */\n    tag_127:\n        /* \"#utility.yul\":5375:5382   */\n      0x00\n        /* \"#utility.yul\":5418:5423   */\n      dup2\n        /* \"#utility.yul\":5411:5424   */\n      iszero\n        /* \"#utility.yul\":5404:5425   */\n      iszero\n        /* \"#utility.yul\":5393:5425   */\n      swap1\n      pop\n        /* \"#utility.yul\":5341:5431   */\n      swap2\n      swap1\n      pop\n      jump\t// out\n        /* \"#utility.yul\":5437:5546   */\n    tag_128:\n        /* \"#utility.yul\":5518:5539   */\n      tag_234\n        /* \"#utility.yul\":5533:5538   */\n      dup2\n        /* \"#utility.yul\":5518:5539   */\n      tag_127\n      jump\t// in\n    tag_234:\n        /* \"#utility.yul\":5513:5516   */\n      dup3\n        /* \"#utility.yul\":5506:5540   */\n      mstore\n        /* \"#utility.yul\":5437:5546   */\n      pop\n      pop\n      jump\t// out\n        /* \"#utility.yul\":5552:6295   */\n    tag_22:\n        /* \"#utility.yul\":5771:5775   */\n      0x00\n        /* \"#utility.yul\":5809:5812   */\n      0xa0\n        /* \"#utility.yul\":5798:5807   */\n      dup3\n        /* \"#utility.yul\":5794:5813   */\n      add\n        /* \"#utility.yul\":5786:5813   */\n      swap1\n      pop\n        /* \"#utility.yul\":5823:5894   */\n      tag_236\n        /* \"#utility.yul\":5891:5892   */\n      0x00\n        /* \"#utility.yul\":5880:5889   */\n      dup4\n        /* \"#utility.yul\":5876:5893   */\n      add\n        /* \"#utility.yul\":5867:5873   */\n      dup9\n        /* \"#utility.yul\":5823:5894   */\n      tag_119\n      jump\t// in\n    tag_236:\n        /* \"#utility.yul\":5904:5976   */\n      tag_237\n        /* \"#utility.yul\":5972:5974   */\n      0x20\n        /* \"#utility.yul\":5961:5970   */\n      dup4\n        /* \"#utility.yul\":5957:5975   */\n      add\n        /* \"#utility.yul\":5948:5954   */\n      dup8\n        /* \"#utility.yul\":5904:5976   */\n      tag_122\n      jump\t// in\n    tag_237:\n        /* \"#utility.yul\":6023:6032   */\n      dup2\n        /* \"#utility.yul\":6017:6021   */\n      dup2\n        /* \"#utility.yul\":6013:6033   */\n      sub\n        /* \"#utility.yul\":6008:6010   */\n      0x40\n        /* \"#utility.yul\":5997:6006   */\n      dup4\n        /* \"#utility.yul\":5993:6011   */\n      add\n        /* \"#utility.yul\":5986:6034   */\n      mstore\n        /* \"#utility.yul\":6051:6129   */\n      tag_238\n        /* \"#utility.yul\":6124:6128   */\n      dup2\n        /* \"#utility.yul\":6115:6121   */\n      dup7\n        /* \"#utility.yul\":6051:6129   */\n      tag_126\n      jump\t// in\n    tag_238:\n        /* \"#utility.yul\":6043:6129   */\n      swap1\n      pop\n        /* \"#utility.yul\":6139:6211   */\n      tag_239\n        /* \"#utility.yul\":6207:6209   */\n      0x60\n        /* \"#utility.yul\":6196:6205   */\n      dup4\n        /* \"#utility.yul\":6192:6210   */\n      add\n        /* \"#utility.yul\":6183:6189   */\n      dup6\n        /* \"#utility.yul\":6139:6211   */\n      tag_119\n      jump\t// in\n    tag_239:\n        /* \"#utility.yul\":6221:6288   */\n      tag_240\n        /* \"#utility.yul\":6283:6286   */\n      0x80\n        /* \"#utility.yul\":6272:6281   */\n      dup4\n        /* \"#utility.yul\":6268:6287   */\n      add\n        /* \"#utility.yul\":6259:6265   */\n      dup5\n        /* \"#utility.yul\":6221:6288   */\n      tag_128\n      jump\t// in\n    tag_240:\n        /* \"#utility.yul\":5552:6295   */\n      swap7\n      swap6\n      pop\n      pop\n      pop\n      pop\n      pop\n      pop\n      jump\t// out\n        /* \"#utility.yul\":6301:6361   */\n    tag_129:\n        /* \"#utility.yul\":6329:6332   */\n      0x00\n        /* \"#utility.yul\":6350:6355   */\n      dup2\n        /* \"#utility.yul\":6343:6355   */\n      swap1\n      pop\n        /* \"#utility.yul\":6301:6361   */\n      swap2\n      swap1\n      pop\n      jump\t// out\n        /* \"#utility.yul\":6367:6509   */\n    tag_130:\n        /* \"#utility.yul\":6417:6426   */\n      0x00\n        /* \"#utility.yul\":6450:6503   */\n      tag_243\n        /* \"#utility.yul\":6468:6502   */\n      tag_244\n        /* \"#utility.yul\":6477:6501   */\n      tag_245\n        /* \"#utility.yul\":6495:6500   */\n      dup5\n        /* \"#utility.yul\":6477:6501   */\n      tag_120\n      jump\t// in\n    tag_245:\n        /* \"#utility.yul\":6468:6502   */\n      tag_129\n      jump\t// in\n    tag_244:\n        /* \"#utility.yul\":6450:6503   */\n      tag_120\n      jump\t// in\n    tag_243:\n        /* \"#utility.yul\":6437:6503   */\n      swap1\n      pop\n        /* \"#utility.yul\":6367:6509   */\n      swap2\n      swap1\n      pop\n      jump\t// out\n        /* \"#utility.yul\":6515:6641   */\n    tag_131:\n        /* \"#utility.yul\":6565:6574   */\n      0x00\n        /* \"#utility.yul\":6598:6635   */\n      tag_247\n        /* \"#utility.yul\":6629:6634   */\n      dup3\n        /* \"#utility.yul\":6598:6635   */\n      tag_130\n      jump\t// in\n    tag_247:\n        /* \"#utility.yul\":6585:6635   */\n      swap1\n      pop\n        /* \"#utility.yul\":6515:6641   */\n      swap2\n      swap1\n      pop\n      jump\t// out\n        /* \"#utility.yul\":6647:6793   */\n    tag_132:\n        /* \"#utility.yul\":6717:6726   */\n      0x00\n        /* \"#utility.yul\":6750:6787   */\n      tag_249\n        /* \"#utility.yul\":6781:6786   */\n      dup3\n        /* \"#utility.yul\":6750:6787   */\n      tag_131\n      jump\t// in\n    tag_249:\n        /* \"#utility.yul\":6737:6787   */\n      swap1\n      pop\n        /* \"#utility.yul\":6647:6793   */\n      swap2\n      swap1\n      pop\n      jump\t// out\n        /* \"#utility.yul\":6799:6970   */\n    tag_133:\n        /* \"#utility.yul\":6906:6963   */\n      tag_251\n        /* \"#utility.yul\":6957:6962   */\n      dup2\n        /* \"#utility.yul\":6906:6963   */\n      tag_132\n      jump\t// in\n    tag_251:\n        /* \"#utility.yul\":6901:6904   */\n      dup3\n        /* \"#utility.yul\":6894:6964   */\n      mstore\n        /* \"#utility.yul\":6799:6970   */\n      pop\n      pop\n      jump\t// out\n        /* \"#utility.yul\":6976:7238   */\n    tag_26:\n        /* \"#utility.yul\":7089:7093   */\n      0x00\n        /* \"#utility.yul\":7127:7129   */\n      0x20\n        /* \"#utility.yul\":7116:7125   */\n      dup3\n        /* \"#utility.yul\":7112:7130   */\n      add\n        /* \"#utility.yul\":7104:7130   */\n      swap1\n      pop\n        /* \"#utility.yul\":7140:7231   */\n      tag_253\n        /* \"#utility.yul\":7228:7229   */\n      0x00\n        /* \"#utility.yul\":7217:7226   */\n      dup4\n        /* \"#utility.yul\":7213:7230   */\n      add\n        /* \"#utility.yul\":7204:7210   */\n      dup5\n        /* \"#utility.yul\":7140:7231   */\n      tag_133\n      jump\t// in\n    tag_253:\n        /* \"#utility.yul\":6976:7238   */\n      swap3\n      swap2\n      pop\n      pop\n      jump\t// out\n        /* \"#utility.yul\":7244:7366   */\n    tag_134:\n        /* \"#utility.yul\":7317:7341   */\n      tag_255\n        /* \"#utility.yul\":7335:7340   */\n      dup2\n        /* \"#utility.yul\":7317:7341   */\n      tag_121\n      jump\t// in\n    tag_255:\n        /* \"#utility.yul\":7310:7315   */\n      dup2\n        /* \"#utility.yul\":7307:7342   */\n      eq\n        /* \"#utility.yul\":7297:7360   */\n      tag_256\n      jumpi\n        /* \"#utility.yul\":7356:7357   */\n      0x00\n        /* \"#utility.yul\":7353:7354   */\n      dup1\n        /* \"#utility.yul\":7346:7358   */\n      revert\n        /* \"#utility.yul\":7297:7360   */\n    tag_256:\n        /* \"#utility.yul\":7244:7366   */\n      pop\n      jump\t// out\n        /* \"#utility.yul\":7372:7511   */\n    tag_135:\n        /* \"#utility.yul\":7418:7423   */\n      0x00\n        /* \"#utility.yul\":7456:7462   */\n      dup2\n        /* \"#utility.yul\":7443:7463   */\n      calldataload\n        /* \"#utility.yul\":7434:7463   */\n      swap1\n      pop\n        /* \"#utility.yul\":7472:7505   */\n      tag_258\n        /* \"#utility.yul\":7499:7504   */\n      dup2\n        /* \"#utility.yul\":7472:7505   */\n      tag_134\n      jump\t// in\n    tag_258:\n        /* \"#utility.yul\":7372:7511   */\n      swap3\n      swap2\n      pop\n      pop\n      jump\t// out\n        /* \"#utility.yul\":7517:7991   */\n    tag_29:\n        /* \"#utility.yul\":7585:7591   */\n      0x00\n        /* \"#utility.yul\":7593:7599   */\n      dup1\n        /* \"#utility.yul\":7642:7644   */\n      0x40\n        /* \"#utility.yul\":7630:7639   */\n      dup4\n        /* \"#utility.yul\":7621:7628   */\n      dup6\n        /* \"#utility.yul\":7617:7640   */\n      sub\n        /* \"#utility.yul\":7613:7645   */\n      slt\n        /* \"#utility.yul\":7610:7729   */\n      iszero\n      tag_260\n      jumpi\n        /* \"#utility.yul\":7648:7727   */\n      tag_261\n      tag_104\n      jump\t// in\n    tag_261:\n        /* \"#utility.yul\":7610:7729   */\n    tag_260:\n        /* \"#utility.yul\":7768:7769   */\n      0x00\n        /* \"#utility.yul\":7793:7846   */\n      tag_262\n        /* \"#utility.yul\":7838:7845   */\n      dup6\n        /* \"#utility.yul\":7829:7835   */\n      dup3\n        /* \"#utility.yul\":7818:7827   */\n      dup7\n        /* \"#utility.yul\":7814:7836   */\n      add\n        /* \"#utility.yul\":7793:7846   */\n      tag_135\n      jump\t// in\n    tag_262:\n        /* \"#utility.yul\":7783:7846   */\n      swap3\n      pop\n        /* \"#utility.yul\":7739:7856   */\n      pop\n        /* \"#utility.yul\":7895:7897   */\n      0x20\n        /* \"#utility.yul\":7921:7974   */\n      tag_263\n        /* \"#utility.yul\":7966:7973   */\n      dup6\n        /* \"#utility.yul\":7957:7963   */\n      dup3\n        /* \"#utility.yul\":7946:7955   */\n      dup7\n        /* \"#utility.yul\":7942:7964   */\n      add\n        /* \"#utility.yul\":7921:7974   */\n      tag_108\n      jump\t// in\n    tag_263:\n        /* \"#utility.yul\":7911:7974   */\n      swap2\n      pop\n        /* \"#utility.yul\":7866:7984   */\n      pop\n        /* \"#utility.yul\":7517:7991   */\n      swap3\n      pop\n      swap3\n      swap1\n      pop\n      jump\t// out\n        /* \"#utility.yul\":7997:8219   */\n    tag_32:\n        /* \"#utility.yul\":8090:8094   */\n      0x00\n        /* \"#utility.yul\":8128:8130   */\n      0x20\n        /* \"#utility.yul\":8117:8126   */\n      dup3\n        /* \"#utility.yul\":8113:8131   */\n      add\n        /* \"#utility.yul\":8105:8131   */\n      swap1\n      pop\n        /* \"#utility.yul\":8141:8212   */\n      tag_265\n        /* \"#utility.yul\":8209:8210   */\n      0x00\n        /* \"#utility.yul\":8198:8207   */\n      dup4\n        /* \"#utility.yul\":8194:8211   */\n      add\n        /* \"#utility.yul\":8185:8191   */\n      dup5\n        /* \"#utility.yul\":8141:8212   */\n      tag_119\n      jump\t// in\n    tag_265:\n        /* \"#utility.yul\":7997:8219   */\n      swap3\n      swap2\n      pop\n      pop\n      jump\t// out\n        /* \"#utility.yul\":8225:8554   */\n    tag_35:\n        /* \"#utility.yul\":8284:8290   */\n      0x00\n        /* \"#utility.yul\":8333:8335   */\n      0x20\n        /* \"#utility.yul\":8321:8330   */\n      dup3\n        /* \"#utility.yul\":8312:8319   */\n      dup5\n        /* \"#utility.yul\":8308:8331   */\n      sub\n        /* \"#utility.yul\":8304:8336   */\n      slt\n        /* \"#utility.yul\":8301:8420   */\n      iszero\n      tag_267\n      jumpi\n        /* \"#utility.yul\":8339:8418   */\n      tag_268\n      tag_104\n      jump\t// in\n    tag_268:\n        /* \"#utility.yul\":8301:8420   */\n    tag_267:\n        /* \"#utility.yul\":8459:8460   */\n      0x00\n        /* \"#utility.yul\":8484:8537   */\n      tag_269\n        /* \"#utility.yul\":8529:8536   */\n      dup5\n        /* \"#utility.yul\":8520:8526   */\n      dup3\n        /* \"#utility.yul\":8509:8518   */\n      dup6\n        /* \"#utility.yul\":8505:8527   */\n      add\n        /* \"#utility.yul\":8484:8537   */\n      tag_135\n      jump\t// in\n    tag_269:\n        /* \"#utility.yul\":8474:8537   */\n      swap2\n      pop\n        /* \"#utility.yul\":8430:8547   */\n      pop\n        /* \"#utility.yul\":8225:8554   */\n      swap3\n      swap2\n      pop\n      pop\n      jump\t// out\n        /* \"#utility.yul\":8560:8674   */\n    tag_136:\n        /* \"#utility.yul\":8627:8633   */\n      0x00\n        /* \"#utility.yul\":8661:8666   */\n      dup2\n        /* \"#utility.yul\":8655:8667   */\n      mload\n        /* \"#utility.yul\":8645:8667   */\n      swap1\n      pop\n        /* \"#utility.yul\":8560:8674   */\n      swap2\n      swap1\n      pop\n      jump\t// out\n        /* \"#utility.yul\":8680:8864   */\n    tag_137:\n        /* \"#utility.yul\":8779:8790   */\n      0x00\n        /* \"#utility.yul\":8813:8819   */\n      dup3\n        /* \"#utility.yul\":8808:8811   */\n      dup3\n        /* \"#utility.yul\":8801:8820   */\n      mstore\n        /* \"#utility.yul\":8853:8857   */\n      0x20\n        /* \"#utility.yul\":8848:8851   */\n      dup3\n        /* \"#utility.yul\":8844:8858   */\n      add\n        /* \"#utility.yul\":8829:8858   */\n      swap1\n      pop\n        /* \"#utility.yul\":8680:8864   */\n      swap3\n      swap2\n      pop\n      pop\n      jump\t// out\n        /* \"#utility.yul\":8870:9002   */\n    tag_138:\n        /* \"#utility.yul\":8937:8941   */\n      0x00\n        /* \"#utility.yul\":8960:8963   */\n      dup2\n        /* \"#utility.yul\":8952:8963   */\n      swap1\n      pop\n        /* \"#utility.yul\":8990:8994   */\n      0x20\n        /* \"#utility.yul\":8985:8988   */\n      dup3\n        /* \"#utility.yul\":8981:8995   */\n      add\n        /* \"#utility.yul\":8973:8995   */\n      swap1\n      pop\n        /* \"#utility.yul\":8870:9002   */\n      swap2\n      swap1\n      pop\n      jump\t// out\n        /* \"#utility.yul\":9008:9116   */\n    tag_139:\n        /* \"#utility.yul\":9085:9109   */\n      tag_274\n        /* \"#utility.yul\":9103:9108   */\n      dup2\n        /* \"#utility.yul\":9085:9109   */\n      tag_106\n      jump\t// in\n    tag_274:\n        /* \"#utility.yul\":9080:9083   */\n      dup3\n        /* \"#utility.yul\":9073:9110   */\n      mstore\n        /* \"#utility.yul\":9008:9116   */\n      pop\n      pop\n      jump\t// out\n        /* \"#utility.yul\":9122:9301   */\n    tag_140:\n        /* \"#utility.yul\":9191:9201   */\n      0x00\n        /* \"#utility.yul\":9212:9258   */\n      tag_276\n        /* \"#utility.yul\":9254:9257   */\n      dup4\n        /* \"#utility.yul\":9246:9252   */\n      dup4\n        /* \"#utility.yul\":9212:9258   */\n      tag_139\n      jump\t// in\n    tag_276:\n        /* \"#utility.yul\":9290:9294   */\n      0x20\n        /* \"#utility.yul\":9285:9288   */\n      dup4\n        /* \"#utility.yul\":9281:9295   */\n      add\n        /* \"#utility.yul\":9267:9295   */\n      swap1\n      pop\n        /* \"#utility.yul\":9122:9301   */\n      swap3\n      swap2\n      pop\n      pop\n      jump\t// out\n        /* \"#utility.yul\":9307:9420   */\n    tag_141:\n        /* \"#utility.yul\":9377:9381   */\n      0x00\n        /* \"#utility.yul\":9409:9413   */\n      0x20\n        /* \"#utility.yul\":9404:9407   */\n      dup3\n        /* \"#utility.yul\":9400:9414   */\n      add\n        /* \"#utility.yul\":9392:9414   */\n      swap1\n      pop\n        /* \"#utility.yul\":9307:9420   */\n      swap2\n      swap1\n      pop\n      jump\t// out\n        /* \"#utility.yul\":9456:10188   */\n    tag_142:\n        /* \"#utility.yul\":9575:9578   */\n      0x00\n        /* \"#utility.yul\":9604:9658   */\n      tag_279\n        /* \"#utility.yul\":9652:9657   */\n      dup3\n        /* \"#utility.yul\":9604:9658   */\n      tag_136\n      jump\t// in\n    tag_279:\n        /* \"#utility.yul\":9674:9760   */\n      tag_280\n        /* \"#utility.yul\":9753:9759   */\n      dup2\n        /* \"#utility.yul\":9748:9751   */\n      dup6\n        /* \"#utility.yul\":9674:9760   */\n      tag_137\n      jump\t// in\n    tag_280:\n        /* \"#utility.yul\":9667:9760   */\n      swap4\n      pop\n        /* \"#utility.yul\":9784:9840   */\n      tag_281\n        /* \"#utility.yul\":9834:9839   */\n      dup4\n        /* \"#utility.yul\":9784:9840   */\n      tag_138\n      jump\t// in\n    tag_281:\n        /* \"#utility.yul\":9863:9870   */\n      dup1\n        /* \"#utility.yul\":9894:9895   */\n      0x00\n        /* \"#utility.yul\":9879:10163   */\n    tag_282:\n        /* \"#utility.yul\":9904:9910   */\n      dup4\n        /* \"#utility.yul\":9901:9902   */\n      dup2\n        /* \"#utility.yul\":9898:9911   */\n      lt\n        /* \"#utility.yul\":9879:10163   */\n      iszero\n      tag_284\n      jumpi\n        /* \"#utility.yul\":9980:9986   */\n      dup2\n        /* \"#utility.yul\":9974:9987   */\n      mload\n        /* \"#utility.yul\":10007:10070   */\n      tag_285\n        /* \"#utility.yul\":10066:10069   */\n      dup9\n        /* \"#utility.yul\":10051:10064   */\n      dup3\n        /* \"#utility.yul\":10007:10070   */\n      tag_140\n      jump\t// in\n    tag_285:\n        /* \"#utility.yul\":10000:10070   */\n      swap8\n      pop\n        /* \"#utility.yul\":10093:10153   */\n      tag_286\n        /* \"#utility.yul\":10146:10152   */\n      dup4\n        /* \"#utility.yul\":10093:10153   */\n      tag_141\n      jump\t// in\n    tag_286:\n        /* \"#utility.yul\":10083:10153   */\n      swap3\n      pop\n        /* \"#utility.yul\":9939:10163   */\n      pop\n        /* \"#utility.yul\":9926:9927   */\n      0x01\n        /* \"#utility.yul\":9923:9924   */\n      dup2\n        /* \"#utility.yul\":9919:9928   */\n      add\n        /* \"#utility.yul\":9914:9928   */\n      swap1\n      pop\n        /* \"#utility.yul\":9879:10163   */\n      jump(tag_282)\n    tag_284:\n        /* \"#utility.yul\":9883:9897   */\n      pop\n        /* \"#utility.yul\":10179:10182   */\n      dup6\n        /* \"#utility.yul\":10172:10182   */\n      swap4\n      pop\n        /* \"#utility.yul\":9580:10188   */\n      pop\n      pop\n      pop\n        /* \"#utility.yul\":9456:10188   */\n      swap3\n      swap2\n      pop\n      pop\n      jump\t// out\n        /* \"#utility.yul\":10194:10567   */\n    tag_38:\n        /* \"#utility.yul\":10337:10341   */\n      0x00\n        /* \"#utility.yul\":10375:10377   */\n      0x20\n        /* \"#utility.yul\":10364:10373   */\n      dup3\n        /* \"#utility.yul\":10360:10378   */\n      add\n        /* \"#utility.yul\":10352:10378   */\n      swap1\n      pop\n        /* \"#utility.yul\":10424:10433   */\n      dup2\n        /* \"#utility.yul\":10418:10422   */\n      dup2\n        /* \"#utility.yul\":10414:10434   */\n      sub\n        /* \"#utility.yul\":10410:10411   */\n      0x00\n        /* \"#utility.yul\":10399:10408   */\n      dup4\n        /* \"#utility.yul\":10395:10412   */\n      add\n        /* \"#utility.yul\":10388:10435   */\n      mstore\n        /* \"#utility.yul\":10452:10560   */\n      tag_288\n        /* \"#utility.yul\":10555:10559   */\n      dup2\n        /* \"#utility.yul\":10546:10552   */\n      dup5\n        /* \"#utility.yul\":10452:10560   */\n      tag_142\n      jump\t// in\n    tag_288:\n        /* \"#utility.yul\":10444:10560   */\n      swap1\n      pop\n        /* \"#utility.yul\":10194:10567   */\n      swap3\n      swap2\n      pop\n      pop\n      jump\t// out\n        /* \"#utility.yul\":10573:11227   */\n    tag_47:\n        /* \"#utility.yul\":10651:10657   */\n      0x00\n        /* \"#utility.yul\":10659:10665   */\n      dup1\n        /* \"#utility.yul\":10708:10710   */\n      0x40\n        /* \"#utility.yul\":10696:10705   */\n      dup4\n        /* \"#utility.yul\":10687:10694   */\n      dup6\n        /* \"#utility.yul\":10683:10706   */\n      sub\n        /* \"#utility.yul\":10679:10711   */\n      slt\n        /* \"#utility.yul\":10676:10795   */\n      iszero\n      tag_290\n      jumpi\n        /* \"#utility.yul\":10714:10793   */\n      tag_291\n      tag_104\n      jump\t// in\n    tag_291:\n        /* \"#utility.yul\":10676:10795   */\n    tag_290:\n        /* \"#utility.yul\":10862:10863   */\n      0x00\n        /* \"#utility.yul\":10851:10860   */\n      dup4\n        /* \"#utility.yul\":10847:10864   */\n      add\n        /* \"#utility.yul\":10834:10865   */\n      calldataload\n        /* \"#utility.yul\":10892:10910   */\n      0xffffffffffffffff\n        /* \"#utility.yul\":10884:10890   */\n      dup2\n        /* \"#utility.yul\":10881:10911   */\n      gt\n        /* \"#utility.yul\":10878:10995   */\n      iszero\n      tag_292\n      jumpi\n        /* \"#utility.yul\":10914:10993   */\n      tag_293\n      tag_105\n      jump\t// in\n    tag_293:\n        /* \"#utility.yul\":10878:10995   */\n    tag_292:\n        /* \"#utility.yul\":11019:11082   */\n      tag_294\n        /* \"#utility.yul\":11074:11081   */\n      dup6\n        /* \"#utility.yul\":11065:11071   */\n      dup3\n        /* \"#utility.yul\":11054:11063   */\n      dup7\n        /* \"#utility.yul\":11050:11072   */\n      add\n        /* \"#utility.yul\":11019:11082   */\n      tag_118\n      jump\t// in\n    tag_294:\n        /* \"#utility.yul\":11009:11082   */\n      swap3\n      pop\n        /* \"#utility.yul\":10805:11092   */\n      pop\n        /* \"#utility.yul\":11131:11133   */\n      0x20\n        /* \"#utility.yul\":11157:11210   */\n      tag_295\n        /* \"#utility.yul\":11202:11209   */\n      dup6\n        /* \"#utility.yul\":11193:11199   */\n      dup3\n        /* \"#utility.yul\":11182:11191   */\n      dup7\n        /* \"#utility.yul\":11178:11200   */\n      add\n        /* \"#utility.yul\":11157:11210   */\n      tag_108\n      jump\t// in\n    tag_295:\n        /* \"#utility.yul\":11147:11210   */\n      swap2\n      pop\n        /* \"#utility.yul\":11102:11220   */\n      pop\n        /* \"#utility.yul\":10573:11227   */\n      swap3\n      pop\n      swap3\n      swap1\n      pop\n      jump\t// out\n        /* \"#utility.yul\":11233:11459   */\n    tag_143:\n        /* \"#utility.yul\":11373:11407   */\n      0x4f6e6c7920746865206f776e65722063616e2075706461746520746869732070\n        /* \"#utility.yul\":11369:11370   */\n      0x00\n        /* \"#utility.yul\":11361:11367   */\n      dup3\n        /* \"#utility.yul\":11357:11371   */\n      add\n        /* \"#utility.yul\":11350:11408   */\n      mstore\n        /* \"#utility.yul\":11442:11451   */\n      0x726f706572747900000000000000000000000000000000000000000000000000\n        /* \"#utility.yul\":11437:11439   */\n      0x20\n        /* \"#utility.yul\":11429:11435   */\n      dup3\n        /* \"#utility.yul\":11425:11440   */\n      add\n        /* \"#utility.yul\":11418:11452   */\n      mstore\n        /* \"#utility.yul\":11233:11459   */\n      pop\n      jump\t// out\n        /* \"#utility.yul\":11465:11831   */\n    tag_144:\n        /* \"#utility.yul\":11607:11610   */\n      0x00\n        /* \"#utility.yul\":11628:11695   */\n      tag_298\n        /* \"#utility.yul\":11692:11694   */\n      0x27\n        /* \"#utility.yul\":11687:11690   */\n      dup4\n        /* \"#utility.yul\":11628:11695   */\n      tag_124\n      jump\t// in\n    tag_298:\n        /* \"#utility.yul\":11621:11695   */\n      swap2\n      pop\n        /* \"#utility.yul\":11704:11797   */\n      tag_299\n        /* \"#utility.yul\":11793:11796   */\n      dup3\n        /* \"#utility.yul\":11704:11797   */\n      tag_143\n      jump\t// in\n    tag_299:\n        /* \"#utility.yul\":11822:11824   */\n      0x40\n        /* \"#utility.yul\":11817:11820   */\n      dup3\n        /* \"#utility.yul\":11813:11825   */\n      add\n        /* \"#utility.yul\":11806:11825   */\n      swap1\n      pop\n        /* \"#utility.yul\":11465:11831   */\n      swap2\n      swap1\n      pop\n      jump\t// out\n        /* \"#utility.yul\":11837:12256   */\n    tag_56:\n        /* \"#utility.yul\":12003:12007   */\n      0x00\n        /* \"#utility.yul\":12041:12043   */\n      0x20\n        /* \"#utility.yul\":12030:12039   */\n      dup3\n        /* \"#utility.yul\":12026:12044   */\n      add\n        /* \"#utility.yul\":12018:12044   */\n      swap1\n      pop\n        /* \"#utility.yul\":12090:12099   */\n      dup2\n        /* \"#utility.yul\":12084:12088   */\n      dup2\n        /* \"#utility.yul\":12080:12100   */\n      sub\n        /* \"#utility.yul\":12076:12077   */\n      0x00\n        /* \"#utility.yul\":12065:12074   */\n      dup4\n        /* \"#utility.yul\":12061:12078   */\n      add\n        /* \"#utility.yul\":12054:12101   */\n      mstore\n        /* \"#utility.yul\":12118:12249   */\n      tag_301\n        /* \"#utility.yul\":12244:12248   */\n      dup2\n        /* \"#utility.yul\":12118:12249   */\n      tag_144\n      jump\t// in\n    tag_301:\n        /* \"#utility.yul\":12110:12249   */\n      swap1\n      pop\n        /* \"#utility.yul\":11837:12256   */\n      swap2\n      swap1\n      pop\n      jump\t// out\n        /* \"#utility.yul\":12262:12434   */\n    tag_145:\n        /* \"#utility.yul\":12402:12426   */\n      0x50726f7065727479206973206e6f74206c697374656400000000000000000000\n        /* \"#utility.yul\":12398:12399   */\n      0x00\n        /* \"#utility.yul\":12390:12396   */\n      dup3\n        /* \"#utility.yul\":12386:12400   */\n      add\n        /* \"#utility.yul\":12379:12427   */\n      mstore\n        /* \"#utility.yul\":12262:12434   */\n      pop\n      jump\t// out\n        /* \"#utility.yul\":12440:12806   */\n    tag_146:\n        /* \"#utility.yul\":12582:12585   */\n      0x00\n        /* \"#utility.yul\":12603:12670   */\n      tag_304\n        /* \"#utility.yul\":12667:12669   */\n      0x16\n        /* \"#utility.yul\":12662:12665   */\n      dup4\n        /* \"#utility.yul\":12603:12670   */\n      tag_124\n      jump\t// in\n    tag_304:\n        /* \"#utility.yul\":12596:12670   */\n      swap2\n      pop\n        /* \"#utility.yul\":12679:12772   */\n      tag_305\n        /* \"#utility.yul\":12768:12771   */\n      dup3\n        /* \"#utility.yul\":12679:12772   */\n      tag_145\n      jump\t// in\n    tag_305:\n        /* \"#utility.yul\":12797:12799   */\n      0x20\n        /* \"#utility.yul\":12792:12795   */\n      dup3\n        /* \"#utility.yul\":12788:12800   */\n      add\n        /* \"#utility.yul\":12781:12800   */\n      swap1\n      pop\n        /* \"#utility.yul\":12440:12806   */\n      swap2\n      swap1\n      pop\n      jump\t// out\n        /* \"#utility.yul\":12812:13231   */\n    tag_59:\n        /* \"#utility.yul\":12978:12982   */\n      0x00\n        /* \"#utility.yul\":13016:13018   */\n      0x20\n        /* \"#utility.yul\":13005:13014   */\n      dup3\n        /* \"#utility.yul\":13001:13019   */\n      add\n        /* \"#utility.yul\":12993:13019   */\n      swap1\n      pop\n        /* \"#utility.yul\":13065:13074   */\n      dup2\n        /* \"#utility.yul\":13059:13063   */\n      dup2\n        /* \"#utility.yul\":13055:13075   */\n      sub\n        /* \"#utility.yul\":13051:13052   */\n      0x00\n        /* \"#utility.yul\":13040:13049   */\n      dup4\n        /* \"#utility.yul\":13036:13053   */\n      add\n        /* \"#utility.yul\":13029:13076   */\n      mstore\n        /* \"#utility.yul\":13093:13224   */\n      tag_307\n        /* \"#utility.yul\":13219:13223   */\n      dup2\n        /* \"#utility.yul\":13093:13224   */\n      tag_146\n      jump\t// in\n    tag_307:\n        /* \"#utility.yul\":13085:13224   */\n      swap1\n      pop\n        /* \"#utility.yul\":12812:13231   */\n      swap2\n      swap1\n      pop\n      jump\t// out\n        /* \"#utility.yul\":13237:13417   */\n    tag_147:\n        /* \"#utility.yul\":13285:13362   */\n      0x4e487b7100000000000000000000000000000000000000000000000000000000\n        /* \"#utility.yul\":13282:13283   */\n      0x00\n        /* \"#utility.yul\":13275:13363   */\n      mstore\n        /* \"#utility.yul\":13382:13386   */\n      0x22\n        /* \"#utility.yul\":13379:13380   */\n      0x04\n        /* \"#utility.yul\":13372:13387   */\n      mstore\n        /* \"#utility.yul\":13406:13410   */\n      0x24\n        /* \"#utility.yul\":13403:13404   */\n      0x00\n        /* \"#utility.yul\":13396:13411   */\n      revert\n        /* \"#utility.yul\":13423:13743   */\n    tag_66:\n        /* \"#utility.yul\":13467:13473   */\n      0x00\n        /* \"#utility.yul\":13504:13505   */\n      0x02\n        /* \"#utility.yul\":13498:13502   */\n      dup3\n        /* \"#utility.yul\":13494:13506   */\n      div\n        /* \"#utility.yul\":13484:13506   */\n      swap1\n      pop\n        /* \"#utility.yul\":13551:13552   */\n      0x01\n        /* \"#utility.yul\":13545:13549   */\n      dup3\n        /* \"#utility.yul\":13541:13553   */\n      and\n        /* \"#utility.yul\":13572:13590   */\n      dup1\n        /* \"#utility.yul\":13562:13643   */\n      tag_310\n      jumpi\n        /* \"#utility.yul\":13628:13632   */\n      0x7f\n        /* \"#utility.yul\":13620:13626   */\n      dup3\n        /* \"#utility.yul\":13616:13633   */\n      and\n        /* \"#utility.yul\":13606:13633   */\n      swap2\n      pop\n        /* \"#utility.yul\":13562:13643   */\n    tag_310:\n        /* \"#utility.yul\":13690:13692   */\n      0x20\n        /* \"#utility.yul\":13682:13688   */\n      dup3\n        /* \"#utility.yul\":13679:13693   */\n      lt\n        /* \"#utility.yul\":13659:13677   */\n      dup2\n        /* \"#utility.yul\":13656:13694   */\n      sub\n        /* \"#utility.yul\":13653:13737   */\n      tag_311\n      jumpi\n        /* \"#utility.yul\":13709:13727   */\n      tag_312\n      tag_147\n      jump\t// in\n    tag_312:\n        /* \"#utility.yul\":13653:13737   */\n    tag_311:\n        /* \"#utility.yul\":13474:13743   */\n      pop\n        /* \"#utility.yul\":13423:13743   */\n      swap2\n      swap1\n      pop\n      jump\t// out\n        /* \"#utility.yul\":13749:13890   */\n    tag_148:\n        /* \"#utility.yul\":13798:13802   */\n      0x00\n        /* \"#utility.yul\":13821:13824   */\n      dup2\n        /* \"#utility.yul\":13813:13824   */\n      swap1\n      pop\n        /* \"#utility.yul\":13844:13847   */\n      dup2\n        /* \"#utility.yul\":13841:13842   */\n      0x00\n        /* \"#utility.yul\":13834:13848   */\n      mstore\n        /* \"#utility.yul\":13878:13882   */\n      0x20\n        /* \"#utility.yul\":13875:13876   */\n      0x00\n        /* \"#utility.yul\":13865:13883   */\n      keccak256\n        /* \"#utility.yul\":13857:13883   */\n      swap1\n      pop\n        /* \"#utility.yul\":13749:13890   */\n      swap2\n      swap1\n      pop\n      jump\t// out\n        /* \"#utility.yul\":13896:13989   */\n    tag_149:\n        /* \"#utility.yul\":13933:13939   */\n      0x00\n        /* \"#utility.yul\":13980:13982   */\n      0x20\n        /* \"#utility.yul\":13975:13977   */\n      0x1f\n        /* \"#utility.yul\":13968:13973   */\n      dup4\n        /* \"#utility.yul\":13964:13978   */\n      add\n        /* \"#utility.yul\":13960:13983   */\n      div\n        /* \"#utility.yul\":13950:13983   */\n      swap1\n      pop\n        /* \"#utility.yul\":13896:13989   */\n      swap2\n      swap1\n      pop\n      jump\t// out\n        /* \"#utility.yul\":13995:14102   */\n    tag_150:\n        /* \"#utility.yul\":14039:14047   */\n      0x00\n        /* \"#utility.yul\":14089:14094   */\n      dup3\n        /* \"#utility.yul\":14083:14087   */\n      dup3\n        /* \"#utility.yul\":14079:14095   */\n      shl\n        /* \"#utility.yul\":14058:14095   */\n      swap1\n      pop\n        /* \"#utility.yul\":13995:14102   */\n      swap3\n      swap2\n      pop\n      pop\n      jump\t// out\n        /* \"#utility.yul\":14108:14501   */\n    tag_151:\n        /* \"#utility.yul\":14177:14183   */\n      0x00\n        /* \"#utility.yul\":14227:14228   */\n      0x08\n        /* \"#utility.yul\":14215:14225   */\n      dup4\n        /* \"#utility.yul\":14211:14229   */\n      mul\n        /* \"#utility.yul\":14250:14347   */\n      tag_317\n        /* \"#utility.yul\":14280:14346   */\n      0xffffffffffffffffffffffffffffffffffffffffffffffffffffffffffffffff\n        /* \"#utility.yul\":14269:14278   */\n      dup3\n        /* \"#utility.yul\":14250:14347   */\n      tag_150\n      jump\t// in\n    tag_317:\n        /* \"#utility.yul\":14368:14407   */\n      tag_318\n        /* \"#utility.yul\":14398:14406   */\n      dup7\n        /* \"#utility.yul\":14387:14396   */\n      dup4\n        /* \"#utility.yul\":14368:14407   */\n      tag_150\n      jump\t// in\n    tag_318:\n        /* \"#utility.yul\":14356:14407   */\n      swap6\n      pop\n        /* \"#utility.yul\":14440:14444   */\n      dup1\n        /* \"#utility.yul\":14436:14445   */\n      not\n        /* \"#utility.yul\":14429:14434   */\n      dup5\n        /* \"#utility.yul\":14425:14446   */\n      and\n        /* \"#utility.yul\":14416:14446   */\n      swap4\n      pop\n        /* \"#utility.yul\":14489:14493   */\n      dup1\n        /* \"#utility.yul\":14479:14487   */\n      dup7\n        /* \"#utility.yul\":14475:14494   */\n      and\n        /* \"#utility.yul\":14468:14473   */\n      dup5\n        /* \"#utility.yul\":14465:14495   */\n      or\n        /* \"#utility.yul\":14455:14495   */\n      swap3\n      pop\n        /* \"#utility.yul\":14184:14501   */\n      pop\n      pop\n        /* \"#utility.yul\":14108:14501   */\n      swap4\n      swap3\n      pop\n      pop\n      pop\n      jump\t// out\n        /* \"#utility.yul\":14507:14649   */\n    tag_152:\n        /* \"#utility.yul\":14557:14566   */\n      0x00\n        /* \"#utility.yul\":14590:14643   */\n      tag_320\n        /* \"#utility.yul\":14608:14642   */\n      tag_321\n        /* \"#utility.yul\":14617:14641   */\n      tag_322\n        /* \"#utility.yul\":14635:14640   */\n      dup5\n        /* \"#utility.yul\":14617:14641   */\n      tag_106\n      jump\t// in\n    tag_322:\n        /* \"#utility.yul\":14608:14642   */\n      tag_129\n      jump\t// in\n    tag_321:\n        /* \"#utility.yul\":14590:14643   */\n      tag_106\n      jump\t// in\n    tag_320:\n        /* \"#utility.yul\":14577:14643   */\n      swap1\n      pop\n        /* \"#utility.yul\":14507:14649   */\n      swap2\n      swap1\n      pop\n      jump\t// out\n        /* \"#utility.yul\":14655:14730   */\n    tag_153:\n        /* \"#utility.yul\":14698:14701   */\n      0x00\n        /* \"#utility.yul\":14719:14724   */\n      dup2\n        /* \"#utility.yul\":14712:14724   */\n      swap1\n      pop\n        /* \"#utility.yul\":14655:14730   */\n      swap2\n      swap1\n      pop\n      jump\t// out\n        /* \"#utility.yul\":14736:15005   */\n    tag_154:\n        /* \"#utility.yul\":14846:14885   */\n      tag_325\n        /* \"#utility.yul\":14877:14884   */\n      dup4\n        /* \"#utility.yul\":14846:14885   */\n      tag_152\n      jump\t// in\n    tag_325:\n        /* \"#utility.yul\":14907:14998   */\n      tag_326\n        /* \"#utility.yul\":14956:14997   */\n      tag_327\n        /* \"#utility.yul\":14980:14996   */\n      dup3\n        /* \"#utility.yul\":14956:14997   */\n      tag_153\n      jump\t// in\n    tag_327:\n        /* \"#utility.yul\":14948:14954   */\n      dup5\n        /* \"#utility.yul\":14941:14945   */\n      dup5\n        /* \"#utility.yul\":14935:14946   */\n      sload\n        /* \"#utility.yul\":14907:14998   */\n      tag_151\n      jump\t// in\n    tag_326:\n        /* \"#utility.yul\":14901:14905   */\n      dup3\n        /* \"#utility.yul\":14894:14999   */\n      sstore\n        /* \"#utility.yul\":14812:15005   */\n      pop\n        /* \"#utility.yul\":14736:15005   */\n      pop\n      pop\n      pop\n      jump\t// out\n        /* \"#utility.yul\":15011:15084   */\n    tag_155:\n        /* \"#utility.yul\":15056:15059   */\n      0x00\n        /* \"#utility.yul\":15011:15084   */\n      swap1\n      jump\t// out\n        /* \"#utility.yul\":15090:15279   */\n    tag_156:\n        /* \"#utility.yul\":15167:15199   */\n      tag_330\n      tag_155\n      jump\t// in\n    tag_330:\n        /* \"#utility.yul\":15208:15273   */\n      tag_331\n        /* \"#utility.yul\":15266:15272   */\n      dup2\n        /* \"#utility.yul\":15258:15264   */\n      dup5\n        /* \"#utility.yul\":15252:15256   */\n      dup5\n        /* \"#utility.yul\":15208:15273   */\n      tag_154\n      jump\t// in\n    tag_331:\n        /* \"#utility.yul\":15143:15279   */\n      pop\n        /* \"#utility.yul\":15090:15279   */\n      pop\n      pop\n      jump\t// out\n        /* \"#utility.yul\":15285:15471   */\n    tag_157:\n        /* \"#utility.yul\":15345:15465   */\n    tag_333:\n        /* \"#utility.yul\":15362:15365   */\n      dup2\n        /* \"#utility.yul\":15355:15360   */\n      dup2\n        /* \"#utility.yul\":15352:15366   */\n      lt\n        /* \"#utility.yul\":15345:15465   */\n      iszero\n      tag_335\n      jumpi\n        /* \"#utility.yul\":15416:15455   */\n      tag_336\n        /* \"#utility.yul\":15453:15454   */\n      0x00\n        /* \"#utility.yul\":15446:15451   */\n      dup3\n        /* \"#utility.yul\":15416:15455   */\n      tag_156\n      jump\t// in\n    tag_336:\n        /* \"#utility.yul\":15389:15390   */\n      0x01\n        /* \"#utility.yul\":15382:15387   */\n      dup2\n        /* \"#utility.yul\":15378:15391   */\n      add\n        /* \"#utility.yul\":15369:15391   */\n      swap1\n      pop\n        /* \"#utility.yul\":15345:15465   */\n      jump(tag_333)\n    tag_335:\n        /* \"#utility.yul\":15285:15471   */\n      pop\n      pop\n      jump\t// out\n        /* \"#utility.yul\":15477:16020   */\n    tag_158:\n        /* \"#utility.yul\":15578:15580   */\n      0x1f\n        /* \"#utility.yul\":15573:15576   */\n      dup3\n        /* \"#utility.yul\":15570:15581   */\n      gt\n        /* \"#utility.yul\":15567:16013   */\n      iszero\n      tag_338\n      jumpi\n        /* \"#utility.yul\":15612:15650   */\n      tag_339\n        /* \"#utility.yul\":15644:15649   */\n      dup2\n        /* \"#utility.yul\":15612:15650   */\n      tag_148\n      jump\t// in\n    tag_339:\n        /* \"#utility.yul\":15696:15725   */\n      tag_340\n        /* \"#utility.yul\":15714:15724   */\n      dup5\n        /* \"#utility.yul\":15696:15725   */\n      tag_149\n      jump\t// in\n    tag_340:\n        /* \"#utility.yul\":15686:15694   */\n      dup2\n        /* \"#utility.yul\":15682:15726   */\n      add\n        /* \"#utility.yul\":15879:15881   */\n      0x20\n        /* \"#utility.yul\":15867:15877   */\n      dup6\n        /* \"#utility.yul\":15864:15882   */\n      lt\n        /* \"#utility.yul\":15861:15910   */\n      iszero\n      tag_341\n      jumpi\n        /* \"#utility.yul\":15900:15908   */\n      dup2\n        /* \"#utility.yul\":15885:15908   */\n      swap1\n      pop\n        /* \"#utility.yul\":15861:15910   */\n    tag_341:\n        /* \"#utility.yul\":15923:16003   */\n      tag_342\n        /* \"#utility.yul\":15979:16001   */\n      tag_343\n        /* \"#utility.yul\":15997:16000   */\n      dup6\n        /* \"#utility.yul\":15979:16001   */\n      tag_149\n      jump\t// in\n    tag_343:\n        /* \"#utility.yul\":15969:15977   */\n      dup4\n        /* \"#utility.yul\":15965:16002   */\n      add\n        /* \"#utility.yul\":15952:15963   */\n      dup3\n        /* \"#utility.yul\":15923:16003   */\n      tag_157\n      jump\t// in\n    tag_342:\n        /* \"#utility.yul\":15582:16013   */\n      pop\n      pop\n        /* \"#utility.yul\":15567:16013   */\n    tag_338:\n        /* \"#utility.yul\":15477:16020   */\n      pop\n      pop\n      pop\n      jump\t// out\n        /* \"#utility.yul\":16026:16143   */\n    tag_159:\n        /* \"#utility.yul\":16080:16088   */\n      0x00\n        /* \"#utility.yul\":16130:16135   */\n      dup3\n        /* \"#utility.yul\":16124:16128   */\n      dup3\n        /* \"#utility.yul\":16120:16136   */\n      shr\n        /* \"#utility.yul\":16099:16136   */\n      swap1\n      pop\n        /* \"#utility.yul\":16026:16143   */\n      swap3\n      swap2\n      pop\n      pop\n      jump\t// out\n        /* \"#utility.yul\":16149:16318   */\n    tag_160:\n        /* \"#utility.yul\":16193:16199   */\n      0x00\n        /* \"#utility.yul\":16226:16277   */\n      tag_346\n        /* \"#utility.yul\":16274:16275   */\n      0x00\n        /* \"#utility.yul\":16270:16276   */\n      not\n        /* \"#utility.yul\":16262:16267   */\n      dup5\n        /* \"#utility.yul\":16259:16260   */\n      0x08\n        /* \"#utility.yul\":16255:16268   */\n      mul\n        /* \"#utility.yul\":16226:16277   */\n      tag_159\n      jump\t// in\n    tag_346:\n        /* \"#utility.yul\":16222:16278   */\n      not\n        /* \"#utility.yul\":16307:16311   */\n      dup1\n        /* \"#utility.yul\":16301:16305   */\n      dup4\n        /* \"#utility.yul\":16297:16312   */\n      and\n        /* \"#utility.yul\":16287:16312   */\n      swap2\n      pop\n        /* \"#utility.yul\":16200:16318   */\n      pop\n        /* \"#utility.yul\":16149:16318   */\n      swap3\n      swap2\n      pop\n      pop\n      jump\t// out\n        /* \"#utility.yul\":16323:16618   */\n    tag_161:\n        /* \"#utility.yul\":16399:16403   */\n      0x00\n        /* \"#utility.yul\":16545:16574   */\n      tag_348\n        /* \"#utility.yul\":16570:16573   */\n      dup4\n        /* \"#utility.yul\":16564:16568   */\n      dup4\n        /* \"#utility.yul\":16545:16574   */\n      tag_160\n      jump\t// in\n    tag_348:\n        /* \"#utility.yul\":16537:16574   */\n      swap2\n      pop\n        /* \"#utility.yul\":16607:16610   */\n      dup3\n        /* \"#utility.yul\":16604:16605   */\n      0x02\n        /* \"#utility.yul\":16600:16611   */\n      mul\n        /* \"#utility.yul\":16594:16598   */\n      dup3\n        /* \"#utility.yul\":16591:16612   */\n      or\n        /* \"#utility.yul\":16583:16612   */\n      swap1\n      pop\n        /* \"#utility.yul\":16323:16618   */\n      swap3\n      swap2\n      pop\n      pop\n      jump\t// out\n        /* \"#utility.yul\":16623:18018   */\n    tag_61:\n        /* \"#utility.yul\":16740:16777   */\n      tag_350\n        /* \"#utility.yul\":16773:16776   */\n      dup3\n        /* \"#utility.yul\":16740:16777   */\n      tag_123\n      jump\t// in\n    tag_350:\n        /* \"#utility.yul\":16842:16860   */\n      0xffffffffffffffff\n        /* \"#utility.yul\":16834:16840   */\n      dup2\n        /* \"#utility.yul\":16831:16861   */\n      gt\n        /* \"#utility.yul\":16828:16884   */\n      iszero\n      tag_351\n      jumpi\n        /* \"#utility.yul\":16864:16882   */\n      tag_352\n      tag_112\n      jump\t// in\n    tag_352:\n        /* \"#utility.yul\":16828:16884   */\n    tag_351:\n        /* \"#utility.yul\":16908:16946   */\n      tag_353\n        /* \"#utility.yul\":16940:16944   */\n      dup3\n        /* \"#utility.yul\":16934:16945   */\n      sload\n        /* \"#utility.yul\":16908:16946   */\n      tag_66\n      jump\t// in\n    tag_353:\n        /* \"#utility.yul\":16993:17060   */\n      tag_354\n        /* \"#utility.yul\":17053:17059   */\n      dup3\n        /* \"#utility.yul\":17045:17051   */\n      dup3\n        /* \"#utility.yul\":17039:17043   */\n      dup6\n        /* \"#utility.yul\":16993:17060   */\n      tag_158\n      jump\t// in\n    tag_354:\n        /* \"#utility.yul\":17087:17088   */\n      0x00\n        /* \"#utility.yul\":17111:17115   */\n      0x20\n        /* \"#utility.yul\":17098:17115   */\n      swap1\n      pop\n        /* \"#utility.yul\":17143:17145   */\n      0x1f\n        /* \"#utility.yul\":17135:17141   */\n      dup4\n        /* \"#utility.yul\":17132:17146   */\n      gt\n        /* \"#utility.yul\":17160:17161   */\n      0x01\n        /* \"#utility.yul\":17155:17773   */\n      dup2\n      eq\n      tag_356\n      jumpi\n        /* \"#utility.yul\":17817:17818   */\n      0x00\n        /* \"#utility.yul\":17834:17840   */\n      dup5\n        /* \"#utility.yul\":17831:17908   */\n      iszero\n      tag_357\n      jumpi\n        /* \"#utility.yul\":17883:17892   */\n      dup3\n        /* \"#utility.yul\":17878:17881   */\n      dup8\n        /* \"#utility.yul\":17874:17893   */\n      add\n        /* \"#utility.yul\":17868:17894   */\n      mload\n        /* \"#utility.yul\":17859:17894   */\n      swap1\n      pop\n        /* \"#utility.yul\":17831:17908   */\n    tag_357:\n        /* \"#utility.yul\":17934:18001   */\n      tag_358\n        /* \"#utility.yul\":17994:18000   */\n      dup6\n        /* \"#utility.yul\":17987:17992   */\n      dup3\n        /* \"#utility.yul\":17934:18001   */\n      tag_161\n      jump\t// in\n    tag_358:\n        /* \"#utility.yul\":17928:17932   */\n      dup7\n        /* \"#utility.yul\":17921:18002   */\n      sstore\n        /* \"#utility.yul\":17790:18012   */\n      pop\n        /* \"#utility.yul\":17125:18012   */\n      jump(tag_355)\n        /* \"#utility.yul\":17155:17773   */\n    tag_356:\n        /* \"#utility.yul\":17207:17211   */\n      0x1f\n        /* \"#utility.yul\":17203:17212   */\n      not\n        /* \"#utility.yul\":17195:17201   */\n      dup5\n        /* \"#utility.yul\":17191:17213   */\n      and\n        /* \"#utility.yul\":17241:17278   */\n      tag_359\n        /* \"#utility.yul\":17273:17277   */\n      dup7\n        /* \"#utility.yul\":17241:17278   */\n      tag_148\n      jump\t// in\n    tag_359:\n        /* \"#utility.yul\":17300:17301   */\n      0x00\n        /* \"#utility.yul\":17314:17522   */\n    tag_360:\n        /* \"#utility.yul\":17328:17335   */\n      dup3\n        /* \"#utility.yul\":17325:17326   */\n      dup2\n        /* \"#utility.yul\":17322:17336   */\n      lt\n        /* \"#utility.yul\":17314:17522   */\n      iszero\n      tag_362\n      jumpi\n        /* \"#utility.yul\":17407:17416   */\n      dup5\n        /* \"#utility.yul\":17402:17405   */\n      dup10\n        /* \"#utility.yul\":17398:17417   */\n      add\n        /* \"#utility.yul\":17392:17418   */\n      mload\n        /* \"#utility.yul\":17384:17390   */\n      dup3\n        /* \"#utility.yul\":17377:17419   */\n      sstore\n        /* \"#utility.yul\":17458:17459   */\n      0x01\n        /* \"#utility.yul\":17450:17456   */\n      dup3\n        /* \"#utility.yul\":17446:17460   */\n      add\n        /* \"#utility.yul\":17436:17460   */\n      swap2\n      pop\n        /* \"#utility.yul\":17505:17507   */\n      0x20\n        /* \"#utility.yul\":17494:17503   */\n      dup6\n        /* \"#utility.yul\":17490:17508   */\n      add\n        /* \"#utility.yul\":17477:17508   */\n      swap5\n      pop\n        /* \"#utility.yul\":17351:17355   */\n      0x20\n        /* \"#utility.yul\":17348:17349   */\n      dup2\n        /* \"#utility.yul\":17344:17356   */\n      add\n        /* \"#utility.yul\":17339:17356   */\n      swap1\n      pop\n        /* \"#utility.yul\":17314:17522   */\n      jump(tag_360)\n    tag_362:\n        /* \"#utility.yul\":17550:17556   */\n      dup7\n        /* \"#utility.yul\":17541:17548   */\n      dup4\n        /* \"#utility.yul\":17538:17557   */\n      lt\n        /* \"#utility.yul\":17535:17714   */\n      iszero\n      tag_363\n      jumpi\n        /* \"#utility.yul\":17608:17617   */\n      dup5\n        /* \"#utility.yul\":17603:17606   */\n      dup10\n        /* \"#utility.yul\":17599:17618   */\n      add\n        /* \"#utility.yul\":17593:17619   */\n      mload\n        /* \"#utility.yul\":17651:17699   */\n      tag_364\n        /* \"#utility.yul\":17693:17697   */\n      0x1f\n        /* \"#utility.yul\":17685:17691   */\n      dup10\n        /* \"#utility.yul\":17681:17698   */\n      and\n        /* \"#utility.yul\":17670:17679   */\n      dup3\n        /* \"#utility.yul\":17651:17699   */\n      tag_160\n      jump\t// in\n    tag_364:\n        /* \"#utility.yul\":17643:17649   */\n      dup4\n        /* \"#utility.yul\":17636:17700   */\n      sstore\n        /* \"#utility.yul\":17558:17714   */\n      pop\n        /* \"#utility.yul\":17535:17714   */\n    tag_363:\n        /* \"#utility.yul\":17760:17761   */\n      0x01\n        /* \"#utility.yul\":17756:17757   */\n      0x02\n        /* \"#utility.yul\":17748:17754   */\n      dup9\n        /* \"#utility.yul\":17744:17758   */\n      mul\n        /* \"#utility.yul\":17740:17762   */\n      add\n        /* \"#utility.yul\":17734:17738   */\n      dup9\n        /* \"#utility.yul\":17727:17763   */\n      sstore\n        /* \"#utility.yul\":17162:17773   */\n      pop\n      pop\n      pop\n        /* \"#utility.yul\":17125:18012   */\n    tag_355:\n      pop\n        /* \"#utility.yul\":16715:18018   */\n      pop\n      pop\n      pop\n        /* \"#utility.yul\":16623:18018   */\n      pop\n      pop\n      jump\t// out\n        /* \"#utility.yul\":18024:18557   */\n    tag_63:\n        /* \"#utility.yul\":18193:18197   */\n      0x00\n        /* \"#utility.yul\":18231:18233   */\n      0x60\n        /* \"#utility.yul\":18220:18229   */\n      dup3\n        /* \"#utility.yul\":18216:18234   */\n      add\n        /* \"#utility.yul\":18208:18234   */\n      swap1\n      pop\n        /* \"#utility.yul\":18244:18315   */\n      tag_366\n        /* \"#utility.yul\":18312:18313   */\n      0x00\n        /* \"#utility.yul\":18301:18310   */\n      dup4\n        /* \"#utility.yul\":18297:18314   */\n      add\n        /* \"#utility.yul\":18288:18294   */\n      dup7\n        /* \"#utility.yul\":18244:18315   */\n      tag_119\n      jump\t// in\n    tag_366:\n        /* \"#utility.yul\":18362:18371   */\n      dup2\n        /* \"#utility.yul\":18356:18360   */\n      dup2\n        /* \"#utility.yul\":18352:18372   */\n      sub\n        /* \"#utility.yul\":18347:18349   */\n      0x20\n        /* \"#utility.yul\":18336:18345   */\n      dup4\n        /* \"#utility.yul\":18332:18350   */\n      add\n        /* \"#utility.yul\":18325:18373   */\n      mstore\n        /* \"#utility.yul\":18390:18468   */\n      tag_367\n        /* \"#utility.yul\":18463:18467   */\n      dup2\n        /* \"#utility.yul\":18454:18460   */\n      dup6\n        /* \"#utility.yul\":18390:18468   */\n      tag_126\n      jump\t// in\n    tag_367:\n        /* \"#utility.yul\":18382:18468   */\n      swap1\n      pop\n        /* \"#utility.yul\":18478:18550   */\n      tag_368\n        /* \"#utility.yul\":18546:18548   */\n      0x40\n        /* \"#utility.yul\":18535:18544   */\n      dup4\n        /* \"#utility.yul\":18531:18549   */\n      add\n        /* \"#utility.yul\":18522:18528   */\n      dup5\n        /* \"#utility.yul\":18478:18550   */\n      tag_119\n      jump\t// in\n    tag_368:\n        /* \"#utility.yul\":18024:18557   */\n      swap5\n      swap4\n      pop\n      pop\n      pop\n      pop\n      jump\t// out\n        /* \"#utility.yul\":18563:18789   */\n    tag_162:\n        /* \"#utility.yul\":18703:18737   */\n      0x4f6e6c7920746865206f776e65722063616e2072656d6f766520746869732070\n        /* \"#utility.yul\":18699:18700   */\n      0x00\n        /* \"#utility.yul\":18691:18697   */\n      dup3\n        /* \"#utility.yul\":18687:18701   */\n      add\n        /* \"#utility.yul\":18680:18738   */\n      mstore\n        /* \"#utility.yul\":18772:18781   */\n      0x726f706572747900000000000000000000000000000000000000000000000000\n        /* \"#utility.yul\":18767:18769   */\n      0x20\n        /* \"#utility.yul\":18759:18765   */\n      dup3\n        /* \"#utility.yul\":18755:18770   */\n      add\n        /* \"#utility.yul\":18748:18782   */\n      mstore\n        /* \"#utility.yul\":18563:18789   */\n      pop\n      jump\t// out\n        /* \"#utility.yul\":18795:19161   */\n    tag_163:\n        /* \"#utility.yul\":18937:18940   */\n      0x00\n        /* \"#utility.yul\":18958:19025   */\n      tag_371\n        /* \"#utility.yul\":19022:19024   */\n      0x27\n        /* \"#utility.yul\":19017:19020   */\n      dup4\n        /* \"#utility.yul\":18958:19025   */\n      tag_124\n      jump\t// in\n    tag_371:\n        /* \"#utility.yul\":18951:19025   */\n      swap2\n      pop\n        /* \"#utility.yul\":19034:19127   */\n      tag_372\n        /* \"#utility.yul\":19123:19126   */\n      dup3\n        /* \"#utility.yul\":19034:19127   */\n      tag_162\n      jump\t// in\n    tag_372:\n        /* \"#utility.yul\":19152:19154   */\n      0x40\n        /* \"#utility.yul\":19147:19150   */\n      dup3\n        /* \"#utility.yul\":19143:19155   */\n      add\n        /* \"#utility.yul\":19136:19155   */\n      swap1\n      pop\n        /* \"#utility.yul\":18795:19161   */\n      swap2\n      swap1\n      pop\n      jump\t// out\n        /* \"#utility.yul\":19167:19586   */\n    tag_79:\n        /* \"#utility.yul\":19333:19337   */\n      0x00\n        /* \"#utility.yul\":19371:19373   */\n      0x20\n        /* \"#utility.yul\":19360:19369   */\n      dup3\n        /* \"#utility.yul\":19356:19374   */\n      add\n        /* \"#utility.yul\":19348:19374   */\n      swap1\n      pop\n        /* \"#utility.yul\":19420:19429   */\n      dup2\n        /* \"#utility.yul\":19414:19418   */\n      dup2\n        /* \"#utility.yul\":19410:19430   */\n      sub\n        /* \"#utility.yul\":19406:19407   */\n      0x00\n        /* \"#utility.yul\":19395:19404   */\n      dup4\n        /* \"#utility.yul\":19391:19408   */\n      add\n        /* \"#utility.yul\":19384:19431   */\n      mstore\n        /* \"#utility.yul\":19448:19579   */\n      tag_374\n        /* \"#utility.yul\":19574:19578   */\n      dup2\n        /* \"#utility.yul\":19448:19579   */\n      tag_163\n      jump\t// in\n    tag_374:\n        /* \"#utility.yul\":19440:19579   */\n      swap1\n      pop\n        /* \"#utility.yul\":19167:19586   */\n      swap2\n      swap1\n      pop\n      jump\t// out\n        /* \"#utility.yul\":19592:19814   */\n    tag_85:\n        /* \"#utility.yul\":19685:19689   */\n      0x00\n        /* \"#utility.yul\":19723:19725   */\n      0x20\n        /* \"#utility.yul\":19712:19721   */\n      dup3\n        /* \"#utility.yul\":19708:19726   */\n      add\n        /* \"#utility.yul\":19700:19726   */\n      swap1\n      pop\n        /* \"#utility.yul\":19736:19807   */\n      tag_376\n        /* \"#utility.yul\":19804:19805   */\n      0x00\n        /* \"#utility.yul\":19793:19802   */\n      dup4\n        /* \"#utility.yul\":19789:19806   */\n      add\n        /* \"#utility.yul\":19780:19786   */\n      dup5\n        /* \"#utility.yul\":19736:19807   */\n      tag_122\n      jump\t// in\n    tag_376:\n        /* \"#utility.yul\":19592:19814   */\n      swap3\n      swap2\n      pop\n      pop\n      jump\t// out\n        /* \"#utility.yul\":19820:19936   */\n    tag_164:\n        /* \"#utility.yul\":19890:19911   */\n      tag_378\n        /* \"#utility.yul\":19905:19910   */\n      dup2\n        /* \"#utility.yul\":19890:19911   */\n      tag_127\n      jump\t// in\n    tag_378:\n        /* \"#utility.yul\":19883:19888   */\n      dup2\n        /* \"#utility.yul\":19880:19912   */\n      eq\n        /* \"#utility.yul\":19870:19930   */\n      tag_379\n      jumpi\n        /* \"#utility.yul\":19926:19927   */\n      0x00\n        /* \"#utility.yul\":19923:19924   */\n      dup1\n        /* \"#utility.yul\":19916:19928   */\n      revert\n        /* \"#utility.yul\":19870:19930   */\n    tag_379:\n        /* \"#utility.yul\":19820:19936   */\n      pop\n      jump\t// out\n        /* \"#utility.yul\":19942:20079   */\n    tag_165:\n        /* \"#utility.yul\":19996:20001   */\n      0x00\n        /* \"#utility.yul\":20027:20033   */\n      dup2\n        /* \"#utility.yul\":20021:20034   */\n      mload\n        /* \"#utility.yul\":20012:20034   */\n      swap1\n      pop\n        /* \"#utility.yul\":20043:20073   */\n      tag_381\n        /* \"#utility.yul\":20067:20072   */\n      dup2\n        /* \"#utility.yul\":20043:20073   */\n      tag_164\n      jump\t// in\n    tag_381:\n        /* \"#utility.yul\":19942:20079   */\n      swap3\n      swap2\n      pop\n      pop\n      jump\t// out\n        /* \"#utility.yul\":20085:20430   */\n    tag_89:\n        /* \"#utility.yul\":20152:20158   */\n      0x00\n        /* \"#utility.yul\":20201:20203   */\n      0x20\n        /* \"#utility.yul\":20189:20198   */\n      dup3\n        /* \"#utility.yul\":20180:20187   */\n      dup5\n        /* \"#utility.yul\":20176:20199   */\n      sub\n        /* \"#utility.yul\":20172:20204   */\n      slt\n        /* \"#utility.yul\":20169:20288   */\n      iszero\n      tag_383\n      jumpi\n        /* \"#utility.yul\":20207:20286   */\n      tag_384\n      tag_104\n      jump\t// in\n    tag_384:\n        /* \"#utility.yul\":20169:20288   */\n    tag_383:\n        /* \"#utility.yul\":20327:20328   */\n      0x00\n        /* \"#utility.yul\":20352:20413   */\n      tag_385\n        /* \"#utility.yul\":20405:20412   */\n      dup5\n        /* \"#utility.yul\":20396:20402   */\n      dup3\n        /* \"#utility.yul\":20385:20394   */\n      dup6\n        /* \"#utility.yul\":20381:20403   */\n      add\n        /* \"#utility.yul\":20352:20413   */\n      tag_165\n      jump\t// in\n    tag_385:\n        /* \"#utility.yul\":20342:20413   */\n      swap2\n      pop\n        /* \"#utility.yul\":20298:20423   */\n      pop\n        /* \"#utility.yul\":20085:20430   */\n      swap3\n      swap2\n      pop\n      pop\n      jump\t// out\n        /* \"#utility.yul\":20436:20609   */\n    tag_166:\n        /* \"#utility.yul\":20576:20601   */\n      0x55736572206d7573742062652072656769737465726564000000000000000000\n        /* \"#utility.yul\":20572:20573   */\n      0x00\n        /* \"#utility.yul\":20564:20570   */\n      dup3\n        /* \"#utility.yul\":20560:20574   */\n      add\n        /* \"#utility.yul\":20553:20602   */\n      mstore\n        /* \"#utility.yul\":20436:20609   */\n      pop\n      jump\t// out\n        /* \"#utility.yul\":20615:20981   */\n    tag_167:\n        /* \"#utility.yul\":20757:20760   */\n      0x00\n        /* \"#utility.yul\":20778:20845   */\n      tag_388\n        /* \"#utility.yul\":20842:20844   */\n      0x17\n        /* \"#utility.yul\":20837:20840   */\n      dup4\n        /* \"#utility.yul\":20778:20845   */\n      tag_124\n      jump\t// in\n    tag_388:\n        /* \"#utility.yul\":20771:20845   */\n      swap2\n      pop\n        /* \"#utility.yul\":20854:20947   */\n      tag_389\n        /* \"#utility.yul\":20943:20946   */\n      dup3\n        /* \"#utility.yul\":20854:20947   */\n      tag_166\n      jump\t// in\n    tag_389:\n        /* \"#utility.yul\":20972:20974   */\n      0x20\n        /* \"#utility.yul\":20967:20970   */\n      dup3\n        /* \"#utility.yul\":20963:20975   */\n      add\n        /* \"#utility.yul\":20956:20975   */\n      swap1\n      pop\n        /* \"#utility.yul\":20615:20981   */\n      swap2\n      swap1\n      pop\n      jump\t// out\n        /* \"#utility.yul\":20987:21406   */\n    tag_92:\n        /* \"#utility.yul\":21153:21157   */\n      0x00\n        /* \"#utility.yul\":21191:21193   */\n      0x20\n        /* \"#utility.yul\":21180:21189   */\n      dup3\n        /* \"#utility.yul\":21176:21194   */\n      add\n        /* \"#utility.yul\":21168:21194   */\n      swap1\n      pop\n        /* \"#utility.yul\":21240:21249   */\n      dup2\n        /* \"#utility.yul\":21234:21238   */\n      dup2\n        /* \"#utility.yul\":21230:21250   */\n      sub\n        /* \"#utility.yul\":21226:21227   */\n      0x00\n        /* \"#utility.yul\":21215:21224   */\n      dup4\n        /* \"#utility.yul\":21211:21228   */\n      add\n        /* \"#utility.yul\":21204:21251   */\n      mstore\n        /* \"#utility.yul\":21268:21399   */\n      tag_391\n        /* \"#utility.yul\":21394:21398   */\n      dup2\n        /* \"#utility.yul\":21268:21399   */\n      tag_167\n      jump\t// in\n    tag_391:\n        /* \"#utility.yul\":21260:21399   */\n      swap1\n      pop\n        /* \"#utility.yul\":20987:21406   */\n      swap2\n      swap1\n      pop\n      jump\t// out\n        /* \"#utility.yul\":21412:21592   */\n    tag_168:\n        /* \"#utility.yul\":21460:21537   */\n      0x4e487b7100000000000000000000000000000000000000000000000000000000\n        /* \"#utility.yul\":21457:21458   */\n      0x00\n        /* \"#utility.yul\":21450:21538   */\n      mstore\n        /* \"#utility.yul\":21557:21561   */\n      0x11\n        /* \"#utility.yul\":21554:21555   */\n      0x04\n        /* \"#utility.yul\":21547:21562   */\n      mstore\n        /* \"#utility.yul\":21581:21585   */\n      0x24\n        /* \"#utility.yul\":21578:21579   */\n      0x00\n        /* \"#utility.yul\":21571:21586   */\n      revert\n        /* \"#utility.yul\":21598:21831   */\n    tag_94:\n        /* \"#utility.yul\":21637:21640   */\n      0x00\n        /* \"#utility.yul\":21660:21684   */\n      tag_394\n        /* \"#utility.yul\":21678:21683   */\n      dup3\n        /* \"#utility.yul\":21660:21684   */\n      tag_106\n      jump\t// in\n    tag_394:\n        /* \"#utility.yul\":21651:21684   */\n      swap2\n      pop\n        /* \"#utility.yul\":21706:21772   */\n      0xffffffffffffffffffffffffffffffffffffffffffffffffffffffffffffffff\n        /* \"#utility.yul\":21699:21704   */\n      dup3\n        /* \"#utility.yul\":21696:21773   */\n      sub\n        /* \"#utility.yul\":21693:21796   */\n      tag_395\n      jumpi\n        /* \"#utility.yul\":21776:21794   */\n      tag_396\n      tag_168\n      jump\t// in\n    tag_396:\n        /* \"#utility.yul\":21693:21796   */\n    tag_395:\n        /* \"#utility.yul\":21823:21824   */\n      0x01\n        /* \"#utility.yul\":21816:21821   */\n      dup3\n        /* \"#utility.yul\":21812:21825   */\n      add\n        /* \"#utility.yul\":21805:21825   */\n      swap1\n      pop\n        /* \"#utility.yul\":21598:21831   */\n      swap2\n      swap1\n      pop\n      jump\t// out\n\n    auxdata: 0xa2646970667358221220aa57abf3a5305b5ecec8f641ed2e952811f692080c04f1029f34f714ac4bef3864736f6c634300081a0033\n}\n",
				"bytecode": {
					"linkReferences": {},
					"object": "608060405234801561000f575f80fd5b506040516116d73803806116d7833981810160405281019061003191906100d4565b805f806101000a81548173ffffffffffffffffffffffffffffffffffffffff021916908373ffffffffffffffffffffffffffffffffffffffff160217905550506100ff565b5f80fd5b5f73ffffffffffffffffffffffffffffffffffffffff82169050919050565b5f6100a38261007a565b9050919050565b6100b381610099565b81146100bd575f80fd5b50565b5f815190506100ce816100aa565b92915050565b5f602082840312156100e9576100e8610076565b5b5f6100f6848285016100c0565b91505092915050565b6115cb8061010c5f395ff3fe608060405234801561000f575f80fd5b5060043610610091575f3560e01c80639fcb2748116100645780639fcb274814610133578063bc43d06f14610163578063c361a3351461017f578063de9476ad1461019d578063f7b10808146101b957610091565b80632d64c60a1461009557806332665ffb146100b15780635000596b146100e55780638f48bd5b14610103575b5f80fd5b6100af60048036038101906100aa9190610bc3565b6101ed565b005b6100cb60048036038101906100c69190610c2f565b61033e565b6040516100dc959493929190610d22565b60405180910390f35b6100ed6104a1565b6040516100fa9190610dd5565b60405180910390f35b61011d60048036038101906101189190610e18565b6104c4565b60405161012a9190610e56565b60405180910390f35b61014d60048036038101906101489190610e6f565b6104ef565b60405161015a9190610f51565b60405180910390f35b61017d60048036038101906101789190610c2f565b610582565b005b6101876106cd565b6040516101949190610e56565b60405180910390f35b6101b760048036038101906101b29190610f71565b6106d3565b005b6101d360048036038101906101ce9190610c2f565b610960565b6040516101e4959493929190610d22565b60405180910390f35b5f60025f8581526020019081526020015f2090503373ffffffffffffffffffffffffffffffffffffffff16816001015f9054906101000a900473ffffffffffffffffffffffffffffffffffffffff1673ffffffffffffffffffffffffffffffffffffffff1614610292576040517f08c379a00000000000000000000000000000000000000000000000000000000081526004016102899061103b565b60405180910390fd5b806004015f9054906101000a900460ff166102e2576040517f08c379a00000000000000000000000000000000000000000000000000000000081526004016102d9906110a3565b60405180910390fd5b828160020190816102f391906112b2565b508181600301819055507fc7d6594ab03628ef3f6852d4225a8d2b1461544207142d9c0fba9747a789ade584848460405161033093929190611381565b60405180910390a150505050565b5f8060605f805f60025f8881526020019081526020015f206040518060a00160405290815f8201548152602001600182015f9054906101000a900473ffffffffffffffffffffffffffffffffffffffff1673ffffffffffffffffffffffffffffffffffffffff1673ffffffffffffffffffffffffffffffffffffffff1681526020016002820180546103cf906110ee565b80601f01602080910402602001604051908101604052809291908181526020018280546103fb906110ee565b80156104465780601f1061041d57610100808354040283529160200191610446565b820191905f5260205f20905b81548152906001019060200180831161042957829003601f168201915b5050505050815260200160038201548152602001600482015f9054906101000a900460ff1615151515815250509050805f01518160200151826040015183606001518460800151955095509550955095505091939590929450565b5f8054906101000a900473ffffffffffffffffffffffffffffffffffffffff1681565b6003602052815f5260405f2081815481106104dd575f80fd5b905f5260205f20015f91509150505481565b606060035f8373ffffffffffffffffffffffffffffffffffffffff1673ffffffffffffffffffffffffffffffffffffffff1681526020019081526020015f2080548060200260200160405190810160405280929190818152602001828054801561057657602002820191905f5260205f20905b815481526020019060010190808311610562575b50505050509050919050565b5f60025f8381526020019081526020015f2090503373ffffffffffffffffffffffffffffffffffffffff16816001015f9054906101000a900473ffffffffffffffffffffffffffffffffffffffff1673ffffffffffffffffffffffffffffffffffffffff1614610627576040517f08c379a000000000000000000000000000000000000000000000000000000000815260040161061e9061142d565b60405180910390fd5b806004015f9054906101000a900460ff16610677576040517f08c379a000000000000000000000000000000000000000000000000000000000815260040161066e906110a3565b60405180910390fd5b5f816004015f6101000a81548160ff0219169083151502179055507f586b7d6bbe3535c99fbb4b183ce687d76307b7b4cb5a6a11e32ce06199d811fc826040516106c19190610e56565b60405180910390a15050565b60015481565b5f8054906101000a900473ffffffffffffffffffffffffffffffffffffffff1673ffffffffffffffffffffffffffffffffffffffff1663163f7522336040518263ffffffff1660e01b815260040161072b919061144b565b602060405180830381865afa158015610746573d5f803e3d5ffd5b505050506040513d601f19601f8201168201806040525081019061076a919061148e565b6107a9576040517f08c379a00000000000000000000000000000000000000000000000000000000081526004016107a090611503565b60405180910390fd5b60015f8154809291906107bb9061154e565b91905055506040518060a0016040528060015481526020013373ffffffffffffffffffffffffffffffffffffffff1681526020018381526020018281526020016001151581525060025f60015481526020019081526020015f205f820151815f01556020820151816001015f6101000a81548173ffffffffffffffffffffffffffffffffffffffff021916908373ffffffffffffffffffffffffffffffffffffffff160217905550604082015181600201908161087891906112b2565b50606082015181600301556080820151816004015f6101000a81548160ff02191690831515021790555090505060035f3373ffffffffffffffffffffffffffffffffffffffff1673ffffffffffffffffffffffffffffffffffffffff1681526020019081526020015f20600154908060018154018082558091505060019003905f5260205f20015f90919091909150553373ffffffffffffffffffffffffffffffffffffffff167f4faf3c72065aaaddb6b745e48ea5a8933818b2a856fb6b21dd04b6ac9812b042600154848460405161095493929190611381565b60405180910390a25050565b6002602052805f5260405f205f91509050805f015490806001015f9054906101000a900473ffffffffffffffffffffffffffffffffffffffff16908060020180546109aa906110ee565b80601f01602080910402602001604051908101604052809291908181526020018280546109d6906110ee565b8015610a215780601f106109f857610100808354040283529160200191610a21565b820191905f5260205f20905b815481529060010190602001808311610a0457829003601f168201915b505050505090806003015490806004015f9054906101000a900460ff16905085565b5f604051905090565b5f80fd5b5f80fd5b5f819050919050565b610a6681610a54565b8114610a70575f80fd5b50565b5f81359050610a8181610a5d565b92915050565b5f80fd5b5f80fd5b5f601f19601f8301169050919050565b7f4e487b71000000000000000000000000000000000000000000000000000000005f52604160045260245ffd5b610ad582610a8f565b810181811067ffffffffffffffff82111715610af457610af3610a9f565b5b80604052505050565b5f610b06610a43565b9050610b128282610acc565b919050565b5f67ffffffffffffffff821115610b3157610b30610a9f565b5b610b3a82610a8f565b9050602081019050919050565b828183375f83830152505050565b5f610b67610b6284610b17565b610afd565b905082815260208101848484011115610b8357610b82610a8b565b5b610b8e848285610b47565b509392505050565b5f82601f830112610baa57610ba9610a87565b5b8135610bba848260208601610b55565b91505092915050565b5f805f60608486031215610bda57610bd9610a4c565b5b5f610be786828701610a73565b935050602084013567ffffffffffffffff811115610c0857610c07610a50565b5b610c1486828701610b96565b9250506040610c2586828701610a73565b9150509250925092565b5f60208284031215610c4457610c43610a4c565b5b5f610c5184828501610a73565b91505092915050565b610c6381610a54565b82525050565b5f73ffffffffffffffffffffffffffffffffffffffff82169050919050565b5f610c9282610c69565b9050919050565b610ca281610c88565b82525050565b5f81519050919050565b5f82825260208201905092915050565b8281835e5f83830152505050565b5f610cda82610ca8565b610ce48185610cb2565b9350610cf4818560208601610cc2565b610cfd81610a8f565b840191505092915050565b5f8115159050919050565b610d1c81610d08565b82525050565b5f60a082019050610d355f830188610c5a565b610d426020830187610c99565b8181036040830152610d548186610cd0565b9050610d636060830185610c5a565b610d706080830184610d13565b9695505050505050565b5f819050919050565b5f610d9d610d98610d9384610c69565b610d7a565b610c69565b9050919050565b5f610dae82610d83565b9050919050565b5f610dbf82610da4565b9050919050565b610dcf81610db5565b82525050565b5f602082019050610de85f830184610dc6565b92915050565b610df781610c88565b8114610e01575f80fd5b50565b5f81359050610e1281610dee565b92915050565b5f8060408385031215610e2e57610e2d610a4c565b5b5f610e3b85828601610e04565b9250506020610e4c85828601610a73565b9150509250929050565b5f602082019050610e695f830184610c5a565b92915050565b5f60208284031215610e8457610e83610a4c565b5b5f610e9184828501610e04565b91505092915050565b5f81519050919050565b5f82825260208201905092915050565b5f819050602082019050919050565b610ecc81610a54565b82525050565b5f610edd8383610ec3565b60208301905092915050565b5f602082019050919050565b5f610eff82610e9a565b610f098185610ea4565b9350610f1483610eb4565b805f5b83811015610f44578151610f2b8882610ed2565b9750610f3683610ee9565b925050600181019050610f17565b5085935050505092915050565b5f6020820190508181035f830152610f698184610ef5565b905092915050565b5f8060408385031215610f8757610f86610a4c565b5b5f83013567ffffffffffffffff811115610fa457610fa3610a50565b5b610fb085828601610b96565b9250506020610fc185828601610a73565b9150509250929050565b7f4f6e6c7920746865206f776e65722063616e20757064617465207468697320705f8201527f726f706572747900000000000000000000000000000000000000000000000000602082015250565b5f611025602783610cb2565b915061103082610fcb565b604082019050919050565b5f6020820190508181035f83015261105281611019565b9050919050565b7f50726f7065727479206973206e6f74206c6973746564000000000000000000005f82015250565b5f61108d601683610cb2565b915061109882611059565b602082019050919050565b5f6020820190508181035f8301526110ba81611081565b9050919050565b7f4e487b71000000000000000000000000000000000000000000000000000000005f52602260045260245ffd5b5f600282049050600182168061110557607f821691505b602082108103611118576111176110c1565b5b50919050565b5f819050815f5260205f209050919050565b5f6020601f8301049050919050565b5f82821b905092915050565b5f6008830261117a7fffffffffffffffffffffffffffffffffffffffffffffffffffffffffffffffff8261113f565b611184868361113f565b95508019841693508086168417925050509392505050565b5f6111b66111b16111ac84610a54565b610d7a565b610a54565b9050919050565b5f819050919050565b6111cf8361119c565b6111e36111db826111bd565b84845461114b565b825550505050565b5f90565b6111f76111eb565b6112028184846111c6565b505050565b5b818110156112255761121a5f826111ef565b600181019050611208565b5050565b601f82111561126a5761123b8161111e565b61124484611130565b81016020851015611253578190505b61126761125f85611130565b830182611207565b50505b505050565b5f82821c905092915050565b5f61128a5f198460080261126f565b1980831691505092915050565b5f6112a2838361127b565b9150826002028217905092915050565b6112bb82610ca8565b67ffffffffffffffff8111156112d4576112d3610a9f565b5b6112de82546110ee565b6112e9828285611229565b5f60209050601f83116001811461131a575f8415611308578287015190505b6113128582611297565b865550611379565b601f1984166113288661111e565b5f5b8281101561134f5784890151825560018201915060208501945060208101905061132a565b8683101561136c5784890151611368601f89168261127b565b8355505b6001600288020188555050505b505050505050565b5f6060820190506113945f830186610c5a565b81810360208301526113a68185610cd0565b90506113b56040830184610c5a565b949350505050565b7f4f6e6c7920746865206f776e65722063616e2072656d6f7665207468697320705f8201527f726f706572747900000000000000000000000000000000000000000000000000602082015250565b5f611417602783610cb2565b9150611422826113bd565b604082019050919050565b5f6020820190508181035f8301526114448161140b565b9050919050565b5f60208201905061145e5f830184610c99565b92915050565b61146d81610d08565b8114611477575f80fd5b50565b5f8151905061148881611464565b92915050565b5f602082840312156114a3576114a2610a4c565b5b5f6114b08482850161147a565b91505092915050565b7f55736572206d75737420626520726567697374657265640000000000000000005f82015250565b5f6114ed601783610cb2565b91506114f8826114b9565b602082019050919050565b5f6020820190508181035f83015261151a816114e1565b9050919050565b7f4e487b71000000000000000000000000000000000000000000000000000000005f52601160045260245ffd5b5f61155882610a54565b91507fffffffffffffffffffffffffffffffffffffffffffffffffffffffffffffffff820361158a57611589611521565b5b60018201905091905056fea2646970667358221220aa57abf3a5305b5ecec8f641ed2e952811f692080c04f1029f34f714ac4bef3864736f6c634300081a0033",
					"opcodes": "PUSH1 0x80 PUSH1 0x40 MSTORE CALLVALUE DUP1 ISZERO PUSH2 0xF JUMPI PUSH0 DUP1 REVERT JUMPDEST POP PUSH1 0x40 MLOAD PUSH2 0x16D7 CODESIZE SUB DUP1 PUSH2 0x16D7 DUP4 CODECOPY DUP2 DUP2 ADD PUSH1 0x40 MSTORE DUP2 ADD SWAP1 PUSH2 0x31 SWAP2 SWAP1 PUSH2 0xD4 JUMP JUMPDEST DUP1 PUSH0 DUP1 PUSH2 0x100 EXP DUP2 SLOAD DUP2 PUSH20 0xFFFFFFFFFFFFFFFFFFFFFFFFFFFFFFFFFFFFFFFF MUL NOT AND SWAP1 DUP4 PUSH20 0xFFFFFFFFFFFFFFFFFFFFFFFFFFFFFFFFFFFFFFFF AND MUL OR SWAP1 SSTORE POP POP PUSH2 0xFF JUMP JUMPDEST PUSH0 DUP1 REVERT JUMPDEST PUSH0 PUSH20 0xFFFFFFFFFFFFFFFFFFFFFFFFFFFFFFFFFFFFFFFF DUP3 AND SWAP1 POP SWAP2 SWAP1 POP JUMP JUMPDEST PUSH0 PUSH2 0xA3 DUP3 PUSH2 0x7A JUMP JUMPDEST SWAP1 POP SWAP2 SWAP1 POP JUMP JUMPDEST PUSH2 0xB3 DUP2 PUSH2 0x99 JUMP JUMPDEST DUP2 EQ PUSH2 0xBD JUMPI PUSH0 DUP1 REVERT JUMPDEST POP JUMP JUMPDEST PUSH0 DUP2 MLOAD SWAP1 POP PUSH2 0xCE DUP2 PUSH2 0xAA JUMP JUMPDEST SWAP3 SWAP2 POP POP JUMP JUMPDEST PUSH0 PUSH1 0x20 DUP3 DUP5 SUB SLT ISZERO PUSH2 0xE9 JUMPI PUSH2 0xE8 PUSH2 0x76 JUMP JUMPDEST JUMPDEST PUSH0 PUSH2 0xF6 DUP5 DUP3 DUP6 ADD PUSH2 0xC0 JUMP JUMPDEST SWAP2 POP POP SWAP3 SWAP2 POP POP JUMP JUMPDEST PUSH2 0x15CB DUP1 PUSH2 0x10C PUSH0 CODECOPY PUSH0 RETURN INVALID PUSH1 0x80 PUSH1 0x40 MSTORE CALLVALUE DUP1 ISZERO PUSH2 0xF JUMPI PUSH0 DUP1 REVERT JUMPDEST POP PUSH1 0x4 CALLDATASIZE LT PUSH2 0x91 JUMPI PUSH0 CALLDATALOAD PUSH1 0xE0 SHR DUP1 PUSH4 0x9FCB2748 GT PUSH2 0x64 JUMPI DUP1 PUSH4 0x9FCB2748 EQ PUSH2 0x133 JUMPI DUP1 PUSH4 0xBC43D06F EQ PUSH2 0x163 JUMPI DUP1 PUSH4 0xC361A335 EQ PUSH2 0x17F JUMPI DUP1 PUSH4 0xDE9476AD EQ PUSH2 0x19D JUMPI DUP1 PUSH4 0xF7B10808 EQ PUSH2 0x1B9 JUMPI PUSH2 0x91 JUMP JUMPDEST DUP1 PUSH4 0x2D64C60A EQ PUSH2 0x95 JUMPI DUP1 PUSH4 0x32665FFB EQ PUSH2 0xB1 JUMPI DUP1 PUSH4 0x5000596B EQ PUSH2 0xE5 JUMPI DUP1 PUSH4 0x8F48BD5B EQ PUSH2 0x103 JUMPI JUMPDEST PUSH0 DUP1 REVERT JUMPDEST PUSH2 0xAF PUSH1 0x4 DUP1 CALLDATASIZE SUB DUP2 ADD SWAP1 PUSH2 0xAA SWAP2 SWAP1 PUSH2 0xBC3 JUMP JUMPDEST PUSH2 0x1ED JUMP JUMPDEST STOP JUMPDEST PUSH2 0xCB PUSH1 0x4 DUP1 CALLDATASIZE SUB DUP2 ADD SWAP1 PUSH2 0xC6 SWAP2 SWAP1 PUSH2 0xC2F JUMP JUMPDEST PUSH2 0x33E JUMP JUMPDEST PUSH1 0x40 MLOAD PUSH2 0xDC SWAP6 SWAP5 SWAP4 SWAP3 SWAP2 SWAP1 PUSH2 0xD22 JUMP JUMPDEST PUSH1 0x40 MLOAD DUP1 SWAP2 SUB SWAP1 RETURN JUMPDEST PUSH2 0xED PUSH2 0x4A1 JUMP JUMPDEST PUSH1 0x40 MLOAD PUSH2 0xFA SWAP2 SWAP1 PUSH2 0xDD5 JUMP JUMPDEST PUSH1 0x40 MLOAD DUP1 SWAP2 SUB SWAP1 RETURN JUMPDEST PUSH2 0x11D PUSH1 0x4 DUP1 CALLDATASIZE SUB DUP2 ADD SWAP1 PUSH2 0x118 SWAP2 SWAP1 PUSH2 0xE18 JUMP JUMPDEST PUSH2 0x4C4 JUMP JUMPDEST PUSH1 0x40 MLOAD PUSH2 0x12A SWAP2 SWAP1 PUSH2 0xE56 JUMP JUMPDEST PUSH1 0x40 MLOAD DUP1 SWAP2 SUB SWAP1 RETURN JUMPDEST PUSH2 0x14D PUSH1 0x4 DUP1 CALLDATASIZE SUB DUP2 ADD SWAP1 PUSH2 0x148 SWAP2 SWAP1 PUSH2 0xE6F JUMP JUMPDEST PUSH2 0x4EF JUMP JUMPDEST PUSH1 0x40 MLOAD PUSH2 0x15A SWAP2 SWAP1 PUSH2 0xF51 JUMP JUMPDEST PUSH1 0x40 MLOAD DUP1 SWAP2 SUB SWAP1 RETURN JUMPDEST PUSH2 0x17D PUSH1 0x4 DUP1 CALLDATASIZE SUB DUP2 ADD SWAP1 PUSH2 0x178 SWAP2 SWAP1 PUSH2 0xC2F JUMP JUMPDEST PUSH2 0x582 JUMP JUMPDEST STOP JUMPDEST PUSH2 0x187 PUSH2 0x6CD JUMP JUMPDEST PUSH1 0x40 MLOAD PUSH2 0x194 SWAP2 SWAP1 PUSH2 0xE56 JUMP JUMPDEST PUSH1 0x40 MLOAD DUP1 SWAP2 SUB SWAP1 RETURN JUMPDEST PUSH2 0x1B7 PUSH1 0x4 DUP1 CALLDATASIZE SUB DUP2 ADD SWAP1 PUSH2 0x1B2 SWAP2 SWAP1 PUSH2 0xF71 JUMP JUMPDEST PUSH2 0x6D3 JUMP JUMPDEST STOP JUMPDEST PUSH2 0x1D3 PUSH1 0x4 DUP1 CALLDATASIZE SUB DUP2 ADD SWAP1 PUSH2 0x1CE SWAP2 SWAP1 PUSH2 0xC2F JUMP JUMPDEST PUSH2 0x960 JUMP JUMPDEST PUSH1 0x40 MLOAD PUSH2 0x1E4 SWAP6 SWAP5 SWAP4 SWAP3 SWAP2 SWAP1 PUSH2 0xD22 JUMP JUMPDEST PUSH1 0x40 MLOAD DUP1 SWAP2 SUB SWAP1 RETURN JUMPDEST PUSH0 PUSH1 0x2 PUSH0 DUP6 DUP2 MSTORE PUSH1 0x20 ADD SWAP1 DUP2 MSTORE PUSH1 0x20 ADD PUSH0 KECCAK256 SWAP1 POP CALLER PUSH20 0xFFFFFFFFFFFFFFFFFFFFFFFFFFFFFFFFFFFFFFFF AND DUP2 PUSH1 0x1 ADD PUSH0 SWAP1 SLOAD SWAP1 PUSH2 0x100 EXP SWAP1 DIV PUSH20 0xFFFFFFFFFFFFFFFFFFFFFFFFFFFFFFFFFFFFFFFF AND PUSH20 0xFFFFFFFFFFFFFFFFFFFFFFFFFFFFFFFFFFFFFFFF AND EQ PUSH2 0x292 JUMPI PUSH1 0x40 MLOAD PUSH32 0x8C379A000000000000000000000000000000000000000000000000000000000 DUP2 MSTORE PUSH1 0x4 ADD PUSH2 0x289 SWAP1 PUSH2 0x103B JUMP JUMPDEST PUSH1 0x40 MLOAD DUP1 SWAP2 SUB SWAP1 REVERT JUMPDEST DUP1 PUSH1 0x4 ADD PUSH0 SWAP1 SLOAD SWAP1 PUSH2 0x100 EXP SWAP1 DIV PUSH1 0xFF AND PUSH2 0x2E2 JUMPI PUSH1 0x40 MLOAD PUSH32 0x8C379A000000000000000000000000000000000000000000000000000000000 DUP2 MSTORE PUSH1 0x4 ADD PUSH2 0x2D9 SWAP1 PUSH2 0x10A3 JUMP JUMPDEST PUSH1 0x40 MLOAD DUP1 SWAP2 SUB SWAP1 REVERT JUMPDEST DUP3 DUP2 PUSH1 0x2 ADD SWAP1 DUP2 PUSH2 0x2F3 SWAP2 SWAP1 PUSH2 0x12B2 JUMP JUMPDEST POP DUP2 DUP2 PUSH1 0x3 ADD DUP2 SWAP1 SSTORE POP PUSH32 0xC7D6594AB03628EF3F6852D4225A8D2B1461544207142D9C0FBA9747A789ADE5 DUP5 DUP5 DUP5 PUSH1 0x40 MLOAD PUSH2 0x330 SWAP4 SWAP3 SWAP2 SWAP1 PUSH2 0x1381 JUMP JUMPDEST PUSH1 0x40 MLOAD DUP1 SWAP2 SUB SWAP1 LOG1 POP POP POP POP JUMP JUMPDEST PUSH0 DUP1 PUSH1 0x60 PUSH0 DUP1 PUSH0 PUSH1 0x2 PUSH0 DUP9 DUP2 MSTORE PUSH1 0x20 ADD SWAP1 DUP2 MSTORE PUSH1 0x20 ADD PUSH0 KECCAK256 PUSH1 0x40 MLOAD DUP1 PUSH1 0xA0 ADD PUSH1 0x40 MSTORE SWAP1 DUP2 PUSH0 DUP3 ADD SLOAD DUP2 MSTORE PUSH1 0x20 ADD PUSH1 0x1 DUP3 ADD PUSH0 SWAP1 SLOAD SWAP1 PUSH2 0x100 EXP SWAP1 DIV PUSH20 0xFFFFFFFFFFFFFFFFFFFFFFFFFFFFFFFFFFFFFFFF AND PUSH20 0xFFFFFFFFFFFFFFFFFFFFFFFFFFFFFFFFFFFFFFFF AND PUSH20 0xFFFFFFFFFFFFFFFFFFFFFFFFFFFFFFFFFFFFFFFF AND DUP2 MSTORE PUSH1 0x20 ADD PUSH1 0x2 DUP3 ADD DUP1 SLOAD PUSH2 0x3CF SWAP1 PUSH2 0x10EE JUMP JUMPDEST DUP1 PUSH1 0x1F ADD PUSH1 0x20 DUP1 SWAP2 DIV MUL PUSH1 0x20 ADD PUSH1 0x40 MLOAD SWAP1 DUP2 ADD PUSH1 0x40 MSTORE DUP1 SWAP3 SWAP2 SWAP1 DUP2 DUP2 MSTORE PUSH1 0x20 ADD DUP3 DUP1 SLOAD PUSH2 0x3FB SWAP1 PUSH2 0x10EE JUMP JUMPDEST DUP1 ISZERO PUSH2 0x446 JUMPI DUP1 PUSH1 0x1F LT PUSH2 0x41D JUMPI PUSH2 0x100 DUP1 DUP4 SLOAD DIV MUL DUP4 MSTORE SWAP2 PUSH1 0x20 ADD SWAP2 PUSH2 0x446 JUMP JUMPDEST DUP3 ADD SWAP2 SWAP1 PUSH0 MSTORE PUSH1 0x20 PUSH0 KECCAK256 SWAP1 JUMPDEST DUP2 SLOAD DUP2 MSTORE SWAP1 PUSH1 0x1 ADD SWAP1 PUSH1 0x20 ADD DUP1 DUP4 GT PUSH2 0x429 JUMPI DUP3 SWAP1 SUB PUSH1 0x1F AND DUP3 ADD SWAP2 JUMPDEST POP POP POP POP POP DUP2 MSTORE PUSH1 0x20 ADD PUSH1 0x3 DUP3 ADD SLOAD DUP2 MSTORE PUSH1 0x20 ADD PUSH1 0x4 DUP3 ADD PUSH0 SWAP1 SLOAD SWAP1 PUSH2 0x100 EXP SWAP1 DIV PUSH1 0xFF AND ISZERO ISZERO ISZERO ISZERO DUP2 MSTORE POP POP SWAP1 POP DUP1 PUSH0 ADD MLOAD DUP2 PUSH1 0x20 ADD MLOAD DUP3 PUSH1 0x40 ADD MLOAD DUP4 PUSH1 0x60 ADD MLOAD DUP5 PUSH1 0x80 ADD MLOAD SWAP6 POP SWAP6 POP SWAP6 POP SWAP6 POP SWAP6 POP POP SWAP2 SWAP4 SWAP6 SWAP1 SWAP3 SWAP5 POP JUMP JUMPDEST PUSH0 DUP1 SLOAD SWAP1 PUSH2 0x100 EXP SWAP1 DIV PUSH20 0xFFFFFFFFFFFFFFFFFFFFFFFFFFFFFFFFFFFFFFFF AND DUP2 JUMP JUMPDEST PUSH1 0x3 PUSH1 0x20 MSTORE DUP2 PUSH0 MSTORE PUSH1 0x40 PUSH0 KECCAK256 DUP2 DUP2 SLOAD DUP2 LT PUSH2 0x4DD JUMPI PUSH0 DUP1 REVERT JUMPDEST SWAP1 PUSH0 MSTORE PUSH1 0x20 PUSH0 KECCAK256 ADD PUSH0 SWAP2 POP SWAP2 POP POP SLOAD DUP2 JUMP JUMPDEST PUSH1 0x60 PUSH1 0x3 PUSH0 DUP4 PUSH20 0xFFFFFFFFFFFFFFFFFFFFFFFFFFFFFFFFFFFFFFFF AND PUSH20 0xFFFFFFFFFFFFFFFFFFFFFFFFFFFFFFFFFFFFFFFF AND DUP2 MSTORE PUSH1 0x20 ADD SWAP1 DUP2 MSTORE PUSH1 0x20 ADD PUSH0 KECCAK256 DUP1 SLOAD DUP1 PUSH1 0x20 MUL PUSH1 0x20 ADD PUSH1 0x40 MLOAD SWAP1 DUP2 ADD PUSH1 0x40 MSTORE DUP1 SWAP3 SWAP2 SWAP1 DUP2 DUP2 MSTORE PUSH1 0x20 ADD DUP3 DUP1 SLOAD DUP1 ISZERO PUSH2 0x576 JUMPI PUSH1 0x20 MUL DUP3 ADD SWAP2 SWAP1 PUSH0 MSTORE PUSH1 0x20 PUSH0 KECCAK256 SWAP1 JUMPDEST DUP2 SLOAD DUP2 MSTORE PUSH1 0x20 ADD SWAP1 PUSH1 0x1 ADD SWAP1 DUP1 DUP4 GT PUSH2 0x562 JUMPI JUMPDEST POP POP POP POP POP SWAP1 POP SWAP2 SWAP1 POP JUMP JUMPDEST PUSH0 PUSH1 0x2 PUSH0 DUP4 DUP2 MSTORE PUSH1 0x20 ADD SWAP1 DUP2 MSTORE PUSH1 0x20 ADD PUSH0 KECCAK256 SWAP1 POP CALLER PUSH20 0xFFFFFFFFFFFFFFFFFFFFFFFFFFFFFFFFFFFFFFFF AND DUP2 PUSH1 0x1 ADD PUSH0 SWAP1 SLOAD SWAP1 PUSH2 0x100 EXP SWAP1 DIV PUSH20 0xFFFFFFFFFFFFFFFFFFFFFFFFFFFFFFFFFFFFFFFF AND PUSH20 0xFFFFFFFFFFFFFFFFFFFFFFFFFFFFFFFFFFFFFFFF AND EQ PUSH2 0x627 JUMPI PUSH1 0x40 MLOAD PUSH32 0x8C379A000000000000000000000000000000000000000000000000000000000 DUP2 MSTORE PUSH1 0x4 ADD PUSH2 0x61E SWAP1 PUSH2 0x142D JUMP JUMPDEST PUSH1 0x40 MLOAD DUP1 SWAP2 SUB SWAP1 REVERT JUMPDEST DUP1 PUSH1 0x4 ADD PUSH0 SWAP1 SLOAD SWAP1 PUSH2 0x100 EXP SWAP1 DIV PUSH1 0xFF AND PUSH2 0x677 JUMPI PUSH1 0x40 MLOAD PUSH32 0x8C379A000000000000000000000000000000000000000000000000000000000 DUP2 MSTORE PUSH1 0x4 ADD PUSH2 0x66E SWAP1 PUSH2 0x10A3 JUMP JUMPDEST PUSH1 0x40 MLOAD DUP1 SWAP2 SUB SWAP1 REVERT JUMPDEST PUSH0 DUP2 PUSH1 0x4 ADD PUSH0 PUSH2 0x100 EXP DUP2 SLOAD DUP2 PUSH1 0xFF MUL NOT AND SWAP1 DUP4 ISZERO ISZERO MUL OR SWAP1 SSTORE POP PUSH32 0x586B7D6BBE3535C99FBB4B183CE687D76307B7B4CB5A6A11E32CE06199D811FC DUP3 PUSH1 0x40 MLOAD PUSH2 0x6C1 SWAP2 SWAP1 PUSH2 0xE56 JUMP JUMPDEST PUSH1 0x40 MLOAD DUP1 SWAP2 SUB SWAP1 LOG1 POP POP JUMP JUMPDEST PUSH1 0x1 SLOAD DUP2 JUMP JUMPDEST PUSH0 DUP1 SLOAD SWAP1 PUSH2 0x100 EXP SWAP1 DIV PUSH20 0xFFFFFFFFFFFFFFFFFFFFFFFFFFFFFFFFFFFFFFFF AND PUSH20 0xFFFFFFFFFFFFFFFFFFFFFFFFFFFFFFFFFFFFFFFF AND PUSH4 0x163F7522 CALLER PUSH1 0x40 MLOAD DUP3 PUSH4 0xFFFFFFFF AND PUSH1 0xE0 SHL DUP2 MSTORE PUSH1 0x4 ADD PUSH2 0x72B SWAP2 SWAP1 PUSH2 0x144B JUMP JUMPDEST PUSH1 0x20 PUSH1 0x40 MLOAD DUP1 DUP4 SUB DUP2 DUP7 GAS STATICCALL ISZERO DUP1 ISZERO PUSH2 0x746 JUMPI RETURNDATASIZE PUSH0 DUP1 RETURNDATACOPY RETURNDATASIZE PUSH0 REVERT JUMPDEST POP POP POP POP PUSH1 0x40 MLOAD RETURNDATASIZE PUSH1 0x1F NOT PUSH1 0x1F DUP3 ADD AND DUP3 ADD DUP1 PUSH1 0x40 MSTORE POP DUP2 ADD SWAP1 PUSH2 0x76A SWAP2 SWAP1 PUSH2 0x148E JUMP JUMPDEST PUSH2 0x7A9 JUMPI PUSH1 0x40 MLOAD PUSH32 0x8C379A000000000000000000000000000000000000000000000000000000000 DUP2 MSTORE PUSH1 0x4 ADD PUSH2 0x7A0 SWAP1 PUSH2 0x1503 JUMP JUMPDEST PUSH1 0x40 MLOAD DUP1 SWAP2 SUB SWAP1 REVERT JUMPDEST PUSH1 0x1 PUSH0 DUP2 SLOAD DUP1 SWAP3 SWAP2 SWAP1 PUSH2 0x7BB SWAP1 PUSH2 0x154E JUMP JUMPDEST SWAP2 SWAP1 POP SSTORE POP PUSH1 0x40 MLOAD DUP1 PUSH1 0xA0 ADD PUSH1 0x40 MSTORE DUP1 PUSH1 0x1 SLOAD DUP2 MSTORE PUSH1 0x20 ADD CALLER PUSH20 0xFFFFFFFFFFFFFFFFFFFFFFFFFFFFFFFFFFFFFFFF AND DUP2 MSTORE PUSH1 0x20 ADD DUP4 DUP2 MSTORE PUSH1 0x20 ADD DUP3 DUP2 MSTORE PUSH1 0x20 ADD PUSH1 0x1 ISZERO ISZERO DUP2 MSTORE POP PUSH1 0x2 PUSH0 PUSH1 0x1 SLOAD DUP2 MSTORE PUSH1 0x20 ADD SWAP1 DUP2 MSTORE PUSH1 0x20 ADD PUSH0 KECCAK256 PUSH0 DUP3 ADD MLOAD DUP2 PUSH0 ADD SSTORE PUSH1 0x20 DUP3 ADD MLOAD DUP2 PUSH1 0x1 ADD PUSH0 PUSH2 0x100 EXP DUP2 SLOAD DUP2 PUSH20 0xFFFFFFFFFFFFFFFFFFFFFFFFFFFFFFFFFFFFFFFF MUL NOT AND SWAP1 DUP4 PUSH20 0xFFFFFFFFFFFFFFFFFFFFFFFFFFFFFFFFFFFFFFFF AND MUL OR SWAP1 SSTORE POP PUSH1 0x40 DUP3 ADD MLOAD DUP2 PUSH1 0x2 ADD SWAP1 DUP2 PUSH2 0x878 SWAP2 SWAP1 PUSH2 0x12B2 JUMP JUMPDEST POP PUSH1 0x60 DUP3 ADD MLOAD DUP2 PUSH1 0x3 ADD SSTORE PUSH1 0x80 DUP3 ADD MLOAD DUP2 PUSH1 0x4 ADD PUSH0 PUSH2 0x100 EXP DUP2 SLOAD DUP2 PUSH1 0xFF MUL NOT AND SWAP1 DUP4 ISZERO ISZERO MUL OR SWAP1 SSTORE POP SWAP1 POP POP PUSH1 0x3 PUSH0 CALLER PUSH20 0xFFFFFFFFFFFFFFFFFFFFFFFFFFFFFFFFFFFFFFFF AND PUSH20 0xFFFFFFFFFFFFFFFFFFFFFFFFFFFFFFFFFFFFFFFF AND DUP2 MSTORE PUSH1 0x20 ADD SWAP1 DUP2 MSTORE PUSH1 0x20 ADD PUSH0 KECCAK256 PUSH1 0x1 SLOAD SWAP1 DUP1 PUSH1 0x1 DUP2 SLOAD ADD DUP1 DUP3 SSTORE DUP1 SWAP2 POP POP PUSH1 0x1 SWAP1 SUB SWAP1 PUSH0 MSTORE PUSH1 0x20 PUSH0 KECCAK256 ADD PUSH0 SWAP1 SWAP2 SWAP1 SWAP2 SWAP1 SWAP2 POP SSTORE CALLER PUSH20 0xFFFFFFFFFFFFFFFFFFFFFFFFFFFFFFFFFFFFFFFF AND PUSH32 0x4FAF3C72065AAADDB6B745E48EA5A8933818B2A856FB6B21DD04B6AC9812B042 PUSH1 0x1 SLOAD DUP5 DUP5 PUSH1 0x40 MLOAD PUSH2 0x954 SWAP4 SWAP3 SWAP2 SWAP1 PUSH2 0x1381 JUMP JUMPDEST PUSH1 0x40 MLOAD DUP1 SWAP2 SUB SWAP1 LOG2 POP POP JUMP JUMPDEST PUSH1 0x2 PUSH1 0x20 MSTORE DUP1 PUSH0 MSTORE PUSH1 0x40 PUSH0 KECCAK256 PUSH0 SWAP2 POP SWAP1 POP DUP1 PUSH0 ADD SLOAD SWAP1 DUP1 PUSH1 0x1 ADD PUSH0 SWAP1 SLOAD SWAP1 PUSH2 0x100 EXP SWAP1 DIV PUSH20 0xFFFFFFFFFFFFFFFFFFFFFFFFFFFFFFFFFFFFFFFF AND SWAP1 DUP1 PUSH1 0x2 ADD DUP1 SLOAD PUSH2 0x9AA SWAP1 PUSH2 0x10EE JUMP JUMPDEST DUP1 PUSH1 0x1F ADD PUSH1 0x20 DUP1 SWAP2 DIV MUL PUSH1 0x20 ADD PUSH1 0x40 MLOAD SWAP1 DUP2 ADD PUSH1 0x40 MSTORE DUP1 SWAP3 SWAP2 SWAP1 DUP2 DUP2 MSTORE PUSH1 0x20 ADD DUP3 DUP1 SLOAD PUSH2 0x9D6 SWAP1 PUSH2 0x10EE JUMP JUMPDEST DUP1 ISZERO PUSH2 0xA21 JUMPI DUP1 PUSH1 0x1F LT PUSH2 0x9F8 JUMPI PUSH2 0x100 DUP1 DUP4 SLOAD DIV MUL DUP4 MSTORE SWAP2 PUSH1 0x20 ADD SWAP2 PUSH2 0xA21 JUMP JUMPDEST DUP3 ADD SWAP2 SWAP1 PUSH0 MSTORE PUSH1 0x20 PUSH0 KECCAK256 SWAP1 JUMPDEST DUP2 SLOAD DUP2 MSTORE SWAP1 PUSH1 0x1 ADD SWAP1 PUSH1 0x20 ADD DUP1 DUP4 GT PUSH2 0xA04 JUMPI DUP3 SWAP1 SUB PUSH1 0x1F AND DUP3 ADD SWAP2 JUMPDEST POP POP POP POP POP SWAP1 DUP1 PUSH1 0x3 ADD SLOAD SWAP1 DUP1 PUSH1 0x4 ADD PUSH0 SWAP1 SLOAD SWAP1 PUSH2 0x100 EXP SWAP1 DIV PUSH1 0xFF AND SWAP1 POP DUP6 JUMP JUMPDEST PUSH0 PUSH1 0x40 MLOAD SWAP1 POP SWAP1 JUMP JUMPDEST PUSH0 DUP1 REVERT JUMPDEST PUSH0 DUP1 REVERT JUMPDEST PUSH0 DUP2 SWAP1 POP SWAP2 SWAP1 POP JUMP JUMPDEST PUSH2 0xA66 DUP2 PUSH2 0xA54 JUMP JUMPDEST DUP2 EQ PUSH2 0xA70 JUMPI PUSH0 DUP1 REVERT JUMPDEST POP JUMP JUMPDEST PUSH0 DUP2 CALLDATALOAD SWAP1 POP PUSH2 0xA81 DUP2 PUSH2 0xA5D JUMP JUMPDEST SWAP3 SWAP2 POP POP JUMP JUMPDEST PUSH0 DUP1 REVERT JUMPDEST PUSH0 DUP1 REVERT JUMPDEST PUSH0 PUSH1 0x1F NOT PUSH1 0x1F DUP4 ADD AND SWAP1 POP SWAP2 SWAP1 POP JUMP JUMPDEST PUSH32 0x4E487B7100000000000000000000000000000000000000000000000000000000 PUSH0 MSTORE PUSH1 0x41 PUSH1 0x4 MSTORE PUSH1 0x24 PUSH0 REVERT JUMPDEST PUSH2 0xAD5 DUP3 PUSH2 0xA8F JUMP JUMPDEST DUP2 ADD DUP2 DUP2 LT PUSH8 0xFFFFFFFFFFFFFFFF DUP3 GT OR ISZERO PUSH2 0xAF4 JUMPI PUSH2 0xAF3 PUSH2 0xA9F JUMP JUMPDEST JUMPDEST DUP1 PUSH1 0x40 MSTORE POP POP POP JUMP JUMPDEST PUSH0 PUSH2 0xB06 PUSH2 0xA43 JUMP JUMPDEST SWAP1 POP PUSH2 0xB12 DUP3 DUP3 PUSH2 0xACC JUMP JUMPDEST SWAP2 SWAP1 POP JUMP JUMPDEST PUSH0 PUSH8 0xFFFFFFFFFFFFFFFF DUP3 GT ISZERO PUSH2 0xB31 JUMPI PUSH2 0xB30 PUSH2 0xA9F JUMP JUMPDEST JUMPDEST PUSH2 0xB3A DUP3 PUSH2 0xA8F JUMP JUMPDEST SWAP1 POP PUSH1 0x20 DUP2 ADD SWAP1 POP SWAP2 SWAP1 POP JUMP JUMPDEST DUP3 DUP2 DUP4 CALLDATACOPY PUSH0 DUP4 DUP4 ADD MSTORE POP POP POP JUMP JUMPDEST PUSH0 PUSH2 0xB67 PUSH2 0xB62 DUP5 PUSH2 0xB17 JUMP JUMPDEST PUSH2 0xAFD JUMP JUMPDEST SWAP1 POP DUP3 DUP2 MSTORE PUSH1 0x20 DUP2 ADD DUP5 DUP5 DUP5 ADD GT ISZERO PUSH2 0xB83 JUMPI PUSH2 0xB82 PUSH2 0xA8B JUMP JUMPDEST JUMPDEST PUSH2 0xB8E DUP5 DUP3 DUP6 PUSH2 0xB47 JUMP JUMPDEST POP SWAP4 SWAP3 POP POP POP JUMP JUMPDEST PUSH0 DUP3 PUSH1 0x1F DUP4 ADD SLT PUSH2 0xBAA JUMPI PUSH2 0xBA9 PUSH2 0xA87 JUMP JUMPDEST JUMPDEST DUP2 CALLDATALOAD PUSH2 0xBBA DUP5 DUP3 PUSH1 0x20 DUP7 ADD PUSH2 0xB55 JUMP JUMPDEST SWAP2 POP POP SWAP3 SWAP2 POP POP JUMP JUMPDEST PUSH0 DUP1 PUSH0 PUSH1 0x60 DUP5 DUP7 SUB SLT ISZERO PUSH2 0xBDA JUMPI PUSH2 0xBD9 PUSH2 0xA4C JUMP JUMPDEST JUMPDEST PUSH0 PUSH2 0xBE7 DUP7 DUP3 DUP8 ADD PUSH2 0xA73 JUMP JUMPDEST SWAP4 POP POP PUSH1 0x20 DUP5 ADD CALLDATALOAD PUSH8 0xFFFFFFFFFFFFFFFF DUP2 GT ISZERO PUSH2 0xC08 JUMPI PUSH2 0xC07 PUSH2 0xA50 JUMP JUMPDEST JUMPDEST PUSH2 0xC14 DUP7 DUP3 DUP8 ADD PUSH2 0xB96 JUMP JUMPDEST SWAP3 POP POP PUSH1 0x40 PUSH2 0xC25 DUP7 DUP3 DUP8 ADD PUSH2 0xA73 JUMP JUMPDEST SWAP2 POP POP SWAP3 POP SWAP3 POP SWAP3 JUMP JUMPDEST PUSH0 PUSH1 0x20 DUP3 DUP5 SUB SLT ISZERO PUSH2 0xC44 JUMPI PUSH2 0xC43 PUSH2 0xA4C JUMP JUMPDEST JUMPDEST PUSH0 PUSH2 0xC51 DUP5 DUP3 DUP6 ADD PUSH2 0xA73 JUMP JUMPDEST SWAP2 POP POP SWAP3 SWAP2 POP POP JUMP JUMPDEST PUSH2 0xC63 DUP2 PUSH2 0xA54 JUMP JUMPDEST DUP3 MSTORE POP POP JUMP JUMPDEST PUSH0 PUSH20 0xFFFFFFFFFFFFFFFFFFFFFFFFFFFFFFFFFFFFFFFF DUP3 AND SWAP1 POP SWAP2 SWAP1 POP JUMP JUMPDEST PUSH0 PUSH2 0xC92 DUP3 PUSH2 0xC69 JUMP JUMPDEST SWAP1 POP SWAP2 SWAP1 POP JUMP JUMPDEST PUSH2 0xCA2 DUP2 PUSH2 0xC88 JUMP JUMPDEST DUP3 MSTORE POP POP JUMP JUMPDEST PUSH0 DUP2 MLOAD SWAP1 POP SWAP2 SWAP1 POP JUMP JUMPDEST PUSH0 DUP3 DUP3 MSTORE PUSH1 0x20 DUP3 ADD SWAP1 POP SWAP3 SWAP2 POP POP JUMP JUMPDEST DUP3 DUP2 DUP4 MCOPY PUSH0 DUP4 DUP4 ADD MSTORE POP POP POP JUMP JUMPDEST PUSH0 PUSH2 0xCDA DUP3 PUSH2 0xCA8 JUMP JUMPDEST PUSH2 0xCE4 DUP2 DUP6 PUSH2 0xCB2 JUMP JUMPDEST SWAP4 POP PUSH2 0xCF4 DUP2 DUP6 PUSH1 0x20 DUP7 ADD PUSH2 0xCC2 JUMP JUMPDEST PUSH2 0xCFD DUP2 PUSH2 0xA8F JUMP JUMPDEST DUP5 ADD SWAP2 POP POP SWAP3 SWAP2 POP POP JUMP JUMPDEST PUSH0 DUP2 ISZERO ISZERO SWAP1 POP SWAP2 SWAP1 POP JUMP JUMPDEST PUSH2 0xD1C DUP2 PUSH2 0xD08 JUMP JUMPDEST DUP3 MSTORE POP POP JUMP JUMPDEST PUSH0 PUSH1 0xA0 DUP3 ADD SWAP1 POP PUSH2 0xD35 PUSH0 DUP4 ADD DUP9 PUSH2 0xC5A JUMP JUMPDEST PUSH2 0xD42 PUSH1 0x20 DUP4 ADD DUP8 PUSH2 0xC99 JUMP JUMPDEST DUP2 DUP2 SUB PUSH1 0x40 DUP4 ADD MSTORE PUSH2 0xD54 DUP2 DUP7 PUSH2 0xCD0 JUMP JUMPDEST SWAP1 POP PUSH2 0xD63 PUSH1 0x60 DUP4 ADD DUP6 PUSH2 0xC5A JUMP JUMPDEST PUSH2 0xD70 PUSH1 0x80 DUP4 ADD DUP5 PUSH2 0xD13 JUMP JUMPDEST SWAP7 SWAP6 POP POP POP POP POP POP JUMP JUMPDEST PUSH0 DUP2 SWAP1 POP SWAP2 SWAP1 POP JUMP JUMPDEST PUSH0 PUSH2 0xD9D PUSH2 0xD98 PUSH2 0xD93 DUP5 PUSH2 0xC69 JUMP JUMPDEST PUSH2 0xD7A JUMP JUMPDEST PUSH2 0xC69 JUMP JUMPDEST SWAP1 POP SWAP2 SWAP1 POP JUMP JUMPDEST PUSH0 PUSH2 0xDAE DUP3 PUSH2 0xD83 JUMP JUMPDEST SWAP1 POP SWAP2 SWAP1 POP JUMP JUMPDEST PUSH0 PUSH2 0xDBF DUP3 PUSH2 0xDA4 JUMP JUMPDEST SWAP1 POP SWAP2 SWAP1 POP JUMP JUMPDEST PUSH2 0xDCF DUP2 PUSH2 0xDB5 JUMP JUMPDEST DUP3 MSTORE POP POP JUMP JUMPDEST PUSH0 PUSH1 0x20 DUP3 ADD SWAP1 POP PUSH2 0xDE8 PUSH0 DUP4 ADD DUP5 PUSH2 0xDC6 JUMP JUMPDEST SWAP3 SWAP2 POP POP JUMP JUMPDEST PUSH2 0xDF7 DUP2 PUSH2 0xC88 JUMP JUMPDEST DUP2 EQ PUSH2 0xE01 JUMPI PUSH0 DUP1 REVERT JUMPDEST POP JUMP JUMPDEST PUSH0 DUP2 CALLDATALOAD SWAP1 POP PUSH2 0xE12 DUP2 PUSH2 0xDEE JUMP JUMPDEST SWAP3 SWAP2 POP POP JUMP JUMPDEST PUSH0 DUP1 PUSH1 0x40 DUP4 DUP6 SUB SLT ISZERO PUSH2 0xE2E JUMPI PUSH2 0xE2D PUSH2 0xA4C JUMP JUMPDEST JUMPDEST PUSH0 PUSH2 0xE3B DUP6 DUP3 DUP7 ADD PUSH2 0xE04 JUMP JUMPDEST SWAP3 POP POP PUSH1 0x20 PUSH2 0xE4C DUP6 DUP3 DUP7 ADD PUSH2 0xA73 JUMP JUMPDEST SWAP2 POP POP SWAP3 POP SWAP3 SWAP1 POP JUMP JUMPDEST PUSH0 PUSH1 0x20 DUP3 ADD SWAP1 POP PUSH2 0xE69 PUSH0 DUP4 ADD DUP5 PUSH2 0xC5A JUMP JUMPDEST SWAP3 SWAP2 POP POP JUMP JUMPDEST PUSH0 PUSH1 0x20 DUP3 DUP5 SUB SLT ISZERO PUSH2 0xE84 JUMPI PUSH2 0xE83 PUSH2 0xA4C JUMP JUMPDEST JUMPDEST PUSH0 PUSH2 0xE91 DUP5 DUP3 DUP6 ADD PUSH2 0xE04 JUMP JUMPDEST SWAP2 POP POP SWAP3 SWAP2 POP POP JUMP JUMPDEST PUSH0 DUP2 MLOAD SWAP1 POP SWAP2 SWAP1 POP JUMP JUMPDEST PUSH0 DUP3 DUP3 MSTORE PUSH1 0x20 DUP3 ADD SWAP1 POP SWAP3 SWAP2 POP POP JUMP JUMPDEST PUSH0 DUP2 SWAP1 POP PUSH1 0x20 DUP3 ADD SWAP1 POP SWAP2 SWAP1 POP JUMP JUMPDEST PUSH2 0xECC DUP2 PUSH2 0xA54 JUMP JUMPDEST DUP3 MSTORE POP POP JUMP JUMPDEST PUSH0 PUSH2 0xEDD DUP4 DUP4 PUSH2 0xEC3 JUMP JUMPDEST PUSH1 0x20 DUP4 ADD SWAP1 POP SWAP3 SWAP2 POP POP JUMP JUMPDEST PUSH0 PUSH1 0x20 DUP3 ADD SWAP1 POP SWAP2 SWAP1 POP JUMP JUMPDEST PUSH0 PUSH2 0xEFF DUP3 PUSH2 0xE9A JUMP JUMPDEST PUSH2 0xF09 DUP2 DUP6 PUSH2 0xEA4 JUMP JUMPDEST SWAP4 POP PUSH2 0xF14 DUP4 PUSH2 0xEB4 JUMP JUMPDEST DUP1 PUSH0 JUMPDEST DUP4 DUP2 LT ISZERO PUSH2 0xF44 JUMPI DUP2 MLOAD PUSH2 0xF2B DUP9 DUP3 PUSH2 0xED2 JUMP JUMPDEST SWAP8 POP PUSH2 0xF36 DUP4 PUSH2 0xEE9 JUMP JUMPDEST SWAP3 POP POP PUSH1 0x1 DUP2 ADD SWAP1 POP PUSH2 0xF17 JUMP JUMPDEST POP DUP6 SWAP4 POP POP POP POP SWAP3 SWAP2 POP POP JUMP JUMPDEST PUSH0 PUSH1 0x20 DUP3 ADD SWAP1 POP DUP2 DUP2 SUB PUSH0 DUP4 ADD MSTORE PUSH2 0xF69 DUP2 DUP5 PUSH2 0xEF5 JUMP JUMPDEST SWAP1 POP SWAP3 SWAP2 POP POP JUMP JUMPDEST PUSH0 DUP1 PUSH1 0x40 DUP4 DUP6 SUB SLT ISZERO PUSH2 0xF87 JUMPI PUSH2 0xF86 PUSH2 0xA4C JUMP JUMPDEST JUMPDEST PUSH0 DUP4 ADD CALLDATALOAD PUSH8 0xFFFFFFFFFFFFFFFF DUP2 GT ISZERO PUSH2 0xFA4 JUMPI PUSH2 0xFA3 PUSH2 0xA50 JUMP JUMPDEST JUMPDEST PUSH2 0xFB0 DUP6 DUP3 DUP7 ADD PUSH2 0xB96 JUMP JUMPDEST SWAP3 POP POP PUSH1 0x20 PUSH2 0xFC1 DUP6 DUP3 DUP7 ADD PUSH2 0xA73 JUMP JUMPDEST SWAP2 POP POP SWAP3 POP SWAP3 SWAP1 POP JUMP JUMPDEST PUSH32 0x4F6E6C7920746865206F776E65722063616E2075706461746520746869732070 PUSH0 DUP3 ADD MSTORE PUSH32 0x726F706572747900000000000000000000000000000000000000000000000000 PUSH1 0x20 DUP3 ADD MSTORE POP JUMP JUMPDEST PUSH0 PUSH2 0x1025 PUSH1 0x27 DUP4 PUSH2 0xCB2 JUMP JUMPDEST SWAP2 POP PUSH2 0x1030 DUP3 PUSH2 0xFCB JUMP JUMPDEST PUSH1 0x40 DUP3 ADD SWAP1 POP SWAP2 SWAP1 POP JUMP JUMPDEST PUSH0 PUSH1 0x20 DUP3 ADD SWAP1 POP DUP2 DUP2 SUB PUSH0 DUP4 ADD MSTORE PUSH2 0x1052 DUP2 PUSH2 0x1019 JUMP JUMPDEST SWAP1 POP SWAP2 SWAP1 POP JUMP JUMPDEST PUSH32 0x50726F7065727479206973206E6F74206C697374656400000000000000000000 PUSH0 DUP3 ADD MSTORE POP JUMP JUMPDEST PUSH0 PUSH2 0x108D PUSH1 0x16 DUP4 PUSH2 0xCB2 JUMP JUMPDEST SWAP2 POP PUSH2 0x1098 DUP3 PUSH2 0x1059 JUMP JUMPDEST PUSH1 0x20 DUP3 ADD SWAP1 POP SWAP2 SWAP1 POP JUMP JUMPDEST PUSH0 PUSH1 0x20 DUP3 ADD SWAP1 POP DUP2 DUP2 SUB PUSH0 DUP4 ADD MSTORE PUSH2 0x10BA DUP2 PUSH2 0x1081 JUMP JUMPDEST SWAP1 POP SWAP2 SWAP1 POP JUMP JUMPDEST PUSH32 0x4E487B7100000000000000000000000000000000000000000000000000000000 PUSH0 MSTORE PUSH1 0x22 PUSH1 0x4 MSTORE PUSH1 0x24 PUSH0 REVERT JUMPDEST PUSH0 PUSH1 0x2 DUP3 DIV SWAP1 POP PUSH1 0x1 DUP3 AND DUP1 PUSH2 0x1105 JUMPI PUSH1 0x7F DUP3 AND SWAP2 POP JUMPDEST PUSH1 0x20 DUP3 LT DUP2 SUB PUSH2 0x1118 JUMPI PUSH2 0x1117 PUSH2 0x10C1 JUMP JUMPDEST JUMPDEST POP SWAP2 SWAP1 POP JUMP JUMPDEST PUSH0 DUP2 SWAP1 POP DUP2 PUSH0 MSTORE PUSH1 0x20 PUSH0 KECCAK256 SWAP1 POP SWAP2 SWAP1 POP JUMP JUMPDEST PUSH0 PUSH1 0x20 PUSH1 0x1F DUP4 ADD DIV SWAP1 POP SWAP2 SWAP1 POP JUMP JUMPDEST PUSH0 DUP3 DUP3 SHL SWAP1 POP SWAP3 SWAP2 POP POP JUMP JUMPDEST PUSH0 PUSH1 0x8 DUP4 MUL PUSH2 0x117A PUSH32 0xFFFFFFFFFFFFFFFFFFFFFFFFFFFFFFFFFFFFFFFFFFFFFFFFFFFFFFFFFFFFFFFF DUP3 PUSH2 0x113F JUMP JUMPDEST PUSH2 0x1184 DUP7 DUP4 PUSH2 0x113F JUMP JUMPDEST SWAP6 POP DUP1 NOT DUP5 AND SWAP4 POP DUP1 DUP7 AND DUP5 OR SWAP3 POP POP POP SWAP4 SWAP3 POP POP POP JUMP JUMPDEST PUSH0 PUSH2 0x11B6 PUSH2 0x11B1 PUSH2 0x11AC DUP5 PUSH2 0xA54 JUMP JUMPDEST PUSH2 0xD7A JUMP JUMPDEST PUSH2 0xA54 JUMP JUMPDEST SWAP1 POP SWAP2 SWAP1 POP JUMP JUMPDEST PUSH0 DUP2 SWAP1 POP SWAP2 SWAP1 POP JUMP JUMPDEST PUSH2 0x11CF DUP4 PUSH2 0x119C JUMP JUMPDEST PUSH2 0x11E3 PUSH2 0x11DB DUP3 PUSH2 0x11BD JUMP JUMPDEST DUP5 DUP5 SLOAD PUSH2 0x114B JUMP JUMPDEST DUP3 SSTORE POP POP POP POP JUMP JUMPDEST PUSH0 SWAP1 JUMP JUMPDEST PUSH2 0x11F7 PUSH2 0x11EB JUMP JUMPDEST PUSH2 0x1202 DUP2 DUP5 DUP5 PUSH2 0x11C6 JUMP JUMPDEST POP POP POP JUMP JUMPDEST JUMPDEST DUP2 DUP2 LT ISZERO PUSH2 0x1225 JUMPI PUSH2 0x121A PUSH0 DUP3 PUSH2 0x11EF JUMP JUMPDEST PUSH1 0x1 DUP2 ADD SWAP1 POP PUSH2 0x1208 JUMP JUMPDEST POP POP JUMP JUMPDEST PUSH1 0x1F DUP3 GT ISZERO PUSH2 0x126A JUMPI PUSH2 0x123B DUP2 PUSH2 0x111E JUMP JUMPDEST PUSH2 0x1244 DUP5 PUSH2 0x1130 JUMP JUMPDEST DUP2 ADD PUSH1 0x20 DUP6 LT ISZERO PUSH2 0x1253 JUMPI DUP2 SWAP1 POP JUMPDEST PUSH2 0x1267 PUSH2 0x125F DUP6 PUSH2 0x1130 JUMP JUMPDEST DUP4 ADD DUP3 PUSH2 0x1207 JUMP JUMPDEST POP POP JUMPDEST POP POP POP JUMP JUMPDEST PUSH0 DUP3 DUP3 SHR SWAP1 POP SWAP3 SWAP2 POP POP JUMP JUMPDEST PUSH0 PUSH2 0x128A PUSH0 NOT DUP5 PUSH1 0x8 MUL PUSH2 0x126F JUMP JUMPDEST NOT DUP1 DUP4 AND SWAP2 POP POP SWAP3 SWAP2 POP POP JUMP JUMPDEST PUSH0 PUSH2 0x12A2 DUP4 DUP4 PUSH2 0x127B JUMP JUMPDEST SWAP2 POP DUP3 PUSH1 0x2 MUL DUP3 OR SWAP1 POP SWAP3 SWAP2 POP POP JUMP JUMPDEST PUSH2 0x12BB DUP3 PUSH2 0xCA8 JUMP JUMPDEST PUSH8 0xFFFFFFFFFFFFFFFF DUP2 GT ISZERO PUSH2 0x12D4 JUMPI PUSH2 0x12D3 PUSH2 0xA9F JUMP JUMPDEST JUMPDEST PUSH2 0x12DE DUP3 SLOAD PUSH2 0x10EE JUMP JUMPDEST PUSH2 0x12E9 DUP3 DUP3 DUP6 PUSH2 0x1229 JUMP JUMPDEST PUSH0 PUSH1 0x20 SWAP1 POP PUSH1 0x1F DUP4 GT PUSH1 0x1 DUP2 EQ PUSH2 0x131A JUMPI PUSH0 DUP5 ISZERO PUSH2 0x1308 JUMPI DUP3 DUP8 ADD MLOAD SWAP1 POP JUMPDEST PUSH2 0x1312 DUP6 DUP3 PUSH2 0x1297 JUMP JUMPDEST DUP7 SSTORE POP PUSH2 0x1379 JUMP JUMPDEST PUSH1 0x1F NOT DUP5 AND PUSH2 0x1328 DUP7 PUSH2 0x111E JUMP JUMPDEST PUSH0 JUMPDEST DUP3 DUP2 LT ISZERO PUSH2 0x134F JUMPI DUP5 DUP10 ADD MLOAD DUP3 SSTORE PUSH1 0x1 DUP3 ADD SWAP2 POP PUSH1 0x20 DUP6 ADD SWAP5 POP PUSH1 0x20 DUP2 ADD SWAP1 POP PUSH2 0x132A JUMP JUMPDEST DUP7 DUP4 LT ISZERO PUSH2 0x136C JUMPI DUP5 DUP10 ADD MLOAD PUSH2 0x1368 PUSH1 0x1F DUP10 AND DUP3 PUSH2 0x127B JUMP JUMPDEST DUP4 SSTORE POP JUMPDEST PUSH1 0x1 PUSH1 0x2 DUP9 MUL ADD DUP9 SSTORE POP POP POP JUMPDEST POP POP POP POP POP POP JUMP JUMPDEST PUSH0 PUSH1 0x60 DUP3 ADD SWAP1 POP PUSH2 0x1394 PUSH0 DUP4 ADD DUP7 PUSH2 0xC5A JUMP JUMPDEST DUP2 DUP2 SUB PUSH1 0x20 DUP4 ADD MSTORE PUSH2 0x13A6 DUP2 DUP6 PUSH2 0xCD0 JUMP JUMPDEST SWAP1 POP PUSH2 0x13B5 PUSH1 0x40 DUP4 ADD DUP5 PUSH2 0xC5A JUMP JUMPDEST SWAP5 SWAP4 POP POP POP POP JUMP JUMPDEST PUSH32 0x4F6E6C7920746865206F776E65722063616E2072656D6F766520746869732070 PUSH0 DUP3 ADD MSTORE PUSH32 0x726F706572747900000000000000000000000000000000000000000000000000 PUSH1 0x20 DUP3 ADD MSTORE POP JUMP JUMPDEST PUSH0 PUSH2 0x1417 PUSH1 0x27 DUP4 PUSH2 0xCB2 JUMP JUMPDEST SWAP2 POP PUSH2 0x1422 DUP3 PUSH2 0x13BD JUMP JUMPDEST PUSH1 0x40 DUP3 ADD SWAP1 POP SWAP2 SWAP1 POP JUMP JUMPDEST PUSH0 PUSH1 0x20 DUP3 ADD SWAP1 POP DUP2 DUP2 SUB PUSH0 DUP4 ADD MSTORE PUSH2 0x1444 DUP2 PUSH2 0x140B JUMP JUMPDEST SWAP1 POP SWAP2 SWAP1 POP JUMP JUMPDEST PUSH0 PUSH1 0x20 DUP3 ADD SWAP1 POP PUSH2 0x145E PUSH0 DUP4 ADD DUP5 PUSH2 0xC99 JUMP JUMPDEST SWAP3 SWAP2 POP POP JUMP JUMPDEST PUSH2 0x146D DUP2 PUSH2 0xD08 JUMP JUMPDEST DUP2 EQ PUSH2 0x1477 JUMPI PUSH0 DUP1 REVERT JUMPDEST POP JUMP JUMPDEST PUSH0 DUP2 MLOAD SWAP1 POP PUSH2 0x1488 DUP2 PUSH2 0x1464 JUMP JUMPDEST SWAP3 SWAP2 POP POP JUMP JUMPDEST PUSH0 PUSH1 0x20 DUP3 DUP5 SUB SLT ISZERO PUSH2 0x14A3 JUMPI PUSH2 0x14A2 PUSH2 0xA4C JUMP JUMPDEST JUMPDEST PUSH0 PUSH2 0x14B0 DUP5 DUP3 DUP6 ADD PUSH2 0x147A JUMP JUMPDEST SWAP2 POP POP SWAP3 SWAP2 POP POP JUMP JUMPDEST PUSH32 0x55736572206D7573742062652072656769737465726564000000000000000000 PUSH0 DUP3 ADD MSTORE POP JUMP JUMPDEST PUSH0 PUSH2 0x14ED PUSH1 0x17 DUP4 PUSH2 0xCB2 JUMP JUMPDEST SWAP2 POP PUSH2 0x14F8 DUP3 PUSH2 0x14B9 JUMP JUMPDEST PUSH1 0x20 DUP3 ADD SWAP1 POP SWAP2 SWAP1 POP JUMP JUMPDEST PUSH0 PUSH1 0x20 DUP3 ADD SWAP1 POP DUP2 DUP2 SUB PUSH0 DUP4 ADD MSTORE PUSH2 0x151A DUP2 PUSH2 0x14E1 JUMP JUMPDEST SWAP1 POP SWAP2 SWAP1 POP JUMP JUMPDEST PUSH32 0x4E487B7100000000000000000000000000000000000000000000000000000000 PUSH0 MSTORE PUSH1 0x11 PUSH1 0x4 MSTORE PUSH1 0x24 PUSH0 REVERT JUMPDEST PUSH0 PUSH2 0x1558 DUP3 PUSH2 0xA54 JUMP JUMPDEST SWAP2 POP PUSH32 0xFFFFFFFFFFFFFFFFFFFFFFFFFFFFFFFFFFFFFFFFFFFFFFFFFFFFFFFFFFFFFFFF DUP3 SUB PUSH2 0x158A JUMPI PUSH2 0x1589 PUSH2 0x1521 JUMP JUMPDEST JUMPDEST PUSH1 0x1 DUP3 ADD SWAP1 POP SWAP2 SWAP1 POP JUMP INVALID LOG2 PUSH5 0x6970667358 0x22 SLT KECCAK256 0xAA JUMPI 0xAB RETURN 0xA5 ADDRESS JUMPDEST MCOPY 0xCE 0xC8 0xF6 COINBASE 0xED 0x2E SWAP6 0x28 GT 0xF6 SWAP3 ADDMOD 0xC DIV CALL MUL SWAP16 CALLVALUE 0xF7 EQ 0xAC 0x4B 0xEF CODESIZE PUSH5 0x736F6C6343 STOP ADDMOD BYTE STOP CALLER "
				},
				"gasEstimates": {
					"creation": {
						"codeDepositCost": "1115800",
						"executionCost": "infinite",
						"totalCost": "infinite"
					},
					"external": {
						"getPropertiesByOwner(address)": "infinite",
						"getProperty(uint256)": "infinite",
						"listProperty(string,uint256)": "infinite",
						"ownerProperties(address,uint256)": "infinite",
						"properties(uint256)": "infinite",
						"propertyCount()": "2469",
						"removeProperty(uint256)": "infinite",
						"updateProperty(uint256,string,uint256)": "infinite",
						"userContract()": "infinite"
					}
				},
				"methodIdentifiers": {
					"getPropertiesByOwner(address)": "9fcb2748",
					"getProperty(uint256)": "32665ffb",
					"listProperty(string,uint256)": "de9476ad",
					"ownerProperties(address,uint256)": "8f48bd5b",
					"properties(uint256)": "f7b10808",
					"propertyCount()": "c361a335",
					"removeProperty(uint256)": "bc43d06f",
					"updateProperty(uint256,string,uint256)": "2d64c60a",
					"userContract()": "5000596b"
				}
			},
			"storageLayout": {
				"storage": [
					{
						"astId": 16,
						"contract": "contracts/Updated_1/PropertyContract.sol:PropertyContract",
						"label": "userContract",
						"offset": 0,
						"slot": "0",
						"type": "t_contract(UserContract)413"
					},
					{
						"astId": 18,
						"contract": "contracts/Updated_1/PropertyContract.sol:PropertyContract",
						"label": "propertyCount",
						"offset": 0,
						"slot": "1",
						"type": "t_uint256"
					},
					{
						"astId": 23,
						"contract": "contracts/Updated_1/PropertyContract.sol:PropertyContract",
						"label": "properties",
						"offset": 0,
						"slot": "2",
						"type": "t_mapping(t_uint256,t_struct(Property)13_storage)"
					},
					{
						"astId": 28,
						"contract": "contracts/Updated_1/PropertyContract.sol:PropertyContract",
						"label": "ownerProperties",
						"offset": 0,
						"slot": "3",
						"type": "t_mapping(t_address,t_array(t_uint256)dyn_storage)"
					}
				],
				"types": {
					"t_address": {
						"encoding": "inplace",
						"label": "address",
						"numberOfBytes": "20"
					},
					"t_array(t_uint256)dyn_storage": {
						"base": "t_uint256",
						"encoding": "dynamic_array",
						"label": "uint256[]",
						"numberOfBytes": "32"
					},
					"t_bool": {
						"encoding": "inplace",
						"label": "bool",
						"numberOfBytes": "1"
					},
					"t_contract(UserContract)413": {
						"encoding": "inplace",
						"label": "contract UserContract",
						"numberOfBytes": "20"
					},
					"t_mapping(t_address,t_array(t_uint256)dyn_storage)": {
						"encoding": "mapping",
						"key": "t_address",
						"label": "mapping(address => uint256[])",
						"numberOfBytes": "32",
						"value": "t_array(t_uint256)dyn_storage"
					},
					"t_mapping(t_uint256,t_struct(Property)13_storage)": {
						"encoding": "mapping",
						"key": "t_uint256",
						"label": "mapping(uint256 => struct PropertyContract.Property)",
						"numberOfBytes": "32",
						"value": "t_struct(Property)13_storage"
					},
					"t_string_storage": {
						"encoding": "bytes",
						"label": "string",
						"numberOfBytes": "32"
					},
					"t_struct(Property)13_storage": {
						"encoding": "inplace",
						"label": "struct PropertyContract.Property",
						"members": [
							{
								"astId": 4,
								"contract": "contracts/Updated_1/PropertyContract.sol:PropertyContract",
								"label": "id",
								"offset": 0,
								"slot": "0",
								"type": "t_uint256"
							},
							{
								"astId": 6,
								"contract": "contracts/Updated_1/PropertyContract.sol:PropertyContract",
								"label": "owner",
								"offset": 0,
								"slot": "1",
								"type": "t_address"
							},
							{
								"astId": 8,
								"contract": "contracts/Updated_1/PropertyContract.sol:PropertyContract",
								"label": "description",
								"offset": 0,
								"slot": "2",
								"type": "t_string_storage"
							},
							{
								"astId": 10,
								"contract": "contracts/Updated_1/PropertyContract.sol:PropertyContract",
								"label": "price",
								"offset": 0,
								"slot": "3",
								"type": "t_uint256"
							},
							{
								"astId": 12,
								"contract": "contracts/Updated_1/PropertyContract.sol:PropertyContract",
								"label": "isListed",
								"offset": 0,
								"slot": "4",
								"type": "t_bool"
							}
						],
						"numberOfBytes": "160"
					},
					"t_uint256": {
						"encoding": "inplace",
						"label": "uint256",
						"numberOfBytes": "32"
					}
				}
			},
			"userdoc": {
				"kind": "user",
				"methods": {},
				"version": 1
			}
		}
	}
}