{
	"contracts/Updated_1/UserContract.sol": {
		"UserContract": {
			"abi": [
				{
					"anonymous": false,
					"inputs": [
						{
							"indexed": true,
							"internalType": "address",
							"name": "user",
							"type": "address"
						},
						{
							"indexed": false,
							"internalType": "string",
							"name": "email",
							"type": "string"
						},
						{
							"indexed": false,
							"internalType": "string",
							"name": "verificationCode",
							"type": "string"
						}
					],
					"name": "UserRegistered",
					"type": "event"
				},
				{
					"inputs": [
						{
							"internalType": "address",
							"name": "userAddress",
							"type": "address"
						}
					],
					"name": "isUserRegistered",
					"outputs": [
						{
							"internalType": "bool",
							"name": "",
							"type": "bool"
						}
					],
					"stateMutability": "view",
					"type": "function"
				},
				{
					"inputs": [
						{
							"internalType": "string",
							"name": "email",
							"type": "string"
						}
					],
					"name": "registerUser",
					"outputs": [],
					"stateMutability": "nonpayable",
					"type": "function"
				},
				{
					"inputs": [],
					"name": "sendVerificationCode",
					"outputs": [
						{
							"internalType": "string",
							"name": "",
							"type": "string"
						}
					],
					"stateMutability": "view",
					"type": "function"
				},
				{
					"inputs": [
						{
							"internalType": "address",
							"name": "",
							"type": "address"
						}
					],
					"name": "users",
					"outputs": [
						{
							"internalType": "address",
							"name": "walletAddress",
							"type": "address"
						},
						{
							"internalType": "string",
							"name": "email",
							"type": "string"
						},
						{
							"internalType": "bool",
							"name": "isRegistered",
							"type": "bool"
						},
						{
							"internalType": "string",
							"name": "verificationCode",
							"type": "string"
						}
					],
					"stateMutability": "view",
					"type": "function"
				},
				{
					"inputs": [
						{
							"internalType": "string",
							"name": "code",
							"type": "string"
						}
					],
					"name": "verifyUser",
					"outputs": [],
					"stateMutability": "nonpayable",
					"type": "function"
				}
			],
			"devdoc": {
				"kind": "dev",
				"methods": {},
				"version": 1
			},
			"evm": {
				"assembly": "    /* \"contracts/Updated_1/UserContract.sol\":60:2412  contract UserContract {... */\n  mstore(0x40, 0x80)\n  callvalue\n  dup1\n  iszero\n  tag_1\n  jumpi\n  0x00\n  dup1\n  revert\ntag_1:\n  pop\n  dataSize(sub_0)\n  dup1\n  dataOffset(sub_0)\n  0x00\n  codecopy\n  0x00\n  return\nstop\n\nsub_0: assembly {\n        /* \"contracts/Updated_1/UserContract.sol\":60:2412  contract UserContract {... */\n      mstore(0x40, 0x80)\n      callvalue\n      dup1\n      iszero\n      tag_1\n      jumpi\n      0x00\n      dup1\n      revert\n    tag_1:\n      pop\n      jumpi(tag_2, lt(calldatasize, 0x04))\n      shr(0xe0, calldataload(0x00))\n      dup1\n      0x163f7522\n      eq\n      tag_3\n      jumpi\n      dup1\n      0x426fb015\n      eq\n      tag_4\n      jumpi\n      dup1\n      0x704f1b94\n      eq\n      tag_5\n      jumpi\n      dup1\n      0xa87430ba\n      eq\n      tag_6\n      jumpi\n      dup1\n      0xe600c817\n      eq\n      tag_7\n      jumpi\n    tag_2:\n      0x00\n      dup1\n      revert\n        /* \"contracts/Updated_1/UserContract.sol\":2278:2409  function isUserRegistered(address userAddress) public view returns (bool) {... */\n    tag_3:\n      tag_8\n      0x04\n      dup1\n      calldatasize\n      sub\n      dup2\n      add\n      swap1\n      tag_9\n      swap2\n      swap1\n      tag_10\n      jump\t// in\n    tag_9:\n      tag_11\n      jump\t// in\n    tag_8:\n      mload(0x40)\n      tag_12\n      swap2\n      swap1\n      tag_13\n      jump\t// in\n    tag_12:\n      mload(0x40)\n      dup1\n      swap2\n      sub\n      swap1\n      return\n        /* \"contracts/Updated_1/UserContract.sol\":1313:1581  function sendVerificationCode() public view returns (string memory) {... */\n    tag_4:\n      tag_14\n      tag_15\n      jump\t// in\n    tag_14:\n      mload(0x40)\n      tag_16\n      swap2\n      swap1\n      tag_17\n      jump\t// in\n    tag_16:\n      mload(0x40)\n      dup1\n      swap2\n      sub\n      swap1\n      return\n        /* \"contracts/Updated_1/UserContract.sol\":495:1195  function registerUser(string memory email) public {... */\n    tag_5:\n      tag_18\n      0x04\n      dup1\n      calldatasize\n      sub\n      dup2\n      add\n      swap1\n      tag_19\n      swap2\n      swap1\n      tag_20\n      jump\t// in\n    tag_19:\n      tag_21\n      jump\t// in\n    tag_18:\n      stop\n        /* \"contracts/Updated_1/UserContract.sol\":270:307  mapping(address => User) public users */\n    tag_6:\n      tag_22\n      0x04\n      dup1\n      calldatasize\n      sub\n      dup2\n      add\n      swap1\n      tag_23\n      swap2\n      swap1\n      tag_10\n      jump\t// in\n    tag_23:\n      tag_24\n      jump\t// in\n    tag_22:\n      mload(0x40)\n      tag_25\n      swap5\n      swap4\n      swap3\n      swap2\n      swap1\n      tag_26\n      jump\t// in\n    tag_25:\n      mload(0x40)\n      dup1\n      swap2\n      sub\n      swap1\n      return\n        /* \"contracts/Updated_1/UserContract.sol\":1663:2217  function verifyUser(string memory code) public {... */\n    tag_7:\n      tag_27\n      0x04\n      dup1\n      calldatasize\n      sub\n      dup2\n      add\n      swap1\n      tag_28\n      swap2\n      swap1\n      tag_20\n      jump\t// in\n    tag_28:\n      tag_29\n      jump\t// in\n    tag_27:\n      stop\n        /* \"contracts/Updated_1/UserContract.sol\":2278:2409  function isUserRegistered(address userAddress) public view returns (bool) {... */\n    tag_11:\n        /* \"contracts/Updated_1/UserContract.sol\":2346:2350  bool */\n      0x00\n        /* \"contracts/Updated_1/UserContract.sol\":2370:2375  users */\n      dup1\n        /* \"contracts/Updated_1/UserContract.sol\":2370:2388  users[userAddress] */\n      0x00\n        /* \"contracts/Updated_1/UserContract.sol\":2376:2387  userAddress */\n      dup4\n        /* \"contracts/Updated_1/UserContract.sol\":2370:2388  users[userAddress] */\n      0xffffffffffffffffffffffffffffffffffffffff\n      and\n      0xffffffffffffffffffffffffffffffffffffffff\n      and\n      dup2\n      mstore\n      0x20\n      add\n      swap1\n      dup2\n      mstore\n      0x20\n      add\n      0x00\n      keccak256\n        /* \"contracts/Updated_1/UserContract.sol\":2370:2401  users[userAddress].isRegistered */\n      0x02\n      add\n      0x00\n      swap1\n      sload\n      swap1\n      0x0100\n      exp\n      swap1\n      div\n      0xff\n      and\n        /* \"contracts/Updated_1/UserContract.sol\":2363:2401  return users[userAddress].isRegistered */\n      swap1\n      pop\n        /* \"contracts/Updated_1/UserContract.sol\":2278:2409  function isUserRegistered(address userAddress) public view returns (bool) {... */\n      swap2\n      swap1\n      pop\n      jump\t// out\n        /* \"contracts/Updated_1/UserContract.sol\":1313:1581  function sendVerificationCode() public view returns (string memory) {... */\n    tag_15:\n        /* \"contracts/Updated_1/UserContract.sol\":1366:1379  string memory */\n      0x60\n        /* \"contracts/Updated_1/UserContract.sol\":1440:1441  0 */\n      0x00\n        /* \"contracts/Updated_1/UserContract.sol\":1406:1411  users */\n      dup1\n        /* \"contracts/Updated_1/UserContract.sol\":1406:1423  users[msg.sender] */\n      0x00\n        /* \"contracts/Updated_1/UserContract.sol\":1412:1422  msg.sender */\n      caller\n        /* \"contracts/Updated_1/UserContract.sol\":1406:1423  users[msg.sender] */\n      0xffffffffffffffffffffffffffffffffffffffff\n      and\n      0xffffffffffffffffffffffffffffffffffffffff\n      and\n      dup2\n      mstore\n      0x20\n      add\n      swap1\n      dup2\n      mstore\n      0x20\n      add\n      0x00\n      keccak256\n        /* \"contracts/Updated_1/UserContract.sol\":1406:1429  users[msg.sender].email */\n      0x01\n      add\n        /* \"contracts/Updated_1/UserContract.sol\":1400:1437  bytes(users[msg.sender].email).length */\n      dup1\n      sload\n      tag_32\n      swap1\n      tag_33\n      jump\t// in\n    tag_32:\n      swap1\n      pop\n        /* \"contracts/Updated_1/UserContract.sol\":1400:1441  bytes(users[msg.sender].email).length > 0 */\n      gt\n        /* \"contracts/Updated_1/UserContract.sol\":1392:1468  require(bytes(users[msg.sender].email).length > 0, \"User is not registered\") */\n      tag_34\n      jumpi\n      mload(0x40)\n      0x08c379a000000000000000000000000000000000000000000000000000000000\n      dup2\n      mstore\n      0x04\n      add\n      tag_35\n      swap1\n      tag_36\n      jump\t// in\n    tag_35:\n      mload(0x40)\n      dup1\n      swap2\n      sub\n      swap1\n      revert\n    tag_34:\n        /* \"contracts/Updated_1/UserContract.sol\":1486:1491  users */\n      0x00\n        /* \"contracts/Updated_1/UserContract.sol\":1486:1503  users[msg.sender] */\n      dup1\n        /* \"contracts/Updated_1/UserContract.sol\":1492:1502  msg.sender */\n      caller\n        /* \"contracts/Updated_1/UserContract.sol\":1486:1503  users[msg.sender] */\n      0xffffffffffffffffffffffffffffffffffffffff\n      and\n      0xffffffffffffffffffffffffffffffffffffffff\n      and\n      dup2\n      mstore\n      0x20\n      add\n      swap1\n      dup2\n      mstore\n      0x20\n      add\n      0x00\n      keccak256\n        /* \"contracts/Updated_1/UserContract.sol\":1486:1520  users[msg.sender].verificationCode */\n      0x03\n      add\n        /* \"contracts/Updated_1/UserContract.sol\":1479:1520  return users[msg.sender].verificationCode */\n      dup1\n      sload\n      tag_37\n      swap1\n      tag_33\n      jump\t// in\n    tag_37:\n      dup1\n      0x1f\n      add\n      0x20\n      dup1\n      swap2\n      div\n      mul\n      0x20\n      add\n      mload(0x40)\n      swap1\n      dup2\n      add\n      0x40\n      mstore\n      dup1\n      swap3\n      swap2\n      swap1\n      dup2\n      dup2\n      mstore\n      0x20\n      add\n      dup3\n      dup1\n      sload\n      tag_38\n      swap1\n      tag_33\n      jump\t// in\n    tag_38:\n      dup1\n      iszero\n      tag_39\n      jumpi\n      dup1\n      0x1f\n      lt\n      tag_40\n      jumpi\n      0x0100\n      dup1\n      dup4\n      sload\n      div\n      mul\n      dup4\n      mstore\n      swap2\n      0x20\n      add\n      swap2\n      jump(tag_39)\n    tag_40:\n      dup3\n      add\n      swap2\n      swap1\n      0x00\n      mstore\n      keccak256(0x00, 0x20)\n      swap1\n    tag_41:\n      dup2\n      sload\n      dup2\n      mstore\n      swap1\n      0x01\n      add\n      swap1\n      0x20\n      add\n      dup1\n      dup4\n      gt\n      tag_41\n      jumpi\n      dup3\n      swap1\n      sub\n      0x1f\n      and\n      dup3\n      add\n      swap2\n    tag_39:\n      pop\n      pop\n      pop\n      pop\n      pop\n      swap1\n      pop\n        /* \"contracts/Updated_1/UserContract.sol\":1313:1581  function sendVerificationCode() public view returns (string memory) {... */\n      swap1\n      jump\t// out\n        /* \"contracts/Updated_1/UserContract.sol\":495:1195  function registerUser(string memory email) public {... */\n    tag_21:\n        /* \"contracts/Updated_1/UserContract.sol\":565:570  users */\n      0x00\n        /* \"contracts/Updated_1/UserContract.sol\":565:582  users[msg.sender] */\n      dup1\n        /* \"contracts/Updated_1/UserContract.sol\":571:581  msg.sender */\n      caller\n        /* \"contracts/Updated_1/UserContract.sol\":565:582  users[msg.sender] */\n      0xffffffffffffffffffffffffffffffffffffffff\n      and\n      0xffffffffffffffffffffffffffffffffffffffff\n      and\n      dup2\n      mstore\n      0x20\n      add\n      swap1\n      dup2\n      mstore\n      0x20\n      add\n      0x00\n      keccak256\n        /* \"contracts/Updated_1/UserContract.sol\":565:595  users[msg.sender].isRegistered */\n      0x02\n      add\n      0x00\n      swap1\n      sload\n      swap1\n      0x0100\n      exp\n      swap1\n      div\n      0xff\n      and\n        /* \"contracts/Updated_1/UserContract.sol\":564:595  !users[msg.sender].isRegistered */\n      iszero\n        /* \"contracts/Updated_1/UserContract.sol\":556:623  require(!users[msg.sender].isRegistered, \"User already registered\") */\n      tag_43\n      jumpi\n      mload(0x40)\n      0x08c379a000000000000000000000000000000000000000000000000000000000\n      dup2\n      mstore\n      0x04\n      add\n      tag_44\n      swap1\n      tag_45\n      jump\t// in\n    tag_44:\n      mload(0x40)\n      dup1\n      swap2\n      sub\n      swap1\n      revert\n    tag_43:\n        /* \"contracts/Updated_1/UserContract.sol\":705:723  string memory code */\n      0x00\n        /* \"contracts/Updated_1/UserContract.sol\":705:732  string memory code = \"1234\" */\n      mload(0x40)\n      dup1\n      0x40\n      add\n      0x40\n      mstore\n      dup1\n      0x04\n      dup2\n      mstore\n      0x20\n      add\n      0x3132333400000000000000000000000000000000000000000000000000000000\n      dup2\n      mstore\n      pop\n      swap1\n      pop\n        /* \"contracts/Updated_1/UserContract.sol\":927:1130  User({... */\n      mload(0x40)\n      dup1\n      0x80\n      add\n      0x40\n      mstore\n      dup1\n        /* \"contracts/Updated_1/UserContract.sol\":962:972  msg.sender */\n      caller\n        /* \"contracts/Updated_1/UserContract.sol\":927:1130  User({... */\n      0xffffffffffffffffffffffffffffffffffffffff\n      and\n      dup2\n      mstore\n      0x20\n      add\n        /* \"contracts/Updated_1/UserContract.sol\":994:999  email */\n      dup4\n        /* \"contracts/Updated_1/UserContract.sol\":927:1130  User({... */\n      dup2\n      mstore\n      0x20\n      add\n        /* \"contracts/Updated_1/UserContract.sol\":1028:1033  false */\n      0x00\n        /* \"contracts/Updated_1/UserContract.sol\":927:1130  User({... */\n      iszero\n      iszero\n      dup2\n      mstore\n      0x20\n      add\n        /* \"contracts/Updated_1/UserContract.sol\":1114:1118  code */\n      dup3\n        /* \"contracts/Updated_1/UserContract.sol\":927:1130  User({... */\n      dup2\n      mstore\n      pop\n        /* \"contracts/Updated_1/UserContract.sol\":907:912  users */\n      0x00\n        /* \"contracts/Updated_1/UserContract.sol\":907:924  users[msg.sender] */\n      dup1\n        /* \"contracts/Updated_1/UserContract.sol\":913:923  msg.sender */\n      caller\n        /* \"contracts/Updated_1/UserContract.sol\":907:924  users[msg.sender] */\n      0xffffffffffffffffffffffffffffffffffffffff\n      and\n      0xffffffffffffffffffffffffffffffffffffffff\n      and\n      dup2\n      mstore\n      0x20\n      add\n      swap1\n      dup2\n      mstore\n      0x20\n      add\n      0x00\n      keccak256\n        /* \"contracts/Updated_1/UserContract.sol\":907:1130  users[msg.sender] = User({... */\n      0x00\n      dup3\n      add\n      mload\n      dup2\n      0x00\n      add\n      exp(0x0100, 0x00)\n      dup2\n      sload\n      dup2\n      0xffffffffffffffffffffffffffffffffffffffff\n      mul\n      not\n      and\n      swap1\n      dup4\n      0xffffffffffffffffffffffffffffffffffffffff\n      and\n      mul\n      or\n      swap1\n      sstore\n      pop\n      0x20\n      dup3\n      add\n      mload\n      dup2\n      0x01\n      add\n      swap1\n      dup2\n      tag_46\n      swap2\n      swap1\n      tag_47\n      jump\t// in\n    tag_46:\n      pop\n      0x40\n      dup3\n      add\n      mload\n      dup2\n      0x02\n      add\n      exp(0x0100, 0x00)\n      dup2\n      sload\n      dup2\n      0xff\n      mul\n      not\n      and\n      swap1\n      dup4\n      iszero\n      iszero\n      mul\n      or\n      swap1\n      sstore\n      pop\n      0x60\n      dup3\n      add\n      mload\n      dup2\n      0x03\n      add\n      swap1\n      dup2\n      tag_48\n      swap2\n      swap1\n      tag_47\n      jump\t// in\n    tag_48:\n      pop\n      swap1\n      pop\n      pop\n        /* \"contracts/Updated_1/UserContract.sol\":1163:1173  msg.sender */\n      caller\n        /* \"contracts/Updated_1/UserContract.sol\":1148:1187  UserRegistered(msg.sender, email, code) */\n      0xffffffffffffffffffffffffffffffffffffffff\n      and\n      0x92822564bab8864c3a47b34e8d23fbce5c46234eb5da261f94087b995ac0f33b\n        /* \"contracts/Updated_1/UserContract.sol\":1175:1180  email */\n      dup4\n        /* \"contracts/Updated_1/UserContract.sol\":1182:1186  code */\n      dup4\n        /* \"contracts/Updated_1/UserContract.sol\":1148:1187  UserRegistered(msg.sender, email, code) */\n      mload(0x40)\n      tag_49\n      swap3\n      swap2\n      swap1\n      tag_50\n      jump\t// in\n    tag_49:\n      mload(0x40)\n      dup1\n      swap2\n      sub\n      swap1\n      log2\n        /* \"contracts/Updated_1/UserContract.sol\":545:1195  {... */\n      pop\n        /* \"contracts/Updated_1/UserContract.sol\":495:1195  function registerUser(string memory email) public {... */\n      pop\n      jump\t// out\n        /* \"contracts/Updated_1/UserContract.sol\":270:307  mapping(address => User) public users */\n    tag_24:\n      mstore(0x20, 0x00)\n      dup1\n      0x00\n      mstore\n      keccak256(0x00, 0x40)\n      0x00\n      swap2\n      pop\n      swap1\n      pop\n      dup1\n      0x00\n      add\n      0x00\n      swap1\n      sload\n      swap1\n      0x0100\n      exp\n      swap1\n      div\n      0xffffffffffffffffffffffffffffffffffffffff\n      and\n      swap1\n      dup1\n      0x01\n      add\n      dup1\n      sload\n      tag_51\n      swap1\n      tag_33\n      jump\t// in\n    tag_51:\n      dup1\n      0x1f\n      add\n      0x20\n      dup1\n      swap2\n      div\n      mul\n      0x20\n      add\n      mload(0x40)\n      swap1\n      dup2\n      add\n      0x40\n      mstore\n      dup1\n      swap3\n      swap2\n      swap1\n      dup2\n      dup2\n      mstore\n      0x20\n      add\n      dup3\n      dup1\n      sload\n      tag_52\n      swap1\n      tag_33\n      jump\t// in\n    tag_52:\n      dup1\n      iszero\n      tag_53\n      jumpi\n      dup1\n      0x1f\n      lt\n      tag_54\n      jumpi\n      0x0100\n      dup1\n      dup4\n      sload\n      div\n      mul\n      dup4\n      mstore\n      swap2\n      0x20\n      add\n      swap2\n      jump(tag_53)\n    tag_54:\n      dup3\n      add\n      swap2\n      swap1\n      0x00\n      mstore\n      keccak256(0x00, 0x20)\n      swap1\n    tag_55:\n      dup2\n      sload\n      dup2\n      mstore\n      swap1\n      0x01\n      add\n      swap1\n      0x20\n      add\n      dup1\n      dup4\n      gt\n      tag_55\n      jumpi\n      dup3\n      swap1\n      sub\n      0x1f\n      and\n      dup3\n      add\n      swap2\n    tag_53:\n      pop\n      pop\n      pop\n      pop\n      pop\n      swap1\n      dup1\n      0x02\n      add\n      0x00\n      swap1\n      sload\n      swap1\n      0x0100\n      exp\n      swap1\n      div\n      0xff\n      and\n      swap1\n      dup1\n      0x03\n      add\n      dup1\n      sload\n      tag_56\n      swap1\n      tag_33\n      jump\t// in\n    tag_56:\n      dup1\n      0x1f\n      add\n      0x20\n      dup1\n      swap2\n      div\n      mul\n      0x20\n      add\n      mload(0x40)\n      swap1\n      dup2\n      add\n      0x40\n      mstore\n      dup1\n      swap3\n      swap2\n      swap1\n      dup2\n      dup2\n      mstore\n      0x20\n      add\n      dup3\n      dup1\n      sload\n      tag_57\n      swap1\n      tag_33\n      jump\t// in\n    tag_57:\n      dup1\n      iszero\n      tag_58\n      jumpi\n      dup1\n      0x1f\n      lt\n      tag_59\n      jumpi\n      0x0100\n      dup1\n      dup4\n      sload\n      div\n      mul\n      dup4\n      mstore\n      swap2\n      0x20\n      add\n      swap2\n      jump(tag_58)\n    tag_59:\n      dup3\n      add\n      swap2\n      swap1\n      0x00\n      mstore\n      keccak256(0x00, 0x20)\n      swap1\n    tag_60:\n      dup2\n      sload\n      dup2\n      mstore\n      swap1\n      0x01\n      add\n      swap1\n      0x20\n      add\n      dup1\n      dup4\n      gt\n      tag_60\n      jumpi\n      dup3\n      swap1\n      sub\n      0x1f\n      and\n      dup3\n      add\n      swap2\n    tag_58:\n      pop\n      pop\n      pop\n      pop\n      pop\n      swap1\n      pop\n      dup5\n      jump\t// out\n        /* \"contracts/Updated_1/UserContract.sol\":1663:2217  function verifyUser(string memory code) public {... */\n    tag_29:\n        /* \"contracts/Updated_1/UserContract.sol\":1780:1781  0 */\n      0x00\n        /* \"contracts/Updated_1/UserContract.sol\":1735:1740  users */\n      dup1\n        /* \"contracts/Updated_1/UserContract.sol\":1735:1752  users[msg.sender] */\n      0x00\n        /* \"contracts/Updated_1/UserContract.sol\":1741:1751  msg.sender */\n      caller\n        /* \"contracts/Updated_1/UserContract.sol\":1735:1752  users[msg.sender] */\n      0xffffffffffffffffffffffffffffffffffffffff\n      and\n      0xffffffffffffffffffffffffffffffffffffffff\n      and\n      dup2\n      mstore\n      0x20\n      add\n      swap1\n      dup2\n      mstore\n      0x20\n      add\n      0x00\n      keccak256\n        /* \"contracts/Updated_1/UserContract.sol\":1735:1769  users[msg.sender].verificationCode */\n      0x03\n      add\n        /* \"contracts/Updated_1/UserContract.sol\":1729:1777  bytes(users[msg.sender].verificationCode).length */\n      dup1\n      sload\n      tag_62\n      swap1\n      tag_33\n      jump\t// in\n    tag_62:\n      swap1\n      pop\n        /* \"contracts/Updated_1/UserContract.sol\":1729:1781  bytes(users[msg.sender].verificationCode).length > 0 */\n      gt\n        /* \"contracts/Updated_1/UserContract.sol\":1721:1808  require(bytes(users[msg.sender].verificationCode).length > 0, \"User is not registered\") */\n      tag_63\n      jumpi\n      mload(0x40)\n      0x08c379a000000000000000000000000000000000000000000000000000000000\n      dup2\n      mstore\n      0x04\n      add\n      tag_64\n      swap1\n      tag_36\n      jump\t// in\n    tag_64:\n      mload(0x40)\n      dup1\n      swap2\n      sub\n      swap1\n      revert\n    tag_63:\n        /* \"contracts/Updated_1/UserContract.sol\":1828:1833  users */\n      0x00\n        /* \"contracts/Updated_1/UserContract.sol\":1828:1845  users[msg.sender] */\n      dup1\n        /* \"contracts/Updated_1/UserContract.sol\":1834:1844  msg.sender */\n      caller\n        /* \"contracts/Updated_1/UserContract.sol\":1828:1845  users[msg.sender] */\n      0xffffffffffffffffffffffffffffffffffffffff\n      and\n      0xffffffffffffffffffffffffffffffffffffffff\n      and\n      dup2\n      mstore\n      0x20\n      add\n      swap1\n      dup2\n      mstore\n      0x20\n      add\n      0x00\n      keccak256\n        /* \"contracts/Updated_1/UserContract.sol\":1828:1858  users[msg.sender].isRegistered */\n      0x02\n      add\n      0x00\n      swap1\n      sload\n      swap1\n      0x0100\n      exp\n      swap1\n      div\n      0xff\n      and\n        /* \"contracts/Updated_1/UserContract.sol\":1827:1858  !users[msg.sender].isRegistered */\n      iszero\n        /* \"contracts/Updated_1/UserContract.sol\":1819:1887  require(!users[msg.sender].isRegistered, \"User is already verified\") */\n      tag_65\n      jumpi\n      mload(0x40)\n      0x08c379a000000000000000000000000000000000000000000000000000000000\n      dup2\n      mstore\n      0x04\n      add\n      tag_66\n      swap1\n      tag_67\n      jump\t// in\n    tag_66:\n      mload(0x40)\n      dup1\n      swap2\n      sub\n      swap1\n      revert\n    tag_65:\n        /* \"contracts/Updated_1/UserContract.sol\":2085:2089  code */\n      dup1\n        /* \"contracts/Updated_1/UserContract.sol\":2068:2090  abi.encodePacked(code) */\n      add(0x20, mload(0x40))\n      tag_68\n      swap2\n      swap1\n      tag_69\n      jump\t// in\n    tag_68:\n      mload(0x40)\n      0x20\n      dup2\n      dup4\n      sub\n      sub\n      dup2\n      mstore\n      swap1\n      0x40\n      mstore\n        /* \"contracts/Updated_1/UserContract.sol\":2058:2091  keccak256(abi.encodePacked(code)) */\n      dup1\n      mload\n      swap1\n      0x20\n      add\n      keccak256\n        /* \"contracts/Updated_1/UserContract.sol\":2018:2023  users */\n      0x00\n        /* \"contracts/Updated_1/UserContract.sol\":2018:2035  users[msg.sender] */\n      dup1\n        /* \"contracts/Updated_1/UserContract.sol\":2024:2034  msg.sender */\n      caller\n        /* \"contracts/Updated_1/UserContract.sol\":2018:2035  users[msg.sender] */\n      0xffffffffffffffffffffffffffffffffffffffff\n      and\n      0xffffffffffffffffffffffffffffffffffffffff\n      and\n      dup2\n      mstore\n      0x20\n      add\n      swap1\n      dup2\n      mstore\n      0x20\n      add\n      0x00\n      keccak256\n        /* \"contracts/Updated_1/UserContract.sol\":2018:2052  users[msg.sender].verificationCode */\n      0x03\n      add\n        /* \"contracts/Updated_1/UserContract.sol\":2001:2053  abi.encodePacked(users[msg.sender].verificationCode) */\n      add(0x20, mload(0x40))\n      tag_70\n      swap2\n      swap1\n      tag_71\n      jump\t// in\n    tag_70:\n      mload(0x40)\n      0x20\n      dup2\n      dup4\n      sub\n      sub\n      dup2\n      mstore\n      swap1\n      0x40\n      mstore\n        /* \"contracts/Updated_1/UserContract.sol\":1991:2054  keccak256(abi.encodePacked(users[msg.sender].verificationCode)) */\n      dup1\n      mload\n      swap1\n      0x20\n      add\n      keccak256\n        /* \"contracts/Updated_1/UserContract.sol\":1991:2091  keccak256(abi.encodePacked(users[msg.sender].verificationCode)) == keccak256(abi.encodePacked(code)) */\n      eq\n        /* \"contracts/Updated_1/UserContract.sol\":1983:2121  require(keccak256(abi.encodePacked(users[msg.sender].verificationCode)) == keccak256(abi.encodePacked(code)), \"Invalid verification code\") */\n      tag_72\n      jumpi\n      mload(0x40)\n      0x08c379a000000000000000000000000000000000000000000000000000000000\n      dup2\n      mstore\n      0x04\n      add\n      tag_73\n      swap1\n      tag_74\n      jump\t// in\n    tag_73:\n      mload(0x40)\n      dup1\n      swap2\n      sub\n      swap1\n      revert\n    tag_72:\n        /* \"contracts/Updated_1/UserContract.sol\":2205:2209  true */\n      0x01\n        /* \"contracts/Updated_1/UserContract.sol\":2172:2177  users */\n      0x00\n        /* \"contracts/Updated_1/UserContract.sol\":2172:2189  users[msg.sender] */\n      dup1\n        /* \"contracts/Updated_1/UserContract.sol\":2178:2188  msg.sender */\n      caller\n        /* \"contracts/Updated_1/UserContract.sol\":2172:2189  users[msg.sender] */\n      0xffffffffffffffffffffffffffffffffffffffff\n      and\n      0xffffffffffffffffffffffffffffffffffffffff\n      and\n      dup2\n      mstore\n      0x20\n      add\n      swap1\n      dup2\n      mstore\n      0x20\n      add\n      0x00\n      keccak256\n        /* \"contracts/Updated_1/UserContract.sol\":2172:2202  users[msg.sender].isRegistered */\n      0x02\n      add\n      0x00\n        /* \"contracts/Updated_1/UserContract.sol\":2172:2209  users[msg.sender].isRegistered = true */\n      0x0100\n      exp\n      dup2\n      sload\n      dup2\n      0xff\n      mul\n      not\n      and\n      swap1\n      dup4\n      iszero\n      iszero\n      mul\n      or\n      swap1\n      sstore\n      pop\n        /* \"contracts/Updated_1/UserContract.sol\":1663:2217  function verifyUser(string memory code) public {... */\n      pop\n      jump\t// out\n        /* \"#utility.yul\":7:82   */\n    tag_75:\n        /* \"#utility.yul\":40:46   */\n      0x00\n        /* \"#utility.yul\":73:75   */\n      0x40\n        /* \"#utility.yul\":67:76   */\n      mload\n        /* \"#utility.yul\":57:76   */\n      swap1\n      pop\n        /* \"#utility.yul\":7:82   */\n      swap1\n      jump\t// out\n        /* \"#utility.yul\":88:205   */\n    tag_76:\n        /* \"#utility.yul\":197:198   */\n      0x00\n        /* \"#utility.yul\":194:195   */\n      dup1\n        /* \"#utility.yul\":187:199   */\n      revert\n        /* \"#utility.yul\":211:328   */\n    tag_77:\n        /* \"#utility.yul\":320:321   */\n      0x00\n        /* \"#utility.yul\":317:318   */\n      dup1\n        /* \"#utility.yul\":310:322   */\n      revert\n        /* \"#utility.yul\":334:460   */\n    tag_78:\n        /* \"#utility.yul\":371:378   */\n      0x00\n        /* \"#utility.yul\":411:453   */\n      0xffffffffffffffffffffffffffffffffffffffff\n        /* \"#utility.yul\":404:409   */\n      dup3\n        /* \"#utility.yul\":400:454   */\n      and\n        /* \"#utility.yul\":389:454   */\n      swap1\n      pop\n        /* \"#utility.yul\":334:460   */\n      swap2\n      swap1\n      pop\n      jump\t// out\n        /* \"#utility.yul\":466:562   */\n    tag_79:\n        /* \"#utility.yul\":503:510   */\n      0x00\n        /* \"#utility.yul\":532:556   */\n      tag_133\n        /* \"#utility.yul\":550:555   */\n      dup3\n        /* \"#utility.yul\":532:556   */\n      tag_78\n      jump\t// in\n    tag_133:\n        /* \"#utility.yul\":521:556   */\n      swap1\n      pop\n        /* \"#utility.yul\":466:562   */\n      swap2\n      swap1\n      pop\n      jump\t// out\n        /* \"#utility.yul\":568:690   */\n    tag_80:\n        /* \"#utility.yul\":641:665   */\n      tag_135\n        /* \"#utility.yul\":659:664   */\n      dup2\n        /* \"#utility.yul\":641:665   */\n      tag_79\n      jump\t// in\n    tag_135:\n        /* \"#utility.yul\":634:639   */\n      dup2\n        /* \"#utility.yul\":631:666   */\n      eq\n        /* \"#utility.yul\":621:684   */\n      tag_136\n      jumpi\n        /* \"#utility.yul\":680:681   */\n      0x00\n        /* \"#utility.yul\":677:678   */\n      dup1\n        /* \"#utility.yul\":670:682   */\n      revert\n        /* \"#utility.yul\":621:684   */\n    tag_136:\n        /* \"#utility.yul\":568:690   */\n      pop\n      jump\t// out\n        /* \"#utility.yul\":696:835   */\n    tag_81:\n        /* \"#utility.yul\":742:747   */\n      0x00\n        /* \"#utility.yul\":780:786   */\n      dup2\n        /* \"#utility.yul\":767:787   */\n      calldataload\n        /* \"#utility.yul\":758:787   */\n      swap1\n      pop\n        /* \"#utility.yul\":796:829   */\n      tag_138\n        /* \"#utility.yul\":823:828   */\n      dup2\n        /* \"#utility.yul\":796:829   */\n      tag_80\n      jump\t// in\n    tag_138:\n        /* \"#utility.yul\":696:835   */\n      swap3\n      swap2\n      pop\n      pop\n      jump\t// out\n        /* \"#utility.yul\":841:1170   */\n    tag_10:\n        /* \"#utility.yul\":900:906   */\n      0x00\n        /* \"#utility.yul\":949:951   */\n      0x20\n        /* \"#utility.yul\":937:946   */\n      dup3\n        /* \"#utility.yul\":928:935   */\n      dup5\n        /* \"#utility.yul\":924:947   */\n      sub\n        /* \"#utility.yul\":920:952   */\n      slt\n        /* \"#utility.yul\":917:1036   */\n      iszero\n      tag_140\n      jumpi\n        /* \"#utility.yul\":955:1034   */\n      tag_141\n      tag_76\n      jump\t// in\n    tag_141:\n        /* \"#utility.yul\":917:1036   */\n    tag_140:\n        /* \"#utility.yul\":1075:1076   */\n      0x00\n        /* \"#utility.yul\":1100:1153   */\n      tag_142\n        /* \"#utility.yul\":1145:1152   */\n      dup5\n        /* \"#utility.yul\":1136:1142   */\n      dup3\n        /* \"#utility.yul\":1125:1134   */\n      dup6\n        /* \"#utility.yul\":1121:1143   */\n      add\n        /* \"#utility.yul\":1100:1153   */\n      tag_81\n      jump\t// in\n    tag_142:\n        /* \"#utility.yul\":1090:1153   */\n      swap2\n      pop\n        /* \"#utility.yul\":1046:1163   */\n      pop\n        /* \"#utility.yul\":841:1170   */\n      swap3\n      swap2\n      pop\n      pop\n      jump\t// out\n        /* \"#utility.yul\":1176:1266   */\n    tag_82:\n        /* \"#utility.yul\":1210:1217   */\n      0x00\n        /* \"#utility.yul\":1253:1258   */\n      dup2\n        /* \"#utility.yul\":1246:1259   */\n      iszero\n        /* \"#utility.yul\":1239:1260   */\n      iszero\n        /* \"#utility.yul\":1228:1260   */\n      swap1\n      pop\n        /* \"#utility.yul\":1176:1266   */\n      swap2\n      swap1\n      pop\n      jump\t// out\n        /* \"#utility.yul\":1272:1381   */\n    tag_83:\n        /* \"#utility.yul\":1353:1374   */\n      tag_145\n        /* \"#utility.yul\":1368:1373   */\n      dup2\n        /* \"#utility.yul\":1353:1374   */\n      tag_82\n      jump\t// in\n    tag_145:\n        /* \"#utility.yul\":1348:1351   */\n      dup3\n        /* \"#utility.yul\":1341:1375   */\n      mstore\n        /* \"#utility.yul\":1272:1381   */\n      pop\n      pop\n      jump\t// out\n        /* \"#utility.yul\":1387:1597   */\n    tag_13:\n        /* \"#utility.yul\":1474:1478   */\n      0x00\n        /* \"#utility.yul\":1512:1514   */\n      0x20\n        /* \"#utility.yul\":1501:1510   */\n      dup3\n        /* \"#utility.yul\":1497:1515   */\n      add\n        /* \"#utility.yul\":1489:1515   */\n      swap1\n      pop\n        /* \"#utility.yul\":1525:1590   */\n      tag_147\n        /* \"#utility.yul\":1587:1588   */\n      0x00\n        /* \"#utility.yul\":1576:1585   */\n      dup4\n        /* \"#utility.yul\":1572:1589   */\n      add\n        /* \"#utility.yul\":1563:1569   */\n      dup5\n        /* \"#utility.yul\":1525:1590   */\n      tag_83\n      jump\t// in\n    tag_147:\n        /* \"#utility.yul\":1387:1597   */\n      swap3\n      swap2\n      pop\n      pop\n      jump\t// out\n        /* \"#utility.yul\":1603:1702   */\n    tag_84:\n        /* \"#utility.yul\":1655:1661   */\n      0x00\n        /* \"#utility.yul\":1689:1694   */\n      dup2\n        /* \"#utility.yul\":1683:1695   */\n      mload\n        /* \"#utility.yul\":1673:1695   */\n      swap1\n      pop\n        /* \"#utility.yul\":1603:1702   */\n      swap2\n      swap1\n      pop\n      jump\t// out\n        /* \"#utility.yul\":1708:1877   */\n    tag_85:\n        /* \"#utility.yul\":1792:1803   */\n      0x00\n        /* \"#utility.yul\":1826:1832   */\n      dup3\n        /* \"#utility.yul\":1821:1824   */\n      dup3\n        /* \"#utility.yul\":1814:1833   */\n      mstore\n        /* \"#utility.yul\":1866:1870   */\n      0x20\n        /* \"#utility.yul\":1861:1864   */\n      dup3\n        /* \"#utility.yul\":1857:1871   */\n      add\n        /* \"#utility.yul\":1842:1871   */\n      swap1\n      pop\n        /* \"#utility.yul\":1708:1877   */\n      swap3\n      swap2\n      pop\n      pop\n      jump\t// out\n        /* \"#utility.yul\":1883:2022   */\n    tag_86:\n        /* \"#utility.yul\":1972:1978   */\n      dup3\n        /* \"#utility.yul\":1967:1970   */\n      dup2\n        /* \"#utility.yul\":1962:1965   */\n      dup4\n        /* \"#utility.yul\":1956:1979   */\n      mcopy\n        /* \"#utility.yul\":2013:2014   */\n      0x00\n        /* \"#utility.yul\":2004:2010   */\n      dup4\n        /* \"#utility.yul\":1999:2002   */\n      dup4\n        /* \"#utility.yul\":1995:2011   */\n      add\n        /* \"#utility.yul\":1988:2015   */\n      mstore\n        /* \"#utility.yul\":1883:2022   */\n      pop\n      pop\n      pop\n      jump\t// out\n        /* \"#utility.yul\":2028:2130   */\n    tag_87:\n        /* \"#utility.yul\":2069:2075   */\n      0x00\n        /* \"#utility.yul\":2120:2122   */\n      0x1f\n        /* \"#utility.yul\":2116:2123   */\n      not\n        /* \"#utility.yul\":2111:2113   */\n      0x1f\n        /* \"#utility.yul\":2104:2109   */\n      dup4\n        /* \"#utility.yul\":2100:2114   */\n      add\n        /* \"#utility.yul\":2096:2124   */\n      and\n        /* \"#utility.yul\":2086:2124   */\n      swap1\n      pop\n        /* \"#utility.yul\":2028:2130   */\n      swap2\n      swap1\n      pop\n      jump\t// out\n        /* \"#utility.yul\":2136:2513   */\n    tag_88:\n        /* \"#utility.yul\":2224:2227   */\n      0x00\n        /* \"#utility.yul\":2252:2291   */\n      tag_153\n        /* \"#utility.yul\":2285:2290   */\n      dup3\n        /* \"#utility.yul\":2252:2291   */\n      tag_84\n      jump\t// in\n    tag_153:\n        /* \"#utility.yul\":2307:2378   */\n      tag_154\n        /* \"#utility.yul\":2371:2377   */\n      dup2\n        /* \"#utility.yul\":2366:2369   */\n      dup6\n        /* \"#utility.yul\":2307:2378   */\n      tag_85\n      jump\t// in\n    tag_154:\n        /* \"#utility.yul\":2300:2378   */\n      swap4\n      pop\n        /* \"#utility.yul\":2387:2452   */\n      tag_155\n        /* \"#utility.yul\":2445:2451   */\n      dup2\n        /* \"#utility.yul\":2440:2443   */\n      dup6\n        /* \"#utility.yul\":2433:2437   */\n      0x20\n        /* \"#utility.yul\":2426:2431   */\n      dup7\n        /* \"#utility.yul\":2422:2438   */\n      add\n        /* \"#utility.yul\":2387:2452   */\n      tag_86\n      jump\t// in\n    tag_155:\n        /* \"#utility.yul\":2477:2506   */\n      tag_156\n        /* \"#utility.yul\":2499:2505   */\n      dup2\n        /* \"#utility.yul\":2477:2506   */\n      tag_87\n      jump\t// in\n    tag_156:\n        /* \"#utility.yul\":2472:2475   */\n      dup5\n        /* \"#utility.yul\":2468:2507   */\n      add\n        /* \"#utility.yul\":2461:2507   */\n      swap2\n      pop\n        /* \"#utility.yul\":2228:2513   */\n      pop\n        /* \"#utility.yul\":2136:2513   */\n      swap3\n      swap2\n      pop\n      pop\n      jump\t// out\n        /* \"#utility.yul\":2519:2832   */\n    tag_17:\n        /* \"#utility.yul\":2632:2636   */\n      0x00\n        /* \"#utility.yul\":2670:2672   */\n      0x20\n        /* \"#utility.yul\":2659:2668   */\n      dup3\n        /* \"#utility.yul\":2655:2673   */\n      add\n        /* \"#utility.yul\":2647:2673   */\n      swap1\n      pop\n        /* \"#utility.yul\":2719:2728   */\n      dup2\n        /* \"#utility.yul\":2713:2717   */\n      dup2\n        /* \"#utility.yul\":2709:2729   */\n      sub\n        /* \"#utility.yul\":2705:2706   */\n      0x00\n        /* \"#utility.yul\":2694:2703   */\n      dup4\n        /* \"#utility.yul\":2690:2707   */\n      add\n        /* \"#utility.yul\":2683:2730   */\n      mstore\n        /* \"#utility.yul\":2747:2825   */\n      tag_158\n        /* \"#utility.yul\":2820:2824   */\n      dup2\n        /* \"#utility.yul\":2811:2817   */\n      dup5\n        /* \"#utility.yul\":2747:2825   */\n      tag_88\n      jump\t// in\n    tag_158:\n        /* \"#utility.yul\":2739:2825   */\n      swap1\n      pop\n        /* \"#utility.yul\":2519:2832   */\n      swap3\n      swap2\n      pop\n      pop\n      jump\t// out\n        /* \"#utility.yul\":2838:2955   */\n    tag_89:\n        /* \"#utility.yul\":2947:2948   */\n      0x00\n        /* \"#utility.yul\":2944:2945   */\n      dup1\n        /* \"#utility.yul\":2937:2949   */\n      revert\n        /* \"#utility.yul\":2961:3078   */\n    tag_90:\n        /* \"#utility.yul\":3070:3071   */\n      0x00\n        /* \"#utility.yul\":3067:3068   */\n      dup1\n        /* \"#utility.yul\":3060:3072   */\n      revert\n        /* \"#utility.yul\":3084:3264   */\n    tag_91:\n        /* \"#utility.yul\":3132:3209   */\n      0x4e487b7100000000000000000000000000000000000000000000000000000000\n        /* \"#utility.yul\":3129:3130   */\n      0x00\n        /* \"#utility.yul\":3122:3210   */\n      mstore\n        /* \"#utility.yul\":3229:3233   */\n      0x41\n        /* \"#utility.yul\":3226:3227   */\n      0x04\n        /* \"#utility.yul\":3219:3234   */\n      mstore\n        /* \"#utility.yul\":3253:3257   */\n      0x24\n        /* \"#utility.yul\":3250:3251   */\n      0x00\n        /* \"#utility.yul\":3243:3258   */\n      revert\n        /* \"#utility.yul\":3270:3551   */\n    tag_92:\n        /* \"#utility.yul\":3353:3380   */\n      tag_163\n        /* \"#utility.yul\":3375:3379   */\n      dup3\n        /* \"#utility.yul\":3353:3380   */\n      tag_87\n      jump\t// in\n    tag_163:\n        /* \"#utility.yul\":3345:3351   */\n      dup2\n        /* \"#utility.yul\":3341:3381   */\n      add\n        /* \"#utility.yul\":3483:3489   */\n      dup2\n        /* \"#utility.yul\":3471:3481   */\n      dup2\n        /* \"#utility.yul\":3468:3490   */\n      lt\n        /* \"#utility.yul\":3447:3465   */\n      0xffffffffffffffff\n        /* \"#utility.yul\":3435:3445   */\n      dup3\n        /* \"#utility.yul\":3432:3466   */\n      gt\n        /* \"#utility.yul\":3429:3491   */\n      or\n        /* \"#utility.yul\":3426:3514   */\n      iszero\n      tag_164\n      jumpi\n        /* \"#utility.yul\":3494:3512   */\n      tag_165\n      tag_91\n      jump\t// in\n    tag_165:\n        /* \"#utility.yul\":3426:3514   */\n    tag_164:\n        /* \"#utility.yul\":3534:3544   */\n      dup1\n        /* \"#utility.yul\":3530:3532   */\n      0x40\n        /* \"#utility.yul\":3523:3545   */\n      mstore\n        /* \"#utility.yul\":3313:3551   */\n      pop\n        /* \"#utility.yul\":3270:3551   */\n      pop\n      pop\n      jump\t// out\n        /* \"#utility.yul\":3557:3686   */\n    tag_93:\n        /* \"#utility.yul\":3591:3597   */\n      0x00\n        /* \"#utility.yul\":3618:3638   */\n      tag_167\n      tag_75\n      jump\t// in\n    tag_167:\n        /* \"#utility.yul\":3608:3638   */\n      swap1\n      pop\n        /* \"#utility.yul\":3647:3680   */\n      tag_168\n        /* \"#utility.yul\":3675:3679   */\n      dup3\n        /* \"#utility.yul\":3667:3673   */\n      dup3\n        /* \"#utility.yul\":3647:3680   */\n      tag_92\n      jump\t// in\n    tag_168:\n        /* \"#utility.yul\":3557:3686   */\n      swap2\n      swap1\n      pop\n      jump\t// out\n        /* \"#utility.yul\":3692:4000   */\n    tag_94:\n        /* \"#utility.yul\":3754:3758   */\n      0x00\n        /* \"#utility.yul\":3844:3862   */\n      0xffffffffffffffff\n        /* \"#utility.yul\":3836:3842   */\n      dup3\n        /* \"#utility.yul\":3833:3863   */\n      gt\n        /* \"#utility.yul\":3830:3886   */\n      iszero\n      tag_170\n      jumpi\n        /* \"#utility.yul\":3866:3884   */\n      tag_171\n      tag_91\n      jump\t// in\n    tag_171:\n        /* \"#utility.yul\":3830:3886   */\n    tag_170:\n        /* \"#utility.yul\":3904:3933   */\n      tag_172\n        /* \"#utility.yul\":3926:3932   */\n      dup3\n        /* \"#utility.yul\":3904:3933   */\n      tag_87\n      jump\t// in\n    tag_172:\n        /* \"#utility.yul\":3896:3933   */\n      swap1\n      pop\n        /* \"#utility.yul\":3988:3992   */\n      0x20\n        /* \"#utility.yul\":3982:3986   */\n      dup2\n        /* \"#utility.yul\":3978:3993   */\n      add\n        /* \"#utility.yul\":3970:3993   */\n      swap1\n      pop\n        /* \"#utility.yul\":3692:4000   */\n      swap2\n      swap1\n      pop\n      jump\t// out\n        /* \"#utility.yul\":4006:4154   */\n    tag_95:\n        /* \"#utility.yul\":4104:4110   */\n      dup3\n        /* \"#utility.yul\":4099:4102   */\n      dup2\n        /* \"#utility.yul\":4094:4097   */\n      dup4\n        /* \"#utility.yul\":4081:4111   */\n      calldatacopy\n        /* \"#utility.yul\":4145:4146   */\n      0x00\n        /* \"#utility.yul\":4136:4142   */\n      dup4\n        /* \"#utility.yul\":4131:4134   */\n      dup4\n        /* \"#utility.yul\":4127:4143   */\n      add\n        /* \"#utility.yul\":4120:4147   */\n      mstore\n        /* \"#utility.yul\":4006:4154   */\n      pop\n      pop\n      pop\n      jump\t// out\n        /* \"#utility.yul\":4160:4585   */\n    tag_96:\n        /* \"#utility.yul\":4238:4243   */\n      0x00\n        /* \"#utility.yul\":4263:4329   */\n      tag_175\n        /* \"#utility.yul\":4279:4328   */\n      tag_176\n        /* \"#utility.yul\":4321:4327   */\n      dup5\n        /* \"#utility.yul\":4279:4328   */\n      tag_94\n      jump\t// in\n    tag_176:\n        /* \"#utility.yul\":4263:4329   */\n      tag_93\n      jump\t// in\n    tag_175:\n        /* \"#utility.yul\":4254:4329   */\n      swap1\n      pop\n        /* \"#utility.yul\":4352:4358   */\n      dup3\n        /* \"#utility.yul\":4345:4350   */\n      dup2\n        /* \"#utility.yul\":4338:4359   */\n      mstore\n        /* \"#utility.yul\":4390:4394   */\n      0x20\n        /* \"#utility.yul\":4383:4388   */\n      dup2\n        /* \"#utility.yul\":4379:4395   */\n      add\n        /* \"#utility.yul\":4428:4431   */\n      dup5\n        /* \"#utility.yul\":4419:4425   */\n      dup5\n        /* \"#utility.yul\":4414:4417   */\n      dup5\n        /* \"#utility.yul\":4410:4426   */\n      add\n        /* \"#utility.yul\":4407:4432   */\n      gt\n        /* \"#utility.yul\":4404:4516   */\n      iszero\n      tag_177\n      jumpi\n        /* \"#utility.yul\":4435:4514   */\n      tag_178\n      tag_90\n      jump\t// in\n    tag_178:\n        /* \"#utility.yul\":4404:4516   */\n    tag_177:\n        /* \"#utility.yul\":4525:4579   */\n      tag_179\n        /* \"#utility.yul\":4572:4578   */\n      dup5\n        /* \"#utility.yul\":4567:4570   */\n      dup3\n        /* \"#utility.yul\":4562:4565   */\n      dup6\n        /* \"#utility.yul\":4525:4579   */\n      tag_95\n      jump\t// in\n    tag_179:\n        /* \"#utility.yul\":4244:4585   */\n      pop\n        /* \"#utility.yul\":4160:4585   */\n      swap4\n      swap3\n      pop\n      pop\n      pop\n      jump\t// out\n        /* \"#utility.yul\":4605:4945   */\n    tag_97:\n        /* \"#utility.yul\":4661:4666   */\n      0x00\n        /* \"#utility.yul\":4710:4713   */\n      dup3\n        /* \"#utility.yul\":4703:4707   */\n      0x1f\n        /* \"#utility.yul\":4695:4701   */\n      dup4\n        /* \"#utility.yul\":4691:4708   */\n      add\n        /* \"#utility.yul\":4687:4714   */\n      slt\n        /* \"#utility.yul\":4677:4799   */\n      tag_181\n      jumpi\n        /* \"#utility.yul\":4718:4797   */\n      tag_182\n      tag_89\n      jump\t// in\n    tag_182:\n        /* \"#utility.yul\":4677:4799   */\n    tag_181:\n        /* \"#utility.yul\":4835:4841   */\n      dup2\n        /* \"#utility.yul\":4822:4842   */\n      calldataload\n        /* \"#utility.yul\":4860:4939   */\n      tag_183\n        /* \"#utility.yul\":4935:4938   */\n      dup5\n        /* \"#utility.yul\":4927:4933   */\n      dup3\n        /* \"#utility.yul\":4920:4924   */\n      0x20\n        /* \"#utility.yul\":4912:4918   */\n      dup7\n        /* \"#utility.yul\":4908:4925   */\n      add\n        /* \"#utility.yul\":4860:4939   */\n      tag_96\n      jump\t// in\n    tag_183:\n        /* \"#utility.yul\":4851:4939   */\n      swap2\n      pop\n        /* \"#utility.yul\":4667:4945   */\n      pop\n        /* \"#utility.yul\":4605:4945   */\n      swap3\n      swap2\n      pop\n      pop\n      jump\t// out\n        /* \"#utility.yul\":4951:5460   */\n    tag_20:\n        /* \"#utility.yul\":5020:5026   */\n      0x00\n        /* \"#utility.yul\":5069:5071   */\n      0x20\n        /* \"#utility.yul\":5057:5066   */\n      dup3\n        /* \"#utility.yul\":5048:5055   */\n      dup5\n        /* \"#utility.yul\":5044:5067   */\n      sub\n        /* \"#utility.yul\":5040:5072   */\n      slt\n        /* \"#utility.yul\":5037:5156   */\n      iszero\n      tag_185\n      jumpi\n        /* \"#utility.yul\":5075:5154   */\n      tag_186\n      tag_76\n      jump\t// in\n    tag_186:\n        /* \"#utility.yul\":5037:5156   */\n    tag_185:\n        /* \"#utility.yul\":5223:5224   */\n      0x00\n        /* \"#utility.yul\":5212:5221   */\n      dup3\n        /* \"#utility.yul\":5208:5225   */\n      add\n        /* \"#utility.yul\":5195:5226   */\n      calldataload\n        /* \"#utility.yul\":5253:5271   */\n      0xffffffffffffffff\n        /* \"#utility.yul\":5245:5251   */\n      dup2\n        /* \"#utility.yul\":5242:5272   */\n      gt\n        /* \"#utility.yul\":5239:5356   */\n      iszero\n      tag_187\n      jumpi\n        /* \"#utility.yul\":5275:5354   */\n      tag_188\n      tag_77\n      jump\t// in\n    tag_188:\n        /* \"#utility.yul\":5239:5356   */\n    tag_187:\n        /* \"#utility.yul\":5380:5443   */\n      tag_189\n        /* \"#utility.yul\":5435:5442   */\n      dup5\n        /* \"#utility.yul\":5426:5432   */\n      dup3\n        /* \"#utility.yul\":5415:5424   */\n      dup6\n        /* \"#utility.yul\":5411:5433   */\n      add\n        /* \"#utility.yul\":5380:5443   */\n      tag_97\n      jump\t// in\n    tag_189:\n        /* \"#utility.yul\":5370:5443   */\n      swap2\n      pop\n        /* \"#utility.yul\":5166:5453   */\n      pop\n        /* \"#utility.yul\":4951:5460   */\n      swap3\n      swap2\n      pop\n      pop\n      jump\t// out\n        /* \"#utility.yul\":5466:5584   */\n    tag_98:\n        /* \"#utility.yul\":5553:5577   */\n      tag_191\n        /* \"#utility.yul\":5571:5576   */\n      dup2\n        /* \"#utility.yul\":5553:5577   */\n      tag_79\n      jump\t// in\n    tag_191:\n        /* \"#utility.yul\":5548:5551   */\n      dup3\n        /* \"#utility.yul\":5541:5578   */\n      mstore\n        /* \"#utility.yul\":5466:5584   */\n      pop\n      pop\n      jump\t// out\n        /* \"#utility.yul\":5590:6313   */\n    tag_26:\n        /* \"#utility.yul\":5801:5805   */\n      0x00\n        /* \"#utility.yul\":5839:5842   */\n      0x80\n        /* \"#utility.yul\":5828:5837   */\n      dup3\n        /* \"#utility.yul\":5824:5843   */\n      add\n        /* \"#utility.yul\":5816:5843   */\n      swap1\n      pop\n        /* \"#utility.yul\":5853:5924   */\n      tag_193\n        /* \"#utility.yul\":5921:5922   */\n      0x00\n        /* \"#utility.yul\":5910:5919   */\n      dup4\n        /* \"#utility.yul\":5906:5923   */\n      add\n        /* \"#utility.yul\":5897:5903   */\n      dup8\n        /* \"#utility.yul\":5853:5924   */\n      tag_98\n      jump\t// in\n    tag_193:\n        /* \"#utility.yul\":5971:5980   */\n      dup2\n        /* \"#utility.yul\":5965:5969   */\n      dup2\n        /* \"#utility.yul\":5961:5981   */\n      sub\n        /* \"#utility.yul\":5956:5958   */\n      0x20\n        /* \"#utility.yul\":5945:5954   */\n      dup4\n        /* \"#utility.yul\":5941:5959   */\n      add\n        /* \"#utility.yul\":5934:5982   */\n      mstore\n        /* \"#utility.yul\":5999:6077   */\n      tag_194\n        /* \"#utility.yul\":6072:6076   */\n      dup2\n        /* \"#utility.yul\":6063:6069   */\n      dup7\n        /* \"#utility.yul\":5999:6077   */\n      tag_88\n      jump\t// in\n    tag_194:\n        /* \"#utility.yul\":5991:6077   */\n      swap1\n      pop\n        /* \"#utility.yul\":6087:6153   */\n      tag_195\n        /* \"#utility.yul\":6149:6151   */\n      0x40\n        /* \"#utility.yul\":6138:6147   */\n      dup4\n        /* \"#utility.yul\":6134:6152   */\n      add\n        /* \"#utility.yul\":6125:6131   */\n      dup6\n        /* \"#utility.yul\":6087:6153   */\n      tag_83\n      jump\t// in\n    tag_195:\n        /* \"#utility.yul\":6200:6209   */\n      dup2\n        /* \"#utility.yul\":6194:6198   */\n      dup2\n        /* \"#utility.yul\":6190:6210   */\n      sub\n        /* \"#utility.yul\":6185:6187   */\n      0x60\n        /* \"#utility.yul\":6174:6183   */\n      dup4\n        /* \"#utility.yul\":6170:6188   */\n      add\n        /* \"#utility.yul\":6163:6211   */\n      mstore\n        /* \"#utility.yul\":6228:6306   */\n      tag_196\n        /* \"#utility.yul\":6301:6305   */\n      dup2\n        /* \"#utility.yul\":6292:6298   */\n      dup5\n        /* \"#utility.yul\":6228:6306   */\n      tag_88\n      jump\t// in\n    tag_196:\n        /* \"#utility.yul\":6220:6306   */\n      swap1\n      pop\n        /* \"#utility.yul\":5590:6313   */\n      swap6\n      swap5\n      pop\n      pop\n      pop\n      pop\n      pop\n      jump\t// out\n        /* \"#utility.yul\":6319:6499   */\n    tag_99:\n        /* \"#utility.yul\":6367:6444   */\n      0x4e487b7100000000000000000000000000000000000000000000000000000000\n        /* \"#utility.yul\":6364:6365   */\n      0x00\n        /* \"#utility.yul\":6357:6445   */\n      mstore\n        /* \"#utility.yul\":6464:6468   */\n      0x22\n        /* \"#utility.yul\":6461:6462   */\n      0x04\n        /* \"#utility.yul\":6454:6469   */\n      mstore\n        /* \"#utility.yul\":6488:6492   */\n      0x24\n        /* \"#utility.yul\":6485:6486   */\n      0x00\n        /* \"#utility.yul\":6478:6493   */\n      revert\n        /* \"#utility.yul\":6505:6825   */\n    tag_33:\n        /* \"#utility.yul\":6549:6555   */\n      0x00\n        /* \"#utility.yul\":6586:6587   */\n      0x02\n        /* \"#utility.yul\":6580:6584   */\n      dup3\n        /* \"#utility.yul\":6576:6588   */\n      div\n        /* \"#utility.yul\":6566:6588   */\n      swap1\n      pop\n        /* \"#utility.yul\":6633:6634   */\n      0x01\n        /* \"#utility.yul\":6627:6631   */\n      dup3\n        /* \"#utility.yul\":6623:6635   */\n      and\n        /* \"#utility.yul\":6654:6672   */\n      dup1\n        /* \"#utility.yul\":6644:6725   */\n      tag_199\n      jumpi\n        /* \"#utility.yul\":6710:6714   */\n      0x7f\n        /* \"#utility.yul\":6702:6708   */\n      dup3\n        /* \"#utility.yul\":6698:6715   */\n      and\n        /* \"#utility.yul\":6688:6715   */\n      swap2\n      pop\n        /* \"#utility.yul\":6644:6725   */\n    tag_199:\n        /* \"#utility.yul\":6772:6774   */\n      0x20\n        /* \"#utility.yul\":6764:6770   */\n      dup3\n        /* \"#utility.yul\":6761:6775   */\n      lt\n        /* \"#utility.yul\":6741:6759   */\n      dup2\n        /* \"#utility.yul\":6738:6776   */\n      sub\n        /* \"#utility.yul\":6735:6819   */\n      tag_200\n      jumpi\n        /* \"#utility.yul\":6791:6809   */\n      tag_201\n      tag_99\n      jump\t// in\n    tag_201:\n        /* \"#utility.yul\":6735:6819   */\n    tag_200:\n        /* \"#utility.yul\":6556:6825   */\n      pop\n        /* \"#utility.yul\":6505:6825   */\n      swap2\n      swap1\n      pop\n      jump\t// out\n        /* \"#utility.yul\":6831:7003   */\n    tag_100:\n        /* \"#utility.yul\":6971:6995   */\n      0x55736572206973206e6f74207265676973746572656400000000000000000000\n        /* \"#utility.yul\":6967:6968   */\n      0x00\n        /* \"#utility.yul\":6959:6965   */\n      dup3\n        /* \"#utility.yul\":6955:6969   */\n      add\n        /* \"#utility.yul\":6948:6996   */\n      mstore\n        /* \"#utility.yul\":6831:7003   */\n      pop\n      jump\t// out\n        /* \"#utility.yul\":7009:7375   */\n    tag_101:\n        /* \"#utility.yul\":7151:7154   */\n      0x00\n        /* \"#utility.yul\":7172:7239   */\n      tag_204\n        /* \"#utility.yul\":7236:7238   */\n      0x16\n        /* \"#utility.yul\":7231:7234   */\n      dup4\n        /* \"#utility.yul\":7172:7239   */\n      tag_85\n      jump\t// in\n    tag_204:\n        /* \"#utility.yul\":7165:7239   */\n      swap2\n      pop\n        /* \"#utility.yul\":7248:7341   */\n      tag_205\n        /* \"#utility.yul\":7337:7340   */\n      dup3\n        /* \"#utility.yul\":7248:7341   */\n      tag_100\n      jump\t// in\n    tag_205:\n        /* \"#utility.yul\":7366:7368   */\n      0x20\n        /* \"#utility.yul\":7361:7364   */\n      dup3\n        /* \"#utility.yul\":7357:7369   */\n      add\n        /* \"#utility.yul\":7350:7369   */\n      swap1\n      pop\n        /* \"#utility.yul\":7009:7375   */\n      swap2\n      swap1\n      pop\n      jump\t// out\n        /* \"#utility.yul\":7381:7800   */\n    tag_36:\n        /* \"#utility.yul\":7547:7551   */\n      0x00\n        /* \"#utility.yul\":7585:7587   */\n      0x20\n        /* \"#utility.yul\":7574:7583   */\n      dup3\n        /* \"#utility.yul\":7570:7588   */\n      add\n        /* \"#utility.yul\":7562:7588   */\n      swap1\n      pop\n        /* \"#utility.yul\":7634:7643   */\n      dup2\n        /* \"#utility.yul\":7628:7632   */\n      dup2\n        /* \"#utility.yul\":7624:7644   */\n      sub\n        /* \"#utility.yul\":7620:7621   */\n      0x00\n        /* \"#utility.yul\":7609:7618   */\n      dup4\n        /* \"#utility.yul\":7605:7622   */\n      add\n        /* \"#utility.yul\":7598:7645   */\n      mstore\n        /* \"#utility.yul\":7662:7793   */\n      tag_207\n        /* \"#utility.yul\":7788:7792   */\n      dup2\n        /* \"#utility.yul\":7662:7793   */\n      tag_101\n      jump\t// in\n    tag_207:\n        /* \"#utility.yul\":7654:7793   */\n      swap1\n      pop\n        /* \"#utility.yul\":7381:7800   */\n      swap2\n      swap1\n      pop\n      jump\t// out\n        /* \"#utility.yul\":7806:7979   */\n    tag_102:\n        /* \"#utility.yul\":7946:7971   */\n      0x5573657220616c72656164792072656769737465726564000000000000000000\n        /* \"#utility.yul\":7942:7943   */\n      0x00\n        /* \"#utility.yul\":7934:7940   */\n      dup3\n        /* \"#utility.yul\":7930:7944   */\n      add\n        /* \"#utility.yul\":7923:7972   */\n      mstore\n        /* \"#utility.yul\":7806:7979   */\n      pop\n      jump\t// out\n        /* \"#utility.yul\":7985:8351   */\n    tag_103:\n        /* \"#utility.yul\":8127:8130   */\n      0x00\n        /* \"#utility.yul\":8148:8215   */\n      tag_210\n        /* \"#utility.yul\":8212:8214   */\n      0x17\n        /* \"#utility.yul\":8207:8210   */\n      dup4\n        /* \"#utility.yul\":8148:8215   */\n      tag_85\n      jump\t// in\n    tag_210:\n        /* \"#utility.yul\":8141:8215   */\n      swap2\n      pop\n        /* \"#utility.yul\":8224:8317   */\n      tag_211\n        /* \"#utility.yul\":8313:8316   */\n      dup3\n        /* \"#utility.yul\":8224:8317   */\n      tag_102\n      jump\t// in\n    tag_211:\n        /* \"#utility.yul\":8342:8344   */\n      0x20\n        /* \"#utility.yul\":8337:8340   */\n      dup3\n        /* \"#utility.yul\":8333:8345   */\n      add\n        /* \"#utility.yul\":8326:8345   */\n      swap1\n      pop\n        /* \"#utility.yul\":7985:8351   */\n      swap2\n      swap1\n      pop\n      jump\t// out\n        /* \"#utility.yul\":8357:8776   */\n    tag_45:\n        /* \"#utility.yul\":8523:8527   */\n      0x00\n        /* \"#utility.yul\":8561:8563   */\n      0x20\n        /* \"#utility.yul\":8550:8559   */\n      dup3\n        /* \"#utility.yul\":8546:8564   */\n      add\n        /* \"#utility.yul\":8538:8564   */\n      swap1\n      pop\n        /* \"#utility.yul\":8610:8619   */\n      dup2\n        /* \"#utility.yul\":8604:8608   */\n      dup2\n        /* \"#utility.yul\":8600:8620   */\n      sub\n        /* \"#utility.yul\":8596:8597   */\n      0x00\n        /* \"#utility.yul\":8585:8594   */\n      dup4\n        /* \"#utility.yul\":8581:8598   */\n      add\n        /* \"#utility.yul\":8574:8621   */\n      mstore\n        /* \"#utility.yul\":8638:8769   */\n      tag_213\n        /* \"#utility.yul\":8764:8768   */\n      dup2\n        /* \"#utility.yul\":8638:8769   */\n      tag_103\n      jump\t// in\n    tag_213:\n        /* \"#utility.yul\":8630:8769   */\n      swap1\n      pop\n        /* \"#utility.yul\":8357:8776   */\n      swap2\n      swap1\n      pop\n      jump\t// out\n        /* \"#utility.yul\":8782:8923   */\n    tag_104:\n        /* \"#utility.yul\":8831:8835   */\n      0x00\n        /* \"#utility.yul\":8854:8857   */\n      dup2\n        /* \"#utility.yul\":8846:8857   */\n      swap1\n      pop\n        /* \"#utility.yul\":8877:8880   */\n      dup2\n        /* \"#utility.yul\":8874:8875   */\n      0x00\n        /* \"#utility.yul\":8867:8881   */\n      mstore\n        /* \"#utility.yul\":8911:8915   */\n      0x20\n        /* \"#utility.yul\":8908:8909   */\n      0x00\n        /* \"#utility.yul\":8898:8916   */\n      keccak256\n        /* \"#utility.yul\":8890:8916   */\n      swap1\n      pop\n        /* \"#utility.yul\":8782:8923   */\n      swap2\n      swap1\n      pop\n      jump\t// out\n        /* \"#utility.yul\":8929:9022   */\n    tag_105:\n        /* \"#utility.yul\":8966:8972   */\n      0x00\n        /* \"#utility.yul\":9013:9015   */\n      0x20\n        /* \"#utility.yul\":9008:9010   */\n      0x1f\n        /* \"#utility.yul\":9001:9006   */\n      dup4\n        /* \"#utility.yul\":8997:9011   */\n      add\n        /* \"#utility.yul\":8993:9016   */\n      div\n        /* \"#utility.yul\":8983:9016   */\n      swap1\n      pop\n        /* \"#utility.yul\":8929:9022   */\n      swap2\n      swap1\n      pop\n      jump\t// out\n        /* \"#utility.yul\":9028:9135   */\n    tag_106:\n        /* \"#utility.yul\":9072:9080   */\n      0x00\n        /* \"#utility.yul\":9122:9127   */\n      dup3\n        /* \"#utility.yul\":9116:9120   */\n      dup3\n        /* \"#utility.yul\":9112:9128   */\n      shl\n        /* \"#utility.yul\":9091:9128   */\n      swap1\n      pop\n        /* \"#utility.yul\":9028:9135   */\n      swap3\n      swap2\n      pop\n      pop\n      jump\t// out\n        /* \"#utility.yul\":9141:9534   */\n    tag_107:\n        /* \"#utility.yul\":9210:9216   */\n      0x00\n        /* \"#utility.yul\":9260:9261   */\n      0x08\n        /* \"#utility.yul\":9248:9258   */\n      dup4\n        /* \"#utility.yul\":9244:9262   */\n      mul\n        /* \"#utility.yul\":9283:9380   */\n      tag_218\n        /* \"#utility.yul\":9313:9379   */\n      0xffffffffffffffffffffffffffffffffffffffffffffffffffffffffffffffff\n        /* \"#utility.yul\":9302:9311   */\n      dup3\n        /* \"#utility.yul\":9283:9380   */\n      tag_106\n      jump\t// in\n    tag_218:\n        /* \"#utility.yul\":9401:9440   */\n      tag_219\n        /* \"#utility.yul\":9431:9439   */\n      dup7\n        /* \"#utility.yul\":9420:9429   */\n      dup4\n        /* \"#utility.yul\":9401:9440   */\n      tag_106\n      jump\t// in\n    tag_219:\n        /* \"#utility.yul\":9389:9440   */\n      swap6\n      pop\n        /* \"#utility.yul\":9473:9477   */\n      dup1\n        /* \"#utility.yul\":9469:9478   */\n      not\n        /* \"#utility.yul\":9462:9467   */\n      dup5\n        /* \"#utility.yul\":9458:9479   */\n      and\n        /* \"#utility.yul\":9449:9479   */\n      swap4\n      pop\n        /* \"#utility.yul\":9522:9526   */\n      dup1\n        /* \"#utility.yul\":9512:9520   */\n      dup7\n        /* \"#utility.yul\":9508:9527   */\n      and\n        /* \"#utility.yul\":9501:9506   */\n      dup5\n        /* \"#utility.yul\":9498:9528   */\n      or\n        /* \"#utility.yul\":9488:9528   */\n      swap3\n      pop\n        /* \"#utility.yul\":9217:9534   */\n      pop\n      pop\n        /* \"#utility.yul\":9141:9534   */\n      swap4\n      swap3\n      pop\n      pop\n      pop\n      jump\t// out\n        /* \"#utility.yul\":9540:9617   */\n    tag_108:\n        /* \"#utility.yul\":9577:9584   */\n      0x00\n        /* \"#utility.yul\":9606:9611   */\n      dup2\n        /* \"#utility.yul\":9595:9611   */\n      swap1\n      pop\n        /* \"#utility.yul\":9540:9617   */\n      swap2\n      swap1\n      pop\n      jump\t// out\n        /* \"#utility.yul\":9623:9683   */\n    tag_109:\n        /* \"#utility.yul\":9651:9654   */\n      0x00\n        /* \"#utility.yul\":9672:9677   */\n      dup2\n        /* \"#utility.yul\":9665:9677   */\n      swap1\n      pop\n        /* \"#utility.yul\":9623:9683   */\n      swap2\n      swap1\n      pop\n      jump\t// out\n        /* \"#utility.yul\":9689:9831   */\n    tag_110:\n        /* \"#utility.yul\":9739:9748   */\n      0x00\n        /* \"#utility.yul\":9772:9825   */\n      tag_223\n        /* \"#utility.yul\":9790:9824   */\n      tag_224\n        /* \"#utility.yul\":9799:9823   */\n      tag_225\n        /* \"#utility.yul\":9817:9822   */\n      dup5\n        /* \"#utility.yul\":9799:9823   */\n      tag_108\n      jump\t// in\n    tag_225:\n        /* \"#utility.yul\":9790:9824   */\n      tag_109\n      jump\t// in\n    tag_224:\n        /* \"#utility.yul\":9772:9825   */\n      tag_108\n      jump\t// in\n    tag_223:\n        /* \"#utility.yul\":9759:9825   */\n      swap1\n      pop\n        /* \"#utility.yul\":9689:9831   */\n      swap2\n      swap1\n      pop\n      jump\t// out\n        /* \"#utility.yul\":9837:9912   */\n    tag_111:\n        /* \"#utility.yul\":9880:9883   */\n      0x00\n        /* \"#utility.yul\":9901:9906   */\n      dup2\n        /* \"#utility.yul\":9894:9906   */\n      swap1\n      pop\n        /* \"#utility.yul\":9837:9912   */\n      swap2\n      swap1\n      pop\n      jump\t// out\n        /* \"#utility.yul\":9918:10187   */\n    tag_112:\n        /* \"#utility.yul\":10028:10067   */\n      tag_228\n        /* \"#utility.yul\":10059:10066   */\n      dup4\n        /* \"#utility.yul\":10028:10067   */\n      tag_110\n      jump\t// in\n    tag_228:\n        /* \"#utility.yul\":10089:10180   */\n      tag_229\n        /* \"#utility.yul\":10138:10179   */\n      tag_230\n        /* \"#utility.yul\":10162:10178   */\n      dup3\n        /* \"#utility.yul\":10138:10179   */\n      tag_111\n      jump\t// in\n    tag_230:\n        /* \"#utility.yul\":10130:10136   */\n      dup5\n        /* \"#utility.yul\":10123:10127   */\n      dup5\n        /* \"#utility.yul\":10117:10128   */\n      sload\n        /* \"#utility.yul\":10089:10180   */\n      tag_107\n      jump\t// in\n    tag_229:\n        /* \"#utility.yul\":10083:10087   */\n      dup3\n        /* \"#utility.yul\":10076:10181   */\n      sstore\n        /* \"#utility.yul\":9994:10187   */\n      pop\n        /* \"#utility.yul\":9918:10187   */\n      pop\n      pop\n      pop\n      jump\t// out\n        /* \"#utility.yul\":10193:10266   */\n    tag_113:\n        /* \"#utility.yul\":10238:10241   */\n      0x00\n        /* \"#utility.yul\":10193:10266   */\n      swap1\n      jump\t// out\n        /* \"#utility.yul\":10272:10461   */\n    tag_114:\n        /* \"#utility.yul\":10349:10381   */\n      tag_233\n      tag_113\n      jump\t// in\n    tag_233:\n        /* \"#utility.yul\":10390:10455   */\n      tag_234\n        /* \"#utility.yul\":10448:10454   */\n      dup2\n        /* \"#utility.yul\":10440:10446   */\n      dup5\n        /* \"#utility.yul\":10434:10438   */\n      dup5\n        /* \"#utility.yul\":10390:10455   */\n      tag_112\n      jump\t// in\n    tag_234:\n        /* \"#utility.yul\":10325:10461   */\n      pop\n        /* \"#utility.yul\":10272:10461   */\n      pop\n      pop\n      jump\t// out\n        /* \"#utility.yul\":10467:10653   */\n    tag_115:\n        /* \"#utility.yul\":10527:10647   */\n    tag_236:\n        /* \"#utility.yul\":10544:10547   */\n      dup2\n        /* \"#utility.yul\":10537:10542   */\n      dup2\n        /* \"#utility.yul\":10534:10548   */\n      lt\n        /* \"#utility.yul\":10527:10647   */\n      iszero\n      tag_238\n      jumpi\n        /* \"#utility.yul\":10598:10637   */\n      tag_239\n        /* \"#utility.yul\":10635:10636   */\n      0x00\n        /* \"#utility.yul\":10628:10633   */\n      dup3\n        /* \"#utility.yul\":10598:10637   */\n      tag_114\n      jump\t// in\n    tag_239:\n        /* \"#utility.yul\":10571:10572   */\n      0x01\n        /* \"#utility.yul\":10564:10569   */\n      dup2\n        /* \"#utility.yul\":10560:10573   */\n      add\n        /* \"#utility.yul\":10551:10573   */\n      swap1\n      pop\n        /* \"#utility.yul\":10527:10647   */\n      jump(tag_236)\n    tag_238:\n        /* \"#utility.yul\":10467:10653   */\n      pop\n      pop\n      jump\t// out\n        /* \"#utility.yul\":10659:11202   */\n    tag_116:\n        /* \"#utility.yul\":10760:10762   */\n      0x1f\n        /* \"#utility.yul\":10755:10758   */\n      dup3\n        /* \"#utility.yul\":10752:10763   */\n      gt\n        /* \"#utility.yul\":10749:11195   */\n      iszero\n      tag_241\n      jumpi\n        /* \"#utility.yul\":10794:10832   */\n      tag_242\n        /* \"#utility.yul\":10826:10831   */\n      dup2\n        /* \"#utility.yul\":10794:10832   */\n      tag_104\n      jump\t// in\n    tag_242:\n        /* \"#utility.yul\":10878:10907   */\n      tag_243\n        /* \"#utility.yul\":10896:10906   */\n      dup5\n        /* \"#utility.yul\":10878:10907   */\n      tag_105\n      jump\t// in\n    tag_243:\n        /* \"#utility.yul\":10868:10876   */\n      dup2\n        /* \"#utility.yul\":10864:10908   */\n      add\n        /* \"#utility.yul\":11061:11063   */\n      0x20\n        /* \"#utility.yul\":11049:11059   */\n      dup6\n        /* \"#utility.yul\":11046:11064   */\n      lt\n        /* \"#utility.yul\":11043:11092   */\n      iszero\n      tag_244\n      jumpi\n        /* \"#utility.yul\":11082:11090   */\n      dup2\n        /* \"#utility.yul\":11067:11090   */\n      swap1\n      pop\n        /* \"#utility.yul\":11043:11092   */\n    tag_244:\n        /* \"#utility.yul\":11105:11185   */\n      tag_245\n        /* \"#utility.yul\":11161:11183   */\n      tag_246\n        /* \"#utility.yul\":11179:11182   */\n      dup6\n        /* \"#utility.yul\":11161:11183   */\n      tag_105\n      jump\t// in\n    tag_246:\n        /* \"#utility.yul\":11151:11159   */\n      dup4\n        /* \"#utility.yul\":11147:11184   */\n      add\n        /* \"#utility.yul\":11134:11145   */\n      dup3\n        /* \"#utility.yul\":11105:11185   */\n      tag_115\n      jump\t// in\n    tag_245:\n        /* \"#utility.yul\":10764:11195   */\n      pop\n      pop\n        /* \"#utility.yul\":10749:11195   */\n    tag_241:\n        /* \"#utility.yul\":10659:11202   */\n      pop\n      pop\n      pop\n      jump\t// out\n        /* \"#utility.yul\":11208:11325   */\n    tag_117:\n        /* \"#utility.yul\":11262:11270   */\n      0x00\n        /* \"#utility.yul\":11312:11317   */\n      dup3\n        /* \"#utility.yul\":11306:11310   */\n      dup3\n        /* \"#utility.yul\":11302:11318   */\n      shr\n        /* \"#utility.yul\":11281:11318   */\n      swap1\n      pop\n        /* \"#utility.yul\":11208:11325   */\n      swap3\n      swap2\n      pop\n      pop\n      jump\t// out\n        /* \"#utility.yul\":11331:11500   */\n    tag_118:\n        /* \"#utility.yul\":11375:11381   */\n      0x00\n        /* \"#utility.yul\":11408:11459   */\n      tag_249\n        /* \"#utility.yul\":11456:11457   */\n      0x00\n        /* \"#utility.yul\":11452:11458   */\n      not\n        /* \"#utility.yul\":11444:11449   */\n      dup5\n        /* \"#utility.yul\":11441:11442   */\n      0x08\n        /* \"#utility.yul\":11437:11450   */\n      mul\n        /* \"#utility.yul\":11408:11459   */\n      tag_117\n      jump\t// in\n    tag_249:\n        /* \"#utility.yul\":11404:11460   */\n      not\n        /* \"#utility.yul\":11489:11493   */\n      dup1\n        /* \"#utility.yul\":11483:11487   */\n      dup4\n        /* \"#utility.yul\":11479:11494   */\n      and\n        /* \"#utility.yul\":11469:11494   */\n      swap2\n      pop\n        /* \"#utility.yul\":11382:11500   */\n      pop\n        /* \"#utility.yul\":11331:11500   */\n      swap3\n      swap2\n      pop\n      pop\n      jump\t// out\n        /* \"#utility.yul\":11505:11800   */\n    tag_119:\n        /* \"#utility.yul\":11581:11585   */\n      0x00\n        /* \"#utility.yul\":11727:11756   */\n      tag_251\n        /* \"#utility.yul\":11752:11755   */\n      dup4\n        /* \"#utility.yul\":11746:11750   */\n      dup4\n        /* \"#utility.yul\":11727:11756   */\n      tag_118\n      jump\t// in\n    tag_251:\n        /* \"#utility.yul\":11719:11756   */\n      swap2\n      pop\n        /* \"#utility.yul\":11789:11792   */\n      dup3\n        /* \"#utility.yul\":11786:11787   */\n      0x02\n        /* \"#utility.yul\":11782:11793   */\n      mul\n        /* \"#utility.yul\":11776:11780   */\n      dup3\n        /* \"#utility.yul\":11773:11794   */\n      or\n        /* \"#utility.yul\":11765:11794   */\n      swap1\n      pop\n        /* \"#utility.yul\":11505:11800   */\n      swap3\n      swap2\n      pop\n      pop\n      jump\t// out\n        /* \"#utility.yul\":11805:13200   */\n    tag_47:\n        /* \"#utility.yul\":11922:11959   */\n      tag_253\n        /* \"#utility.yul\":11955:11958   */\n      dup3\n        /* \"#utility.yul\":11922:11959   */\n      tag_84\n      jump\t// in\n    tag_253:\n        /* \"#utility.yul\":12024:12042   */\n      0xffffffffffffffff\n        /* \"#utility.yul\":12016:12022   */\n      dup2\n        /* \"#utility.yul\":12013:12043   */\n      gt\n        /* \"#utility.yul\":12010:12066   */\n      iszero\n      tag_254\n      jumpi\n        /* \"#utility.yul\":12046:12064   */\n      tag_255\n      tag_91\n      jump\t// in\n    tag_255:\n        /* \"#utility.yul\":12010:12066   */\n    tag_254:\n        /* \"#utility.yul\":12090:12128   */\n      tag_256\n        /* \"#utility.yul\":12122:12126   */\n      dup3\n        /* \"#utility.yul\":12116:12127   */\n      sload\n        /* \"#utility.yul\":12090:12128   */\n      tag_33\n      jump\t// in\n    tag_256:\n        /* \"#utility.yul\":12175:12242   */\n      tag_257\n        /* \"#utility.yul\":12235:12241   */\n      dup3\n        /* \"#utility.yul\":12227:12233   */\n      dup3\n        /* \"#utility.yul\":12221:12225   */\n      dup6\n        /* \"#utility.yul\":12175:12242   */\n      tag_116\n      jump\t// in\n    tag_257:\n        /* \"#utility.yul\":12269:12270   */\n      0x00\n        /* \"#utility.yul\":12293:12297   */\n      0x20\n        /* \"#utility.yul\":12280:12297   */\n      swap1\n      pop\n        /* \"#utility.yul\":12325:12327   */\n      0x1f\n        /* \"#utility.yul\":12317:12323   */\n      dup4\n        /* \"#utility.yul\":12314:12328   */\n      gt\n        /* \"#utility.yul\":12342:12343   */\n      0x01\n        /* \"#utility.yul\":12337:12955   */\n      dup2\n      eq\n      tag_259\n      jumpi\n        /* \"#utility.yul\":12999:13000   */\n      0x00\n        /* \"#utility.yul\":13016:13022   */\n      dup5\n        /* \"#utility.yul\":13013:13090   */\n      iszero\n      tag_260\n      jumpi\n        /* \"#utility.yul\":13065:13074   */\n      dup3\n        /* \"#utility.yul\":13060:13063   */\n      dup8\n        /* \"#utility.yul\":13056:13075   */\n      add\n        /* \"#utility.yul\":13050:13076   */\n      mload\n        /* \"#utility.yul\":13041:13076   */\n      swap1\n      pop\n        /* \"#utility.yul\":13013:13090   */\n    tag_260:\n        /* \"#utility.yul\":13116:13183   */\n      tag_261\n        /* \"#utility.yul\":13176:13182   */\n      dup6\n        /* \"#utility.yul\":13169:13174   */\n      dup3\n        /* \"#utility.yul\":13116:13183   */\n      tag_119\n      jump\t// in\n    tag_261:\n        /* \"#utility.yul\":13110:13114   */\n      dup7\n        /* \"#utility.yul\":13103:13184   */\n      sstore\n        /* \"#utility.yul\":12972:13194   */\n      pop\n        /* \"#utility.yul\":12307:13194   */\n      jump(tag_258)\n        /* \"#utility.yul\":12337:12955   */\n    tag_259:\n        /* \"#utility.yul\":12389:12393   */\n      0x1f\n        /* \"#utility.yul\":12385:12394   */\n      not\n        /* \"#utility.yul\":12377:12383   */\n      dup5\n        /* \"#utility.yul\":12373:12395   */\n      and\n        /* \"#utility.yul\":12423:12460   */\n      tag_262\n        /* \"#utility.yul\":12455:12459   */\n      dup7\n        /* \"#utility.yul\":12423:12460   */\n      tag_104\n      jump\t// in\n    tag_262:\n        /* \"#utility.yul\":12482:12483   */\n      0x00\n        /* \"#utility.yul\":12496:12704   */\n    tag_263:\n        /* \"#utility.yul\":12510:12517   */\n      dup3\n        /* \"#utility.yul\":12507:12508   */\n      dup2\n        /* \"#utility.yul\":12504:12518   */\n      lt\n        /* \"#utility.yul\":12496:12704   */\n      iszero\n      tag_265\n      jumpi\n        /* \"#utility.yul\":12589:12598   */\n      dup5\n        /* \"#utility.yul\":12584:12587   */\n      dup10\n        /* \"#utility.yul\":12580:12599   */\n      add\n        /* \"#utility.yul\":12574:12600   */\n      mload\n        /* \"#utility.yul\":12566:12572   */\n      dup3\n        /* \"#utility.yul\":12559:12601   */\n      sstore\n        /* \"#utility.yul\":12640:12641   */\n      0x01\n        /* \"#utility.yul\":12632:12638   */\n      dup3\n        /* \"#utility.yul\":12628:12642   */\n      add\n        /* \"#utility.yul\":12618:12642   */\n      swap2\n      pop\n        /* \"#utility.yul\":12687:12689   */\n      0x20\n        /* \"#utility.yul\":12676:12685   */\n      dup6\n        /* \"#utility.yul\":12672:12690   */\n      add\n        /* \"#utility.yul\":12659:12690   */\n      swap5\n      pop\n        /* \"#utility.yul\":12533:12537   */\n      0x20\n        /* \"#utility.yul\":12530:12531   */\n      dup2\n        /* \"#utility.yul\":12526:12538   */\n      add\n        /* \"#utility.yul\":12521:12538   */\n      swap1\n      pop\n        /* \"#utility.yul\":12496:12704   */\n      jump(tag_263)\n    tag_265:\n        /* \"#utility.yul\":12732:12738   */\n      dup7\n        /* \"#utility.yul\":12723:12730   */\n      dup4\n        /* \"#utility.yul\":12720:12739   */\n      lt\n        /* \"#utility.yul\":12717:12896   */\n      iszero\n      tag_266\n      jumpi\n        /* \"#utility.yul\":12790:12799   */\n      dup5\n        /* \"#utility.yul\":12785:12788   */\n      dup10\n        /* \"#utility.yul\":12781:12800   */\n      add\n        /* \"#utility.yul\":12775:12801   */\n      mload\n        /* \"#utility.yul\":12833:12881   */\n      tag_267\n        /* \"#utility.yul\":12875:12879   */\n      0x1f\n        /* \"#utility.yul\":12867:12873   */\n      dup10\n        /* \"#utility.yul\":12863:12880   */\n      and\n        /* \"#utility.yul\":12852:12861   */\n      dup3\n        /* \"#utility.yul\":12833:12881   */\n      tag_118\n      jump\t// in\n    tag_267:\n        /* \"#utility.yul\":12825:12831   */\n      dup4\n        /* \"#utility.yul\":12818:12882   */\n      sstore\n        /* \"#utility.yul\":12740:12896   */\n      pop\n        /* \"#utility.yul\":12717:12896   */\n    tag_266:\n        /* \"#utility.yul\":12942:12943   */\n      0x01\n        /* \"#utility.yul\":12938:12939   */\n      0x02\n        /* \"#utility.yul\":12930:12936   */\n      dup9\n        /* \"#utility.yul\":12926:12940   */\n      mul\n        /* \"#utility.yul\":12922:12944   */\n      add\n        /* \"#utility.yul\":12916:12920   */\n      dup9\n        /* \"#utility.yul\":12909:12945   */\n      sstore\n        /* \"#utility.yul\":12344:12955   */\n      pop\n      pop\n      pop\n        /* \"#utility.yul\":12307:13194   */\n    tag_258:\n      pop\n        /* \"#utility.yul\":11897:13200   */\n      pop\n      pop\n      pop\n        /* \"#utility.yul\":11805:13200   */\n      pop\n      pop\n      jump\t// out\n        /* \"#utility.yul\":13206:13720   */\n    tag_50:\n        /* \"#utility.yul\":13367:13371   */\n      0x00\n        /* \"#utility.yul\":13405:13407   */\n      0x40\n        /* \"#utility.yul\":13394:13403   */\n      dup3\n        /* \"#utility.yul\":13390:13408   */\n      add\n        /* \"#utility.yul\":13382:13408   */\n      swap1\n      pop\n        /* \"#utility.yul\":13454:13463   */\n      dup2\n        /* \"#utility.yul\":13448:13452   */\n      dup2\n        /* \"#utility.yul\":13444:13464   */\n      sub\n        /* \"#utility.yul\":13440:13441   */\n      0x00\n        /* \"#utility.yul\":13429:13438   */\n      dup4\n        /* \"#utility.yul\":13425:13442   */\n      add\n        /* \"#utility.yul\":13418:13465   */\n      mstore\n        /* \"#utility.yul\":13482:13560   */\n      tag_269\n        /* \"#utility.yul\":13555:13559   */\n      dup2\n        /* \"#utility.yul\":13546:13552   */\n      dup6\n        /* \"#utility.yul\":13482:13560   */\n      tag_88\n      jump\t// in\n    tag_269:\n        /* \"#utility.yul\":13474:13560   */\n      swap1\n      pop\n        /* \"#utility.yul\":13607:13616   */\n      dup2\n        /* \"#utility.yul\":13601:13605   */\n      dup2\n        /* \"#utility.yul\":13597:13617   */\n      sub\n        /* \"#utility.yul\":13592:13594   */\n      0x20\n        /* \"#utility.yul\":13581:13590   */\n      dup4\n        /* \"#utility.yul\":13577:13595   */\n      add\n        /* \"#utility.yul\":13570:13618   */\n      mstore\n        /* \"#utility.yul\":13635:13713   */\n      tag_270\n        /* \"#utility.yul\":13708:13712   */\n      dup2\n        /* \"#utility.yul\":13699:13705   */\n      dup5\n        /* \"#utility.yul\":13635:13713   */\n      tag_88\n      jump\t// in\n    tag_270:\n        /* \"#utility.yul\":13627:13713   */\n      swap1\n      pop\n        /* \"#utility.yul\":13206:13720   */\n      swap4\n      swap3\n      pop\n      pop\n      pop\n      jump\t// out\n        /* \"#utility.yul\":13726:13900   */\n    tag_120:\n        /* \"#utility.yul\":13866:13892   */\n      0x5573657220697320616c72656164792076657269666965640000000000000000\n        /* \"#utility.yul\":13862:13863   */\n      0x00\n        /* \"#utility.yul\":13854:13860   */\n      dup3\n        /* \"#utility.yul\":13850:13864   */\n      add\n        /* \"#utility.yul\":13843:13893   */\n      mstore\n        /* \"#utility.yul\":13726:13900   */\n      pop\n      jump\t// out\n        /* \"#utility.yul\":13906:14272   */\n    tag_121:\n        /* \"#utility.yul\":14048:14051   */\n      0x00\n        /* \"#utility.yul\":14069:14136   */\n      tag_273\n        /* \"#utility.yul\":14133:14135   */\n      0x18\n        /* \"#utility.yul\":14128:14131   */\n      dup4\n        /* \"#utility.yul\":14069:14136   */\n      tag_85\n      jump\t// in\n    tag_273:\n        /* \"#utility.yul\":14062:14136   */\n      swap2\n      pop\n        /* \"#utility.yul\":14145:14238   */\n      tag_274\n        /* \"#utility.yul\":14234:14237   */\n      dup3\n        /* \"#utility.yul\":14145:14238   */\n      tag_120\n      jump\t// in\n    tag_274:\n        /* \"#utility.yul\":14263:14265   */\n      0x20\n        /* \"#utility.yul\":14258:14261   */\n      dup3\n        /* \"#utility.yul\":14254:14266   */\n      add\n        /* \"#utility.yul\":14247:14266   */\n      swap1\n      pop\n        /* \"#utility.yul\":13906:14272   */\n      swap2\n      swap1\n      pop\n      jump\t// out\n        /* \"#utility.yul\":14278:14697   */\n    tag_67:\n        /* \"#utility.yul\":14444:14448   */\n      0x00\n        /* \"#utility.yul\":14482:14484   */\n      0x20\n        /* \"#utility.yul\":14471:14480   */\n      dup3\n        /* \"#utility.yul\":14467:14485   */\n      add\n        /* \"#utility.yul\":14459:14485   */\n      swap1\n      pop\n        /* \"#utility.yul\":14531:14540   */\n      dup2\n        /* \"#utility.yul\":14525:14529   */\n      dup2\n        /* \"#utility.yul\":14521:14541   */\n      sub\n        /* \"#utility.yul\":14517:14518   */\n      0x00\n        /* \"#utility.yul\":14506:14515   */\n      dup4\n        /* \"#utility.yul\":14502:14519   */\n      add\n        /* \"#utility.yul\":14495:14542   */\n      mstore\n        /* \"#utility.yul\":14559:14690   */\n      tag_276\n        /* \"#utility.yul\":14685:14689   */\n      dup2\n        /* \"#utility.yul\":14559:14690   */\n      tag_121\n      jump\t// in\n    tag_276:\n        /* \"#utility.yul\":14551:14690   */\n      swap1\n      pop\n        /* \"#utility.yul\":14278:14697   */\n      swap2\n      swap1\n      pop\n      jump\t// out\n        /* \"#utility.yul\":14703:14851   */\n    tag_122:\n        /* \"#utility.yul\":14805:14816   */\n      0x00\n        /* \"#utility.yul\":14842:14845   */\n      dup2\n        /* \"#utility.yul\":14827:14845   */\n      swap1\n      pop\n        /* \"#utility.yul\":14703:14851   */\n      swap3\n      swap2\n      pop\n      pop\n      jump\t// out\n        /* \"#utility.yul\":14857:15247   */\n    tag_123:\n        /* \"#utility.yul\":14963:14966   */\n      0x00\n        /* \"#utility.yul\":14991:15030   */\n      tag_279\n        /* \"#utility.yul\":15024:15029   */\n      dup3\n        /* \"#utility.yul\":14991:15030   */\n      tag_84\n      jump\t// in\n    tag_279:\n        /* \"#utility.yul\":15046:15135   */\n      tag_280\n        /* \"#utility.yul\":15128:15134   */\n      dup2\n        /* \"#utility.yul\":15123:15126   */\n      dup6\n        /* \"#utility.yul\":15046:15135   */\n      tag_122\n      jump\t// in\n    tag_280:\n        /* \"#utility.yul\":15039:15135   */\n      swap4\n      pop\n        /* \"#utility.yul\":15144:15209   */\n      tag_281\n        /* \"#utility.yul\":15202:15208   */\n      dup2\n        /* \"#utility.yul\":15197:15200   */\n      dup6\n        /* \"#utility.yul\":15190:15194   */\n      0x20\n        /* \"#utility.yul\":15183:15188   */\n      dup7\n        /* \"#utility.yul\":15179:15195   */\n      add\n        /* \"#utility.yul\":15144:15209   */\n      tag_86\n      jump\t// in\n    tag_281:\n        /* \"#utility.yul\":15234:15240   */\n      dup1\n        /* \"#utility.yul\":15229:15232   */\n      dup5\n        /* \"#utility.yul\":15225:15241   */\n      add\n        /* \"#utility.yul\":15218:15241   */\n      swap2\n      pop\n        /* \"#utility.yul\":14967:15247   */\n      pop\n        /* \"#utility.yul\":14857:15247   */\n      swap3\n      swap2\n      pop\n      pop\n      jump\t// out\n        /* \"#utility.yul\":15253:15528   */\n    tag_69:\n        /* \"#utility.yul\":15385:15388   */\n      0x00\n        /* \"#utility.yul\":15407:15502   */\n      tag_283\n        /* \"#utility.yul\":15498:15501   */\n      dup3\n        /* \"#utility.yul\":15489:15495   */\n      dup5\n        /* \"#utility.yul\":15407:15502   */\n      tag_123\n      jump\t// in\n    tag_283:\n        /* \"#utility.yul\":15400:15502   */\n      swap2\n      pop\n        /* \"#utility.yul\":15519:15522   */\n      dup2\n        /* \"#utility.yul\":15512:15522   */\n      swap1\n      pop\n        /* \"#utility.yul\":15253:15528   */\n      swap3\n      swap2\n      pop\n      pop\n      jump\t// out\n        /* \"#utility.yul\":15558:16432   */\n    tag_124:\n        /* \"#utility.yul\":15661:15664   */\n      0x00\n        /* \"#utility.yul\":15698:15703   */\n      dup2\n        /* \"#utility.yul\":15692:15704   */\n      sload\n        /* \"#utility.yul\":15727:15763   */\n      tag_285\n        /* \"#utility.yul\":15753:15762   */\n      dup2\n        /* \"#utility.yul\":15727:15763   */\n      tag_33\n      jump\t// in\n    tag_285:\n        /* \"#utility.yul\":15779:15868   */\n      tag_286\n        /* \"#utility.yul\":15861:15867   */\n      dup2\n        /* \"#utility.yul\":15856:15859   */\n      dup7\n        /* \"#utility.yul\":15779:15868   */\n      tag_122\n      jump\t// in\n    tag_286:\n        /* \"#utility.yul\":15772:15868   */\n      swap5\n      pop\n        /* \"#utility.yul\":15899:15900   */\n      0x01\n        /* \"#utility.yul\":15888:15897   */\n      dup3\n        /* \"#utility.yul\":15884:15901   */\n      and\n        /* \"#utility.yul\":15915:15916   */\n      0x00\n        /* \"#utility.yul\":15910:16076   */\n      dup2\n      eq\n      tag_288\n      jumpi\n        /* \"#utility.yul\":16090:16091   */\n      0x01\n        /* \"#utility.yul\":16085:16426   */\n      dup2\n      eq\n      tag_289\n      jumpi\n        /* \"#utility.yul\":15877:16426   */\n      jump(tag_287)\n        /* \"#utility.yul\":15910:16076   */\n    tag_288:\n        /* \"#utility.yul\":15994:15998   */\n      0xff\n        /* \"#utility.yul\":15990:15999   */\n      not\n        /* \"#utility.yul\":15979:15988   */\n      dup4\n        /* \"#utility.yul\":15975:16000   */\n      and\n        /* \"#utility.yul\":15970:15973   */\n      dup7\n        /* \"#utility.yul\":15963:16001   */\n      mstore\n        /* \"#utility.yul\":16056:16062   */\n      dup2\n        /* \"#utility.yul\":16049:16063   */\n      iszero\n        /* \"#utility.yul\":16042:16064   */\n      iszero\n        /* \"#utility.yul\":16034:16040   */\n      dup3\n        /* \"#utility.yul\":16030:16065   */\n      mul\n        /* \"#utility.yul\":16025:16028   */\n      dup7\n        /* \"#utility.yul\":16021:16066   */\n      add\n        /* \"#utility.yul\":16014:16066   */\n      swap4\n      pop\n        /* \"#utility.yul\":15910:16076   */\n      jump(tag_287)\n        /* \"#utility.yul\":16085:16426   */\n    tag_289:\n        /* \"#utility.yul\":16152:16190   */\n      tag_290\n        /* \"#utility.yul\":16184:16189   */\n      dup6\n        /* \"#utility.yul\":16152:16190   */\n      tag_104\n      jump\t// in\n    tag_290:\n        /* \"#utility.yul\":16212:16213   */\n      0x00\n        /* \"#utility.yul\":16226:16380   */\n    tag_291:\n        /* \"#utility.yul\":16240:16246   */\n      dup4\n        /* \"#utility.yul\":16237:16238   */\n      dup2\n        /* \"#utility.yul\":16234:16247   */\n      lt\n        /* \"#utility.yul\":16226:16380   */\n      iszero\n      tag_293\n      jumpi\n        /* \"#utility.yul\":16314:16321   */\n      dup2\n        /* \"#utility.yul\":16308:16322   */\n      sload\n        /* \"#utility.yul\":16304:16305   */\n      dup2\n        /* \"#utility.yul\":16299:16302   */\n      dup10\n        /* \"#utility.yul\":16295:16306   */\n      add\n        /* \"#utility.yul\":16288:16323   */\n      mstore\n        /* \"#utility.yul\":16364:16365   */\n      0x01\n        /* \"#utility.yul\":16355:16362   */\n      dup3\n        /* \"#utility.yul\":16351:16366   */\n      add\n        /* \"#utility.yul\":16340:16366   */\n      swap2\n      pop\n        /* \"#utility.yul\":16262:16266   */\n      0x20\n        /* \"#utility.yul\":16259:16260   */\n      dup2\n        /* \"#utility.yul\":16255:16267   */\n      add\n        /* \"#utility.yul\":16250:16267   */\n      swap1\n      pop\n        /* \"#utility.yul\":16226:16380   */\n      jump(tag_291)\n    tag_293:\n        /* \"#utility.yul\":16409:16415   */\n      dup4\n        /* \"#utility.yul\":16404:16407   */\n      dup9\n        /* \"#utility.yul\":16400:16416   */\n      add\n        /* \"#utility.yul\":16393:16416   */\n      swap6\n      pop\n        /* \"#utility.yul\":16092:16426   */\n      pop\n      pop\n        /* \"#utility.yul\":15877:16426   */\n    tag_287:\n      pop\n        /* \"#utility.yul\":15665:16432   */\n      pop\n      pop\n        /* \"#utility.yul\":15558:16432   */\n      swap3\n      swap2\n      pop\n      pop\n      jump\t// out\n        /* \"#utility.yul\":16438:16707   */\n    tag_71:\n        /* \"#utility.yul\":16567:16570   */\n      0x00\n        /* \"#utility.yul\":16589:16681   */\n      tag_295\n        /* \"#utility.yul\":16677:16680   */\n      dup3\n        /* \"#utility.yul\":16668:16674   */\n      dup5\n        /* \"#utility.yul\":16589:16681   */\n      tag_124\n      jump\t// in\n    tag_295:\n        /* \"#utility.yul\":16582:16681   */\n      swap2\n      pop\n        /* \"#utility.yul\":16698:16701   */\n      dup2\n        /* \"#utility.yul\":16691:16701   */\n      swap1\n      pop\n        /* \"#utility.yul\":16438:16707   */\n      swap3\n      swap2\n      pop\n      pop\n      jump\t// out\n        /* \"#utility.yul\":16713:16888   */\n    tag_125:\n        /* \"#utility.yul\":16853:16880   */\n      0x496e76616c696420766572696669636174696f6e20636f646500000000000000\n        /* \"#utility.yul\":16849:16850   */\n      0x00\n        /* \"#utility.yul\":16841:16847   */\n      dup3\n        /* \"#utility.yul\":16837:16851   */\n      add\n        /* \"#utility.yul\":16830:16881   */\n      mstore\n        /* \"#utility.yul\":16713:16888   */\n      pop\n      jump\t// out\n        /* \"#utility.yul\":16894:17260   */\n    tag_126:\n        /* \"#utility.yul\":17036:17039   */\n      0x00\n        /* \"#utility.yul\":17057:17124   */\n      tag_298\n        /* \"#utility.yul\":17121:17123   */\n      0x19\n        /* \"#utility.yul\":17116:17119   */\n      dup4\n        /* \"#utility.yul\":17057:17124   */\n      tag_85\n      jump\t// in\n    tag_298:\n        /* \"#utility.yul\":17050:17124   */\n      swap2\n      pop\n        /* \"#utility.yul\":17133:17226   */\n      tag_299\n        /* \"#utility.yul\":17222:17225   */\n      dup3\n        /* \"#utility.yul\":17133:17226   */\n      tag_125\n      jump\t// in\n    tag_299:\n        /* \"#utility.yul\":17251:17253   */\n      0x20\n        /* \"#utility.yul\":17246:17249   */\n      dup3\n        /* \"#utility.yul\":17242:17254   */\n      add\n        /* \"#utility.yul\":17235:17254   */\n      swap1\n      pop\n        /* \"#utility.yul\":16894:17260   */\n      swap2\n      swap1\n      pop\n      jump\t// out\n        /* \"#utility.yul\":17266:17685   */\n    tag_74:\n        /* \"#utility.yul\":17432:17436   */\n      0x00\n        /* \"#utility.yul\":17470:17472   */\n      0x20\n        /* \"#utility.yul\":17459:17468   */\n      dup3\n        /* \"#utility.yul\":17455:17473   */\n      add\n        /* \"#utility.yul\":17447:17473   */\n      swap1\n      pop\n        /* \"#utility.yul\":17519:17528   */\n      dup2\n        /* \"#utility.yul\":17513:17517   */\n      dup2\n        /* \"#utility.yul\":17509:17529   */\n      sub\n        /* \"#utility.yul\":17505:17506   */\n      0x00\n        /* \"#utility.yul\":17494:17503   */\n      dup4\n        /* \"#utility.yul\":17490:17507   */\n      add\n        /* \"#utility.yul\":17483:17530   */\n      mstore\n        /* \"#utility.yul\":17547:17678   */\n      tag_301\n        /* \"#utility.yul\":17673:17677   */\n      dup2\n        /* \"#utility.yul\":17547:17678   */\n      tag_126\n      jump\t// in\n    tag_301:\n        /* \"#utility.yul\":17539:17678   */\n      swap1\n      pop\n        /* \"#utility.yul\":17266:17685   */\n      swap2\n      swap1\n      pop\n      jump\t// out\n\n    auxdata: 0xa2646970667358221220f7368a442e5415bf9f5bd11a74ea0b541219e91ee613be0b17b50cf3e875602e64736f6c634300081a0033\n}\n",
				"bytecode": {
					"linkReferences": {},
					"object": "6080604052348015600e575f80fd5b506111708061001c5f395ff3fe608060405234801561000f575f80fd5b5060043610610055575f3560e01c8063163f752214610059578063426fb01514610089578063704f1b94146100a7578063a87430ba146100c3578063e600c817146100f6575b5f80fd5b610073600480360381019061006e91906108ec565b610112565b6040516100809190610931565b60405180910390f35b610091610166565b60405161009e91906109ba565b60405180910390f35b6100c160048036038101906100bc9190610b06565b6102c0565b005b6100dd60048036038101906100d891906108ec565b6104e0565b6040516100ed9493929190610b5c565b60405180910390f35b610110600480360381019061010b9190610b06565b610642565b005b5f805f8373ffffffffffffffffffffffffffffffffffffffff1673ffffffffffffffffffffffffffffffffffffffff1681526020019081526020015f206002015f9054906101000a900460ff169050919050565b60605f805f3373ffffffffffffffffffffffffffffffffffffffff1673ffffffffffffffffffffffffffffffffffffffff1681526020019081526020015f2060010180546101b390610bda565b9050116101f5576040517f08c379a00000000000000000000000000000000000000000000000000000000081526004016101ec90610c54565b60405180910390fd5b5f803373ffffffffffffffffffffffffffffffffffffffff1673ffffffffffffffffffffffffffffffffffffffff1681526020019081526020015f20600301805461023f90610bda565b80601f016020809104026020016040519081016040528092919081815260200182805461026b90610bda565b80156102b65780601f1061028d576101008083540402835291602001916102b6565b820191905f5260205f20905b81548152906001019060200180831161029957829003601f168201915b5050505050905090565b5f803373ffffffffffffffffffffffffffffffffffffffff1673ffffffffffffffffffffffffffffffffffffffff1681526020019081526020015f206002015f9054906101000a900460ff161561034c576040517f08c379a000000000000000000000000000000000000000000000000000000000815260040161034390610cbc565b60405180910390fd5b5f6040518060400160405280600481526020017f3132333400000000000000000000000000000000000000000000000000000000815250905060405180608001604052803373ffffffffffffffffffffffffffffffffffffffff1681526020018381526020015f15158152602001828152505f803373ffffffffffffffffffffffffffffffffffffffff1673ffffffffffffffffffffffffffffffffffffffff1681526020019081526020015f205f820151815f015f6101000a81548173ffffffffffffffffffffffffffffffffffffffff021916908373ffffffffffffffffffffffffffffffffffffffff16021790555060208201518160010190816104539190610e80565b506040820151816002015f6101000a81548160ff02191690831515021790555060608201518160030190816104889190610e80565b509050503373ffffffffffffffffffffffffffffffffffffffff167f92822564bab8864c3a47b34e8d23fbce5c46234eb5da261f94087b995ac0f33b83836040516104d4929190610f4f565b60405180910390a25050565b5f602052805f5260405f205f91509050805f015f9054906101000a900473ffffffffffffffffffffffffffffffffffffffff169080600101805461052390610bda565b80601f016020809104026020016040519081016040528092919081815260200182805461054f90610bda565b801561059a5780601f106105715761010080835404028352916020019161059a565b820191905f5260205f20905b81548152906001019060200180831161057d57829003601f168201915b505050505090806002015f9054906101000a900460ff16908060030180546105c190610bda565b80601f01602080910402602001604051908101604052809291908181526020018280546105ed90610bda565b80156106385780601f1061060f57610100808354040283529160200191610638565b820191905f5260205f20905b81548152906001019060200180831161061b57829003601f168201915b5050505050905084565b5f805f3373ffffffffffffffffffffffffffffffffffffffff1673ffffffffffffffffffffffffffffffffffffffff1681526020019081526020015f20600301805461068d90610bda565b9050116106cf576040517f08c379a00000000000000000000000000000000000000000000000000000000081526004016106c690610c54565b60405180910390fd5b5f803373ffffffffffffffffffffffffffffffffffffffff1673ffffffffffffffffffffffffffffffffffffffff1681526020019081526020015f206002015f9054906101000a900460ff161561075b576040517f08c379a000000000000000000000000000000000000000000000000000000000815260040161075290610fce565b60405180910390fd5b8060405160200161076c9190611026565b604051602081830303815290604052805190602001205f803373ffffffffffffffffffffffffffffffffffffffff1673ffffffffffffffffffffffffffffffffffffffff1681526020019081526020015f206003016040516020016107d191906110bc565b6040516020818303038152906040528051906020012014610827576040517f08c379a000000000000000000000000000000000000000000000000000000000815260040161081e9061111c565b60405180910390fd5b60015f803373ffffffffffffffffffffffffffffffffffffffff1673ffffffffffffffffffffffffffffffffffffffff1681526020019081526020015f206002015f6101000a81548160ff02191690831515021790555050565b5f604051905090565b5f80fd5b5f80fd5b5f73ffffffffffffffffffffffffffffffffffffffff82169050919050565b5f6108bb82610892565b9050919050565b6108cb816108b1565b81146108d5575f80fd5b50565b5f813590506108e6816108c2565b92915050565b5f602082840312156109015761090061088a565b5b5f61090e848285016108d8565b91505092915050565b5f8115159050919050565b61092b81610917565b82525050565b5f6020820190506109445f830184610922565b92915050565b5f81519050919050565b5f82825260208201905092915050565b8281835e5f83830152505050565b5f601f19601f8301169050919050565b5f61098c8261094a565b6109968185610954565b93506109a6818560208601610964565b6109af81610972565b840191505092915050565b5f6020820190508181035f8301526109d28184610982565b905092915050565b5f80fd5b5f80fd5b7f4e487b71000000000000000000000000000000000000000000000000000000005f52604160045260245ffd5b610a1882610972565b810181811067ffffffffffffffff82111715610a3757610a366109e2565b5b80604052505050565b5f610a49610881565b9050610a558282610a0f565b919050565b5f67ffffffffffffffff821115610a7457610a736109e2565b5b610a7d82610972565b9050602081019050919050565b828183375f83830152505050565b5f610aaa610aa584610a5a565b610a40565b905082815260208101848484011115610ac657610ac56109de565b5b610ad1848285610a8a565b509392505050565b5f82601f830112610aed57610aec6109da565b5b8135610afd848260208601610a98565b91505092915050565b5f60208284031215610b1b57610b1a61088a565b5b5f82013567ffffffffffffffff811115610b3857610b3761088e565b5b610b4484828501610ad9565b91505092915050565b610b56816108b1565b82525050565b5f608082019050610b6f5f830187610b4d565b8181036020830152610b818186610982565b9050610b906040830185610922565b8181036060830152610ba28184610982565b905095945050505050565b7f4e487b71000000000000000000000000000000000000000000000000000000005f52602260045260245ffd5b5f6002820490506001821680610bf157607f821691505b602082108103610c0457610c03610bad565b5b50919050565b7f55736572206973206e6f742072656769737465726564000000000000000000005f82015250565b5f610c3e601683610954565b9150610c4982610c0a565b602082019050919050565b5f6020820190508181035f830152610c6b81610c32565b9050919050565b7f5573657220616c726561647920726567697374657265640000000000000000005f82015250565b5f610ca6601783610954565b9150610cb182610c72565b602082019050919050565b5f6020820190508181035f830152610cd381610c9a565b9050919050565b5f819050815f5260205f209050919050565b5f6020601f8301049050919050565b5f82821b905092915050565b5f60088302610d367fffffffffffffffffffffffffffffffffffffffffffffffffffffffffffffffff82610cfb565b610d408683610cfb565b95508019841693508086168417925050509392505050565b5f819050919050565b5f819050919050565b5f610d84610d7f610d7a84610d58565b610d61565b610d58565b9050919050565b5f819050919050565b610d9d83610d6a565b610db1610da982610d8b565b848454610d07565b825550505050565b5f90565b610dc5610db9565b610dd0818484610d94565b505050565b5b81811015610df357610de85f82610dbd565b600181019050610dd6565b5050565b601f821115610e3857610e0981610cda565b610e1284610cec565b81016020851015610e21578190505b610e35610e2d85610cec565b830182610dd5565b50505b505050565b5f82821c905092915050565b5f610e585f1984600802610e3d565b1980831691505092915050565b5f610e708383610e49565b9150826002028217905092915050565b610e898261094a565b67ffffffffffffffff811115610ea257610ea16109e2565b5b610eac8254610bda565b610eb7828285610df7565b5f60209050601f831160018114610ee8575f8415610ed6578287015190505b610ee08582610e65565b865550610f47565b601f198416610ef686610cda565b5f5b82811015610f1d57848901518255600182019150602085019450602081019050610ef8565b86831015610f3a5784890151610f36601f891682610e49565b8355505b6001600288020188555050505b505050505050565b5f6040820190508181035f830152610f678185610982565b90508181036020830152610f7b8184610982565b90509392505050565b7f5573657220697320616c726561647920766572696669656400000000000000005f82015250565b5f610fb8601883610954565b9150610fc382610f84565b602082019050919050565b5f6020820190508181035f830152610fe581610fac565b9050919050565b5f81905092915050565b5f6110008261094a565b61100a8185610fec565b935061101a818560208601610964565b80840191505092915050565b5f6110318284610ff6565b915081905092915050565b5f815461104881610bda565b6110528186610fec565b9450600182165f811461106c5760018114611081576110b3565b60ff19831686528115158202860193506110b3565b61108a85610cda565b5f5b838110156110ab5781548189015260018201915060208101905061108c565b838801955050505b50505092915050565b5f6110c7828461103c565b915081905092915050565b7f496e76616c696420766572696669636174696f6e20636f6465000000000000005f82015250565b5f611106601983610954565b9150611111826110d2565b602082019050919050565b5f6020820190508181035f830152611133816110fa565b905091905056fea2646970667358221220f7368a442e5415bf9f5bd11a74ea0b541219e91ee613be0b17b50cf3e875602e64736f6c634300081a0033",
					"opcodes": "PUSH1 0x80 PUSH1 0x40 MSTORE CALLVALUE DUP1 ISZERO PUSH1 0xE JUMPI PUSH0 DUP1 REVERT JUMPDEST POP PUSH2 0x1170 DUP1 PUSH2 0x1C PUSH0 CODECOPY PUSH0 RETURN INVALID PUSH1 0x80 PUSH1 0x40 MSTORE CALLVALUE DUP1 ISZERO PUSH2 0xF JUMPI PUSH0 DUP1 REVERT JUMPDEST POP PUSH1 0x4 CALLDATASIZE LT PUSH2 0x55 JUMPI PUSH0 CALLDATALOAD PUSH1 0xE0 SHR DUP1 PUSH4 0x163F7522 EQ PUSH2 0x59 JUMPI DUP1 PUSH4 0x426FB015 EQ PUSH2 0x89 JUMPI DUP1 PUSH4 0x704F1B94 EQ PUSH2 0xA7 JUMPI DUP1 PUSH4 0xA87430BA EQ PUSH2 0xC3 JUMPI DUP1 PUSH4 0xE600C817 EQ PUSH2 0xF6 JUMPI JUMPDEST PUSH0 DUP1 REVERT JUMPDEST PUSH2 0x73 PUSH1 0x4 DUP1 CALLDATASIZE SUB DUP2 ADD SWAP1 PUSH2 0x6E SWAP2 SWAP1 PUSH2 0x8EC JUMP JUMPDEST PUSH2 0x112 JUMP JUMPDEST PUSH1 0x40 MLOAD PUSH2 0x80 SWAP2 SWAP1 PUSH2 0x931 JUMP JUMPDEST PUSH1 0x40 MLOAD DUP1 SWAP2 SUB SWAP1 RETURN JUMPDEST PUSH2 0x91 PUSH2 0x166 JUMP JUMPDEST PUSH1 0x40 MLOAD PUSH2 0x9E SWAP2 SWAP1 PUSH2 0x9BA JUMP JUMPDEST PUSH1 0x40 MLOAD DUP1 SWAP2 SUB SWAP1 RETURN JUMPDEST PUSH2 0xC1 PUSH1 0x4 DUP1 CALLDATASIZE SUB DUP2 ADD SWAP1 PUSH2 0xBC SWAP2 SWAP1 PUSH2 0xB06 JUMP JUMPDEST PUSH2 0x2C0 JUMP JUMPDEST STOP JUMPDEST PUSH2 0xDD PUSH1 0x4 DUP1 CALLDATASIZE SUB DUP2 ADD SWAP1 PUSH2 0xD8 SWAP2 SWAP1 PUSH2 0x8EC JUMP JUMPDEST PUSH2 0x4E0 JUMP JUMPDEST PUSH1 0x40 MLOAD PUSH2 0xED SWAP5 SWAP4 SWAP3 SWAP2 SWAP1 PUSH2 0xB5C JUMP JUMPDEST PUSH1 0x40 MLOAD DUP1 SWAP2 SUB SWAP1 RETURN JUMPDEST PUSH2 0x110 PUSH1 0x4 DUP1 CALLDATASIZE SUB DUP2 ADD SWAP1 PUSH2 0x10B SWAP2 SWAP1 PUSH2 0xB06 JUMP JUMPDEST PUSH2 0x642 JUMP JUMPDEST STOP JUMPDEST PUSH0 DUP1 PUSH0 DUP4 PUSH20 0xFFFFFFFFFFFFFFFFFFFFFFFFFFFFFFFFFFFFFFFF AND PUSH20 0xFFFFFFFFFFFFFFFFFFFFFFFFFFFFFFFFFFFFFFFF AND DUP2 MSTORE PUSH1 0x20 ADD SWAP1 DUP2 MSTORE PUSH1 0x20 ADD PUSH0 KECCAK256 PUSH1 0x2 ADD PUSH0 SWAP1 SLOAD SWAP1 PUSH2 0x100 EXP SWAP1 DIV PUSH1 0xFF AND SWAP1 POP SWAP2 SWAP1 POP JUMP JUMPDEST PUSH1 0x60 PUSH0 DUP1 PUSH0 CALLER PUSH20 0xFFFFFFFFFFFFFFFFFFFFFFFFFFFFFFFFFFFFFFFF AND PUSH20 0xFFFFFFFFFFFFFFFFFFFFFFFFFFFFFFFFFFFFFFFF AND DUP2 MSTORE PUSH1 0x20 ADD SWAP1 DUP2 MSTORE PUSH1 0x20 ADD PUSH0 KECCAK256 PUSH1 0x1 ADD DUP1 SLOAD PUSH2 0x1B3 SWAP1 PUSH2 0xBDA JUMP JUMPDEST SWAP1 POP GT PUSH2 0x1F5 JUMPI PUSH1 0x40 MLOAD PUSH32 0x8C379A000000000000000000000000000000000000000000000000000000000 DUP2 MSTORE PUSH1 0x4 ADD PUSH2 0x1EC SWAP1 PUSH2 0xC54 JUMP JUMPDEST PUSH1 0x40 MLOAD DUP1 SWAP2 SUB SWAP1 REVERT JUMPDEST PUSH0 DUP1 CALLER PUSH20 0xFFFFFFFFFFFFFFFFFFFFFFFFFFFFFFFFFFFFFFFF AND PUSH20 0xFFFFFFFFFFFFFFFFFFFFFFFFFFFFFFFFFFFFFFFF AND DUP2 MSTORE PUSH1 0x20 ADD SWAP1 DUP2 MSTORE PUSH1 0x20 ADD PUSH0 KECCAK256 PUSH1 0x3 ADD DUP1 SLOAD PUSH2 0x23F SWAP1 PUSH2 0xBDA JUMP JUMPDEST DUP1 PUSH1 0x1F ADD PUSH1 0x20 DUP1 SWAP2 DIV MUL PUSH1 0x20 ADD PUSH1 0x40 MLOAD SWAP1 DUP2 ADD PUSH1 0x40 MSTORE DUP1 SWAP3 SWAP2 SWAP1 DUP2 DUP2 MSTORE PUSH1 0x20 ADD DUP3 DUP1 SLOAD PUSH2 0x26B SWAP1 PUSH2 0xBDA JUMP JUMPDEST DUP1 ISZERO PUSH2 0x2B6 JUMPI DUP1 PUSH1 0x1F LT PUSH2 0x28D JUMPI PUSH2 0x100 DUP1 DUP4 SLOAD DIV MUL DUP4 MSTORE SWAP2 PUSH1 0x20 ADD SWAP2 PUSH2 0x2B6 JUMP JUMPDEST DUP3 ADD SWAP2 SWAP1 PUSH0 MSTORE PUSH1 0x20 PUSH0 KECCAK256 SWAP1 JUMPDEST DUP2 SLOAD DUP2 MSTORE SWAP1 PUSH1 0x1 ADD SWAP1 PUSH1 0x20 ADD DUP1 DUP4 GT PUSH2 0x299 JUMPI DUP3 SWAP1 SUB PUSH1 0x1F AND DUP3 ADD SWAP2 JUMPDEST POP POP POP POP POP SWAP1 POP SWAP1 JUMP JUMPDEST PUSH0 DUP1 CALLER PUSH20 0xFFFFFFFFFFFFFFFFFFFFFFFFFFFFFFFFFFFFFFFF AND PUSH20 0xFFFFFFFFFFFFFFFFFFFFFFFFFFFFFFFFFFFFFFFF AND DUP2 MSTORE PUSH1 0x20 ADD SWAP1 DUP2 MSTORE PUSH1 0x20 ADD PUSH0 KECCAK256 PUSH1 0x2 ADD PUSH0 SWAP1 SLOAD SWAP1 PUSH2 0x100 EXP SWAP1 DIV PUSH1 0xFF AND ISZERO PUSH2 0x34C JUMPI PUSH1 0x40 MLOAD PUSH32 0x8C379A000000000000000000000000000000000000000000000000000000000 DUP2 MSTORE PUSH1 0x4 ADD PUSH2 0x343 SWAP1 PUSH2 0xCBC JUMP JUMPDEST PUSH1 0x40 MLOAD DUP1 SWAP2 SUB SWAP1 REVERT JUMPDEST PUSH0 PUSH1 0x40 MLOAD DUP1 PUSH1 0x40 ADD PUSH1 0x40 MSTORE DUP1 PUSH1 0x4 DUP2 MSTORE PUSH1 0x20 ADD PUSH32 0x3132333400000000000000000000000000000000000000000000000000000000 DUP2 MSTORE POP SWAP1 POP PUSH1 0x40 MLOAD DUP1 PUSH1 0x80 ADD PUSH1 0x40 MSTORE DUP1 CALLER PUSH20 0xFFFFFFFFFFFFFFFFFFFFFFFFFFFFFFFFFFFFFFFF AND DUP2 MSTORE PUSH1 0x20 ADD DUP4 DUP2 MSTORE PUSH1 0x20 ADD PUSH0 ISZERO ISZERO DUP2 MSTORE PUSH1 0x20 ADD DUP3 DUP2 MSTORE POP PUSH0 DUP1 CALLER PUSH20 0xFFFFFFFFFFFFFFFFFFFFFFFFFFFFFFFFFFFFFFFF AND PUSH20 0xFFFFFFFFFFFFFFFFFFFFFFFFFFFFFFFFFFFFFFFF AND DUP2 MSTORE PUSH1 0x20 ADD SWAP1 DUP2 MSTORE PUSH1 0x20 ADD PUSH0 KECCAK256 PUSH0 DUP3 ADD MLOAD DUP2 PUSH0 ADD PUSH0 PUSH2 0x100 EXP DUP2 SLOAD DUP2 PUSH20 0xFFFFFFFFFFFFFFFFFFFFFFFFFFFFFFFFFFFFFFFF MUL NOT AND SWAP1 DUP4 PUSH20 0xFFFFFFFFFFFFFFFFFFFFFFFFFFFFFFFFFFFFFFFF AND MUL OR SWAP1 SSTORE POP PUSH1 0x20 DUP3 ADD MLOAD DUP2 PUSH1 0x1 ADD SWAP1 DUP2 PUSH2 0x453 SWAP2 SWAP1 PUSH2 0xE80 JUMP JUMPDEST POP PUSH1 0x40 DUP3 ADD MLOAD DUP2 PUSH1 0x2 ADD PUSH0 PUSH2 0x100 EXP DUP2 SLOAD DUP2 PUSH1 0xFF MUL NOT AND SWAP1 DUP4 ISZERO ISZERO MUL OR SWAP1 SSTORE POP PUSH1 0x60 DUP3 ADD MLOAD DUP2 PUSH1 0x3 ADD SWAP1 DUP2 PUSH2 0x488 SWAP2 SWAP1 PUSH2 0xE80 JUMP JUMPDEST POP SWAP1 POP POP CALLER PUSH20 0xFFFFFFFFFFFFFFFFFFFFFFFFFFFFFFFFFFFFFFFF AND PUSH32 0x92822564BAB8864C3A47B34E8D23FBCE5C46234EB5DA261F94087B995AC0F33B DUP4 DUP4 PUSH1 0x40 MLOAD PUSH2 0x4D4 SWAP3 SWAP2 SWAP1 PUSH2 0xF4F JUMP JUMPDEST PUSH1 0x40 MLOAD DUP1 SWAP2 SUB SWAP1 LOG2 POP POP JUMP JUMPDEST PUSH0 PUSH1 0x20 MSTORE DUP1 PUSH0 MSTORE PUSH1 0x40 PUSH0 KECCAK256 PUSH0 SWAP2 POP SWAP1 POP DUP1 PUSH0 ADD PUSH0 SWAP1 SLOAD SWAP1 PUSH2 0x100 EXP SWAP1 DIV PUSH20 0xFFFFFFFFFFFFFFFFFFFFFFFFFFFFFFFFFFFFFFFF AND SWAP1 DUP1 PUSH1 0x1 ADD DUP1 SLOAD PUSH2 0x523 SWAP1 PUSH2 0xBDA JUMP JUMPDEST DUP1 PUSH1 0x1F ADD PUSH1 0x20 DUP1 SWAP2 DIV MUL PUSH1 0x20 ADD PUSH1 0x40 MLOAD SWAP1 DUP2 ADD PUSH1 0x40 MSTORE DUP1 SWAP3 SWAP2 SWAP1 DUP2 DUP2 MSTORE PUSH1 0x20 ADD DUP3 DUP1 SLOAD PUSH2 0x54F SWAP1 PUSH2 0xBDA JUMP JUMPDEST DUP1 ISZERO PUSH2 0x59A JUMPI DUP1 PUSH1 0x1F LT PUSH2 0x571 JUMPI PUSH2 0x100 DUP1 DUP4 SLOAD DIV MUL DUP4 MSTORE SWAP2 PUSH1 0x20 ADD SWAP2 PUSH2 0x59A JUMP JUMPDEST DUP3 ADD SWAP2 SWAP1 PUSH0 MSTORE PUSH1 0x20 PUSH0 KECCAK256 SWAP1 JUMPDEST DUP2 SLOAD DUP2 MSTORE SWAP1 PUSH1 0x1 ADD SWAP1 PUSH1 0x20 ADD DUP1 DUP4 GT PUSH2 0x57D JUMPI DUP3 SWAP1 SUB PUSH1 0x1F AND DUP3 ADD SWAP2 JUMPDEST POP POP POP POP POP SWAP1 DUP1 PUSH1 0x2 ADD PUSH0 SWAP1 SLOAD SWAP1 PUSH2 0x100 EXP SWAP1 DIV PUSH1 0xFF AND SWAP1 DUP1 PUSH1 0x3 ADD DUP1 SLOAD PUSH2 0x5C1 SWAP1 PUSH2 0xBDA JUMP JUMPDEST DUP1 PUSH1 0x1F ADD PUSH1 0x20 DUP1 SWAP2 DIV MUL PUSH1 0x20 ADD PUSH1 0x40 MLOAD SWAP1 DUP2 ADD PUSH1 0x40 MSTORE DUP1 SWAP3 SWAP2 SWAP1 DUP2 DUP2 MSTORE PUSH1 0x20 ADD DUP3 DUP1 SLOAD PUSH2 0x5ED SWAP1 PUSH2 0xBDA JUMP JUMPDEST DUP1 ISZERO PUSH2 0x638 JUMPI DUP1 PUSH1 0x1F LT PUSH2 0x60F JUMPI PUSH2 0x100 DUP1 DUP4 SLOAD DIV MUL DUP4 MSTORE SWAP2 PUSH1 0x20 ADD SWAP2 PUSH2 0x638 JUMP JUMPDEST DUP3 ADD SWAP2 SWAP1 PUSH0 MSTORE PUSH1 0x20 PUSH0 KECCAK256 SWAP1 JUMPDEST DUP2 SLOAD DUP2 MSTORE SWAP1 PUSH1 0x1 ADD SWAP1 PUSH1 0x20 ADD DUP1 DUP4 GT PUSH2 0x61B JUMPI DUP3 SWAP1 SUB PUSH1 0x1F AND DUP3 ADD SWAP2 JUMPDEST POP POP POP POP POP SWAP1 POP DUP5 JUMP JUMPDEST PUSH0 DUP1 PUSH0 CALLER PUSH20 0xFFFFFFFFFFFFFFFFFFFFFFFFFFFFFFFFFFFFFFFF AND PUSH20 0xFFFFFFFFFFFFFFFFFFFFFFFFFFFFFFFFFFFFFFFF AND DUP2 MSTORE PUSH1 0x20 ADD SWAP1 DUP2 MSTORE PUSH1 0x20 ADD PUSH0 KECCAK256 PUSH1 0x3 ADD DUP1 SLOAD PUSH2 0x68D SWAP1 PUSH2 0xBDA JUMP JUMPDEST SWAP1 POP GT PUSH2 0x6CF JUMPI PUSH1 0x40 MLOAD PUSH32 0x8C379A000000000000000000000000000000000000000000000000000000000 DUP2 MSTORE PUSH1 0x4 ADD PUSH2 0x6C6 SWAP1 PUSH2 0xC54 JUMP JUMPDEST PUSH1 0x40 MLOAD DUP1 SWAP2 SUB SWAP1 REVERT JUMPDEST PUSH0 DUP1 CALLER PUSH20 0xFFFFFFFFFFFFFFFFFFFFFFFFFFFFFFFFFFFFFFFF AND PUSH20 0xFFFFFFFFFFFFFFFFFFFFFFFFFFFFFFFFFFFFFFFF AND DUP2 MSTORE PUSH1 0x20 ADD SWAP1 DUP2 MSTORE PUSH1 0x20 ADD PUSH0 KECCAK256 PUSH1 0x2 ADD PUSH0 SWAP1 SLOAD SWAP1 PUSH2 0x100 EXP SWAP1 DIV PUSH1 0xFF AND ISZERO PUSH2 0x75B JUMPI PUSH1 0x40 MLOAD PUSH32 0x8C379A000000000000000000000000000000000000000000000000000000000 DUP2 MSTORE PUSH1 0x4 ADD PUSH2 0x752 SWAP1 PUSH2 0xFCE JUMP JUMPDEST PUSH1 0x40 MLOAD DUP1 SWAP2 SUB SWAP1 REVERT JUMPDEST DUP1 PUSH1 0x40 MLOAD PUSH1 0x20 ADD PUSH2 0x76C SWAP2 SWAP1 PUSH2 0x1026 JUMP JUMPDEST PUSH1 0x40 MLOAD PUSH1 0x20 DUP2 DUP4 SUB SUB DUP2 MSTORE SWAP1 PUSH1 0x40 MSTORE DUP1 MLOAD SWAP1 PUSH1 0x20 ADD KECCAK256 PUSH0 DUP1 CALLER PUSH20 0xFFFFFFFFFFFFFFFFFFFFFFFFFFFFFFFFFFFFFFFF AND PUSH20 0xFFFFFFFFFFFFFFFFFFFFFFFFFFFFFFFFFFFFFFFF AND DUP2 MSTORE PUSH1 0x20 ADD SWAP1 DUP2 MSTORE PUSH1 0x20 ADD PUSH0 KECCAK256 PUSH1 0x3 ADD PUSH1 0x40 MLOAD PUSH1 0x20 ADD PUSH2 0x7D1 SWAP2 SWAP1 PUSH2 0x10BC JUMP JUMPDEST PUSH1 0x40 MLOAD PUSH1 0x20 DUP2 DUP4 SUB SUB DUP2 MSTORE SWAP1 PUSH1 0x40 MSTORE DUP1 MLOAD SWAP1 PUSH1 0x20 ADD KECCAK256 EQ PUSH2 0x827 JUMPI PUSH1 0x40 MLOAD PUSH32 0x8C379A000000000000000000000000000000000000000000000000000000000 DUP2 MSTORE PUSH1 0x4 ADD PUSH2 0x81E SWAP1 PUSH2 0x111C JUMP JUMPDEST PUSH1 0x40 MLOAD DUP1 SWAP2 SUB SWAP1 REVERT JUMPDEST PUSH1 0x1 PUSH0 DUP1 CALLER PUSH20 0xFFFFFFFFFFFFFFFFFFFFFFFFFFFFFFFFFFFFFFFF AND PUSH20 0xFFFFFFFFFFFFFFFFFFFFFFFFFFFFFFFFFFFFFFFF AND DUP2 MSTORE PUSH1 0x20 ADD SWAP1 DUP2 MSTORE PUSH1 0x20 ADD PUSH0 KECCAK256 PUSH1 0x2 ADD PUSH0 PUSH2 0x100 EXP DUP2 SLOAD DUP2 PUSH1 0xFF MUL NOT AND SWAP1 DUP4 ISZERO ISZERO MUL OR SWAP1 SSTORE POP POP JUMP JUMPDEST PUSH0 PUSH1 0x40 MLOAD SWAP1 POP SWAP1 JUMP JUMPDEST PUSH0 DUP1 REVERT JUMPDEST PUSH0 DUP1 REVERT JUMPDEST PUSH0 PUSH20 0xFFFFFFFFFFFFFFFFFFFFFFFFFFFFFFFFFFFFFFFF DUP3 AND SWAP1 POP SWAP2 SWAP1 POP JUMP JUMPDEST PUSH0 PUSH2 0x8BB DUP3 PUSH2 0x892 JUMP JUMPDEST SWAP1 POP SWAP2 SWAP1 POP JUMP JUMPDEST PUSH2 0x8CB DUP2 PUSH2 0x8B1 JUMP JUMPDEST DUP2 EQ PUSH2 0x8D5 JUMPI PUSH0 DUP1 REVERT JUMPDEST POP JUMP JUMPDEST PUSH0 DUP2 CALLDATALOAD SWAP1 POP PUSH2 0x8E6 DUP2 PUSH2 0x8C2 JUMP JUMPDEST SWAP3 SWAP2 POP POP JUMP JUMPDEST PUSH0 PUSH1 0x20 DUP3 DUP5 SUB SLT ISZERO PUSH2 0x901 JUMPI PUSH2 0x900 PUSH2 0x88A JUMP JUMPDEST JUMPDEST PUSH0 PUSH2 0x90E DUP5 DUP3 DUP6 ADD PUSH2 0x8D8 JUMP JUMPDEST SWAP2 POP POP SWAP3 SWAP2 POP POP JUMP JUMPDEST PUSH0 DUP2 ISZERO ISZERO SWAP1 POP SWAP2 SWAP1 POP JUMP JUMPDEST PUSH2 0x92B DUP2 PUSH2 0x917 JUMP JUMPDEST DUP3 MSTORE POP POP JUMP JUMPDEST PUSH0 PUSH1 0x20 DUP3 ADD SWAP1 POP PUSH2 0x944 PUSH0 DUP4 ADD DUP5 PUSH2 0x922 JUMP JUMPDEST SWAP3 SWAP2 POP POP JUMP JUMPDEST PUSH0 DUP2 MLOAD SWAP1 POP SWAP2 SWAP1 POP JUMP JUMPDEST PUSH0 DUP3 DUP3 MSTORE PUSH1 0x20 DUP3 ADD SWAP1 POP SWAP3 SWAP2 POP POP JUMP JUMPDEST DUP3 DUP2 DUP4 MCOPY PUSH0 DUP4 DUP4 ADD MSTORE POP POP POP JUMP JUMPDEST PUSH0 PUSH1 0x1F NOT PUSH1 0x1F DUP4 ADD AND SWAP1 POP SWAP2 SWAP1 POP JUMP JUMPDEST PUSH0 PUSH2 0x98C DUP3 PUSH2 0x94A JUMP JUMPDEST PUSH2 0x996 DUP2 DUP6 PUSH2 0x954 JUMP JUMPDEST SWAP4 POP PUSH2 0x9A6 DUP2 DUP6 PUSH1 0x20 DUP7 ADD PUSH2 0x964 JUMP JUMPDEST PUSH2 0x9AF DUP2 PUSH2 0x972 JUMP JUMPDEST DUP5 ADD SWAP2 POP POP SWAP3 SWAP2 POP POP JUMP JUMPDEST PUSH0 PUSH1 0x20 DUP3 ADD SWAP1 POP DUP2 DUP2 SUB PUSH0 DUP4 ADD MSTORE PUSH2 0x9D2 DUP2 DUP5 PUSH2 0x982 JUMP JUMPDEST SWAP1 POP SWAP3 SWAP2 POP POP JUMP JUMPDEST PUSH0 DUP1 REVERT JUMPDEST PUSH0 DUP1 REVERT JUMPDEST PUSH32 0x4E487B7100000000000000000000000000000000000000000000000000000000 PUSH0 MSTORE PUSH1 0x41 PUSH1 0x4 MSTORE PUSH1 0x24 PUSH0 REVERT JUMPDEST PUSH2 0xA18 DUP3 PUSH2 0x972 JUMP JUMPDEST DUP2 ADD DUP2 DUP2 LT PUSH8 0xFFFFFFFFFFFFFFFF DUP3 GT OR ISZERO PUSH2 0xA37 JUMPI PUSH2 0xA36 PUSH2 0x9E2 JUMP JUMPDEST JUMPDEST DUP1 PUSH1 0x40 MSTORE POP POP POP JUMP JUMPDEST PUSH0 PUSH2 0xA49 PUSH2 0x881 JUMP JUMPDEST SWAP1 POP PUSH2 0xA55 DUP3 DUP3 PUSH2 0xA0F JUMP JUMPDEST SWAP2 SWAP1 POP JUMP JUMPDEST PUSH0 PUSH8 0xFFFFFFFFFFFFFFFF DUP3 GT ISZERO PUSH2 0xA74 JUMPI PUSH2 0xA73 PUSH2 0x9E2 JUMP JUMPDEST JUMPDEST PUSH2 0xA7D DUP3 PUSH2 0x972 JUMP JUMPDEST SWAP1 POP PUSH1 0x20 DUP2 ADD SWAP1 POP SWAP2 SWAP1 POP JUMP JUMPDEST DUP3 DUP2 DUP4 CALLDATACOPY PUSH0 DUP4 DUP4 ADD MSTORE POP POP POP JUMP JUMPDEST PUSH0 PUSH2 0xAAA PUSH2 0xAA5 DUP5 PUSH2 0xA5A JUMP JUMPDEST PUSH2 0xA40 JUMP JUMPDEST SWAP1 POP DUP3 DUP2 MSTORE PUSH1 0x20 DUP2 ADD DUP5 DUP5 DUP5 ADD GT ISZERO PUSH2 0xAC6 JUMPI PUSH2 0xAC5 PUSH2 0x9DE JUMP JUMPDEST JUMPDEST PUSH2 0xAD1 DUP5 DUP3 DUP6 PUSH2 0xA8A JUMP JUMPDEST POP SWAP4 SWAP3 POP POP POP JUMP JUMPDEST PUSH0 DUP3 PUSH1 0x1F DUP4 ADD SLT PUSH2 0xAED JUMPI PUSH2 0xAEC PUSH2 0x9DA JUMP JUMPDEST JUMPDEST DUP2 CALLDATALOAD PUSH2 0xAFD DUP5 DUP3 PUSH1 0x20 DUP7 ADD PUSH2 0xA98 JUMP JUMPDEST SWAP2 POP POP SWAP3 SWAP2 POP POP JUMP JUMPDEST PUSH0 PUSH1 0x20 DUP3 DUP5 SUB SLT ISZERO PUSH2 0xB1B JUMPI PUSH2 0xB1A PUSH2 0x88A JUMP JUMPDEST JUMPDEST PUSH0 DUP3 ADD CALLDATALOAD PUSH8 0xFFFFFFFFFFFFFFFF DUP2 GT ISZERO PUSH2 0xB38 JUMPI PUSH2 0xB37 PUSH2 0x88E JUMP JUMPDEST JUMPDEST PUSH2 0xB44 DUP5 DUP3 DUP6 ADD PUSH2 0xAD9 JUMP JUMPDEST SWAP2 POP POP SWAP3 SWAP2 POP POP JUMP JUMPDEST PUSH2 0xB56 DUP2 PUSH2 0x8B1 JUMP JUMPDEST DUP3 MSTORE POP POP JUMP JUMPDEST PUSH0 PUSH1 0x80 DUP3 ADD SWAP1 POP PUSH2 0xB6F PUSH0 DUP4 ADD DUP8 PUSH2 0xB4D JUMP JUMPDEST DUP2 DUP2 SUB PUSH1 0x20 DUP4 ADD MSTORE PUSH2 0xB81 DUP2 DUP7 PUSH2 0x982 JUMP JUMPDEST SWAP1 POP PUSH2 0xB90 PUSH1 0x40 DUP4 ADD DUP6 PUSH2 0x922 JUMP JUMPDEST DUP2 DUP2 SUB PUSH1 0x60 DUP4 ADD MSTORE PUSH2 0xBA2 DUP2 DUP5 PUSH2 0x982 JUMP JUMPDEST SWAP1 POP SWAP6 SWAP5 POP POP POP POP POP JUMP JUMPDEST PUSH32 0x4E487B7100000000000000000000000000000000000000000000000000000000 PUSH0 MSTORE PUSH1 0x22 PUSH1 0x4 MSTORE PUSH1 0x24 PUSH0 REVERT JUMPDEST PUSH0 PUSH1 0x2 DUP3 DIV SWAP1 POP PUSH1 0x1 DUP3 AND DUP1 PUSH2 0xBF1 JUMPI PUSH1 0x7F DUP3 AND SWAP2 POP JUMPDEST PUSH1 0x20 DUP3 LT DUP2 SUB PUSH2 0xC04 JUMPI PUSH2 0xC03 PUSH2 0xBAD JUMP JUMPDEST JUMPDEST POP SWAP2 SWAP1 POP JUMP JUMPDEST PUSH32 0x55736572206973206E6F74207265676973746572656400000000000000000000 PUSH0 DUP3 ADD MSTORE POP JUMP JUMPDEST PUSH0 PUSH2 0xC3E PUSH1 0x16 DUP4 PUSH2 0x954 JUMP JUMPDEST SWAP2 POP PUSH2 0xC49 DUP3 PUSH2 0xC0A JUMP JUMPDEST PUSH1 0x20 DUP3 ADD SWAP1 POP SWAP2 SWAP1 POP JUMP JUMPDEST PUSH0 PUSH1 0x20 DUP3 ADD SWAP1 POP DUP2 DUP2 SUB PUSH0 DUP4 ADD MSTORE PUSH2 0xC6B DUP2 PUSH2 0xC32 JUMP JUMPDEST SWAP1 POP SWAP2 SWAP1 POP JUMP JUMPDEST PUSH32 0x5573657220616C72656164792072656769737465726564000000000000000000 PUSH0 DUP3 ADD MSTORE POP JUMP JUMPDEST PUSH0 PUSH2 0xCA6 PUSH1 0x17 DUP4 PUSH2 0x954 JUMP JUMPDEST SWAP2 POP PUSH2 0xCB1 DUP3 PUSH2 0xC72 JUMP JUMPDEST PUSH1 0x20 DUP3 ADD SWAP1 POP SWAP2 SWAP1 POP JUMP JUMPDEST PUSH0 PUSH1 0x20 DUP3 ADD SWAP1 POP DUP2 DUP2 SUB PUSH0 DUP4 ADD MSTORE PUSH2 0xCD3 DUP2 PUSH2 0xC9A JUMP JUMPDEST SWAP1 POP SWAP2 SWAP1 POP JUMP JUMPDEST PUSH0 DUP2 SWAP1 POP DUP2 PUSH0 MSTORE PUSH1 0x20 PUSH0 KECCAK256 SWAP1 POP SWAP2 SWAP1 POP JUMP JUMPDEST PUSH0 PUSH1 0x20 PUSH1 0x1F DUP4 ADD DIV SWAP1 POP SWAP2 SWAP1 POP JUMP JUMPDEST PUSH0 DUP3 DUP3 SHL SWAP1 POP SWAP3 SWAP2 POP POP JUMP JUMPDEST PUSH0 PUSH1 0x8 DUP4 MUL PUSH2 0xD36 PUSH32 0xFFFFFFFFFFFFFFFFFFFFFFFFFFFFFFFFFFFFFFFFFFFFFFFFFFFFFFFFFFFFFFFF DUP3 PUSH2 0xCFB JUMP JUMPDEST PUSH2 0xD40 DUP7 DUP4 PUSH2 0xCFB JUMP JUMPDEST SWAP6 POP DUP1 NOT DUP5 AND SWAP4 POP DUP1 DUP7 AND DUP5 OR SWAP3 POP POP POP SWAP4 SWAP3 POP POP POP JUMP JUMPDEST PUSH0 DUP2 SWAP1 POP SWAP2 SWAP1 POP JUMP JUMPDEST PUSH0 DUP2 SWAP1 POP SWAP2 SWAP1 POP JUMP JUMPDEST PUSH0 PUSH2 0xD84 PUSH2 0xD7F PUSH2 0xD7A DUP5 PUSH2 0xD58 JUMP JUMPDEST PUSH2 0xD61 JUMP JUMPDEST PUSH2 0xD58 JUMP JUMPDEST SWAP1 POP SWAP2 SWAP1 POP JUMP JUMPDEST PUSH0 DUP2 SWAP1 POP SWAP2 SWAP1 POP JUMP JUMPDEST PUSH2 0xD9D DUP4 PUSH2 0xD6A JUMP JUMPDEST PUSH2 0xDB1 PUSH2 0xDA9 DUP3 PUSH2 0xD8B JUMP JUMPDEST DUP5 DUP5 SLOAD PUSH2 0xD07 JUMP JUMPDEST DUP3 SSTORE POP POP POP POP JUMP JUMPDEST PUSH0 SWAP1 JUMP JUMPDEST PUSH2 0xDC5 PUSH2 0xDB9 JUMP JUMPDEST PUSH2 0xDD0 DUP2 DUP5 DUP5 PUSH2 0xD94 JUMP JUMPDEST POP POP POP JUMP JUMPDEST JUMPDEST DUP2 DUP2 LT ISZERO PUSH2 0xDF3 JUMPI PUSH2 0xDE8 PUSH0 DUP3 PUSH2 0xDBD JUMP JUMPDEST PUSH1 0x1 DUP2 ADD SWAP1 POP PUSH2 0xDD6 JUMP JUMPDEST POP POP JUMP JUMPDEST PUSH1 0x1F DUP3 GT ISZERO PUSH2 0xE38 JUMPI PUSH2 0xE09 DUP2 PUSH2 0xCDA JUMP JUMPDEST PUSH2 0xE12 DUP5 PUSH2 0xCEC JUMP JUMPDEST DUP2 ADD PUSH1 0x20 DUP6 LT ISZERO PUSH2 0xE21 JUMPI DUP2 SWAP1 POP JUMPDEST PUSH2 0xE35 PUSH2 0xE2D DUP6 PUSH2 0xCEC JUMP JUMPDEST DUP4 ADD DUP3 PUSH2 0xDD5 JUMP JUMPDEST POP POP JUMPDEST POP POP POP JUMP JUMPDEST PUSH0 DUP3 DUP3 SHR SWAP1 POP SWAP3 SWAP2 POP POP JUMP JUMPDEST PUSH0 PUSH2 0xE58 PUSH0 NOT DUP5 PUSH1 0x8 MUL PUSH2 0xE3D JUMP JUMPDEST NOT DUP1 DUP4 AND SWAP2 POP POP SWAP3 SWAP2 POP POP JUMP JUMPDEST PUSH0 PUSH2 0xE70 DUP4 DUP4 PUSH2 0xE49 JUMP JUMPDEST SWAP2 POP DUP3 PUSH1 0x2 MUL DUP3 OR SWAP1 POP SWAP3 SWAP2 POP POP JUMP JUMPDEST PUSH2 0xE89 DUP3 PUSH2 0x94A JUMP JUMPDEST PUSH8 0xFFFFFFFFFFFFFFFF DUP2 GT ISZERO PUSH2 0xEA2 JUMPI PUSH2 0xEA1 PUSH2 0x9E2 JUMP JUMPDEST JUMPDEST PUSH2 0xEAC DUP3 SLOAD PUSH2 0xBDA JUMP JUMPDEST PUSH2 0xEB7 DUP3 DUP3 DUP6 PUSH2 0xDF7 JUMP JUMPDEST PUSH0 PUSH1 0x20 SWAP1 POP PUSH1 0x1F DUP4 GT PUSH1 0x1 DUP2 EQ PUSH2 0xEE8 JUMPI PUSH0 DUP5 ISZERO PUSH2 0xED6 JUMPI DUP3 DUP8 ADD MLOAD SWAP1 POP JUMPDEST PUSH2 0xEE0 DUP6 DUP3 PUSH2 0xE65 JUMP JUMPDEST DUP7 SSTORE POP PUSH2 0xF47 JUMP JUMPDEST PUSH1 0x1F NOT DUP5 AND PUSH2 0xEF6 DUP7 PUSH2 0xCDA JUMP JUMPDEST PUSH0 JUMPDEST DUP3 DUP2 LT ISZERO PUSH2 0xF1D JUMPI DUP5 DUP10 ADD MLOAD DUP3 SSTORE PUSH1 0x1 DUP3 ADD SWAP2 POP PUSH1 0x20 DUP6 ADD SWAP5 POP PUSH1 0x20 DUP2 ADD SWAP1 POP PUSH2 0xEF8 JUMP JUMPDEST DUP7 DUP4 LT ISZERO PUSH2 0xF3A JUMPI DUP5 DUP10 ADD MLOAD PUSH2 0xF36 PUSH1 0x1F DUP10 AND DUP3 PUSH2 0xE49 JUMP JUMPDEST DUP4 SSTORE POP JUMPDEST PUSH1 0x1 PUSH1 0x2 DUP9 MUL ADD DUP9 SSTORE POP POP POP JUMPDEST POP POP POP POP POP POP JUMP JUMPDEST PUSH0 PUSH1 0x40 DUP3 ADD SWAP1 POP DUP2 DUP2 SUB PUSH0 DUP4 ADD MSTORE PUSH2 0xF67 DUP2 DUP6 PUSH2 0x982 JUMP JUMPDEST SWAP1 POP DUP2 DUP2 SUB PUSH1 0x20 DUP4 ADD MSTORE PUSH2 0xF7B DUP2 DUP5 PUSH2 0x982 JUMP JUMPDEST SWAP1 POP SWAP4 SWAP3 POP POP POP JUMP JUMPDEST PUSH32 0x5573657220697320616C72656164792076657269666965640000000000000000 PUSH0 DUP3 ADD MSTORE POP JUMP JUMPDEST PUSH0 PUSH2 0xFB8 PUSH1 0x18 DUP4 PUSH2 0x954 JUMP JUMPDEST SWAP2 POP PUSH2 0xFC3 DUP3 PUSH2 0xF84 JUMP JUMPDEST PUSH1 0x20 DUP3 ADD SWAP1 POP SWAP2 SWAP1 POP JUMP JUMPDEST PUSH0 PUSH1 0x20 DUP3 ADD SWAP1 POP DUP2 DUP2 SUB PUSH0 DUP4 ADD MSTORE PUSH2 0xFE5 DUP2 PUSH2 0xFAC JUMP JUMPDEST SWAP1 POP SWAP2 SWAP1 POP JUMP JUMPDEST PUSH0 DUP2 SWAP1 POP SWAP3 SWAP2 POP POP JUMP JUMPDEST PUSH0 PUSH2 0x1000 DUP3 PUSH2 0x94A JUMP JUMPDEST PUSH2 0x100A DUP2 DUP6 PUSH2 0xFEC JUMP JUMPDEST SWAP4 POP PUSH2 0x101A DUP2 DUP6 PUSH1 0x20 DUP7 ADD PUSH2 0x964 JUMP JUMPDEST DUP1 DUP5 ADD SWAP2 POP POP SWAP3 SWAP2 POP POP JUMP JUMPDEST PUSH0 PUSH2 0x1031 DUP3 DUP5 PUSH2 0xFF6 JUMP JUMPDEST SWAP2 POP DUP2 SWAP1 POP SWAP3 SWAP2 POP POP JUMP JUMPDEST PUSH0 DUP2 SLOAD PUSH2 0x1048 DUP2 PUSH2 0xBDA JUMP JUMPDEST PUSH2 0x1052 DUP2 DUP7 PUSH2 0xFEC JUMP JUMPDEST SWAP5 POP PUSH1 0x1 DUP3 AND PUSH0 DUP2 EQ PUSH2 0x106C JUMPI PUSH1 0x1 DUP2 EQ PUSH2 0x1081 JUMPI PUSH2 0x10B3 JUMP JUMPDEST PUSH1 0xFF NOT DUP4 AND DUP7 MSTORE DUP2 ISZERO ISZERO DUP3 MUL DUP7 ADD SWAP4 POP PUSH2 0x10B3 JUMP JUMPDEST PUSH2 0x108A DUP6 PUSH2 0xCDA JUMP JUMPDEST PUSH0 JUMPDEST DUP4 DUP2 LT ISZERO PUSH2 0x10AB JUMPI DUP2 SLOAD DUP2 DUP10 ADD MSTORE PUSH1 0x1 DUP3 ADD SWAP2 POP PUSH1 0x20 DUP2 ADD SWAP1 POP PUSH2 0x108C JUMP JUMPDEST DUP4 DUP9 ADD SWAP6 POP POP POP JUMPDEST POP POP POP SWAP3 SWAP2 POP POP JUMP JUMPDEST PUSH0 PUSH2 0x10C7 DUP3 DUP5 PUSH2 0x103C JUMP JUMPDEST SWAP2 POP DUP2 SWAP1 POP SWAP3 SWAP2 POP POP JUMP JUMPDEST PUSH32 0x496E76616C696420766572696669636174696F6E20636F646500000000000000 PUSH0 DUP3 ADD MSTORE POP JUMP JUMPDEST PUSH0 PUSH2 0x1106 PUSH1 0x19 DUP4 PUSH2 0x954 JUMP JUMPDEST SWAP2 POP PUSH2 0x1111 DUP3 PUSH2 0x10D2 JUMP JUMPDEST PUSH1 0x20 DUP3 ADD SWAP1 POP SWAP2 SWAP1 POP JUMP JUMPDEST PUSH0 PUSH1 0x20 DUP3 ADD SWAP1 POP DUP2 DUP2 SUB PUSH0 DUP4 ADD MSTORE PUSH2 0x1133 DUP2 PUSH2 0x10FA JUMP JUMPDEST SWAP1 POP SWAP2 SWAP1 POP JUMP INVALID LOG2 PUSH5 0x6970667358 0x22 SLT KECCAK256 0xF7 CALLDATASIZE DUP11 PREVRANDAO 0x2E SLOAD ISZERO 0xBF SWAP16 JUMPDEST 0xD1 BYTE PUSH21 0xEA0B541219E91EE613BE0B17B50CF3E875602E6473 PUSH16 0x6C634300081A00330000000000000000 "
				},
				"gasEstimates": {
					"creation": {
						"codeDepositCost": "892800",
						"executionCost": "927",
						"totalCost": "893727"
					},
					"external": {
						"isUserRegistered(address)": "2854",
						"registerUser(string)": "infinite",
						"sendVerificationCode()": "infinite",
						"users(address)": "infinite",
						"verifyUser(string)": "infinite"
					}
				},
				"methodIdentifiers": {
					"isUserRegistered(address)": "163f7522",
					"registerUser(string)": "704f1b94",
					"sendVerificationCode()": "426fb015",
					"users(address)": "a87430ba",
					"verifyUser(string)": "e600c817"
				}
			},
			"storageLayout": {
				"storage": [
					{
						"astId": 264,
						"contract": "contracts/Updated_1/UserContract.sol:UserContract",
						"label": "users",
						"offset": 0,
						"slot": "0",
						"type": "t_mapping(t_address,t_struct(User)259_storage)"
					}
				],
				"types": {
					"t_address": {
						"encoding": "inplace",
						"label": "address",
						"numberOfBytes": "20"
					},
					"t_bool": {
						"encoding": "inplace",
						"label": "bool",
						"numberOfBytes": "1"
					},
					"t_mapping(t_address,t_struct(User)259_storage)": {
						"encoding": "mapping",
						"key": "t_address",
						"label": "mapping(address => struct UserContract.User)",
						"numberOfBytes": "32",
						"value": "t_struct(User)259_storage"
					},
					"t_string_storage": {
						"encoding": "bytes",
						"label": "string",
						"numberOfBytes": "32"
					},
					"t_struct(User)259_storage": {
						"encoding": "inplace",
						"label": "struct UserContract.User",
						"members": [
							{
								"astId": 252,
								"contract": "contracts/Updated_1/UserContract.sol:UserContract",
								"label": "walletAddress",
								"offset": 0,
								"slot": "0",
								"type": "t_address"
							},
							{
								"astId": 254,
								"contract": "contracts/Updated_1/UserContract.sol:UserContract",
								"label": "email",
								"offset": 0,
								"slot": "1",
								"type": "t_string_storage"
							},
							{
								"astId": 256,
								"contract": "contracts/Updated_1/UserContract.sol:UserContract",
								"label": "isRegistered",
								"offset": 0,
								"slot": "2",
								"type": "t_bool"
							},
							{
								"astId": 258,
								"contract": "contracts/Updated_1/UserContract.sol:UserContract",
								"label": "verificationCode",
								"offset": 0,
								"slot": "3",
								"type": "t_string_storage"
							}
						],
						"numberOfBytes": "128"
					}
				}
			},
			"userdoc": {
				"kind": "user",
				"methods": {},
				"version": 1
			}
		}
	}
}