{
	"contracts/19_New_TransactionContract.sol": {
		"TransactionContract": {
			"abi": [
				{
					"anonymous": false,
					"inputs": [
						{
							"indexed": false,
							"internalType": "uint256",
							"name": "transactionId",
							"type": "uint256"
						}
					],
					"name": "TransactionCompleted",
					"type": "event"
				},
				{
					"anonymous": false,
					"inputs": [
						{
							"indexed": false,
							"internalType": "uint256",
							"name": "transactionId",
							"type": "uint256"
						},
						{
							"indexed": false,
							"internalType": "uint256",
							"name": "propertyId",
							"type": "uint256"
						},
						{
							"indexed": false,
							"internalType": "address",
							"name": "buyer",
							"type": "address"
						},
						{
							"indexed": false,
							"internalType": "address",
							"name": "seller",
							"type": "address"
						},
						{
							"indexed": false,
							"internalType": "uint256",
							"name": "price",
							"type": "uint256"
						}
					],
					"name": "TransactionInitiated",
					"type": "event"
				},
				{
					"anonymous": false,
					"inputs": [
						{
							"indexed": false,
							"internalType": "uint256",
							"name": "transactionId",
							"type": "uint256"
						}
					],
					"name": "TransactionVerified",
					"type": "event"
				},
				{
					"inputs": [
						{
							"internalType": "uint256",
							"name": "transactionId",
							"type": "uint256"
						}
					],
					"name": "completeTransaction",
					"outputs": [],
					"stateMutability": "nonpayable",
					"type": "function"
				},
				{
					"inputs": [
						{
							"internalType": "uint256",
							"name": "transactionId",
							"type": "uint256"
						},
						{
							"internalType": "uint256",
							"name": "propertyId",
							"type": "uint256"
						},
						{
							"internalType": "address",
							"name": "buyer",
							"type": "address"
						},
						{
							"internalType": "address",
							"name": "seller",
							"type": "address"
						},
						{
							"internalType": "uint256",
							"name": "price",
							"type": "uint256"
						}
					],
					"name": "initiateTransaction",
					"outputs": [],
					"stateMutability": "nonpayable",
					"type": "function"
				},
				{
					"inputs": [
						{
							"internalType": "uint256",
							"name": "transactionId",
							"type": "uint256"
						}
					],
					"name": "verifyTransaction",
					"outputs": [],
					"stateMutability": "nonpayable",
					"type": "function"
				}
			],
			"devdoc": {
				"kind": "dev",
				"methods": {},
				"version": 1
			},
			"evm": {
				"assembly": "    /* \"contracts/19_New_TransactionContract.sol\":60:1644  contract TransactionContract {... */\n  mstore(0x40, 0x80)\n  callvalue\n  dup1\n  iszero\n  tag_1\n  jumpi\n  0x00\n  dup1\n  revert\ntag_1:\n  pop\n  dataSize(sub_0)\n  dup1\n  dataOffset(sub_0)\n  0x00\n  codecopy\n  0x00\n  return\nstop\n\nsub_0: assembly {\n        /* \"contracts/19_New_TransactionContract.sol\":60:1644  contract TransactionContract {... */\n      mstore(0x40, 0x80)\n      callvalue\n      dup1\n      iszero\n      tag_1\n      jumpi\n      0x00\n      dup1\n      revert\n    tag_1:\n      pop\n      jumpi(tag_2, lt(calldatasize, 0x04))\n      shr(0xe0, calldataload(0x00))\n      dup1\n      0x332b888d\n      eq\n      tag_3\n      jumpi\n      dup1\n      0xb2d72126\n      eq\n      tag_4\n      jumpi\n      dup1\n      0xf5e83e17\n      eq\n      tag_5\n      jumpi\n    tag_2:\n      0x00\n      dup1\n      revert\n        /* \"contracts/19_New_TransactionContract.sol\":1015:1279  function verifyTransaction(uint transactionId) public {... */\n    tag_3:\n      tag_6\n      0x04\n      dup1\n      calldatasize\n      sub\n      dup2\n      add\n      swap1\n      tag_7\n      swap2\n      swap1\n      tag_8\n      jump\t// in\n    tag_7:\n      tag_9\n      jump\t// in\n    tag_6:\n      stop\n        /* \"contracts/19_New_TransactionContract.sol\":587:1007  function initiateTransaction(uint transactionId, uint propertyId, address buyer, address seller, uint price) public {... */\n    tag_4:\n      tag_10\n      0x04\n      dup1\n      calldatasize\n      sub\n      dup2\n      add\n      swap1\n      tag_11\n      swap2\n      swap1\n      tag_12\n      jump\t// in\n    tag_11:\n      tag_13\n      jump\t// in\n    tag_10:\n      stop\n        /* \"contracts/19_New_TransactionContract.sol\":1287:1641  function completeTransaction(uint transactionId) public {... */\n    tag_5:\n      tag_14\n      0x04\n      dup1\n      calldatasize\n      sub\n      dup2\n      add\n      swap1\n      tag_15\n      swap2\n      swap1\n      tag_8\n      jump\t// in\n    tag_15:\n      tag_16\n      jump\t// in\n    tag_14:\n      stop\n        /* \"contracts/19_New_TransactionContract.sol\":1015:1279  function verifyTransaction(uint transactionId) public {... */\n    tag_9:\n        /* \"contracts/19_New_TransactionContract.sol\":1133:1134  0 */\n      0x00\n        /* \"contracts/19_New_TransactionContract.sol\":1088:1100  transactions */\n      dup1\n        /* \"contracts/19_New_TransactionContract.sol\":1088:1115  transactions[transactionId] */\n      0x00\n        /* \"contracts/19_New_TransactionContract.sol\":1101:1114  transactionId */\n      dup4\n        /* \"contracts/19_New_TransactionContract.sol\":1088:1115  transactions[transactionId] */\n      dup2\n      mstore\n      0x20\n      add\n      swap1\n      dup2\n      mstore\n      0x20\n      add\n      0x00\n      keccak256\n        /* \"contracts/19_New_TransactionContract.sol\":1088:1129  transactions[transactionId].transactionId */\n      0x00\n      add\n      sload\n        /* \"contracts/19_New_TransactionContract.sol\":1088:1134  transactions[transactionId].transactionId != 0 */\n      sub\n        /* \"contracts/19_New_TransactionContract.sol\":1080:1165  require(transactions[transactionId].transactionId != 0, \"Transaction does not exist\") */\n      tag_18\n      jumpi\n      mload(0x40)\n      0x08c379a000000000000000000000000000000000000000000000000000000000\n      dup2\n      mstore\n      0x04\n      add\n      tag_19\n      swap1\n      tag_20\n      jump\t// in\n    tag_19:\n      mload(0x40)\n      dup1\n      swap2\n      sub\n      swap1\n      revert\n    tag_18:\n        /* \"contracts/19_New_TransactionContract.sol\":1217:1221  true */\n      0x01\n        /* \"contracts/19_New_TransactionContract.sol\":1176:1188  transactions */\n      0x00\n        /* \"contracts/19_New_TransactionContract.sol\":1176:1203  transactions[transactionId] */\n      dup1\n        /* \"contracts/19_New_TransactionContract.sol\":1189:1202  transactionId */\n      dup4\n        /* \"contracts/19_New_TransactionContract.sol\":1176:1203  transactions[transactionId] */\n      dup2\n      mstore\n      0x20\n      add\n      swap1\n      dup2\n      mstore\n      0x20\n      add\n      0x00\n      keccak256\n        /* \"contracts/19_New_TransactionContract.sol\":1176:1214  transactions[transactionId].isVerified */\n      0x05\n      add\n      0x00\n        /* \"contracts/19_New_TransactionContract.sol\":1176:1221  transactions[transactionId].isVerified = true */\n      0x0100\n      exp\n      dup2\n      sload\n      dup2\n      0xff\n      mul\n      not\n      and\n      swap1\n      dup4\n      iszero\n      iszero\n      mul\n      or\n      swap1\n      sstore\n      pop\n        /* \"contracts/19_New_TransactionContract.sol\":1237:1271  TransactionVerified(transactionId) */\n      0x0fcbb70d3f787e9a4e15228496071f1a43874900004930e4568af154f6334ea6\n        /* \"contracts/19_New_TransactionContract.sol\":1257:1270  transactionId */\n      dup2\n        /* \"contracts/19_New_TransactionContract.sol\":1237:1271  TransactionVerified(transactionId) */\n      mload(0x40)\n      tag_21\n      swap2\n      swap1\n      tag_22\n      jump\t// in\n    tag_21:\n      mload(0x40)\n      dup1\n      swap2\n      sub\n      swap1\n      log1\n        /* \"contracts/19_New_TransactionContract.sol\":1015:1279  function verifyTransaction(uint transactionId) public {... */\n      pop\n      jump\t// out\n        /* \"contracts/19_New_TransactionContract.sol\":587:1007  function initiateTransaction(uint transactionId, uint propertyId, address buyer, address seller, uint price) public {... */\n    tag_13:\n        /* \"contracts/19_New_TransactionContract.sol\":767:768  0 */\n      0x00\n        /* \"contracts/19_New_TransactionContract.sol\":722:734  transactions */\n      dup1\n        /* \"contracts/19_New_TransactionContract.sol\":722:749  transactions[transactionId] */\n      0x00\n        /* \"contracts/19_New_TransactionContract.sol\":735:748  transactionId */\n      dup8\n        /* \"contracts/19_New_TransactionContract.sol\":722:749  transactions[transactionId] */\n      dup2\n      mstore\n      0x20\n      add\n      swap1\n      dup2\n      mstore\n      0x20\n      add\n      0x00\n      keccak256\n        /* \"contracts/19_New_TransactionContract.sol\":722:763  transactions[transactionId].transactionId */\n      0x00\n      add\n      sload\n        /* \"contracts/19_New_TransactionContract.sol\":722:768  transactions[transactionId].transactionId == 0 */\n      eq\n        /* \"contracts/19_New_TransactionContract.sol\":714:799  require(transactions[transactionId].transactionId == 0, \"Transaction already exists\") */\n      tag_24\n      jumpi\n      mload(0x40)\n      0x08c379a000000000000000000000000000000000000000000000000000000000\n      dup2\n      mstore\n      0x04\n      add\n      tag_25\n      swap1\n      tag_26\n      jump\t// in\n    tag_25:\n      mload(0x40)\n      dup1\n      swap2\n      sub\n      swap1\n      revert\n    tag_24:\n        /* \"contracts/19_New_TransactionContract.sol\":840:914  Transaction(transactionId, propertyId, buyer, seller, price, false, false) */\n      mload(0x40)\n      dup1\n      0xe0\n      add\n      0x40\n      mstore\n      dup1\n        /* \"contracts/19_New_TransactionContract.sol\":852:865  transactionId */\n      dup7\n        /* \"contracts/19_New_TransactionContract.sol\":840:914  Transaction(transactionId, propertyId, buyer, seller, price, false, false) */\n      dup2\n      mstore\n      0x20\n      add\n        /* \"contracts/19_New_TransactionContract.sol\":867:877  propertyId */\n      dup6\n        /* \"contracts/19_New_TransactionContract.sol\":840:914  Transaction(transactionId, propertyId, buyer, seller, price, false, false) */\n      dup2\n      mstore\n      0x20\n      add\n        /* \"contracts/19_New_TransactionContract.sol\":879:884  buyer */\n      dup5\n        /* \"contracts/19_New_TransactionContract.sol\":840:914  Transaction(transactionId, propertyId, buyer, seller, price, false, false) */\n      0xffffffffffffffffffffffffffffffffffffffff\n      and\n      dup2\n      mstore\n      0x20\n      add\n        /* \"contracts/19_New_TransactionContract.sol\":886:892  seller */\n      dup4\n        /* \"contracts/19_New_TransactionContract.sol\":840:914  Transaction(transactionId, propertyId, buyer, seller, price, false, false) */\n      0xffffffffffffffffffffffffffffffffffffffff\n      and\n      dup2\n      mstore\n      0x20\n      add\n        /* \"contracts/19_New_TransactionContract.sol\":894:899  price */\n      dup3\n        /* \"contracts/19_New_TransactionContract.sol\":840:914  Transaction(transactionId, propertyId, buyer, seller, price, false, false) */\n      dup2\n      mstore\n      0x20\n      add\n        /* \"contracts/19_New_TransactionContract.sol\":901:906  false */\n      0x00\n        /* \"contracts/19_New_TransactionContract.sol\":840:914  Transaction(transactionId, propertyId, buyer, seller, price, false, false) */\n      iszero\n      iszero\n      dup2\n      mstore\n      0x20\n      add\n        /* \"contracts/19_New_TransactionContract.sol\":908:913  false */\n      0x00\n        /* \"contracts/19_New_TransactionContract.sol\":840:914  Transaction(transactionId, propertyId, buyer, seller, price, false, false) */\n      iszero\n      iszero\n      dup2\n      mstore\n      pop\n        /* \"contracts/19_New_TransactionContract.sol\":810:822  transactions */\n      0x00\n        /* \"contracts/19_New_TransactionContract.sol\":810:837  transactions[transactionId] */\n      dup1\n        /* \"contracts/19_New_TransactionContract.sol\":823:836  transactionId */\n      dup8\n        /* \"contracts/19_New_TransactionContract.sol\":810:837  transactions[transactionId] */\n      dup2\n      mstore\n      0x20\n      add\n      swap1\n      dup2\n      mstore\n      0x20\n      add\n      0x00\n      keccak256\n        /* \"contracts/19_New_TransactionContract.sol\":810:914  transactions[transactionId] = Transaction(transactionId, propertyId, buyer, seller, price, false, false) */\n      0x00\n      dup3\n      add\n      mload\n      dup2\n      0x00\n      add\n      sstore\n      0x20\n      dup3\n      add\n      mload\n      dup2\n      0x01\n      add\n      sstore\n      0x40\n      dup3\n      add\n      mload\n      dup2\n      0x02\n      add\n      exp(0x0100, 0x00)\n      dup2\n      sload\n      dup2\n      0xffffffffffffffffffffffffffffffffffffffff\n      mul\n      not\n      and\n      swap1\n      dup4\n      0xffffffffffffffffffffffffffffffffffffffff\n      and\n      mul\n      or\n      swap1\n      sstore\n      pop\n      0x60\n      dup3\n      add\n      mload\n      dup2\n      0x03\n      add\n      exp(0x0100, 0x00)\n      dup2\n      sload\n      dup2\n      0xffffffffffffffffffffffffffffffffffffffff\n      mul\n      not\n      and\n      swap1\n      dup4\n      0xffffffffffffffffffffffffffffffffffffffff\n      and\n      mul\n      or\n      swap1\n      sstore\n      pop\n      0x80\n      dup3\n      add\n      mload\n      dup2\n      0x04\n      add\n      sstore\n      0xa0\n      dup3\n      add\n      mload\n      dup2\n      0x05\n      add\n      exp(0x0100, 0x00)\n      dup2\n      sload\n      dup2\n      0xff\n      mul\n      not\n      and\n      swap1\n      dup4\n      iszero\n      iszero\n      mul\n      or\n      swap1\n      sstore\n      pop\n      0xc0\n      dup3\n      add\n      mload\n      dup2\n      0x05\n      add\n      exp(0x0100, 0x01)\n      dup2\n      sload\n      dup2\n      0xff\n      mul\n      not\n      and\n      swap1\n      dup4\n      iszero\n      iszero\n      mul\n      or\n      swap1\n      sstore\n      pop\n      swap1\n      pop\n      pop\n        /* \"contracts/19_New_TransactionContract.sol\":930:999  TransactionInitiated(transactionId, propertyId, buyer, seller, price) */\n      0xbc0a297ed09e86fffd7685f7ecbf0caec7b0dca893da471ed9e8139094463ac7\n        /* \"contracts/19_New_TransactionContract.sol\":951:964  transactionId */\n      dup6\n        /* \"contracts/19_New_TransactionContract.sol\":966:976  propertyId */\n      dup6\n        /* \"contracts/19_New_TransactionContract.sol\":978:983  buyer */\n      dup6\n        /* \"contracts/19_New_TransactionContract.sol\":985:991  seller */\n      dup6\n        /* \"contracts/19_New_TransactionContract.sol\":993:998  price */\n      dup6\n        /* \"contracts/19_New_TransactionContract.sol\":930:999  TransactionInitiated(transactionId, propertyId, buyer, seller, price) */\n      mload(0x40)\n      tag_27\n      swap6\n      swap5\n      swap4\n      swap3\n      swap2\n      swap1\n      tag_28\n      jump\t// in\n    tag_27:\n      mload(0x40)\n      dup1\n      swap2\n      sub\n      swap1\n      log1\n        /* \"contracts/19_New_TransactionContract.sol\":587:1007  function initiateTransaction(uint transactionId, uint propertyId, address buyer, address seller, uint price) public {... */\n      pop\n      pop\n      pop\n      pop\n      pop\n      jump\t// out\n        /* \"contracts/19_New_TransactionContract.sol\":1287:1641  function completeTransaction(uint transactionId) public {... */\n    tag_16:\n        /* \"contracts/19_New_TransactionContract.sol\":1407:1408  0 */\n      0x00\n        /* \"contracts/19_New_TransactionContract.sol\":1362:1374  transactions */\n      dup1\n        /* \"contracts/19_New_TransactionContract.sol\":1362:1389  transactions[transactionId] */\n      0x00\n        /* \"contracts/19_New_TransactionContract.sol\":1375:1388  transactionId */\n      dup4\n        /* \"contracts/19_New_TransactionContract.sol\":1362:1389  transactions[transactionId] */\n      dup2\n      mstore\n      0x20\n      add\n      swap1\n      dup2\n      mstore\n      0x20\n      add\n      0x00\n      keccak256\n        /* \"contracts/19_New_TransactionContract.sol\":1362:1403  transactions[transactionId].transactionId */\n      0x00\n      add\n      sload\n        /* \"contracts/19_New_TransactionContract.sol\":1362:1408  transactions[transactionId].transactionId != 0 */\n      sub\n        /* \"contracts/19_New_TransactionContract.sol\":1354:1439  require(transactions[transactionId].transactionId != 0, \"Transaction does not exist\") */\n      tag_30\n      jumpi\n      mload(0x40)\n      0x08c379a000000000000000000000000000000000000000000000000000000000\n      dup2\n      mstore\n      0x04\n      add\n      tag_31\n      swap1\n      tag_20\n      jump\t// in\n    tag_31:\n      mload(0x40)\n      dup1\n      swap2\n      sub\n      swap1\n      revert\n    tag_30:\n        /* \"contracts/19_New_TransactionContract.sol\":1458:1470  transactions */\n      0x00\n        /* \"contracts/19_New_TransactionContract.sol\":1458:1485  transactions[transactionId] */\n      dup1\n        /* \"contracts/19_New_TransactionContract.sol\":1471:1484  transactionId */\n      dup3\n        /* \"contracts/19_New_TransactionContract.sol\":1458:1485  transactions[transactionId] */\n      dup2\n      mstore\n      0x20\n      add\n      swap1\n      dup2\n      mstore\n      0x20\n      add\n      0x00\n      keccak256\n        /* \"contracts/19_New_TransactionContract.sol\":1458:1496  transactions[transactionId].isVerified */\n      0x05\n      add\n      0x00\n      swap1\n      sload\n      swap1\n      0x0100\n      exp\n      swap1\n      div\n      0xff\n      and\n        /* \"contracts/19_New_TransactionContract.sol\":1450:1525  require(transactions[transactionId].isVerified, \"Transaction not verified\") */\n      tag_32\n      jumpi\n      mload(0x40)\n      0x08c379a000000000000000000000000000000000000000000000000000000000\n      dup2\n      mstore\n      0x04\n      add\n      tag_33\n      swap1\n      tag_34\n      jump\t// in\n    tag_33:\n      mload(0x40)\n      dup1\n      swap2\n      sub\n      swap1\n      revert\n    tag_32:\n        /* \"contracts/19_New_TransactionContract.sol\":1578:1582  true */\n      0x01\n        /* \"contracts/19_New_TransactionContract.sol\":1536:1548  transactions */\n      0x00\n        /* \"contracts/19_New_TransactionContract.sol\":1536:1563  transactions[transactionId] */\n      dup1\n        /* \"contracts/19_New_TransactionContract.sol\":1549:1562  transactionId */\n      dup4\n        /* \"contracts/19_New_TransactionContract.sol\":1536:1563  transactions[transactionId] */\n      dup2\n      mstore\n      0x20\n      add\n      swap1\n      dup2\n      mstore\n      0x20\n      add\n      0x00\n      keccak256\n        /* \"contracts/19_New_TransactionContract.sol\":1536:1575  transactions[transactionId].isCompleted */\n      0x05\n      add\n      0x01\n        /* \"contracts/19_New_TransactionContract.sol\":1536:1582  transactions[transactionId].isCompleted = true */\n      0x0100\n      exp\n      dup2\n      sload\n      dup2\n      0xff\n      mul\n      not\n      and\n      swap1\n      dup4\n      iszero\n      iszero\n      mul\n      or\n      swap1\n      sstore\n      pop\n        /* \"contracts/19_New_TransactionContract.sol\":1598:1633  TransactionCompleted(transactionId) */\n      0x161186077e0cdfa49fae16d54ce01ea091439dbf14243419593fa6c051c906c8\n        /* \"contracts/19_New_TransactionContract.sol\":1619:1632  transactionId */\n      dup2\n        /* \"contracts/19_New_TransactionContract.sol\":1598:1633  TransactionCompleted(transactionId) */\n      mload(0x40)\n      tag_35\n      swap2\n      swap1\n      tag_22\n      jump\t// in\n    tag_35:\n      mload(0x40)\n      dup1\n      swap2\n      sub\n      swap1\n      log1\n        /* \"contracts/19_New_TransactionContract.sol\":1287:1641  function completeTransaction(uint transactionId) public {... */\n      pop\n      jump\t// out\n        /* \"#utility.yul\":88:205   */\n    tag_37:\n        /* \"#utility.yul\":197:198   */\n      0x00\n        /* \"#utility.yul\":194:195   */\n      dup1\n        /* \"#utility.yul\":187:199   */\n      revert\n        /* \"#utility.yul\":334:411   */\n    tag_39:\n        /* \"#utility.yul\":371:378   */\n      0x00\n        /* \"#utility.yul\":400:405   */\n      dup2\n        /* \"#utility.yul\":389:405   */\n      swap1\n      pop\n        /* \"#utility.yul\":334:411   */\n      swap2\n      swap1\n      pop\n      jump\t// out\n        /* \"#utility.yul\":417:539   */\n    tag_40:\n        /* \"#utility.yul\":490:514   */\n      tag_61\n        /* \"#utility.yul\":508:513   */\n      dup2\n        /* \"#utility.yul\":490:514   */\n      tag_39\n      jump\t// in\n    tag_61:\n        /* \"#utility.yul\":483:488   */\n      dup2\n        /* \"#utility.yul\":480:515   */\n      eq\n        /* \"#utility.yul\":470:533   */\n      tag_62\n      jumpi\n        /* \"#utility.yul\":529:530   */\n      0x00\n        /* \"#utility.yul\":526:527   */\n      dup1\n        /* \"#utility.yul\":519:531   */\n      revert\n        /* \"#utility.yul\":470:533   */\n    tag_62:\n        /* \"#utility.yul\":417:539   */\n      pop\n      jump\t// out\n        /* \"#utility.yul\":545:684   */\n    tag_41:\n        /* \"#utility.yul\":591:596   */\n      0x00\n        /* \"#utility.yul\":629:635   */\n      dup2\n        /* \"#utility.yul\":616:636   */\n      calldataload\n        /* \"#utility.yul\":607:636   */\n      swap1\n      pop\n        /* \"#utility.yul\":645:678   */\n      tag_64\n        /* \"#utility.yul\":672:677   */\n      dup2\n        /* \"#utility.yul\":645:678   */\n      tag_40\n      jump\t// in\n    tag_64:\n        /* \"#utility.yul\":545:684   */\n      swap3\n      swap2\n      pop\n      pop\n      jump\t// out\n        /* \"#utility.yul\":690:1019   */\n    tag_8:\n        /* \"#utility.yul\":749:755   */\n      0x00\n        /* \"#utility.yul\":798:800   */\n      0x20\n        /* \"#utility.yul\":786:795   */\n      dup3\n        /* \"#utility.yul\":777:784   */\n      dup5\n        /* \"#utility.yul\":773:796   */\n      sub\n        /* \"#utility.yul\":769:801   */\n      slt\n        /* \"#utility.yul\":766:885   */\n      iszero\n      tag_66\n      jumpi\n        /* \"#utility.yul\":804:883   */\n      tag_67\n      tag_37\n      jump\t// in\n    tag_67:\n        /* \"#utility.yul\":766:885   */\n    tag_66:\n        /* \"#utility.yul\":924:925   */\n      0x00\n        /* \"#utility.yul\":949:1002   */\n      tag_68\n        /* \"#utility.yul\":994:1001   */\n      dup5\n        /* \"#utility.yul\":985:991   */\n      dup3\n        /* \"#utility.yul\":974:983   */\n      dup6\n        /* \"#utility.yul\":970:992   */\n      add\n        /* \"#utility.yul\":949:1002   */\n      tag_41\n      jump\t// in\n    tag_68:\n        /* \"#utility.yul\":939:1002   */\n      swap2\n      pop\n        /* \"#utility.yul\":895:1012   */\n      pop\n        /* \"#utility.yul\":690:1019   */\n      swap3\n      swap2\n      pop\n      pop\n      jump\t// out\n        /* \"#utility.yul\":1025:1151   */\n    tag_42:\n        /* \"#utility.yul\":1062:1069   */\n      0x00\n        /* \"#utility.yul\":1102:1144   */\n      0xffffffffffffffffffffffffffffffffffffffff\n        /* \"#utility.yul\":1095:1100   */\n      dup3\n        /* \"#utility.yul\":1091:1145   */\n      and\n        /* \"#utility.yul\":1080:1145   */\n      swap1\n      pop\n        /* \"#utility.yul\":1025:1151   */\n      swap2\n      swap1\n      pop\n      jump\t// out\n        /* \"#utility.yul\":1157:1253   */\n    tag_43:\n        /* \"#utility.yul\":1194:1201   */\n      0x00\n        /* \"#utility.yul\":1223:1247   */\n      tag_71\n        /* \"#utility.yul\":1241:1246   */\n      dup3\n        /* \"#utility.yul\":1223:1247   */\n      tag_42\n      jump\t// in\n    tag_71:\n        /* \"#utility.yul\":1212:1247   */\n      swap1\n      pop\n        /* \"#utility.yul\":1157:1253   */\n      swap2\n      swap1\n      pop\n      jump\t// out\n        /* \"#utility.yul\":1259:1381   */\n    tag_44:\n        /* \"#utility.yul\":1332:1356   */\n      tag_73\n        /* \"#utility.yul\":1350:1355   */\n      dup2\n        /* \"#utility.yul\":1332:1356   */\n      tag_43\n      jump\t// in\n    tag_73:\n        /* \"#utility.yul\":1325:1330   */\n      dup2\n        /* \"#utility.yul\":1322:1357   */\n      eq\n        /* \"#utility.yul\":1312:1375   */\n      tag_74\n      jumpi\n        /* \"#utility.yul\":1371:1372   */\n      0x00\n        /* \"#utility.yul\":1368:1369   */\n      dup1\n        /* \"#utility.yul\":1361:1373   */\n      revert\n        /* \"#utility.yul\":1312:1375   */\n    tag_74:\n        /* \"#utility.yul\":1259:1381   */\n      pop\n      jump\t// out\n        /* \"#utility.yul\":1387:1526   */\n    tag_45:\n        /* \"#utility.yul\":1433:1438   */\n      0x00\n        /* \"#utility.yul\":1471:1477   */\n      dup2\n        /* \"#utility.yul\":1458:1478   */\n      calldataload\n        /* \"#utility.yul\":1449:1478   */\n      swap1\n      pop\n        /* \"#utility.yul\":1487:1520   */\n      tag_76\n        /* \"#utility.yul\":1514:1519   */\n      dup2\n        /* \"#utility.yul\":1487:1520   */\n      tag_44\n      jump\t// in\n    tag_76:\n        /* \"#utility.yul\":1387:1526   */\n      swap3\n      swap2\n      pop\n      pop\n      jump\t// out\n        /* \"#utility.yul\":1532:2443   */\n    tag_12:\n        /* \"#utility.yul\":1627:1633   */\n      0x00\n        /* \"#utility.yul\":1635:1641   */\n      dup1\n        /* \"#utility.yul\":1643:1649   */\n      0x00\n        /* \"#utility.yul\":1651:1657   */\n      dup1\n        /* \"#utility.yul\":1659:1665   */\n      0x00\n        /* \"#utility.yul\":1708:1711   */\n      0xa0\n        /* \"#utility.yul\":1696:1705   */\n      dup7\n        /* \"#utility.yul\":1687:1694   */\n      dup9\n        /* \"#utility.yul\":1683:1706   */\n      sub\n        /* \"#utility.yul\":1679:1712   */\n      slt\n        /* \"#utility.yul\":1676:1796   */\n      iszero\n      tag_78\n      jumpi\n        /* \"#utility.yul\":1715:1794   */\n      tag_79\n      tag_37\n      jump\t// in\n    tag_79:\n        /* \"#utility.yul\":1676:1796   */\n    tag_78:\n        /* \"#utility.yul\":1835:1836   */\n      0x00\n        /* \"#utility.yul\":1860:1913   */\n      tag_80\n        /* \"#utility.yul\":1905:1912   */\n      dup9\n        /* \"#utility.yul\":1896:1902   */\n      dup3\n        /* \"#utility.yul\":1885:1894   */\n      dup10\n        /* \"#utility.yul\":1881:1903   */\n      add\n        /* \"#utility.yul\":1860:1913   */\n      tag_41\n      jump\t// in\n    tag_80:\n        /* \"#utility.yul\":1850:1913   */\n      swap6\n      pop\n        /* \"#utility.yul\":1806:1923   */\n      pop\n        /* \"#utility.yul\":1962:1964   */\n      0x20\n        /* \"#utility.yul\":1988:2041   */\n      tag_81\n        /* \"#utility.yul\":2033:2040   */\n      dup9\n        /* \"#utility.yul\":2024:2030   */\n      dup3\n        /* \"#utility.yul\":2013:2022   */\n      dup10\n        /* \"#utility.yul\":2009:2031   */\n      add\n        /* \"#utility.yul\":1988:2041   */\n      tag_41\n      jump\t// in\n    tag_81:\n        /* \"#utility.yul\":1978:2041   */\n      swap5\n      pop\n        /* \"#utility.yul\":1933:2051   */\n      pop\n        /* \"#utility.yul\":2090:2092   */\n      0x40\n        /* \"#utility.yul\":2116:2169   */\n      tag_82\n        /* \"#utility.yul\":2161:2168   */\n      dup9\n        /* \"#utility.yul\":2152:2158   */\n      dup3\n        /* \"#utility.yul\":2141:2150   */\n      dup10\n        /* \"#utility.yul\":2137:2159   */\n      add\n        /* \"#utility.yul\":2116:2169   */\n      tag_45\n      jump\t// in\n    tag_82:\n        /* \"#utility.yul\":2106:2169   */\n      swap4\n      pop\n        /* \"#utility.yul\":2061:2179   */\n      pop\n        /* \"#utility.yul\":2218:2220   */\n      0x60\n        /* \"#utility.yul\":2244:2297   */\n      tag_83\n        /* \"#utility.yul\":2289:2296   */\n      dup9\n        /* \"#utility.yul\":2280:2286   */\n      dup3\n        /* \"#utility.yul\":2269:2278   */\n      dup10\n        /* \"#utility.yul\":2265:2287   */\n      add\n        /* \"#utility.yul\":2244:2297   */\n      tag_45\n      jump\t// in\n    tag_83:\n        /* \"#utility.yul\":2234:2297   */\n      swap3\n      pop\n        /* \"#utility.yul\":2189:2307   */\n      pop\n        /* \"#utility.yul\":2346:2349   */\n      0x80\n        /* \"#utility.yul\":2373:2426   */\n      tag_84\n        /* \"#utility.yul\":2418:2425   */\n      dup9\n        /* \"#utility.yul\":2409:2415   */\n      dup3\n        /* \"#utility.yul\":2398:2407   */\n      dup10\n        /* \"#utility.yul\":2394:2416   */\n      add\n        /* \"#utility.yul\":2373:2426   */\n      tag_41\n      jump\t// in\n    tag_84:\n        /* \"#utility.yul\":2363:2426   */\n      swap2\n      pop\n        /* \"#utility.yul\":2317:2436   */\n      pop\n        /* \"#utility.yul\":1532:2443   */\n      swap3\n      swap6\n      pop\n      swap3\n      swap6\n      swap1\n      swap4\n      pop\n      jump\t// out\n        /* \"#utility.yul\":2449:2618   */\n    tag_46:\n        /* \"#utility.yul\":2533:2544   */\n      0x00\n        /* \"#utility.yul\":2567:2573   */\n      dup3\n        /* \"#utility.yul\":2562:2565   */\n      dup3\n        /* \"#utility.yul\":2555:2574   */\n      mstore\n        /* \"#utility.yul\":2607:2611   */\n      0x20\n        /* \"#utility.yul\":2602:2605   */\n      dup3\n        /* \"#utility.yul\":2598:2612   */\n      add\n        /* \"#utility.yul\":2583:2612   */\n      swap1\n      pop\n        /* \"#utility.yul\":2449:2618   */\n      swap3\n      swap2\n      pop\n      pop\n      jump\t// out\n        /* \"#utility.yul\":2624:2800   */\n    tag_47:\n        /* \"#utility.yul\":2764:2792   */\n      0x5472616e73616374696f6e20646f6573206e6f74206578697374000000000000\n        /* \"#utility.yul\":2760:2761   */\n      0x00\n        /* \"#utility.yul\":2752:2758   */\n      dup3\n        /* \"#utility.yul\":2748:2762   */\n      add\n        /* \"#utility.yul\":2741:2793   */\n      mstore\n        /* \"#utility.yul\":2624:2800   */\n      pop\n      jump\t// out\n        /* \"#utility.yul\":2806:3172   */\n    tag_48:\n        /* \"#utility.yul\":2948:2951   */\n      0x00\n        /* \"#utility.yul\":2969:3036   */\n      tag_88\n        /* \"#utility.yul\":3033:3035   */\n      0x1a\n        /* \"#utility.yul\":3028:3031   */\n      dup4\n        /* \"#utility.yul\":2969:3036   */\n      tag_46\n      jump\t// in\n    tag_88:\n        /* \"#utility.yul\":2962:3036   */\n      swap2\n      pop\n        /* \"#utility.yul\":3045:3138   */\n      tag_89\n        /* \"#utility.yul\":3134:3137   */\n      dup3\n        /* \"#utility.yul\":3045:3138   */\n      tag_47\n      jump\t// in\n    tag_89:\n        /* \"#utility.yul\":3163:3165   */\n      0x20\n        /* \"#utility.yul\":3158:3161   */\n      dup3\n        /* \"#utility.yul\":3154:3166   */\n      add\n        /* \"#utility.yul\":3147:3166   */\n      swap1\n      pop\n        /* \"#utility.yul\":2806:3172   */\n      swap2\n      swap1\n      pop\n      jump\t// out\n        /* \"#utility.yul\":3178:3597   */\n    tag_20:\n        /* \"#utility.yul\":3344:3348   */\n      0x00\n        /* \"#utility.yul\":3382:3384   */\n      0x20\n        /* \"#utility.yul\":3371:3380   */\n      dup3\n        /* \"#utility.yul\":3367:3385   */\n      add\n        /* \"#utility.yul\":3359:3385   */\n      swap1\n      pop\n        /* \"#utility.yul\":3431:3440   */\n      dup2\n        /* \"#utility.yul\":3425:3429   */\n      dup2\n        /* \"#utility.yul\":3421:3441   */\n      sub\n        /* \"#utility.yul\":3417:3418   */\n      0x00\n        /* \"#utility.yul\":3406:3415   */\n      dup4\n        /* \"#utility.yul\":3402:3419   */\n      add\n        /* \"#utility.yul\":3395:3442   */\n      mstore\n        /* \"#utility.yul\":3459:3590   */\n      tag_91\n        /* \"#utility.yul\":3585:3589   */\n      dup2\n        /* \"#utility.yul\":3459:3590   */\n      tag_48\n      jump\t// in\n    tag_91:\n        /* \"#utility.yul\":3451:3590   */\n      swap1\n      pop\n        /* \"#utility.yul\":3178:3597   */\n      swap2\n      swap1\n      pop\n      jump\t// out\n        /* \"#utility.yul\":3603:3721   */\n    tag_49:\n        /* \"#utility.yul\":3690:3714   */\n      tag_93\n        /* \"#utility.yul\":3708:3713   */\n      dup2\n        /* \"#utility.yul\":3690:3714   */\n      tag_39\n      jump\t// in\n    tag_93:\n        /* \"#utility.yul\":3685:3688   */\n      dup3\n        /* \"#utility.yul\":3678:3715   */\n      mstore\n        /* \"#utility.yul\":3603:3721   */\n      pop\n      pop\n      jump\t// out\n        /* \"#utility.yul\":3727:3949   */\n    tag_22:\n        /* \"#utility.yul\":3820:3824   */\n      0x00\n        /* \"#utility.yul\":3858:3860   */\n      0x20\n        /* \"#utility.yul\":3847:3856   */\n      dup3\n        /* \"#utility.yul\":3843:3861   */\n      add\n        /* \"#utility.yul\":3835:3861   */\n      swap1\n      pop\n        /* \"#utility.yul\":3871:3942   */\n      tag_95\n        /* \"#utility.yul\":3939:3940   */\n      0x00\n        /* \"#utility.yul\":3928:3937   */\n      dup4\n        /* \"#utility.yul\":3924:3941   */\n      add\n        /* \"#utility.yul\":3915:3921   */\n      dup5\n        /* \"#utility.yul\":3871:3942   */\n      tag_49\n      jump\t// in\n    tag_95:\n        /* \"#utility.yul\":3727:3949   */\n      swap3\n      swap2\n      pop\n      pop\n      jump\t// out\n        /* \"#utility.yul\":3955:4131   */\n    tag_50:\n        /* \"#utility.yul\":4095:4123   */\n      0x5472616e73616374696f6e20616c726561647920657869737473000000000000\n        /* \"#utility.yul\":4091:4092   */\n      0x00\n        /* \"#utility.yul\":4083:4089   */\n      dup3\n        /* \"#utility.yul\":4079:4093   */\n      add\n        /* \"#utility.yul\":4072:4124   */\n      mstore\n        /* \"#utility.yul\":3955:4131   */\n      pop\n      jump\t// out\n        /* \"#utility.yul\":4137:4503   */\n    tag_51:\n        /* \"#utility.yul\":4279:4282   */\n      0x00\n        /* \"#utility.yul\":4300:4367   */\n      tag_98\n        /* \"#utility.yul\":4364:4366   */\n      0x1a\n        /* \"#utility.yul\":4359:4362   */\n      dup4\n        /* \"#utility.yul\":4300:4367   */\n      tag_46\n      jump\t// in\n    tag_98:\n        /* \"#utility.yul\":4293:4367   */\n      swap2\n      pop\n        /* \"#utility.yul\":4376:4469   */\n      tag_99\n        /* \"#utility.yul\":4465:4468   */\n      dup3\n        /* \"#utility.yul\":4376:4469   */\n      tag_50\n      jump\t// in\n    tag_99:\n        /* \"#utility.yul\":4494:4496   */\n      0x20\n        /* \"#utility.yul\":4489:4492   */\n      dup3\n        /* \"#utility.yul\":4485:4497   */\n      add\n        /* \"#utility.yul\":4478:4497   */\n      swap1\n      pop\n        /* \"#utility.yul\":4137:4503   */\n      swap2\n      swap1\n      pop\n      jump\t// out\n        /* \"#utility.yul\":4509:4928   */\n    tag_26:\n        /* \"#utility.yul\":4675:4679   */\n      0x00\n        /* \"#utility.yul\":4713:4715   */\n      0x20\n        /* \"#utility.yul\":4702:4711   */\n      dup3\n        /* \"#utility.yul\":4698:4716   */\n      add\n        /* \"#utility.yul\":4690:4716   */\n      swap1\n      pop\n        /* \"#utility.yul\":4762:4771   */\n      dup2\n        /* \"#utility.yul\":4756:4760   */\n      dup2\n        /* \"#utility.yul\":4752:4772   */\n      sub\n        /* \"#utility.yul\":4748:4749   */\n      0x00\n        /* \"#utility.yul\":4737:4746   */\n      dup4\n        /* \"#utility.yul\":4733:4750   */\n      add\n        /* \"#utility.yul\":4726:4773   */\n      mstore\n        /* \"#utility.yul\":4790:4921   */\n      tag_101\n        /* \"#utility.yul\":4916:4920   */\n      dup2\n        /* \"#utility.yul\":4790:4921   */\n      tag_51\n      jump\t// in\n    tag_101:\n        /* \"#utility.yul\":4782:4921   */\n      swap1\n      pop\n        /* \"#utility.yul\":4509:4928   */\n      swap2\n      swap1\n      pop\n      jump\t// out\n        /* \"#utility.yul\":4934:5052   */\n    tag_52:\n        /* \"#utility.yul\":5021:5045   */\n      tag_103\n        /* \"#utility.yul\":5039:5044   */\n      dup2\n        /* \"#utility.yul\":5021:5045   */\n      tag_43\n      jump\t// in\n    tag_103:\n        /* \"#utility.yul\":5016:5019   */\n      dup3\n        /* \"#utility.yul\":5009:5046   */\n      mstore\n        /* \"#utility.yul\":4934:5052   */\n      pop\n      pop\n      jump\t// out\n        /* \"#utility.yul\":5058:5722   */\n    tag_28:\n        /* \"#utility.yul\":5263:5267   */\n      0x00\n        /* \"#utility.yul\":5301:5304   */\n      0xa0\n        /* \"#utility.yul\":5290:5299   */\n      dup3\n        /* \"#utility.yul\":5286:5305   */\n      add\n        /* \"#utility.yul\":5278:5305   */\n      swap1\n      pop\n        /* \"#utility.yul\":5315:5386   */\n      tag_105\n        /* \"#utility.yul\":5383:5384   */\n      0x00\n        /* \"#utility.yul\":5372:5381   */\n      dup4\n        /* \"#utility.yul\":5368:5385   */\n      add\n        /* \"#utility.yul\":5359:5365   */\n      dup9\n        /* \"#utility.yul\":5315:5386   */\n      tag_49\n      jump\t// in\n    tag_105:\n        /* \"#utility.yul\":5396:5468   */\n      tag_106\n        /* \"#utility.yul\":5464:5466   */\n      0x20\n        /* \"#utility.yul\":5453:5462   */\n      dup4\n        /* \"#utility.yul\":5449:5467   */\n      add\n        /* \"#utility.yul\":5440:5446   */\n      dup8\n        /* \"#utility.yul\":5396:5468   */\n      tag_49\n      jump\t// in\n    tag_106:\n        /* \"#utility.yul\":5478:5550   */\n      tag_107\n        /* \"#utility.yul\":5546:5548   */\n      0x40\n        /* \"#utility.yul\":5535:5544   */\n      dup4\n        /* \"#utility.yul\":5531:5549   */\n      add\n        /* \"#utility.yul\":5522:5528   */\n      dup7\n        /* \"#utility.yul\":5478:5550   */\n      tag_52\n      jump\t// in\n    tag_107:\n        /* \"#utility.yul\":5560:5632   */\n      tag_108\n        /* \"#utility.yul\":5628:5630   */\n      0x60\n        /* \"#utility.yul\":5617:5626   */\n      dup4\n        /* \"#utility.yul\":5613:5631   */\n      add\n        /* \"#utility.yul\":5604:5610   */\n      dup6\n        /* \"#utility.yul\":5560:5632   */\n      tag_52\n      jump\t// in\n    tag_108:\n        /* \"#utility.yul\":5642:5715   */\n      tag_109\n        /* \"#utility.yul\":5710:5713   */\n      0x80\n        /* \"#utility.yul\":5699:5708   */\n      dup4\n        /* \"#utility.yul\":5695:5714   */\n      add\n        /* \"#utility.yul\":5686:5692   */\n      dup5\n        /* \"#utility.yul\":5642:5715   */\n      tag_49\n      jump\t// in\n    tag_109:\n        /* \"#utility.yul\":5058:5722   */\n      swap7\n      swap6\n      pop\n      pop\n      pop\n      pop\n      pop\n      pop\n      jump\t// out\n        /* \"#utility.yul\":5728:5902   */\n    tag_53:\n        /* \"#utility.yul\":5868:5894   */\n      0x5472616e73616374696f6e206e6f742076657269666965640000000000000000\n        /* \"#utility.yul\":5864:5865   */\n      0x00\n        /* \"#utility.yul\":5856:5862   */\n      dup3\n        /* \"#utility.yul\":5852:5866   */\n      add\n        /* \"#utility.yul\":5845:5895   */\n      mstore\n        /* \"#utility.yul\":5728:5902   */\n      pop\n      jump\t// out\n        /* \"#utility.yul\":5908:6274   */\n    tag_54:\n        /* \"#utility.yul\":6050:6053   */\n      0x00\n        /* \"#utility.yul\":6071:6138   */\n      tag_112\n        /* \"#utility.yul\":6135:6137   */\n      0x18\n        /* \"#utility.yul\":6130:6133   */\n      dup4\n        /* \"#utility.yul\":6071:6138   */\n      tag_46\n      jump\t// in\n    tag_112:\n        /* \"#utility.yul\":6064:6138   */\n      swap2\n      pop\n        /* \"#utility.yul\":6147:6240   */\n      tag_113\n        /* \"#utility.yul\":6236:6239   */\n      dup3\n        /* \"#utility.yul\":6147:6240   */\n      tag_53\n      jump\t// in\n    tag_113:\n        /* \"#utility.yul\":6265:6267   */\n      0x20\n        /* \"#utility.yul\":6260:6263   */\n      dup3\n        /* \"#utility.yul\":6256:6268   */\n      add\n        /* \"#utility.yul\":6249:6268   */\n      swap1\n      pop\n        /* \"#utility.yul\":5908:6274   */\n      swap2\n      swap1\n      pop\n      jump\t// out\n        /* \"#utility.yul\":6280:6699   */\n    tag_34:\n        /* \"#utility.yul\":6446:6450   */\n      0x00\n        /* \"#utility.yul\":6484:6486   */\n      0x20\n        /* \"#utility.yul\":6473:6482   */\n      dup3\n        /* \"#utility.yul\":6469:6487   */\n      add\n        /* \"#utility.yul\":6461:6487   */\n      swap1\n      pop\n        /* \"#utility.yul\":6533:6542   */\n      dup2\n        /* \"#utility.yul\":6527:6531   */\n      dup2\n        /* \"#utility.yul\":6523:6543   */\n      sub\n        /* \"#utility.yul\":6519:6520   */\n      0x00\n        /* \"#utility.yul\":6508:6517   */\n      dup4\n        /* \"#utility.yul\":6504:6521   */\n      add\n        /* \"#utility.yul\":6497:6544   */\n      mstore\n        /* \"#utility.yul\":6561:6692   */\n      tag_115\n        /* \"#utility.yul\":6687:6691   */\n      dup2\n        /* \"#utility.yul\":6561:6692   */\n      tag_54\n      jump\t// in\n    tag_115:\n        /* \"#utility.yul\":6553:6692   */\n      swap1\n      pop\n        /* \"#utility.yul\":6280:6699   */\n      swap2\n      swap1\n      pop\n      jump\t// out\n\n    auxdata: 0xa2646970667358221220f6596d5ba2ec0b8b22856abfc9f78e23d16321fe68e9e44dd047775b0acc0f6364736f6c634300081a0033\n}\n",
				"bytecode": {
					"linkReferences": {},
					"object": "6080604052348015600e575f80fd5b506107998061001c5f395ff3fe608060405234801561000f575f80fd5b506004361061003f575f3560e01c8063332b888d14610043578063b2d721261461005f578063f5e83e171461007b575b5f80fd5b61005d60048036038101906100589190610497565b610097565b005b6100796004803603810190610074919061051c565b610150565b005b61009560048036038101906100909190610497565b610347565b005b5f805f8381526020019081526020015f205f0154036100eb576040517f08c379a00000000000000000000000000000000000000000000000000000000081526004016100e2906105ed565b60405180910390fd5b60015f808381526020019081526020015f206005015f6101000a81548160ff0219169083151502179055507f0fcbb70d3f787e9a4e15228496071f1a43874900004930e4568af154f6334ea681604051610145919061061a565b60405180910390a150565b5f805f8781526020019081526020015f205f0154146101a4576040517f08c379a000000000000000000000000000000000000000000000000000000000815260040161019b9061067d565b60405180910390fd5b6040518060e001604052808681526020018581526020018473ffffffffffffffffffffffffffffffffffffffff1681526020018373ffffffffffffffffffffffffffffffffffffffff1681526020018281526020015f151581526020015f15158152505f808781526020019081526020015f205f820151815f0155602082015181600101556040820151816002015f6101000a81548173ffffffffffffffffffffffffffffffffffffffff021916908373ffffffffffffffffffffffffffffffffffffffff1602179055506060820151816003015f6101000a81548173ffffffffffffffffffffffffffffffffffffffff021916908373ffffffffffffffffffffffffffffffffffffffff1602179055506080820151816004015560a0820151816005015f6101000a81548160ff02191690831515021790555060c08201518160050160016101000a81548160ff0219169083151502179055509050507fbc0a297ed09e86fffd7685f7ecbf0caec7b0dca893da471ed9e8139094463ac785858585856040516103389594939291906106aa565b60405180910390a15050505050565b5f805f8381526020019081526020015f205f01540361039b576040517f08c379a0000000000000000000000000000000000000000000000000000000008152600401610392906105ed565b60405180910390fd5b5f808281526020019081526020015f206005015f9054906101000a900460ff166103fa576040517f08c379a00000000000000000000000000000000000000000000000000000000081526004016103f190610745565b60405180910390fd5b60015f808381526020019081526020015f2060050160016101000a81548160ff0219169083151502179055507f161186077e0cdfa49fae16d54ce01ea091439dbf14243419593fa6c051c906c881604051610455919061061a565b60405180910390a150565b5f80fd5b5f819050919050565b61047681610464565b8114610480575f80fd5b50565b5f813590506104918161046d565b92915050565b5f602082840312156104ac576104ab610460565b5b5f6104b984828501610483565b91505092915050565b5f73ffffffffffffffffffffffffffffffffffffffff82169050919050565b5f6104eb826104c2565b9050919050565b6104fb816104e1565b8114610505575f80fd5b50565b5f81359050610516816104f2565b92915050565b5f805f805f60a0868803121561053557610534610460565b5b5f61054288828901610483565b955050602061055388828901610483565b945050604061056488828901610508565b935050606061057588828901610508565b925050608061058688828901610483565b9150509295509295909350565b5f82825260208201905092915050565b7f5472616e73616374696f6e20646f6573206e6f742065786973740000000000005f82015250565b5f6105d7601a83610593565b91506105e2826105a3565b602082019050919050565b5f6020820190508181035f830152610604816105cb565b9050919050565b61061481610464565b82525050565b5f60208201905061062d5f83018461060b565b92915050565b7f5472616e73616374696f6e20616c7265616479206578697374730000000000005f82015250565b5f610667601a83610593565b915061067282610633565b602082019050919050565b5f6020820190508181035f8301526106948161065b565b9050919050565b6106a4816104e1565b82525050565b5f60a0820190506106bd5f83018861060b565b6106ca602083018761060b565b6106d7604083018661069b565b6106e4606083018561069b565b6106f1608083018461060b565b9695505050505050565b7f5472616e73616374696f6e206e6f7420766572696669656400000000000000005f82015250565b5f61072f601883610593565b915061073a826106fb565b602082019050919050565b5f6020820190508181035f83015261075c81610723565b905091905056fea2646970667358221220f6596d5ba2ec0b8b22856abfc9f78e23d16321fe68e9e44dd047775b0acc0f6364736f6c634300081a0033",
					"opcodes": "PUSH1 0x80 PUSH1 0x40 MSTORE CALLVALUE DUP1 ISZERO PUSH1 0xE JUMPI PUSH0 DUP1 REVERT JUMPDEST POP PUSH2 0x799 DUP1 PUSH2 0x1C PUSH0 CODECOPY PUSH0 RETURN INVALID PUSH1 0x80 PUSH1 0x40 MSTORE CALLVALUE DUP1 ISZERO PUSH2 0xF JUMPI PUSH0 DUP1 REVERT JUMPDEST POP PUSH1 0x4 CALLDATASIZE LT PUSH2 0x3F JUMPI PUSH0 CALLDATALOAD PUSH1 0xE0 SHR DUP1 PUSH4 0x332B888D EQ PUSH2 0x43 JUMPI DUP1 PUSH4 0xB2D72126 EQ PUSH2 0x5F JUMPI DUP1 PUSH4 0xF5E83E17 EQ PUSH2 0x7B JUMPI JUMPDEST PUSH0 DUP1 REVERT JUMPDEST PUSH2 0x5D PUSH1 0x4 DUP1 CALLDATASIZE SUB DUP2 ADD SWAP1 PUSH2 0x58 SWAP2 SWAP1 PUSH2 0x497 JUMP JUMPDEST PUSH2 0x97 JUMP JUMPDEST STOP JUMPDEST PUSH2 0x79 PUSH1 0x4 DUP1 CALLDATASIZE SUB DUP2 ADD SWAP1 PUSH2 0x74 SWAP2 SWAP1 PUSH2 0x51C JUMP JUMPDEST PUSH2 0x150 JUMP JUMPDEST STOP JUMPDEST PUSH2 0x95 PUSH1 0x4 DUP1 CALLDATASIZE SUB DUP2 ADD SWAP1 PUSH2 0x90 SWAP2 SWAP1 PUSH2 0x497 JUMP JUMPDEST PUSH2 0x347 JUMP JUMPDEST STOP JUMPDEST PUSH0 DUP1 PUSH0 DUP4 DUP2 MSTORE PUSH1 0x20 ADD SWAP1 DUP2 MSTORE PUSH1 0x20 ADD PUSH0 KECCAK256 PUSH0 ADD SLOAD SUB PUSH2 0xEB JUMPI PUSH1 0x40 MLOAD PUSH32 0x8C379A000000000000000000000000000000000000000000000000000000000 DUP2 MSTORE PUSH1 0x4 ADD PUSH2 0xE2 SWAP1 PUSH2 0x5ED JUMP JUMPDEST PUSH1 0x40 MLOAD DUP1 SWAP2 SUB SWAP1 REVERT JUMPDEST PUSH1 0x1 PUSH0 DUP1 DUP4 DUP2 MSTORE PUSH1 0x20 ADD SWAP1 DUP2 MSTORE PUSH1 0x20 ADD PUSH0 KECCAK256 PUSH1 0x5 ADD PUSH0 PUSH2 0x100 EXP DUP2 SLOAD DUP2 PUSH1 0xFF MUL NOT AND SWAP1 DUP4 ISZERO ISZERO MUL OR SWAP1 SSTORE POP PUSH32 0xFCBB70D3F787E9A4E15228496071F1A43874900004930E4568AF154F6334EA6 DUP2 PUSH1 0x40 MLOAD PUSH2 0x145 SWAP2 SWAP1 PUSH2 0x61A JUMP JUMPDEST PUSH1 0x40 MLOAD DUP1 SWAP2 SUB SWAP1 LOG1 POP JUMP JUMPDEST PUSH0 DUP1 PUSH0 DUP8 DUP2 MSTORE PUSH1 0x20 ADD SWAP1 DUP2 MSTORE PUSH1 0x20 ADD PUSH0 KECCAK256 PUSH0 ADD SLOAD EQ PUSH2 0x1A4 JUMPI PUSH1 0x40 MLOAD PUSH32 0x8C379A000000000000000000000000000000000000000000000000000000000 DUP2 MSTORE PUSH1 0x4 ADD PUSH2 0x19B SWAP1 PUSH2 0x67D JUMP JUMPDEST PUSH1 0x40 MLOAD DUP1 SWAP2 SUB SWAP1 REVERT JUMPDEST PUSH1 0x40 MLOAD DUP1 PUSH1 0xE0 ADD PUSH1 0x40 MSTORE DUP1 DUP7 DUP2 MSTORE PUSH1 0x20 ADD DUP6 DUP2 MSTORE PUSH1 0x20 ADD DUP5 PUSH20 0xFFFFFFFFFFFFFFFFFFFFFFFFFFFFFFFFFFFFFFFF AND DUP2 MSTORE PUSH1 0x20 ADD DUP4 PUSH20 0xFFFFFFFFFFFFFFFFFFFFFFFFFFFFFFFFFFFFFFFF AND DUP2 MSTORE PUSH1 0x20 ADD DUP3 DUP2 MSTORE PUSH1 0x20 ADD PUSH0 ISZERO ISZERO DUP2 MSTORE PUSH1 0x20 ADD PUSH0 ISZERO ISZERO DUP2 MSTORE POP PUSH0 DUP1 DUP8 DUP2 MSTORE PUSH1 0x20 ADD SWAP1 DUP2 MSTORE PUSH1 0x20 ADD PUSH0 KECCAK256 PUSH0 DUP3 ADD MLOAD DUP2 PUSH0 ADD SSTORE PUSH1 0x20 DUP3 ADD MLOAD DUP2 PUSH1 0x1 ADD SSTORE PUSH1 0x40 DUP3 ADD MLOAD DUP2 PUSH1 0x2 ADD PUSH0 PUSH2 0x100 EXP DUP2 SLOAD DUP2 PUSH20 0xFFFFFFFFFFFFFFFFFFFFFFFFFFFFFFFFFFFFFFFF MUL NOT AND SWAP1 DUP4 PUSH20 0xFFFFFFFFFFFFFFFFFFFFFFFFFFFFFFFFFFFFFFFF AND MUL OR SWAP1 SSTORE POP PUSH1 0x60 DUP3 ADD MLOAD DUP2 PUSH1 0x3 ADD PUSH0 PUSH2 0x100 EXP DUP2 SLOAD DUP2 PUSH20 0xFFFFFFFFFFFFFFFFFFFFFFFFFFFFFFFFFFFFFFFF MUL NOT AND SWAP1 DUP4 PUSH20 0xFFFFFFFFFFFFFFFFFFFFFFFFFFFFFFFFFFFFFFFF AND MUL OR SWAP1 SSTORE POP PUSH1 0x80 DUP3 ADD MLOAD DUP2 PUSH1 0x4 ADD SSTORE PUSH1 0xA0 DUP3 ADD MLOAD DUP2 PUSH1 0x5 ADD PUSH0 PUSH2 0x100 EXP DUP2 SLOAD DUP2 PUSH1 0xFF MUL NOT AND SWAP1 DUP4 ISZERO ISZERO MUL OR SWAP1 SSTORE POP PUSH1 0xC0 DUP3 ADD MLOAD DUP2 PUSH1 0x5 ADD PUSH1 0x1 PUSH2 0x100 EXP DUP2 SLOAD DUP2 PUSH1 0xFF MUL NOT AND SWAP1 DUP4 ISZERO ISZERO MUL OR SWAP1 SSTORE POP SWAP1 POP POP PUSH32 0xBC0A297ED09E86FFFD7685F7ECBF0CAEC7B0DCA893DA471ED9E8139094463AC7 DUP6 DUP6 DUP6 DUP6 DUP6 PUSH1 0x40 MLOAD PUSH2 0x338 SWAP6 SWAP5 SWAP4 SWAP3 SWAP2 SWAP1 PUSH2 0x6AA JUMP JUMPDEST PUSH1 0x40 MLOAD DUP1 SWAP2 SUB SWAP1 LOG1 POP POP POP POP POP JUMP JUMPDEST PUSH0 DUP1 PUSH0 DUP4 DUP2 MSTORE PUSH1 0x20 ADD SWAP1 DUP2 MSTORE PUSH1 0x20 ADD PUSH0 KECCAK256 PUSH0 ADD SLOAD SUB PUSH2 0x39B JUMPI PUSH1 0x40 MLOAD PUSH32 0x8C379A000000000000000000000000000000000000000000000000000000000 DUP2 MSTORE PUSH1 0x4 ADD PUSH2 0x392 SWAP1 PUSH2 0x5ED JUMP JUMPDEST PUSH1 0x40 MLOAD DUP1 SWAP2 SUB SWAP1 REVERT JUMPDEST PUSH0 DUP1 DUP3 DUP2 MSTORE PUSH1 0x20 ADD SWAP1 DUP2 MSTORE PUSH1 0x20 ADD PUSH0 KECCAK256 PUSH1 0x5 ADD PUSH0 SWAP1 SLOAD SWAP1 PUSH2 0x100 EXP SWAP1 DIV PUSH1 0xFF AND PUSH2 0x3FA JUMPI PUSH1 0x40 MLOAD PUSH32 0x8C379A000000000000000000000000000000000000000000000000000000000 DUP2 MSTORE PUSH1 0x4 ADD PUSH2 0x3F1 SWAP1 PUSH2 0x745 JUMP JUMPDEST PUSH1 0x40 MLOAD DUP1 SWAP2 SUB SWAP1 REVERT JUMPDEST PUSH1 0x1 PUSH0 DUP1 DUP4 DUP2 MSTORE PUSH1 0x20 ADD SWAP1 DUP2 MSTORE PUSH1 0x20 ADD PUSH0 KECCAK256 PUSH1 0x5 ADD PUSH1 0x1 PUSH2 0x100 EXP DUP2 SLOAD DUP2 PUSH1 0xFF MUL NOT AND SWAP1 DUP4 ISZERO ISZERO MUL OR SWAP1 SSTORE POP PUSH32 0x161186077E0CDFA49FAE16D54CE01EA091439DBF14243419593FA6C051C906C8 DUP2 PUSH1 0x40 MLOAD PUSH2 0x455 SWAP2 SWAP1 PUSH2 0x61A JUMP JUMPDEST PUSH1 0x40 MLOAD DUP1 SWAP2 SUB SWAP1 LOG1 POP JUMP JUMPDEST PUSH0 DUP1 REVERT JUMPDEST PUSH0 DUP2 SWAP1 POP SWAP2 SWAP1 POP JUMP JUMPDEST PUSH2 0x476 DUP2 PUSH2 0x464 JUMP JUMPDEST DUP2 EQ PUSH2 0x480 JUMPI PUSH0 DUP1 REVERT JUMPDEST POP JUMP JUMPDEST PUSH0 DUP2 CALLDATALOAD SWAP1 POP PUSH2 0x491 DUP2 PUSH2 0x46D JUMP JUMPDEST SWAP3 SWAP2 POP POP JUMP JUMPDEST PUSH0 PUSH1 0x20 DUP3 DUP5 SUB SLT ISZERO PUSH2 0x4AC JUMPI PUSH2 0x4AB PUSH2 0x460 JUMP JUMPDEST JUMPDEST PUSH0 PUSH2 0x4B9 DUP5 DUP3 DUP6 ADD PUSH2 0x483 JUMP JUMPDEST SWAP2 POP POP SWAP3 SWAP2 POP POP JUMP JUMPDEST PUSH0 PUSH20 0xFFFFFFFFFFFFFFFFFFFFFFFFFFFFFFFFFFFFFFFF DUP3 AND SWAP1 POP SWAP2 SWAP1 POP JUMP JUMPDEST PUSH0 PUSH2 0x4EB DUP3 PUSH2 0x4C2 JUMP JUMPDEST SWAP1 POP SWAP2 SWAP1 POP JUMP JUMPDEST PUSH2 0x4FB DUP2 PUSH2 0x4E1 JUMP JUMPDEST DUP2 EQ PUSH2 0x505 JUMPI PUSH0 DUP1 REVERT JUMPDEST POP JUMP JUMPDEST PUSH0 DUP2 CALLDATALOAD SWAP1 POP PUSH2 0x516 DUP2 PUSH2 0x4F2 JUMP JUMPDEST SWAP3 SWAP2 POP POP JUMP JUMPDEST PUSH0 DUP1 PUSH0 DUP1 PUSH0 PUSH1 0xA0 DUP7 DUP9 SUB SLT ISZERO PUSH2 0x535 JUMPI PUSH2 0x534 PUSH2 0x460 JUMP JUMPDEST JUMPDEST PUSH0 PUSH2 0x542 DUP9 DUP3 DUP10 ADD PUSH2 0x483 JUMP JUMPDEST SWAP6 POP POP PUSH1 0x20 PUSH2 0x553 DUP9 DUP3 DUP10 ADD PUSH2 0x483 JUMP JUMPDEST SWAP5 POP POP PUSH1 0x40 PUSH2 0x564 DUP9 DUP3 DUP10 ADD PUSH2 0x508 JUMP JUMPDEST SWAP4 POP POP PUSH1 0x60 PUSH2 0x575 DUP9 DUP3 DUP10 ADD PUSH2 0x508 JUMP JUMPDEST SWAP3 POP POP PUSH1 0x80 PUSH2 0x586 DUP9 DUP3 DUP10 ADD PUSH2 0x483 JUMP JUMPDEST SWAP2 POP POP SWAP3 SWAP6 POP SWAP3 SWAP6 SWAP1 SWAP4 POP JUMP JUMPDEST PUSH0 DUP3 DUP3 MSTORE PUSH1 0x20 DUP3 ADD SWAP1 POP SWAP3 SWAP2 POP POP JUMP JUMPDEST PUSH32 0x5472616E73616374696F6E20646F6573206E6F74206578697374000000000000 PUSH0 DUP3 ADD MSTORE POP JUMP JUMPDEST PUSH0 PUSH2 0x5D7 PUSH1 0x1A DUP4 PUSH2 0x593 JUMP JUMPDEST SWAP2 POP PUSH2 0x5E2 DUP3 PUSH2 0x5A3 JUMP JUMPDEST PUSH1 0x20 DUP3 ADD SWAP1 POP SWAP2 SWAP1 POP JUMP JUMPDEST PUSH0 PUSH1 0x20 DUP3 ADD SWAP1 POP DUP2 DUP2 SUB PUSH0 DUP4 ADD MSTORE PUSH2 0x604 DUP2 PUSH2 0x5CB JUMP JUMPDEST SWAP1 POP SWAP2 SWAP1 POP JUMP JUMPDEST PUSH2 0x614 DUP2 PUSH2 0x464 JUMP JUMPDEST DUP3 MSTORE POP POP JUMP JUMPDEST PUSH0 PUSH1 0x20 DUP3 ADD SWAP1 POP PUSH2 0x62D PUSH0 DUP4 ADD DUP5 PUSH2 0x60B JUMP JUMPDEST SWAP3 SWAP2 POP POP JUMP JUMPDEST PUSH32 0x5472616E73616374696F6E20616C726561647920657869737473000000000000 PUSH0 DUP3 ADD MSTORE POP JUMP JUMPDEST PUSH0 PUSH2 0x667 PUSH1 0x1A DUP4 PUSH2 0x593 JUMP JUMPDEST SWAP2 POP PUSH2 0x672 DUP3 PUSH2 0x633 JUMP JUMPDEST PUSH1 0x20 DUP3 ADD SWAP1 POP SWAP2 SWAP1 POP JUMP JUMPDEST PUSH0 PUSH1 0x20 DUP3 ADD SWAP1 POP DUP2 DUP2 SUB PUSH0 DUP4 ADD MSTORE PUSH2 0x694 DUP2 PUSH2 0x65B JUMP JUMPDEST SWAP1 POP SWAP2 SWAP1 POP JUMP JUMPDEST PUSH2 0x6A4 DUP2 PUSH2 0x4E1 JUMP JUMPDEST DUP3 MSTORE POP POP JUMP JUMPDEST PUSH0 PUSH1 0xA0 DUP3 ADD SWAP1 POP PUSH2 0x6BD PUSH0 DUP4 ADD DUP9 PUSH2 0x60B JUMP JUMPDEST PUSH2 0x6CA PUSH1 0x20 DUP4 ADD DUP8 PUSH2 0x60B JUMP JUMPDEST PUSH2 0x6D7 PUSH1 0x40 DUP4 ADD DUP7 PUSH2 0x69B JUMP JUMPDEST PUSH2 0x6E4 PUSH1 0x60 DUP4 ADD DUP6 PUSH2 0x69B JUMP JUMPDEST PUSH2 0x6F1 PUSH1 0x80 DUP4 ADD DUP5 PUSH2 0x60B JUMP JUMPDEST SWAP7 SWAP6 POP POP POP POP POP POP JUMP JUMPDEST PUSH32 0x5472616E73616374696F6E206E6F742076657269666965640000000000000000 PUSH0 DUP3 ADD MSTORE POP JUMP JUMPDEST PUSH0 PUSH2 0x72F PUSH1 0x18 DUP4 PUSH2 0x593 JUMP JUMPDEST SWAP2 POP PUSH2 0x73A DUP3 PUSH2 0x6FB JUMP JUMPDEST PUSH1 0x20 DUP3 ADD SWAP1 POP SWAP2 SWAP1 POP JUMP JUMPDEST PUSH0 PUSH1 0x20 DUP3 ADD SWAP1 POP DUP2 DUP2 SUB PUSH0 DUP4 ADD MSTORE PUSH2 0x75C DUP2 PUSH2 0x723 JUMP JUMPDEST SWAP1 POP SWAP2 SWAP1 POP JUMP INVALID LOG2 PUSH5 0x6970667358 0x22 SLT KECCAK256 0xF6 MSIZE PUSH14 0x5BA2EC0B8B22856ABFC9F78E23D1 PUSH4 0x21FE68E9 0xE4 0x4D 0xD0 SELFBALANCE PUSH24 0x5B0ACC0F6364736F6C634300081A00330000000000000000 "
				},
				"gasEstimates": {
					"creation": {
						"codeDepositCost": "389000",
						"executionCost": "422",
						"totalCost": "389422"
					},
					"external": {
						"completeTransaction(uint256)": "infinite",
						"initiateTransaction(uint256,uint256,address,address,uint256)": "infinite",
						"verifyTransaction(uint256)": "infinite"
					}
				},
				"methodIdentifiers": {
					"completeTransaction(uint256)": "f5e83e17",
					"initiateTransaction(uint256,uint256,address,address,uint256)": "b2d72126",
					"verifyTransaction(uint256)": "332b888d"
				}
			},
			"storageLayout": {
				"storage": [
					{
						"astId": 21,
						"contract": "contracts/19_New_TransactionContract.sol:TransactionContract",
						"label": "transactions",
						"offset": 0,
						"slot": "0",
						"type": "t_mapping(t_uint256,t_struct(Transaction)16_storage)"
					}
				],
				"types": {
					"t_address": {
						"encoding": "inplace",
						"label": "address",
						"numberOfBytes": "20"
					},
					"t_bool": {
						"encoding": "inplace",
						"label": "bool",
						"numberOfBytes": "1"
					},
					"t_mapping(t_uint256,t_struct(Transaction)16_storage)": {
						"encoding": "mapping",
						"key": "t_uint256",
						"label": "mapping(uint256 => struct TransactionContract.Transaction)",
						"numberOfBytes": "32",
						"value": "t_struct(Transaction)16_storage"
					},
					"t_struct(Transaction)16_storage": {
						"encoding": "inplace",
						"label": "struct TransactionContract.Transaction",
						"members": [
							{
								"astId": 3,
								"contract": "contracts/19_New_TransactionContract.sol:TransactionContract",
								"label": "transactionId",
								"offset": 0,
								"slot": "0",
								"type": "t_uint256"
							},
							{
								"astId": 5,
								"contract": "contracts/19_New_TransactionContract.sol:TransactionContract",
								"label": "propertyId",
								"offset": 0,
								"slot": "1",
								"type": "t_uint256"
							},
							{
								"astId": 7,
								"contract": "contracts/19_New_TransactionContract.sol:TransactionContract",
								"label": "buyer",
								"offset": 0,
								"slot": "2",
								"type": "t_address"
							},
							{
								"astId": 9,
								"contract": "contracts/19_New_TransactionContract.sol:TransactionContract",
								"label": "seller",
								"offset": 0,
								"slot": "3",
								"type": "t_address"
							},
							{
								"astId": 11,
								"contract": "contracts/19_New_TransactionContract.sol:TransactionContract",
								"label": "price",
								"offset": 0,
								"slot": "4",
								"type": "t_uint256"
							},
							{
								"astId": 13,
								"contract": "contracts/19_New_TransactionContract.sol:TransactionContract",
								"label": "isVerified",
								"offset": 0,
								"slot": "5",
								"type": "t_bool"
							},
							{
								"astId": 15,
								"contract": "contracts/19_New_TransactionContract.sol:TransactionContract",
								"label": "isCompleted",
								"offset": 1,
								"slot": "5",
								"type": "t_bool"
							}
						],
						"numberOfBytes": "192"
					},
					"t_uint256": {
						"encoding": "inplace",
						"label": "uint256",
						"numberOfBytes": "32"
					}
				}
			},
			"userdoc": {
				"kind": "user",
				"methods": {},
				"version": 1
			}
		}
	}
}