{
	"contracts/5_UserContract.sol": {
		"UserContract": {
			"abi": [
				{
					"inputs": [
						{
							"internalType": "address",
							"name": "userAddress",
							"type": "address"
						}
					],
					"name": "getUser",
					"outputs": [
						{
							"components": [
								{
									"internalType": "uint256",
									"name": "id",
									"type": "uint256"
								},
								{
									"internalType": "string",
									"name": "name",
									"type": "string"
								},
								{
									"internalType": "string",
									"name": "role",
									"type": "string"
								}
							],
							"internalType": "struct UserContract.User",
							"name": "",
							"type": "tuple"
						}
					],
					"stateMutability": "view",
					"type": "function"
				},
				{
					"inputs": [
						{
							"internalType": "string",
							"name": "name",
							"type": "string"
						},
						{
							"internalType": "string",
							"name": "role",
							"type": "string"
						}
					],
					"name": "registerUser",
					"outputs": [],
					"stateMutability": "nonpayable",
					"type": "function"
				},
				{
					"inputs": [],
					"name": "userCount",
					"outputs": [
						{
							"internalType": "uint256",
							"name": "",
							"type": "uint256"
						}
					],
					"stateMutability": "view",
					"type": "function"
				},
				{
					"inputs": [
						{
							"internalType": "address",
							"name": "",
							"type": "address"
						}
					],
					"name": "users",
					"outputs": [
						{
							"internalType": "uint256",
							"name": "id",
							"type": "uint256"
						},
						{
							"internalType": "string",
							"name": "name",
							"type": "string"
						},
						{
							"internalType": "string",
							"name": "role",
							"type": "string"
						}
					],
					"stateMutability": "view",
					"type": "function"
				}
			],
			"devdoc": {
				"kind": "dev",
				"methods": {},
				"version": 1
			},
			"evm": {
				"assembly": "    /* \"contracts/5_UserContract.sol\":60:649  contract UserContract {... */\n  mstore(0x40, 0x80)\n  callvalue\n  dup1\n  iszero\n  tag_1\n  jumpi\n  0x00\n  dup1\n  revert\ntag_1:\n  pop\n  dataSize(sub_0)\n  dup1\n  dataOffset(sub_0)\n  0x00\n  codecopy\n  0x00\n  return\nstop\n\nsub_0: assembly {\n        /* \"contracts/5_UserContract.sol\":60:649  contract UserContract {... */\n      mstore(0x40, 0x80)\n      callvalue\n      dup1\n      iszero\n      tag_1\n      jumpi\n      0x00\n      dup1\n      revert\n    tag_1:\n      pop\n      jumpi(tag_2, lt(calldatasize, 0x04))\n      shr(0xe0, calldataload(0x00))\n      dup1\n      0x07973ccf\n      eq\n      tag_3\n      jumpi\n      dup1\n      0x1d2e4afd\n      eq\n      tag_4\n      jumpi\n      dup1\n      0x6f77926b\n      eq\n      tag_5\n      jumpi\n      dup1\n      0xa87430ba\n      eq\n      tag_6\n      jumpi\n    tag_2:\n      0x00\n      dup1\n      revert\n        /* \"contracts/5_UserContract.sol\":245:266  uint public userCount */\n    tag_3:\n      tag_7\n      tag_8\n      jump\t// in\n    tag_7:\n      mload(0x40)\n      tag_9\n      swap2\n      swap1\n      tag_10\n      jump\t// in\n    tag_9:\n      mload(0x40)\n      dup1\n      swap2\n      sub\n      swap1\n      return\n        /* \"contracts/5_UserContract.sol\":275:520  function registerUser(string memory name, string memory role) public {... */\n    tag_4:\n      tag_11\n      0x04\n      dup1\n      calldatasize\n      sub\n      dup2\n      add\n      swap1\n      tag_12\n      swap2\n      swap1\n      tag_13\n      jump\t// in\n    tag_12:\n      tag_14\n      jump\t// in\n    tag_11:\n      stop\n        /* \"contracts/5_UserContract.sol\":528:644  function getUser(address userAddress) public view returns (User memory) {... */\n    tag_5:\n      tag_15\n      0x04\n      dup1\n      calldatasize\n      sub\n      dup2\n      add\n      swap1\n      tag_16\n      swap2\n      swap1\n      tag_17\n      jump\t// in\n    tag_16:\n      tag_18\n      jump\t// in\n    tag_15:\n      mload(0x40)\n      tag_19\n      swap2\n      swap1\n      tag_20\n      jump\t// in\n    tag_19:\n      mload(0x40)\n      dup1\n      swap2\n      sub\n      swap1\n      return\n        /* \"contracts/5_UserContract.sol\":201:238  mapping(address => User) public users */\n    tag_6:\n      tag_21\n      0x04\n      dup1\n      calldatasize\n      sub\n      dup2\n      add\n      swap1\n      tag_22\n      swap2\n      swap1\n      tag_17\n      jump\t// in\n    tag_22:\n      tag_23\n      jump\t// in\n    tag_21:\n      mload(0x40)\n      tag_24\n      swap4\n      swap3\n      swap2\n      swap1\n      tag_25\n      jump\t// in\n    tag_24:\n      mload(0x40)\n      dup1\n      swap2\n      sub\n      swap1\n      return\n        /* \"contracts/5_UserContract.sol\":245:266  uint public userCount */\n    tag_8:\n      sload(0x01)\n      dup2\n      jump\t// out\n        /* \"contracts/5_UserContract.sol\":275:520  function registerUser(string memory name, string memory role) public {... */\n    tag_14:\n        /* \"contracts/5_UserContract.sol\":403:404  0 */\n      0x00\n        /* \"contracts/5_UserContract.sol\":369:374  users */\n      dup1\n        /* \"contracts/5_UserContract.sol\":369:386  users[msg.sender] */\n      0x00\n        /* \"contracts/5_UserContract.sol\":375:385  msg.sender */\n      caller\n        /* \"contracts/5_UserContract.sol\":369:386  users[msg.sender] */\n      0xffffffffffffffffffffffffffffffffffffffff\n      and\n      0xffffffffffffffffffffffffffffffffffffffff\n      and\n      dup2\n      mstore\n      0x20\n      add\n      swap1\n      dup2\n      mstore\n      0x20\n      add\n      0x00\n      keccak256\n        /* \"contracts/5_UserContract.sol\":369:391  users[msg.sender].name */\n      0x01\n      add\n        /* \"contracts/5_UserContract.sol\":363:399  bytes(users[msg.sender].name).length */\n      dup1\n      sload\n      tag_27\n      swap1\n      tag_28\n      jump\t// in\n    tag_27:\n      swap1\n      pop\n        /* \"contracts/5_UserContract.sol\":363:404  bytes(users[msg.sender].name).length == 0 */\n      eq\n        /* \"contracts/5_UserContract.sol\":355:432  require(bytes(users[msg.sender].name).length == 0, \"User already registered\") */\n      tag_29\n      jumpi\n      mload(0x40)\n      0x08c379a000000000000000000000000000000000000000000000000000000000\n      dup2\n      mstore\n      0x04\n      add\n      tag_30\n      swap1\n      tag_31\n      jump\t// in\n    tag_30:\n      mload(0x40)\n      dup1\n      swap2\n      sub\n      swap1\n      revert\n    tag_29:\n        /* \"contracts/5_UserContract.sol\":443:452  userCount */\n      0x01\n      0x00\n        /* \"contracts/5_UserContract.sol\":443:454  userCount++ */\n      dup2\n      sload\n      dup1\n      swap3\n      swap2\n      swap1\n      tag_32\n      swap1\n      tag_33\n      jump\t// in\n    tag_32:\n      swap2\n      swap1\n      pop\n      sstore\n      pop\n        /* \"contracts/5_UserContract.sol\":485:512  User(userCount, name, role) */\n      mload(0x40)\n      dup1\n      0x60\n      add\n      0x40\n      mstore\n      dup1\n        /* \"contracts/5_UserContract.sol\":490:499  userCount */\n      sload(0x01)\n        /* \"contracts/5_UserContract.sol\":485:512  User(userCount, name, role) */\n      dup2\n      mstore\n      0x20\n      add\n        /* \"contracts/5_UserContract.sol\":501:505  name */\n      dup4\n        /* \"contracts/5_UserContract.sol\":485:512  User(userCount, name, role) */\n      dup2\n      mstore\n      0x20\n      add\n        /* \"contracts/5_UserContract.sol\":507:511  role */\n      dup3\n        /* \"contracts/5_UserContract.sol\":485:512  User(userCount, name, role) */\n      dup2\n      mstore\n      pop\n        /* \"contracts/5_UserContract.sol\":465:470  users */\n      0x00\n        /* \"contracts/5_UserContract.sol\":465:482  users[msg.sender] */\n      dup1\n        /* \"contracts/5_UserContract.sol\":471:481  msg.sender */\n      caller\n        /* \"contracts/5_UserContract.sol\":465:482  users[msg.sender] */\n      0xffffffffffffffffffffffffffffffffffffffff\n      and\n      0xffffffffffffffffffffffffffffffffffffffff\n      and\n      dup2\n      mstore\n      0x20\n      add\n      swap1\n      dup2\n      mstore\n      0x20\n      add\n      0x00\n      keccak256\n        /* \"contracts/5_UserContract.sol\":465:512  users[msg.sender] = User(userCount, name, role) */\n      0x00\n      dup3\n      add\n      mload\n      dup2\n      0x00\n      add\n      sstore\n      0x20\n      dup3\n      add\n      mload\n      dup2\n      0x01\n      add\n      swap1\n      dup2\n      tag_34\n      swap2\n      swap1\n      tag_35\n      jump\t// in\n    tag_34:\n      pop\n      0x40\n      dup3\n      add\n      mload\n      dup2\n      0x02\n      add\n      swap1\n      dup2\n      tag_36\n      swap2\n      swap1\n      tag_35\n      jump\t// in\n    tag_36:\n      pop\n      swap1\n      pop\n      pop\n        /* \"contracts/5_UserContract.sol\":275:520  function registerUser(string memory name, string memory role) public {... */\n      pop\n      pop\n      jump\t// out\n        /* \"contracts/5_UserContract.sol\":528:644  function getUser(address userAddress) public view returns (User memory) {... */\n    tag_18:\n        /* \"contracts/5_UserContract.sol\":587:598  User memory */\n      tag_37\n      tag_38\n      jump\t// in\n    tag_37:\n        /* \"contracts/5_UserContract.sol\":618:623  users */\n      0x00\n        /* \"contracts/5_UserContract.sol\":618:636  users[userAddress] */\n      dup1\n        /* \"contracts/5_UserContract.sol\":624:635  userAddress */\n      dup4\n        /* \"contracts/5_UserContract.sol\":618:636  users[userAddress] */\n      0xffffffffffffffffffffffffffffffffffffffff\n      and\n      0xffffffffffffffffffffffffffffffffffffffff\n      and\n      dup2\n      mstore\n      0x20\n      add\n      swap1\n      dup2\n      mstore\n      0x20\n      add\n      0x00\n      keccak256\n        /* \"contracts/5_UserContract.sol\":611:636  return users[userAddress] */\n      mload(0x40)\n      dup1\n      0x60\n      add\n      0x40\n      mstore\n      swap1\n      dup2\n      0x00\n      dup3\n      add\n      sload\n      dup2\n      mstore\n      0x20\n      add\n      0x01\n      dup3\n      add\n      dup1\n      sload\n      tag_40\n      swap1\n      tag_28\n      jump\t// in\n    tag_40:\n      dup1\n      0x1f\n      add\n      0x20\n      dup1\n      swap2\n      div\n      mul\n      0x20\n      add\n      mload(0x40)\n      swap1\n      dup2\n      add\n      0x40\n      mstore\n      dup1\n      swap3\n      swap2\n      swap1\n      dup2\n      dup2\n      mstore\n      0x20\n      add\n      dup3\n      dup1\n      sload\n      tag_41\n      swap1\n      tag_28\n      jump\t// in\n    tag_41:\n      dup1\n      iszero\n      tag_42\n      jumpi\n      dup1\n      0x1f\n      lt\n      tag_43\n      jumpi\n      0x0100\n      dup1\n      dup4\n      sload\n      div\n      mul\n      dup4\n      mstore\n      swap2\n      0x20\n      add\n      swap2\n      jump(tag_42)\n    tag_43:\n      dup3\n      add\n      swap2\n      swap1\n      0x00\n      mstore\n      keccak256(0x00, 0x20)\n      swap1\n    tag_44:\n      dup2\n      sload\n      dup2\n      mstore\n      swap1\n      0x01\n      add\n      swap1\n      0x20\n      add\n      dup1\n      dup4\n      gt\n      tag_44\n      jumpi\n      dup3\n      swap1\n      sub\n      0x1f\n      and\n      dup3\n      add\n      swap2\n    tag_42:\n      pop\n      pop\n      pop\n      pop\n      pop\n      dup2\n      mstore\n      0x20\n      add\n      0x02\n      dup3\n      add\n      dup1\n      sload\n      tag_45\n      swap1\n      tag_28\n      jump\t// in\n    tag_45:\n      dup1\n      0x1f\n      add\n      0x20\n      dup1\n      swap2\n      div\n      mul\n      0x20\n      add\n      mload(0x40)\n      swap1\n      dup2\n      add\n      0x40\n      mstore\n      dup1\n      swap3\n      swap2\n      swap1\n      dup2\n      dup2\n      mstore\n      0x20\n      add\n      dup3\n      dup1\n      sload\n      tag_46\n      swap1\n      tag_28\n      jump\t// in\n    tag_46:\n      dup1\n      iszero\n      tag_47\n      jumpi\n      dup1\n      0x1f\n      lt\n      tag_48\n      jumpi\n      0x0100\n      dup1\n      dup4\n      sload\n      div\n      mul\n      dup4\n      mstore\n      swap2\n      0x20\n      add\n      swap2\n      jump(tag_47)\n    tag_48:\n      dup3\n      add\n      swap2\n      swap1\n      0x00\n      mstore\n      keccak256(0x00, 0x20)\n      swap1\n    tag_49:\n      dup2\n      sload\n      dup2\n      mstore\n      swap1\n      0x01\n      add\n      swap1\n      0x20\n      add\n      dup1\n      dup4\n      gt\n      tag_49\n      jumpi\n      dup3\n      swap1\n      sub\n      0x1f\n      and\n      dup3\n      add\n      swap2\n    tag_47:\n      pop\n      pop\n      pop\n      pop\n      pop\n      dup2\n      mstore\n      pop\n      pop\n      swap1\n      pop\n        /* \"contracts/5_UserContract.sol\":528:644  function getUser(address userAddress) public view returns (User memory) {... */\n      swap2\n      swap1\n      pop\n      jump\t// out\n        /* \"contracts/5_UserContract.sol\":201:238  mapping(address => User) public users */\n    tag_23:\n      mstore(0x20, 0x00)\n      dup1\n      0x00\n      mstore\n      keccak256(0x00, 0x40)\n      0x00\n      swap2\n      pop\n      swap1\n      pop\n      dup1\n      0x00\n      add\n      sload\n      swap1\n      dup1\n      0x01\n      add\n      dup1\n      sload\n      tag_50\n      swap1\n      tag_28\n      jump\t// in\n    tag_50:\n      dup1\n      0x1f\n      add\n      0x20\n      dup1\n      swap2\n      div\n      mul\n      0x20\n      add\n      mload(0x40)\n      swap1\n      dup2\n      add\n      0x40\n      mstore\n      dup1\n      swap3\n      swap2\n      swap1\n      dup2\n      dup2\n      mstore\n      0x20\n      add\n      dup3\n      dup1\n      sload\n      tag_51\n      swap1\n      tag_28\n      jump\t// in\n    tag_51:\n      dup1\n      iszero\n      tag_52\n      jumpi\n      dup1\n      0x1f\n      lt\n      tag_53\n      jumpi\n      0x0100\n      dup1\n      dup4\n      sload\n      div\n      mul\n      dup4\n      mstore\n      swap2\n      0x20\n      add\n      swap2\n      jump(tag_52)\n    tag_53:\n      dup3\n      add\n      swap2\n      swap1\n      0x00\n      mstore\n      keccak256(0x00, 0x20)\n      swap1\n    tag_54:\n      dup2\n      sload\n      dup2\n      mstore\n      swap1\n      0x01\n      add\n      swap1\n      0x20\n      add\n      dup1\n      dup4\n      gt\n      tag_54\n      jumpi\n      dup3\n      swap1\n      sub\n      0x1f\n      and\n      dup3\n      add\n      swap2\n    tag_52:\n      pop\n      pop\n      pop\n      pop\n      pop\n      swap1\n      dup1\n      0x02\n      add\n      dup1\n      sload\n      tag_55\n      swap1\n      tag_28\n      jump\t// in\n    tag_55:\n      dup1\n      0x1f\n      add\n      0x20\n      dup1\n      swap2\n      div\n      mul\n      0x20\n      add\n      mload(0x40)\n      swap1\n      dup2\n      add\n      0x40\n      mstore\n      dup1\n      swap3\n      swap2\n      swap1\n      dup2\n      dup2\n      mstore\n      0x20\n      add\n      dup3\n      dup1\n      sload\n      tag_56\n      swap1\n      tag_28\n      jump\t// in\n    tag_56:\n      dup1\n      iszero\n      tag_57\n      jumpi\n      dup1\n      0x1f\n      lt\n      tag_58\n      jumpi\n      0x0100\n      dup1\n      dup4\n      sload\n      div\n      mul\n      dup4\n      mstore\n      swap2\n      0x20\n      add\n      swap2\n      jump(tag_57)\n    tag_58:\n      dup3\n      add\n      swap2\n      swap1\n      0x00\n      mstore\n      keccak256(0x00, 0x20)\n      swap1\n    tag_59:\n      dup2\n      sload\n      dup2\n      mstore\n      swap1\n      0x01\n      add\n      swap1\n      0x20\n      add\n      dup1\n      dup4\n      gt\n      tag_59\n      jumpi\n      dup3\n      swap1\n      sub\n      0x1f\n      and\n      dup3\n      add\n      swap2\n    tag_57:\n      pop\n      pop\n      pop\n      pop\n      pop\n      swap1\n      pop\n      dup4\n      jump\t// out\n    tag_38:\n      mload(0x40)\n      dup1\n      0x60\n      add\n      0x40\n      mstore\n      dup1\n      0x00\n      dup2\n      mstore\n      0x20\n      add\n      0x60\n      dup2\n      mstore\n      0x20\n      add\n      0x60\n      dup2\n      mstore\n      pop\n      swap1\n      jump\t// out\n        /* \"#utility.yul\":7:84   */\n    tag_60:\n        /* \"#utility.yul\":44:51   */\n      0x00\n        /* \"#utility.yul\":73:78   */\n      dup2\n        /* \"#utility.yul\":62:78   */\n      swap1\n      pop\n        /* \"#utility.yul\":7:84   */\n      swap2\n      swap1\n      pop\n      jump\t// out\n        /* \"#utility.yul\":90:208   */\n    tag_61:\n        /* \"#utility.yul\":177:201   */\n      tag_109\n        /* \"#utility.yul\":195:200   */\n      dup2\n        /* \"#utility.yul\":177:201   */\n      tag_60\n      jump\t// in\n    tag_109:\n        /* \"#utility.yul\":172:175   */\n      dup3\n        /* \"#utility.yul\":165:202   */\n      mstore\n        /* \"#utility.yul\":90:208   */\n      pop\n      pop\n      jump\t// out\n        /* \"#utility.yul\":214:436   */\n    tag_10:\n        /* \"#utility.yul\":307:311   */\n      0x00\n        /* \"#utility.yul\":345:347   */\n      0x20\n        /* \"#utility.yul\":334:343   */\n      dup3\n        /* \"#utility.yul\":330:348   */\n      add\n        /* \"#utility.yul\":322:348   */\n      swap1\n      pop\n        /* \"#utility.yul\":358:429   */\n      tag_111\n        /* \"#utility.yul\":426:427   */\n      0x00\n        /* \"#utility.yul\":415:424   */\n      dup4\n        /* \"#utility.yul\":411:428   */\n      add\n        /* \"#utility.yul\":402:408   */\n      dup5\n        /* \"#utility.yul\":358:429   */\n      tag_61\n      jump\t// in\n    tag_111:\n        /* \"#utility.yul\":214:436   */\n      swap3\n      swap2\n      pop\n      pop\n      jump\t// out\n        /* \"#utility.yul\":442:517   */\n    tag_62:\n        /* \"#utility.yul\":475:481   */\n      0x00\n        /* \"#utility.yul\":508:510   */\n      0x40\n        /* \"#utility.yul\":502:511   */\n      mload\n        /* \"#utility.yul\":492:511   */\n      swap1\n      pop\n        /* \"#utility.yul\":442:517   */\n      swap1\n      jump\t// out\n        /* \"#utility.yul\":523:640   */\n    tag_63:\n        /* \"#utility.yul\":632:633   */\n      0x00\n        /* \"#utility.yul\":629:630   */\n      dup1\n        /* \"#utility.yul\":622:634   */\n      revert\n        /* \"#utility.yul\":646:763   */\n    tag_64:\n        /* \"#utility.yul\":755:756   */\n      0x00\n        /* \"#utility.yul\":752:753   */\n      dup1\n        /* \"#utility.yul\":745:757   */\n      revert\n        /* \"#utility.yul\":769:886   */\n    tag_65:\n        /* \"#utility.yul\":878:879   */\n      0x00\n        /* \"#utility.yul\":875:876   */\n      dup1\n        /* \"#utility.yul\":868:880   */\n      revert\n        /* \"#utility.yul\":892:1009   */\n    tag_66:\n        /* \"#utility.yul\":1001:1002   */\n      0x00\n        /* \"#utility.yul\":998:999   */\n      dup1\n        /* \"#utility.yul\":991:1003   */\n      revert\n        /* \"#utility.yul\":1015:1117   */\n    tag_67:\n        /* \"#utility.yul\":1056:1062   */\n      0x00\n        /* \"#utility.yul\":1107:1109   */\n      0x1f\n        /* \"#utility.yul\":1103:1110   */\n      not\n        /* \"#utility.yul\":1098:1100   */\n      0x1f\n        /* \"#utility.yul\":1091:1096   */\n      dup4\n        /* \"#utility.yul\":1087:1101   */\n      add\n        /* \"#utility.yul\":1083:1111   */\n      and\n        /* \"#utility.yul\":1073:1111   */\n      swap1\n      pop\n        /* \"#utility.yul\":1015:1117   */\n      swap2\n      swap1\n      pop\n      jump\t// out\n        /* \"#utility.yul\":1123:1303   */\n    tag_68:\n        /* \"#utility.yul\":1171:1248   */\n      0x4e487b7100000000000000000000000000000000000000000000000000000000\n        /* \"#utility.yul\":1168:1169   */\n      0x00\n        /* \"#utility.yul\":1161:1249   */\n      mstore\n        /* \"#utility.yul\":1268:1272   */\n      0x41\n        /* \"#utility.yul\":1265:1266   */\n      0x04\n        /* \"#utility.yul\":1258:1273   */\n      mstore\n        /* \"#utility.yul\":1292:1296   */\n      0x24\n        /* \"#utility.yul\":1289:1290   */\n      0x00\n        /* \"#utility.yul\":1282:1297   */\n      revert\n        /* \"#utility.yul\":1309:1590   */\n    tag_69:\n        /* \"#utility.yul\":1392:1419   */\n      tag_120\n        /* \"#utility.yul\":1414:1418   */\n      dup3\n        /* \"#utility.yul\":1392:1419   */\n      tag_67\n      jump\t// in\n    tag_120:\n        /* \"#utility.yul\":1384:1390   */\n      dup2\n        /* \"#utility.yul\":1380:1420   */\n      add\n        /* \"#utility.yul\":1522:1528   */\n      dup2\n        /* \"#utility.yul\":1510:1520   */\n      dup2\n        /* \"#utility.yul\":1507:1529   */\n      lt\n        /* \"#utility.yul\":1486:1504   */\n      0xffffffffffffffff\n        /* \"#utility.yul\":1474:1484   */\n      dup3\n        /* \"#utility.yul\":1471:1505   */\n      gt\n        /* \"#utility.yul\":1468:1530   */\n      or\n        /* \"#utility.yul\":1465:1553   */\n      iszero\n      tag_121\n      jumpi\n        /* \"#utility.yul\":1533:1551   */\n      tag_122\n      tag_68\n      jump\t// in\n    tag_122:\n        /* \"#utility.yul\":1465:1553   */\n    tag_121:\n        /* \"#utility.yul\":1573:1583   */\n      dup1\n        /* \"#utility.yul\":1569:1571   */\n      0x40\n        /* \"#utility.yul\":1562:1584   */\n      mstore\n        /* \"#utility.yul\":1352:1590   */\n      pop\n        /* \"#utility.yul\":1309:1590   */\n      pop\n      pop\n      jump\t// out\n        /* \"#utility.yul\":1596:1725   */\n    tag_70:\n        /* \"#utility.yul\":1630:1636   */\n      0x00\n        /* \"#utility.yul\":1657:1677   */\n      tag_124\n      tag_62\n      jump\t// in\n    tag_124:\n        /* \"#utility.yul\":1647:1677   */\n      swap1\n      pop\n        /* \"#utility.yul\":1686:1719   */\n      tag_125\n        /* \"#utility.yul\":1714:1718   */\n      dup3\n        /* \"#utility.yul\":1706:1712   */\n      dup3\n        /* \"#utility.yul\":1686:1719   */\n      tag_69\n      jump\t// in\n    tag_125:\n        /* \"#utility.yul\":1596:1725   */\n      swap2\n      swap1\n      pop\n      jump\t// out\n        /* \"#utility.yul\":1731:2039   */\n    tag_71:\n        /* \"#utility.yul\":1793:1797   */\n      0x00\n        /* \"#utility.yul\":1883:1901   */\n      0xffffffffffffffff\n        /* \"#utility.yul\":1875:1881   */\n      dup3\n        /* \"#utility.yul\":1872:1902   */\n      gt\n        /* \"#utility.yul\":1869:1925   */\n      iszero\n      tag_127\n      jumpi\n        /* \"#utility.yul\":1905:1923   */\n      tag_128\n      tag_68\n      jump\t// in\n    tag_128:\n        /* \"#utility.yul\":1869:1925   */\n    tag_127:\n        /* \"#utility.yul\":1943:1972   */\n      tag_129\n        /* \"#utility.yul\":1965:1971   */\n      dup3\n        /* \"#utility.yul\":1943:1972   */\n      tag_67\n      jump\t// in\n    tag_129:\n        /* \"#utility.yul\":1935:1972   */\n      swap1\n      pop\n        /* \"#utility.yul\":2027:2031   */\n      0x20\n        /* \"#utility.yul\":2021:2025   */\n      dup2\n        /* \"#utility.yul\":2017:2032   */\n      add\n        /* \"#utility.yul\":2009:2032   */\n      swap1\n      pop\n        /* \"#utility.yul\":1731:2039   */\n      swap2\n      swap1\n      pop\n      jump\t// out\n        /* \"#utility.yul\":2045:2193   */\n    tag_72:\n        /* \"#utility.yul\":2143:2149   */\n      dup3\n        /* \"#utility.yul\":2138:2141   */\n      dup2\n        /* \"#utility.yul\":2133:2136   */\n      dup4\n        /* \"#utility.yul\":2120:2150   */\n      calldatacopy\n        /* \"#utility.yul\":2184:2185   */\n      0x00\n        /* \"#utility.yul\":2175:2181   */\n      dup4\n        /* \"#utility.yul\":2170:2173   */\n      dup4\n        /* \"#utility.yul\":2166:2182   */\n      add\n        /* \"#utility.yul\":2159:2186   */\n      mstore\n        /* \"#utility.yul\":2045:2193   */\n      pop\n      pop\n      pop\n      jump\t// out\n        /* \"#utility.yul\":2199:2624   */\n    tag_73:\n        /* \"#utility.yul\":2277:2282   */\n      0x00\n        /* \"#utility.yul\":2302:2368   */\n      tag_132\n        /* \"#utility.yul\":2318:2367   */\n      tag_133\n        /* \"#utility.yul\":2360:2366   */\n      dup5\n        /* \"#utility.yul\":2318:2367   */\n      tag_71\n      jump\t// in\n    tag_133:\n        /* \"#utility.yul\":2302:2368   */\n      tag_70\n      jump\t// in\n    tag_132:\n        /* \"#utility.yul\":2293:2368   */\n      swap1\n      pop\n        /* \"#utility.yul\":2391:2397   */\n      dup3\n        /* \"#utility.yul\":2384:2389   */\n      dup2\n        /* \"#utility.yul\":2377:2398   */\n      mstore\n        /* \"#utility.yul\":2429:2433   */\n      0x20\n        /* \"#utility.yul\":2422:2427   */\n      dup2\n        /* \"#utility.yul\":2418:2434   */\n      add\n        /* \"#utility.yul\":2467:2470   */\n      dup5\n        /* \"#utility.yul\":2458:2464   */\n      dup5\n        /* \"#utility.yul\":2453:2456   */\n      dup5\n        /* \"#utility.yul\":2449:2465   */\n      add\n        /* \"#utility.yul\":2446:2471   */\n      gt\n        /* \"#utility.yul\":2443:2555   */\n      iszero\n      tag_134\n      jumpi\n        /* \"#utility.yul\":2474:2553   */\n      tag_135\n      tag_66\n      jump\t// in\n    tag_135:\n        /* \"#utility.yul\":2443:2555   */\n    tag_134:\n        /* \"#utility.yul\":2564:2618   */\n      tag_136\n        /* \"#utility.yul\":2611:2617   */\n      dup5\n        /* \"#utility.yul\":2606:2609   */\n      dup3\n        /* \"#utility.yul\":2601:2604   */\n      dup6\n        /* \"#utility.yul\":2564:2618   */\n      tag_72\n      jump\t// in\n    tag_136:\n        /* \"#utility.yul\":2283:2624   */\n      pop\n        /* \"#utility.yul\":2199:2624   */\n      swap4\n      swap3\n      pop\n      pop\n      pop\n      jump\t// out\n        /* \"#utility.yul\":2644:2984   */\n    tag_74:\n        /* \"#utility.yul\":2700:2705   */\n      0x00\n        /* \"#utility.yul\":2749:2752   */\n      dup3\n        /* \"#utility.yul\":2742:2746   */\n      0x1f\n        /* \"#utility.yul\":2734:2740   */\n      dup4\n        /* \"#utility.yul\":2730:2747   */\n      add\n        /* \"#utility.yul\":2726:2753   */\n      slt\n        /* \"#utility.yul\":2716:2838   */\n      tag_138\n      jumpi\n        /* \"#utility.yul\":2757:2836   */\n      tag_139\n      tag_65\n      jump\t// in\n    tag_139:\n        /* \"#utility.yul\":2716:2838   */\n    tag_138:\n        /* \"#utility.yul\":2874:2880   */\n      dup2\n        /* \"#utility.yul\":2861:2881   */\n      calldataload\n        /* \"#utility.yul\":2899:2978   */\n      tag_140\n        /* \"#utility.yul\":2974:2977   */\n      dup5\n        /* \"#utility.yul\":2966:2972   */\n      dup3\n        /* \"#utility.yul\":2959:2963   */\n      0x20\n        /* \"#utility.yul\":2951:2957   */\n      dup7\n        /* \"#utility.yul\":2947:2964   */\n      add\n        /* \"#utility.yul\":2899:2978   */\n      tag_73\n      jump\t// in\n    tag_140:\n        /* \"#utility.yul\":2890:2978   */\n      swap2\n      pop\n        /* \"#utility.yul\":2706:2984   */\n      pop\n        /* \"#utility.yul\":2644:2984   */\n      swap3\n      swap2\n      pop\n      pop\n      jump\t// out\n        /* \"#utility.yul\":2990:3824   */\n    tag_13:\n        /* \"#utility.yul\":3078:3084   */\n      0x00\n        /* \"#utility.yul\":3086:3092   */\n      dup1\n        /* \"#utility.yul\":3135:3137   */\n      0x40\n        /* \"#utility.yul\":3123:3132   */\n      dup4\n        /* \"#utility.yul\":3114:3121   */\n      dup6\n        /* \"#utility.yul\":3110:3133   */\n      sub\n        /* \"#utility.yul\":3106:3138   */\n      slt\n        /* \"#utility.yul\":3103:3222   */\n      iszero\n      tag_142\n      jumpi\n        /* \"#utility.yul\":3141:3220   */\n      tag_143\n      tag_63\n      jump\t// in\n    tag_143:\n        /* \"#utility.yul\":3103:3222   */\n    tag_142:\n        /* \"#utility.yul\":3289:3290   */\n      0x00\n        /* \"#utility.yul\":3278:3287   */\n      dup4\n        /* \"#utility.yul\":3274:3291   */\n      add\n        /* \"#utility.yul\":3261:3292   */\n      calldataload\n        /* \"#utility.yul\":3319:3337   */\n      0xffffffffffffffff\n        /* \"#utility.yul\":3311:3317   */\n      dup2\n        /* \"#utility.yul\":3308:3338   */\n      gt\n        /* \"#utility.yul\":3305:3422   */\n      iszero\n      tag_144\n      jumpi\n        /* \"#utility.yul\":3341:3420   */\n      tag_145\n      tag_64\n      jump\t// in\n    tag_145:\n        /* \"#utility.yul\":3305:3422   */\n    tag_144:\n        /* \"#utility.yul\":3446:3509   */\n      tag_146\n        /* \"#utility.yul\":3501:3508   */\n      dup6\n        /* \"#utility.yul\":3492:3498   */\n      dup3\n        /* \"#utility.yul\":3481:3490   */\n      dup7\n        /* \"#utility.yul\":3477:3499   */\n      add\n        /* \"#utility.yul\":3446:3509   */\n      tag_74\n      jump\t// in\n    tag_146:\n        /* \"#utility.yul\":3436:3509   */\n      swap3\n      pop\n        /* \"#utility.yul\":3232:3519   */\n      pop\n        /* \"#utility.yul\":3586:3588   */\n      0x20\n        /* \"#utility.yul\":3575:3584   */\n      dup4\n        /* \"#utility.yul\":3571:3589   */\n      add\n        /* \"#utility.yul\":3558:3590   */\n      calldataload\n        /* \"#utility.yul\":3617:3635   */\n      0xffffffffffffffff\n        /* \"#utility.yul\":3609:3615   */\n      dup2\n        /* \"#utility.yul\":3606:3636   */\n      gt\n        /* \"#utility.yul\":3603:3720   */\n      iszero\n      tag_147\n      jumpi\n        /* \"#utility.yul\":3639:3718   */\n      tag_148\n      tag_64\n      jump\t// in\n    tag_148:\n        /* \"#utility.yul\":3603:3720   */\n    tag_147:\n        /* \"#utility.yul\":3744:3807   */\n      tag_149\n        /* \"#utility.yul\":3799:3806   */\n      dup6\n        /* \"#utility.yul\":3790:3796   */\n      dup3\n        /* \"#utility.yul\":3779:3788   */\n      dup7\n        /* \"#utility.yul\":3775:3797   */\n      add\n        /* \"#utility.yul\":3744:3807   */\n      tag_74\n      jump\t// in\n    tag_149:\n        /* \"#utility.yul\":3734:3807   */\n      swap2\n      pop\n        /* \"#utility.yul\":3529:3817   */\n      pop\n        /* \"#utility.yul\":2990:3824   */\n      swap3\n      pop\n      swap3\n      swap1\n      pop\n      jump\t// out\n        /* \"#utility.yul\":3830:3956   */\n    tag_75:\n        /* \"#utility.yul\":3867:3874   */\n      0x00\n        /* \"#utility.yul\":3907:3949   */\n      0xffffffffffffffffffffffffffffffffffffffff\n        /* \"#utility.yul\":3900:3905   */\n      dup3\n        /* \"#utility.yul\":3896:3950   */\n      and\n        /* \"#utility.yul\":3885:3950   */\n      swap1\n      pop\n        /* \"#utility.yul\":3830:3956   */\n      swap2\n      swap1\n      pop\n      jump\t// out\n        /* \"#utility.yul\":3962:4058   */\n    tag_76:\n        /* \"#utility.yul\":3999:4006   */\n      0x00\n        /* \"#utility.yul\":4028:4052   */\n      tag_152\n        /* \"#utility.yul\":4046:4051   */\n      dup3\n        /* \"#utility.yul\":4028:4052   */\n      tag_75\n      jump\t// in\n    tag_152:\n        /* \"#utility.yul\":4017:4052   */\n      swap1\n      pop\n        /* \"#utility.yul\":3962:4058   */\n      swap2\n      swap1\n      pop\n      jump\t// out\n        /* \"#utility.yul\":4064:4186   */\n    tag_77:\n        /* \"#utility.yul\":4137:4161   */\n      tag_154\n        /* \"#utility.yul\":4155:4160   */\n      dup2\n        /* \"#utility.yul\":4137:4161   */\n      tag_76\n      jump\t// in\n    tag_154:\n        /* \"#utility.yul\":4130:4135   */\n      dup2\n        /* \"#utility.yul\":4127:4162   */\n      eq\n        /* \"#utility.yul\":4117:4180   */\n      tag_155\n      jumpi\n        /* \"#utility.yul\":4176:4177   */\n      0x00\n        /* \"#utility.yul\":4173:4174   */\n      dup1\n        /* \"#utility.yul\":4166:4178   */\n      revert\n        /* \"#utility.yul\":4117:4180   */\n    tag_155:\n        /* \"#utility.yul\":4064:4186   */\n      pop\n      jump\t// out\n        /* \"#utility.yul\":4192:4331   */\n    tag_78:\n        /* \"#utility.yul\":4238:4243   */\n      0x00\n        /* \"#utility.yul\":4276:4282   */\n      dup2\n        /* \"#utility.yul\":4263:4283   */\n      calldataload\n        /* \"#utility.yul\":4254:4283   */\n      swap1\n      pop\n        /* \"#utility.yul\":4292:4325   */\n      tag_157\n        /* \"#utility.yul\":4319:4324   */\n      dup2\n        /* \"#utility.yul\":4292:4325   */\n      tag_77\n      jump\t// in\n    tag_157:\n        /* \"#utility.yul\":4192:4331   */\n      swap3\n      swap2\n      pop\n      pop\n      jump\t// out\n        /* \"#utility.yul\":4337:4666   */\n    tag_17:\n        /* \"#utility.yul\":4396:4402   */\n      0x00\n        /* \"#utility.yul\":4445:4447   */\n      0x20\n        /* \"#utility.yul\":4433:4442   */\n      dup3\n        /* \"#utility.yul\":4424:4431   */\n      dup5\n        /* \"#utility.yul\":4420:4443   */\n      sub\n        /* \"#utility.yul\":4416:4448   */\n      slt\n        /* \"#utility.yul\":4413:4532   */\n      iszero\n      tag_159\n      jumpi\n        /* \"#utility.yul\":4451:4530   */\n      tag_160\n      tag_63\n      jump\t// in\n    tag_160:\n        /* \"#utility.yul\":4413:4532   */\n    tag_159:\n        /* \"#utility.yul\":4571:4572   */\n      0x00\n        /* \"#utility.yul\":4596:4649   */\n      tag_161\n        /* \"#utility.yul\":4641:4648   */\n      dup5\n        /* \"#utility.yul\":4632:4638   */\n      dup3\n        /* \"#utility.yul\":4621:4630   */\n      dup6\n        /* \"#utility.yul\":4617:4639   */\n      add\n        /* \"#utility.yul\":4596:4649   */\n      tag_78\n      jump\t// in\n    tag_161:\n        /* \"#utility.yul\":4586:4649   */\n      swap2\n      pop\n        /* \"#utility.yul\":4542:4659   */\n      pop\n        /* \"#utility.yul\":4337:4666   */\n      swap3\n      swap2\n      pop\n      pop\n      jump\t// out\n        /* \"#utility.yul\":4672:4780   */\n    tag_79:\n        /* \"#utility.yul\":4749:4773   */\n      tag_163\n        /* \"#utility.yul\":4767:4772   */\n      dup2\n        /* \"#utility.yul\":4749:4773   */\n      tag_60\n      jump\t// in\n    tag_163:\n        /* \"#utility.yul\":4744:4747   */\n      dup3\n        /* \"#utility.yul\":4737:4774   */\n      mstore\n        /* \"#utility.yul\":4672:4780   */\n      pop\n      pop\n      jump\t// out\n        /* \"#utility.yul\":4786:4885   */\n    tag_80:\n        /* \"#utility.yul\":4838:4844   */\n      0x00\n        /* \"#utility.yul\":4872:4877   */\n      dup2\n        /* \"#utility.yul\":4866:4878   */\n      mload\n        /* \"#utility.yul\":4856:4878   */\n      swap1\n      pop\n        /* \"#utility.yul\":4786:4885   */\n      swap2\n      swap1\n      pop\n      jump\t// out\n        /* \"#utility.yul\":4891:5050   */\n    tag_81:\n        /* \"#utility.yul\":4965:4976   */\n      0x00\n        /* \"#utility.yul\":4999:5005   */\n      dup3\n        /* \"#utility.yul\":4994:4997   */\n      dup3\n        /* \"#utility.yul\":4987:5006   */\n      mstore\n        /* \"#utility.yul\":5039:5043   */\n      0x20\n        /* \"#utility.yul\":5034:5037   */\n      dup3\n        /* \"#utility.yul\":5030:5044   */\n      add\n        /* \"#utility.yul\":5015:5044   */\n      swap1\n      pop\n        /* \"#utility.yul\":4891:5050   */\n      swap3\n      swap2\n      pop\n      pop\n      jump\t// out\n        /* \"#utility.yul\":5056:5195   */\n    tag_82:\n        /* \"#utility.yul\":5145:5151   */\n      dup3\n        /* \"#utility.yul\":5140:5143   */\n      dup2\n        /* \"#utility.yul\":5135:5138   */\n      dup4\n        /* \"#utility.yul\":5129:5152   */\n      mcopy\n        /* \"#utility.yul\":5186:5187   */\n      0x00\n        /* \"#utility.yul\":5177:5183   */\n      dup4\n        /* \"#utility.yul\":5172:5175   */\n      dup4\n        /* \"#utility.yul\":5168:5184   */\n      add\n        /* \"#utility.yul\":5161:5188   */\n      mstore\n        /* \"#utility.yul\":5056:5195   */\n      pop\n      pop\n      pop\n      jump\t// out\n        /* \"#utility.yul\":5201:5558   */\n    tag_83:\n        /* \"#utility.yul\":5279:5282   */\n      0x00\n        /* \"#utility.yul\":5307:5346   */\n      tag_168\n        /* \"#utility.yul\":5340:5345   */\n      dup3\n        /* \"#utility.yul\":5307:5346   */\n      tag_80\n      jump\t// in\n    tag_168:\n        /* \"#utility.yul\":5362:5423   */\n      tag_169\n        /* \"#utility.yul\":5416:5422   */\n      dup2\n        /* \"#utility.yul\":5411:5414   */\n      dup6\n        /* \"#utility.yul\":5362:5423   */\n      tag_81\n      jump\t// in\n    tag_169:\n        /* \"#utility.yul\":5355:5423   */\n      swap4\n      pop\n        /* \"#utility.yul\":5432:5497   */\n      tag_170\n        /* \"#utility.yul\":5490:5496   */\n      dup2\n        /* \"#utility.yul\":5485:5488   */\n      dup6\n        /* \"#utility.yul\":5478:5482   */\n      0x20\n        /* \"#utility.yul\":5471:5476   */\n      dup7\n        /* \"#utility.yul\":5467:5483   */\n      add\n        /* \"#utility.yul\":5432:5497   */\n      tag_82\n      jump\t// in\n    tag_170:\n        /* \"#utility.yul\":5522:5551   */\n      tag_171\n        /* \"#utility.yul\":5544:5550   */\n      dup2\n        /* \"#utility.yul\":5522:5551   */\n      tag_67\n      jump\t// in\n    tag_171:\n        /* \"#utility.yul\":5517:5520   */\n      dup5\n        /* \"#utility.yul\":5513:5552   */\n      add\n        /* \"#utility.yul\":5506:5552   */\n      swap2\n      pop\n        /* \"#utility.yul\":5283:5558   */\n      pop\n        /* \"#utility.yul\":5201:5558   */\n      swap3\n      swap2\n      pop\n      pop\n      jump\t// out\n        /* \"#utility.yul\":5624:6461   */\n    tag_84:\n        /* \"#utility.yul\":5731:5734   */\n      0x00\n        /* \"#utility.yul\":5767:5771   */\n      0x60\n        /* \"#utility.yul\":5762:5765   */\n      dup4\n        /* \"#utility.yul\":5758:5772   */\n      add\n        /* \"#utility.yul\":5852:5856   */\n      0x00\n        /* \"#utility.yul\":5845:5850   */\n      dup4\n        /* \"#utility.yul\":5841:5857   */\n      add\n        /* \"#utility.yul\":5835:5858   */\n      mload\n        /* \"#utility.yul\":5871:5934   */\n      tag_173\n        /* \"#utility.yul\":5928:5932   */\n      0x00\n        /* \"#utility.yul\":5923:5926   */\n      dup7\n        /* \"#utility.yul\":5919:5933   */\n      add\n        /* \"#utility.yul\":5905:5917   */\n      dup3\n        /* \"#utility.yul\":5871:5934   */\n      tag_79\n      jump\t// in\n    tag_173:\n        /* \"#utility.yul\":5782:5944   */\n      pop\n        /* \"#utility.yul\":6026:6030   */\n      0x20\n        /* \"#utility.yul\":6019:6024   */\n      dup4\n        /* \"#utility.yul\":6015:6031   */\n      add\n        /* \"#utility.yul\":6009:6032   */\n      mload\n        /* \"#utility.yul\":6079:6082   */\n      dup5\n        /* \"#utility.yul\":6073:6077   */\n      dup3\n        /* \"#utility.yul\":6069:6083   */\n      sub\n        /* \"#utility.yul\":6062:6066   */\n      0x20\n        /* \"#utility.yul\":6057:6060   */\n      dup7\n        /* \"#utility.yul\":6053:6067   */\n      add\n        /* \"#utility.yul\":6046:6084   */\n      mstore\n        /* \"#utility.yul\":6105:6178   */\n      tag_174\n        /* \"#utility.yul\":6173:6177   */\n      dup3\n        /* \"#utility.yul\":6159:6171   */\n      dup3\n        /* \"#utility.yul\":6105:6178   */\n      tag_83\n      jump\t// in\n    tag_174:\n        /* \"#utility.yul\":6097:6178   */\n      swap2\n      pop\n        /* \"#utility.yul\":5954:6189   */\n      pop\n        /* \"#utility.yul\":6271:6275   */\n      0x40\n        /* \"#utility.yul\":6264:6269   */\n      dup4\n        /* \"#utility.yul\":6260:6276   */\n      add\n        /* \"#utility.yul\":6254:6277   */\n      mload\n        /* \"#utility.yul\":6324:6327   */\n      dup5\n        /* \"#utility.yul\":6318:6322   */\n      dup3\n        /* \"#utility.yul\":6314:6328   */\n      sub\n        /* \"#utility.yul\":6307:6311   */\n      0x40\n        /* \"#utility.yul\":6302:6305   */\n      dup7\n        /* \"#utility.yul\":6298:6312   */\n      add\n        /* \"#utility.yul\":6291:6329   */\n      mstore\n        /* \"#utility.yul\":6350:6423   */\n      tag_175\n        /* \"#utility.yul\":6418:6422   */\n      dup3\n        /* \"#utility.yul\":6404:6416   */\n      dup3\n        /* \"#utility.yul\":6350:6423   */\n      tag_83\n      jump\t// in\n    tag_175:\n        /* \"#utility.yul\":6342:6423   */\n      swap2\n      pop\n        /* \"#utility.yul\":6199:6434   */\n      pop\n        /* \"#utility.yul\":6451:6455   */\n      dup1\n        /* \"#utility.yul\":6444:6455   */\n      swap2\n      pop\n        /* \"#utility.yul\":5736:6461   */\n      pop\n        /* \"#utility.yul\":5624:6461   */\n      swap3\n      swap2\n      pop\n      pop\n      jump\t// out\n        /* \"#utility.yul\":6467:6816   */\n    tag_20:\n        /* \"#utility.yul\":6598:6602   */\n      0x00\n        /* \"#utility.yul\":6636:6638   */\n      0x20\n        /* \"#utility.yul\":6625:6634   */\n      dup3\n        /* \"#utility.yul\":6621:6639   */\n      add\n        /* \"#utility.yul\":6613:6639   */\n      swap1\n      pop\n        /* \"#utility.yul\":6685:6694   */\n      dup2\n        /* \"#utility.yul\":6679:6683   */\n      dup2\n        /* \"#utility.yul\":6675:6695   */\n      sub\n        /* \"#utility.yul\":6671:6672   */\n      0x00\n        /* \"#utility.yul\":6660:6669   */\n      dup4\n        /* \"#utility.yul\":6656:6673   */\n      add\n        /* \"#utility.yul\":6649:6696   */\n      mstore\n        /* \"#utility.yul\":6713:6809   */\n      tag_177\n        /* \"#utility.yul\":6804:6808   */\n      dup2\n        /* \"#utility.yul\":6795:6801   */\n      dup5\n        /* \"#utility.yul\":6713:6809   */\n      tag_84\n      jump\t// in\n    tag_177:\n        /* \"#utility.yul\":6705:6809   */\n      swap1\n      pop\n        /* \"#utility.yul\":6467:6816   */\n      swap3\n      swap2\n      pop\n      pop\n      jump\t// out\n        /* \"#utility.yul\":6822:6991   */\n    tag_85:\n        /* \"#utility.yul\":6906:6917   */\n      0x00\n        /* \"#utility.yul\":6940:6946   */\n      dup3\n        /* \"#utility.yul\":6935:6938   */\n      dup3\n        /* \"#utility.yul\":6928:6947   */\n      mstore\n        /* \"#utility.yul\":6980:6984   */\n      0x20\n        /* \"#utility.yul\":6975:6978   */\n      dup3\n        /* \"#utility.yul\":6971:6985   */\n      add\n        /* \"#utility.yul\":6956:6985   */\n      swap1\n      pop\n        /* \"#utility.yul\":6822:6991   */\n      swap3\n      swap2\n      pop\n      pop\n      jump\t// out\n        /* \"#utility.yul\":6997:7374   */\n    tag_86:\n        /* \"#utility.yul\":7085:7088   */\n      0x00\n        /* \"#utility.yul\":7113:7152   */\n      tag_180\n        /* \"#utility.yul\":7146:7151   */\n      dup3\n        /* \"#utility.yul\":7113:7152   */\n      tag_80\n      jump\t// in\n    tag_180:\n        /* \"#utility.yul\":7168:7239   */\n      tag_181\n        /* \"#utility.yul\":7232:7238   */\n      dup2\n        /* \"#utility.yul\":7227:7230   */\n      dup6\n        /* \"#utility.yul\":7168:7239   */\n      tag_85\n      jump\t// in\n    tag_181:\n        /* \"#utility.yul\":7161:7239   */\n      swap4\n      pop\n        /* \"#utility.yul\":7248:7313   */\n      tag_182\n        /* \"#utility.yul\":7306:7312   */\n      dup2\n        /* \"#utility.yul\":7301:7304   */\n      dup6\n        /* \"#utility.yul\":7294:7298   */\n      0x20\n        /* \"#utility.yul\":7287:7292   */\n      dup7\n        /* \"#utility.yul\":7283:7299   */\n      add\n        /* \"#utility.yul\":7248:7313   */\n      tag_82\n      jump\t// in\n    tag_182:\n        /* \"#utility.yul\":7338:7367   */\n      tag_183\n        /* \"#utility.yul\":7360:7366   */\n      dup2\n        /* \"#utility.yul\":7338:7367   */\n      tag_67\n      jump\t// in\n    tag_183:\n        /* \"#utility.yul\":7333:7336   */\n      dup5\n        /* \"#utility.yul\":7329:7368   */\n      add\n        /* \"#utility.yul\":7322:7368   */\n      swap2\n      pop\n        /* \"#utility.yul\":7089:7374   */\n      pop\n        /* \"#utility.yul\":6997:7374   */\n      swap3\n      swap2\n      pop\n      pop\n      jump\t// out\n        /* \"#utility.yul\":7380:8004   */\n    tag_25:\n        /* \"#utility.yul\":7569:7573   */\n      0x00\n        /* \"#utility.yul\":7607:7609   */\n      0x60\n        /* \"#utility.yul\":7596:7605   */\n      dup3\n        /* \"#utility.yul\":7592:7610   */\n      add\n        /* \"#utility.yul\":7584:7610   */\n      swap1\n      pop\n        /* \"#utility.yul\":7620:7691   */\n      tag_185\n        /* \"#utility.yul\":7688:7689   */\n      0x00\n        /* \"#utility.yul\":7677:7686   */\n      dup4\n        /* \"#utility.yul\":7673:7690   */\n      add\n        /* \"#utility.yul\":7664:7670   */\n      dup7\n        /* \"#utility.yul\":7620:7691   */\n      tag_61\n      jump\t// in\n    tag_185:\n        /* \"#utility.yul\":7738:7747   */\n      dup2\n        /* \"#utility.yul\":7732:7736   */\n      dup2\n        /* \"#utility.yul\":7728:7748   */\n      sub\n        /* \"#utility.yul\":7723:7725   */\n      0x20\n        /* \"#utility.yul\":7712:7721   */\n      dup4\n        /* \"#utility.yul\":7708:7726   */\n      add\n        /* \"#utility.yul\":7701:7749   */\n      mstore\n        /* \"#utility.yul\":7766:7844   */\n      tag_186\n        /* \"#utility.yul\":7839:7843   */\n      dup2\n        /* \"#utility.yul\":7830:7836   */\n      dup6\n        /* \"#utility.yul\":7766:7844   */\n      tag_86\n      jump\t// in\n    tag_186:\n        /* \"#utility.yul\":7758:7844   */\n      swap1\n      pop\n        /* \"#utility.yul\":7891:7900   */\n      dup2\n        /* \"#utility.yul\":7885:7889   */\n      dup2\n        /* \"#utility.yul\":7881:7901   */\n      sub\n        /* \"#utility.yul\":7876:7878   */\n      0x40\n        /* \"#utility.yul\":7865:7874   */\n      dup4\n        /* \"#utility.yul\":7861:7879   */\n      add\n        /* \"#utility.yul\":7854:7902   */\n      mstore\n        /* \"#utility.yul\":7919:7997   */\n      tag_187\n        /* \"#utility.yul\":7992:7996   */\n      dup2\n        /* \"#utility.yul\":7983:7989   */\n      dup5\n        /* \"#utility.yul\":7919:7997   */\n      tag_86\n      jump\t// in\n    tag_187:\n        /* \"#utility.yul\":7911:7997   */\n      swap1\n      pop\n        /* \"#utility.yul\":7380:8004   */\n      swap5\n      swap4\n      pop\n      pop\n      pop\n      pop\n      jump\t// out\n        /* \"#utility.yul\":8010:8190   */\n    tag_87:\n        /* \"#utility.yul\":8058:8135   */\n      0x4e487b7100000000000000000000000000000000000000000000000000000000\n        /* \"#utility.yul\":8055:8056   */\n      0x00\n        /* \"#utility.yul\":8048:8136   */\n      mstore\n        /* \"#utility.yul\":8155:8159   */\n      0x22\n        /* \"#utility.yul\":8152:8153   */\n      0x04\n        /* \"#utility.yul\":8145:8160   */\n      mstore\n        /* \"#utility.yul\":8179:8183   */\n      0x24\n        /* \"#utility.yul\":8176:8177   */\n      0x00\n        /* \"#utility.yul\":8169:8184   */\n      revert\n        /* \"#utility.yul\":8196:8516   */\n    tag_28:\n        /* \"#utility.yul\":8240:8246   */\n      0x00\n        /* \"#utility.yul\":8277:8278   */\n      0x02\n        /* \"#utility.yul\":8271:8275   */\n      dup3\n        /* \"#utility.yul\":8267:8279   */\n      div\n        /* \"#utility.yul\":8257:8279   */\n      swap1\n      pop\n        /* \"#utility.yul\":8324:8325   */\n      0x01\n        /* \"#utility.yul\":8318:8322   */\n      dup3\n        /* \"#utility.yul\":8314:8326   */\n      and\n        /* \"#utility.yul\":8345:8363   */\n      dup1\n        /* \"#utility.yul\":8335:8416   */\n      tag_190\n      jumpi\n        /* \"#utility.yul\":8401:8405   */\n      0x7f\n        /* \"#utility.yul\":8393:8399   */\n      dup3\n        /* \"#utility.yul\":8389:8406   */\n      and\n        /* \"#utility.yul\":8379:8406   */\n      swap2\n      pop\n        /* \"#utility.yul\":8335:8416   */\n    tag_190:\n        /* \"#utility.yul\":8463:8465   */\n      0x20\n        /* \"#utility.yul\":8455:8461   */\n      dup3\n        /* \"#utility.yul\":8452:8466   */\n      lt\n        /* \"#utility.yul\":8432:8450   */\n      dup2\n        /* \"#utility.yul\":8429:8467   */\n      sub\n        /* \"#utility.yul\":8426:8510   */\n      tag_191\n      jumpi\n        /* \"#utility.yul\":8482:8500   */\n      tag_192\n      tag_87\n      jump\t// in\n    tag_192:\n        /* \"#utility.yul\":8426:8510   */\n    tag_191:\n        /* \"#utility.yul\":8247:8516   */\n      pop\n        /* \"#utility.yul\":8196:8516   */\n      swap2\n      swap1\n      pop\n      jump\t// out\n        /* \"#utility.yul\":8522:8695   */\n    tag_88:\n        /* \"#utility.yul\":8662:8687   */\n      0x5573657220616c72656164792072656769737465726564000000000000000000\n        /* \"#utility.yul\":8658:8659   */\n      0x00\n        /* \"#utility.yul\":8650:8656   */\n      dup3\n        /* \"#utility.yul\":8646:8660   */\n      add\n        /* \"#utility.yul\":8639:8688   */\n      mstore\n        /* \"#utility.yul\":8522:8695   */\n      pop\n      jump\t// out\n        /* \"#utility.yul\":8701:9067   */\n    tag_89:\n        /* \"#utility.yul\":8843:8846   */\n      0x00\n        /* \"#utility.yul\":8864:8931   */\n      tag_195\n        /* \"#utility.yul\":8928:8930   */\n      0x17\n        /* \"#utility.yul\":8923:8926   */\n      dup4\n        /* \"#utility.yul\":8864:8931   */\n      tag_85\n      jump\t// in\n    tag_195:\n        /* \"#utility.yul\":8857:8931   */\n      swap2\n      pop\n        /* \"#utility.yul\":8940:9033   */\n      tag_196\n        /* \"#utility.yul\":9029:9032   */\n      dup3\n        /* \"#utility.yul\":8940:9033   */\n      tag_88\n      jump\t// in\n    tag_196:\n        /* \"#utility.yul\":9058:9060   */\n      0x20\n        /* \"#utility.yul\":9053:9056   */\n      dup3\n        /* \"#utility.yul\":9049:9061   */\n      add\n        /* \"#utility.yul\":9042:9061   */\n      swap1\n      pop\n        /* \"#utility.yul\":8701:9067   */\n      swap2\n      swap1\n      pop\n      jump\t// out\n        /* \"#utility.yul\":9073:9492   */\n    tag_31:\n        /* \"#utility.yul\":9239:9243   */\n      0x00\n        /* \"#utility.yul\":9277:9279   */\n      0x20\n        /* \"#utility.yul\":9266:9275   */\n      dup3\n        /* \"#utility.yul\":9262:9280   */\n      add\n        /* \"#utility.yul\":9254:9280   */\n      swap1\n      pop\n        /* \"#utility.yul\":9326:9335   */\n      dup2\n        /* \"#utility.yul\":9320:9324   */\n      dup2\n        /* \"#utility.yul\":9316:9336   */\n      sub\n        /* \"#utility.yul\":9312:9313   */\n      0x00\n        /* \"#utility.yul\":9301:9310   */\n      dup4\n        /* \"#utility.yul\":9297:9314   */\n      add\n        /* \"#utility.yul\":9290:9337   */\n      mstore\n        /* \"#utility.yul\":9354:9485   */\n      tag_198\n        /* \"#utility.yul\":9480:9484   */\n      dup2\n        /* \"#utility.yul\":9354:9485   */\n      tag_89\n      jump\t// in\n    tag_198:\n        /* \"#utility.yul\":9346:9485   */\n      swap1\n      pop\n        /* \"#utility.yul\":9073:9492   */\n      swap2\n      swap1\n      pop\n      jump\t// out\n        /* \"#utility.yul\":9498:9678   */\n    tag_90:\n        /* \"#utility.yul\":9546:9623   */\n      0x4e487b7100000000000000000000000000000000000000000000000000000000\n        /* \"#utility.yul\":9543:9544   */\n      0x00\n        /* \"#utility.yul\":9536:9624   */\n      mstore\n        /* \"#utility.yul\":9643:9647   */\n      0x11\n        /* \"#utility.yul\":9640:9641   */\n      0x04\n        /* \"#utility.yul\":9633:9648   */\n      mstore\n        /* \"#utility.yul\":9667:9671   */\n      0x24\n        /* \"#utility.yul\":9664:9665   */\n      0x00\n        /* \"#utility.yul\":9657:9672   */\n      revert\n        /* \"#utility.yul\":9684:9917   */\n    tag_33:\n        /* \"#utility.yul\":9723:9726   */\n      0x00\n        /* \"#utility.yul\":9746:9770   */\n      tag_201\n        /* \"#utility.yul\":9764:9769   */\n      dup3\n        /* \"#utility.yul\":9746:9770   */\n      tag_60\n      jump\t// in\n    tag_201:\n        /* \"#utility.yul\":9737:9770   */\n      swap2\n      pop\n        /* \"#utility.yul\":9792:9858   */\n      0xffffffffffffffffffffffffffffffffffffffffffffffffffffffffffffffff\n        /* \"#utility.yul\":9785:9790   */\n      dup3\n        /* \"#utility.yul\":9782:9859   */\n      sub\n        /* \"#utility.yul\":9779:9882   */\n      tag_202\n      jumpi\n        /* \"#utility.yul\":9862:9880   */\n      tag_203\n      tag_90\n      jump\t// in\n    tag_203:\n        /* \"#utility.yul\":9779:9882   */\n    tag_202:\n        /* \"#utility.yul\":9909:9910   */\n      0x01\n        /* \"#utility.yul\":9902:9907   */\n      dup3\n        /* \"#utility.yul\":9898:9911   */\n      add\n        /* \"#utility.yul\":9891:9911   */\n      swap1\n      pop\n        /* \"#utility.yul\":9684:9917   */\n      swap2\n      swap1\n      pop\n      jump\t// out\n        /* \"#utility.yul\":9923:10064   */\n    tag_91:\n        /* \"#utility.yul\":9972:9976   */\n      0x00\n        /* \"#utility.yul\":9995:9998   */\n      dup2\n        /* \"#utility.yul\":9987:9998   */\n      swap1\n      pop\n        /* \"#utility.yul\":10018:10021   */\n      dup2\n        /* \"#utility.yul\":10015:10016   */\n      0x00\n        /* \"#utility.yul\":10008:10022   */\n      mstore\n        /* \"#utility.yul\":10052:10056   */\n      0x20\n        /* \"#utility.yul\":10049:10050   */\n      0x00\n        /* \"#utility.yul\":10039:10057   */\n      keccak256\n        /* \"#utility.yul\":10031:10057   */\n      swap1\n      pop\n        /* \"#utility.yul\":9923:10064   */\n      swap2\n      swap1\n      pop\n      jump\t// out\n        /* \"#utility.yul\":10070:10163   */\n    tag_92:\n        /* \"#utility.yul\":10107:10113   */\n      0x00\n        /* \"#utility.yul\":10154:10156   */\n      0x20\n        /* \"#utility.yul\":10149:10151   */\n      0x1f\n        /* \"#utility.yul\":10142:10147   */\n      dup4\n        /* \"#utility.yul\":10138:10152   */\n      add\n        /* \"#utility.yul\":10134:10157   */\n      div\n        /* \"#utility.yul\":10124:10157   */\n      swap1\n      pop\n        /* \"#utility.yul\":10070:10163   */\n      swap2\n      swap1\n      pop\n      jump\t// out\n        /* \"#utility.yul\":10169:10276   */\n    tag_93:\n        /* \"#utility.yul\":10213:10221   */\n      0x00\n        /* \"#utility.yul\":10263:10268   */\n      dup3\n        /* \"#utility.yul\":10257:10261   */\n      dup3\n        /* \"#utility.yul\":10253:10269   */\n      shl\n        /* \"#utility.yul\":10232:10269   */\n      swap1\n      pop\n        /* \"#utility.yul\":10169:10276   */\n      swap3\n      swap2\n      pop\n      pop\n      jump\t// out\n        /* \"#utility.yul\":10282:10675   */\n    tag_94:\n        /* \"#utility.yul\":10351:10357   */\n      0x00\n        /* \"#utility.yul\":10401:10402   */\n      0x08\n        /* \"#utility.yul\":10389:10399   */\n      dup4\n        /* \"#utility.yul\":10385:10403   */\n      mul\n        /* \"#utility.yul\":10424:10521   */\n      tag_208\n        /* \"#utility.yul\":10454:10520   */\n      0xffffffffffffffffffffffffffffffffffffffffffffffffffffffffffffffff\n        /* \"#utility.yul\":10443:10452   */\n      dup3\n        /* \"#utility.yul\":10424:10521   */\n      tag_93\n      jump\t// in\n    tag_208:\n        /* \"#utility.yul\":10542:10581   */\n      tag_209\n        /* \"#utility.yul\":10572:10580   */\n      dup7\n        /* \"#utility.yul\":10561:10570   */\n      dup4\n        /* \"#utility.yul\":10542:10581   */\n      tag_93\n      jump\t// in\n    tag_209:\n        /* \"#utility.yul\":10530:10581   */\n      swap6\n      pop\n        /* \"#utility.yul\":10614:10618   */\n      dup1\n        /* \"#utility.yul\":10610:10619   */\n      not\n        /* \"#utility.yul\":10603:10608   */\n      dup5\n        /* \"#utility.yul\":10599:10620   */\n      and\n        /* \"#utility.yul\":10590:10620   */\n      swap4\n      pop\n        /* \"#utility.yul\":10663:10667   */\n      dup1\n        /* \"#utility.yul\":10653:10661   */\n      dup7\n        /* \"#utility.yul\":10649:10668   */\n      and\n        /* \"#utility.yul\":10642:10647   */\n      dup5\n        /* \"#utility.yul\":10639:10669   */\n      or\n        /* \"#utility.yul\":10629:10669   */\n      swap3\n      pop\n        /* \"#utility.yul\":10358:10675   */\n      pop\n      pop\n        /* \"#utility.yul\":10282:10675   */\n      swap4\n      swap3\n      pop\n      pop\n      pop\n      jump\t// out\n        /* \"#utility.yul\":10681:10741   */\n    tag_95:\n        /* \"#utility.yul\":10709:10712   */\n      0x00\n        /* \"#utility.yul\":10730:10735   */\n      dup2\n        /* \"#utility.yul\":10723:10735   */\n      swap1\n      pop\n        /* \"#utility.yul\":10681:10741   */\n      swap2\n      swap1\n      pop\n      jump\t// out\n        /* \"#utility.yul\":10747:10889   */\n    tag_96:\n        /* \"#utility.yul\":10797:10806   */\n      0x00\n        /* \"#utility.yul\":10830:10883   */\n      tag_212\n        /* \"#utility.yul\":10848:10882   */\n      tag_213\n        /* \"#utility.yul\":10857:10881   */\n      tag_214\n        /* \"#utility.yul\":10875:10880   */\n      dup5\n        /* \"#utility.yul\":10857:10881   */\n      tag_60\n      jump\t// in\n    tag_214:\n        /* \"#utility.yul\":10848:10882   */\n      tag_95\n      jump\t// in\n    tag_213:\n        /* \"#utility.yul\":10830:10883   */\n      tag_60\n      jump\t// in\n    tag_212:\n        /* \"#utility.yul\":10817:10883   */\n      swap1\n      pop\n        /* \"#utility.yul\":10747:10889   */\n      swap2\n      swap1\n      pop\n      jump\t// out\n        /* \"#utility.yul\":10895:10970   */\n    tag_97:\n        /* \"#utility.yul\":10938:10941   */\n      0x00\n        /* \"#utility.yul\":10959:10964   */\n      dup2\n        /* \"#utility.yul\":10952:10964   */\n      swap1\n      pop\n        /* \"#utility.yul\":10895:10970   */\n      swap2\n      swap1\n      pop\n      jump\t// out\n        /* \"#utility.yul\":10976:11245   */\n    tag_98:\n        /* \"#utility.yul\":11086:11125   */\n      tag_217\n        /* \"#utility.yul\":11117:11124   */\n      dup4\n        /* \"#utility.yul\":11086:11125   */\n      tag_96\n      jump\t// in\n    tag_217:\n        /* \"#utility.yul\":11147:11238   */\n      tag_218\n        /* \"#utility.yul\":11196:11237   */\n      tag_219\n        /* \"#utility.yul\":11220:11236   */\n      dup3\n        /* \"#utility.yul\":11196:11237   */\n      tag_97\n      jump\t// in\n    tag_219:\n        /* \"#utility.yul\":11188:11194   */\n      dup5\n        /* \"#utility.yul\":11181:11185   */\n      dup5\n        /* \"#utility.yul\":11175:11186   */\n      sload\n        /* \"#utility.yul\":11147:11238   */\n      tag_94\n      jump\t// in\n    tag_218:\n        /* \"#utility.yul\":11141:11145   */\n      dup3\n        /* \"#utility.yul\":11134:11239   */\n      sstore\n        /* \"#utility.yul\":11052:11245   */\n      pop\n        /* \"#utility.yul\":10976:11245   */\n      pop\n      pop\n      pop\n      jump\t// out\n        /* \"#utility.yul\":11251:11324   */\n    tag_99:\n        /* \"#utility.yul\":11296:11299   */\n      0x00\n        /* \"#utility.yul\":11251:11324   */\n      swap1\n      jump\t// out\n        /* \"#utility.yul\":11330:11519   */\n    tag_100:\n        /* \"#utility.yul\":11407:11439   */\n      tag_222\n      tag_99\n      jump\t// in\n    tag_222:\n        /* \"#utility.yul\":11448:11513   */\n      tag_223\n        /* \"#utility.yul\":11506:11512   */\n      dup2\n        /* \"#utility.yul\":11498:11504   */\n      dup5\n        /* \"#utility.yul\":11492:11496   */\n      dup5\n        /* \"#utility.yul\":11448:11513   */\n      tag_98\n      jump\t// in\n    tag_223:\n        /* \"#utility.yul\":11383:11519   */\n      pop\n        /* \"#utility.yul\":11330:11519   */\n      pop\n      pop\n      jump\t// out\n        /* \"#utility.yul\":11525:11711   */\n    tag_101:\n        /* \"#utility.yul\":11585:11705   */\n    tag_225:\n        /* \"#utility.yul\":11602:11605   */\n      dup2\n        /* \"#utility.yul\":11595:11600   */\n      dup2\n        /* \"#utility.yul\":11592:11606   */\n      lt\n        /* \"#utility.yul\":11585:11705   */\n      iszero\n      tag_227\n      jumpi\n        /* \"#utility.yul\":11656:11695   */\n      tag_228\n        /* \"#utility.yul\":11693:11694   */\n      0x00\n        /* \"#utility.yul\":11686:11691   */\n      dup3\n        /* \"#utility.yul\":11656:11695   */\n      tag_100\n      jump\t// in\n    tag_228:\n        /* \"#utility.yul\":11629:11630   */\n      0x01\n        /* \"#utility.yul\":11622:11627   */\n      dup2\n        /* \"#utility.yul\":11618:11631   */\n      add\n        /* \"#utility.yul\":11609:11631   */\n      swap1\n      pop\n        /* \"#utility.yul\":11585:11705   */\n      jump(tag_225)\n    tag_227:\n        /* \"#utility.yul\":11525:11711   */\n      pop\n      pop\n      jump\t// out\n        /* \"#utility.yul\":11717:12260   */\n    tag_102:\n        /* \"#utility.yul\":11818:11820   */\n      0x1f\n        /* \"#utility.yul\":11813:11816   */\n      dup3\n        /* \"#utility.yul\":11810:11821   */\n      gt\n        /* \"#utility.yul\":11807:12253   */\n      iszero\n      tag_230\n      jumpi\n        /* \"#utility.yul\":11852:11890   */\n      tag_231\n        /* \"#utility.yul\":11884:11889   */\n      dup2\n        /* \"#utility.yul\":11852:11890   */\n      tag_91\n      jump\t// in\n    tag_231:\n        /* \"#utility.yul\":11936:11965   */\n      tag_232\n        /* \"#utility.yul\":11954:11964   */\n      dup5\n        /* \"#utility.yul\":11936:11965   */\n      tag_92\n      jump\t// in\n    tag_232:\n        /* \"#utility.yul\":11926:11934   */\n      dup2\n        /* \"#utility.yul\":11922:11966   */\n      add\n        /* \"#utility.yul\":12119:12121   */\n      0x20\n        /* \"#utility.yul\":12107:12117   */\n      dup6\n        /* \"#utility.yul\":12104:12122   */\n      lt\n        /* \"#utility.yul\":12101:12150   */\n      iszero\n      tag_233\n      jumpi\n        /* \"#utility.yul\":12140:12148   */\n      dup2\n        /* \"#utility.yul\":12125:12148   */\n      swap1\n      pop\n        /* \"#utility.yul\":12101:12150   */\n    tag_233:\n        /* \"#utility.yul\":12163:12243   */\n      tag_234\n        /* \"#utility.yul\":12219:12241   */\n      tag_235\n        /* \"#utility.yul\":12237:12240   */\n      dup6\n        /* \"#utility.yul\":12219:12241   */\n      tag_92\n      jump\t// in\n    tag_235:\n        /* \"#utility.yul\":12209:12217   */\n      dup4\n        /* \"#utility.yul\":12205:12242   */\n      add\n        /* \"#utility.yul\":12192:12203   */\n      dup3\n        /* \"#utility.yul\":12163:12243   */\n      tag_101\n      jump\t// in\n    tag_234:\n        /* \"#utility.yul\":11822:12253   */\n      pop\n      pop\n        /* \"#utility.yul\":11807:12253   */\n    tag_230:\n        /* \"#utility.yul\":11717:12260   */\n      pop\n      pop\n      pop\n      jump\t// out\n        /* \"#utility.yul\":12266:12383   */\n    tag_103:\n        /* \"#utility.yul\":12320:12328   */\n      0x00\n        /* \"#utility.yul\":12370:12375   */\n      dup3\n        /* \"#utility.yul\":12364:12368   */\n      dup3\n        /* \"#utility.yul\":12360:12376   */\n      shr\n        /* \"#utility.yul\":12339:12376   */\n      swap1\n      pop\n        /* \"#utility.yul\":12266:12383   */\n      swap3\n      swap2\n      pop\n      pop\n      jump\t// out\n        /* \"#utility.yul\":12389:12558   */\n    tag_104:\n        /* \"#utility.yul\":12433:12439   */\n      0x00\n        /* \"#utility.yul\":12466:12517   */\n      tag_238\n        /* \"#utility.yul\":12514:12515   */\n      0x00\n        /* \"#utility.yul\":12510:12516   */\n      not\n        /* \"#utility.yul\":12502:12507   */\n      dup5\n        /* \"#utility.yul\":12499:12500   */\n      0x08\n        /* \"#utility.yul\":12495:12508   */\n      mul\n        /* \"#utility.yul\":12466:12517   */\n      tag_103\n      jump\t// in\n    tag_238:\n        /* \"#utility.yul\":12462:12518   */\n      not\n        /* \"#utility.yul\":12547:12551   */\n      dup1\n        /* \"#utility.yul\":12541:12545   */\n      dup4\n        /* \"#utility.yul\":12537:12552   */\n      and\n        /* \"#utility.yul\":12527:12552   */\n      swap2\n      pop\n        /* \"#utility.yul\":12440:12558   */\n      pop\n        /* \"#utility.yul\":12389:12558   */\n      swap3\n      swap2\n      pop\n      pop\n      jump\t// out\n        /* \"#utility.yul\":12563:12858   */\n    tag_105:\n        /* \"#utility.yul\":12639:12643   */\n      0x00\n        /* \"#utility.yul\":12785:12814   */\n      tag_240\n        /* \"#utility.yul\":12810:12813   */\n      dup4\n        /* \"#utility.yul\":12804:12808   */\n      dup4\n        /* \"#utility.yul\":12785:12814   */\n      tag_104\n      jump\t// in\n    tag_240:\n        /* \"#utility.yul\":12777:12814   */\n      swap2\n      pop\n        /* \"#utility.yul\":12847:12850   */\n      dup3\n        /* \"#utility.yul\":12844:12845   */\n      0x02\n        /* \"#utility.yul\":12840:12851   */\n      mul\n        /* \"#utility.yul\":12834:12838   */\n      dup3\n        /* \"#utility.yul\":12831:12852   */\n      or\n        /* \"#utility.yul\":12823:12852   */\n      swap1\n      pop\n        /* \"#utility.yul\":12563:12858   */\n      swap3\n      swap2\n      pop\n      pop\n      jump\t// out\n        /* \"#utility.yul\":12863:14258   */\n    tag_35:\n        /* \"#utility.yul\":12980:13017   */\n      tag_242\n        /* \"#utility.yul\":13013:13016   */\n      dup3\n        /* \"#utility.yul\":12980:13017   */\n      tag_80\n      jump\t// in\n    tag_242:\n        /* \"#utility.yul\":13082:13100   */\n      0xffffffffffffffff\n        /* \"#utility.yul\":13074:13080   */\n      dup2\n        /* \"#utility.yul\":13071:13101   */\n      gt\n        /* \"#utility.yul\":13068:13124   */\n      iszero\n      tag_243\n      jumpi\n        /* \"#utility.yul\":13104:13122   */\n      tag_244\n      tag_68\n      jump\t// in\n    tag_244:\n        /* \"#utility.yul\":13068:13124   */\n    tag_243:\n        /* \"#utility.yul\":13148:13186   */\n      tag_245\n        /* \"#utility.yul\":13180:13184   */\n      dup3\n        /* \"#utility.yul\":13174:13185   */\n      sload\n        /* \"#utility.yul\":13148:13186   */\n      tag_28\n      jump\t// in\n    tag_245:\n        /* \"#utility.yul\":13233:13300   */\n      tag_246\n        /* \"#utility.yul\":13293:13299   */\n      dup3\n        /* \"#utility.yul\":13285:13291   */\n      dup3\n        /* \"#utility.yul\":13279:13283   */\n      dup6\n        /* \"#utility.yul\":13233:13300   */\n      tag_102\n      jump\t// in\n    tag_246:\n        /* \"#utility.yul\":13327:13328   */\n      0x00\n        /* \"#utility.yul\":13351:13355   */\n      0x20\n        /* \"#utility.yul\":13338:13355   */\n      swap1\n      pop\n        /* \"#utility.yul\":13383:13385   */\n      0x1f\n        /* \"#utility.yul\":13375:13381   */\n      dup4\n        /* \"#utility.yul\":13372:13386   */\n      gt\n        /* \"#utility.yul\":13400:13401   */\n      0x01\n        /* \"#utility.yul\":13395:14013   */\n      dup2\n      eq\n      tag_248\n      jumpi\n        /* \"#utility.yul\":14057:14058   */\n      0x00\n        /* \"#utility.yul\":14074:14080   */\n      dup5\n        /* \"#utility.yul\":14071:14148   */\n      iszero\n      tag_249\n      jumpi\n        /* \"#utility.yul\":14123:14132   */\n      dup3\n        /* \"#utility.yul\":14118:14121   */\n      dup8\n        /* \"#utility.yul\":14114:14133   */\n      add\n        /* \"#utility.yul\":14108:14134   */\n      mload\n        /* \"#utility.yul\":14099:14134   */\n      swap1\n      pop\n        /* \"#utility.yul\":14071:14148   */\n    tag_249:\n        /* \"#utility.yul\":14174:14241   */\n      tag_250\n        /* \"#utility.yul\":14234:14240   */\n      dup6\n        /* \"#utility.yul\":14227:14232   */\n      dup3\n        /* \"#utility.yul\":14174:14241   */\n      tag_105\n      jump\t// in\n    tag_250:\n        /* \"#utility.yul\":14168:14172   */\n      dup7\n        /* \"#utility.yul\":14161:14242   */\n      sstore\n        /* \"#utility.yul\":14030:14252   */\n      pop\n        /* \"#utility.yul\":13365:14252   */\n      jump(tag_247)\n        /* \"#utility.yul\":13395:14013   */\n    tag_248:\n        /* \"#utility.yul\":13447:13451   */\n      0x1f\n        /* \"#utility.yul\":13443:13452   */\n      not\n        /* \"#utility.yul\":13435:13441   */\n      dup5\n        /* \"#utility.yul\":13431:13453   */\n      and\n        /* \"#utility.yul\":13481:13518   */\n      tag_251\n        /* \"#utility.yul\":13513:13517   */\n      dup7\n        /* \"#utility.yul\":13481:13518   */\n      tag_91\n      jump\t// in\n    tag_251:\n        /* \"#utility.yul\":13540:13541   */\n      0x00\n        /* \"#utility.yul\":13554:13762   */\n    tag_252:\n        /* \"#utility.yul\":13568:13575   */\n      dup3\n        /* \"#utility.yul\":13565:13566   */\n      dup2\n        /* \"#utility.yul\":13562:13576   */\n      lt\n        /* \"#utility.yul\":13554:13762   */\n      iszero\n      tag_254\n      jumpi\n        /* \"#utility.yul\":13647:13656   */\n      dup5\n        /* \"#utility.yul\":13642:13645   */\n      dup10\n        /* \"#utility.yul\":13638:13657   */\n      add\n        /* \"#utility.yul\":13632:13658   */\n      mload\n        /* \"#utility.yul\":13624:13630   */\n      dup3\n        /* \"#utility.yul\":13617:13659   */\n      sstore\n        /* \"#utility.yul\":13698:13699   */\n      0x01\n        /* \"#utility.yul\":13690:13696   */\n      dup3\n        /* \"#utility.yul\":13686:13700   */\n      add\n        /* \"#utility.yul\":13676:13700   */\n      swap2\n      pop\n        /* \"#utility.yul\":13745:13747   */\n      0x20\n        /* \"#utility.yul\":13734:13743   */\n      dup6\n        /* \"#utility.yul\":13730:13748   */\n      add\n        /* \"#utility.yul\":13717:13748   */\n      swap5\n      pop\n        /* \"#utility.yul\":13591:13595   */\n      0x20\n        /* \"#utility.yul\":13588:13589   */\n      dup2\n        /* \"#utility.yul\":13584:13596   */\n      add\n        /* \"#utility.yul\":13579:13596   */\n      swap1\n      pop\n        /* \"#utility.yul\":13554:13762   */\n      jump(tag_252)\n    tag_254:\n        /* \"#utility.yul\":13790:13796   */\n      dup7\n        /* \"#utility.yul\":13781:13788   */\n      dup4\n        /* \"#utility.yul\":13778:13797   */\n      lt\n        /* \"#utility.yul\":13775:13954   */\n      iszero\n      tag_255\n      jumpi\n        /* \"#utility.yul\":13848:13857   */\n      dup5\n        /* \"#utility.yul\":13843:13846   */\n      dup10\n        /* \"#utility.yul\":13839:13858   */\n      add\n        /* \"#utility.yul\":13833:13859   */\n      mload\n        /* \"#utility.yul\":13891:13939   */\n      tag_256\n        /* \"#utility.yul\":13933:13937   */\n      0x1f\n        /* \"#utility.yul\":13925:13931   */\n      dup10\n        /* \"#utility.yul\":13921:13938   */\n      and\n        /* \"#utility.yul\":13910:13919   */\n      dup3\n        /* \"#utility.yul\":13891:13939   */\n      tag_104\n      jump\t// in\n    tag_256:\n        /* \"#utility.yul\":13883:13889   */\n      dup4\n        /* \"#utility.yul\":13876:13940   */\n      sstore\n        /* \"#utility.yul\":13798:13954   */\n      pop\n        /* \"#utility.yul\":13775:13954   */\n    tag_255:\n        /* \"#utility.yul\":14000:14001   */\n      0x01\n        /* \"#utility.yul\":13996:13997   */\n      0x02\n        /* \"#utility.yul\":13988:13994   */\n      dup9\n        /* \"#utility.yul\":13984:13998   */\n      mul\n        /* \"#utility.yul\":13980:14002   */\n      add\n        /* \"#utility.yul\":13974:13978   */\n      dup9\n        /* \"#utility.yul\":13967:14003   */\n      sstore\n        /* \"#utility.yul\":13402:14013   */\n      pop\n      pop\n      pop\n        /* \"#utility.yul\":13365:14252   */\n    tag_247:\n      pop\n        /* \"#utility.yul\":12955:14258   */\n      pop\n      pop\n      pop\n        /* \"#utility.yul\":12863:14258   */\n      pop\n      pop\n      jump\t// out\n\n    auxdata: 0xa264697066735822122060bc910f4713d862f652bbeb8c69ca66f3a770b4d34a522773f2c0daf19cdf3f64736f6c63430008190033\n}\n",
				"bytecode": {
					"linkReferences": {},
					"object": "6080604052348015600e575f80fd5b50610cba8061001c5f395ff3fe608060405234801561000f575f80fd5b506004361061004a575f3560e01c806307973ccf1461004e5780631d2e4afd1461006c5780636f77926b14610088578063a87430ba146100b8575b5f80fd5b6100566100ea565b6040516100639190610510565b60405180910390f35b61008660048036038101906100819190610676565b6100f0565b005b6100a2600480360381019061009d9190610746565b610228565b6040516100af9190610834565b60405180910390f35b6100d260048036038101906100cd9190610746565b6103a7565b6040516100e19392919061089c565b60405180910390f35b60015481565b5f805f3373ffffffffffffffffffffffffffffffffffffffff1673ffffffffffffffffffffffffffffffffffffffff1681526020019081526020015f20600101805461013b9061090c565b90501461017d576040517f08c379a000000000000000000000000000000000000000000000000000000000815260040161017490610986565b60405180910390fd5b60015f81548092919061018f906109d1565b919050555060405180606001604052806001548152602001838152602001828152505f803373ffffffffffffffffffffffffffffffffffffffff1673ffffffffffffffffffffffffffffffffffffffff1681526020019081526020015f205f820151815f0155602082015181600101908161020a9190610bb5565b5060408201518160020190816102209190610bb5565b509050505050565b6102306104d8565b5f808373ffffffffffffffffffffffffffffffffffffffff1673ffffffffffffffffffffffffffffffffffffffff1681526020019081526020015f206040518060600160405290815f82015481526020016001820180546102909061090c565b80601f01602080910402602001604051908101604052809291908181526020018280546102bc9061090c565b80156103075780601f106102de57610100808354040283529160200191610307565b820191905f5260205f20905b8154815290600101906020018083116102ea57829003601f168201915b505050505081526020016002820180546103209061090c565b80601f016020809104026020016040519081016040528092919081815260200182805461034c9061090c565b80156103975780601f1061036e57610100808354040283529160200191610397565b820191905f5260205f20905b81548152906001019060200180831161037a57829003601f168201915b5050505050815250509050919050565b5f602052805f5260405f205f91509050805f0154908060010180546103cb9061090c565b80601f01602080910402602001604051908101604052809291908181526020018280546103f79061090c565b80156104425780601f1061041957610100808354040283529160200191610442565b820191905f5260205f20905b81548152906001019060200180831161042557829003601f168201915b5050505050908060020180546104579061090c565b80601f01602080910402602001604051908101604052809291908181526020018280546104839061090c565b80156104ce5780601f106104a5576101008083540402835291602001916104ce565b820191905f5260205f20905b8154815290600101906020018083116104b157829003601f168201915b5050505050905083565b60405180606001604052805f815260200160608152602001606081525090565b5f819050919050565b61050a816104f8565b82525050565b5f6020820190506105235f830184610501565b92915050565b5f604051905090565b5f80fd5b5f80fd5b5f80fd5b5f80fd5b5f601f19601f8301169050919050565b7f4e487b71000000000000000000000000000000000000000000000000000000005f52604160045260245ffd5b61058882610542565b810181811067ffffffffffffffff821117156105a7576105a6610552565b5b80604052505050565b5f6105b9610529565b90506105c5828261057f565b919050565b5f67ffffffffffffffff8211156105e4576105e3610552565b5b6105ed82610542565b9050602081019050919050565b828183375f83830152505050565b5f61061a610615846105ca565b6105b0565b9050828152602081018484840111156106365761063561053e565b5b6106418482856105fa565b509392505050565b5f82601f83011261065d5761065c61053a565b5b813561066d848260208601610608565b91505092915050565b5f806040838503121561068c5761068b610532565b5b5f83013567ffffffffffffffff8111156106a9576106a8610536565b5b6106b585828601610649565b925050602083013567ffffffffffffffff8111156106d6576106d5610536565b5b6106e285828601610649565b9150509250929050565b5f73ffffffffffffffffffffffffffffffffffffffff82169050919050565b5f610715826106ec565b9050919050565b6107258161070b565b811461072f575f80fd5b50565b5f813590506107408161071c565b92915050565b5f6020828403121561075b5761075a610532565b5b5f61076884828501610732565b91505092915050565b61077a816104f8565b82525050565b5f81519050919050565b5f82825260208201905092915050565b8281835e5f83830152505050565b5f6107b282610780565b6107bc818561078a565b93506107cc81856020860161079a565b6107d581610542565b840191505092915050565b5f606083015f8301516107f55f860182610771565b506020830151848203602086015261080d82826107a8565b9150506040830151848203604086015261082782826107a8565b9150508091505092915050565b5f6020820190508181035f83015261084c81846107e0565b905092915050565b5f82825260208201905092915050565b5f61086e82610780565b6108788185610854565b935061088881856020860161079a565b61089181610542565b840191505092915050565b5f6060820190506108af5f830186610501565b81810360208301526108c18185610864565b905081810360408301526108d58184610864565b9050949350505050565b7f4e487b71000000000000000000000000000000000000000000000000000000005f52602260045260245ffd5b5f600282049050600182168061092357607f821691505b602082108103610936576109356108df565b5b50919050565b7f5573657220616c726561647920726567697374657265640000000000000000005f82015250565b5f610970601783610854565b915061097b8261093c565b602082019050919050565b5f6020820190508181035f83015261099d81610964565b9050919050565b7f4e487b71000000000000000000000000000000000000000000000000000000005f52601160045260245ffd5b5f6109db826104f8565b91507fffffffffffffffffffffffffffffffffffffffffffffffffffffffffffffffff8203610a0d57610a0c6109a4565b5b600182019050919050565b5f819050815f5260205f209050919050565b5f6020601f8301049050919050565b5f82821b905092915050565b5f60088302610a747fffffffffffffffffffffffffffffffffffffffffffffffffffffffffffffffff82610a39565b610a7e8683610a39565b95508019841693508086168417925050509392505050565b5f819050919050565b5f610ab9610ab4610aaf846104f8565b610a96565b6104f8565b9050919050565b5f819050919050565b610ad283610a9f565b610ae6610ade82610ac0565b848454610a45565b825550505050565b5f90565b610afa610aee565b610b05818484610ac9565b505050565b5b81811015610b2857610b1d5f82610af2565b600181019050610b0b565b5050565b601f821115610b6d57610b3e81610a18565b610b4784610a2a565b81016020851015610b56578190505b610b6a610b6285610a2a565b830182610b0a565b50505b505050565b5f82821c905092915050565b5f610b8d5f1984600802610b72565b1980831691505092915050565b5f610ba58383610b7e565b9150826002028217905092915050565b610bbe82610780565b67ffffffffffffffff811115610bd757610bd6610552565b5b610be1825461090c565b610bec828285610b2c565b5f60209050601f831160018114610c1d575f8415610c0b578287015190505b610c158582610b9a565b865550610c7c565b601f198416610c2b86610a18565b5f5b82811015610c5257848901518255600182019150602085019450602081019050610c2d565b86831015610c6f5784890151610c6b601f891682610b7e565b8355505b6001600288020188555050505b50505050505056fea264697066735822122060bc910f4713d862f652bbeb8c69ca66f3a770b4d34a522773f2c0daf19cdf3f64736f6c63430008190033",
					"opcodes": "PUSH1 0x80 PUSH1 0x40 MSTORE CALLVALUE DUP1 ISZERO PUSH1 0xE JUMPI PUSH0 DUP1 REVERT JUMPDEST POP PUSH2 0xCBA DUP1 PUSH2 0x1C PUSH0 CODECOPY PUSH0 RETURN INVALID PUSH1 0x80 PUSH1 0x40 MSTORE CALLVALUE DUP1 ISZERO PUSH2 0xF JUMPI PUSH0 DUP1 REVERT JUMPDEST POP PUSH1 0x4 CALLDATASIZE LT PUSH2 0x4A JUMPI PUSH0 CALLDATALOAD PUSH1 0xE0 SHR DUP1 PUSH4 0x7973CCF EQ PUSH2 0x4E JUMPI DUP1 PUSH4 0x1D2E4AFD EQ PUSH2 0x6C JUMPI DUP1 PUSH4 0x6F77926B EQ PUSH2 0x88 JUMPI DUP1 PUSH4 0xA87430BA EQ PUSH2 0xB8 JUMPI JUMPDEST PUSH0 DUP1 REVERT JUMPDEST PUSH2 0x56 PUSH2 0xEA JUMP JUMPDEST PUSH1 0x40 MLOAD PUSH2 0x63 SWAP2 SWAP1 PUSH2 0x510 JUMP JUMPDEST PUSH1 0x40 MLOAD DUP1 SWAP2 SUB SWAP1 RETURN JUMPDEST PUSH2 0x86 PUSH1 0x4 DUP1 CALLDATASIZE SUB DUP2 ADD SWAP1 PUSH2 0x81 SWAP2 SWAP1 PUSH2 0x676 JUMP JUMPDEST PUSH2 0xF0 JUMP JUMPDEST STOP JUMPDEST PUSH2 0xA2 PUSH1 0x4 DUP1 CALLDATASIZE SUB DUP2 ADD SWAP1 PUSH2 0x9D SWAP2 SWAP1 PUSH2 0x746 JUMP JUMPDEST PUSH2 0x228 JUMP JUMPDEST PUSH1 0x40 MLOAD PUSH2 0xAF SWAP2 SWAP1 PUSH2 0x834 JUMP JUMPDEST PUSH1 0x40 MLOAD DUP1 SWAP2 SUB SWAP1 RETURN JUMPDEST PUSH2 0xD2 PUSH1 0x4 DUP1 CALLDATASIZE SUB DUP2 ADD SWAP1 PUSH2 0xCD SWAP2 SWAP1 PUSH2 0x746 JUMP JUMPDEST PUSH2 0x3A7 JUMP JUMPDEST PUSH1 0x40 MLOAD PUSH2 0xE1 SWAP4 SWAP3 SWAP2 SWAP1 PUSH2 0x89C JUMP JUMPDEST PUSH1 0x40 MLOAD DUP1 SWAP2 SUB SWAP1 RETURN JUMPDEST PUSH1 0x1 SLOAD DUP2 JUMP JUMPDEST PUSH0 DUP1 PUSH0 CALLER PUSH20 0xFFFFFFFFFFFFFFFFFFFFFFFFFFFFFFFFFFFFFFFF AND PUSH20 0xFFFFFFFFFFFFFFFFFFFFFFFFFFFFFFFFFFFFFFFF AND DUP2 MSTORE PUSH1 0x20 ADD SWAP1 DUP2 MSTORE PUSH1 0x20 ADD PUSH0 KECCAK256 PUSH1 0x1 ADD DUP1 SLOAD PUSH2 0x13B SWAP1 PUSH2 0x90C JUMP JUMPDEST SWAP1 POP EQ PUSH2 0x17D JUMPI PUSH1 0x40 MLOAD PUSH32 0x8C379A000000000000000000000000000000000000000000000000000000000 DUP2 MSTORE PUSH1 0x4 ADD PUSH2 0x174 SWAP1 PUSH2 0x986 JUMP JUMPDEST PUSH1 0x40 MLOAD DUP1 SWAP2 SUB SWAP1 REVERT JUMPDEST PUSH1 0x1 PUSH0 DUP2 SLOAD DUP1 SWAP3 SWAP2 SWAP1 PUSH2 0x18F SWAP1 PUSH2 0x9D1 JUMP JUMPDEST SWAP2 SWAP1 POP SSTORE POP PUSH1 0x40 MLOAD DUP1 PUSH1 0x60 ADD PUSH1 0x40 MSTORE DUP1 PUSH1 0x1 SLOAD DUP2 MSTORE PUSH1 0x20 ADD DUP4 DUP2 MSTORE PUSH1 0x20 ADD DUP3 DUP2 MSTORE POP PUSH0 DUP1 CALLER PUSH20 0xFFFFFFFFFFFFFFFFFFFFFFFFFFFFFFFFFFFFFFFF AND PUSH20 0xFFFFFFFFFFFFFFFFFFFFFFFFFFFFFFFFFFFFFFFF AND DUP2 MSTORE PUSH1 0x20 ADD SWAP1 DUP2 MSTORE PUSH1 0x20 ADD PUSH0 KECCAK256 PUSH0 DUP3 ADD MLOAD DUP2 PUSH0 ADD SSTORE PUSH1 0x20 DUP3 ADD MLOAD DUP2 PUSH1 0x1 ADD SWAP1 DUP2 PUSH2 0x20A SWAP2 SWAP1 PUSH2 0xBB5 JUMP JUMPDEST POP PUSH1 0x40 DUP3 ADD MLOAD DUP2 PUSH1 0x2 ADD SWAP1 DUP2 PUSH2 0x220 SWAP2 SWAP1 PUSH2 0xBB5 JUMP JUMPDEST POP SWAP1 POP POP POP POP JUMP JUMPDEST PUSH2 0x230 PUSH2 0x4D8 JUMP JUMPDEST PUSH0 DUP1 DUP4 PUSH20 0xFFFFFFFFFFFFFFFFFFFFFFFFFFFFFFFFFFFFFFFF AND PUSH20 0xFFFFFFFFFFFFFFFFFFFFFFFFFFFFFFFFFFFFFFFF AND DUP2 MSTORE PUSH1 0x20 ADD SWAP1 DUP2 MSTORE PUSH1 0x20 ADD PUSH0 KECCAK256 PUSH1 0x40 MLOAD DUP1 PUSH1 0x60 ADD PUSH1 0x40 MSTORE SWAP1 DUP2 PUSH0 DUP3 ADD SLOAD DUP2 MSTORE PUSH1 0x20 ADD PUSH1 0x1 DUP3 ADD DUP1 SLOAD PUSH2 0x290 SWAP1 PUSH2 0x90C JUMP JUMPDEST DUP1 PUSH1 0x1F ADD PUSH1 0x20 DUP1 SWAP2 DIV MUL PUSH1 0x20 ADD PUSH1 0x40 MLOAD SWAP1 DUP2 ADD PUSH1 0x40 MSTORE DUP1 SWAP3 SWAP2 SWAP1 DUP2 DUP2 MSTORE PUSH1 0x20 ADD DUP3 DUP1 SLOAD PUSH2 0x2BC SWAP1 PUSH2 0x90C JUMP JUMPDEST DUP1 ISZERO PUSH2 0x307 JUMPI DUP1 PUSH1 0x1F LT PUSH2 0x2DE JUMPI PUSH2 0x100 DUP1 DUP4 SLOAD DIV MUL DUP4 MSTORE SWAP2 PUSH1 0x20 ADD SWAP2 PUSH2 0x307 JUMP JUMPDEST DUP3 ADD SWAP2 SWAP1 PUSH0 MSTORE PUSH1 0x20 PUSH0 KECCAK256 SWAP1 JUMPDEST DUP2 SLOAD DUP2 MSTORE SWAP1 PUSH1 0x1 ADD SWAP1 PUSH1 0x20 ADD DUP1 DUP4 GT PUSH2 0x2EA JUMPI DUP3 SWAP1 SUB PUSH1 0x1F AND DUP3 ADD SWAP2 JUMPDEST POP POP POP POP POP DUP2 MSTORE PUSH1 0x20 ADD PUSH1 0x2 DUP3 ADD DUP1 SLOAD PUSH2 0x320 SWAP1 PUSH2 0x90C JUMP JUMPDEST DUP1 PUSH1 0x1F ADD PUSH1 0x20 DUP1 SWAP2 DIV MUL PUSH1 0x20 ADD PUSH1 0x40 MLOAD SWAP1 DUP2 ADD PUSH1 0x40 MSTORE DUP1 SWAP3 SWAP2 SWAP1 DUP2 DUP2 MSTORE PUSH1 0x20 ADD DUP3 DUP1 SLOAD PUSH2 0x34C SWAP1 PUSH2 0x90C JUMP JUMPDEST DUP1 ISZERO PUSH2 0x397 JUMPI DUP1 PUSH1 0x1F LT PUSH2 0x36E JUMPI PUSH2 0x100 DUP1 DUP4 SLOAD DIV MUL DUP4 MSTORE SWAP2 PUSH1 0x20 ADD SWAP2 PUSH2 0x397 JUMP JUMPDEST DUP3 ADD SWAP2 SWAP1 PUSH0 MSTORE PUSH1 0x20 PUSH0 KECCAK256 SWAP1 JUMPDEST DUP2 SLOAD DUP2 MSTORE SWAP1 PUSH1 0x1 ADD SWAP1 PUSH1 0x20 ADD DUP1 DUP4 GT PUSH2 0x37A JUMPI DUP3 SWAP1 SUB PUSH1 0x1F AND DUP3 ADD SWAP2 JUMPDEST POP POP POP POP POP DUP2 MSTORE POP POP SWAP1 POP SWAP2 SWAP1 POP JUMP JUMPDEST PUSH0 PUSH1 0x20 MSTORE DUP1 PUSH0 MSTORE PUSH1 0x40 PUSH0 KECCAK256 PUSH0 SWAP2 POP SWAP1 POP DUP1 PUSH0 ADD SLOAD SWAP1 DUP1 PUSH1 0x1 ADD DUP1 SLOAD PUSH2 0x3CB SWAP1 PUSH2 0x90C JUMP JUMPDEST DUP1 PUSH1 0x1F ADD PUSH1 0x20 DUP1 SWAP2 DIV MUL PUSH1 0x20 ADD PUSH1 0x40 MLOAD SWAP1 DUP2 ADD PUSH1 0x40 MSTORE DUP1 SWAP3 SWAP2 SWAP1 DUP2 DUP2 MSTORE PUSH1 0x20 ADD DUP3 DUP1 SLOAD PUSH2 0x3F7 SWAP1 PUSH2 0x90C JUMP JUMPDEST DUP1 ISZERO PUSH2 0x442 JUMPI DUP1 PUSH1 0x1F LT PUSH2 0x419 JUMPI PUSH2 0x100 DUP1 DUP4 SLOAD DIV MUL DUP4 MSTORE SWAP2 PUSH1 0x20 ADD SWAP2 PUSH2 0x442 JUMP JUMPDEST DUP3 ADD SWAP2 SWAP1 PUSH0 MSTORE PUSH1 0x20 PUSH0 KECCAK256 SWAP1 JUMPDEST DUP2 SLOAD DUP2 MSTORE SWAP1 PUSH1 0x1 ADD SWAP1 PUSH1 0x20 ADD DUP1 DUP4 GT PUSH2 0x425 JUMPI DUP3 SWAP1 SUB PUSH1 0x1F AND DUP3 ADD SWAP2 JUMPDEST POP POP POP POP POP SWAP1 DUP1 PUSH1 0x2 ADD DUP1 SLOAD PUSH2 0x457 SWAP1 PUSH2 0x90C JUMP JUMPDEST DUP1 PUSH1 0x1F ADD PUSH1 0x20 DUP1 SWAP2 DIV MUL PUSH1 0x20 ADD PUSH1 0x40 MLOAD SWAP1 DUP2 ADD PUSH1 0x40 MSTORE DUP1 SWAP3 SWAP2 SWAP1 DUP2 DUP2 MSTORE PUSH1 0x20 ADD DUP3 DUP1 SLOAD PUSH2 0x483 SWAP1 PUSH2 0x90C JUMP JUMPDEST DUP1 ISZERO PUSH2 0x4CE JUMPI DUP1 PUSH1 0x1F LT PUSH2 0x4A5 JUMPI PUSH2 0x100 DUP1 DUP4 SLOAD DIV MUL DUP4 MSTORE SWAP2 PUSH1 0x20 ADD SWAP2 PUSH2 0x4CE JUMP JUMPDEST DUP3 ADD SWAP2 SWAP1 PUSH0 MSTORE PUSH1 0x20 PUSH0 KECCAK256 SWAP1 JUMPDEST DUP2 SLOAD DUP2 MSTORE SWAP1 PUSH1 0x1 ADD SWAP1 PUSH1 0x20 ADD DUP1 DUP4 GT PUSH2 0x4B1 JUMPI DUP3 SWAP1 SUB PUSH1 0x1F AND DUP3 ADD SWAP2 JUMPDEST POP POP POP POP POP SWAP1 POP DUP4 JUMP JUMPDEST PUSH1 0x40 MLOAD DUP1 PUSH1 0x60 ADD PUSH1 0x40 MSTORE DUP1 PUSH0 DUP2 MSTORE PUSH1 0x20 ADD PUSH1 0x60 DUP2 MSTORE PUSH1 0x20 ADD PUSH1 0x60 DUP2 MSTORE POP SWAP1 JUMP JUMPDEST PUSH0 DUP2 SWAP1 POP SWAP2 SWAP1 POP JUMP JUMPDEST PUSH2 0x50A DUP2 PUSH2 0x4F8 JUMP JUMPDEST DUP3 MSTORE POP POP JUMP JUMPDEST PUSH0 PUSH1 0x20 DUP3 ADD SWAP1 POP PUSH2 0x523 PUSH0 DUP4 ADD DUP5 PUSH2 0x501 JUMP JUMPDEST SWAP3 SWAP2 POP POP JUMP JUMPDEST PUSH0 PUSH1 0x40 MLOAD SWAP1 POP SWAP1 JUMP JUMPDEST PUSH0 DUP1 REVERT JUMPDEST PUSH0 DUP1 REVERT JUMPDEST PUSH0 DUP1 REVERT JUMPDEST PUSH0 DUP1 REVERT JUMPDEST PUSH0 PUSH1 0x1F NOT PUSH1 0x1F DUP4 ADD AND SWAP1 POP SWAP2 SWAP1 POP JUMP JUMPDEST PUSH32 0x4E487B7100000000000000000000000000000000000000000000000000000000 PUSH0 MSTORE PUSH1 0x41 PUSH1 0x4 MSTORE PUSH1 0x24 PUSH0 REVERT JUMPDEST PUSH2 0x588 DUP3 PUSH2 0x542 JUMP JUMPDEST DUP2 ADD DUP2 DUP2 LT PUSH8 0xFFFFFFFFFFFFFFFF DUP3 GT OR ISZERO PUSH2 0x5A7 JUMPI PUSH2 0x5A6 PUSH2 0x552 JUMP JUMPDEST JUMPDEST DUP1 PUSH1 0x40 MSTORE POP POP POP JUMP JUMPDEST PUSH0 PUSH2 0x5B9 PUSH2 0x529 JUMP JUMPDEST SWAP1 POP PUSH2 0x5C5 DUP3 DUP3 PUSH2 0x57F JUMP JUMPDEST SWAP2 SWAP1 POP JUMP JUMPDEST PUSH0 PUSH8 0xFFFFFFFFFFFFFFFF DUP3 GT ISZERO PUSH2 0x5E4 JUMPI PUSH2 0x5E3 PUSH2 0x552 JUMP JUMPDEST JUMPDEST PUSH2 0x5ED DUP3 PUSH2 0x542 JUMP JUMPDEST SWAP1 POP PUSH1 0x20 DUP2 ADD SWAP1 POP SWAP2 SWAP1 POP JUMP JUMPDEST DUP3 DUP2 DUP4 CALLDATACOPY PUSH0 DUP4 DUP4 ADD MSTORE POP POP POP JUMP JUMPDEST PUSH0 PUSH2 0x61A PUSH2 0x615 DUP5 PUSH2 0x5CA JUMP JUMPDEST PUSH2 0x5B0 JUMP JUMPDEST SWAP1 POP DUP3 DUP2 MSTORE PUSH1 0x20 DUP2 ADD DUP5 DUP5 DUP5 ADD GT ISZERO PUSH2 0x636 JUMPI PUSH2 0x635 PUSH2 0x53E JUMP JUMPDEST JUMPDEST PUSH2 0x641 DUP5 DUP3 DUP6 PUSH2 0x5FA JUMP JUMPDEST POP SWAP4 SWAP3 POP POP POP JUMP JUMPDEST PUSH0 DUP3 PUSH1 0x1F DUP4 ADD SLT PUSH2 0x65D JUMPI PUSH2 0x65C PUSH2 0x53A JUMP JUMPDEST JUMPDEST DUP2 CALLDATALOAD PUSH2 0x66D DUP5 DUP3 PUSH1 0x20 DUP7 ADD PUSH2 0x608 JUMP JUMPDEST SWAP2 POP POP SWAP3 SWAP2 POP POP JUMP JUMPDEST PUSH0 DUP1 PUSH1 0x40 DUP4 DUP6 SUB SLT ISZERO PUSH2 0x68C JUMPI PUSH2 0x68B PUSH2 0x532 JUMP JUMPDEST JUMPDEST PUSH0 DUP4 ADD CALLDATALOAD PUSH8 0xFFFFFFFFFFFFFFFF DUP2 GT ISZERO PUSH2 0x6A9 JUMPI PUSH2 0x6A8 PUSH2 0x536 JUMP JUMPDEST JUMPDEST PUSH2 0x6B5 DUP6 DUP3 DUP7 ADD PUSH2 0x649 JUMP JUMPDEST SWAP3 POP POP PUSH1 0x20 DUP4 ADD CALLDATALOAD PUSH8 0xFFFFFFFFFFFFFFFF DUP2 GT ISZERO PUSH2 0x6D6 JUMPI PUSH2 0x6D5 PUSH2 0x536 JUMP JUMPDEST JUMPDEST PUSH2 0x6E2 DUP6 DUP3 DUP7 ADD PUSH2 0x649 JUMP JUMPDEST SWAP2 POP POP SWAP3 POP SWAP3 SWAP1 POP JUMP JUMPDEST PUSH0 PUSH20 0xFFFFFFFFFFFFFFFFFFFFFFFFFFFFFFFFFFFFFFFF DUP3 AND SWAP1 POP SWAP2 SWAP1 POP JUMP JUMPDEST PUSH0 PUSH2 0x715 DUP3 PUSH2 0x6EC JUMP JUMPDEST SWAP1 POP SWAP2 SWAP1 POP JUMP JUMPDEST PUSH2 0x725 DUP2 PUSH2 0x70B JUMP JUMPDEST DUP2 EQ PUSH2 0x72F JUMPI PUSH0 DUP1 REVERT JUMPDEST POP JUMP JUMPDEST PUSH0 DUP2 CALLDATALOAD SWAP1 POP PUSH2 0x740 DUP2 PUSH2 0x71C JUMP JUMPDEST SWAP3 SWAP2 POP POP JUMP JUMPDEST PUSH0 PUSH1 0x20 DUP3 DUP5 SUB SLT ISZERO PUSH2 0x75B JUMPI PUSH2 0x75A PUSH2 0x532 JUMP JUMPDEST JUMPDEST PUSH0 PUSH2 0x768 DUP5 DUP3 DUP6 ADD PUSH2 0x732 JUMP JUMPDEST SWAP2 POP POP SWAP3 SWAP2 POP POP JUMP JUMPDEST PUSH2 0x77A DUP2 PUSH2 0x4F8 JUMP JUMPDEST DUP3 MSTORE POP POP JUMP JUMPDEST PUSH0 DUP2 MLOAD SWAP1 POP SWAP2 SWAP1 POP JUMP JUMPDEST PUSH0 DUP3 DUP3 MSTORE PUSH1 0x20 DUP3 ADD SWAP1 POP SWAP3 SWAP2 POP POP JUMP JUMPDEST DUP3 DUP2 DUP4 MCOPY PUSH0 DUP4 DUP4 ADD MSTORE POP POP POP JUMP JUMPDEST PUSH0 PUSH2 0x7B2 DUP3 PUSH2 0x780 JUMP JUMPDEST PUSH2 0x7BC DUP2 DUP6 PUSH2 0x78A JUMP JUMPDEST SWAP4 POP PUSH2 0x7CC DUP2 DUP6 PUSH1 0x20 DUP7 ADD PUSH2 0x79A JUMP JUMPDEST PUSH2 0x7D5 DUP2 PUSH2 0x542 JUMP JUMPDEST DUP5 ADD SWAP2 POP POP SWAP3 SWAP2 POP POP JUMP JUMPDEST PUSH0 PUSH1 0x60 DUP4 ADD PUSH0 DUP4 ADD MLOAD PUSH2 0x7F5 PUSH0 DUP7 ADD DUP3 PUSH2 0x771 JUMP JUMPDEST POP PUSH1 0x20 DUP4 ADD MLOAD DUP5 DUP3 SUB PUSH1 0x20 DUP7 ADD MSTORE PUSH2 0x80D DUP3 DUP3 PUSH2 0x7A8 JUMP JUMPDEST SWAP2 POP POP PUSH1 0x40 DUP4 ADD MLOAD DUP5 DUP3 SUB PUSH1 0x40 DUP7 ADD MSTORE PUSH2 0x827 DUP3 DUP3 PUSH2 0x7A8 JUMP JUMPDEST SWAP2 POP POP DUP1 SWAP2 POP POP SWAP3 SWAP2 POP POP JUMP JUMPDEST PUSH0 PUSH1 0x20 DUP3 ADD SWAP1 POP DUP2 DUP2 SUB PUSH0 DUP4 ADD MSTORE PUSH2 0x84C DUP2 DUP5 PUSH2 0x7E0 JUMP JUMPDEST SWAP1 POP SWAP3 SWAP2 POP POP JUMP JUMPDEST PUSH0 DUP3 DUP3 MSTORE PUSH1 0x20 DUP3 ADD SWAP1 POP SWAP3 SWAP2 POP POP JUMP JUMPDEST PUSH0 PUSH2 0x86E DUP3 PUSH2 0x780 JUMP JUMPDEST PUSH2 0x878 DUP2 DUP6 PUSH2 0x854 JUMP JUMPDEST SWAP4 POP PUSH2 0x888 DUP2 DUP6 PUSH1 0x20 DUP7 ADD PUSH2 0x79A JUMP JUMPDEST PUSH2 0x891 DUP2 PUSH2 0x542 JUMP JUMPDEST DUP5 ADD SWAP2 POP POP SWAP3 SWAP2 POP POP JUMP JUMPDEST PUSH0 PUSH1 0x60 DUP3 ADD SWAP1 POP PUSH2 0x8AF PUSH0 DUP4 ADD DUP7 PUSH2 0x501 JUMP JUMPDEST DUP2 DUP2 SUB PUSH1 0x20 DUP4 ADD MSTORE PUSH2 0x8C1 DUP2 DUP6 PUSH2 0x864 JUMP JUMPDEST SWAP1 POP DUP2 DUP2 SUB PUSH1 0x40 DUP4 ADD MSTORE PUSH2 0x8D5 DUP2 DUP5 PUSH2 0x864 JUMP JUMPDEST SWAP1 POP SWAP5 SWAP4 POP POP POP POP JUMP JUMPDEST PUSH32 0x4E487B7100000000000000000000000000000000000000000000000000000000 PUSH0 MSTORE PUSH1 0x22 PUSH1 0x4 MSTORE PUSH1 0x24 PUSH0 REVERT JUMPDEST PUSH0 PUSH1 0x2 DUP3 DIV SWAP1 POP PUSH1 0x1 DUP3 AND DUP1 PUSH2 0x923 JUMPI PUSH1 0x7F DUP3 AND SWAP2 POP JUMPDEST PUSH1 0x20 DUP3 LT DUP2 SUB PUSH2 0x936 JUMPI PUSH2 0x935 PUSH2 0x8DF JUMP JUMPDEST JUMPDEST POP SWAP2 SWAP1 POP JUMP JUMPDEST PUSH32 0x5573657220616C72656164792072656769737465726564000000000000000000 PUSH0 DUP3 ADD MSTORE POP JUMP JUMPDEST PUSH0 PUSH2 0x970 PUSH1 0x17 DUP4 PUSH2 0x854 JUMP JUMPDEST SWAP2 POP PUSH2 0x97B DUP3 PUSH2 0x93C JUMP JUMPDEST PUSH1 0x20 DUP3 ADD SWAP1 POP SWAP2 SWAP1 POP JUMP JUMPDEST PUSH0 PUSH1 0x20 DUP3 ADD SWAP1 POP DUP2 DUP2 SUB PUSH0 DUP4 ADD MSTORE PUSH2 0x99D DUP2 PUSH2 0x964 JUMP JUMPDEST SWAP1 POP SWAP2 SWAP1 POP JUMP JUMPDEST PUSH32 0x4E487B7100000000000000000000000000000000000000000000000000000000 PUSH0 MSTORE PUSH1 0x11 PUSH1 0x4 MSTORE PUSH1 0x24 PUSH0 REVERT JUMPDEST PUSH0 PUSH2 0x9DB DUP3 PUSH2 0x4F8 JUMP JUMPDEST SWAP2 POP PUSH32 0xFFFFFFFFFFFFFFFFFFFFFFFFFFFFFFFFFFFFFFFFFFFFFFFFFFFFFFFFFFFFFFFF DUP3 SUB PUSH2 0xA0D JUMPI PUSH2 0xA0C PUSH2 0x9A4 JUMP JUMPDEST JUMPDEST PUSH1 0x1 DUP3 ADD SWAP1 POP SWAP2 SWAP1 POP JUMP JUMPDEST PUSH0 DUP2 SWAP1 POP DUP2 PUSH0 MSTORE PUSH1 0x20 PUSH0 KECCAK256 SWAP1 POP SWAP2 SWAP1 POP JUMP JUMPDEST PUSH0 PUSH1 0x20 PUSH1 0x1F DUP4 ADD DIV SWAP1 POP SWAP2 SWAP1 POP JUMP JUMPDEST PUSH0 DUP3 DUP3 SHL SWAP1 POP SWAP3 SWAP2 POP POP JUMP JUMPDEST PUSH0 PUSH1 0x8 DUP4 MUL PUSH2 0xA74 PUSH32 0xFFFFFFFFFFFFFFFFFFFFFFFFFFFFFFFFFFFFFFFFFFFFFFFFFFFFFFFFFFFFFFFF DUP3 PUSH2 0xA39 JUMP JUMPDEST PUSH2 0xA7E DUP7 DUP4 PUSH2 0xA39 JUMP JUMPDEST SWAP6 POP DUP1 NOT DUP5 AND SWAP4 POP DUP1 DUP7 AND DUP5 OR SWAP3 POP POP POP SWAP4 SWAP3 POP POP POP JUMP JUMPDEST PUSH0 DUP2 SWAP1 POP SWAP2 SWAP1 POP JUMP JUMPDEST PUSH0 PUSH2 0xAB9 PUSH2 0xAB4 PUSH2 0xAAF DUP5 PUSH2 0x4F8 JUMP JUMPDEST PUSH2 0xA96 JUMP JUMPDEST PUSH2 0x4F8 JUMP JUMPDEST SWAP1 POP SWAP2 SWAP1 POP JUMP JUMPDEST PUSH0 DUP2 SWAP1 POP SWAP2 SWAP1 POP JUMP JUMPDEST PUSH2 0xAD2 DUP4 PUSH2 0xA9F JUMP JUMPDEST PUSH2 0xAE6 PUSH2 0xADE DUP3 PUSH2 0xAC0 JUMP JUMPDEST DUP5 DUP5 SLOAD PUSH2 0xA45 JUMP JUMPDEST DUP3 SSTORE POP POP POP POP JUMP JUMPDEST PUSH0 SWAP1 JUMP JUMPDEST PUSH2 0xAFA PUSH2 0xAEE JUMP JUMPDEST PUSH2 0xB05 DUP2 DUP5 DUP5 PUSH2 0xAC9 JUMP JUMPDEST POP POP POP JUMP JUMPDEST JUMPDEST DUP2 DUP2 LT ISZERO PUSH2 0xB28 JUMPI PUSH2 0xB1D PUSH0 DUP3 PUSH2 0xAF2 JUMP JUMPDEST PUSH1 0x1 DUP2 ADD SWAP1 POP PUSH2 0xB0B JUMP JUMPDEST POP POP JUMP JUMPDEST PUSH1 0x1F DUP3 GT ISZERO PUSH2 0xB6D JUMPI PUSH2 0xB3E DUP2 PUSH2 0xA18 JUMP JUMPDEST PUSH2 0xB47 DUP5 PUSH2 0xA2A JUMP JUMPDEST DUP2 ADD PUSH1 0x20 DUP6 LT ISZERO PUSH2 0xB56 JUMPI DUP2 SWAP1 POP JUMPDEST PUSH2 0xB6A PUSH2 0xB62 DUP6 PUSH2 0xA2A JUMP JUMPDEST DUP4 ADD DUP3 PUSH2 0xB0A JUMP JUMPDEST POP POP JUMPDEST POP POP POP JUMP JUMPDEST PUSH0 DUP3 DUP3 SHR SWAP1 POP SWAP3 SWAP2 POP POP JUMP JUMPDEST PUSH0 PUSH2 0xB8D PUSH0 NOT DUP5 PUSH1 0x8 MUL PUSH2 0xB72 JUMP JUMPDEST NOT DUP1 DUP4 AND SWAP2 POP POP SWAP3 SWAP2 POP POP JUMP JUMPDEST PUSH0 PUSH2 0xBA5 DUP4 DUP4 PUSH2 0xB7E JUMP JUMPDEST SWAP2 POP DUP3 PUSH1 0x2 MUL DUP3 OR SWAP1 POP SWAP3 SWAP2 POP POP JUMP JUMPDEST PUSH2 0xBBE DUP3 PUSH2 0x780 JUMP JUMPDEST PUSH8 0xFFFFFFFFFFFFFFFF DUP2 GT ISZERO PUSH2 0xBD7 JUMPI PUSH2 0xBD6 PUSH2 0x552 JUMP JUMPDEST JUMPDEST PUSH2 0xBE1 DUP3 SLOAD PUSH2 0x90C JUMP JUMPDEST PUSH2 0xBEC DUP3 DUP3 DUP6 PUSH2 0xB2C JUMP JUMPDEST PUSH0 PUSH1 0x20 SWAP1 POP PUSH1 0x1F DUP4 GT PUSH1 0x1 DUP2 EQ PUSH2 0xC1D JUMPI PUSH0 DUP5 ISZERO PUSH2 0xC0B JUMPI DUP3 DUP8 ADD MLOAD SWAP1 POP JUMPDEST PUSH2 0xC15 DUP6 DUP3 PUSH2 0xB9A JUMP JUMPDEST DUP7 SSTORE POP PUSH2 0xC7C JUMP JUMPDEST PUSH1 0x1F NOT DUP5 AND PUSH2 0xC2B DUP7 PUSH2 0xA18 JUMP JUMPDEST PUSH0 JUMPDEST DUP3 DUP2 LT ISZERO PUSH2 0xC52 JUMPI DUP5 DUP10 ADD MLOAD DUP3 SSTORE PUSH1 0x1 DUP3 ADD SWAP2 POP PUSH1 0x20 DUP6 ADD SWAP5 POP PUSH1 0x20 DUP2 ADD SWAP1 POP PUSH2 0xC2D JUMP JUMPDEST DUP7 DUP4 LT ISZERO PUSH2 0xC6F JUMPI DUP5 DUP10 ADD MLOAD PUSH2 0xC6B PUSH1 0x1F DUP10 AND DUP3 PUSH2 0xB7E JUMP JUMPDEST DUP4 SSTORE POP JUMPDEST PUSH1 0x1 PUSH1 0x2 DUP9 MUL ADD DUP9 SSTORE POP POP POP JUMPDEST POP POP POP POP POP POP JUMP INVALID LOG2 PUSH5 0x6970667358 0x22 SLT KECCAK256 PUSH1 0xBC SWAP2 0xF SELFBALANCE SGT 0xD8 PUSH3 0xF652BB 0xEB DUP13 PUSH10 0xCA66F3A770B4D34A5227 PUSH20 0xF2C0DAF19CDF3F64736F6C634300081900330000 "
				},
				"gasEstimates": {
					"creation": {
						"codeDepositCost": "651600",
						"executionCost": "681",
						"totalCost": "652281"
					},
					"external": {
						"getUser(address)": "infinite",
						"registerUser(string,string)": "infinite",
						"userCount()": "2403",
						"users(address)": "infinite"
					}
				},
				"methodIdentifiers": {
					"getUser(address)": "6f77926b",
					"registerUser(string,string)": "1d2e4afd",
					"userCount()": "07973ccf",
					"users(address)": "a87430ba"
				}
			},
			"storageLayout": {
				"storage": [
					{
						"astId": 13,
						"contract": "contracts/5_UserContract.sol:UserContract",
						"label": "users",
						"offset": 0,
						"slot": "0",
						"type": "t_mapping(t_address,t_struct(User)8_storage)"
					},
					{
						"astId": 15,
						"contract": "contracts/5_UserContract.sol:UserContract",
						"label": "userCount",
						"offset": 0,
						"slot": "1",
						"type": "t_uint256"
					}
				],
				"types": {
					"t_address": {
						"encoding": "inplace",
						"label": "address",
						"numberOfBytes": "20"
					},
					"t_mapping(t_address,t_struct(User)8_storage)": {
						"encoding": "mapping",
						"key": "t_address",
						"label": "mapping(address => struct UserContract.User)",
						"numberOfBytes": "32",
						"value": "t_struct(User)8_storage"
					},
					"t_string_storage": {
						"encoding": "bytes",
						"label": "string",
						"numberOfBytes": "32"
					},
					"t_struct(User)8_storage": {
						"encoding": "inplace",
						"label": "struct UserContract.User",
						"members": [
							{
								"astId": 3,
								"contract": "contracts/5_UserContract.sol:UserContract",
								"label": "id",
								"offset": 0,
								"slot": "0",
								"type": "t_uint256"
							},
							{
								"astId": 5,
								"contract": "contracts/5_UserContract.sol:UserContract",
								"label": "name",
								"offset": 0,
								"slot": "1",
								"type": "t_string_storage"
							},
							{
								"astId": 7,
								"contract": "contracts/5_UserContract.sol:UserContract",
								"label": "role",
								"offset": 0,
								"slot": "2",
								"type": "t_string_storage"
							}
						],
						"numberOfBytes": "96"
					},
					"t_uint256": {
						"encoding": "inplace",
						"label": "uint256",
						"numberOfBytes": "32"
					}
				}
			},
			"userdoc": {
				"kind": "user",
				"methods": {},
				"version": 1
			}
		}
	}
}