{
	"contracts/16_Dispute Resolution.sol": {
		"DisputeResolution": {
			"abi": [
				{
					"anonymous": false,
					"inputs": [
						{
							"indexed": false,
							"internalType": "uint256",
							"name": "id",
							"type": "uint256"
						},
						{
							"indexed": false,
							"internalType": "uint256",
							"name": "transactionId",
							"type": "uint256"
						},
						{
							"indexed": false,
							"internalType": "address",
							"name": "complainant",
							"type": "address"
						},
						{
							"indexed": false,
							"internalType": "string",
							"name": "details",
							"type": "string"
						}
					],
					"name": "DisputeFiled",
					"type": "event"
				},
				{
					"anonymous": false,
					"inputs": [
						{
							"indexed": false,
							"internalType": "uint256",
							"name": "id",
							"type": "uint256"
						}
					],
					"name": "DisputeRejected",
					"type": "event"
				},
				{
					"anonymous": false,
					"inputs": [
						{
							"indexed": false,
							"internalType": "uint256",
							"name": "id",
							"type": "uint256"
						}
					],
					"name": "DisputeResolved",
					"type": "event"
				},
				{
					"inputs": [],
					"name": "disputeCount",
					"outputs": [
						{
							"internalType": "uint256",
							"name": "",
							"type": "uint256"
						}
					],
					"stateMutability": "view",
					"type": "function"
				},
				{
					"inputs": [
						{
							"internalType": "uint256",
							"name": "",
							"type": "uint256"
						}
					],
					"name": "disputes",
					"outputs": [
						{
							"internalType": "uint256",
							"name": "id",
							"type": "uint256"
						},
						{
							"internalType": "uint256",
							"name": "transactionId",
							"type": "uint256"
						},
						{
							"internalType": "address",
							"name": "complainant",
							"type": "address"
						},
						{
							"internalType": "string",
							"name": "details",
							"type": "string"
						},
						{
							"internalType": "enum DisputeResolution.ResolutionStatus",
							"name": "status",
							"type": "uint8"
						}
					],
					"stateMutability": "view",
					"type": "function"
				},
				{
					"inputs": [
						{
							"internalType": "uint256",
							"name": "_transactionId",
							"type": "uint256"
						},
						{
							"internalType": "string",
							"name": "_details",
							"type": "string"
						}
					],
					"name": "fileDispute",
					"outputs": [],
					"stateMutability": "nonpayable",
					"type": "function"
				},
				{
					"inputs": [
						{
							"internalType": "uint256",
							"name": "_id",
							"type": "uint256"
						}
					],
					"name": "rejectDispute",
					"outputs": [],
					"stateMutability": "nonpayable",
					"type": "function"
				},
				{
					"inputs": [
						{
							"internalType": "uint256",
							"name": "_id",
							"type": "uint256"
						}
					],
					"name": "resolveDispute",
					"outputs": [],
					"stateMutability": "nonpayable",
					"type": "function"
				}
			],
			"devdoc": {
				"kind": "dev",
				"methods": {},
				"version": 1
			},
			"evm": {
				"assembly": "    /* \"contracts/16_Dispute Resolution.sol\":67:1481  contract DisputeResolution {... */\n  mstore(0x40, 0x80)\n  callvalue\n  dup1\n  iszero\n  tag_1\n  jumpi\n  0x00\n  dup1\n  revert\ntag_1:\n  pop\n  dataSize(sub_0)\n  dup1\n  dataOffset(sub_0)\n  0x00\n  codecopy\n  0x00\n  return\nstop\n\nsub_0: assembly {\n        /* \"contracts/16_Dispute Resolution.sol\":67:1481  contract DisputeResolution {... */\n      mstore(0x40, 0x80)\n      callvalue\n      dup1\n      iszero\n      tag_1\n      jumpi\n      0x00\n      dup1\n      revert\n    tag_1:\n      pop\n      jumpi(tag_2, lt(calldatasize, 0x04))\n      shr(0xe0, calldataload(0x00))\n      dup1\n      0x2d4fd9dd\n      eq\n      tag_3\n      jumpi\n      dup1\n      0x564a565d\n      eq\n      tag_4\n      jumpi\n      dup1\n      0x8243af1d\n      eq\n      tag_5\n      jumpi\n      dup1\n      0xa28889e1\n      eq\n      tag_6\n      jumpi\n      dup1\n      0xc2b7b868\n      eq\n      tag_7\n      jumpi\n    tag_2:\n      0x00\n      dup1\n      revert\n        /* \"contracts/16_Dispute Resolution.sol\":1189:1478  function rejectDispute(uint _id) public {... */\n    tag_3:\n      tag_8\n      0x04\n      dup1\n      calldatasize\n      sub\n      dup2\n      add\n      swap1\n      tag_9\n      swap2\n      swap1\n      tag_10\n      jump\t// in\n    tag_9:\n      tag_11\n      jump\t// in\n    tag_8:\n      stop\n        /* \"contracts/16_Dispute Resolution.sol\":329:369  mapping(uint => Dispute) public disputes */\n    tag_4:\n      tag_12\n      0x04\n      dup1\n      calldatasize\n      sub\n      dup2\n      add\n      swap1\n      tag_13\n      swap2\n      swap1\n      tag_10\n      jump\t// in\n    tag_13:\n      tag_14\n      jump\t// in\n    tag_12:\n      mload(0x40)\n      tag_15\n      swap6\n      swap5\n      swap4\n      swap3\n      swap2\n      swap1\n      tag_16\n      jump\t// in\n    tag_15:\n      mload(0x40)\n      dup1\n      swap2\n      sub\n      swap1\n      return\n        /* \"contracts/16_Dispute Resolution.sol\":576:883  function fileDispute(uint _transactionId, string memory _details) public {... */\n    tag_5:\n      tag_17\n      0x04\n      dup1\n      calldatasize\n      sub\n      dup2\n      add\n      swap1\n      tag_18\n      swap2\n      swap1\n      tag_19\n      jump\t// in\n    tag_18:\n      tag_20\n      jump\t// in\n    tag_17:\n      stop\n        /* \"contracts/16_Dispute Resolution.sol\":376:400  uint public disputeCount */\n    tag_6:\n      tag_21\n      tag_22\n      jump\t// in\n    tag_21:\n      mload(0x40)\n      tag_23\n      swap2\n      swap1\n      tag_24\n      jump\t// in\n    tag_23:\n      mload(0x40)\n      dup1\n      swap2\n      sub\n      swap1\n      return\n        /* \"contracts/16_Dispute Resolution.sol\":891:1181  function resolveDispute(uint _id) public {... */\n    tag_7:\n      tag_25\n      0x04\n      dup1\n      calldatasize\n      sub\n      dup2\n      add\n      swap1\n      tag_26\n      swap2\n      swap1\n      tag_10\n      jump\t// in\n    tag_26:\n      tag_27\n      jump\t// in\n    tag_25:\n      stop\n        /* \"contracts/16_Dispute Resolution.sol\":1189:1478  function rejectDispute(uint _id) public {... */\n    tag_11:\n        /* \"contracts/16_Dispute Resolution.sol\":1240:1263  Dispute storage dispute */\n      0x00\n        /* \"contracts/16_Dispute Resolution.sol\":1266:1274  disputes */\n      dup1\n        /* \"contracts/16_Dispute Resolution.sol\":1266:1279  disputes[_id] */\n      0x00\n        /* \"contracts/16_Dispute Resolution.sol\":1275:1278  _id */\n      dup4\n        /* \"contracts/16_Dispute Resolution.sol\":1266:1279  disputes[_id] */\n      dup2\n      mstore\n      0x20\n      add\n      swap1\n      dup2\n      mstore\n      0x20\n      add\n      0x00\n      keccak256\n        /* \"contracts/16_Dispute Resolution.sol\":1240:1279  Dispute storage dispute = disputes[_id] */\n      swap1\n      pop\n        /* \"contracts/16_Dispute Resolution.sol\":1316:1340  ResolutionStatus.Pending */\n      0x00\n        /* \"contracts/16_Dispute Resolution.sol\":1298:1340  dispute.status == ResolutionStatus.Pending */\n      0x02\n      dup2\n      gt\n      iszero\n      tag_29\n      jumpi\n      tag_30\n      tag_31\n      jump\t// in\n    tag_30:\n    tag_29:\n        /* \"contracts/16_Dispute Resolution.sol\":1298:1305  dispute */\n      dup2\n        /* \"contracts/16_Dispute Resolution.sol\":1298:1312  dispute.status */\n      0x04\n      add\n      0x00\n      swap1\n      sload\n      swap1\n      0x0100\n      exp\n      swap1\n      div\n      0xff\n      and\n        /* \"contracts/16_Dispute Resolution.sol\":1298:1340  dispute.status == ResolutionStatus.Pending */\n      0x02\n      dup2\n      gt\n      iszero\n      tag_32\n      jumpi\n      tag_33\n      tag_31\n      jump\t// in\n    tag_33:\n    tag_32:\n      eq\n        /* \"contracts/16_Dispute Resolution.sol\":1290:1381  require(dispute.status == ResolutionStatus.Pending, \"Dispute already resolved or rejected\") */\n      tag_34\n      jumpi\n      mload(0x40)\n      0x08c379a000000000000000000000000000000000000000000000000000000000\n      dup2\n      mstore\n      0x04\n      add\n      tag_35\n      swap1\n      tag_36\n      jump\t// in\n    tag_35:\n      mload(0x40)\n      dup1\n      swap2\n      sub\n      swap1\n      revert\n    tag_34:\n        /* \"contracts/16_Dispute Resolution.sol\":1409:1434  ResolutionStatus.Rejected */\n      0x02\n        /* \"contracts/16_Dispute Resolution.sol\":1392:1399  dispute */\n      dup2\n        /* \"contracts/16_Dispute Resolution.sol\":1392:1406  dispute.status */\n      0x04\n      add\n      0x00\n        /* \"contracts/16_Dispute Resolution.sol\":1392:1434  dispute.status = ResolutionStatus.Rejected */\n      0x0100\n      exp\n      dup2\n      sload\n      dup2\n      0xff\n      mul\n      not\n      and\n      swap1\n      dup4\n      0x02\n      dup2\n      gt\n      iszero\n      tag_37\n      jumpi\n      tag_38\n      tag_31\n      jump\t// in\n    tag_38:\n    tag_37:\n      mul\n      or\n      swap1\n      sstore\n      pop\n        /* \"contracts/16_Dispute Resolution.sol\":1450:1470  DisputeRejected(_id) */\n      0x0a2cb862ce5c541e4371903a6724398d5a73ece63c483ad33ba1797cbc635318\n        /* \"contracts/16_Dispute Resolution.sol\":1466:1469  _id */\n      dup3\n        /* \"contracts/16_Dispute Resolution.sol\":1450:1470  DisputeRejected(_id) */\n      mload(0x40)\n      tag_39\n      swap2\n      swap1\n      tag_24\n      jump\t// in\n    tag_39:\n      mload(0x40)\n      dup1\n      swap2\n      sub\n      swap1\n      log1\n        /* \"contracts/16_Dispute Resolution.sol\":1229:1478  {... */\n      pop\n        /* \"contracts/16_Dispute Resolution.sol\":1189:1478  function rejectDispute(uint _id) public {... */\n      pop\n      jump\t// out\n        /* \"contracts/16_Dispute Resolution.sol\":329:369  mapping(uint => Dispute) public disputes */\n    tag_14:\n      mstore(0x20, 0x00)\n      dup1\n      0x00\n      mstore\n      keccak256(0x00, 0x40)\n      0x00\n      swap2\n      pop\n      swap1\n      pop\n      dup1\n      0x00\n      add\n      sload\n      swap1\n      dup1\n      0x01\n      add\n      sload\n      swap1\n      dup1\n      0x02\n      add\n      0x00\n      swap1\n      sload\n      swap1\n      0x0100\n      exp\n      swap1\n      div\n      0xffffffffffffffffffffffffffffffffffffffff\n      and\n      swap1\n      dup1\n      0x03\n      add\n      dup1\n      sload\n      tag_40\n      swap1\n      tag_41\n      jump\t// in\n    tag_40:\n      dup1\n      0x1f\n      add\n      0x20\n      dup1\n      swap2\n      div\n      mul\n      0x20\n      add\n      mload(0x40)\n      swap1\n      dup2\n      add\n      0x40\n      mstore\n      dup1\n      swap3\n      swap2\n      swap1\n      dup2\n      dup2\n      mstore\n      0x20\n      add\n      dup3\n      dup1\n      sload\n      tag_42\n      swap1\n      tag_41\n      jump\t// in\n    tag_42:\n      dup1\n      iszero\n      tag_43\n      jumpi\n      dup1\n      0x1f\n      lt\n      tag_44\n      jumpi\n      0x0100\n      dup1\n      dup4\n      sload\n      div\n      mul\n      dup4\n      mstore\n      swap2\n      0x20\n      add\n      swap2\n      jump(tag_43)\n    tag_44:\n      dup3\n      add\n      swap2\n      swap1\n      0x00\n      mstore\n      keccak256(0x00, 0x20)\n      swap1\n    tag_45:\n      dup2\n      sload\n      dup2\n      mstore\n      swap1\n      0x01\n      add\n      swap1\n      0x20\n      add\n      dup1\n      dup4\n      gt\n      tag_45\n      jumpi\n      dup3\n      swap1\n      sub\n      0x1f\n      and\n      dup3\n      add\n      swap2\n    tag_43:\n      pop\n      pop\n      pop\n      pop\n      pop\n      swap1\n      dup1\n      0x04\n      add\n      0x00\n      swap1\n      sload\n      swap1\n      0x0100\n      exp\n      swap1\n      div\n      0xff\n      and\n      swap1\n      pop\n      dup6\n      jump\t// out\n        /* \"contracts/16_Dispute Resolution.sol\":576:883  function fileDispute(uint _transactionId, string memory _details) public {... */\n    tag_20:\n        /* \"contracts/16_Dispute Resolution.sol\":660:672  disputeCount */\n      0x01\n      0x00\n        /* \"contracts/16_Dispute Resolution.sol\":660:674  disputeCount++ */\n      dup2\n      sload\n      dup1\n      swap3\n      swap2\n      swap1\n      tag_47\n      swap1\n      tag_48\n      jump\t// in\n    tag_47:\n      swap2\n      swap1\n      pop\n      sstore\n      pop\n        /* \"contracts/16_Dispute Resolution.sol\":710:795  Dispute(disputeCount, _transactionId, msg.sender, _details, ResolutionStatus.Pending) */\n      mload(0x40)\n      dup1\n      0xa0\n      add\n      0x40\n      mstore\n      dup1\n        /* \"contracts/16_Dispute Resolution.sol\":718:730  disputeCount */\n      sload(0x01)\n        /* \"contracts/16_Dispute Resolution.sol\":710:795  Dispute(disputeCount, _transactionId, msg.sender, _details, ResolutionStatus.Pending) */\n      dup2\n      mstore\n      0x20\n      add\n        /* \"contracts/16_Dispute Resolution.sol\":732:746  _transactionId */\n      dup4\n        /* \"contracts/16_Dispute Resolution.sol\":710:795  Dispute(disputeCount, _transactionId, msg.sender, _details, ResolutionStatus.Pending) */\n      dup2\n      mstore\n      0x20\n      add\n        /* \"contracts/16_Dispute Resolution.sol\":748:758  msg.sender */\n      caller\n        /* \"contracts/16_Dispute Resolution.sol\":710:795  Dispute(disputeCount, _transactionId, msg.sender, _details, ResolutionStatus.Pending) */\n      0xffffffffffffffffffffffffffffffffffffffff\n      and\n      dup2\n      mstore\n      0x20\n      add\n        /* \"contracts/16_Dispute Resolution.sol\":760:768  _details */\n      dup3\n        /* \"contracts/16_Dispute Resolution.sol\":710:795  Dispute(disputeCount, _transactionId, msg.sender, _details, ResolutionStatus.Pending) */\n      dup2\n      mstore\n      0x20\n      add\n        /* \"contracts/16_Dispute Resolution.sol\":770:794  ResolutionStatus.Pending */\n      0x00\n        /* \"contracts/16_Dispute Resolution.sol\":710:795  Dispute(disputeCount, _transactionId, msg.sender, _details, ResolutionStatus.Pending) */\n      0x02\n      dup2\n      gt\n      iszero\n      tag_49\n      jumpi\n      tag_50\n      tag_31\n      jump\t// in\n    tag_50:\n    tag_49:\n      dup2\n      mstore\n      pop\n        /* \"contracts/16_Dispute Resolution.sol\":685:693  disputes */\n      0x00\n        /* \"contracts/16_Dispute Resolution.sol\":685:707  disputes[disputeCount] */\n      dup1\n        /* \"contracts/16_Dispute Resolution.sol\":694:706  disputeCount */\n      sload(0x01)\n        /* \"contracts/16_Dispute Resolution.sol\":685:707  disputes[disputeCount] */\n      dup2\n      mstore\n      0x20\n      add\n      swap1\n      dup2\n      mstore\n      0x20\n      add\n      0x00\n      keccak256\n        /* \"contracts/16_Dispute Resolution.sol\":685:795  disputes[disputeCount] = Dispute(disputeCount, _transactionId, msg.sender, _details, ResolutionStatus.Pending) */\n      0x00\n      dup3\n      add\n      mload\n      dup2\n      0x00\n      add\n      sstore\n      0x20\n      dup3\n      add\n      mload\n      dup2\n      0x01\n      add\n      sstore\n      0x40\n      dup3\n      add\n      mload\n      dup2\n      0x02\n      add\n      exp(0x0100, 0x00)\n      dup2\n      sload\n      dup2\n      0xffffffffffffffffffffffffffffffffffffffff\n      mul\n      not\n      and\n      swap1\n      dup4\n      0xffffffffffffffffffffffffffffffffffffffff\n      and\n      mul\n      or\n      swap1\n      sstore\n      pop\n      0x60\n      dup3\n      add\n      mload\n      dup2\n      0x03\n      add\n      swap1\n      dup2\n      tag_51\n      swap2\n      swap1\n      tag_52\n      jump\t// in\n    tag_51:\n      pop\n      0x80\n      dup3\n      add\n      mload\n      dup2\n      0x04\n      add\n      exp(0x0100, 0x00)\n      dup2\n      sload\n      dup2\n      0xff\n      mul\n      not\n      and\n      swap1\n      dup4\n      0x02\n      dup2\n      gt\n      iszero\n      tag_53\n      jumpi\n      tag_54\n      tag_31\n      jump\t// in\n    tag_54:\n    tag_53:\n      mul\n      or\n      swap1\n      sstore\n      pop\n      swap1\n      pop\n      pop\n        /* \"contracts/16_Dispute Resolution.sol\":811:875  DisputeFiled(disputeCount, _transactionId, msg.sender, _details) */\n      0x436e94ee8d1a47178f6f9c4004853a84b8ae47ed07f1d4a70623925bf7cc2248\n        /* \"contracts/16_Dispute Resolution.sol\":824:836  disputeCount */\n      sload(0x01)\n        /* \"contracts/16_Dispute Resolution.sol\":838:852  _transactionId */\n      dup4\n        /* \"contracts/16_Dispute Resolution.sol\":854:864  msg.sender */\n      caller\n        /* \"contracts/16_Dispute Resolution.sol\":866:874  _details */\n      dup5\n        /* \"contracts/16_Dispute Resolution.sol\":811:875  DisputeFiled(disputeCount, _transactionId, msg.sender, _details) */\n      mload(0x40)\n      tag_55\n      swap5\n      swap4\n      swap3\n      swap2\n      swap1\n      tag_56\n      jump\t// in\n    tag_55:\n      mload(0x40)\n      dup1\n      swap2\n      sub\n      swap1\n      log1\n        /* \"contracts/16_Dispute Resolution.sol\":576:883  function fileDispute(uint _transactionId, string memory _details) public {... */\n      pop\n      pop\n      jump\t// out\n        /* \"contracts/16_Dispute Resolution.sol\":376:400  uint public disputeCount */\n    tag_22:\n      sload(0x01)\n      dup2\n      jump\t// out\n        /* \"contracts/16_Dispute Resolution.sol\":891:1181  function resolveDispute(uint _id) public {... */\n    tag_27:\n        /* \"contracts/16_Dispute Resolution.sol\":943:966  Dispute storage dispute */\n      0x00\n        /* \"contracts/16_Dispute Resolution.sol\":969:977  disputes */\n      dup1\n        /* \"contracts/16_Dispute Resolution.sol\":969:982  disputes[_id] */\n      0x00\n        /* \"contracts/16_Dispute Resolution.sol\":978:981  _id */\n      dup4\n        /* \"contracts/16_Dispute Resolution.sol\":969:982  disputes[_id] */\n      dup2\n      mstore\n      0x20\n      add\n      swap1\n      dup2\n      mstore\n      0x20\n      add\n      0x00\n      keccak256\n        /* \"contracts/16_Dispute Resolution.sol\":943:982  Dispute storage dispute = disputes[_id] */\n      swap1\n      pop\n        /* \"contracts/16_Dispute Resolution.sol\":1019:1043  ResolutionStatus.Pending */\n      0x00\n        /* \"contracts/16_Dispute Resolution.sol\":1001:1043  dispute.status == ResolutionStatus.Pending */\n      0x02\n      dup2\n      gt\n      iszero\n      tag_58\n      jumpi\n      tag_59\n      tag_31\n      jump\t// in\n    tag_59:\n    tag_58:\n        /* \"contracts/16_Dispute Resolution.sol\":1001:1008  dispute */\n      dup2\n        /* \"contracts/16_Dispute Resolution.sol\":1001:1015  dispute.status */\n      0x04\n      add\n      0x00\n      swap1\n      sload\n      swap1\n      0x0100\n      exp\n      swap1\n      div\n      0xff\n      and\n        /* \"contracts/16_Dispute Resolution.sol\":1001:1043  dispute.status == ResolutionStatus.Pending */\n      0x02\n      dup2\n      gt\n      iszero\n      tag_60\n      jumpi\n      tag_61\n      tag_31\n      jump\t// in\n    tag_61:\n    tag_60:\n      eq\n        /* \"contracts/16_Dispute Resolution.sol\":993:1084  require(dispute.status == ResolutionStatus.Pending, \"Dispute already resolved or rejected\") */\n      tag_62\n      jumpi\n      mload(0x40)\n      0x08c379a000000000000000000000000000000000000000000000000000000000\n      dup2\n      mstore\n      0x04\n      add\n      tag_63\n      swap1\n      tag_36\n      jump\t// in\n    tag_63:\n      mload(0x40)\n      dup1\n      swap2\n      sub\n      swap1\n      revert\n    tag_62:\n        /* \"contracts/16_Dispute Resolution.sol\":1112:1137  ResolutionStatus.Resolved */\n      0x01\n        /* \"contracts/16_Dispute Resolution.sol\":1095:1102  dispute */\n      dup2\n        /* \"contracts/16_Dispute Resolution.sol\":1095:1109  dispute.status */\n      0x04\n      add\n      0x00\n        /* \"contracts/16_Dispute Resolution.sol\":1095:1137  dispute.status = ResolutionStatus.Resolved */\n      0x0100\n      exp\n      dup2\n      sload\n      dup2\n      0xff\n      mul\n      not\n      and\n      swap1\n      dup4\n      0x02\n      dup2\n      gt\n      iszero\n      tag_64\n      jumpi\n      tag_65\n      tag_31\n      jump\t// in\n    tag_65:\n    tag_64:\n      mul\n      or\n      swap1\n      sstore\n      pop\n        /* \"contracts/16_Dispute Resolution.sol\":1153:1173  DisputeResolved(_id) */\n      0x57cce005d496355471bb5269f1dea3d6c81b6ac14c1d74ba28aefb022357013b\n        /* \"contracts/16_Dispute Resolution.sol\":1169:1172  _id */\n      dup3\n        /* \"contracts/16_Dispute Resolution.sol\":1153:1173  DisputeResolved(_id) */\n      mload(0x40)\n      tag_66\n      swap2\n      swap1\n      tag_24\n      jump\t// in\n    tag_66:\n      mload(0x40)\n      dup1\n      swap2\n      sub\n      swap1\n      log1\n        /* \"contracts/16_Dispute Resolution.sol\":932:1181  {... */\n      pop\n        /* \"contracts/16_Dispute Resolution.sol\":891:1181  function resolveDispute(uint _id) public {... */\n      pop\n      jump\t// out\n        /* \"#utility.yul\":7:82   */\n    tag_67:\n        /* \"#utility.yul\":40:46   */\n      0x00\n        /* \"#utility.yul\":73:75   */\n      0x40\n        /* \"#utility.yul\":67:76   */\n      mload\n        /* \"#utility.yul\":57:76   */\n      swap1\n      pop\n        /* \"#utility.yul\":7:82   */\n      swap1\n      jump\t// out\n        /* \"#utility.yul\":88:205   */\n    tag_68:\n        /* \"#utility.yul\":197:198   */\n      0x00\n        /* \"#utility.yul\":194:195   */\n      dup1\n        /* \"#utility.yul\":187:199   */\n      revert\n        /* \"#utility.yul\":211:328   */\n    tag_69:\n        /* \"#utility.yul\":320:321   */\n      0x00\n        /* \"#utility.yul\":317:318   */\n      dup1\n        /* \"#utility.yul\":310:322   */\n      revert\n        /* \"#utility.yul\":334:411   */\n    tag_70:\n        /* \"#utility.yul\":371:378   */\n      0x00\n        /* \"#utility.yul\":400:405   */\n      dup2\n        /* \"#utility.yul\":389:405   */\n      swap1\n      pop\n        /* \"#utility.yul\":334:411   */\n      swap2\n      swap1\n      pop\n      jump\t// out\n        /* \"#utility.yul\":417:539   */\n    tag_71:\n        /* \"#utility.yul\":490:514   */\n      tag_120\n        /* \"#utility.yul\":508:513   */\n      dup2\n        /* \"#utility.yul\":490:514   */\n      tag_70\n      jump\t// in\n    tag_120:\n        /* \"#utility.yul\":483:488   */\n      dup2\n        /* \"#utility.yul\":480:515   */\n      eq\n        /* \"#utility.yul\":470:533   */\n      tag_121\n      jumpi\n        /* \"#utility.yul\":529:530   */\n      0x00\n        /* \"#utility.yul\":526:527   */\n      dup1\n        /* \"#utility.yul\":519:531   */\n      revert\n        /* \"#utility.yul\":470:533   */\n    tag_121:\n        /* \"#utility.yul\":417:539   */\n      pop\n      jump\t// out\n        /* \"#utility.yul\":545:684   */\n    tag_72:\n        /* \"#utility.yul\":591:596   */\n      0x00\n        /* \"#utility.yul\":629:635   */\n      dup2\n        /* \"#utility.yul\":616:636   */\n      calldataload\n        /* \"#utility.yul\":607:636   */\n      swap1\n      pop\n        /* \"#utility.yul\":645:678   */\n      tag_123\n        /* \"#utility.yul\":672:677   */\n      dup2\n        /* \"#utility.yul\":645:678   */\n      tag_71\n      jump\t// in\n    tag_123:\n        /* \"#utility.yul\":545:684   */\n      swap3\n      swap2\n      pop\n      pop\n      jump\t// out\n        /* \"#utility.yul\":690:1019   */\n    tag_10:\n        /* \"#utility.yul\":749:755   */\n      0x00\n        /* \"#utility.yul\":798:800   */\n      0x20\n        /* \"#utility.yul\":786:795   */\n      dup3\n        /* \"#utility.yul\":777:784   */\n      dup5\n        /* \"#utility.yul\":773:796   */\n      sub\n        /* \"#utility.yul\":769:801   */\n      slt\n        /* \"#utility.yul\":766:885   */\n      iszero\n      tag_125\n      jumpi\n        /* \"#utility.yul\":804:883   */\n      tag_126\n      tag_68\n      jump\t// in\n    tag_126:\n        /* \"#utility.yul\":766:885   */\n    tag_125:\n        /* \"#utility.yul\":924:925   */\n      0x00\n        /* \"#utility.yul\":949:1002   */\n      tag_127\n        /* \"#utility.yul\":994:1001   */\n      dup5\n        /* \"#utility.yul\":985:991   */\n      dup3\n        /* \"#utility.yul\":974:983   */\n      dup6\n        /* \"#utility.yul\":970:992   */\n      add\n        /* \"#utility.yul\":949:1002   */\n      tag_72\n      jump\t// in\n    tag_127:\n        /* \"#utility.yul\":939:1002   */\n      swap2\n      pop\n        /* \"#utility.yul\":895:1012   */\n      pop\n        /* \"#utility.yul\":690:1019   */\n      swap3\n      swap2\n      pop\n      pop\n      jump\t// out\n        /* \"#utility.yul\":1025:1143   */\n    tag_73:\n        /* \"#utility.yul\":1112:1136   */\n      tag_129\n        /* \"#utility.yul\":1130:1135   */\n      dup2\n        /* \"#utility.yul\":1112:1136   */\n      tag_70\n      jump\t// in\n    tag_129:\n        /* \"#utility.yul\":1107:1110   */\n      dup3\n        /* \"#utility.yul\":1100:1137   */\n      mstore\n        /* \"#utility.yul\":1025:1143   */\n      pop\n      pop\n      jump\t// out\n        /* \"#utility.yul\":1149:1275   */\n    tag_74:\n        /* \"#utility.yul\":1186:1193   */\n      0x00\n        /* \"#utility.yul\":1226:1268   */\n      0xffffffffffffffffffffffffffffffffffffffff\n        /* \"#utility.yul\":1219:1224   */\n      dup3\n        /* \"#utility.yul\":1215:1269   */\n      and\n        /* \"#utility.yul\":1204:1269   */\n      swap1\n      pop\n        /* \"#utility.yul\":1149:1275   */\n      swap2\n      swap1\n      pop\n      jump\t// out\n        /* \"#utility.yul\":1281:1377   */\n    tag_75:\n        /* \"#utility.yul\":1318:1325   */\n      0x00\n        /* \"#utility.yul\":1347:1371   */\n      tag_132\n        /* \"#utility.yul\":1365:1370   */\n      dup3\n        /* \"#utility.yul\":1347:1371   */\n      tag_74\n      jump\t// in\n    tag_132:\n        /* \"#utility.yul\":1336:1371   */\n      swap1\n      pop\n        /* \"#utility.yul\":1281:1377   */\n      swap2\n      swap1\n      pop\n      jump\t// out\n        /* \"#utility.yul\":1383:1501   */\n    tag_76:\n        /* \"#utility.yul\":1470:1494   */\n      tag_134\n        /* \"#utility.yul\":1488:1493   */\n      dup2\n        /* \"#utility.yul\":1470:1494   */\n      tag_75\n      jump\t// in\n    tag_134:\n        /* \"#utility.yul\":1465:1468   */\n      dup3\n        /* \"#utility.yul\":1458:1495   */\n      mstore\n        /* \"#utility.yul\":1383:1501   */\n      pop\n      pop\n      jump\t// out\n        /* \"#utility.yul\":1507:1606   */\n    tag_77:\n        /* \"#utility.yul\":1559:1565   */\n      0x00\n        /* \"#utility.yul\":1593:1598   */\n      dup2\n        /* \"#utility.yul\":1587:1599   */\n      mload\n        /* \"#utility.yul\":1577:1599   */\n      swap1\n      pop\n        /* \"#utility.yul\":1507:1606   */\n      swap2\n      swap1\n      pop\n      jump\t// out\n        /* \"#utility.yul\":1612:1781   */\n    tag_78:\n        /* \"#utility.yul\":1696:1707   */\n      0x00\n        /* \"#utility.yul\":1730:1736   */\n      dup3\n        /* \"#utility.yul\":1725:1728   */\n      dup3\n        /* \"#utility.yul\":1718:1737   */\n      mstore\n        /* \"#utility.yul\":1770:1774   */\n      0x20\n        /* \"#utility.yul\":1765:1768   */\n      dup3\n        /* \"#utility.yul\":1761:1775   */\n      add\n        /* \"#utility.yul\":1746:1775   */\n      swap1\n      pop\n        /* \"#utility.yul\":1612:1781   */\n      swap3\n      swap2\n      pop\n      pop\n      jump\t// out\n        /* \"#utility.yul\":1787:1926   */\n    tag_79:\n        /* \"#utility.yul\":1876:1882   */\n      dup3\n        /* \"#utility.yul\":1871:1874   */\n      dup2\n        /* \"#utility.yul\":1866:1869   */\n      dup4\n        /* \"#utility.yul\":1860:1883   */\n      mcopy\n        /* \"#utility.yul\":1917:1918   */\n      0x00\n        /* \"#utility.yul\":1908:1914   */\n      dup4\n        /* \"#utility.yul\":1903:1906   */\n      dup4\n        /* \"#utility.yul\":1899:1915   */\n      add\n        /* \"#utility.yul\":1892:1919   */\n      mstore\n        /* \"#utility.yul\":1787:1926   */\n      pop\n      pop\n      pop\n      jump\t// out\n        /* \"#utility.yul\":1932:2034   */\n    tag_80:\n        /* \"#utility.yul\":1973:1979   */\n      0x00\n        /* \"#utility.yul\":2024:2026   */\n      0x1f\n        /* \"#utility.yul\":2020:2027   */\n      not\n        /* \"#utility.yul\":2015:2017   */\n      0x1f\n        /* \"#utility.yul\":2008:2013   */\n      dup4\n        /* \"#utility.yul\":2004:2018   */\n      add\n        /* \"#utility.yul\":2000:2028   */\n      and\n        /* \"#utility.yul\":1990:2028   */\n      swap1\n      pop\n        /* \"#utility.yul\":1932:2034   */\n      swap2\n      swap1\n      pop\n      jump\t// out\n        /* \"#utility.yul\":2040:2417   */\n    tag_81:\n        /* \"#utility.yul\":2128:2131   */\n      0x00\n        /* \"#utility.yul\":2156:2195   */\n      tag_140\n        /* \"#utility.yul\":2189:2194   */\n      dup3\n        /* \"#utility.yul\":2156:2195   */\n      tag_77\n      jump\t// in\n    tag_140:\n        /* \"#utility.yul\":2211:2282   */\n      tag_141\n        /* \"#utility.yul\":2275:2281   */\n      dup2\n        /* \"#utility.yul\":2270:2273   */\n      dup6\n        /* \"#utility.yul\":2211:2282   */\n      tag_78\n      jump\t// in\n    tag_141:\n        /* \"#utility.yul\":2204:2282   */\n      swap4\n      pop\n        /* \"#utility.yul\":2291:2356   */\n      tag_142\n        /* \"#utility.yul\":2349:2355   */\n      dup2\n        /* \"#utility.yul\":2344:2347   */\n      dup6\n        /* \"#utility.yul\":2337:2341   */\n      0x20\n        /* \"#utility.yul\":2330:2335   */\n      dup7\n        /* \"#utility.yul\":2326:2342   */\n      add\n        /* \"#utility.yul\":2291:2356   */\n      tag_79\n      jump\t// in\n    tag_142:\n        /* \"#utility.yul\":2381:2410   */\n      tag_143\n        /* \"#utility.yul\":2403:2409   */\n      dup2\n        /* \"#utility.yul\":2381:2410   */\n      tag_80\n      jump\t// in\n    tag_143:\n        /* \"#utility.yul\":2376:2379   */\n      dup5\n        /* \"#utility.yul\":2372:2411   */\n      add\n        /* \"#utility.yul\":2365:2411   */\n      swap2\n      pop\n        /* \"#utility.yul\":2132:2417   */\n      pop\n        /* \"#utility.yul\":2040:2417   */\n      swap3\n      swap2\n      pop\n      pop\n      jump\t// out\n        /* \"#utility.yul\":2423:2603   */\n    tag_31:\n        /* \"#utility.yul\":2471:2548   */\n      0x4e487b7100000000000000000000000000000000000000000000000000000000\n        /* \"#utility.yul\":2468:2469   */\n      0x00\n        /* \"#utility.yul\":2461:2549   */\n      mstore\n        /* \"#utility.yul\":2568:2572   */\n      0x21\n        /* \"#utility.yul\":2565:2566   */\n      0x04\n        /* \"#utility.yul\":2558:2573   */\n      mstore\n        /* \"#utility.yul\":2592:2596   */\n      0x24\n        /* \"#utility.yul\":2589:2590   */\n      0x00\n        /* \"#utility.yul\":2582:2597   */\n      revert\n        /* \"#utility.yul\":2609:2732   */\n    tag_82:\n        /* \"#utility.yul\":2700:2701   */\n      0x03\n        /* \"#utility.yul\":2693:2698   */\n      dup2\n        /* \"#utility.yul\":2690:2702   */\n      lt\n        /* \"#utility.yul\":2680:2726   */\n      tag_146\n      jumpi\n        /* \"#utility.yul\":2706:2724   */\n      tag_147\n      tag_31\n      jump\t// in\n    tag_147:\n        /* \"#utility.yul\":2680:2726   */\n    tag_146:\n        /* \"#utility.yul\":2609:2732   */\n      pop\n      jump\t// out\n        /* \"#utility.yul\":2738:2885   */\n    tag_83:\n        /* \"#utility.yul\":2793:2800   */\n      0x00\n        /* \"#utility.yul\":2822:2827   */\n      dup2\n        /* \"#utility.yul\":2811:2827   */\n      swap1\n      pop\n        /* \"#utility.yul\":2828:2879   */\n      tag_149\n        /* \"#utility.yul\":2873:2878   */\n      dup3\n        /* \"#utility.yul\":2828:2879   */\n      tag_82\n      jump\t// in\n    tag_149:\n        /* \"#utility.yul\":2738:2885   */\n      swap2\n      swap1\n      pop\n      jump\t// out\n        /* \"#utility.yul\":2891:3038   */\n    tag_84:\n        /* \"#utility.yul\":2957:2966   */\n      0x00\n        /* \"#utility.yul\":2990:3032   */\n      tag_151\n        /* \"#utility.yul\":3026:3031   */\n      dup3\n        /* \"#utility.yul\":2990:3032   */\n      tag_83\n      jump\t// in\n    tag_151:\n        /* \"#utility.yul\":2977:3032   */\n      swap1\n      pop\n        /* \"#utility.yul\":2891:3038   */\n      swap2\n      swap1\n      pop\n      jump\t// out\n        /* \"#utility.yul\":3044:3207   */\n    tag_85:\n        /* \"#utility.yul\":3147:3200   */\n      tag_153\n        /* \"#utility.yul\":3194:3199   */\n      dup2\n        /* \"#utility.yul\":3147:3200   */\n      tag_84\n      jump\t// in\n    tag_153:\n        /* \"#utility.yul\":3142:3145   */\n      dup3\n        /* \"#utility.yul\":3135:3201   */\n      mstore\n        /* \"#utility.yul\":3044:3207   */\n      pop\n      pop\n      jump\t// out\n        /* \"#utility.yul\":3213:4000   */\n    tag_16:\n        /* \"#utility.yul\":3454:3458   */\n      0x00\n        /* \"#utility.yul\":3492:3495   */\n      0xa0\n        /* \"#utility.yul\":3481:3490   */\n      dup3\n        /* \"#utility.yul\":3477:3496   */\n      add\n        /* \"#utility.yul\":3469:3496   */\n      swap1\n      pop\n        /* \"#utility.yul\":3506:3577   */\n      tag_155\n        /* \"#utility.yul\":3574:3575   */\n      0x00\n        /* \"#utility.yul\":3563:3572   */\n      dup4\n        /* \"#utility.yul\":3559:3576   */\n      add\n        /* \"#utility.yul\":3550:3556   */\n      dup9\n        /* \"#utility.yul\":3506:3577   */\n      tag_73\n      jump\t// in\n    tag_155:\n        /* \"#utility.yul\":3587:3659   */\n      tag_156\n        /* \"#utility.yul\":3655:3657   */\n      0x20\n        /* \"#utility.yul\":3644:3653   */\n      dup4\n        /* \"#utility.yul\":3640:3658   */\n      add\n        /* \"#utility.yul\":3631:3637   */\n      dup8\n        /* \"#utility.yul\":3587:3659   */\n      tag_73\n      jump\t// in\n    tag_156:\n        /* \"#utility.yul\":3669:3741   */\n      tag_157\n        /* \"#utility.yul\":3737:3739   */\n      0x40\n        /* \"#utility.yul\":3726:3735   */\n      dup4\n        /* \"#utility.yul\":3722:3740   */\n      add\n        /* \"#utility.yul\":3713:3719   */\n      dup7\n        /* \"#utility.yul\":3669:3741   */\n      tag_76\n      jump\t// in\n    tag_157:\n        /* \"#utility.yul\":3788:3797   */\n      dup2\n        /* \"#utility.yul\":3782:3786   */\n      dup2\n        /* \"#utility.yul\":3778:3798   */\n      sub\n        /* \"#utility.yul\":3773:3775   */\n      0x60\n        /* \"#utility.yul\":3762:3771   */\n      dup4\n        /* \"#utility.yul\":3758:3776   */\n      add\n        /* \"#utility.yul\":3751:3799   */\n      mstore\n        /* \"#utility.yul\":3816:3894   */\n      tag_158\n        /* \"#utility.yul\":3889:3893   */\n      dup2\n        /* \"#utility.yul\":3880:3886   */\n      dup6\n        /* \"#utility.yul\":3816:3894   */\n      tag_81\n      jump\t// in\n    tag_158:\n        /* \"#utility.yul\":3808:3894   */\n      swap1\n      pop\n        /* \"#utility.yul\":3904:3993   */\n      tag_159\n        /* \"#utility.yul\":3988:3991   */\n      0x80\n        /* \"#utility.yul\":3977:3986   */\n      dup4\n        /* \"#utility.yul\":3973:3992   */\n      add\n        /* \"#utility.yul\":3964:3970   */\n      dup5\n        /* \"#utility.yul\":3904:3993   */\n      tag_85\n      jump\t// in\n    tag_159:\n        /* \"#utility.yul\":3213:4000   */\n      swap7\n      swap6\n      pop\n      pop\n      pop\n      pop\n      pop\n      pop\n      jump\t// out\n        /* \"#utility.yul\":4006:4123   */\n    tag_86:\n        /* \"#utility.yul\":4115:4116   */\n      0x00\n        /* \"#utility.yul\":4112:4113   */\n      dup1\n        /* \"#utility.yul\":4105:4117   */\n      revert\n        /* \"#utility.yul\":4129:4246   */\n    tag_87:\n        /* \"#utility.yul\":4238:4239   */\n      0x00\n        /* \"#utility.yul\":4235:4236   */\n      dup1\n        /* \"#utility.yul\":4228:4240   */\n      revert\n        /* \"#utility.yul\":4252:4432   */\n    tag_88:\n        /* \"#utility.yul\":4300:4377   */\n      0x4e487b7100000000000000000000000000000000000000000000000000000000\n        /* \"#utility.yul\":4297:4298   */\n      0x00\n        /* \"#utility.yul\":4290:4378   */\n      mstore\n        /* \"#utility.yul\":4397:4401   */\n      0x41\n        /* \"#utility.yul\":4394:4395   */\n      0x04\n        /* \"#utility.yul\":4387:4402   */\n      mstore\n        /* \"#utility.yul\":4421:4425   */\n      0x24\n        /* \"#utility.yul\":4418:4419   */\n      0x00\n        /* \"#utility.yul\":4411:4426   */\n      revert\n        /* \"#utility.yul\":4438:4719   */\n    tag_89:\n        /* \"#utility.yul\":4521:4548   */\n      tag_164\n        /* \"#utility.yul\":4543:4547   */\n      dup3\n        /* \"#utility.yul\":4521:4548   */\n      tag_80\n      jump\t// in\n    tag_164:\n        /* \"#utility.yul\":4513:4519   */\n      dup2\n        /* \"#utility.yul\":4509:4549   */\n      add\n        /* \"#utility.yul\":4651:4657   */\n      dup2\n        /* \"#utility.yul\":4639:4649   */\n      dup2\n        /* \"#utility.yul\":4636:4658   */\n      lt\n        /* \"#utility.yul\":4615:4633   */\n      0xffffffffffffffff\n        /* \"#utility.yul\":4603:4613   */\n      dup3\n        /* \"#utility.yul\":4600:4634   */\n      gt\n        /* \"#utility.yul\":4597:4659   */\n      or\n        /* \"#utility.yul\":4594:4682   */\n      iszero\n      tag_165\n      jumpi\n        /* \"#utility.yul\":4662:4680   */\n      tag_166\n      tag_88\n      jump\t// in\n    tag_166:\n        /* \"#utility.yul\":4594:4682   */\n    tag_165:\n        /* \"#utility.yul\":4702:4712   */\n      dup1\n        /* \"#utility.yul\":4698:4700   */\n      0x40\n        /* \"#utility.yul\":4691:4713   */\n      mstore\n        /* \"#utility.yul\":4481:4719   */\n      pop\n        /* \"#utility.yul\":4438:4719   */\n      pop\n      pop\n      jump\t// out\n        /* \"#utility.yul\":4725:4854   */\n    tag_90:\n        /* \"#utility.yul\":4759:4765   */\n      0x00\n        /* \"#utility.yul\":4786:4806   */\n      tag_168\n      tag_67\n      jump\t// in\n    tag_168:\n        /* \"#utility.yul\":4776:4806   */\n      swap1\n      pop\n        /* \"#utility.yul\":4815:4848   */\n      tag_169\n        /* \"#utility.yul\":4843:4847   */\n      dup3\n        /* \"#utility.yul\":4835:4841   */\n      dup3\n        /* \"#utility.yul\":4815:4848   */\n      tag_89\n      jump\t// in\n    tag_169:\n        /* \"#utility.yul\":4725:4854   */\n      swap2\n      swap1\n      pop\n      jump\t// out\n        /* \"#utility.yul\":4860:5168   */\n    tag_91:\n        /* \"#utility.yul\":4922:4926   */\n      0x00\n        /* \"#utility.yul\":5012:5030   */\n      0xffffffffffffffff\n        /* \"#utility.yul\":5004:5010   */\n      dup3\n        /* \"#utility.yul\":5001:5031   */\n      gt\n        /* \"#utility.yul\":4998:5054   */\n      iszero\n      tag_171\n      jumpi\n        /* \"#utility.yul\":5034:5052   */\n      tag_172\n      tag_88\n      jump\t// in\n    tag_172:\n        /* \"#utility.yul\":4998:5054   */\n    tag_171:\n        /* \"#utility.yul\":5072:5101   */\n      tag_173\n        /* \"#utility.yul\":5094:5100   */\n      dup3\n        /* \"#utility.yul\":5072:5101   */\n      tag_80\n      jump\t// in\n    tag_173:\n        /* \"#utility.yul\":5064:5101   */\n      swap1\n      pop\n        /* \"#utility.yul\":5156:5160   */\n      0x20\n        /* \"#utility.yul\":5150:5154   */\n      dup2\n        /* \"#utility.yul\":5146:5161   */\n      add\n        /* \"#utility.yul\":5138:5161   */\n      swap1\n      pop\n        /* \"#utility.yul\":4860:5168   */\n      swap2\n      swap1\n      pop\n      jump\t// out\n        /* \"#utility.yul\":5174:5322   */\n    tag_92:\n        /* \"#utility.yul\":5272:5278   */\n      dup3\n        /* \"#utility.yul\":5267:5270   */\n      dup2\n        /* \"#utility.yul\":5262:5265   */\n      dup4\n        /* \"#utility.yul\":5249:5279   */\n      calldatacopy\n        /* \"#utility.yul\":5313:5314   */\n      0x00\n        /* \"#utility.yul\":5304:5310   */\n      dup4\n        /* \"#utility.yul\":5299:5302   */\n      dup4\n        /* \"#utility.yul\":5295:5311   */\n      add\n        /* \"#utility.yul\":5288:5315   */\n      mstore\n        /* \"#utility.yul\":5174:5322   */\n      pop\n      pop\n      pop\n      jump\t// out\n        /* \"#utility.yul\":5328:5753   */\n    tag_93:\n        /* \"#utility.yul\":5406:5411   */\n      0x00\n        /* \"#utility.yul\":5431:5497   */\n      tag_176\n        /* \"#utility.yul\":5447:5496   */\n      tag_177\n        /* \"#utility.yul\":5489:5495   */\n      dup5\n        /* \"#utility.yul\":5447:5496   */\n      tag_91\n      jump\t// in\n    tag_177:\n        /* \"#utility.yul\":5431:5497   */\n      tag_90\n      jump\t// in\n    tag_176:\n        /* \"#utility.yul\":5422:5497   */\n      swap1\n      pop\n        /* \"#utility.yul\":5520:5526   */\n      dup3\n        /* \"#utility.yul\":5513:5518   */\n      dup2\n        /* \"#utility.yul\":5506:5527   */\n      mstore\n        /* \"#utility.yul\":5558:5562   */\n      0x20\n        /* \"#utility.yul\":5551:5556   */\n      dup2\n        /* \"#utility.yul\":5547:5563   */\n      add\n        /* \"#utility.yul\":5596:5599   */\n      dup5\n        /* \"#utility.yul\":5587:5593   */\n      dup5\n        /* \"#utility.yul\":5582:5585   */\n      dup5\n        /* \"#utility.yul\":5578:5594   */\n      add\n        /* \"#utility.yul\":5575:5600   */\n      gt\n        /* \"#utility.yul\":5572:5684   */\n      iszero\n      tag_178\n      jumpi\n        /* \"#utility.yul\":5603:5682   */\n      tag_179\n      tag_87\n      jump\t// in\n    tag_179:\n        /* \"#utility.yul\":5572:5684   */\n    tag_178:\n        /* \"#utility.yul\":5693:5747   */\n      tag_180\n        /* \"#utility.yul\":5740:5746   */\n      dup5\n        /* \"#utility.yul\":5735:5738   */\n      dup3\n        /* \"#utility.yul\":5730:5733   */\n      dup6\n        /* \"#utility.yul\":5693:5747   */\n      tag_92\n      jump\t// in\n    tag_180:\n        /* \"#utility.yul\":5412:5753   */\n      pop\n        /* \"#utility.yul\":5328:5753   */\n      swap4\n      swap3\n      pop\n      pop\n      pop\n      jump\t// out\n        /* \"#utility.yul\":5773:6113   */\n    tag_94:\n        /* \"#utility.yul\":5829:5834   */\n      0x00\n        /* \"#utility.yul\":5878:5881   */\n      dup3\n        /* \"#utility.yul\":5871:5875   */\n      0x1f\n        /* \"#utility.yul\":5863:5869   */\n      dup4\n        /* \"#utility.yul\":5859:5876   */\n      add\n        /* \"#utility.yul\":5855:5882   */\n      slt\n        /* \"#utility.yul\":5845:5967   */\n      tag_182\n      jumpi\n        /* \"#utility.yul\":5886:5965   */\n      tag_183\n      tag_86\n      jump\t// in\n    tag_183:\n        /* \"#utility.yul\":5845:5967   */\n    tag_182:\n        /* \"#utility.yul\":6003:6009   */\n      dup2\n        /* \"#utility.yul\":5990:6010   */\n      calldataload\n        /* \"#utility.yul\":6028:6107   */\n      tag_184\n        /* \"#utility.yul\":6103:6106   */\n      dup5\n        /* \"#utility.yul\":6095:6101   */\n      dup3\n        /* \"#utility.yul\":6088:6092   */\n      0x20\n        /* \"#utility.yul\":6080:6086   */\n      dup7\n        /* \"#utility.yul\":6076:6093   */\n      add\n        /* \"#utility.yul\":6028:6107   */\n      tag_93\n      jump\t// in\n    tag_184:\n        /* \"#utility.yul\":6019:6107   */\n      swap2\n      pop\n        /* \"#utility.yul\":5835:6113   */\n      pop\n        /* \"#utility.yul\":5773:6113   */\n      swap3\n      swap2\n      pop\n      pop\n      jump\t// out\n        /* \"#utility.yul\":6119:6773   */\n    tag_19:\n        /* \"#utility.yul\":6197:6203   */\n      0x00\n        /* \"#utility.yul\":6205:6211   */\n      dup1\n        /* \"#utility.yul\":6254:6256   */\n      0x40\n        /* \"#utility.yul\":6242:6251   */\n      dup4\n        /* \"#utility.yul\":6233:6240   */\n      dup6\n        /* \"#utility.yul\":6229:6252   */\n      sub\n        /* \"#utility.yul\":6225:6257   */\n      slt\n        /* \"#utility.yul\":6222:6341   */\n      iszero\n      tag_186\n      jumpi\n        /* \"#utility.yul\":6260:6339   */\n      tag_187\n      tag_68\n      jump\t// in\n    tag_187:\n        /* \"#utility.yul\":6222:6341   */\n    tag_186:\n        /* \"#utility.yul\":6380:6381   */\n      0x00\n        /* \"#utility.yul\":6405:6458   */\n      tag_188\n        /* \"#utility.yul\":6450:6457   */\n      dup6\n        /* \"#utility.yul\":6441:6447   */\n      dup3\n        /* \"#utility.yul\":6430:6439   */\n      dup7\n        /* \"#utility.yul\":6426:6448   */\n      add\n        /* \"#utility.yul\":6405:6458   */\n      tag_72\n      jump\t// in\n    tag_188:\n        /* \"#utility.yul\":6395:6458   */\n      swap3\n      pop\n        /* \"#utility.yul\":6351:6468   */\n      pop\n        /* \"#utility.yul\":6535:6537   */\n      0x20\n        /* \"#utility.yul\":6524:6533   */\n      dup4\n        /* \"#utility.yul\":6520:6538   */\n      add\n        /* \"#utility.yul\":6507:6539   */\n      calldataload\n        /* \"#utility.yul\":6566:6584   */\n      0xffffffffffffffff\n        /* \"#utility.yul\":6558:6564   */\n      dup2\n        /* \"#utility.yul\":6555:6585   */\n      gt\n        /* \"#utility.yul\":6552:6669   */\n      iszero\n      tag_189\n      jumpi\n        /* \"#utility.yul\":6588:6667   */\n      tag_190\n      tag_69\n      jump\t// in\n    tag_190:\n        /* \"#utility.yul\":6552:6669   */\n    tag_189:\n        /* \"#utility.yul\":6693:6756   */\n      tag_191\n        /* \"#utility.yul\":6748:6755   */\n      dup6\n        /* \"#utility.yul\":6739:6745   */\n      dup3\n        /* \"#utility.yul\":6728:6737   */\n      dup7\n        /* \"#utility.yul\":6724:6746   */\n      add\n        /* \"#utility.yul\":6693:6756   */\n      tag_94\n      jump\t// in\n    tag_191:\n        /* \"#utility.yul\":6683:6756   */\n      swap2\n      pop\n        /* \"#utility.yul\":6478:6766   */\n      pop\n        /* \"#utility.yul\":6119:6773   */\n      swap3\n      pop\n      swap3\n      swap1\n      pop\n      jump\t// out\n        /* \"#utility.yul\":6779:7001   */\n    tag_24:\n        /* \"#utility.yul\":6872:6876   */\n      0x00\n        /* \"#utility.yul\":6910:6912   */\n      0x20\n        /* \"#utility.yul\":6899:6908   */\n      dup3\n        /* \"#utility.yul\":6895:6913   */\n      add\n        /* \"#utility.yul\":6887:6913   */\n      swap1\n      pop\n        /* \"#utility.yul\":6923:6994   */\n      tag_193\n        /* \"#utility.yul\":6991:6992   */\n      0x00\n        /* \"#utility.yul\":6980:6989   */\n      dup4\n        /* \"#utility.yul\":6976:6993   */\n      add\n        /* \"#utility.yul\":6967:6973   */\n      dup5\n        /* \"#utility.yul\":6923:6994   */\n      tag_73\n      jump\t// in\n    tag_193:\n        /* \"#utility.yul\":6779:7001   */\n      swap3\n      swap2\n      pop\n      pop\n      jump\t// out\n        /* \"#utility.yul\":7007:7230   */\n    tag_95:\n        /* \"#utility.yul\":7147:7181   */\n      0x4469737075746520616c7265616479207265736f6c766564206f722072656a65\n        /* \"#utility.yul\":7143:7144   */\n      0x00\n        /* \"#utility.yul\":7135:7141   */\n      dup3\n        /* \"#utility.yul\":7131:7145   */\n      add\n        /* \"#utility.yul\":7124:7182   */\n      mstore\n        /* \"#utility.yul\":7216:7222   */\n      0x6374656400000000000000000000000000000000000000000000000000000000\n        /* \"#utility.yul\":7211:7213   */\n      0x20\n        /* \"#utility.yul\":7203:7209   */\n      dup3\n        /* \"#utility.yul\":7199:7214   */\n      add\n        /* \"#utility.yul\":7192:7223   */\n      mstore\n        /* \"#utility.yul\":7007:7230   */\n      pop\n      jump\t// out\n        /* \"#utility.yul\":7236:7602   */\n    tag_96:\n        /* \"#utility.yul\":7378:7381   */\n      0x00\n        /* \"#utility.yul\":7399:7466   */\n      tag_196\n        /* \"#utility.yul\":7463:7465   */\n      0x24\n        /* \"#utility.yul\":7458:7461   */\n      dup4\n        /* \"#utility.yul\":7399:7466   */\n      tag_78\n      jump\t// in\n    tag_196:\n        /* \"#utility.yul\":7392:7466   */\n      swap2\n      pop\n        /* \"#utility.yul\":7475:7568   */\n      tag_197\n        /* \"#utility.yul\":7564:7567   */\n      dup3\n        /* \"#utility.yul\":7475:7568   */\n      tag_95\n      jump\t// in\n    tag_197:\n        /* \"#utility.yul\":7593:7595   */\n      0x40\n        /* \"#utility.yul\":7588:7591   */\n      dup3\n        /* \"#utility.yul\":7584:7596   */\n      add\n        /* \"#utility.yul\":7577:7596   */\n      swap1\n      pop\n        /* \"#utility.yul\":7236:7602   */\n      swap2\n      swap1\n      pop\n      jump\t// out\n        /* \"#utility.yul\":7608:8027   */\n    tag_36:\n        /* \"#utility.yul\":7774:7778   */\n      0x00\n        /* \"#utility.yul\":7812:7814   */\n      0x20\n        /* \"#utility.yul\":7801:7810   */\n      dup3\n        /* \"#utility.yul\":7797:7815   */\n      add\n        /* \"#utility.yul\":7789:7815   */\n      swap1\n      pop\n        /* \"#utility.yul\":7861:7870   */\n      dup2\n        /* \"#utility.yul\":7855:7859   */\n      dup2\n        /* \"#utility.yul\":7851:7871   */\n      sub\n        /* \"#utility.yul\":7847:7848   */\n      0x00\n        /* \"#utility.yul\":7836:7845   */\n      dup4\n        /* \"#utility.yul\":7832:7849   */\n      add\n        /* \"#utility.yul\":7825:7872   */\n      mstore\n        /* \"#utility.yul\":7889:8020   */\n      tag_199\n        /* \"#utility.yul\":8015:8019   */\n      dup2\n        /* \"#utility.yul\":7889:8020   */\n      tag_96\n      jump\t// in\n    tag_199:\n        /* \"#utility.yul\":7881:8020   */\n      swap1\n      pop\n        /* \"#utility.yul\":7608:8027   */\n      swap2\n      swap1\n      pop\n      jump\t// out\n        /* \"#utility.yul\":8033:8213   */\n    tag_97:\n        /* \"#utility.yul\":8081:8158   */\n      0x4e487b7100000000000000000000000000000000000000000000000000000000\n        /* \"#utility.yul\":8078:8079   */\n      0x00\n        /* \"#utility.yul\":8071:8159   */\n      mstore\n        /* \"#utility.yul\":8178:8182   */\n      0x22\n        /* \"#utility.yul\":8175:8176   */\n      0x04\n        /* \"#utility.yul\":8168:8183   */\n      mstore\n        /* \"#utility.yul\":8202:8206   */\n      0x24\n        /* \"#utility.yul\":8199:8200   */\n      0x00\n        /* \"#utility.yul\":8192:8207   */\n      revert\n        /* \"#utility.yul\":8219:8539   */\n    tag_41:\n        /* \"#utility.yul\":8263:8269   */\n      0x00\n        /* \"#utility.yul\":8300:8301   */\n      0x02\n        /* \"#utility.yul\":8294:8298   */\n      dup3\n        /* \"#utility.yul\":8290:8302   */\n      div\n        /* \"#utility.yul\":8280:8302   */\n      swap1\n      pop\n        /* \"#utility.yul\":8347:8348   */\n      0x01\n        /* \"#utility.yul\":8341:8345   */\n      dup3\n        /* \"#utility.yul\":8337:8349   */\n      and\n        /* \"#utility.yul\":8368:8386   */\n      dup1\n        /* \"#utility.yul\":8358:8439   */\n      tag_202\n      jumpi\n        /* \"#utility.yul\":8424:8428   */\n      0x7f\n        /* \"#utility.yul\":8416:8422   */\n      dup3\n        /* \"#utility.yul\":8412:8429   */\n      and\n        /* \"#utility.yul\":8402:8429   */\n      swap2\n      pop\n        /* \"#utility.yul\":8358:8439   */\n    tag_202:\n        /* \"#utility.yul\":8486:8488   */\n      0x20\n        /* \"#utility.yul\":8478:8484   */\n      dup3\n        /* \"#utility.yul\":8475:8489   */\n      lt\n        /* \"#utility.yul\":8455:8473   */\n      dup2\n        /* \"#utility.yul\":8452:8490   */\n      sub\n        /* \"#utility.yul\":8449:8533   */\n      tag_203\n      jumpi\n        /* \"#utility.yul\":8505:8523   */\n      tag_204\n      tag_97\n      jump\t// in\n    tag_204:\n        /* \"#utility.yul\":8449:8533   */\n    tag_203:\n        /* \"#utility.yul\":8270:8539   */\n      pop\n        /* \"#utility.yul\":8219:8539   */\n      swap2\n      swap1\n      pop\n      jump\t// out\n        /* \"#utility.yul\":8545:8725   */\n    tag_98:\n        /* \"#utility.yul\":8593:8670   */\n      0x4e487b7100000000000000000000000000000000000000000000000000000000\n        /* \"#utility.yul\":8590:8591   */\n      0x00\n        /* \"#utility.yul\":8583:8671   */\n      mstore\n        /* \"#utility.yul\":8690:8694   */\n      0x11\n        /* \"#utility.yul\":8687:8688   */\n      0x04\n        /* \"#utility.yul\":8680:8695   */\n      mstore\n        /* \"#utility.yul\":8714:8718   */\n      0x24\n        /* \"#utility.yul\":8711:8712   */\n      0x00\n        /* \"#utility.yul\":8704:8719   */\n      revert\n        /* \"#utility.yul\":8731:8964   */\n    tag_48:\n        /* \"#utility.yul\":8770:8773   */\n      0x00\n        /* \"#utility.yul\":8793:8817   */\n      tag_207\n        /* \"#utility.yul\":8811:8816   */\n      dup3\n        /* \"#utility.yul\":8793:8817   */\n      tag_70\n      jump\t// in\n    tag_207:\n        /* \"#utility.yul\":8784:8817   */\n      swap2\n      pop\n        /* \"#utility.yul\":8839:8905   */\n      0xffffffffffffffffffffffffffffffffffffffffffffffffffffffffffffffff\n        /* \"#utility.yul\":8832:8837   */\n      dup3\n        /* \"#utility.yul\":8829:8906   */\n      sub\n        /* \"#utility.yul\":8826:8929   */\n      tag_208\n      jumpi\n        /* \"#utility.yul\":8909:8927   */\n      tag_209\n      tag_98\n      jump\t// in\n    tag_209:\n        /* \"#utility.yul\":8826:8929   */\n    tag_208:\n        /* \"#utility.yul\":8956:8957   */\n      0x01\n        /* \"#utility.yul\":8949:8954   */\n      dup3\n        /* \"#utility.yul\":8945:8958   */\n      add\n        /* \"#utility.yul\":8938:8958   */\n      swap1\n      pop\n        /* \"#utility.yul\":8731:8964   */\n      swap2\n      swap1\n      pop\n      jump\t// out\n        /* \"#utility.yul\":8970:9111   */\n    tag_99:\n        /* \"#utility.yul\":9019:9023   */\n      0x00\n        /* \"#utility.yul\":9042:9045   */\n      dup2\n        /* \"#utility.yul\":9034:9045   */\n      swap1\n      pop\n        /* \"#utility.yul\":9065:9068   */\n      dup2\n        /* \"#utility.yul\":9062:9063   */\n      0x00\n        /* \"#utility.yul\":9055:9069   */\n      mstore\n        /* \"#utility.yul\":9099:9103   */\n      0x20\n        /* \"#utility.yul\":9096:9097   */\n      0x00\n        /* \"#utility.yul\":9086:9104   */\n      keccak256\n        /* \"#utility.yul\":9078:9104   */\n      swap1\n      pop\n        /* \"#utility.yul\":8970:9111   */\n      swap2\n      swap1\n      pop\n      jump\t// out\n        /* \"#utility.yul\":9117:9210   */\n    tag_100:\n        /* \"#utility.yul\":9154:9160   */\n      0x00\n        /* \"#utility.yul\":9201:9203   */\n      0x20\n        /* \"#utility.yul\":9196:9198   */\n      0x1f\n        /* \"#utility.yul\":9189:9194   */\n      dup4\n        /* \"#utility.yul\":9185:9199   */\n      add\n        /* \"#utility.yul\":9181:9204   */\n      div\n        /* \"#utility.yul\":9171:9204   */\n      swap1\n      pop\n        /* \"#utility.yul\":9117:9210   */\n      swap2\n      swap1\n      pop\n      jump\t// out\n        /* \"#utility.yul\":9216:9323   */\n    tag_101:\n        /* \"#utility.yul\":9260:9268   */\n      0x00\n        /* \"#utility.yul\":9310:9315   */\n      dup3\n        /* \"#utility.yul\":9304:9308   */\n      dup3\n        /* \"#utility.yul\":9300:9316   */\n      shl\n        /* \"#utility.yul\":9279:9316   */\n      swap1\n      pop\n        /* \"#utility.yul\":9216:9323   */\n      swap3\n      swap2\n      pop\n      pop\n      jump\t// out\n        /* \"#utility.yul\":9329:9722   */\n    tag_102:\n        /* \"#utility.yul\":9398:9404   */\n      0x00\n        /* \"#utility.yul\":9448:9449   */\n      0x08\n        /* \"#utility.yul\":9436:9446   */\n      dup4\n        /* \"#utility.yul\":9432:9450   */\n      mul\n        /* \"#utility.yul\":9471:9568   */\n      tag_214\n        /* \"#utility.yul\":9501:9567   */\n      0xffffffffffffffffffffffffffffffffffffffffffffffffffffffffffffffff\n        /* \"#utility.yul\":9490:9499   */\n      dup3\n        /* \"#utility.yul\":9471:9568   */\n      tag_101\n      jump\t// in\n    tag_214:\n        /* \"#utility.yul\":9589:9628   */\n      tag_215\n        /* \"#utility.yul\":9619:9627   */\n      dup7\n        /* \"#utility.yul\":9608:9617   */\n      dup4\n        /* \"#utility.yul\":9589:9628   */\n      tag_101\n      jump\t// in\n    tag_215:\n        /* \"#utility.yul\":9577:9628   */\n      swap6\n      pop\n        /* \"#utility.yul\":9661:9665   */\n      dup1\n        /* \"#utility.yul\":9657:9666   */\n      not\n        /* \"#utility.yul\":9650:9655   */\n      dup5\n        /* \"#utility.yul\":9646:9667   */\n      and\n        /* \"#utility.yul\":9637:9667   */\n      swap4\n      pop\n        /* \"#utility.yul\":9710:9714   */\n      dup1\n        /* \"#utility.yul\":9700:9708   */\n      dup7\n        /* \"#utility.yul\":9696:9715   */\n      and\n        /* \"#utility.yul\":9689:9694   */\n      dup5\n        /* \"#utility.yul\":9686:9716   */\n      or\n        /* \"#utility.yul\":9676:9716   */\n      swap3\n      pop\n        /* \"#utility.yul\":9405:9722   */\n      pop\n      pop\n        /* \"#utility.yul\":9329:9722   */\n      swap4\n      swap3\n      pop\n      pop\n      pop\n      jump\t// out\n        /* \"#utility.yul\":9728:9788   */\n    tag_103:\n        /* \"#utility.yul\":9756:9759   */\n      0x00\n        /* \"#utility.yul\":9777:9782   */\n      dup2\n        /* \"#utility.yul\":9770:9782   */\n      swap1\n      pop\n        /* \"#utility.yul\":9728:9788   */\n      swap2\n      swap1\n      pop\n      jump\t// out\n        /* \"#utility.yul\":9794:9936   */\n    tag_104:\n        /* \"#utility.yul\":9844:9853   */\n      0x00\n        /* \"#utility.yul\":9877:9930   */\n      tag_218\n        /* \"#utility.yul\":9895:9929   */\n      tag_219\n        /* \"#utility.yul\":9904:9928   */\n      tag_220\n        /* \"#utility.yul\":9922:9927   */\n      dup5\n        /* \"#utility.yul\":9904:9928   */\n      tag_70\n      jump\t// in\n    tag_220:\n        /* \"#utility.yul\":9895:9929   */\n      tag_103\n      jump\t// in\n    tag_219:\n        /* \"#utility.yul\":9877:9930   */\n      tag_70\n      jump\t// in\n    tag_218:\n        /* \"#utility.yul\":9864:9930   */\n      swap1\n      pop\n        /* \"#utility.yul\":9794:9936   */\n      swap2\n      swap1\n      pop\n      jump\t// out\n        /* \"#utility.yul\":9942:10017   */\n    tag_105:\n        /* \"#utility.yul\":9985:9988   */\n      0x00\n        /* \"#utility.yul\":10006:10011   */\n      dup2\n        /* \"#utility.yul\":9999:10011   */\n      swap1\n      pop\n        /* \"#utility.yul\":9942:10017   */\n      swap2\n      swap1\n      pop\n      jump\t// out\n        /* \"#utility.yul\":10023:10292   */\n    tag_106:\n        /* \"#utility.yul\":10133:10172   */\n      tag_223\n        /* \"#utility.yul\":10164:10171   */\n      dup4\n        /* \"#utility.yul\":10133:10172   */\n      tag_104\n      jump\t// in\n    tag_223:\n        /* \"#utility.yul\":10194:10285   */\n      tag_224\n        /* \"#utility.yul\":10243:10284   */\n      tag_225\n        /* \"#utility.yul\":10267:10283   */\n      dup3\n        /* \"#utility.yul\":10243:10284   */\n      tag_105\n      jump\t// in\n    tag_225:\n        /* \"#utility.yul\":10235:10241   */\n      dup5\n        /* \"#utility.yul\":10228:10232   */\n      dup5\n        /* \"#utility.yul\":10222:10233   */\n      sload\n        /* \"#utility.yul\":10194:10285   */\n      tag_102\n      jump\t// in\n    tag_224:\n        /* \"#utility.yul\":10188:10192   */\n      dup3\n        /* \"#utility.yul\":10181:10286   */\n      sstore\n        /* \"#utility.yul\":10099:10292   */\n      pop\n        /* \"#utility.yul\":10023:10292   */\n      pop\n      pop\n      pop\n      jump\t// out\n        /* \"#utility.yul\":10298:10371   */\n    tag_107:\n        /* \"#utility.yul\":10343:10346   */\n      0x00\n        /* \"#utility.yul\":10298:10371   */\n      swap1\n      jump\t// out\n        /* \"#utility.yul\":10377:10566   */\n    tag_108:\n        /* \"#utility.yul\":10454:10486   */\n      tag_228\n      tag_107\n      jump\t// in\n    tag_228:\n        /* \"#utility.yul\":10495:10560   */\n      tag_229\n        /* \"#utility.yul\":10553:10559   */\n      dup2\n        /* \"#utility.yul\":10545:10551   */\n      dup5\n        /* \"#utility.yul\":10539:10543   */\n      dup5\n        /* \"#utility.yul\":10495:10560   */\n      tag_106\n      jump\t// in\n    tag_229:\n        /* \"#utility.yul\":10430:10566   */\n      pop\n        /* \"#utility.yul\":10377:10566   */\n      pop\n      pop\n      jump\t// out\n        /* \"#utility.yul\":10572:10758   */\n    tag_109:\n        /* \"#utility.yul\":10632:10752   */\n    tag_231:\n        /* \"#utility.yul\":10649:10652   */\n      dup2\n        /* \"#utility.yul\":10642:10647   */\n      dup2\n        /* \"#utility.yul\":10639:10653   */\n      lt\n        /* \"#utility.yul\":10632:10752   */\n      iszero\n      tag_233\n      jumpi\n        /* \"#utility.yul\":10703:10742   */\n      tag_234\n        /* \"#utility.yul\":10740:10741   */\n      0x00\n        /* \"#utility.yul\":10733:10738   */\n      dup3\n        /* \"#utility.yul\":10703:10742   */\n      tag_108\n      jump\t// in\n    tag_234:\n        /* \"#utility.yul\":10676:10677   */\n      0x01\n        /* \"#utility.yul\":10669:10674   */\n      dup2\n        /* \"#utility.yul\":10665:10678   */\n      add\n        /* \"#utility.yul\":10656:10678   */\n      swap1\n      pop\n        /* \"#utility.yul\":10632:10752   */\n      jump(tag_231)\n    tag_233:\n        /* \"#utility.yul\":10572:10758   */\n      pop\n      pop\n      jump\t// out\n        /* \"#utility.yul\":10764:11307   */\n    tag_110:\n        /* \"#utility.yul\":10865:10867   */\n      0x1f\n        /* \"#utility.yul\":10860:10863   */\n      dup3\n        /* \"#utility.yul\":10857:10868   */\n      gt\n        /* \"#utility.yul\":10854:11300   */\n      iszero\n      tag_236\n      jumpi\n        /* \"#utility.yul\":10899:10937   */\n      tag_237\n        /* \"#utility.yul\":10931:10936   */\n      dup2\n        /* \"#utility.yul\":10899:10937   */\n      tag_99\n      jump\t// in\n    tag_237:\n        /* \"#utility.yul\":10983:11012   */\n      tag_238\n        /* \"#utility.yul\":11001:11011   */\n      dup5\n        /* \"#utility.yul\":10983:11012   */\n      tag_100\n      jump\t// in\n    tag_238:\n        /* \"#utility.yul\":10973:10981   */\n      dup2\n        /* \"#utility.yul\":10969:11013   */\n      add\n        /* \"#utility.yul\":11166:11168   */\n      0x20\n        /* \"#utility.yul\":11154:11164   */\n      dup6\n        /* \"#utility.yul\":11151:11169   */\n      lt\n        /* \"#utility.yul\":11148:11197   */\n      iszero\n      tag_239\n      jumpi\n        /* \"#utility.yul\":11187:11195   */\n      dup2\n        /* \"#utility.yul\":11172:11195   */\n      swap1\n      pop\n        /* \"#utility.yul\":11148:11197   */\n    tag_239:\n        /* \"#utility.yul\":11210:11290   */\n      tag_240\n        /* \"#utility.yul\":11266:11288   */\n      tag_241\n        /* \"#utility.yul\":11284:11287   */\n      dup6\n        /* \"#utility.yul\":11266:11288   */\n      tag_100\n      jump\t// in\n    tag_241:\n        /* \"#utility.yul\":11256:11264   */\n      dup4\n        /* \"#utility.yul\":11252:11289   */\n      add\n        /* \"#utility.yul\":11239:11250   */\n      dup3\n        /* \"#utility.yul\":11210:11290   */\n      tag_109\n      jump\t// in\n    tag_240:\n        /* \"#utility.yul\":10869:11300   */\n      pop\n      pop\n        /* \"#utility.yul\":10854:11300   */\n    tag_236:\n        /* \"#utility.yul\":10764:11307   */\n      pop\n      pop\n      pop\n      jump\t// out\n        /* \"#utility.yul\":11313:11430   */\n    tag_111:\n        /* \"#utility.yul\":11367:11375   */\n      0x00\n        /* \"#utility.yul\":11417:11422   */\n      dup3\n        /* \"#utility.yul\":11411:11415   */\n      dup3\n        /* \"#utility.yul\":11407:11423   */\n      shr\n        /* \"#utility.yul\":11386:11423   */\n      swap1\n      pop\n        /* \"#utility.yul\":11313:11430   */\n      swap3\n      swap2\n      pop\n      pop\n      jump\t// out\n        /* \"#utility.yul\":11436:11605   */\n    tag_112:\n        /* \"#utility.yul\":11480:11486   */\n      0x00\n        /* \"#utility.yul\":11513:11564   */\n      tag_244\n        /* \"#utility.yul\":11561:11562   */\n      0x00\n        /* \"#utility.yul\":11557:11563   */\n      not\n        /* \"#utility.yul\":11549:11554   */\n      dup5\n        /* \"#utility.yul\":11546:11547   */\n      0x08\n        /* \"#utility.yul\":11542:11555   */\n      mul\n        /* \"#utility.yul\":11513:11564   */\n      tag_111\n      jump\t// in\n    tag_244:\n        /* \"#utility.yul\":11509:11565   */\n      not\n        /* \"#utility.yul\":11594:11598   */\n      dup1\n        /* \"#utility.yul\":11588:11592   */\n      dup4\n        /* \"#utility.yul\":11584:11599   */\n      and\n        /* \"#utility.yul\":11574:11599   */\n      swap2\n      pop\n        /* \"#utility.yul\":11487:11605   */\n      pop\n        /* \"#utility.yul\":11436:11605   */\n      swap3\n      swap2\n      pop\n      pop\n      jump\t// out\n        /* \"#utility.yul\":11610:11905   */\n    tag_113:\n        /* \"#utility.yul\":11686:11690   */\n      0x00\n        /* \"#utility.yul\":11832:11861   */\n      tag_246\n        /* \"#utility.yul\":11857:11860   */\n      dup4\n        /* \"#utility.yul\":11851:11855   */\n      dup4\n        /* \"#utility.yul\":11832:11861   */\n      tag_112\n      jump\t// in\n    tag_246:\n        /* \"#utility.yul\":11824:11861   */\n      swap2\n      pop\n        /* \"#utility.yul\":11894:11897   */\n      dup3\n        /* \"#utility.yul\":11891:11892   */\n      0x02\n        /* \"#utility.yul\":11887:11898   */\n      mul\n        /* \"#utility.yul\":11881:11885   */\n      dup3\n        /* \"#utility.yul\":11878:11899   */\n      or\n        /* \"#utility.yul\":11870:11899   */\n      swap1\n      pop\n        /* \"#utility.yul\":11610:11905   */\n      swap3\n      swap2\n      pop\n      pop\n      jump\t// out\n        /* \"#utility.yul\":11910:13305   */\n    tag_52:\n        /* \"#utility.yul\":12027:12064   */\n      tag_248\n        /* \"#utility.yul\":12060:12063   */\n      dup3\n        /* \"#utility.yul\":12027:12064   */\n      tag_77\n      jump\t// in\n    tag_248:\n        /* \"#utility.yul\":12129:12147   */\n      0xffffffffffffffff\n        /* \"#utility.yul\":12121:12127   */\n      dup2\n        /* \"#utility.yul\":12118:12148   */\n      gt\n        /* \"#utility.yul\":12115:12171   */\n      iszero\n      tag_249\n      jumpi\n        /* \"#utility.yul\":12151:12169   */\n      tag_250\n      tag_88\n      jump\t// in\n    tag_250:\n        /* \"#utility.yul\":12115:12171   */\n    tag_249:\n        /* \"#utility.yul\":12195:12233   */\n      tag_251\n        /* \"#utility.yul\":12227:12231   */\n      dup3\n        /* \"#utility.yul\":12221:12232   */\n      sload\n        /* \"#utility.yul\":12195:12233   */\n      tag_41\n      jump\t// in\n    tag_251:\n        /* \"#utility.yul\":12280:12347   */\n      tag_252\n        /* \"#utility.yul\":12340:12346   */\n      dup3\n        /* \"#utility.yul\":12332:12338   */\n      dup3\n        /* \"#utility.yul\":12326:12330   */\n      dup6\n        /* \"#utility.yul\":12280:12347   */\n      tag_110\n      jump\t// in\n    tag_252:\n        /* \"#utility.yul\":12374:12375   */\n      0x00\n        /* \"#utility.yul\":12398:12402   */\n      0x20\n        /* \"#utility.yul\":12385:12402   */\n      swap1\n      pop\n        /* \"#utility.yul\":12430:12432   */\n      0x1f\n        /* \"#utility.yul\":12422:12428   */\n      dup4\n        /* \"#utility.yul\":12419:12433   */\n      gt\n        /* \"#utility.yul\":12447:12448   */\n      0x01\n        /* \"#utility.yul\":12442:13060   */\n      dup2\n      eq\n      tag_254\n      jumpi\n        /* \"#utility.yul\":13104:13105   */\n      0x00\n        /* \"#utility.yul\":13121:13127   */\n      dup5\n        /* \"#utility.yul\":13118:13195   */\n      iszero\n      tag_255\n      jumpi\n        /* \"#utility.yul\":13170:13179   */\n      dup3\n        /* \"#utility.yul\":13165:13168   */\n      dup8\n        /* \"#utility.yul\":13161:13180   */\n      add\n        /* \"#utility.yul\":13155:13181   */\n      mload\n        /* \"#utility.yul\":13146:13181   */\n      swap1\n      pop\n        /* \"#utility.yul\":13118:13195   */\n    tag_255:\n        /* \"#utility.yul\":13221:13288   */\n      tag_256\n        /* \"#utility.yul\":13281:13287   */\n      dup6\n        /* \"#utility.yul\":13274:13279   */\n      dup3\n        /* \"#utility.yul\":13221:13288   */\n      tag_113\n      jump\t// in\n    tag_256:\n        /* \"#utility.yul\":13215:13219   */\n      dup7\n        /* \"#utility.yul\":13208:13289   */\n      sstore\n        /* \"#utility.yul\":13077:13299   */\n      pop\n        /* \"#utility.yul\":12412:13299   */\n      jump(tag_253)\n        /* \"#utility.yul\":12442:13060   */\n    tag_254:\n        /* \"#utility.yul\":12494:12498   */\n      0x1f\n        /* \"#utility.yul\":12490:12499   */\n      not\n        /* \"#utility.yul\":12482:12488   */\n      dup5\n        /* \"#utility.yul\":12478:12500   */\n      and\n        /* \"#utility.yul\":12528:12565   */\n      tag_257\n        /* \"#utility.yul\":12560:12564   */\n      dup7\n        /* \"#utility.yul\":12528:12565   */\n      tag_99\n      jump\t// in\n    tag_257:\n        /* \"#utility.yul\":12587:12588   */\n      0x00\n        /* \"#utility.yul\":12601:12809   */\n    tag_258:\n        /* \"#utility.yul\":12615:12622   */\n      dup3\n        /* \"#utility.yul\":12612:12613   */\n      dup2\n        /* \"#utility.yul\":12609:12623   */\n      lt\n        /* \"#utility.yul\":12601:12809   */\n      iszero\n      tag_260\n      jumpi\n        /* \"#utility.yul\":12694:12703   */\n      dup5\n        /* \"#utility.yul\":12689:12692   */\n      dup10\n        /* \"#utility.yul\":12685:12704   */\n      add\n        /* \"#utility.yul\":12679:12705   */\n      mload\n        /* \"#utility.yul\":12671:12677   */\n      dup3\n        /* \"#utility.yul\":12664:12706   */\n      sstore\n        /* \"#utility.yul\":12745:12746   */\n      0x01\n        /* \"#utility.yul\":12737:12743   */\n      dup3\n        /* \"#utility.yul\":12733:12747   */\n      add\n        /* \"#utility.yul\":12723:12747   */\n      swap2\n      pop\n        /* \"#utility.yul\":12792:12794   */\n      0x20\n        /* \"#utility.yul\":12781:12790   */\n      dup6\n        /* \"#utility.yul\":12777:12795   */\n      add\n        /* \"#utility.yul\":12764:12795   */\n      swap5\n      pop\n        /* \"#utility.yul\":12638:12642   */\n      0x20\n        /* \"#utility.yul\":12635:12636   */\n      dup2\n        /* \"#utility.yul\":12631:12643   */\n      add\n        /* \"#utility.yul\":12626:12643   */\n      swap1\n      pop\n        /* \"#utility.yul\":12601:12809   */\n      jump(tag_258)\n    tag_260:\n        /* \"#utility.yul\":12837:12843   */\n      dup7\n        /* \"#utility.yul\":12828:12835   */\n      dup4\n        /* \"#utility.yul\":12825:12844   */\n      lt\n        /* \"#utility.yul\":12822:13001   */\n      iszero\n      tag_261\n      jumpi\n        /* \"#utility.yul\":12895:12904   */\n      dup5\n        /* \"#utility.yul\":12890:12893   */\n      dup10\n        /* \"#utility.yul\":12886:12905   */\n      add\n        /* \"#utility.yul\":12880:12906   */\n      mload\n        /* \"#utility.yul\":12938:12986   */\n      tag_262\n        /* \"#utility.yul\":12980:12984   */\n      0x1f\n        /* \"#utility.yul\":12972:12978   */\n      dup10\n        /* \"#utility.yul\":12968:12985   */\n      and\n        /* \"#utility.yul\":12957:12966   */\n      dup3\n        /* \"#utility.yul\":12938:12986   */\n      tag_112\n      jump\t// in\n    tag_262:\n        /* \"#utility.yul\":12930:12936   */\n      dup4\n        /* \"#utility.yul\":12923:12987   */\n      sstore\n        /* \"#utility.yul\":12845:13001   */\n      pop\n        /* \"#utility.yul\":12822:13001   */\n    tag_261:\n        /* \"#utility.yul\":13047:13048   */\n      0x01\n        /* \"#utility.yul\":13043:13044   */\n      0x02\n        /* \"#utility.yul\":13035:13041   */\n      dup9\n        /* \"#utility.yul\":13031:13045   */\n      mul\n        /* \"#utility.yul\":13027:13049   */\n      add\n        /* \"#utility.yul\":13021:13025   */\n      dup9\n        /* \"#utility.yul\":13014:13050   */\n      sstore\n        /* \"#utility.yul\":12449:13060   */\n      pop\n      pop\n      pop\n        /* \"#utility.yul\":12412:13299   */\n    tag_253:\n      pop\n        /* \"#utility.yul\":12002:13305   */\n      pop\n      pop\n      pop\n        /* \"#utility.yul\":11910:13305   */\n      pop\n      pop\n      jump\t// out\n        /* \"#utility.yul\":13311:13955   */\n    tag_56:\n        /* \"#utility.yul\":13508:13512   */\n      0x00\n        /* \"#utility.yul\":13546:13549   */\n      0x80\n        /* \"#utility.yul\":13535:13544   */\n      dup3\n        /* \"#utility.yul\":13531:13550   */\n      add\n        /* \"#utility.yul\":13523:13550   */\n      swap1\n      pop\n        /* \"#utility.yul\":13560:13631   */\n      tag_264\n        /* \"#utility.yul\":13628:13629   */\n      0x00\n        /* \"#utility.yul\":13617:13626   */\n      dup4\n        /* \"#utility.yul\":13613:13630   */\n      add\n        /* \"#utility.yul\":13604:13610   */\n      dup8\n        /* \"#utility.yul\":13560:13631   */\n      tag_73\n      jump\t// in\n    tag_264:\n        /* \"#utility.yul\":13641:13713   */\n      tag_265\n        /* \"#utility.yul\":13709:13711   */\n      0x20\n        /* \"#utility.yul\":13698:13707   */\n      dup4\n        /* \"#utility.yul\":13694:13712   */\n      add\n        /* \"#utility.yul\":13685:13691   */\n      dup7\n        /* \"#utility.yul\":13641:13713   */\n      tag_73\n      jump\t// in\n    tag_265:\n        /* \"#utility.yul\":13723:13795   */\n      tag_266\n        /* \"#utility.yul\":13791:13793   */\n      0x40\n        /* \"#utility.yul\":13780:13789   */\n      dup4\n        /* \"#utility.yul\":13776:13794   */\n      add\n        /* \"#utility.yul\":13767:13773   */\n      dup6\n        /* \"#utility.yul\":13723:13795   */\n      tag_76\n      jump\t// in\n    tag_266:\n        /* \"#utility.yul\":13842:13851   */\n      dup2\n        /* \"#utility.yul\":13836:13840   */\n      dup2\n        /* \"#utility.yul\":13832:13852   */\n      sub\n        /* \"#utility.yul\":13827:13829   */\n      0x60\n        /* \"#utility.yul\":13816:13825   */\n      dup4\n        /* \"#utility.yul\":13812:13830   */\n      add\n        /* \"#utility.yul\":13805:13853   */\n      mstore\n        /* \"#utility.yul\":13870:13948   */\n      tag_267\n        /* \"#utility.yul\":13943:13947   */\n      dup2\n        /* \"#utility.yul\":13934:13940   */\n      dup5\n        /* \"#utility.yul\":13870:13948   */\n      tag_81\n      jump\t// in\n    tag_267:\n        /* \"#utility.yul\":13862:13948   */\n      swap1\n      pop\n        /* \"#utility.yul\":13311:13955   */\n      swap6\n      swap5\n      pop\n      pop\n      pop\n      pop\n      pop\n      jump\t// out\n\n    auxdata: 0xa2646970667358221220091f550647552e363015a845e4ec44ab3c3686202de2206681892c614a7108a564736f6c63430008190033\n}\n",
				"bytecode": {
					"linkReferences": {},
					"object": "6080604052348015600e575f80fd5b50610d068061001c5f395ff3fe608060405234801561000f575f80fd5b5060043610610055575f3560e01c80632d4fd9dd14610059578063564a565d146100755780638243af1d146100a9578063a28889e1146100c5578063c2b7b868146100e3575b5f80fd5b610073600480360381019061006e9190610568565b6100ff565b005b61008f600480360381019061008a9190610568565b6101ef565b6040516100a09594939291906106c4565b60405180910390f35b6100c360048036038101906100be9190610848565b6102d1565b005b6100cd61042e565b6040516100da91906108a2565b60405180910390f35b6100fd60048036038101906100f89190610568565b610434565b005b5f805f8381526020019081526020015f2090505f600281111561012557610124610651565b5b816004015f9054906101000a900460ff16600281111561014857610147610651565b5b14610188576040517f08c379a000000000000000000000000000000000000000000000000000000000815260040161017f9061092b565b60405180910390fd5b6002816004015f6101000a81548160ff021916908360028111156101af576101ae610651565b5b02179055507f0a2cb862ce5c541e4371903a6724398d5a73ece63c483ad33ba1797cbc635318826040516101e391906108a2565b60405180910390a15050565b5f602052805f5260405f205f91509050805f015490806001015490806002015f9054906101000a900473ffffffffffffffffffffffffffffffffffffffff169080600301805461023e90610976565b80601f016020809104026020016040519081016040528092919081815260200182805461026a90610976565b80156102b55780601f1061028c576101008083540402835291602001916102b5565b820191905f5260205f20905b81548152906001019060200180831161029857829003601f168201915b505050505090806004015f9054906101000a900460ff16905085565b60015f8154809291906102e3906109d3565b91905055506040518060a0016040528060015481526020018381526020013373ffffffffffffffffffffffffffffffffffffffff1681526020018281526020015f600281111561033657610335610651565b5b8152505f8060015481526020019081526020015f205f820151815f0155602082015181600101556040820151816002015f6101000a81548173ffffffffffffffffffffffffffffffffffffffff021916908373ffffffffffffffffffffffffffffffffffffffff16021790555060608201518160030190816103b89190610bb7565b506080820151816004015f6101000a81548160ff021916908360028111156103e3576103e2610651565b5b02179055509050507f436e94ee8d1a47178f6f9c4004853a84b8ae47ed07f1d4a70623925bf7cc22486001548333846040516104229493929190610c86565b60405180910390a15050565b60015481565b5f805f8381526020019081526020015f2090505f600281111561045a57610459610651565b5b816004015f9054906101000a900460ff16600281111561047d5761047c610651565b5b146104bd576040517f08c379a00000000000000000000000000000000000000000000000000000000081526004016104b49061092b565b60405180910390fd5b6001816004015f6101000a81548160ff021916908360028111156104e4576104e3610651565b5b02179055507f57cce005d496355471bb5269f1dea3d6c81b6ac14c1d74ba28aefb022357013b8260405161051891906108a2565b60405180910390a15050565b5f604051905090565b5f80fd5b5f80fd5b5f819050919050565b61054781610535565b8114610551575f80fd5b50565b5f813590506105628161053e565b92915050565b5f6020828403121561057d5761057c61052d565b5b5f61058a84828501610554565b91505092915050565b61059c81610535565b82525050565b5f73ffffffffffffffffffffffffffffffffffffffff82169050919050565b5f6105cb826105a2565b9050919050565b6105db816105c1565b82525050565b5f81519050919050565b5f82825260208201905092915050565b8281835e5f83830152505050565b5f601f19601f8301169050919050565b5f610623826105e1565b61062d81856105eb565b935061063d8185602086016105fb565b61064681610609565b840191505092915050565b7f4e487b71000000000000000000000000000000000000000000000000000000005f52602160045260245ffd5b6003811061068f5761068e610651565b5b50565b5f81905061069f8261067e565b919050565b5f6106ae82610692565b9050919050565b6106be816106a4565b82525050565b5f60a0820190506106d75f830188610593565b6106e46020830187610593565b6106f160408301866105d2565b81810360608301526107038185610619565b905061071260808301846106b5565b9695505050505050565b5f80fd5b5f80fd5b7f4e487b71000000000000000000000000000000000000000000000000000000005f52604160045260245ffd5b61075a82610609565b810181811067ffffffffffffffff8211171561077957610778610724565b5b80604052505050565b5f61078b610524565b90506107978282610751565b919050565b5f67ffffffffffffffff8211156107b6576107b5610724565b5b6107bf82610609565b9050602081019050919050565b828183375f83830152505050565b5f6107ec6107e78461079c565b610782565b90508281526020810184848401111561080857610807610720565b5b6108138482856107cc565b509392505050565b5f82601f83011261082f5761082e61071c565b5b813561083f8482602086016107da565b91505092915050565b5f806040838503121561085e5761085d61052d565b5b5f61086b85828601610554565b925050602083013567ffffffffffffffff81111561088c5761088b610531565b5b6108988582860161081b565b9150509250929050565b5f6020820190506108b55f830184610593565b92915050565b7f4469737075746520616c7265616479207265736f6c766564206f722072656a655f8201527f6374656400000000000000000000000000000000000000000000000000000000602082015250565b5f6109156024836105eb565b9150610920826108bb565b604082019050919050565b5f6020820190508181035f83015261094281610909565b9050919050565b7f4e487b71000000000000000000000000000000000000000000000000000000005f52602260045260245ffd5b5f600282049050600182168061098d57607f821691505b6020821081036109a05761099f610949565b5b50919050565b7f4e487b71000000000000000000000000000000000000000000000000000000005f52601160045260245ffd5b5f6109dd82610535565b91507fffffffffffffffffffffffffffffffffffffffffffffffffffffffffffffffff8203610a0f57610a0e6109a6565b5b600182019050919050565b5f819050815f5260205f209050919050565b5f6020601f8301049050919050565b5f82821b905092915050565b5f60088302610a767fffffffffffffffffffffffffffffffffffffffffffffffffffffffffffffffff82610a3b565b610a808683610a3b565b95508019841693508086168417925050509392505050565b5f819050919050565b5f610abb610ab6610ab184610535565b610a98565b610535565b9050919050565b5f819050919050565b610ad483610aa1565b610ae8610ae082610ac2565b848454610a47565b825550505050565b5f90565b610afc610af0565b610b07818484610acb565b505050565b5b81811015610b2a57610b1f5f82610af4565b600181019050610b0d565b5050565b601f821115610b6f57610b4081610a1a565b610b4984610a2c565b81016020851015610b58578190505b610b6c610b6485610a2c565b830182610b0c565b50505b505050565b5f82821c905092915050565b5f610b8f5f1984600802610b74565b1980831691505092915050565b5f610ba78383610b80565b9150826002028217905092915050565b610bc0826105e1565b67ffffffffffffffff811115610bd957610bd8610724565b5b610be38254610976565b610bee828285610b2e565b5f60209050601f831160018114610c1f575f8415610c0d578287015190505b610c178582610b9c565b865550610c7e565b601f198416610c2d86610a1a565b5f5b82811015610c5457848901518255600182019150602085019450602081019050610c2f565b86831015610c715784890151610c6d601f891682610b80565b8355505b6001600288020188555050505b505050505050565b5f608082019050610c995f830187610593565b610ca66020830186610593565b610cb360408301856105d2565b8181036060830152610cc58184610619565b90509594505050505056fea2646970667358221220091f550647552e363015a845e4ec44ab3c3686202de2206681892c614a7108a564736f6c63430008190033",
					"opcodes": "PUSH1 0x80 PUSH1 0x40 MSTORE CALLVALUE DUP1 ISZERO PUSH1 0xE JUMPI PUSH0 DUP1 REVERT JUMPDEST POP PUSH2 0xD06 DUP1 PUSH2 0x1C PUSH0 CODECOPY PUSH0 RETURN INVALID PUSH1 0x80 PUSH1 0x40 MSTORE CALLVALUE DUP1 ISZERO PUSH2 0xF JUMPI PUSH0 DUP1 REVERT JUMPDEST POP PUSH1 0x4 CALLDATASIZE LT PUSH2 0x55 JUMPI PUSH0 CALLDATALOAD PUSH1 0xE0 SHR DUP1 PUSH4 0x2D4FD9DD EQ PUSH2 0x59 JUMPI DUP1 PUSH4 0x564A565D EQ PUSH2 0x75 JUMPI DUP1 PUSH4 0x8243AF1D EQ PUSH2 0xA9 JUMPI DUP1 PUSH4 0xA28889E1 EQ PUSH2 0xC5 JUMPI DUP1 PUSH4 0xC2B7B868 EQ PUSH2 0xE3 JUMPI JUMPDEST PUSH0 DUP1 REVERT JUMPDEST PUSH2 0x73 PUSH1 0x4 DUP1 CALLDATASIZE SUB DUP2 ADD SWAP1 PUSH2 0x6E SWAP2 SWAP1 PUSH2 0x568 JUMP JUMPDEST PUSH2 0xFF JUMP JUMPDEST STOP JUMPDEST PUSH2 0x8F PUSH1 0x4 DUP1 CALLDATASIZE SUB DUP2 ADD SWAP1 PUSH2 0x8A SWAP2 SWAP1 PUSH2 0x568 JUMP JUMPDEST PUSH2 0x1EF JUMP JUMPDEST PUSH1 0x40 MLOAD PUSH2 0xA0 SWAP6 SWAP5 SWAP4 SWAP3 SWAP2 SWAP1 PUSH2 0x6C4 JUMP JUMPDEST PUSH1 0x40 MLOAD DUP1 SWAP2 SUB SWAP1 RETURN JUMPDEST PUSH2 0xC3 PUSH1 0x4 DUP1 CALLDATASIZE SUB DUP2 ADD SWAP1 PUSH2 0xBE SWAP2 SWAP1 PUSH2 0x848 JUMP JUMPDEST PUSH2 0x2D1 JUMP JUMPDEST STOP JUMPDEST PUSH2 0xCD PUSH2 0x42E JUMP JUMPDEST PUSH1 0x40 MLOAD PUSH2 0xDA SWAP2 SWAP1 PUSH2 0x8A2 JUMP JUMPDEST PUSH1 0x40 MLOAD DUP1 SWAP2 SUB SWAP1 RETURN JUMPDEST PUSH2 0xFD PUSH1 0x4 DUP1 CALLDATASIZE SUB DUP2 ADD SWAP1 PUSH2 0xF8 SWAP2 SWAP1 PUSH2 0x568 JUMP JUMPDEST PUSH2 0x434 JUMP JUMPDEST STOP JUMPDEST PUSH0 DUP1 PUSH0 DUP4 DUP2 MSTORE PUSH1 0x20 ADD SWAP1 DUP2 MSTORE PUSH1 0x20 ADD PUSH0 KECCAK256 SWAP1 POP PUSH0 PUSH1 0x2 DUP2 GT ISZERO PUSH2 0x125 JUMPI PUSH2 0x124 PUSH2 0x651 JUMP JUMPDEST JUMPDEST DUP2 PUSH1 0x4 ADD PUSH0 SWAP1 SLOAD SWAP1 PUSH2 0x100 EXP SWAP1 DIV PUSH1 0xFF AND PUSH1 0x2 DUP2 GT ISZERO PUSH2 0x148 JUMPI PUSH2 0x147 PUSH2 0x651 JUMP JUMPDEST JUMPDEST EQ PUSH2 0x188 JUMPI PUSH1 0x40 MLOAD PUSH32 0x8C379A000000000000000000000000000000000000000000000000000000000 DUP2 MSTORE PUSH1 0x4 ADD PUSH2 0x17F SWAP1 PUSH2 0x92B JUMP JUMPDEST PUSH1 0x40 MLOAD DUP1 SWAP2 SUB SWAP1 REVERT JUMPDEST PUSH1 0x2 DUP2 PUSH1 0x4 ADD PUSH0 PUSH2 0x100 EXP DUP2 SLOAD DUP2 PUSH1 0xFF MUL NOT AND SWAP1 DUP4 PUSH1 0x2 DUP2 GT ISZERO PUSH2 0x1AF JUMPI PUSH2 0x1AE PUSH2 0x651 JUMP JUMPDEST JUMPDEST MUL OR SWAP1 SSTORE POP PUSH32 0xA2CB862CE5C541E4371903A6724398D5A73ECE63C483AD33BA1797CBC635318 DUP3 PUSH1 0x40 MLOAD PUSH2 0x1E3 SWAP2 SWAP1 PUSH2 0x8A2 JUMP JUMPDEST PUSH1 0x40 MLOAD DUP1 SWAP2 SUB SWAP1 LOG1 POP POP JUMP JUMPDEST PUSH0 PUSH1 0x20 MSTORE DUP1 PUSH0 MSTORE PUSH1 0x40 PUSH0 KECCAK256 PUSH0 SWAP2 POP SWAP1 POP DUP1 PUSH0 ADD SLOAD SWAP1 DUP1 PUSH1 0x1 ADD SLOAD SWAP1 DUP1 PUSH1 0x2 ADD PUSH0 SWAP1 SLOAD SWAP1 PUSH2 0x100 EXP SWAP1 DIV PUSH20 0xFFFFFFFFFFFFFFFFFFFFFFFFFFFFFFFFFFFFFFFF AND SWAP1 DUP1 PUSH1 0x3 ADD DUP1 SLOAD PUSH2 0x23E SWAP1 PUSH2 0x976 JUMP JUMPDEST DUP1 PUSH1 0x1F ADD PUSH1 0x20 DUP1 SWAP2 DIV MUL PUSH1 0x20 ADD PUSH1 0x40 MLOAD SWAP1 DUP2 ADD PUSH1 0x40 MSTORE DUP1 SWAP3 SWAP2 SWAP1 DUP2 DUP2 MSTORE PUSH1 0x20 ADD DUP3 DUP1 SLOAD PUSH2 0x26A SWAP1 PUSH2 0x976 JUMP JUMPDEST DUP1 ISZERO PUSH2 0x2B5 JUMPI DUP1 PUSH1 0x1F LT PUSH2 0x28C JUMPI PUSH2 0x100 DUP1 DUP4 SLOAD DIV MUL DUP4 MSTORE SWAP2 PUSH1 0x20 ADD SWAP2 PUSH2 0x2B5 JUMP JUMPDEST DUP3 ADD SWAP2 SWAP1 PUSH0 MSTORE PUSH1 0x20 PUSH0 KECCAK256 SWAP1 JUMPDEST DUP2 SLOAD DUP2 MSTORE SWAP1 PUSH1 0x1 ADD SWAP1 PUSH1 0x20 ADD DUP1 DUP4 GT PUSH2 0x298 JUMPI DUP3 SWAP1 SUB PUSH1 0x1F AND DUP3 ADD SWAP2 JUMPDEST POP POP POP POP POP SWAP1 DUP1 PUSH1 0x4 ADD PUSH0 SWAP1 SLOAD SWAP1 PUSH2 0x100 EXP SWAP1 DIV PUSH1 0xFF AND SWAP1 POP DUP6 JUMP JUMPDEST PUSH1 0x1 PUSH0 DUP2 SLOAD DUP1 SWAP3 SWAP2 SWAP1 PUSH2 0x2E3 SWAP1 PUSH2 0x9D3 JUMP JUMPDEST SWAP2 SWAP1 POP SSTORE POP PUSH1 0x40 MLOAD DUP1 PUSH1 0xA0 ADD PUSH1 0x40 MSTORE DUP1 PUSH1 0x1 SLOAD DUP2 MSTORE PUSH1 0x20 ADD DUP4 DUP2 MSTORE PUSH1 0x20 ADD CALLER PUSH20 0xFFFFFFFFFFFFFFFFFFFFFFFFFFFFFFFFFFFFFFFF AND DUP2 MSTORE PUSH1 0x20 ADD DUP3 DUP2 MSTORE PUSH1 0x20 ADD PUSH0 PUSH1 0x2 DUP2 GT ISZERO PUSH2 0x336 JUMPI PUSH2 0x335 PUSH2 0x651 JUMP JUMPDEST JUMPDEST DUP2 MSTORE POP PUSH0 DUP1 PUSH1 0x1 SLOAD DUP2 MSTORE PUSH1 0x20 ADD SWAP1 DUP2 MSTORE PUSH1 0x20 ADD PUSH0 KECCAK256 PUSH0 DUP3 ADD MLOAD DUP2 PUSH0 ADD SSTORE PUSH1 0x20 DUP3 ADD MLOAD DUP2 PUSH1 0x1 ADD SSTORE PUSH1 0x40 DUP3 ADD MLOAD DUP2 PUSH1 0x2 ADD PUSH0 PUSH2 0x100 EXP DUP2 SLOAD DUP2 PUSH20 0xFFFFFFFFFFFFFFFFFFFFFFFFFFFFFFFFFFFFFFFF MUL NOT AND SWAP1 DUP4 PUSH20 0xFFFFFFFFFFFFFFFFFFFFFFFFFFFFFFFFFFFFFFFF AND MUL OR SWAP1 SSTORE POP PUSH1 0x60 DUP3 ADD MLOAD DUP2 PUSH1 0x3 ADD SWAP1 DUP2 PUSH2 0x3B8 SWAP2 SWAP1 PUSH2 0xBB7 JUMP JUMPDEST POP PUSH1 0x80 DUP3 ADD MLOAD DUP2 PUSH1 0x4 ADD PUSH0 PUSH2 0x100 EXP DUP2 SLOAD DUP2 PUSH1 0xFF MUL NOT AND SWAP1 DUP4 PUSH1 0x2 DUP2 GT ISZERO PUSH2 0x3E3 JUMPI PUSH2 0x3E2 PUSH2 0x651 JUMP JUMPDEST JUMPDEST MUL OR SWAP1 SSTORE POP SWAP1 POP POP PUSH32 0x436E94EE8D1A47178F6F9C4004853A84B8AE47ED07F1D4A70623925BF7CC2248 PUSH1 0x1 SLOAD DUP4 CALLER DUP5 PUSH1 0x40 MLOAD PUSH2 0x422 SWAP5 SWAP4 SWAP3 SWAP2 SWAP1 PUSH2 0xC86 JUMP JUMPDEST PUSH1 0x40 MLOAD DUP1 SWAP2 SUB SWAP1 LOG1 POP POP JUMP JUMPDEST PUSH1 0x1 SLOAD DUP2 JUMP JUMPDEST PUSH0 DUP1 PUSH0 DUP4 DUP2 MSTORE PUSH1 0x20 ADD SWAP1 DUP2 MSTORE PUSH1 0x20 ADD PUSH0 KECCAK256 SWAP1 POP PUSH0 PUSH1 0x2 DUP2 GT ISZERO PUSH2 0x45A JUMPI PUSH2 0x459 PUSH2 0x651 JUMP JUMPDEST JUMPDEST DUP2 PUSH1 0x4 ADD PUSH0 SWAP1 SLOAD SWAP1 PUSH2 0x100 EXP SWAP1 DIV PUSH1 0xFF AND PUSH1 0x2 DUP2 GT ISZERO PUSH2 0x47D JUMPI PUSH2 0x47C PUSH2 0x651 JUMP JUMPDEST JUMPDEST EQ PUSH2 0x4BD JUMPI PUSH1 0x40 MLOAD PUSH32 0x8C379A000000000000000000000000000000000000000000000000000000000 DUP2 MSTORE PUSH1 0x4 ADD PUSH2 0x4B4 SWAP1 PUSH2 0x92B JUMP JUMPDEST PUSH1 0x40 MLOAD DUP1 SWAP2 SUB SWAP1 REVERT JUMPDEST PUSH1 0x1 DUP2 PUSH1 0x4 ADD PUSH0 PUSH2 0x100 EXP DUP2 SLOAD DUP2 PUSH1 0xFF MUL NOT AND SWAP1 DUP4 PUSH1 0x2 DUP2 GT ISZERO PUSH2 0x4E4 JUMPI PUSH2 0x4E3 PUSH2 0x651 JUMP JUMPDEST JUMPDEST MUL OR SWAP1 SSTORE POP PUSH32 0x57CCE005D496355471BB5269F1DEA3D6C81B6AC14C1D74BA28AEFB022357013B DUP3 PUSH1 0x40 MLOAD PUSH2 0x518 SWAP2 SWAP1 PUSH2 0x8A2 JUMP JUMPDEST PUSH1 0x40 MLOAD DUP1 SWAP2 SUB SWAP1 LOG1 POP POP JUMP JUMPDEST PUSH0 PUSH1 0x40 MLOAD SWAP1 POP SWAP1 JUMP JUMPDEST PUSH0 DUP1 REVERT JUMPDEST PUSH0 DUP1 REVERT JUMPDEST PUSH0 DUP2 SWAP1 POP SWAP2 SWAP1 POP JUMP JUMPDEST PUSH2 0x547 DUP2 PUSH2 0x535 JUMP JUMPDEST DUP2 EQ PUSH2 0x551 JUMPI PUSH0 DUP1 REVERT JUMPDEST POP JUMP JUMPDEST PUSH0 DUP2 CALLDATALOAD SWAP1 POP PUSH2 0x562 DUP2 PUSH2 0x53E JUMP JUMPDEST SWAP3 SWAP2 POP POP JUMP JUMPDEST PUSH0 PUSH1 0x20 DUP3 DUP5 SUB SLT ISZERO PUSH2 0x57D JUMPI PUSH2 0x57C PUSH2 0x52D JUMP JUMPDEST JUMPDEST PUSH0 PUSH2 0x58A DUP5 DUP3 DUP6 ADD PUSH2 0x554 JUMP JUMPDEST SWAP2 POP POP SWAP3 SWAP2 POP POP JUMP JUMPDEST PUSH2 0x59C DUP2 PUSH2 0x535 JUMP JUMPDEST DUP3 MSTORE POP POP JUMP JUMPDEST PUSH0 PUSH20 0xFFFFFFFFFFFFFFFFFFFFFFFFFFFFFFFFFFFFFFFF DUP3 AND SWAP1 POP SWAP2 SWAP1 POP JUMP JUMPDEST PUSH0 PUSH2 0x5CB DUP3 PUSH2 0x5A2 JUMP JUMPDEST SWAP1 POP SWAP2 SWAP1 POP JUMP JUMPDEST PUSH2 0x5DB DUP2 PUSH2 0x5C1 JUMP JUMPDEST DUP3 MSTORE POP POP JUMP JUMPDEST PUSH0 DUP2 MLOAD SWAP1 POP SWAP2 SWAP1 POP JUMP JUMPDEST PUSH0 DUP3 DUP3 MSTORE PUSH1 0x20 DUP3 ADD SWAP1 POP SWAP3 SWAP2 POP POP JUMP JUMPDEST DUP3 DUP2 DUP4 MCOPY PUSH0 DUP4 DUP4 ADD MSTORE POP POP POP JUMP JUMPDEST PUSH0 PUSH1 0x1F NOT PUSH1 0x1F DUP4 ADD AND SWAP1 POP SWAP2 SWAP1 POP JUMP JUMPDEST PUSH0 PUSH2 0x623 DUP3 PUSH2 0x5E1 JUMP JUMPDEST PUSH2 0x62D DUP2 DUP6 PUSH2 0x5EB JUMP JUMPDEST SWAP4 POP PUSH2 0x63D DUP2 DUP6 PUSH1 0x20 DUP7 ADD PUSH2 0x5FB JUMP JUMPDEST PUSH2 0x646 DUP2 PUSH2 0x609 JUMP JUMPDEST DUP5 ADD SWAP2 POP POP SWAP3 SWAP2 POP POP JUMP JUMPDEST PUSH32 0x4E487B7100000000000000000000000000000000000000000000000000000000 PUSH0 MSTORE PUSH1 0x21 PUSH1 0x4 MSTORE PUSH1 0x24 PUSH0 REVERT JUMPDEST PUSH1 0x3 DUP2 LT PUSH2 0x68F JUMPI PUSH2 0x68E PUSH2 0x651 JUMP JUMPDEST JUMPDEST POP JUMP JUMPDEST PUSH0 DUP2 SWAP1 POP PUSH2 0x69F DUP3 PUSH2 0x67E JUMP JUMPDEST SWAP2 SWAP1 POP JUMP JUMPDEST PUSH0 PUSH2 0x6AE DUP3 PUSH2 0x692 JUMP JUMPDEST SWAP1 POP SWAP2 SWAP1 POP JUMP JUMPDEST PUSH2 0x6BE DUP2 PUSH2 0x6A4 JUMP JUMPDEST DUP3 MSTORE POP POP JUMP JUMPDEST PUSH0 PUSH1 0xA0 DUP3 ADD SWAP1 POP PUSH2 0x6D7 PUSH0 DUP4 ADD DUP9 PUSH2 0x593 JUMP JUMPDEST PUSH2 0x6E4 PUSH1 0x20 DUP4 ADD DUP8 PUSH2 0x593 JUMP JUMPDEST PUSH2 0x6F1 PUSH1 0x40 DUP4 ADD DUP7 PUSH2 0x5D2 JUMP JUMPDEST DUP2 DUP2 SUB PUSH1 0x60 DUP4 ADD MSTORE PUSH2 0x703 DUP2 DUP6 PUSH2 0x619 JUMP JUMPDEST SWAP1 POP PUSH2 0x712 PUSH1 0x80 DUP4 ADD DUP5 PUSH2 0x6B5 JUMP JUMPDEST SWAP7 SWAP6 POP POP POP POP POP POP JUMP JUMPDEST PUSH0 DUP1 REVERT JUMPDEST PUSH0 DUP1 REVERT JUMPDEST PUSH32 0x4E487B7100000000000000000000000000000000000000000000000000000000 PUSH0 MSTORE PUSH1 0x41 PUSH1 0x4 MSTORE PUSH1 0x24 PUSH0 REVERT JUMPDEST PUSH2 0x75A DUP3 PUSH2 0x609 JUMP JUMPDEST DUP2 ADD DUP2 DUP2 LT PUSH8 0xFFFFFFFFFFFFFFFF DUP3 GT OR ISZERO PUSH2 0x779 JUMPI PUSH2 0x778 PUSH2 0x724 JUMP JUMPDEST JUMPDEST DUP1 PUSH1 0x40 MSTORE POP POP POP JUMP JUMPDEST PUSH0 PUSH2 0x78B PUSH2 0x524 JUMP JUMPDEST SWAP1 POP PUSH2 0x797 DUP3 DUP3 PUSH2 0x751 JUMP JUMPDEST SWAP2 SWAP1 POP JUMP JUMPDEST PUSH0 PUSH8 0xFFFFFFFFFFFFFFFF DUP3 GT ISZERO PUSH2 0x7B6 JUMPI PUSH2 0x7B5 PUSH2 0x724 JUMP JUMPDEST JUMPDEST PUSH2 0x7BF DUP3 PUSH2 0x609 JUMP JUMPDEST SWAP1 POP PUSH1 0x20 DUP2 ADD SWAP1 POP SWAP2 SWAP1 POP JUMP JUMPDEST DUP3 DUP2 DUP4 CALLDATACOPY PUSH0 DUP4 DUP4 ADD MSTORE POP POP POP JUMP JUMPDEST PUSH0 PUSH2 0x7EC PUSH2 0x7E7 DUP5 PUSH2 0x79C JUMP JUMPDEST PUSH2 0x782 JUMP JUMPDEST SWAP1 POP DUP3 DUP2 MSTORE PUSH1 0x20 DUP2 ADD DUP5 DUP5 DUP5 ADD GT ISZERO PUSH2 0x808 JUMPI PUSH2 0x807 PUSH2 0x720 JUMP JUMPDEST JUMPDEST PUSH2 0x813 DUP5 DUP3 DUP6 PUSH2 0x7CC JUMP JUMPDEST POP SWAP4 SWAP3 POP POP POP JUMP JUMPDEST PUSH0 DUP3 PUSH1 0x1F DUP4 ADD SLT PUSH2 0x82F JUMPI PUSH2 0x82E PUSH2 0x71C JUMP JUMPDEST JUMPDEST DUP2 CALLDATALOAD PUSH2 0x83F DUP5 DUP3 PUSH1 0x20 DUP7 ADD PUSH2 0x7DA JUMP JUMPDEST SWAP2 POP POP SWAP3 SWAP2 POP POP JUMP JUMPDEST PUSH0 DUP1 PUSH1 0x40 DUP4 DUP6 SUB SLT ISZERO PUSH2 0x85E JUMPI PUSH2 0x85D PUSH2 0x52D JUMP JUMPDEST JUMPDEST PUSH0 PUSH2 0x86B DUP6 DUP3 DUP7 ADD PUSH2 0x554 JUMP JUMPDEST SWAP3 POP POP PUSH1 0x20 DUP4 ADD CALLDATALOAD PUSH8 0xFFFFFFFFFFFFFFFF DUP2 GT ISZERO PUSH2 0x88C JUMPI PUSH2 0x88B PUSH2 0x531 JUMP JUMPDEST JUMPDEST PUSH2 0x898 DUP6 DUP3 DUP7 ADD PUSH2 0x81B JUMP JUMPDEST SWAP2 POP POP SWAP3 POP SWAP3 SWAP1 POP JUMP JUMPDEST PUSH0 PUSH1 0x20 DUP3 ADD SWAP1 POP PUSH2 0x8B5 PUSH0 DUP4 ADD DUP5 PUSH2 0x593 JUMP JUMPDEST SWAP3 SWAP2 POP POP JUMP JUMPDEST PUSH32 0x4469737075746520616C7265616479207265736F6C766564206F722072656A65 PUSH0 DUP3 ADD MSTORE PUSH32 0x6374656400000000000000000000000000000000000000000000000000000000 PUSH1 0x20 DUP3 ADD MSTORE POP JUMP JUMPDEST PUSH0 PUSH2 0x915 PUSH1 0x24 DUP4 PUSH2 0x5EB JUMP JUMPDEST SWAP2 POP PUSH2 0x920 DUP3 PUSH2 0x8BB JUMP JUMPDEST PUSH1 0x40 DUP3 ADD SWAP1 POP SWAP2 SWAP1 POP JUMP JUMPDEST PUSH0 PUSH1 0x20 DUP3 ADD SWAP1 POP DUP2 DUP2 SUB PUSH0 DUP4 ADD MSTORE PUSH2 0x942 DUP2 PUSH2 0x909 JUMP JUMPDEST SWAP1 POP SWAP2 SWAP1 POP JUMP JUMPDEST PUSH32 0x4E487B7100000000000000000000000000000000000000000000000000000000 PUSH0 MSTORE PUSH1 0x22 PUSH1 0x4 MSTORE PUSH1 0x24 PUSH0 REVERT JUMPDEST PUSH0 PUSH1 0x2 DUP3 DIV SWAP1 POP PUSH1 0x1 DUP3 AND DUP1 PUSH2 0x98D JUMPI PUSH1 0x7F DUP3 AND SWAP2 POP JUMPDEST PUSH1 0x20 DUP3 LT DUP2 SUB PUSH2 0x9A0 JUMPI PUSH2 0x99F PUSH2 0x949 JUMP JUMPDEST JUMPDEST POP SWAP2 SWAP1 POP JUMP JUMPDEST PUSH32 0x4E487B7100000000000000000000000000000000000000000000000000000000 PUSH0 MSTORE PUSH1 0x11 PUSH1 0x4 MSTORE PUSH1 0x24 PUSH0 REVERT JUMPDEST PUSH0 PUSH2 0x9DD DUP3 PUSH2 0x535 JUMP JUMPDEST SWAP2 POP PUSH32 0xFFFFFFFFFFFFFFFFFFFFFFFFFFFFFFFFFFFFFFFFFFFFFFFFFFFFFFFFFFFFFFFF DUP3 SUB PUSH2 0xA0F JUMPI PUSH2 0xA0E PUSH2 0x9A6 JUMP JUMPDEST JUMPDEST PUSH1 0x1 DUP3 ADD SWAP1 POP SWAP2 SWAP1 POP JUMP JUMPDEST PUSH0 DUP2 SWAP1 POP DUP2 PUSH0 MSTORE PUSH1 0x20 PUSH0 KECCAK256 SWAP1 POP SWAP2 SWAP1 POP JUMP JUMPDEST PUSH0 PUSH1 0x20 PUSH1 0x1F DUP4 ADD DIV SWAP1 POP SWAP2 SWAP1 POP JUMP JUMPDEST PUSH0 DUP3 DUP3 SHL SWAP1 POP SWAP3 SWAP2 POP POP JUMP JUMPDEST PUSH0 PUSH1 0x8 DUP4 MUL PUSH2 0xA76 PUSH32 0xFFFFFFFFFFFFFFFFFFFFFFFFFFFFFFFFFFFFFFFFFFFFFFFFFFFFFFFFFFFFFFFF DUP3 PUSH2 0xA3B JUMP JUMPDEST PUSH2 0xA80 DUP7 DUP4 PUSH2 0xA3B JUMP JUMPDEST SWAP6 POP DUP1 NOT DUP5 AND SWAP4 POP DUP1 DUP7 AND DUP5 OR SWAP3 POP POP POP SWAP4 SWAP3 POP POP POP JUMP JUMPDEST PUSH0 DUP2 SWAP1 POP SWAP2 SWAP1 POP JUMP JUMPDEST PUSH0 PUSH2 0xABB PUSH2 0xAB6 PUSH2 0xAB1 DUP5 PUSH2 0x535 JUMP JUMPDEST PUSH2 0xA98 JUMP JUMPDEST PUSH2 0x535 JUMP JUMPDEST SWAP1 POP SWAP2 SWAP1 POP JUMP JUMPDEST PUSH0 DUP2 SWAP1 POP SWAP2 SWAP1 POP JUMP JUMPDEST PUSH2 0xAD4 DUP4 PUSH2 0xAA1 JUMP JUMPDEST PUSH2 0xAE8 PUSH2 0xAE0 DUP3 PUSH2 0xAC2 JUMP JUMPDEST DUP5 DUP5 SLOAD PUSH2 0xA47 JUMP JUMPDEST DUP3 SSTORE POP POP POP POP JUMP JUMPDEST PUSH0 SWAP1 JUMP JUMPDEST PUSH2 0xAFC PUSH2 0xAF0 JUMP JUMPDEST PUSH2 0xB07 DUP2 DUP5 DUP5 PUSH2 0xACB JUMP JUMPDEST POP POP POP JUMP JUMPDEST JUMPDEST DUP2 DUP2 LT ISZERO PUSH2 0xB2A JUMPI PUSH2 0xB1F PUSH0 DUP3 PUSH2 0xAF4 JUMP JUMPDEST PUSH1 0x1 DUP2 ADD SWAP1 POP PUSH2 0xB0D JUMP JUMPDEST POP POP JUMP JUMPDEST PUSH1 0x1F DUP3 GT ISZERO PUSH2 0xB6F JUMPI PUSH2 0xB40 DUP2 PUSH2 0xA1A JUMP JUMPDEST PUSH2 0xB49 DUP5 PUSH2 0xA2C JUMP JUMPDEST DUP2 ADD PUSH1 0x20 DUP6 LT ISZERO PUSH2 0xB58 JUMPI DUP2 SWAP1 POP JUMPDEST PUSH2 0xB6C PUSH2 0xB64 DUP6 PUSH2 0xA2C JUMP JUMPDEST DUP4 ADD DUP3 PUSH2 0xB0C JUMP JUMPDEST POP POP JUMPDEST POP POP POP JUMP JUMPDEST PUSH0 DUP3 DUP3 SHR SWAP1 POP SWAP3 SWAP2 POP POP JUMP JUMPDEST PUSH0 PUSH2 0xB8F PUSH0 NOT DUP5 PUSH1 0x8 MUL PUSH2 0xB74 JUMP JUMPDEST NOT DUP1 DUP4 AND SWAP2 POP POP SWAP3 SWAP2 POP POP JUMP JUMPDEST PUSH0 PUSH2 0xBA7 DUP4 DUP4 PUSH2 0xB80 JUMP JUMPDEST SWAP2 POP DUP3 PUSH1 0x2 MUL DUP3 OR SWAP1 POP SWAP3 SWAP2 POP POP JUMP JUMPDEST PUSH2 0xBC0 DUP3 PUSH2 0x5E1 JUMP JUMPDEST PUSH8 0xFFFFFFFFFFFFFFFF DUP2 GT ISZERO PUSH2 0xBD9 JUMPI PUSH2 0xBD8 PUSH2 0x724 JUMP JUMPDEST JUMPDEST PUSH2 0xBE3 DUP3 SLOAD PUSH2 0x976 JUMP JUMPDEST PUSH2 0xBEE DUP3 DUP3 DUP6 PUSH2 0xB2E JUMP JUMPDEST PUSH0 PUSH1 0x20 SWAP1 POP PUSH1 0x1F DUP4 GT PUSH1 0x1 DUP2 EQ PUSH2 0xC1F JUMPI PUSH0 DUP5 ISZERO PUSH2 0xC0D JUMPI DUP3 DUP8 ADD MLOAD SWAP1 POP JUMPDEST PUSH2 0xC17 DUP6 DUP3 PUSH2 0xB9C JUMP JUMPDEST DUP7 SSTORE POP PUSH2 0xC7E JUMP JUMPDEST PUSH1 0x1F NOT DUP5 AND PUSH2 0xC2D DUP7 PUSH2 0xA1A JUMP JUMPDEST PUSH0 JUMPDEST DUP3 DUP2 LT ISZERO PUSH2 0xC54 JUMPI DUP5 DUP10 ADD MLOAD DUP3 SSTORE PUSH1 0x1 DUP3 ADD SWAP2 POP PUSH1 0x20 DUP6 ADD SWAP5 POP PUSH1 0x20 DUP2 ADD SWAP1 POP PUSH2 0xC2F JUMP JUMPDEST DUP7 DUP4 LT ISZERO PUSH2 0xC71 JUMPI DUP5 DUP10 ADD MLOAD PUSH2 0xC6D PUSH1 0x1F DUP10 AND DUP3 PUSH2 0xB80 JUMP JUMPDEST DUP4 SSTORE POP JUMPDEST PUSH1 0x1 PUSH1 0x2 DUP9 MUL ADD DUP9 SSTORE POP POP POP JUMPDEST POP POP POP POP POP POP JUMP JUMPDEST PUSH0 PUSH1 0x80 DUP3 ADD SWAP1 POP PUSH2 0xC99 PUSH0 DUP4 ADD DUP8 PUSH2 0x593 JUMP JUMPDEST PUSH2 0xCA6 PUSH1 0x20 DUP4 ADD DUP7 PUSH2 0x593 JUMP JUMPDEST PUSH2 0xCB3 PUSH1 0x40 DUP4 ADD DUP6 PUSH2 0x5D2 JUMP JUMPDEST DUP2 DUP2 SUB PUSH1 0x60 DUP4 ADD MSTORE PUSH2 0xCC5 DUP2 DUP5 PUSH2 0x619 JUMP JUMPDEST SWAP1 POP SWAP6 SWAP5 POP POP POP POP POP JUMP INVALID LOG2 PUSH5 0x6970667358 0x22 SLT KECCAK256 MULMOD 0x1F SSTORE MOD SELFBALANCE SSTORE 0x2E CALLDATASIZE ADDRESS ISZERO 0xA8 GASLIMIT 0xE4 0xEC PREVRANDAO 0xAB EXTCODECOPY CALLDATASIZE DUP7 KECCAK256 0x2D 0xE2 KECCAK256 PUSH7 0x81892C614A7108 0xA5 PUSH5 0x736F6C6343 STOP ADDMOD NOT STOP CALLER "
				},
				"gasEstimates": {
					"creation": {
						"codeDepositCost": "666800",
						"executionCost": "700",
						"totalCost": "667500"
					},
					"external": {
						"disputeCount()": "2469",
						"disputes(uint256)": "infinite",
						"fileDispute(uint256,string)": "infinite",
						"rejectDispute(uint256)": "infinite",
						"resolveDispute(uint256)": "infinite"
					}
				},
				"methodIdentifiers": {
					"disputeCount()": "a28889e1",
					"disputes(uint256)": "564a565d",
					"fileDispute(uint256,string)": "8243af1d",
					"rejectDispute(uint256)": "2d4fd9dd",
					"resolveDispute(uint256)": "c2b7b868"
				}
			},
			"storageLayout": {
				"storage": [
					{
						"astId": 22,
						"contract": "contracts/16_Dispute Resolution.sol:DisputeResolution",
						"label": "disputes",
						"offset": 0,
						"slot": "0",
						"type": "t_mapping(t_uint256,t_struct(Dispute)17_storage)"
					},
					{
						"astId": 24,
						"contract": "contracts/16_Dispute Resolution.sol:DisputeResolution",
						"label": "disputeCount",
						"offset": 0,
						"slot": "1",
						"type": "t_uint256"
					}
				],
				"types": {
					"t_address": {
						"encoding": "inplace",
						"label": "address",
						"numberOfBytes": "20"
					},
					"t_enum(ResolutionStatus)5": {
						"encoding": "inplace",
						"label": "enum DisputeResolution.ResolutionStatus",
						"numberOfBytes": "1"
					},
					"t_mapping(t_uint256,t_struct(Dispute)17_storage)": {
						"encoding": "mapping",
						"key": "t_uint256",
						"label": "mapping(uint256 => struct DisputeResolution.Dispute)",
						"numberOfBytes": "32",
						"value": "t_struct(Dispute)17_storage"
					},
					"t_string_storage": {
						"encoding": "bytes",
						"label": "string",
						"numberOfBytes": "32"
					},
					"t_struct(Dispute)17_storage": {
						"encoding": "inplace",
						"label": "struct DisputeResolution.Dispute",
						"members": [
							{
								"astId": 7,
								"contract": "contracts/16_Dispute Resolution.sol:DisputeResolution",
								"label": "id",
								"offset": 0,
								"slot": "0",
								"type": "t_uint256"
							},
							{
								"astId": 9,
								"contract": "contracts/16_Dispute Resolution.sol:DisputeResolution",
								"label": "transactionId",
								"offset": 0,
								"slot": "1",
								"type": "t_uint256"
							},
							{
								"astId": 11,
								"contract": "contracts/16_Dispute Resolution.sol:DisputeResolution",
								"label": "complainant",
								"offset": 0,
								"slot": "2",
								"type": "t_address"
							},
							{
								"astId": 13,
								"contract": "contracts/16_Dispute Resolution.sol:DisputeResolution",
								"label": "details",
								"offset": 0,
								"slot": "3",
								"type": "t_string_storage"
							},
							{
								"astId": 16,
								"contract": "contracts/16_Dispute Resolution.sol:DisputeResolution",
								"label": "status",
								"offset": 0,
								"slot": "4",
								"type": "t_enum(ResolutionStatus)5"
							}
						],
						"numberOfBytes": "160"
					},
					"t_uint256": {
						"encoding": "inplace",
						"label": "uint256",
						"numberOfBytes": "32"
					}
				}
			},
			"userdoc": {
				"kind": "user",
				"methods": {},
				"version": 1
			}
		}
	}
}