{
	"contracts/11_User Registration and Authentication.sol": {
		"UserRegistration": {
			"abi": [
				{
					"anonymous": false,
					"inputs": [
						{
							"indexed": true,
							"internalType": "address",
							"name": "userAddress",
							"type": "address"
						},
						{
							"indexed": false,
							"internalType": "string",
							"name": "name",
							"type": "string"
						},
						{
							"indexed": false,
							"internalType": "enum UserRegistration.Role",
							"name": "role",
							"type": "uint8"
						}
					],
					"name": "UserRegistered",
					"type": "event"
				},
				{
					"inputs": [
						{
							"internalType": "string",
							"name": "_name",
							"type": "string"
						},
						{
							"internalType": "enum UserRegistration.Role",
							"name": "_role",
							"type": "uint8"
						}
					],
					"name": "registerUser",
					"outputs": [],
					"stateMutability": "nonpayable",
					"type": "function"
				},
				{
					"inputs": [
						{
							"internalType": "address",
							"name": "",
							"type": "address"
						}
					],
					"name": "users",
					"outputs": [
						{
							"internalType": "string",
							"name": "name",
							"type": "string"
						},
						{
							"internalType": "address",
							"name": "userAddress",
							"type": "address"
						},
						{
							"internalType": "enum UserRegistration.Role",
							"name": "role",
							"type": "uint8"
						},
						{
							"internalType": "bool",
							"name": "registered",
							"type": "bool"
						}
					],
					"stateMutability": "view",
					"type": "function"
				}
			],
			"devdoc": {
				"kind": "dev",
				"methods": {},
				"version": 1
			},
			"evm": {
				"assembly": "    /* \"contracts/11_User Registration and Authentication.sol\":60:673  contract UserRegistration {... */\n  mstore(0x40, 0x80)\n  callvalue\n  dup1\n  iszero\n  tag_1\n  jumpi\n  0x00\n  dup1\n  revert\ntag_1:\n  pop\n  dataSize(sub_0)\n  dup1\n  dataOffset(sub_0)\n  0x00\n  codecopy\n  0x00\n  return\nstop\n\nsub_0: assembly {\n        /* \"contracts/11_User Registration and Authentication.sol\":60:673  contract UserRegistration {... */\n      mstore(0x40, 0x80)\n      callvalue\n      dup1\n      iszero\n      tag_1\n      jumpi\n      0x00\n      dup1\n      revert\n    tag_1:\n      pop\n      jumpi(tag_2, lt(calldatasize, 0x04))\n      shr(0xe0, calldataload(0x00))\n      dup1\n      0x338e12eb\n      eq\n      tag_3\n      jumpi\n      dup1\n      0xa87430ba\n      eq\n      tag_4\n      jumpi\n    tag_2:\n      0x00\n      dup1\n      revert\n        /* \"contracts/11_User Registration and Authentication.sol\":401:670  function registerUser(string memory _name, Role _role) public {... */\n    tag_3:\n      tag_5\n      0x04\n      dup1\n      calldatasize\n      sub\n      dup2\n      add\n      swap1\n      tag_6\n      swap2\n      swap1\n      tag_7\n      jump\t// in\n    tag_6:\n      tag_8\n      jump\t// in\n    tag_5:\n      stop\n        /* \"contracts/11_User Registration and Authentication.sol\":273:310  mapping(address => User) public users */\n    tag_4:\n      tag_9\n      0x04\n      dup1\n      calldatasize\n      sub\n      dup2\n      add\n      swap1\n      tag_10\n      swap2\n      swap1\n      tag_11\n      jump\t// in\n    tag_10:\n      tag_12\n      jump\t// in\n    tag_9:\n      mload(0x40)\n      tag_13\n      swap5\n      swap4\n      swap3\n      swap2\n      swap1\n      tag_14\n      jump\t// in\n    tag_13:\n      mload(0x40)\n      dup1\n      swap2\n      sub\n      swap1\n      return\n        /* \"contracts/11_User Registration and Authentication.sol\":401:670  function registerUser(string memory _name, Role _role) public {... */\n    tag_8:\n        /* \"contracts/11_User Registration and Authentication.sol\":483:488  users */\n      0x00\n        /* \"contracts/11_User Registration and Authentication.sol\":483:500  users[msg.sender] */\n      dup1\n        /* \"contracts/11_User Registration and Authentication.sol\":489:499  msg.sender */\n      caller\n        /* \"contracts/11_User Registration and Authentication.sol\":483:500  users[msg.sender] */\n      0xffffffffffffffffffffffffffffffffffffffff\n      and\n      0xffffffffffffffffffffffffffffffffffffffff\n      and\n      dup2\n      mstore\n      0x20\n      add\n      swap1\n      dup2\n      mstore\n      0x20\n      add\n      0x00\n      keccak256\n        /* \"contracts/11_User Registration and Authentication.sol\":483:511  users[msg.sender].registered */\n      0x01\n      add\n      0x15\n      swap1\n      sload\n      swap1\n      0x0100\n      exp\n      swap1\n      div\n      0xff\n      and\n        /* \"contracts/11_User Registration and Authentication.sol\":482:511  !users[msg.sender].registered */\n      iszero\n        /* \"contracts/11_User Registration and Authentication.sol\":474:539  require(!users[msg.sender].registered, \"User already registered\") */\n      tag_16\n      jumpi\n      mload(0x40)\n      0x08c379a000000000000000000000000000000000000000000000000000000000\n      dup2\n      mstore\n      0x04\n      add\n      tag_17\n      swap1\n      tag_18\n      jump\t// in\n    tag_17:\n      mload(0x40)\n      dup1\n      swap2\n      sub\n      swap1\n      revert\n    tag_16:\n        /* \"contracts/11_User Registration and Authentication.sol\":570:606  User(_name, msg.sender, _role, true) */\n      mload(0x40)\n      dup1\n      0x80\n      add\n      0x40\n      mstore\n      dup1\n        /* \"contracts/11_User Registration and Authentication.sol\":575:580  _name */\n      dup4\n        /* \"contracts/11_User Registration and Authentication.sol\":570:606  User(_name, msg.sender, _role, true) */\n      dup2\n      mstore\n      0x20\n      add\n        /* \"contracts/11_User Registration and Authentication.sol\":582:592  msg.sender */\n      caller\n        /* \"contracts/11_User Registration and Authentication.sol\":570:606  User(_name, msg.sender, _role, true) */\n      0xffffffffffffffffffffffffffffffffffffffff\n      and\n      dup2\n      mstore\n      0x20\n      add\n        /* \"contracts/11_User Registration and Authentication.sol\":594:599  _role */\n      dup3\n        /* \"contracts/11_User Registration and Authentication.sol\":570:606  User(_name, msg.sender, _role, true) */\n      0x03\n      dup2\n      gt\n      iszero\n      tag_19\n      jumpi\n      tag_20\n      tag_21\n      jump\t// in\n    tag_20:\n    tag_19:\n      dup2\n      mstore\n      0x20\n      add\n        /* \"contracts/11_User Registration and Authentication.sol\":601:605  true */\n      0x01\n        /* \"contracts/11_User Registration and Authentication.sol\":570:606  User(_name, msg.sender, _role, true) */\n      iszero\n      iszero\n      dup2\n      mstore\n      pop\n        /* \"contracts/11_User Registration and Authentication.sol\":550:555  users */\n      0x00\n        /* \"contracts/11_User Registration and Authentication.sol\":550:567  users[msg.sender] */\n      dup1\n        /* \"contracts/11_User Registration and Authentication.sol\":556:566  msg.sender */\n      caller\n        /* \"contracts/11_User Registration and Authentication.sol\":550:567  users[msg.sender] */\n      0xffffffffffffffffffffffffffffffffffffffff\n      and\n      0xffffffffffffffffffffffffffffffffffffffff\n      and\n      dup2\n      mstore\n      0x20\n      add\n      swap1\n      dup2\n      mstore\n      0x20\n      add\n      0x00\n      keccak256\n        /* \"contracts/11_User Registration and Authentication.sol\":550:606  users[msg.sender] = User(_name, msg.sender, _role, true) */\n      0x00\n      dup3\n      add\n      mload\n      dup2\n      0x00\n      add\n      swap1\n      dup2\n      tag_22\n      swap2\n      swap1\n      tag_23\n      jump\t// in\n    tag_22:\n      pop\n      0x20\n      dup3\n      add\n      mload\n      dup2\n      0x01\n      add\n      exp(0x0100, 0x00)\n      dup2\n      sload\n      dup2\n      0xffffffffffffffffffffffffffffffffffffffff\n      mul\n      not\n      and\n      swap1\n      dup4\n      0xffffffffffffffffffffffffffffffffffffffff\n      and\n      mul\n      or\n      swap1\n      sstore\n      pop\n      0x40\n      dup3\n      add\n      mload\n      dup2\n      0x01\n      add\n      exp(0x0100, 0x14)\n      dup2\n      sload\n      dup2\n      0xff\n      mul\n      not\n      and\n      swap1\n      dup4\n      0x03\n      dup2\n      gt\n      iszero\n      tag_24\n      jumpi\n      tag_25\n      tag_21\n      jump\t// in\n    tag_25:\n    tag_24:\n      mul\n      or\n      swap1\n      sstore\n      pop\n      0x60\n      dup3\n      add\n      mload\n      dup2\n      0x01\n      add\n      exp(0x0100, 0x15)\n      dup2\n      sload\n      dup2\n      0xff\n      mul\n      not\n      and\n      swap1\n      dup4\n      iszero\n      iszero\n      mul\n      or\n      swap1\n      sstore\n      pop\n      swap1\n      pop\n      pop\n        /* \"contracts/11_User Registration and Authentication.sol\":637:647  msg.sender */\n      caller\n        /* \"contracts/11_User Registration and Authentication.sol\":622:662  UserRegistered(msg.sender, _name, _role) */\n      0xffffffffffffffffffffffffffffffffffffffff\n      and\n      0xc2e5d5da58bd71d1a2d14cdef02a4256d971b728088f8190d067ccfbae3bd73e\n        /* \"contracts/11_User Registration and Authentication.sol\":649:654  _name */\n      dup4\n        /* \"contracts/11_User Registration and Authentication.sol\":656:661  _role */\n      dup4\n        /* \"contracts/11_User Registration and Authentication.sol\":622:662  UserRegistered(msg.sender, _name, _role) */\n      mload(0x40)\n      tag_26\n      swap3\n      swap2\n      swap1\n      tag_27\n      jump\t// in\n    tag_26:\n      mload(0x40)\n      dup1\n      swap2\n      sub\n      swap1\n      log2\n        /* \"contracts/11_User Registration and Authentication.sol\":401:670  function registerUser(string memory _name, Role _role) public {... */\n      pop\n      pop\n      jump\t// out\n        /* \"contracts/11_User Registration and Authentication.sol\":273:310  mapping(address => User) public users */\n    tag_12:\n      mstore(0x20, 0x00)\n      dup1\n      0x00\n      mstore\n      keccak256(0x00, 0x40)\n      0x00\n      swap2\n      pop\n      swap1\n      pop\n      dup1\n      0x00\n      add\n      dup1\n      sload\n      tag_28\n      swap1\n      tag_29\n      jump\t// in\n    tag_28:\n      dup1\n      0x1f\n      add\n      0x20\n      dup1\n      swap2\n      div\n      mul\n      0x20\n      add\n      mload(0x40)\n      swap1\n      dup2\n      add\n      0x40\n      mstore\n      dup1\n      swap3\n      swap2\n      swap1\n      dup2\n      dup2\n      mstore\n      0x20\n      add\n      dup3\n      dup1\n      sload\n      tag_30\n      swap1\n      tag_29\n      jump\t// in\n    tag_30:\n      dup1\n      iszero\n      tag_31\n      jumpi\n      dup1\n      0x1f\n      lt\n      tag_32\n      jumpi\n      0x0100\n      dup1\n      dup4\n      sload\n      div\n      mul\n      dup4\n      mstore\n      swap2\n      0x20\n      add\n      swap2\n      jump(tag_31)\n    tag_32:\n      dup3\n      add\n      swap2\n      swap1\n      0x00\n      mstore\n      keccak256(0x00, 0x20)\n      swap1\n    tag_33:\n      dup2\n      sload\n      dup2\n      mstore\n      swap1\n      0x01\n      add\n      swap1\n      0x20\n      add\n      dup1\n      dup4\n      gt\n      tag_33\n      jumpi\n      dup3\n      swap1\n      sub\n      0x1f\n      and\n      dup3\n      add\n      swap2\n    tag_31:\n      pop\n      pop\n      pop\n      pop\n      pop\n      swap1\n      dup1\n      0x01\n      add\n      0x00\n      swap1\n      sload\n      swap1\n      0x0100\n      exp\n      swap1\n      div\n      0xffffffffffffffffffffffffffffffffffffffff\n      and\n      swap1\n      dup1\n      0x01\n      add\n      0x14\n      swap1\n      sload\n      swap1\n      0x0100\n      exp\n      swap1\n      div\n      0xff\n      and\n      swap1\n      dup1\n      0x01\n      add\n      0x15\n      swap1\n      sload\n      swap1\n      0x0100\n      exp\n      swap1\n      div\n      0xff\n      and\n      swap1\n      pop\n      dup5\n      jump\t// out\n        /* \"#utility.yul\":7:82   */\n    tag_34:\n        /* \"#utility.yul\":40:46   */\n      0x00\n        /* \"#utility.yul\":73:75   */\n      0x40\n        /* \"#utility.yul\":67:76   */\n      mload\n        /* \"#utility.yul\":57:76   */\n      swap1\n      pop\n        /* \"#utility.yul\":7:82   */\n      swap1\n      jump\t// out\n        /* \"#utility.yul\":88:205   */\n    tag_35:\n        /* \"#utility.yul\":197:198   */\n      0x00\n        /* \"#utility.yul\":194:195   */\n      dup1\n        /* \"#utility.yul\":187:199   */\n      revert\n        /* \"#utility.yul\":211:328   */\n    tag_36:\n        /* \"#utility.yul\":320:321   */\n      0x00\n        /* \"#utility.yul\":317:318   */\n      dup1\n        /* \"#utility.yul\":310:322   */\n      revert\n        /* \"#utility.yul\":334:451   */\n    tag_37:\n        /* \"#utility.yul\":443:444   */\n      0x00\n        /* \"#utility.yul\":440:441   */\n      dup1\n        /* \"#utility.yul\":433:445   */\n      revert\n        /* \"#utility.yul\":457:574   */\n    tag_38:\n        /* \"#utility.yul\":566:567   */\n      0x00\n        /* \"#utility.yul\":563:564   */\n      dup1\n        /* \"#utility.yul\":556:568   */\n      revert\n        /* \"#utility.yul\":580:682   */\n    tag_39:\n        /* \"#utility.yul\":621:627   */\n      0x00\n        /* \"#utility.yul\":672:674   */\n      0x1f\n        /* \"#utility.yul\":668:675   */\n      not\n        /* \"#utility.yul\":663:665   */\n      0x1f\n        /* \"#utility.yul\":656:661   */\n      dup4\n        /* \"#utility.yul\":652:666   */\n      add\n        /* \"#utility.yul\":648:676   */\n      and\n        /* \"#utility.yul\":638:676   */\n      swap1\n      pop\n        /* \"#utility.yul\":580:682   */\n      swap2\n      swap1\n      pop\n      jump\t// out\n        /* \"#utility.yul\":688:868   */\n    tag_40:\n        /* \"#utility.yul\":736:813   */\n      0x4e487b7100000000000000000000000000000000000000000000000000000000\n        /* \"#utility.yul\":733:734   */\n      0x00\n        /* \"#utility.yul\":726:814   */\n      mstore\n        /* \"#utility.yul\":833:837   */\n      0x41\n        /* \"#utility.yul\":830:831   */\n      0x04\n        /* \"#utility.yul\":823:838   */\n      mstore\n        /* \"#utility.yul\":857:861   */\n      0x24\n        /* \"#utility.yul\":854:855   */\n      0x00\n        /* \"#utility.yul\":847:862   */\n      revert\n        /* \"#utility.yul\":874:1155   */\n    tag_41:\n        /* \"#utility.yul\":957:984   */\n      tag_92\n        /* \"#utility.yul\":979:983   */\n      dup3\n        /* \"#utility.yul\":957:984   */\n      tag_39\n      jump\t// in\n    tag_92:\n        /* \"#utility.yul\":949:955   */\n      dup2\n        /* \"#utility.yul\":945:985   */\n      add\n        /* \"#utility.yul\":1087:1093   */\n      dup2\n        /* \"#utility.yul\":1075:1085   */\n      dup2\n        /* \"#utility.yul\":1072:1094   */\n      lt\n        /* \"#utility.yul\":1051:1069   */\n      0xffffffffffffffff\n        /* \"#utility.yul\":1039:1049   */\n      dup3\n        /* \"#utility.yul\":1036:1070   */\n      gt\n        /* \"#utility.yul\":1033:1095   */\n      or\n        /* \"#utility.yul\":1030:1118   */\n      iszero\n      tag_93\n      jumpi\n        /* \"#utility.yul\":1098:1116   */\n      tag_94\n      tag_40\n      jump\t// in\n    tag_94:\n        /* \"#utility.yul\":1030:1118   */\n    tag_93:\n        /* \"#utility.yul\":1138:1148   */\n      dup1\n        /* \"#utility.yul\":1134:1136   */\n      0x40\n        /* \"#utility.yul\":1127:1149   */\n      mstore\n        /* \"#utility.yul\":917:1155   */\n      pop\n        /* \"#utility.yul\":874:1155   */\n      pop\n      pop\n      jump\t// out\n        /* \"#utility.yul\":1161:1290   */\n    tag_42:\n        /* \"#utility.yul\":1195:1201   */\n      0x00\n        /* \"#utility.yul\":1222:1242   */\n      tag_96\n      tag_34\n      jump\t// in\n    tag_96:\n        /* \"#utility.yul\":1212:1242   */\n      swap1\n      pop\n        /* \"#utility.yul\":1251:1284   */\n      tag_97\n        /* \"#utility.yul\":1279:1283   */\n      dup3\n        /* \"#utility.yul\":1271:1277   */\n      dup3\n        /* \"#utility.yul\":1251:1284   */\n      tag_41\n      jump\t// in\n    tag_97:\n        /* \"#utility.yul\":1161:1290   */\n      swap2\n      swap1\n      pop\n      jump\t// out\n        /* \"#utility.yul\":1296:1604   */\n    tag_43:\n        /* \"#utility.yul\":1358:1362   */\n      0x00\n        /* \"#utility.yul\":1448:1466   */\n      0xffffffffffffffff\n        /* \"#utility.yul\":1440:1446   */\n      dup3\n        /* \"#utility.yul\":1437:1467   */\n      gt\n        /* \"#utility.yul\":1434:1490   */\n      iszero\n      tag_99\n      jumpi\n        /* \"#utility.yul\":1470:1488   */\n      tag_100\n      tag_40\n      jump\t// in\n    tag_100:\n        /* \"#utility.yul\":1434:1490   */\n    tag_99:\n        /* \"#utility.yul\":1508:1537   */\n      tag_101\n        /* \"#utility.yul\":1530:1536   */\n      dup3\n        /* \"#utility.yul\":1508:1537   */\n      tag_39\n      jump\t// in\n    tag_101:\n        /* \"#utility.yul\":1500:1537   */\n      swap1\n      pop\n        /* \"#utility.yul\":1592:1596   */\n      0x20\n        /* \"#utility.yul\":1586:1590   */\n      dup2\n        /* \"#utility.yul\":1582:1597   */\n      add\n        /* \"#utility.yul\":1574:1597   */\n      swap1\n      pop\n        /* \"#utility.yul\":1296:1604   */\n      swap2\n      swap1\n      pop\n      jump\t// out\n        /* \"#utility.yul\":1610:1758   */\n    tag_44:\n        /* \"#utility.yul\":1708:1714   */\n      dup3\n        /* \"#utility.yul\":1703:1706   */\n      dup2\n        /* \"#utility.yul\":1698:1701   */\n      dup4\n        /* \"#utility.yul\":1685:1715   */\n      calldatacopy\n        /* \"#utility.yul\":1749:1750   */\n      0x00\n        /* \"#utility.yul\":1740:1746   */\n      dup4\n        /* \"#utility.yul\":1735:1738   */\n      dup4\n        /* \"#utility.yul\":1731:1747   */\n      add\n        /* \"#utility.yul\":1724:1751   */\n      mstore\n        /* \"#utility.yul\":1610:1758   */\n      pop\n      pop\n      pop\n      jump\t// out\n        /* \"#utility.yul\":1764:2189   */\n    tag_45:\n        /* \"#utility.yul\":1842:1847   */\n      0x00\n        /* \"#utility.yul\":1867:1933   */\n      tag_104\n        /* \"#utility.yul\":1883:1932   */\n      tag_105\n        /* \"#utility.yul\":1925:1931   */\n      dup5\n        /* \"#utility.yul\":1883:1932   */\n      tag_43\n      jump\t// in\n    tag_105:\n        /* \"#utility.yul\":1867:1933   */\n      tag_42\n      jump\t// in\n    tag_104:\n        /* \"#utility.yul\":1858:1933   */\n      swap1\n      pop\n        /* \"#utility.yul\":1956:1962   */\n      dup3\n        /* \"#utility.yul\":1949:1954   */\n      dup2\n        /* \"#utility.yul\":1942:1963   */\n      mstore\n        /* \"#utility.yul\":1994:1998   */\n      0x20\n        /* \"#utility.yul\":1987:1992   */\n      dup2\n        /* \"#utility.yul\":1983:1999   */\n      add\n        /* \"#utility.yul\":2032:2035   */\n      dup5\n        /* \"#utility.yul\":2023:2029   */\n      dup5\n        /* \"#utility.yul\":2018:2021   */\n      dup5\n        /* \"#utility.yul\":2014:2030   */\n      add\n        /* \"#utility.yul\":2011:2036   */\n      gt\n        /* \"#utility.yul\":2008:2120   */\n      iszero\n      tag_106\n      jumpi\n        /* \"#utility.yul\":2039:2118   */\n      tag_107\n      tag_38\n      jump\t// in\n    tag_107:\n        /* \"#utility.yul\":2008:2120   */\n    tag_106:\n        /* \"#utility.yul\":2129:2183   */\n      tag_108\n        /* \"#utility.yul\":2176:2182   */\n      dup5\n        /* \"#utility.yul\":2171:2174   */\n      dup3\n        /* \"#utility.yul\":2166:2169   */\n      dup6\n        /* \"#utility.yul\":2129:2183   */\n      tag_44\n      jump\t// in\n    tag_108:\n        /* \"#utility.yul\":1848:2189   */\n      pop\n        /* \"#utility.yul\":1764:2189   */\n      swap4\n      swap3\n      pop\n      pop\n      pop\n      jump\t// out\n        /* \"#utility.yul\":2209:2549   */\n    tag_46:\n        /* \"#utility.yul\":2265:2270   */\n      0x00\n        /* \"#utility.yul\":2314:2317   */\n      dup3\n        /* \"#utility.yul\":2307:2311   */\n      0x1f\n        /* \"#utility.yul\":2299:2305   */\n      dup4\n        /* \"#utility.yul\":2295:2312   */\n      add\n        /* \"#utility.yul\":2291:2318   */\n      slt\n        /* \"#utility.yul\":2281:2403   */\n      tag_110\n      jumpi\n        /* \"#utility.yul\":2322:2401   */\n      tag_111\n      tag_37\n      jump\t// in\n    tag_111:\n        /* \"#utility.yul\":2281:2403   */\n    tag_110:\n        /* \"#utility.yul\":2439:2445   */\n      dup2\n        /* \"#utility.yul\":2426:2446   */\n      calldataload\n        /* \"#utility.yul\":2464:2543   */\n      tag_112\n        /* \"#utility.yul\":2539:2542   */\n      dup5\n        /* \"#utility.yul\":2531:2537   */\n      dup3\n        /* \"#utility.yul\":2524:2528   */\n      0x20\n        /* \"#utility.yul\":2516:2522   */\n      dup7\n        /* \"#utility.yul\":2512:2529   */\n      add\n        /* \"#utility.yul\":2464:2543   */\n      tag_45\n      jump\t// in\n    tag_112:\n        /* \"#utility.yul\":2455:2543   */\n      swap2\n      pop\n        /* \"#utility.yul\":2271:2549   */\n      pop\n        /* \"#utility.yul\":2209:2549   */\n      swap3\n      swap2\n      pop\n      pop\n      jump\t// out\n        /* \"#utility.yul\":2555:2660   */\n    tag_47:\n        /* \"#utility.yul\":2634:2635   */\n      0x04\n        /* \"#utility.yul\":2627:2632   */\n      dup2\n        /* \"#utility.yul\":2624:2636   */\n      lt\n        /* \"#utility.yul\":2614:2654   */\n      tag_114\n      jumpi\n        /* \"#utility.yul\":2650:2651   */\n      0x00\n        /* \"#utility.yul\":2647:2648   */\n      dup1\n        /* \"#utility.yul\":2640:2652   */\n      revert\n        /* \"#utility.yul\":2614:2654   */\n    tag_114:\n        /* \"#utility.yul\":2555:2660   */\n      pop\n      jump\t// out\n        /* \"#utility.yul\":2666:2817   */\n    tag_48:\n        /* \"#utility.yul\":2718:2723   */\n      0x00\n        /* \"#utility.yul\":2756:2762   */\n      dup2\n        /* \"#utility.yul\":2743:2763   */\n      calldataload\n        /* \"#utility.yul\":2734:2763   */\n      swap1\n      pop\n        /* \"#utility.yul\":2772:2811   */\n      tag_116\n        /* \"#utility.yul\":2805:2810   */\n      dup2\n        /* \"#utility.yul\":2772:2811   */\n      tag_47\n      jump\t// in\n    tag_116:\n        /* \"#utility.yul\":2666:2817   */\n      swap3\n      swap2\n      pop\n      pop\n      jump\t// out\n        /* \"#utility.yul\":2823:3489   */\n    tag_7:\n        /* \"#utility.yul\":2907:2913   */\n      0x00\n        /* \"#utility.yul\":2915:2921   */\n      dup1\n        /* \"#utility.yul\":2964:2966   */\n      0x40\n        /* \"#utility.yul\":2952:2961   */\n      dup4\n        /* \"#utility.yul\":2943:2950   */\n      dup6\n        /* \"#utility.yul\":2939:2962   */\n      sub\n        /* \"#utility.yul\":2935:2967   */\n      slt\n        /* \"#utility.yul\":2932:3051   */\n      iszero\n      tag_118\n      jumpi\n        /* \"#utility.yul\":2970:3049   */\n      tag_119\n      tag_35\n      jump\t// in\n    tag_119:\n        /* \"#utility.yul\":2932:3051   */\n    tag_118:\n        /* \"#utility.yul\":3118:3119   */\n      0x00\n        /* \"#utility.yul\":3107:3116   */\n      dup4\n        /* \"#utility.yul\":3103:3120   */\n      add\n        /* \"#utility.yul\":3090:3121   */\n      calldataload\n        /* \"#utility.yul\":3148:3166   */\n      0xffffffffffffffff\n        /* \"#utility.yul\":3140:3146   */\n      dup2\n        /* \"#utility.yul\":3137:3167   */\n      gt\n        /* \"#utility.yul\":3134:3251   */\n      iszero\n      tag_120\n      jumpi\n        /* \"#utility.yul\":3170:3249   */\n      tag_121\n      tag_36\n      jump\t// in\n    tag_121:\n        /* \"#utility.yul\":3134:3251   */\n    tag_120:\n        /* \"#utility.yul\":3275:3338   */\n      tag_122\n        /* \"#utility.yul\":3330:3337   */\n      dup6\n        /* \"#utility.yul\":3321:3327   */\n      dup3\n        /* \"#utility.yul\":3310:3319   */\n      dup7\n        /* \"#utility.yul\":3306:3328   */\n      add\n        /* \"#utility.yul\":3275:3338   */\n      tag_46\n      jump\t// in\n    tag_122:\n        /* \"#utility.yul\":3265:3338   */\n      swap3\n      pop\n        /* \"#utility.yul\":3061:3348   */\n      pop\n        /* \"#utility.yul\":3387:3389   */\n      0x20\n        /* \"#utility.yul\":3413:3472   */\n      tag_123\n        /* \"#utility.yul\":3464:3471   */\n      dup6\n        /* \"#utility.yul\":3455:3461   */\n      dup3\n        /* \"#utility.yul\":3444:3453   */\n      dup7\n        /* \"#utility.yul\":3440:3462   */\n      add\n        /* \"#utility.yul\":3413:3472   */\n      tag_48\n      jump\t// in\n    tag_123:\n        /* \"#utility.yul\":3403:3472   */\n      swap2\n      pop\n        /* \"#utility.yul\":3358:3482   */\n      pop\n        /* \"#utility.yul\":2823:3489   */\n      swap3\n      pop\n      swap3\n      swap1\n      pop\n      jump\t// out\n        /* \"#utility.yul\":3495:3621   */\n    tag_49:\n        /* \"#utility.yul\":3532:3539   */\n      0x00\n        /* \"#utility.yul\":3572:3614   */\n      0xffffffffffffffffffffffffffffffffffffffff\n        /* \"#utility.yul\":3565:3570   */\n      dup3\n        /* \"#utility.yul\":3561:3615   */\n      and\n        /* \"#utility.yul\":3550:3615   */\n      swap1\n      pop\n        /* \"#utility.yul\":3495:3621   */\n      swap2\n      swap1\n      pop\n      jump\t// out\n        /* \"#utility.yul\":3627:3723   */\n    tag_50:\n        /* \"#utility.yul\":3664:3671   */\n      0x00\n        /* \"#utility.yul\":3693:3717   */\n      tag_126\n        /* \"#utility.yul\":3711:3716   */\n      dup3\n        /* \"#utility.yul\":3693:3717   */\n      tag_49\n      jump\t// in\n    tag_126:\n        /* \"#utility.yul\":3682:3717   */\n      swap1\n      pop\n        /* \"#utility.yul\":3627:3723   */\n      swap2\n      swap1\n      pop\n      jump\t// out\n        /* \"#utility.yul\":3729:3851   */\n    tag_51:\n        /* \"#utility.yul\":3802:3826   */\n      tag_128\n        /* \"#utility.yul\":3820:3825   */\n      dup2\n        /* \"#utility.yul\":3802:3826   */\n      tag_50\n      jump\t// in\n    tag_128:\n        /* \"#utility.yul\":3795:3800   */\n      dup2\n        /* \"#utility.yul\":3792:3827   */\n      eq\n        /* \"#utility.yul\":3782:3845   */\n      tag_129\n      jumpi\n        /* \"#utility.yul\":3841:3842   */\n      0x00\n        /* \"#utility.yul\":3838:3839   */\n      dup1\n        /* \"#utility.yul\":3831:3843   */\n      revert\n        /* \"#utility.yul\":3782:3845   */\n    tag_129:\n        /* \"#utility.yul\":3729:3851   */\n      pop\n      jump\t// out\n        /* \"#utility.yul\":3857:3996   */\n    tag_52:\n        /* \"#utility.yul\":3903:3908   */\n      0x00\n        /* \"#utility.yul\":3941:3947   */\n      dup2\n        /* \"#utility.yul\":3928:3948   */\n      calldataload\n        /* \"#utility.yul\":3919:3948   */\n      swap1\n      pop\n        /* \"#utility.yul\":3957:3990   */\n      tag_131\n        /* \"#utility.yul\":3984:3989   */\n      dup2\n        /* \"#utility.yul\":3957:3990   */\n      tag_51\n      jump\t// in\n    tag_131:\n        /* \"#utility.yul\":3857:3996   */\n      swap3\n      swap2\n      pop\n      pop\n      jump\t// out\n        /* \"#utility.yul\":4002:4331   */\n    tag_11:\n        /* \"#utility.yul\":4061:4067   */\n      0x00\n        /* \"#utility.yul\":4110:4112   */\n      0x20\n        /* \"#utility.yul\":4098:4107   */\n      dup3\n        /* \"#utility.yul\":4089:4096   */\n      dup5\n        /* \"#utility.yul\":4085:4108   */\n      sub\n        /* \"#utility.yul\":4081:4113   */\n      slt\n        /* \"#utility.yul\":4078:4197   */\n      iszero\n      tag_133\n      jumpi\n        /* \"#utility.yul\":4116:4195   */\n      tag_134\n      tag_35\n      jump\t// in\n    tag_134:\n        /* \"#utility.yul\":4078:4197   */\n    tag_133:\n        /* \"#utility.yul\":4236:4237   */\n      0x00\n        /* \"#utility.yul\":4261:4314   */\n      tag_135\n        /* \"#utility.yul\":4306:4313   */\n      dup5\n        /* \"#utility.yul\":4297:4303   */\n      dup3\n        /* \"#utility.yul\":4286:4295   */\n      dup6\n        /* \"#utility.yul\":4282:4304   */\n      add\n        /* \"#utility.yul\":4261:4314   */\n      tag_52\n      jump\t// in\n    tag_135:\n        /* \"#utility.yul\":4251:4314   */\n      swap2\n      pop\n        /* \"#utility.yul\":4207:4324   */\n      pop\n        /* \"#utility.yul\":4002:4331   */\n      swap3\n      swap2\n      pop\n      pop\n      jump\t// out\n        /* \"#utility.yul\":4337:4436   */\n    tag_53:\n        /* \"#utility.yul\":4389:4395   */\n      0x00\n        /* \"#utility.yul\":4423:4428   */\n      dup2\n        /* \"#utility.yul\":4417:4429   */\n      mload\n        /* \"#utility.yul\":4407:4429   */\n      swap1\n      pop\n        /* \"#utility.yul\":4337:4436   */\n      swap2\n      swap1\n      pop\n      jump\t// out\n        /* \"#utility.yul\":4442:4611   */\n    tag_54:\n        /* \"#utility.yul\":4526:4537   */\n      0x00\n        /* \"#utility.yul\":4560:4566   */\n      dup3\n        /* \"#utility.yul\":4555:4558   */\n      dup3\n        /* \"#utility.yul\":4548:4567   */\n      mstore\n        /* \"#utility.yul\":4600:4604   */\n      0x20\n        /* \"#utility.yul\":4595:4598   */\n      dup3\n        /* \"#utility.yul\":4591:4605   */\n      add\n        /* \"#utility.yul\":4576:4605   */\n      swap1\n      pop\n        /* \"#utility.yul\":4442:4611   */\n      swap3\n      swap2\n      pop\n      pop\n      jump\t// out\n        /* \"#utility.yul\":4617:4756   */\n    tag_55:\n        /* \"#utility.yul\":4706:4712   */\n      dup3\n        /* \"#utility.yul\":4701:4704   */\n      dup2\n        /* \"#utility.yul\":4696:4699   */\n      dup4\n        /* \"#utility.yul\":4690:4713   */\n      mcopy\n        /* \"#utility.yul\":4747:4748   */\n      0x00\n        /* \"#utility.yul\":4738:4744   */\n      dup4\n        /* \"#utility.yul\":4733:4736   */\n      dup4\n        /* \"#utility.yul\":4729:4745   */\n      add\n        /* \"#utility.yul\":4722:4749   */\n      mstore\n        /* \"#utility.yul\":4617:4756   */\n      pop\n      pop\n      pop\n      jump\t// out\n        /* \"#utility.yul\":4762:5139   */\n    tag_56:\n        /* \"#utility.yul\":4850:4853   */\n      0x00\n        /* \"#utility.yul\":4878:4917   */\n      tag_140\n        /* \"#utility.yul\":4911:4916   */\n      dup3\n        /* \"#utility.yul\":4878:4917   */\n      tag_53\n      jump\t// in\n    tag_140:\n        /* \"#utility.yul\":4933:5004   */\n      tag_141\n        /* \"#utility.yul\":4997:5003   */\n      dup2\n        /* \"#utility.yul\":4992:4995   */\n      dup6\n        /* \"#utility.yul\":4933:5004   */\n      tag_54\n      jump\t// in\n    tag_141:\n        /* \"#utility.yul\":4926:5004   */\n      swap4\n      pop\n        /* \"#utility.yul\":5013:5078   */\n      tag_142\n        /* \"#utility.yul\":5071:5077   */\n      dup2\n        /* \"#utility.yul\":5066:5069   */\n      dup6\n        /* \"#utility.yul\":5059:5063   */\n      0x20\n        /* \"#utility.yul\":5052:5057   */\n      dup7\n        /* \"#utility.yul\":5048:5064   */\n      add\n        /* \"#utility.yul\":5013:5078   */\n      tag_55\n      jump\t// in\n    tag_142:\n        /* \"#utility.yul\":5103:5132   */\n      tag_143\n        /* \"#utility.yul\":5125:5131   */\n      dup2\n        /* \"#utility.yul\":5103:5132   */\n      tag_39\n      jump\t// in\n    tag_143:\n        /* \"#utility.yul\":5098:5101   */\n      dup5\n        /* \"#utility.yul\":5094:5133   */\n      add\n        /* \"#utility.yul\":5087:5133   */\n      swap2\n      pop\n        /* \"#utility.yul\":4854:5139   */\n      pop\n        /* \"#utility.yul\":4762:5139   */\n      swap3\n      swap2\n      pop\n      pop\n      jump\t// out\n        /* \"#utility.yul\":5145:5263   */\n    tag_57:\n        /* \"#utility.yul\":5232:5256   */\n      tag_145\n        /* \"#utility.yul\":5250:5255   */\n      dup2\n        /* \"#utility.yul\":5232:5256   */\n      tag_50\n      jump\t// in\n    tag_145:\n        /* \"#utility.yul\":5227:5230   */\n      dup3\n        /* \"#utility.yul\":5220:5257   */\n      mstore\n        /* \"#utility.yul\":5145:5263   */\n      pop\n      pop\n      jump\t// out\n        /* \"#utility.yul\":5269:5449   */\n    tag_21:\n        /* \"#utility.yul\":5317:5394   */\n      0x4e487b7100000000000000000000000000000000000000000000000000000000\n        /* \"#utility.yul\":5314:5315   */\n      0x00\n        /* \"#utility.yul\":5307:5395   */\n      mstore\n        /* \"#utility.yul\":5414:5418   */\n      0x21\n        /* \"#utility.yul\":5411:5412   */\n      0x04\n        /* \"#utility.yul\":5404:5419   */\n      mstore\n        /* \"#utility.yul\":5438:5442   */\n      0x24\n        /* \"#utility.yul\":5435:5436   */\n      0x00\n        /* \"#utility.yul\":5428:5443   */\n      revert\n        /* \"#utility.yul\":5455:5566   */\n    tag_58:\n        /* \"#utility.yul\":5534:5535   */\n      0x04\n        /* \"#utility.yul\":5527:5532   */\n      dup2\n        /* \"#utility.yul\":5524:5536   */\n      lt\n        /* \"#utility.yul\":5514:5560   */\n      tag_148\n      jumpi\n        /* \"#utility.yul\":5540:5558   */\n      tag_149\n      tag_21\n      jump\t// in\n    tag_149:\n        /* \"#utility.yul\":5514:5560   */\n    tag_148:\n        /* \"#utility.yul\":5455:5566   */\n      pop\n      jump\t// out\n        /* \"#utility.yul\":5572:5695   */\n    tag_59:\n        /* \"#utility.yul\":5615:5622   */\n      0x00\n        /* \"#utility.yul\":5644:5649   */\n      dup2\n        /* \"#utility.yul\":5633:5649   */\n      swap1\n      pop\n        /* \"#utility.yul\":5650:5689   */\n      tag_151\n        /* \"#utility.yul\":5683:5688   */\n      dup3\n        /* \"#utility.yul\":5650:5689   */\n      tag_58\n      jump\t// in\n    tag_151:\n        /* \"#utility.yul\":5572:5695   */\n      swap2\n      swap1\n      pop\n      jump\t// out\n        /* \"#utility.yul\":5701:5824   */\n    tag_60:\n        /* \"#utility.yul\":5755:5764   */\n      0x00\n        /* \"#utility.yul\":5788:5818   */\n      tag_153\n        /* \"#utility.yul\":5812:5817   */\n      dup3\n        /* \"#utility.yul\":5788:5818   */\n      tag_59\n      jump\t// in\n    tag_153:\n        /* \"#utility.yul\":5775:5818   */\n      swap1\n      pop\n        /* \"#utility.yul\":5701:5824   */\n      swap2\n      swap1\n      pop\n      jump\t// out\n        /* \"#utility.yul\":5830:5969   */\n    tag_61:\n        /* \"#utility.yul\":5921:5962   */\n      tag_155\n        /* \"#utility.yul\":5956:5961   */\n      dup2\n        /* \"#utility.yul\":5921:5962   */\n      tag_60\n      jump\t// in\n    tag_155:\n        /* \"#utility.yul\":5916:5919   */\n      dup3\n        /* \"#utility.yul\":5909:5963   */\n      mstore\n        /* \"#utility.yul\":5830:5969   */\n      pop\n      pop\n      jump\t// out\n        /* \"#utility.yul\":5975:6065   */\n    tag_62:\n        /* \"#utility.yul\":6009:6016   */\n      0x00\n        /* \"#utility.yul\":6052:6057   */\n      dup2\n        /* \"#utility.yul\":6045:6058   */\n      iszero\n        /* \"#utility.yul\":6038:6059   */\n      iszero\n        /* \"#utility.yul\":6027:6059   */\n      swap1\n      pop\n        /* \"#utility.yul\":5975:6065   */\n      swap2\n      swap1\n      pop\n      jump\t// out\n        /* \"#utility.yul\":6071:6180   */\n    tag_63:\n        /* \"#utility.yul\":6152:6173   */\n      tag_158\n        /* \"#utility.yul\":6167:6172   */\n      dup2\n        /* \"#utility.yul\":6152:6173   */\n      tag_62\n      jump\t// in\n    tag_158:\n        /* \"#utility.yul\":6147:6150   */\n      dup3\n        /* \"#utility.yul\":6140:6174   */\n      mstore\n        /* \"#utility.yul\":6071:6180   */\n      pop\n      pop\n      jump\t// out\n        /* \"#utility.yul\":6186:6826   */\n    tag_14:\n        /* \"#utility.yul\":6381:6385   */\n      0x00\n        /* \"#utility.yul\":6419:6422   */\n      0x80\n        /* \"#utility.yul\":6408:6417   */\n      dup3\n        /* \"#utility.yul\":6404:6423   */\n      add\n        /* \"#utility.yul\":6396:6423   */\n      swap1\n      pop\n        /* \"#utility.yul\":6469:6478   */\n      dup2\n        /* \"#utility.yul\":6463:6467   */\n      dup2\n        /* \"#utility.yul\":6459:6479   */\n      sub\n        /* \"#utility.yul\":6455:6456   */\n      0x00\n        /* \"#utility.yul\":6444:6453   */\n      dup4\n        /* \"#utility.yul\":6440:6457   */\n      add\n        /* \"#utility.yul\":6433:6480   */\n      mstore\n        /* \"#utility.yul\":6497:6575   */\n      tag_160\n        /* \"#utility.yul\":6570:6574   */\n      dup2\n        /* \"#utility.yul\":6561:6567   */\n      dup8\n        /* \"#utility.yul\":6497:6575   */\n      tag_56\n      jump\t// in\n    tag_160:\n        /* \"#utility.yul\":6489:6575   */\n      swap1\n      pop\n        /* \"#utility.yul\":6585:6657   */\n      tag_161\n        /* \"#utility.yul\":6653:6655   */\n      0x20\n        /* \"#utility.yul\":6642:6651   */\n      dup4\n        /* \"#utility.yul\":6638:6656   */\n      add\n        /* \"#utility.yul\":6629:6635   */\n      dup7\n        /* \"#utility.yul\":6585:6657   */\n      tag_57\n      jump\t// in\n    tag_161:\n        /* \"#utility.yul\":6667:6743   */\n      tag_162\n        /* \"#utility.yul\":6739:6741   */\n      0x40\n        /* \"#utility.yul\":6728:6737   */\n      dup4\n        /* \"#utility.yul\":6724:6742   */\n      add\n        /* \"#utility.yul\":6715:6721   */\n      dup6\n        /* \"#utility.yul\":6667:6743   */\n      tag_61\n      jump\t// in\n    tag_162:\n        /* \"#utility.yul\":6753:6819   */\n      tag_163\n        /* \"#utility.yul\":6815:6817   */\n      0x60\n        /* \"#utility.yul\":6804:6813   */\n      dup4\n        /* \"#utility.yul\":6800:6818   */\n      add\n        /* \"#utility.yul\":6791:6797   */\n      dup5\n        /* \"#utility.yul\":6753:6819   */\n      tag_63\n      jump\t// in\n    tag_163:\n        /* \"#utility.yul\":6186:6826   */\n      swap6\n      swap5\n      pop\n      pop\n      pop\n      pop\n      pop\n      jump\t// out\n        /* \"#utility.yul\":6832:7005   */\n    tag_64:\n        /* \"#utility.yul\":6972:6997   */\n      0x5573657220616c72656164792072656769737465726564000000000000000000\n        /* \"#utility.yul\":6968:6969   */\n      0x00\n        /* \"#utility.yul\":6960:6966   */\n      dup3\n        /* \"#utility.yul\":6956:6970   */\n      add\n        /* \"#utility.yul\":6949:6998   */\n      mstore\n        /* \"#utility.yul\":6832:7005   */\n      pop\n      jump\t// out\n        /* \"#utility.yul\":7011:7377   */\n    tag_65:\n        /* \"#utility.yul\":7153:7156   */\n      0x00\n        /* \"#utility.yul\":7174:7241   */\n      tag_166\n        /* \"#utility.yul\":7238:7240   */\n      0x17\n        /* \"#utility.yul\":7233:7236   */\n      dup4\n        /* \"#utility.yul\":7174:7241   */\n      tag_54\n      jump\t// in\n    tag_166:\n        /* \"#utility.yul\":7167:7241   */\n      swap2\n      pop\n        /* \"#utility.yul\":7250:7343   */\n      tag_167\n        /* \"#utility.yul\":7339:7342   */\n      dup3\n        /* \"#utility.yul\":7250:7343   */\n      tag_64\n      jump\t// in\n    tag_167:\n        /* \"#utility.yul\":7368:7370   */\n      0x20\n        /* \"#utility.yul\":7363:7366   */\n      dup3\n        /* \"#utility.yul\":7359:7371   */\n      add\n        /* \"#utility.yul\":7352:7371   */\n      swap1\n      pop\n        /* \"#utility.yul\":7011:7377   */\n      swap2\n      swap1\n      pop\n      jump\t// out\n        /* \"#utility.yul\":7383:7802   */\n    tag_18:\n        /* \"#utility.yul\":7549:7553   */\n      0x00\n        /* \"#utility.yul\":7587:7589   */\n      0x20\n        /* \"#utility.yul\":7576:7585   */\n      dup3\n        /* \"#utility.yul\":7572:7590   */\n      add\n        /* \"#utility.yul\":7564:7590   */\n      swap1\n      pop\n        /* \"#utility.yul\":7636:7645   */\n      dup2\n        /* \"#utility.yul\":7630:7634   */\n      dup2\n        /* \"#utility.yul\":7626:7646   */\n      sub\n        /* \"#utility.yul\":7622:7623   */\n      0x00\n        /* \"#utility.yul\":7611:7620   */\n      dup4\n        /* \"#utility.yul\":7607:7624   */\n      add\n        /* \"#utility.yul\":7600:7647   */\n      mstore\n        /* \"#utility.yul\":7664:7795   */\n      tag_169\n        /* \"#utility.yul\":7790:7794   */\n      dup2\n        /* \"#utility.yul\":7664:7795   */\n      tag_65\n      jump\t// in\n    tag_169:\n        /* \"#utility.yul\":7656:7795   */\n      swap1\n      pop\n        /* \"#utility.yul\":7383:7802   */\n      swap2\n      swap1\n      pop\n      jump\t// out\n        /* \"#utility.yul\":7808:7988   */\n    tag_66:\n        /* \"#utility.yul\":7856:7933   */\n      0x4e487b7100000000000000000000000000000000000000000000000000000000\n        /* \"#utility.yul\":7853:7854   */\n      0x00\n        /* \"#utility.yul\":7846:7934   */\n      mstore\n        /* \"#utility.yul\":7953:7957   */\n      0x22\n        /* \"#utility.yul\":7950:7951   */\n      0x04\n        /* \"#utility.yul\":7943:7958   */\n      mstore\n        /* \"#utility.yul\":7977:7981   */\n      0x24\n        /* \"#utility.yul\":7974:7975   */\n      0x00\n        /* \"#utility.yul\":7967:7982   */\n      revert\n        /* \"#utility.yul\":7994:8314   */\n    tag_29:\n        /* \"#utility.yul\":8038:8044   */\n      0x00\n        /* \"#utility.yul\":8075:8076   */\n      0x02\n        /* \"#utility.yul\":8069:8073   */\n      dup3\n        /* \"#utility.yul\":8065:8077   */\n      div\n        /* \"#utility.yul\":8055:8077   */\n      swap1\n      pop\n        /* \"#utility.yul\":8122:8123   */\n      0x01\n        /* \"#utility.yul\":8116:8120   */\n      dup3\n        /* \"#utility.yul\":8112:8124   */\n      and\n        /* \"#utility.yul\":8143:8161   */\n      dup1\n        /* \"#utility.yul\":8133:8214   */\n      tag_172\n      jumpi\n        /* \"#utility.yul\":8199:8203   */\n      0x7f\n        /* \"#utility.yul\":8191:8197   */\n      dup3\n        /* \"#utility.yul\":8187:8204   */\n      and\n        /* \"#utility.yul\":8177:8204   */\n      swap2\n      pop\n        /* \"#utility.yul\":8133:8214   */\n    tag_172:\n        /* \"#utility.yul\":8261:8263   */\n      0x20\n        /* \"#utility.yul\":8253:8259   */\n      dup3\n        /* \"#utility.yul\":8250:8264   */\n      lt\n        /* \"#utility.yul\":8230:8248   */\n      dup2\n        /* \"#utility.yul\":8227:8265   */\n      sub\n        /* \"#utility.yul\":8224:8308   */\n      tag_173\n      jumpi\n        /* \"#utility.yul\":8280:8298   */\n      tag_174\n      tag_66\n      jump\t// in\n    tag_174:\n        /* \"#utility.yul\":8224:8308   */\n    tag_173:\n        /* \"#utility.yul\":8045:8314   */\n      pop\n        /* \"#utility.yul\":7994:8314   */\n      swap2\n      swap1\n      pop\n      jump\t// out\n        /* \"#utility.yul\":8320:8461   */\n    tag_67:\n        /* \"#utility.yul\":8369:8373   */\n      0x00\n        /* \"#utility.yul\":8392:8395   */\n      dup2\n        /* \"#utility.yul\":8384:8395   */\n      swap1\n      pop\n        /* \"#utility.yul\":8415:8418   */\n      dup2\n        /* \"#utility.yul\":8412:8413   */\n      0x00\n        /* \"#utility.yul\":8405:8419   */\n      mstore\n        /* \"#utility.yul\":8449:8453   */\n      0x20\n        /* \"#utility.yul\":8446:8447   */\n      0x00\n        /* \"#utility.yul\":8436:8454   */\n      keccak256\n        /* \"#utility.yul\":8428:8454   */\n      swap1\n      pop\n        /* \"#utility.yul\":8320:8461   */\n      swap2\n      swap1\n      pop\n      jump\t// out\n        /* \"#utility.yul\":8467:8560   */\n    tag_68:\n        /* \"#utility.yul\":8504:8510   */\n      0x00\n        /* \"#utility.yul\":8551:8553   */\n      0x20\n        /* \"#utility.yul\":8546:8548   */\n      0x1f\n        /* \"#utility.yul\":8539:8544   */\n      dup4\n        /* \"#utility.yul\":8535:8549   */\n      add\n        /* \"#utility.yul\":8531:8554   */\n      div\n        /* \"#utility.yul\":8521:8554   */\n      swap1\n      pop\n        /* \"#utility.yul\":8467:8560   */\n      swap2\n      swap1\n      pop\n      jump\t// out\n        /* \"#utility.yul\":8566:8673   */\n    tag_69:\n        /* \"#utility.yul\":8610:8618   */\n      0x00\n        /* \"#utility.yul\":8660:8665   */\n      dup3\n        /* \"#utility.yul\":8654:8658   */\n      dup3\n        /* \"#utility.yul\":8650:8666   */\n      shl\n        /* \"#utility.yul\":8629:8666   */\n      swap1\n      pop\n        /* \"#utility.yul\":8566:8673   */\n      swap3\n      swap2\n      pop\n      pop\n      jump\t// out\n        /* \"#utility.yul\":8679:9072   */\n    tag_70:\n        /* \"#utility.yul\":8748:8754   */\n      0x00\n        /* \"#utility.yul\":8798:8799   */\n      0x08\n        /* \"#utility.yul\":8786:8796   */\n      dup4\n        /* \"#utility.yul\":8782:8800   */\n      mul\n        /* \"#utility.yul\":8821:8918   */\n      tag_179\n        /* \"#utility.yul\":8851:8917   */\n      0xffffffffffffffffffffffffffffffffffffffffffffffffffffffffffffffff\n        /* \"#utility.yul\":8840:8849   */\n      dup3\n        /* \"#utility.yul\":8821:8918   */\n      tag_69\n      jump\t// in\n    tag_179:\n        /* \"#utility.yul\":8939:8978   */\n      tag_180\n        /* \"#utility.yul\":8969:8977   */\n      dup7\n        /* \"#utility.yul\":8958:8967   */\n      dup4\n        /* \"#utility.yul\":8939:8978   */\n      tag_69\n      jump\t// in\n    tag_180:\n        /* \"#utility.yul\":8927:8978   */\n      swap6\n      pop\n        /* \"#utility.yul\":9011:9015   */\n      dup1\n        /* \"#utility.yul\":9007:9016   */\n      not\n        /* \"#utility.yul\":9000:9005   */\n      dup5\n        /* \"#utility.yul\":8996:9017   */\n      and\n        /* \"#utility.yul\":8987:9017   */\n      swap4\n      pop\n        /* \"#utility.yul\":9060:9064   */\n      dup1\n        /* \"#utility.yul\":9050:9058   */\n      dup7\n        /* \"#utility.yul\":9046:9065   */\n      and\n        /* \"#utility.yul\":9039:9044   */\n      dup5\n        /* \"#utility.yul\":9036:9066   */\n      or\n        /* \"#utility.yul\":9026:9066   */\n      swap3\n      pop\n        /* \"#utility.yul\":8755:9072   */\n      pop\n      pop\n        /* \"#utility.yul\":8679:9072   */\n      swap4\n      swap3\n      pop\n      pop\n      pop\n      jump\t// out\n        /* \"#utility.yul\":9078:9155   */\n    tag_71:\n        /* \"#utility.yul\":9115:9122   */\n      0x00\n        /* \"#utility.yul\":9144:9149   */\n      dup2\n        /* \"#utility.yul\":9133:9149   */\n      swap1\n      pop\n        /* \"#utility.yul\":9078:9155   */\n      swap2\n      swap1\n      pop\n      jump\t// out\n        /* \"#utility.yul\":9161:9221   */\n    tag_72:\n        /* \"#utility.yul\":9189:9192   */\n      0x00\n        /* \"#utility.yul\":9210:9215   */\n      dup2\n        /* \"#utility.yul\":9203:9215   */\n      swap1\n      pop\n        /* \"#utility.yul\":9161:9221   */\n      swap2\n      swap1\n      pop\n      jump\t// out\n        /* \"#utility.yul\":9227:9369   */\n    tag_73:\n        /* \"#utility.yul\":9277:9286   */\n      0x00\n        /* \"#utility.yul\":9310:9363   */\n      tag_184\n        /* \"#utility.yul\":9328:9362   */\n      tag_185\n        /* \"#utility.yul\":9337:9361   */\n      tag_186\n        /* \"#utility.yul\":9355:9360   */\n      dup5\n        /* \"#utility.yul\":9337:9361   */\n      tag_71\n      jump\t// in\n    tag_186:\n        /* \"#utility.yul\":9328:9362   */\n      tag_72\n      jump\t// in\n    tag_185:\n        /* \"#utility.yul\":9310:9363   */\n      tag_71\n      jump\t// in\n    tag_184:\n        /* \"#utility.yul\":9297:9363   */\n      swap1\n      pop\n        /* \"#utility.yul\":9227:9369   */\n      swap2\n      swap1\n      pop\n      jump\t// out\n        /* \"#utility.yul\":9375:9450   */\n    tag_74:\n        /* \"#utility.yul\":9418:9421   */\n      0x00\n        /* \"#utility.yul\":9439:9444   */\n      dup2\n        /* \"#utility.yul\":9432:9444   */\n      swap1\n      pop\n        /* \"#utility.yul\":9375:9450   */\n      swap2\n      swap1\n      pop\n      jump\t// out\n        /* \"#utility.yul\":9456:9725   */\n    tag_75:\n        /* \"#utility.yul\":9566:9605   */\n      tag_189\n        /* \"#utility.yul\":9597:9604   */\n      dup4\n        /* \"#utility.yul\":9566:9605   */\n      tag_73\n      jump\t// in\n    tag_189:\n        /* \"#utility.yul\":9627:9718   */\n      tag_190\n        /* \"#utility.yul\":9676:9717   */\n      tag_191\n        /* \"#utility.yul\":9700:9716   */\n      dup3\n        /* \"#utility.yul\":9676:9717   */\n      tag_74\n      jump\t// in\n    tag_191:\n        /* \"#utility.yul\":9668:9674   */\n      dup5\n        /* \"#utility.yul\":9661:9665   */\n      dup5\n        /* \"#utility.yul\":9655:9666   */\n      sload\n        /* \"#utility.yul\":9627:9718   */\n      tag_70\n      jump\t// in\n    tag_190:\n        /* \"#utility.yul\":9621:9625   */\n      dup3\n        /* \"#utility.yul\":9614:9719   */\n      sstore\n        /* \"#utility.yul\":9532:9725   */\n      pop\n        /* \"#utility.yul\":9456:9725   */\n      pop\n      pop\n      pop\n      jump\t// out\n        /* \"#utility.yul\":9731:9804   */\n    tag_76:\n        /* \"#utility.yul\":9776:9779   */\n      0x00\n        /* \"#utility.yul\":9731:9804   */\n      swap1\n      jump\t// out\n        /* \"#utility.yul\":9810:9999   */\n    tag_77:\n        /* \"#utility.yul\":9887:9919   */\n      tag_194\n      tag_76\n      jump\t// in\n    tag_194:\n        /* \"#utility.yul\":9928:9993   */\n      tag_195\n        /* \"#utility.yul\":9986:9992   */\n      dup2\n        /* \"#utility.yul\":9978:9984   */\n      dup5\n        /* \"#utility.yul\":9972:9976   */\n      dup5\n        /* \"#utility.yul\":9928:9993   */\n      tag_75\n      jump\t// in\n    tag_195:\n        /* \"#utility.yul\":9863:9999   */\n      pop\n        /* \"#utility.yul\":9810:9999   */\n      pop\n      pop\n      jump\t// out\n        /* \"#utility.yul\":10005:10191   */\n    tag_78:\n        /* \"#utility.yul\":10065:10185   */\n    tag_197:\n        /* \"#utility.yul\":10082:10085   */\n      dup2\n        /* \"#utility.yul\":10075:10080   */\n      dup2\n        /* \"#utility.yul\":10072:10086   */\n      lt\n        /* \"#utility.yul\":10065:10185   */\n      iszero\n      tag_199\n      jumpi\n        /* \"#utility.yul\":10136:10175   */\n      tag_200\n        /* \"#utility.yul\":10173:10174   */\n      0x00\n        /* \"#utility.yul\":10166:10171   */\n      dup3\n        /* \"#utility.yul\":10136:10175   */\n      tag_77\n      jump\t// in\n    tag_200:\n        /* \"#utility.yul\":10109:10110   */\n      0x01\n        /* \"#utility.yul\":10102:10107   */\n      dup2\n        /* \"#utility.yul\":10098:10111   */\n      add\n        /* \"#utility.yul\":10089:10111   */\n      swap1\n      pop\n        /* \"#utility.yul\":10065:10185   */\n      jump(tag_197)\n    tag_199:\n        /* \"#utility.yul\":10005:10191   */\n      pop\n      pop\n      jump\t// out\n        /* \"#utility.yul\":10197:10740   */\n    tag_79:\n        /* \"#utility.yul\":10298:10300   */\n      0x1f\n        /* \"#utility.yul\":10293:10296   */\n      dup3\n        /* \"#utility.yul\":10290:10301   */\n      gt\n        /* \"#utility.yul\":10287:10733   */\n      iszero\n      tag_202\n      jumpi\n        /* \"#utility.yul\":10332:10370   */\n      tag_203\n        /* \"#utility.yul\":10364:10369   */\n      dup2\n        /* \"#utility.yul\":10332:10370   */\n      tag_67\n      jump\t// in\n    tag_203:\n        /* \"#utility.yul\":10416:10445   */\n      tag_204\n        /* \"#utility.yul\":10434:10444   */\n      dup5\n        /* \"#utility.yul\":10416:10445   */\n      tag_68\n      jump\t// in\n    tag_204:\n        /* \"#utility.yul\":10406:10414   */\n      dup2\n        /* \"#utility.yul\":10402:10446   */\n      add\n        /* \"#utility.yul\":10599:10601   */\n      0x20\n        /* \"#utility.yul\":10587:10597   */\n      dup6\n        /* \"#utility.yul\":10584:10602   */\n      lt\n        /* \"#utility.yul\":10581:10630   */\n      iszero\n      tag_205\n      jumpi\n        /* \"#utility.yul\":10620:10628   */\n      dup2\n        /* \"#utility.yul\":10605:10628   */\n      swap1\n      pop\n        /* \"#utility.yul\":10581:10630   */\n    tag_205:\n        /* \"#utility.yul\":10643:10723   */\n      tag_206\n        /* \"#utility.yul\":10699:10721   */\n      tag_207\n        /* \"#utility.yul\":10717:10720   */\n      dup6\n        /* \"#utility.yul\":10699:10721   */\n      tag_68\n      jump\t// in\n    tag_207:\n        /* \"#utility.yul\":10689:10697   */\n      dup4\n        /* \"#utility.yul\":10685:10722   */\n      add\n        /* \"#utility.yul\":10672:10683   */\n      dup3\n        /* \"#utility.yul\":10643:10723   */\n      tag_78\n      jump\t// in\n    tag_206:\n        /* \"#utility.yul\":10302:10733   */\n      pop\n      pop\n        /* \"#utility.yul\":10287:10733   */\n    tag_202:\n        /* \"#utility.yul\":10197:10740   */\n      pop\n      pop\n      pop\n      jump\t// out\n        /* \"#utility.yul\":10746:10863   */\n    tag_80:\n        /* \"#utility.yul\":10800:10808   */\n      0x00\n        /* \"#utility.yul\":10850:10855   */\n      dup3\n        /* \"#utility.yul\":10844:10848   */\n      dup3\n        /* \"#utility.yul\":10840:10856   */\n      shr\n        /* \"#utility.yul\":10819:10856   */\n      swap1\n      pop\n        /* \"#utility.yul\":10746:10863   */\n      swap3\n      swap2\n      pop\n      pop\n      jump\t// out\n        /* \"#utility.yul\":10869:11038   */\n    tag_81:\n        /* \"#utility.yul\":10913:10919   */\n      0x00\n        /* \"#utility.yul\":10946:10997   */\n      tag_210\n        /* \"#utility.yul\":10994:10995   */\n      0x00\n        /* \"#utility.yul\":10990:10996   */\n      not\n        /* \"#utility.yul\":10982:10987   */\n      dup5\n        /* \"#utility.yul\":10979:10980   */\n      0x08\n        /* \"#utility.yul\":10975:10988   */\n      mul\n        /* \"#utility.yul\":10946:10997   */\n      tag_80\n      jump\t// in\n    tag_210:\n        /* \"#utility.yul\":10942:10998   */\n      not\n        /* \"#utility.yul\":11027:11031   */\n      dup1\n        /* \"#utility.yul\":11021:11025   */\n      dup4\n        /* \"#utility.yul\":11017:11032   */\n      and\n        /* \"#utility.yul\":11007:11032   */\n      swap2\n      pop\n        /* \"#utility.yul\":10920:11038   */\n      pop\n        /* \"#utility.yul\":10869:11038   */\n      swap3\n      swap2\n      pop\n      pop\n      jump\t// out\n        /* \"#utility.yul\":11043:11338   */\n    tag_82:\n        /* \"#utility.yul\":11119:11123   */\n      0x00\n        /* \"#utility.yul\":11265:11294   */\n      tag_212\n        /* \"#utility.yul\":11290:11293   */\n      dup4\n        /* \"#utility.yul\":11284:11288   */\n      dup4\n        /* \"#utility.yul\":11265:11294   */\n      tag_81\n      jump\t// in\n    tag_212:\n        /* \"#utility.yul\":11257:11294   */\n      swap2\n      pop\n        /* \"#utility.yul\":11327:11330   */\n      dup3\n        /* \"#utility.yul\":11324:11325   */\n      0x02\n        /* \"#utility.yul\":11320:11331   */\n      mul\n        /* \"#utility.yul\":11314:11318   */\n      dup3\n        /* \"#utility.yul\":11311:11332   */\n      or\n        /* \"#utility.yul\":11303:11332   */\n      swap1\n      pop\n        /* \"#utility.yul\":11043:11338   */\n      swap3\n      swap2\n      pop\n      pop\n      jump\t// out\n        /* \"#utility.yul\":11343:12738   */\n    tag_23:\n        /* \"#utility.yul\":11460:11497   */\n      tag_214\n        /* \"#utility.yul\":11493:11496   */\n      dup3\n        /* \"#utility.yul\":11460:11497   */\n      tag_53\n      jump\t// in\n    tag_214:\n        /* \"#utility.yul\":11562:11580   */\n      0xffffffffffffffff\n        /* \"#utility.yul\":11554:11560   */\n      dup2\n        /* \"#utility.yul\":11551:11581   */\n      gt\n        /* \"#utility.yul\":11548:11604   */\n      iszero\n      tag_215\n      jumpi\n        /* \"#utility.yul\":11584:11602   */\n      tag_216\n      tag_40\n      jump\t// in\n    tag_216:\n        /* \"#utility.yul\":11548:11604   */\n    tag_215:\n        /* \"#utility.yul\":11628:11666   */\n      tag_217\n        /* \"#utility.yul\":11660:11664   */\n      dup3\n        /* \"#utility.yul\":11654:11665   */\n      sload\n        /* \"#utility.yul\":11628:11666   */\n      tag_29\n      jump\t// in\n    tag_217:\n        /* \"#utility.yul\":11713:11780   */\n      tag_218\n        /* \"#utility.yul\":11773:11779   */\n      dup3\n        /* \"#utility.yul\":11765:11771   */\n      dup3\n        /* \"#utility.yul\":11759:11763   */\n      dup6\n        /* \"#utility.yul\":11713:11780   */\n      tag_79\n      jump\t// in\n    tag_218:\n        /* \"#utility.yul\":11807:11808   */\n      0x00\n        /* \"#utility.yul\":11831:11835   */\n      0x20\n        /* \"#utility.yul\":11818:11835   */\n      swap1\n      pop\n        /* \"#utility.yul\":11863:11865   */\n      0x1f\n        /* \"#utility.yul\":11855:11861   */\n      dup4\n        /* \"#utility.yul\":11852:11866   */\n      gt\n        /* \"#utility.yul\":11880:11881   */\n      0x01\n        /* \"#utility.yul\":11875:12493   */\n      dup2\n      eq\n      tag_220\n      jumpi\n        /* \"#utility.yul\":12537:12538   */\n      0x00\n        /* \"#utility.yul\":12554:12560   */\n      dup5\n        /* \"#utility.yul\":12551:12628   */\n      iszero\n      tag_221\n      jumpi\n        /* \"#utility.yul\":12603:12612   */\n      dup3\n        /* \"#utility.yul\":12598:12601   */\n      dup8\n        /* \"#utility.yul\":12594:12613   */\n      add\n        /* \"#utility.yul\":12588:12614   */\n      mload\n        /* \"#utility.yul\":12579:12614   */\n      swap1\n      pop\n        /* \"#utility.yul\":12551:12628   */\n    tag_221:\n        /* \"#utility.yul\":12654:12721   */\n      tag_222\n        /* \"#utility.yul\":12714:12720   */\n      dup6\n        /* \"#utility.yul\":12707:12712   */\n      dup3\n        /* \"#utility.yul\":12654:12721   */\n      tag_82\n      jump\t// in\n    tag_222:\n        /* \"#utility.yul\":12648:12652   */\n      dup7\n        /* \"#utility.yul\":12641:12722   */\n      sstore\n        /* \"#utility.yul\":12510:12732   */\n      pop\n        /* \"#utility.yul\":11845:12732   */\n      jump(tag_219)\n        /* \"#utility.yul\":11875:12493   */\n    tag_220:\n        /* \"#utility.yul\":11927:11931   */\n      0x1f\n        /* \"#utility.yul\":11923:11932   */\n      not\n        /* \"#utility.yul\":11915:11921   */\n      dup5\n        /* \"#utility.yul\":11911:11933   */\n      and\n        /* \"#utility.yul\":11961:11998   */\n      tag_223\n        /* \"#utility.yul\":11993:11997   */\n      dup7\n        /* \"#utility.yul\":11961:11998   */\n      tag_67\n      jump\t// in\n    tag_223:\n        /* \"#utility.yul\":12020:12021   */\n      0x00\n        /* \"#utility.yul\":12034:12242   */\n    tag_224:\n        /* \"#utility.yul\":12048:12055   */\n      dup3\n        /* \"#utility.yul\":12045:12046   */\n      dup2\n        /* \"#utility.yul\":12042:12056   */\n      lt\n        /* \"#utility.yul\":12034:12242   */\n      iszero\n      tag_226\n      jumpi\n        /* \"#utility.yul\":12127:12136   */\n      dup5\n        /* \"#utility.yul\":12122:12125   */\n      dup10\n        /* \"#utility.yul\":12118:12137   */\n      add\n        /* \"#utility.yul\":12112:12138   */\n      mload\n        /* \"#utility.yul\":12104:12110   */\n      dup3\n        /* \"#utility.yul\":12097:12139   */\n      sstore\n        /* \"#utility.yul\":12178:12179   */\n      0x01\n        /* \"#utility.yul\":12170:12176   */\n      dup3\n        /* \"#utility.yul\":12166:12180   */\n      add\n        /* \"#utility.yul\":12156:12180   */\n      swap2\n      pop\n        /* \"#utility.yul\":12225:12227   */\n      0x20\n        /* \"#utility.yul\":12214:12223   */\n      dup6\n        /* \"#utility.yul\":12210:12228   */\n      add\n        /* \"#utility.yul\":12197:12228   */\n      swap5\n      pop\n        /* \"#utility.yul\":12071:12075   */\n      0x20\n        /* \"#utility.yul\":12068:12069   */\n      dup2\n        /* \"#utility.yul\":12064:12076   */\n      add\n        /* \"#utility.yul\":12059:12076   */\n      swap1\n      pop\n        /* \"#utility.yul\":12034:12242   */\n      jump(tag_224)\n    tag_226:\n        /* \"#utility.yul\":12270:12276   */\n      dup7\n        /* \"#utility.yul\":12261:12268   */\n      dup4\n        /* \"#utility.yul\":12258:12277   */\n      lt\n        /* \"#utility.yul\":12255:12434   */\n      iszero\n      tag_227\n      jumpi\n        /* \"#utility.yul\":12328:12337   */\n      dup5\n        /* \"#utility.yul\":12323:12326   */\n      dup10\n        /* \"#utility.yul\":12319:12338   */\n      add\n        /* \"#utility.yul\":12313:12339   */\n      mload\n        /* \"#utility.yul\":12371:12419   */\n      tag_228\n        /* \"#utility.yul\":12413:12417   */\n      0x1f\n        /* \"#utility.yul\":12405:12411   */\n      dup10\n        /* \"#utility.yul\":12401:12418   */\n      and\n        /* \"#utility.yul\":12390:12399   */\n      dup3\n        /* \"#utility.yul\":12371:12419   */\n      tag_81\n      jump\t// in\n    tag_228:\n        /* \"#utility.yul\":12363:12369   */\n      dup4\n        /* \"#utility.yul\":12356:12420   */\n      sstore\n        /* \"#utility.yul\":12278:12434   */\n      pop\n        /* \"#utility.yul\":12255:12434   */\n    tag_227:\n        /* \"#utility.yul\":12480:12481   */\n      0x01\n        /* \"#utility.yul\":12476:12477   */\n      0x02\n        /* \"#utility.yul\":12468:12474   */\n      dup9\n        /* \"#utility.yul\":12464:12478   */\n      mul\n        /* \"#utility.yul\":12460:12482   */\n      add\n        /* \"#utility.yul\":12454:12458   */\n      dup9\n        /* \"#utility.yul\":12447:12483   */\n      sstore\n        /* \"#utility.yul\":11882:12493   */\n      pop\n      pop\n      pop\n        /* \"#utility.yul\":11845:12732   */\n    tag_219:\n      pop\n        /* \"#utility.yul\":11435:12738   */\n      pop\n      pop\n      pop\n        /* \"#utility.yul\":11343:12738   */\n      pop\n      pop\n      jump\t// out\n        /* \"#utility.yul\":12744:13175   */\n    tag_27:\n        /* \"#utility.yul\":12889:12893   */\n      0x00\n        /* \"#utility.yul\":12927:12929   */\n      0x40\n        /* \"#utility.yul\":12916:12925   */\n      dup3\n        /* \"#utility.yul\":12912:12930   */\n      add\n        /* \"#utility.yul\":12904:12930   */\n      swap1\n      pop\n        /* \"#utility.yul\":12976:12985   */\n      dup2\n        /* \"#utility.yul\":12970:12974   */\n      dup2\n        /* \"#utility.yul\":12966:12986   */\n      sub\n        /* \"#utility.yul\":12962:12963   */\n      0x00\n        /* \"#utility.yul\":12951:12960   */\n      dup4\n        /* \"#utility.yul\":12947:12964   */\n      add\n        /* \"#utility.yul\":12940:12987   */\n      mstore\n        /* \"#utility.yul\":13004:13082   */\n      tag_230\n        /* \"#utility.yul\":13077:13081   */\n      dup2\n        /* \"#utility.yul\":13068:13074   */\n      dup6\n        /* \"#utility.yul\":13004:13082   */\n      tag_56\n      jump\t// in\n    tag_230:\n        /* \"#utility.yul\":12996:13082   */\n      swap1\n      pop\n        /* \"#utility.yul\":13092:13168   */\n      tag_231\n        /* \"#utility.yul\":13164:13166   */\n      0x20\n        /* \"#utility.yul\":13153:13162   */\n      dup4\n        /* \"#utility.yul\":13149:13167   */\n      add\n        /* \"#utility.yul\":13140:13146   */\n      dup5\n        /* \"#utility.yul\":13092:13168   */\n      tag_61\n      jump\t// in\n    tag_231:\n        /* \"#utility.yul\":12744:13175   */\n      swap4\n      swap3\n      pop\n      pop\n      pop\n      jump\t// out\n\n    auxdata: 0xa2646970667358221220ccbcb517549f9893b0a5dfa6b57e2692773c5d0ce07dfc422f8ad6ff3eefdab264736f6c63430008190033\n}\n",
				"bytecode": {
					"linkReferences": {},
					"object": "6080604052348015600e575f80fd5b50610aba8061001c5f395ff3fe608060405234801561000f575f80fd5b5060043610610034575f3560e01c8063338e12eb14610038578063a87430ba14610054575b5f80fd5b610052600480360381019061004d91906104f7565b610087565b005b61006e600480360381019061006991906105ab565b61029d565b60405161007e94939291906106d2565b60405180910390f35b5f803373ffffffffffffffffffffffffffffffffffffffff1673ffffffffffffffffffffffffffffffffffffffff1681526020019081526020015f2060010160159054906101000a900460ff1615610114576040517f08c379a000000000000000000000000000000000000000000000000000000000815260040161010b90610766565b60405180910390fd5b60405180608001604052808381526020013373ffffffffffffffffffffffffffffffffffffffff16815260200182600381111561015457610153610645565b5b8152602001600115158152505f803373ffffffffffffffffffffffffffffffffffffffff1673ffffffffffffffffffffffffffffffffffffffff1681526020019081526020015f205f820151815f0190816101af9190610987565b506020820151816001015f6101000a81548173ffffffffffffffffffffffffffffffffffffffff021916908373ffffffffffffffffffffffffffffffffffffffff16021790555060408201518160010160146101000a81548160ff0219169083600381111561022157610220610645565b5b021790555060608201518160010160156101000a81548160ff0219169083151502179055509050503373ffffffffffffffffffffffffffffffffffffffff167fc2e5d5da58bd71d1a2d14cdef02a4256d971b728088f8190d067ccfbae3bd73e8383604051610291929190610a56565b60405180910390a25050565b5f602052805f5260405f205f91509050805f0180546102bb906107b1565b80601f01602080910402602001604051908101604052809291908181526020018280546102e7906107b1565b80156103325780601f1061030957610100808354040283529160200191610332565b820191905f5260205f20905b81548152906001019060200180831161031557829003601f168201915b505050505090806001015f9054906101000a900473ffffffffffffffffffffffffffffffffffffffff16908060010160149054906101000a900460ff16908060010160159054906101000a900460ff16905084565b5f604051905090565b5f80fd5b5f80fd5b5f80fd5b5f80fd5b5f601f19601f8301169050919050565b7f4e487b71000000000000000000000000000000000000000000000000000000005f52604160045260245ffd5b6103e6826103a0565b810181811067ffffffffffffffff82111715610405576104046103b0565b5b80604052505050565b5f610417610387565b905061042382826103dd565b919050565b5f67ffffffffffffffff821115610442576104416103b0565b5b61044b826103a0565b9050602081019050919050565b828183375f83830152505050565b5f61047861047384610428565b61040e565b9050828152602081018484840111156104945761049361039c565b5b61049f848285610458565b509392505050565b5f82601f8301126104bb576104ba610398565b5b81356104cb848260208601610466565b91505092915050565b600481106104e0575f80fd5b50565b5f813590506104f1816104d4565b92915050565b5f806040838503121561050d5761050c610390565b5b5f83013567ffffffffffffffff81111561052a57610529610394565b5b610536858286016104a7565b9250506020610547858286016104e3565b9150509250929050565b5f73ffffffffffffffffffffffffffffffffffffffff82169050919050565b5f61057a82610551565b9050919050565b61058a81610570565b8114610594575f80fd5b50565b5f813590506105a581610581565b92915050565b5f602082840312156105c0576105bf610390565b5b5f6105cd84828501610597565b91505092915050565b5f81519050919050565b5f82825260208201905092915050565b8281835e5f83830152505050565b5f610608826105d6565b61061281856105e0565b93506106228185602086016105f0565b61062b816103a0565b840191505092915050565b61063f81610570565b82525050565b7f4e487b71000000000000000000000000000000000000000000000000000000005f52602160045260245ffd5b6004811061068357610682610645565b5b50565b5f81905061069382610672565b919050565b5f6106a282610686565b9050919050565b6106b281610698565b82525050565b5f8115159050919050565b6106cc816106b8565b82525050565b5f6080820190508181035f8301526106ea81876105fe565b90506106f96020830186610636565b61070660408301856106a9565b61071360608301846106c3565b95945050505050565b7f5573657220616c726561647920726567697374657265640000000000000000005f82015250565b5f6107506017836105e0565b915061075b8261071c565b602082019050919050565b5f6020820190508181035f83015261077d81610744565b9050919050565b7f4e487b71000000000000000000000000000000000000000000000000000000005f52602260045260245ffd5b5f60028204905060018216806107c857607f821691505b6020821081036107db576107da610784565b5b50919050565b5f819050815f5260205f209050919050565b5f6020601f8301049050919050565b5f82821b905092915050565b5f6008830261083d7fffffffffffffffffffffffffffffffffffffffffffffffffffffffffffffffff82610802565b6108478683610802565b95508019841693508086168417925050509392505050565b5f819050919050565b5f819050919050565b5f61088b6108866108818461085f565b610868565b61085f565b9050919050565b5f819050919050565b6108a483610871565b6108b86108b082610892565b84845461080e565b825550505050565b5f90565b6108cc6108c0565b6108d781848461089b565b505050565b5b818110156108fa576108ef5f826108c4565b6001810190506108dd565b5050565b601f82111561093f57610910816107e1565b610919846107f3565b81016020851015610928578190505b61093c610934856107f3565b8301826108dc565b50505b505050565b5f82821c905092915050565b5f61095f5f1984600802610944565b1980831691505092915050565b5f6109778383610950565b9150826002028217905092915050565b610990826105d6565b67ffffffffffffffff8111156109a9576109a86103b0565b5b6109b382546107b1565b6109be8282856108fe565b5f60209050601f8311600181146109ef575f84156109dd578287015190505b6109e7858261096c565b865550610a4e565b601f1984166109fd866107e1565b5f5b82811015610a24578489015182556001820191506020850194506020810190506109ff565b86831015610a415784890151610a3d601f891682610950565b8355505b6001600288020188555050505b505050505050565b5f6040820190508181035f830152610a6e81856105fe565b9050610a7d60208301846106a9565b939250505056fea2646970667358221220ccbcb517549f9893b0a5dfa6b57e2692773c5d0ce07dfc422f8ad6ff3eefdab264736f6c63430008190033",
					"opcodes": "PUSH1 0x80 PUSH1 0x40 MSTORE CALLVALUE DUP1 ISZERO PUSH1 0xE JUMPI PUSH0 DUP1 REVERT JUMPDEST POP PUSH2 0xABA DUP1 PUSH2 0x1C PUSH0 CODECOPY PUSH0 RETURN INVALID PUSH1 0x80 PUSH1 0x40 MSTORE CALLVALUE DUP1 ISZERO PUSH2 0xF JUMPI PUSH0 DUP1 REVERT JUMPDEST POP PUSH1 0x4 CALLDATASIZE LT PUSH2 0x34 JUMPI PUSH0 CALLDATALOAD PUSH1 0xE0 SHR DUP1 PUSH4 0x338E12EB EQ PUSH2 0x38 JUMPI DUP1 PUSH4 0xA87430BA EQ PUSH2 0x54 JUMPI JUMPDEST PUSH0 DUP1 REVERT JUMPDEST PUSH2 0x52 PUSH1 0x4 DUP1 CALLDATASIZE SUB DUP2 ADD SWAP1 PUSH2 0x4D SWAP2 SWAP1 PUSH2 0x4F7 JUMP JUMPDEST PUSH2 0x87 JUMP JUMPDEST STOP JUMPDEST PUSH2 0x6E PUSH1 0x4 DUP1 CALLDATASIZE SUB DUP2 ADD SWAP1 PUSH2 0x69 SWAP2 SWAP1 PUSH2 0x5AB JUMP JUMPDEST PUSH2 0x29D JUMP JUMPDEST PUSH1 0x40 MLOAD PUSH2 0x7E SWAP5 SWAP4 SWAP3 SWAP2 SWAP1 PUSH2 0x6D2 JUMP JUMPDEST PUSH1 0x40 MLOAD DUP1 SWAP2 SUB SWAP1 RETURN JUMPDEST PUSH0 DUP1 CALLER PUSH20 0xFFFFFFFFFFFFFFFFFFFFFFFFFFFFFFFFFFFFFFFF AND PUSH20 0xFFFFFFFFFFFFFFFFFFFFFFFFFFFFFFFFFFFFFFFF AND DUP2 MSTORE PUSH1 0x20 ADD SWAP1 DUP2 MSTORE PUSH1 0x20 ADD PUSH0 KECCAK256 PUSH1 0x1 ADD PUSH1 0x15 SWAP1 SLOAD SWAP1 PUSH2 0x100 EXP SWAP1 DIV PUSH1 0xFF AND ISZERO PUSH2 0x114 JUMPI PUSH1 0x40 MLOAD PUSH32 0x8C379A000000000000000000000000000000000000000000000000000000000 DUP2 MSTORE PUSH1 0x4 ADD PUSH2 0x10B SWAP1 PUSH2 0x766 JUMP JUMPDEST PUSH1 0x40 MLOAD DUP1 SWAP2 SUB SWAP1 REVERT JUMPDEST PUSH1 0x40 MLOAD DUP1 PUSH1 0x80 ADD PUSH1 0x40 MSTORE DUP1 DUP4 DUP2 MSTORE PUSH1 0x20 ADD CALLER PUSH20 0xFFFFFFFFFFFFFFFFFFFFFFFFFFFFFFFFFFFFFFFF AND DUP2 MSTORE PUSH1 0x20 ADD DUP3 PUSH1 0x3 DUP2 GT ISZERO PUSH2 0x154 JUMPI PUSH2 0x153 PUSH2 0x645 JUMP JUMPDEST JUMPDEST DUP2 MSTORE PUSH1 0x20 ADD PUSH1 0x1 ISZERO ISZERO DUP2 MSTORE POP PUSH0 DUP1 CALLER PUSH20 0xFFFFFFFFFFFFFFFFFFFFFFFFFFFFFFFFFFFFFFFF AND PUSH20 0xFFFFFFFFFFFFFFFFFFFFFFFFFFFFFFFFFFFFFFFF AND DUP2 MSTORE PUSH1 0x20 ADD SWAP1 DUP2 MSTORE PUSH1 0x20 ADD PUSH0 KECCAK256 PUSH0 DUP3 ADD MLOAD DUP2 PUSH0 ADD SWAP1 DUP2 PUSH2 0x1AF SWAP2 SWAP1 PUSH2 0x987 JUMP JUMPDEST POP PUSH1 0x20 DUP3 ADD MLOAD DUP2 PUSH1 0x1 ADD PUSH0 PUSH2 0x100 EXP DUP2 SLOAD DUP2 PUSH20 0xFFFFFFFFFFFFFFFFFFFFFFFFFFFFFFFFFFFFFFFF MUL NOT AND SWAP1 DUP4 PUSH20 0xFFFFFFFFFFFFFFFFFFFFFFFFFFFFFFFFFFFFFFFF AND MUL OR SWAP1 SSTORE POP PUSH1 0x40 DUP3 ADD MLOAD DUP2 PUSH1 0x1 ADD PUSH1 0x14 PUSH2 0x100 EXP DUP2 SLOAD DUP2 PUSH1 0xFF MUL NOT AND SWAP1 DUP4 PUSH1 0x3 DUP2 GT ISZERO PUSH2 0x221 JUMPI PUSH2 0x220 PUSH2 0x645 JUMP JUMPDEST JUMPDEST MUL OR SWAP1 SSTORE POP PUSH1 0x60 DUP3 ADD MLOAD DUP2 PUSH1 0x1 ADD PUSH1 0x15 PUSH2 0x100 EXP DUP2 SLOAD DUP2 PUSH1 0xFF MUL NOT AND SWAP1 DUP4 ISZERO ISZERO MUL OR SWAP1 SSTORE POP SWAP1 POP POP CALLER PUSH20 0xFFFFFFFFFFFFFFFFFFFFFFFFFFFFFFFFFFFFFFFF AND PUSH32 0xC2E5D5DA58BD71D1A2D14CDEF02A4256D971B728088F8190D067CCFBAE3BD73E DUP4 DUP4 PUSH1 0x40 MLOAD PUSH2 0x291 SWAP3 SWAP2 SWAP1 PUSH2 0xA56 JUMP JUMPDEST PUSH1 0x40 MLOAD DUP1 SWAP2 SUB SWAP1 LOG2 POP POP JUMP JUMPDEST PUSH0 PUSH1 0x20 MSTORE DUP1 PUSH0 MSTORE PUSH1 0x40 PUSH0 KECCAK256 PUSH0 SWAP2 POP SWAP1 POP DUP1 PUSH0 ADD DUP1 SLOAD PUSH2 0x2BB SWAP1 PUSH2 0x7B1 JUMP JUMPDEST DUP1 PUSH1 0x1F ADD PUSH1 0x20 DUP1 SWAP2 DIV MUL PUSH1 0x20 ADD PUSH1 0x40 MLOAD SWAP1 DUP2 ADD PUSH1 0x40 MSTORE DUP1 SWAP3 SWAP2 SWAP1 DUP2 DUP2 MSTORE PUSH1 0x20 ADD DUP3 DUP1 SLOAD PUSH2 0x2E7 SWAP1 PUSH2 0x7B1 JUMP JUMPDEST DUP1 ISZERO PUSH2 0x332 JUMPI DUP1 PUSH1 0x1F LT PUSH2 0x309 JUMPI PUSH2 0x100 DUP1 DUP4 SLOAD DIV MUL DUP4 MSTORE SWAP2 PUSH1 0x20 ADD SWAP2 PUSH2 0x332 JUMP JUMPDEST DUP3 ADD SWAP2 SWAP1 PUSH0 MSTORE PUSH1 0x20 PUSH0 KECCAK256 SWAP1 JUMPDEST DUP2 SLOAD DUP2 MSTORE SWAP1 PUSH1 0x1 ADD SWAP1 PUSH1 0x20 ADD DUP1 DUP4 GT PUSH2 0x315 JUMPI DUP3 SWAP1 SUB PUSH1 0x1F AND DUP3 ADD SWAP2 JUMPDEST POP POP POP POP POP SWAP1 DUP1 PUSH1 0x1 ADD PUSH0 SWAP1 SLOAD SWAP1 PUSH2 0x100 EXP SWAP1 DIV PUSH20 0xFFFFFFFFFFFFFFFFFFFFFFFFFFFFFFFFFFFFFFFF AND SWAP1 DUP1 PUSH1 0x1 ADD PUSH1 0x14 SWAP1 SLOAD SWAP1 PUSH2 0x100 EXP SWAP1 DIV PUSH1 0xFF AND SWAP1 DUP1 PUSH1 0x1 ADD PUSH1 0x15 SWAP1 SLOAD SWAP1 PUSH2 0x100 EXP SWAP1 DIV PUSH1 0xFF AND SWAP1 POP DUP5 JUMP JUMPDEST PUSH0 PUSH1 0x40 MLOAD SWAP1 POP SWAP1 JUMP JUMPDEST PUSH0 DUP1 REVERT JUMPDEST PUSH0 DUP1 REVERT JUMPDEST PUSH0 DUP1 REVERT JUMPDEST PUSH0 DUP1 REVERT JUMPDEST PUSH0 PUSH1 0x1F NOT PUSH1 0x1F DUP4 ADD AND SWAP1 POP SWAP2 SWAP1 POP JUMP JUMPDEST PUSH32 0x4E487B7100000000000000000000000000000000000000000000000000000000 PUSH0 MSTORE PUSH1 0x41 PUSH1 0x4 MSTORE PUSH1 0x24 PUSH0 REVERT JUMPDEST PUSH2 0x3E6 DUP3 PUSH2 0x3A0 JUMP JUMPDEST DUP2 ADD DUP2 DUP2 LT PUSH8 0xFFFFFFFFFFFFFFFF DUP3 GT OR ISZERO PUSH2 0x405 JUMPI PUSH2 0x404 PUSH2 0x3B0 JUMP JUMPDEST JUMPDEST DUP1 PUSH1 0x40 MSTORE POP POP POP JUMP JUMPDEST PUSH0 PUSH2 0x417 PUSH2 0x387 JUMP JUMPDEST SWAP1 POP PUSH2 0x423 DUP3 DUP3 PUSH2 0x3DD JUMP JUMPDEST SWAP2 SWAP1 POP JUMP JUMPDEST PUSH0 PUSH8 0xFFFFFFFFFFFFFFFF DUP3 GT ISZERO PUSH2 0x442 JUMPI PUSH2 0x441 PUSH2 0x3B0 JUMP JUMPDEST JUMPDEST PUSH2 0x44B DUP3 PUSH2 0x3A0 JUMP JUMPDEST SWAP1 POP PUSH1 0x20 DUP2 ADD SWAP1 POP SWAP2 SWAP1 POP JUMP JUMPDEST DUP3 DUP2 DUP4 CALLDATACOPY PUSH0 DUP4 DUP4 ADD MSTORE POP POP POP JUMP JUMPDEST PUSH0 PUSH2 0x478 PUSH2 0x473 DUP5 PUSH2 0x428 JUMP JUMPDEST PUSH2 0x40E JUMP JUMPDEST SWAP1 POP DUP3 DUP2 MSTORE PUSH1 0x20 DUP2 ADD DUP5 DUP5 DUP5 ADD GT ISZERO PUSH2 0x494 JUMPI PUSH2 0x493 PUSH2 0x39C JUMP JUMPDEST JUMPDEST PUSH2 0x49F DUP5 DUP3 DUP6 PUSH2 0x458 JUMP JUMPDEST POP SWAP4 SWAP3 POP POP POP JUMP JUMPDEST PUSH0 DUP3 PUSH1 0x1F DUP4 ADD SLT PUSH2 0x4BB JUMPI PUSH2 0x4BA PUSH2 0x398 JUMP JUMPDEST JUMPDEST DUP2 CALLDATALOAD PUSH2 0x4CB DUP5 DUP3 PUSH1 0x20 DUP7 ADD PUSH2 0x466 JUMP JUMPDEST SWAP2 POP POP SWAP3 SWAP2 POP POP JUMP JUMPDEST PUSH1 0x4 DUP2 LT PUSH2 0x4E0 JUMPI PUSH0 DUP1 REVERT JUMPDEST POP JUMP JUMPDEST PUSH0 DUP2 CALLDATALOAD SWAP1 POP PUSH2 0x4F1 DUP2 PUSH2 0x4D4 JUMP JUMPDEST SWAP3 SWAP2 POP POP JUMP JUMPDEST PUSH0 DUP1 PUSH1 0x40 DUP4 DUP6 SUB SLT ISZERO PUSH2 0x50D JUMPI PUSH2 0x50C PUSH2 0x390 JUMP JUMPDEST JUMPDEST PUSH0 DUP4 ADD CALLDATALOAD PUSH8 0xFFFFFFFFFFFFFFFF DUP2 GT ISZERO PUSH2 0x52A JUMPI PUSH2 0x529 PUSH2 0x394 JUMP JUMPDEST JUMPDEST PUSH2 0x536 DUP6 DUP3 DUP7 ADD PUSH2 0x4A7 JUMP JUMPDEST SWAP3 POP POP PUSH1 0x20 PUSH2 0x547 DUP6 DUP3 DUP7 ADD PUSH2 0x4E3 JUMP JUMPDEST SWAP2 POP POP SWAP3 POP SWAP3 SWAP1 POP JUMP JUMPDEST PUSH0 PUSH20 0xFFFFFFFFFFFFFFFFFFFFFFFFFFFFFFFFFFFFFFFF DUP3 AND SWAP1 POP SWAP2 SWAP1 POP JUMP JUMPDEST PUSH0 PUSH2 0x57A DUP3 PUSH2 0x551 JUMP JUMPDEST SWAP1 POP SWAP2 SWAP1 POP JUMP JUMPDEST PUSH2 0x58A DUP2 PUSH2 0x570 JUMP JUMPDEST DUP2 EQ PUSH2 0x594 JUMPI PUSH0 DUP1 REVERT JUMPDEST POP JUMP JUMPDEST PUSH0 DUP2 CALLDATALOAD SWAP1 POP PUSH2 0x5A5 DUP2 PUSH2 0x581 JUMP JUMPDEST SWAP3 SWAP2 POP POP JUMP JUMPDEST PUSH0 PUSH1 0x20 DUP3 DUP5 SUB SLT ISZERO PUSH2 0x5C0 JUMPI PUSH2 0x5BF PUSH2 0x390 JUMP JUMPDEST JUMPDEST PUSH0 PUSH2 0x5CD DUP5 DUP3 DUP6 ADD PUSH2 0x597 JUMP JUMPDEST SWAP2 POP POP SWAP3 SWAP2 POP POP JUMP JUMPDEST PUSH0 DUP2 MLOAD SWAP1 POP SWAP2 SWAP1 POP JUMP JUMPDEST PUSH0 DUP3 DUP3 MSTORE PUSH1 0x20 DUP3 ADD SWAP1 POP SWAP3 SWAP2 POP POP JUMP JUMPDEST DUP3 DUP2 DUP4 MCOPY PUSH0 DUP4 DUP4 ADD MSTORE POP POP POP JUMP JUMPDEST PUSH0 PUSH2 0x608 DUP3 PUSH2 0x5D6 JUMP JUMPDEST PUSH2 0x612 DUP2 DUP6 PUSH2 0x5E0 JUMP JUMPDEST SWAP4 POP PUSH2 0x622 DUP2 DUP6 PUSH1 0x20 DUP7 ADD PUSH2 0x5F0 JUMP JUMPDEST PUSH2 0x62B DUP2 PUSH2 0x3A0 JUMP JUMPDEST DUP5 ADD SWAP2 POP POP SWAP3 SWAP2 POP POP JUMP JUMPDEST PUSH2 0x63F DUP2 PUSH2 0x570 JUMP JUMPDEST DUP3 MSTORE POP POP JUMP JUMPDEST PUSH32 0x4E487B7100000000000000000000000000000000000000000000000000000000 PUSH0 MSTORE PUSH1 0x21 PUSH1 0x4 MSTORE PUSH1 0x24 PUSH0 REVERT JUMPDEST PUSH1 0x4 DUP2 LT PUSH2 0x683 JUMPI PUSH2 0x682 PUSH2 0x645 JUMP JUMPDEST JUMPDEST POP JUMP JUMPDEST PUSH0 DUP2 SWAP1 POP PUSH2 0x693 DUP3 PUSH2 0x672 JUMP JUMPDEST SWAP2 SWAP1 POP JUMP JUMPDEST PUSH0 PUSH2 0x6A2 DUP3 PUSH2 0x686 JUMP JUMPDEST SWAP1 POP SWAP2 SWAP1 POP JUMP JUMPDEST PUSH2 0x6B2 DUP2 PUSH2 0x698 JUMP JUMPDEST DUP3 MSTORE POP POP JUMP JUMPDEST PUSH0 DUP2 ISZERO ISZERO SWAP1 POP SWAP2 SWAP1 POP JUMP JUMPDEST PUSH2 0x6CC DUP2 PUSH2 0x6B8 JUMP JUMPDEST DUP3 MSTORE POP POP JUMP JUMPDEST PUSH0 PUSH1 0x80 DUP3 ADD SWAP1 POP DUP2 DUP2 SUB PUSH0 DUP4 ADD MSTORE PUSH2 0x6EA DUP2 DUP8 PUSH2 0x5FE JUMP JUMPDEST SWAP1 POP PUSH2 0x6F9 PUSH1 0x20 DUP4 ADD DUP7 PUSH2 0x636 JUMP JUMPDEST PUSH2 0x706 PUSH1 0x40 DUP4 ADD DUP6 PUSH2 0x6A9 JUMP JUMPDEST PUSH2 0x713 PUSH1 0x60 DUP4 ADD DUP5 PUSH2 0x6C3 JUMP JUMPDEST SWAP6 SWAP5 POP POP POP POP POP JUMP JUMPDEST PUSH32 0x5573657220616C72656164792072656769737465726564000000000000000000 PUSH0 DUP3 ADD MSTORE POP JUMP JUMPDEST PUSH0 PUSH2 0x750 PUSH1 0x17 DUP4 PUSH2 0x5E0 JUMP JUMPDEST SWAP2 POP PUSH2 0x75B DUP3 PUSH2 0x71C JUMP JUMPDEST PUSH1 0x20 DUP3 ADD SWAP1 POP SWAP2 SWAP1 POP JUMP JUMPDEST PUSH0 PUSH1 0x20 DUP3 ADD SWAP1 POP DUP2 DUP2 SUB PUSH0 DUP4 ADD MSTORE PUSH2 0x77D DUP2 PUSH2 0x744 JUMP JUMPDEST SWAP1 POP SWAP2 SWAP1 POP JUMP JUMPDEST PUSH32 0x4E487B7100000000000000000000000000000000000000000000000000000000 PUSH0 MSTORE PUSH1 0x22 PUSH1 0x4 MSTORE PUSH1 0x24 PUSH0 REVERT JUMPDEST PUSH0 PUSH1 0x2 DUP3 DIV SWAP1 POP PUSH1 0x1 DUP3 AND DUP1 PUSH2 0x7C8 JUMPI PUSH1 0x7F DUP3 AND SWAP2 POP JUMPDEST PUSH1 0x20 DUP3 LT DUP2 SUB PUSH2 0x7DB JUMPI PUSH2 0x7DA PUSH2 0x784 JUMP JUMPDEST JUMPDEST POP SWAP2 SWAP1 POP JUMP JUMPDEST PUSH0 DUP2 SWAP1 POP DUP2 PUSH0 MSTORE PUSH1 0x20 PUSH0 KECCAK256 SWAP1 POP SWAP2 SWAP1 POP JUMP JUMPDEST PUSH0 PUSH1 0x20 PUSH1 0x1F DUP4 ADD DIV SWAP1 POP SWAP2 SWAP1 POP JUMP JUMPDEST PUSH0 DUP3 DUP3 SHL SWAP1 POP SWAP3 SWAP2 POP POP JUMP JUMPDEST PUSH0 PUSH1 0x8 DUP4 MUL PUSH2 0x83D PUSH32 0xFFFFFFFFFFFFFFFFFFFFFFFFFFFFFFFFFFFFFFFFFFFFFFFFFFFFFFFFFFFFFFFF DUP3 PUSH2 0x802 JUMP JUMPDEST PUSH2 0x847 DUP7 DUP4 PUSH2 0x802 JUMP JUMPDEST SWAP6 POP DUP1 NOT DUP5 AND SWAP4 POP DUP1 DUP7 AND DUP5 OR SWAP3 POP POP POP SWAP4 SWAP3 POP POP POP JUMP JUMPDEST PUSH0 DUP2 SWAP1 POP SWAP2 SWAP1 POP JUMP JUMPDEST PUSH0 DUP2 SWAP1 POP SWAP2 SWAP1 POP JUMP JUMPDEST PUSH0 PUSH2 0x88B PUSH2 0x886 PUSH2 0x881 DUP5 PUSH2 0x85F JUMP JUMPDEST PUSH2 0x868 JUMP JUMPDEST PUSH2 0x85F JUMP JUMPDEST SWAP1 POP SWAP2 SWAP1 POP JUMP JUMPDEST PUSH0 DUP2 SWAP1 POP SWAP2 SWAP1 POP JUMP JUMPDEST PUSH2 0x8A4 DUP4 PUSH2 0x871 JUMP JUMPDEST PUSH2 0x8B8 PUSH2 0x8B0 DUP3 PUSH2 0x892 JUMP JUMPDEST DUP5 DUP5 SLOAD PUSH2 0x80E JUMP JUMPDEST DUP3 SSTORE POP POP POP POP JUMP JUMPDEST PUSH0 SWAP1 JUMP JUMPDEST PUSH2 0x8CC PUSH2 0x8C0 JUMP JUMPDEST PUSH2 0x8D7 DUP2 DUP5 DUP5 PUSH2 0x89B JUMP JUMPDEST POP POP POP JUMP JUMPDEST JUMPDEST DUP2 DUP2 LT ISZERO PUSH2 0x8FA JUMPI PUSH2 0x8EF PUSH0 DUP3 PUSH2 0x8C4 JUMP JUMPDEST PUSH1 0x1 DUP2 ADD SWAP1 POP PUSH2 0x8DD JUMP JUMPDEST POP POP JUMP JUMPDEST PUSH1 0x1F DUP3 GT ISZERO PUSH2 0x93F JUMPI PUSH2 0x910 DUP2 PUSH2 0x7E1 JUMP JUMPDEST PUSH2 0x919 DUP5 PUSH2 0x7F3 JUMP JUMPDEST DUP2 ADD PUSH1 0x20 DUP6 LT ISZERO PUSH2 0x928 JUMPI DUP2 SWAP1 POP JUMPDEST PUSH2 0x93C PUSH2 0x934 DUP6 PUSH2 0x7F3 JUMP JUMPDEST DUP4 ADD DUP3 PUSH2 0x8DC JUMP JUMPDEST POP POP JUMPDEST POP POP POP JUMP JUMPDEST PUSH0 DUP3 DUP3 SHR SWAP1 POP SWAP3 SWAP2 POP POP JUMP JUMPDEST PUSH0 PUSH2 0x95F PUSH0 NOT DUP5 PUSH1 0x8 MUL PUSH2 0x944 JUMP JUMPDEST NOT DUP1 DUP4 AND SWAP2 POP POP SWAP3 SWAP2 POP POP JUMP JUMPDEST PUSH0 PUSH2 0x977 DUP4 DUP4 PUSH2 0x950 JUMP JUMPDEST SWAP2 POP DUP3 PUSH1 0x2 MUL DUP3 OR SWAP1 POP SWAP3 SWAP2 POP POP JUMP JUMPDEST PUSH2 0x990 DUP3 PUSH2 0x5D6 JUMP JUMPDEST PUSH8 0xFFFFFFFFFFFFFFFF DUP2 GT ISZERO PUSH2 0x9A9 JUMPI PUSH2 0x9A8 PUSH2 0x3B0 JUMP JUMPDEST JUMPDEST PUSH2 0x9B3 DUP3 SLOAD PUSH2 0x7B1 JUMP JUMPDEST PUSH2 0x9BE DUP3 DUP3 DUP6 PUSH2 0x8FE JUMP JUMPDEST PUSH0 PUSH1 0x20 SWAP1 POP PUSH1 0x1F DUP4 GT PUSH1 0x1 DUP2 EQ PUSH2 0x9EF JUMPI PUSH0 DUP5 ISZERO PUSH2 0x9DD JUMPI DUP3 DUP8 ADD MLOAD SWAP1 POP JUMPDEST PUSH2 0x9E7 DUP6 DUP3 PUSH2 0x96C JUMP JUMPDEST DUP7 SSTORE POP PUSH2 0xA4E JUMP JUMPDEST PUSH1 0x1F NOT DUP5 AND PUSH2 0x9FD DUP7 PUSH2 0x7E1 JUMP JUMPDEST PUSH0 JUMPDEST DUP3 DUP2 LT ISZERO PUSH2 0xA24 JUMPI DUP5 DUP10 ADD MLOAD DUP3 SSTORE PUSH1 0x1 DUP3 ADD SWAP2 POP PUSH1 0x20 DUP6 ADD SWAP5 POP PUSH1 0x20 DUP2 ADD SWAP1 POP PUSH2 0x9FF JUMP JUMPDEST DUP7 DUP4 LT ISZERO PUSH2 0xA41 JUMPI DUP5 DUP10 ADD MLOAD PUSH2 0xA3D PUSH1 0x1F DUP10 AND DUP3 PUSH2 0x950 JUMP JUMPDEST DUP4 SSTORE POP JUMPDEST PUSH1 0x1 PUSH1 0x2 DUP9 MUL ADD DUP9 SSTORE POP POP POP JUMPDEST POP POP POP POP POP POP JUMP JUMPDEST PUSH0 PUSH1 0x40 DUP3 ADD SWAP1 POP DUP2 DUP2 SUB PUSH0 DUP4 ADD MSTORE PUSH2 0xA6E DUP2 DUP6 PUSH2 0x5FE JUMP JUMPDEST SWAP1 POP PUSH2 0xA7D PUSH1 0x20 DUP4 ADD DUP5 PUSH2 0x6A9 JUMP JUMPDEST SWAP4 SWAP3 POP POP POP JUMP INVALID LOG2 PUSH5 0x6970667358 0x22 SLT KECCAK256 0xCC 0xBC 0xB5 OR SLOAD SWAP16 SWAP9 SWAP4 0xB0 0xA5 0xDF 0xA6 0xB5 PUSH31 0x2692773C5D0CE07DFC422F8AD6FF3EEFDAB264736F6C634300081900330000 "
				},
				"gasEstimates": {
					"creation": {
						"codeDepositCost": "549200",
						"executionCost": "579",
						"totalCost": "549779"
					},
					"external": {
						"registerUser(string,uint8)": "infinite",
						"users(address)": "infinite"
					}
				},
				"methodIdentifiers": {
					"registerUser(string,uint8)": "338e12eb",
					"users(address)": "a87430ba"
				}
			},
			"storageLayout": {
				"storage": [
					{
						"astId": 21,
						"contract": "contracts/11_User Registration and Authentication.sol:UserRegistration",
						"label": "users",
						"offset": 0,
						"slot": "0",
						"type": "t_mapping(t_address,t_struct(User)16_storage)"
					}
				],
				"types": {
					"t_address": {
						"encoding": "inplace",
						"label": "address",
						"numberOfBytes": "20"
					},
					"t_bool": {
						"encoding": "inplace",
						"label": "bool",
						"numberOfBytes": "1"
					},
					"t_enum(Role)6": {
						"encoding": "inplace",
						"label": "enum UserRegistration.Role",
						"numberOfBytes": "1"
					},
					"t_mapping(t_address,t_struct(User)16_storage)": {
						"encoding": "mapping",
						"key": "t_address",
						"label": "mapping(address => struct UserRegistration.User)",
						"numberOfBytes": "32",
						"value": "t_struct(User)16_storage"
					},
					"t_string_storage": {
						"encoding": "bytes",
						"label": "string",
						"numberOfBytes": "32"
					},
					"t_struct(User)16_storage": {
						"encoding": "inplace",
						"label": "struct UserRegistration.User",
						"members": [
							{
								"astId": 8,
								"contract": "contracts/11_User Registration and Authentication.sol:UserRegistration",
								"label": "name",
								"offset": 0,
								"slot": "0",
								"type": "t_string_storage"
							},
							{
								"astId": 10,
								"contract": "contracts/11_User Registration and Authentication.sol:UserRegistration",
								"label": "userAddress",
								"offset": 0,
								"slot": "1",
								"type": "t_address"
							},
							{
								"astId": 13,
								"contract": "contracts/11_User Registration and Authentication.sol:UserRegistration",
								"label": "role",
								"offset": 20,
								"slot": "1",
								"type": "t_enum(Role)6"
							},
							{
								"astId": 15,
								"contract": "contracts/11_User Registration and Authentication.sol:UserRegistration",
								"label": "registered",
								"offset": 21,
								"slot": "1",
								"type": "t_bool"
							}
						],
						"numberOfBytes": "64"
					}
				}
			},
			"userdoc": {
				"kind": "user",
				"methods": {},
				"version": 1
			}
		}
	}
}