{
	"contracts/6_PropertyContract.sol": {
		"PropertyContract": {
			"abi": [
				{
					"inputs": [
						{
							"internalType": "uint256",
							"name": "propertyId",
							"type": "uint256"
						}
					],
					"name": "getProperty",
					"outputs": [
						{
							"components": [
								{
									"internalType": "uint256",
									"name": "id",
									"type": "uint256"
								},
								{
									"internalType": "string",
									"name": "title",
									"type": "string"
								},
								{
									"internalType": "string",
									"name": "location",
									"type": "string"
								},
								{
									"internalType": "uint256",
									"name": "price",
									"type": "uint256"
								},
								{
									"internalType": "address",
									"name": "owner",
									"type": "address"
								},
								{
									"internalType": "bool",
									"name": "isListed",
									"type": "bool"
								}
							],
							"internalType": "struct PropertyContract.Property",
							"name": "",
							"type": "tuple"
						}
					],
					"stateMutability": "view",
					"type": "function"
				},
				{
					"inputs": [
						{
							"internalType": "string",
							"name": "title",
							"type": "string"
						},
						{
							"internalType": "string",
							"name": "location",
							"type": "string"
						},
						{
							"internalType": "uint256",
							"name": "price",
							"type": "uint256"
						}
					],
					"name": "listProperty",
					"outputs": [],
					"stateMutability": "nonpayable",
					"type": "function"
				},
				{
					"inputs": [
						{
							"internalType": "uint256",
							"name": "",
							"type": "uint256"
						}
					],
					"name": "properties",
					"outputs": [
						{
							"internalType": "uint256",
							"name": "id",
							"type": "uint256"
						},
						{
							"internalType": "string",
							"name": "title",
							"type": "string"
						},
						{
							"internalType": "string",
							"name": "location",
							"type": "string"
						},
						{
							"internalType": "uint256",
							"name": "price",
							"type": "uint256"
						},
						{
							"internalType": "address",
							"name": "owner",
							"type": "address"
						},
						{
							"internalType": "bool",
							"name": "isListed",
							"type": "bool"
						}
					],
					"stateMutability": "view",
					"type": "function"
				},
				{
					"inputs": [],
					"name": "propertyCount",
					"outputs": [
						{
							"internalType": "uint256",
							"name": "",
							"type": "uint256"
						}
					],
					"stateMutability": "view",
					"type": "function"
				},
				{
					"inputs": [
						{
							"internalType": "uint256",
							"name": "propertyId",
							"type": "uint256"
						},
						{
							"internalType": "uint256",
							"name": "newPrice",
							"type": "uint256"
						}
					],
					"name": "updateProperty",
					"outputs": [],
					"stateMutability": "nonpayable",
					"type": "function"
				}
			],
			"devdoc": {
				"kind": "dev",
				"methods": {},
				"version": 1
			},
			"evm": {
				"assembly": "    /* \"contracts/6_PropertyContract.sol\":60:1022  contract PropertyContract {... */\n  mstore(0x40, 0x80)\n  callvalue\n  dup1\n  iszero\n  tag_1\n  jumpi\n  0x00\n  dup1\n  revert\ntag_1:\n  pop\n  dataSize(sub_0)\n  dup1\n  dataOffset(sub_0)\n  0x00\n  codecopy\n  0x00\n  return\nstop\n\nsub_0: assembly {\n        /* \"contracts/6_PropertyContract.sol\":60:1022  contract PropertyContract {... */\n      mstore(0x40, 0x80)\n      callvalue\n      dup1\n      iszero\n      tag_1\n      jumpi\n      0x00\n      dup1\n      revert\n    tag_1:\n      pop\n      jumpi(tag_2, lt(calldatasize, 0x04))\n      shr(0xe0, calldataload(0x00))\n      dup1\n      0x32665ffb\n      eq\n      tag_3\n      jumpi\n      dup1\n      0x44e034cc\n      eq\n      tag_4\n      jumpi\n      dup1\n      0x4cd378bc\n      eq\n      tag_5\n      jumpi\n      dup1\n      0xc361a335\n      eq\n      tag_6\n      jumpi\n      dup1\n      0xf7b10808\n      eq\n      tag_7\n      jumpi\n    tag_2:\n      0x00\n      dup1\n      revert\n        /* \"contracts/6_PropertyContract.sol\":895:1019  function getProperty(uint propertyId) public view returns (Property memory) {... */\n    tag_3:\n      tag_8\n      0x04\n      dup1\n      calldatasize\n      sub\n      dup2\n      add\n      swap1\n      tag_9\n      swap2\n      swap1\n      tag_10\n      jump\t// in\n    tag_9:\n      tag_11\n      jump\t// in\n    tag_8:\n      mload(0x40)\n      tag_12\n      swap2\n      swap1\n      tag_13\n      jump\t// in\n    tag_12:\n      mload(0x40)\n      dup1\n      swap2\n      sub\n      swap1\n      return\n        /* \"contracts/6_PropertyContract.sol\":577:839  function updateProperty(uint propertyId, uint newPrice) public {... */\n    tag_4:\n      tag_14\n      0x04\n      dup1\n      calldatasize\n      sub\n      dup2\n      add\n      swap1\n      tag_15\n      swap2\n      swap1\n      tag_16\n      jump\t// in\n    tag_15:\n      tag_17\n      jump\t// in\n    tag_14:\n      stop\n        /* \"contracts/6_PropertyContract.sol\":345:569  function listProperty(string memory title, string memory location, uint price) public {... */\n    tag_5:\n      tag_18\n      0x04\n      dup1\n      calldatasize\n      sub\n      dup2\n      add\n      swap1\n      tag_19\n      swap2\n      swap1\n      tag_20\n      jump\t// in\n    tag_19:\n      tag_21\n      jump\t// in\n    tag_18:\n      stop\n        /* \"contracts/6_PropertyContract.sol\":311:336  uint public propertyCount */\n    tag_6:\n      tag_22\n      tag_23\n      jump\t// in\n    tag_22:\n      mload(0x40)\n      tag_24\n      swap2\n      swap1\n      tag_25\n      jump\t// in\n    tag_24:\n      mload(0x40)\n      dup1\n      swap2\n      sub\n      swap1\n      return\n        /* \"contracts/6_PropertyContract.sol\":261:304  mapping(uint => Property) public properties */\n    tag_7:\n      tag_26\n      0x04\n      dup1\n      calldatasize\n      sub\n      dup2\n      add\n      swap1\n      tag_27\n      swap2\n      swap1\n      tag_10\n      jump\t// in\n    tag_27:\n      tag_28\n      jump\t// in\n    tag_26:\n      mload(0x40)\n      tag_29\n      swap7\n      swap6\n      swap5\n      swap4\n      swap3\n      swap2\n      swap1\n      tag_30\n      jump\t// in\n    tag_29:\n      mload(0x40)\n      dup1\n      swap2\n      sub\n      swap1\n      return\n        /* \"contracts/6_PropertyContract.sol\":895:1019  function getProperty(uint propertyId) public view returns (Property memory) {... */\n    tag_11:\n        /* \"contracts/6_PropertyContract.sol\":954:969  Property memory */\n      tag_31\n      tag_32\n      jump\t// in\n    tag_31:\n        /* \"contracts/6_PropertyContract.sol\":989:999  properties */\n      0x00\n        /* \"contracts/6_PropertyContract.sol\":989:1011  properties[propertyId] */\n      dup1\n        /* \"contracts/6_PropertyContract.sol\":1000:1010  propertyId */\n      dup4\n        /* \"contracts/6_PropertyContract.sol\":989:1011  properties[propertyId] */\n      dup2\n      mstore\n      0x20\n      add\n      swap1\n      dup2\n      mstore\n      0x20\n      add\n      0x00\n      keccak256\n        /* \"contracts/6_PropertyContract.sol\":982:1011  return properties[propertyId] */\n      mload(0x40)\n      dup1\n      0xc0\n      add\n      0x40\n      mstore\n      swap1\n      dup2\n      0x00\n      dup3\n      add\n      sload\n      dup2\n      mstore\n      0x20\n      add\n      0x01\n      dup3\n      add\n      dup1\n      sload\n      tag_34\n      swap1\n      tag_35\n      jump\t// in\n    tag_34:\n      dup1\n      0x1f\n      add\n      0x20\n      dup1\n      swap2\n      div\n      mul\n      0x20\n      add\n      mload(0x40)\n      swap1\n      dup2\n      add\n      0x40\n      mstore\n      dup1\n      swap3\n      swap2\n      swap1\n      dup2\n      dup2\n      mstore\n      0x20\n      add\n      dup3\n      dup1\n      sload\n      tag_36\n      swap1\n      tag_35\n      jump\t// in\n    tag_36:\n      dup1\n      iszero\n      tag_37\n      jumpi\n      dup1\n      0x1f\n      lt\n      tag_38\n      jumpi\n      0x0100\n      dup1\n      dup4\n      sload\n      div\n      mul\n      dup4\n      mstore\n      swap2\n      0x20\n      add\n      swap2\n      jump(tag_37)\n    tag_38:\n      dup3\n      add\n      swap2\n      swap1\n      0x00\n      mstore\n      keccak256(0x00, 0x20)\n      swap1\n    tag_39:\n      dup2\n      sload\n      dup2\n      mstore\n      swap1\n      0x01\n      add\n      swap1\n      0x20\n      add\n      dup1\n      dup4\n      gt\n      tag_39\n      jumpi\n      dup3\n      swap1\n      sub\n      0x1f\n      and\n      dup3\n      add\n      swap2\n    tag_37:\n      pop\n      pop\n      pop\n      pop\n      pop\n      dup2\n      mstore\n      0x20\n      add\n      0x02\n      dup3\n      add\n      dup1\n      sload\n      tag_40\n      swap1\n      tag_35\n      jump\t// in\n    tag_40:\n      dup1\n      0x1f\n      add\n      0x20\n      dup1\n      swap2\n      div\n      mul\n      0x20\n      add\n      mload(0x40)\n      swap1\n      dup2\n      add\n      0x40\n      mstore\n      dup1\n      swap3\n      swap2\n      swap1\n      dup2\n      dup2\n      mstore\n      0x20\n      add\n      dup3\n      dup1\n      sload\n      tag_41\n      swap1\n      tag_35\n      jump\t// in\n    tag_41:\n      dup1\n      iszero\n      tag_42\n      jumpi\n      dup1\n      0x1f\n      lt\n      tag_43\n      jumpi\n      0x0100\n      dup1\n      dup4\n      sload\n      div\n      mul\n      dup4\n      mstore\n      swap2\n      0x20\n      add\n      swap2\n      jump(tag_42)\n    tag_43:\n      dup3\n      add\n      swap2\n      swap1\n      0x00\n      mstore\n      keccak256(0x00, 0x20)\n      swap1\n    tag_44:\n      dup2\n      sload\n      dup2\n      mstore\n      swap1\n      0x01\n      add\n      swap1\n      0x20\n      add\n      dup1\n      dup4\n      gt\n      tag_44\n      jumpi\n      dup3\n      swap1\n      sub\n      0x1f\n      and\n      dup3\n      add\n      swap2\n    tag_42:\n      pop\n      pop\n      pop\n      pop\n      pop\n      dup2\n      mstore\n      0x20\n      add\n      0x03\n      dup3\n      add\n      sload\n      dup2\n      mstore\n      0x20\n      add\n      0x04\n      dup3\n      add\n      0x00\n      swap1\n      sload\n      swap1\n      0x0100\n      exp\n      swap1\n      div\n      0xffffffffffffffffffffffffffffffffffffffff\n      and\n      0xffffffffffffffffffffffffffffffffffffffff\n      and\n      0xffffffffffffffffffffffffffffffffffffffff\n      and\n      dup2\n      mstore\n      0x20\n      add\n      0x04\n      dup3\n      add\n      0x14\n      swap1\n      sload\n      swap1\n      0x0100\n      exp\n      swap1\n      div\n      0xff\n      and\n      iszero\n      iszero\n      iszero\n      iszero\n      dup2\n      mstore\n      pop\n      pop\n      swap1\n      pop\n        /* \"contracts/6_PropertyContract.sol\":895:1019  function getProperty(uint propertyId) public view returns (Property memory) {... */\n      swap2\n      swap1\n      pop\n      jump\t// out\n        /* \"contracts/6_PropertyContract.sol\":577:839  function updateProperty(uint propertyId, uint newPrice) public {... */\n    tag_17:\n        /* \"contracts/6_PropertyContract.sol\":651:676  Property storage property */\n      0x00\n        /* \"contracts/6_PropertyContract.sol\":679:689  properties */\n      dup1\n        /* \"contracts/6_PropertyContract.sol\":679:701  properties[propertyId] */\n      0x00\n        /* \"contracts/6_PropertyContract.sol\":690:700  propertyId */\n      dup5\n        /* \"contracts/6_PropertyContract.sol\":679:701  properties[propertyId] */\n      dup2\n      mstore\n      0x20\n      add\n      swap1\n      dup2\n      mstore\n      0x20\n      add\n      0x00\n      keccak256\n        /* \"contracts/6_PropertyContract.sol\":651:701  Property storage property = properties[propertyId] */\n      swap1\n      pop\n        /* \"contracts/6_PropertyContract.sol\":734:742  property */\n      dup1\n        /* \"contracts/6_PropertyContract.sol\":734:748  property.owner */\n      0x04\n      add\n      0x00\n      swap1\n      sload\n      swap1\n      0x0100\n      exp\n      swap1\n      div\n      0xffffffffffffffffffffffffffffffffffffffff\n      and\n        /* \"contracts/6_PropertyContract.sol\":720:748  msg.sender == property.owner */\n      0xffffffffffffffffffffffffffffffffffffffff\n      and\n        /* \"contracts/6_PropertyContract.sol\":720:730  msg.sender */\n      caller\n        /* \"contracts/6_PropertyContract.sol\":720:748  msg.sender == property.owner */\n      0xffffffffffffffffffffffffffffffffffffffff\n      and\n      eq\n        /* \"contracts/6_PropertyContract.sol\":712:795  require(msg.sender == property.owner, \"Only property owner can update the listing\") */\n      tag_46\n      jumpi\n      mload(0x40)\n      0x08c379a000000000000000000000000000000000000000000000000000000000\n      dup2\n      mstore\n      0x04\n      add\n      tag_47\n      swap1\n      tag_48\n      jump\t// in\n    tag_47:\n      mload(0x40)\n      dup1\n      swap2\n      sub\n      swap1\n      revert\n    tag_46:\n        /* \"contracts/6_PropertyContract.sol\":823:831  newPrice */\n      dup2\n        /* \"contracts/6_PropertyContract.sol\":806:814  property */\n      dup2\n        /* \"contracts/6_PropertyContract.sol\":806:820  property.price */\n      0x03\n      add\n        /* \"contracts/6_PropertyContract.sol\":806:831  property.price = newPrice */\n      dup2\n      swap1\n      sstore\n      pop\n        /* \"contracts/6_PropertyContract.sol\":640:839  {... */\n      pop\n        /* \"contracts/6_PropertyContract.sol\":577:839  function updateProperty(uint propertyId, uint newPrice) public {... */\n      pop\n      pop\n      jump\t// out\n        /* \"contracts/6_PropertyContract.sol\":345:569  function listProperty(string memory title, string memory location, uint price) public {... */\n    tag_21:\n        /* \"contracts/6_PropertyContract.sol\":442:455  propertyCount */\n      0x01\n      0x00\n        /* \"contracts/6_PropertyContract.sol\":442:457  propertyCount++ */\n      dup2\n      sload\n      dup1\n      swap3\n      swap2\n      swap1\n      tag_50\n      swap1\n      tag_51\n      jump\t// in\n    tag_50:\n      swap2\n      swap1\n      pop\n      sstore\n      pop\n        /* \"contracts/6_PropertyContract.sol\":496:561  Property(propertyCount, title, location, price, msg.sender, true) */\n      mload(0x40)\n      dup1\n      0xc0\n      add\n      0x40\n      mstore\n      dup1\n        /* \"contracts/6_PropertyContract.sol\":505:518  propertyCount */\n      sload(0x01)\n        /* \"contracts/6_PropertyContract.sol\":496:561  Property(propertyCount, title, location, price, msg.sender, true) */\n      dup2\n      mstore\n      0x20\n      add\n        /* \"contracts/6_PropertyContract.sol\":520:525  title */\n      dup5\n        /* \"contracts/6_PropertyContract.sol\":496:561  Property(propertyCount, title, location, price, msg.sender, true) */\n      dup2\n      mstore\n      0x20\n      add\n        /* \"contracts/6_PropertyContract.sol\":527:535  location */\n      dup4\n        /* \"contracts/6_PropertyContract.sol\":496:561  Property(propertyCount, title, location, price, msg.sender, true) */\n      dup2\n      mstore\n      0x20\n      add\n        /* \"contracts/6_PropertyContract.sol\":537:542  price */\n      dup3\n        /* \"contracts/6_PropertyContract.sol\":496:561  Property(propertyCount, title, location, price, msg.sender, true) */\n      dup2\n      mstore\n      0x20\n      add\n        /* \"contracts/6_PropertyContract.sol\":544:554  msg.sender */\n      caller\n        /* \"contracts/6_PropertyContract.sol\":496:561  Property(propertyCount, title, location, price, msg.sender, true) */\n      0xffffffffffffffffffffffffffffffffffffffff\n      and\n      dup2\n      mstore\n      0x20\n      add\n        /* \"contracts/6_PropertyContract.sol\":556:560  true */\n      0x01\n        /* \"contracts/6_PropertyContract.sol\":496:561  Property(propertyCount, title, location, price, msg.sender, true) */\n      iszero\n      iszero\n      dup2\n      mstore\n      pop\n        /* \"contracts/6_PropertyContract.sol\":468:478  properties */\n      0x00\n        /* \"contracts/6_PropertyContract.sol\":468:493  properties[propertyCount] */\n      dup1\n        /* \"contracts/6_PropertyContract.sol\":479:492  propertyCount */\n      sload(0x01)\n        /* \"contracts/6_PropertyContract.sol\":468:493  properties[propertyCount] */\n      dup2\n      mstore\n      0x20\n      add\n      swap1\n      dup2\n      mstore\n      0x20\n      add\n      0x00\n      keccak256\n        /* \"contracts/6_PropertyContract.sol\":468:561  properties[propertyCount] = Property(propertyCount, title, location, price, msg.sender, true) */\n      0x00\n      dup3\n      add\n      mload\n      dup2\n      0x00\n      add\n      sstore\n      0x20\n      dup3\n      add\n      mload\n      dup2\n      0x01\n      add\n      swap1\n      dup2\n      tag_52\n      swap2\n      swap1\n      tag_53\n      jump\t// in\n    tag_52:\n      pop\n      0x40\n      dup3\n      add\n      mload\n      dup2\n      0x02\n      add\n      swap1\n      dup2\n      tag_54\n      swap2\n      swap1\n      tag_53\n      jump\t// in\n    tag_54:\n      pop\n      0x60\n      dup3\n      add\n      mload\n      dup2\n      0x03\n      add\n      sstore\n      0x80\n      dup3\n      add\n      mload\n      dup2\n      0x04\n      add\n      exp(0x0100, 0x00)\n      dup2\n      sload\n      dup2\n      0xffffffffffffffffffffffffffffffffffffffff\n      mul\n      not\n      and\n      swap1\n      dup4\n      0xffffffffffffffffffffffffffffffffffffffff\n      and\n      mul\n      or\n      swap1\n      sstore\n      pop\n      0xa0\n      dup3\n      add\n      mload\n      dup2\n      0x04\n      add\n      exp(0x0100, 0x14)\n      dup2\n      sload\n      dup2\n      0xff\n      mul\n      not\n      and\n      swap1\n      dup4\n      iszero\n      iszero\n      mul\n      or\n      swap1\n      sstore\n      pop\n      swap1\n      pop\n      pop\n        /* \"contracts/6_PropertyContract.sol\":345:569  function listProperty(string memory title, string memory location, uint price) public {... */\n      pop\n      pop\n      pop\n      jump\t// out\n        /* \"contracts/6_PropertyContract.sol\":311:336  uint public propertyCount */\n    tag_23:\n      sload(0x01)\n      dup2\n      jump\t// out\n        /* \"contracts/6_PropertyContract.sol\":261:304  mapping(uint => Property) public properties */\n    tag_28:\n      mstore(0x20, 0x00)\n      dup1\n      0x00\n      mstore\n      keccak256(0x00, 0x40)\n      0x00\n      swap2\n      pop\n      swap1\n      pop\n      dup1\n      0x00\n      add\n      sload\n      swap1\n      dup1\n      0x01\n      add\n      dup1\n      sload\n      tag_55\n      swap1\n      tag_35\n      jump\t// in\n    tag_55:\n      dup1\n      0x1f\n      add\n      0x20\n      dup1\n      swap2\n      div\n      mul\n      0x20\n      add\n      mload(0x40)\n      swap1\n      dup2\n      add\n      0x40\n      mstore\n      dup1\n      swap3\n      swap2\n      swap1\n      dup2\n      dup2\n      mstore\n      0x20\n      add\n      dup3\n      dup1\n      sload\n      tag_56\n      swap1\n      tag_35\n      jump\t// in\n    tag_56:\n      dup1\n      iszero\n      tag_57\n      jumpi\n      dup1\n      0x1f\n      lt\n      tag_58\n      jumpi\n      0x0100\n      dup1\n      dup4\n      sload\n      div\n      mul\n      dup4\n      mstore\n      swap2\n      0x20\n      add\n      swap2\n      jump(tag_57)\n    tag_58:\n      dup3\n      add\n      swap2\n      swap1\n      0x00\n      mstore\n      keccak256(0x00, 0x20)\n      swap1\n    tag_59:\n      dup2\n      sload\n      dup2\n      mstore\n      swap1\n      0x01\n      add\n      swap1\n      0x20\n      add\n      dup1\n      dup4\n      gt\n      tag_59\n      jumpi\n      dup3\n      swap1\n      sub\n      0x1f\n      and\n      dup3\n      add\n      swap2\n    tag_57:\n      pop\n      pop\n      pop\n      pop\n      pop\n      swap1\n      dup1\n      0x02\n      add\n      dup1\n      sload\n      tag_60\n      swap1\n      tag_35\n      jump\t// in\n    tag_60:\n      dup1\n      0x1f\n      add\n      0x20\n      dup1\n      swap2\n      div\n      mul\n      0x20\n      add\n      mload(0x40)\n      swap1\n      dup2\n      add\n      0x40\n      mstore\n      dup1\n      swap3\n      swap2\n      swap1\n      dup2\n      dup2\n      mstore\n      0x20\n      add\n      dup3\n      dup1\n      sload\n      tag_61\n      swap1\n      tag_35\n      jump\t// in\n    tag_61:\n      dup1\n      iszero\n      tag_62\n      jumpi\n      dup1\n      0x1f\n      lt\n      tag_63\n      jumpi\n      0x0100\n      dup1\n      dup4\n      sload\n      div\n      mul\n      dup4\n      mstore\n      swap2\n      0x20\n      add\n      swap2\n      jump(tag_62)\n    tag_63:\n      dup3\n      add\n      swap2\n      swap1\n      0x00\n      mstore\n      keccak256(0x00, 0x20)\n      swap1\n    tag_64:\n      dup2\n      sload\n      dup2\n      mstore\n      swap1\n      0x01\n      add\n      swap1\n      0x20\n      add\n      dup1\n      dup4\n      gt\n      tag_64\n      jumpi\n      dup3\n      swap1\n      sub\n      0x1f\n      and\n      dup3\n      add\n      swap2\n    tag_62:\n      pop\n      pop\n      pop\n      pop\n      pop\n      swap1\n      dup1\n      0x03\n      add\n      sload\n      swap1\n      dup1\n      0x04\n      add\n      0x00\n      swap1\n      sload\n      swap1\n      0x0100\n      exp\n      swap1\n      div\n      0xffffffffffffffffffffffffffffffffffffffff\n      and\n      swap1\n      dup1\n      0x04\n      add\n      0x14\n      swap1\n      sload\n      swap1\n      0x0100\n      exp\n      swap1\n      div\n      0xff\n      and\n      swap1\n      pop\n      dup7\n      jump\t// out\n    tag_32:\n      mload(0x40)\n      dup1\n      0xc0\n      add\n      0x40\n      mstore\n      dup1\n      0x00\n      dup2\n      mstore\n      0x20\n      add\n      0x60\n      dup2\n      mstore\n      0x20\n      add\n      0x60\n      dup2\n      mstore\n      0x20\n      add\n      0x00\n      dup2\n      mstore\n      0x20\n      add\n      and(0xffffffffffffffffffffffffffffffffffffffff, 0x00)\n      dup2\n      mstore\n      0x20\n      add\n      iszero(iszero(0x00))\n      dup2\n      mstore\n      pop\n      swap1\n      jump\t// out\n        /* \"#utility.yul\":7:82   */\n    tag_65:\n        /* \"#utility.yul\":40:46   */\n      0x00\n        /* \"#utility.yul\":73:75   */\n      0x40\n        /* \"#utility.yul\":67:76   */\n      mload\n        /* \"#utility.yul\":57:76   */\n      swap1\n      pop\n        /* \"#utility.yul\":7:82   */\n      swap1\n      jump\t// out\n        /* \"#utility.yul\":88:205   */\n    tag_66:\n        /* \"#utility.yul\":197:198   */\n      0x00\n        /* \"#utility.yul\":194:195   */\n      dup1\n        /* \"#utility.yul\":187:199   */\n      revert\n        /* \"#utility.yul\":211:328   */\n    tag_67:\n        /* \"#utility.yul\":320:321   */\n      0x00\n        /* \"#utility.yul\":317:318   */\n      dup1\n        /* \"#utility.yul\":310:322   */\n      revert\n        /* \"#utility.yul\":334:411   */\n    tag_68:\n        /* \"#utility.yul\":371:378   */\n      0x00\n        /* \"#utility.yul\":400:405   */\n      dup2\n        /* \"#utility.yul\":389:405   */\n      swap1\n      pop\n        /* \"#utility.yul\":334:411   */\n      swap2\n      swap1\n      pop\n      jump\t// out\n        /* \"#utility.yul\":417:539   */\n    tag_69:\n        /* \"#utility.yul\":490:514   */\n      tag_122\n        /* \"#utility.yul\":508:513   */\n      dup2\n        /* \"#utility.yul\":490:514   */\n      tag_68\n      jump\t// in\n    tag_122:\n        /* \"#utility.yul\":483:488   */\n      dup2\n        /* \"#utility.yul\":480:515   */\n      eq\n        /* \"#utility.yul\":470:533   */\n      tag_123\n      jumpi\n        /* \"#utility.yul\":529:530   */\n      0x00\n        /* \"#utility.yul\":526:527   */\n      dup1\n        /* \"#utility.yul\":519:531   */\n      revert\n        /* \"#utility.yul\":470:533   */\n    tag_123:\n        /* \"#utility.yul\":417:539   */\n      pop\n      jump\t// out\n        /* \"#utility.yul\":545:684   */\n    tag_70:\n        /* \"#utility.yul\":591:596   */\n      0x00\n        /* \"#utility.yul\":629:635   */\n      dup2\n        /* \"#utility.yul\":616:636   */\n      calldataload\n        /* \"#utility.yul\":607:636   */\n      swap1\n      pop\n        /* \"#utility.yul\":645:678   */\n      tag_125\n        /* \"#utility.yul\":672:677   */\n      dup2\n        /* \"#utility.yul\":645:678   */\n      tag_69\n      jump\t// in\n    tag_125:\n        /* \"#utility.yul\":545:684   */\n      swap3\n      swap2\n      pop\n      pop\n      jump\t// out\n        /* \"#utility.yul\":690:1019   */\n    tag_10:\n        /* \"#utility.yul\":749:755   */\n      0x00\n        /* \"#utility.yul\":798:800   */\n      0x20\n        /* \"#utility.yul\":786:795   */\n      dup3\n        /* \"#utility.yul\":777:784   */\n      dup5\n        /* \"#utility.yul\":773:796   */\n      sub\n        /* \"#utility.yul\":769:801   */\n      slt\n        /* \"#utility.yul\":766:885   */\n      iszero\n      tag_127\n      jumpi\n        /* \"#utility.yul\":804:883   */\n      tag_128\n      tag_66\n      jump\t// in\n    tag_128:\n        /* \"#utility.yul\":766:885   */\n    tag_127:\n        /* \"#utility.yul\":924:925   */\n      0x00\n        /* \"#utility.yul\":949:1002   */\n      tag_129\n        /* \"#utility.yul\":994:1001   */\n      dup5\n        /* \"#utility.yul\":985:991   */\n      dup3\n        /* \"#utility.yul\":974:983   */\n      dup6\n        /* \"#utility.yul\":970:992   */\n      add\n        /* \"#utility.yul\":949:1002   */\n      tag_70\n      jump\t// in\n    tag_129:\n        /* \"#utility.yul\":939:1002   */\n      swap2\n      pop\n        /* \"#utility.yul\":895:1012   */\n      pop\n        /* \"#utility.yul\":690:1019   */\n      swap3\n      swap2\n      pop\n      pop\n      jump\t// out\n        /* \"#utility.yul\":1025:1133   */\n    tag_71:\n        /* \"#utility.yul\":1102:1126   */\n      tag_131\n        /* \"#utility.yul\":1120:1125   */\n      dup2\n        /* \"#utility.yul\":1102:1126   */\n      tag_68\n      jump\t// in\n    tag_131:\n        /* \"#utility.yul\":1097:1100   */\n      dup3\n        /* \"#utility.yul\":1090:1127   */\n      mstore\n        /* \"#utility.yul\":1025:1133   */\n      pop\n      pop\n      jump\t// out\n        /* \"#utility.yul\":1139:1238   */\n    tag_72:\n        /* \"#utility.yul\":1191:1197   */\n      0x00\n        /* \"#utility.yul\":1225:1230   */\n      dup2\n        /* \"#utility.yul\":1219:1231   */\n      mload\n        /* \"#utility.yul\":1209:1231   */\n      swap1\n      pop\n        /* \"#utility.yul\":1139:1238   */\n      swap2\n      swap1\n      pop\n      jump\t// out\n        /* \"#utility.yul\":1244:1403   */\n    tag_73:\n        /* \"#utility.yul\":1318:1329   */\n      0x00\n        /* \"#utility.yul\":1352:1358   */\n      dup3\n        /* \"#utility.yul\":1347:1350   */\n      dup3\n        /* \"#utility.yul\":1340:1359   */\n      mstore\n        /* \"#utility.yul\":1392:1396   */\n      0x20\n        /* \"#utility.yul\":1387:1390   */\n      dup3\n        /* \"#utility.yul\":1383:1397   */\n      add\n        /* \"#utility.yul\":1368:1397   */\n      swap1\n      pop\n        /* \"#utility.yul\":1244:1403   */\n      swap3\n      swap2\n      pop\n      pop\n      jump\t// out\n        /* \"#utility.yul\":1409:1548   */\n    tag_74:\n        /* \"#utility.yul\":1498:1504   */\n      dup3\n        /* \"#utility.yul\":1493:1496   */\n      dup2\n        /* \"#utility.yul\":1488:1491   */\n      dup4\n        /* \"#utility.yul\":1482:1505   */\n      mcopy\n        /* \"#utility.yul\":1539:1540   */\n      0x00\n        /* \"#utility.yul\":1530:1536   */\n      dup4\n        /* \"#utility.yul\":1525:1528   */\n      dup4\n        /* \"#utility.yul\":1521:1537   */\n      add\n        /* \"#utility.yul\":1514:1541   */\n      mstore\n        /* \"#utility.yul\":1409:1548   */\n      pop\n      pop\n      pop\n      jump\t// out\n        /* \"#utility.yul\":1554:1656   */\n    tag_75:\n        /* \"#utility.yul\":1595:1601   */\n      0x00\n        /* \"#utility.yul\":1646:1648   */\n      0x1f\n        /* \"#utility.yul\":1642:1649   */\n      not\n        /* \"#utility.yul\":1637:1639   */\n      0x1f\n        /* \"#utility.yul\":1630:1635   */\n      dup4\n        /* \"#utility.yul\":1626:1640   */\n      add\n        /* \"#utility.yul\":1622:1650   */\n      and\n        /* \"#utility.yul\":1612:1650   */\n      swap1\n      pop\n        /* \"#utility.yul\":1554:1656   */\n      swap2\n      swap1\n      pop\n      jump\t// out\n        /* \"#utility.yul\":1662:2019   */\n    tag_76:\n        /* \"#utility.yul\":1740:1743   */\n      0x00\n        /* \"#utility.yul\":1768:1807   */\n      tag_137\n        /* \"#utility.yul\":1801:1806   */\n      dup3\n        /* \"#utility.yul\":1768:1807   */\n      tag_72\n      jump\t// in\n    tag_137:\n        /* \"#utility.yul\":1823:1884   */\n      tag_138\n        /* \"#utility.yul\":1877:1883   */\n      dup2\n        /* \"#utility.yul\":1872:1875   */\n      dup6\n        /* \"#utility.yul\":1823:1884   */\n      tag_73\n      jump\t// in\n    tag_138:\n        /* \"#utility.yul\":1816:1884   */\n      swap4\n      pop\n        /* \"#utility.yul\":1893:1958   */\n      tag_139\n        /* \"#utility.yul\":1951:1957   */\n      dup2\n        /* \"#utility.yul\":1946:1949   */\n      dup6\n        /* \"#utility.yul\":1939:1943   */\n      0x20\n        /* \"#utility.yul\":1932:1937   */\n      dup7\n        /* \"#utility.yul\":1928:1944   */\n      add\n        /* \"#utility.yul\":1893:1958   */\n      tag_74\n      jump\t// in\n    tag_139:\n        /* \"#utility.yul\":1983:2012   */\n      tag_140\n        /* \"#utility.yul\":2005:2011   */\n      dup2\n        /* \"#utility.yul\":1983:2012   */\n      tag_75\n      jump\t// in\n    tag_140:\n        /* \"#utility.yul\":1978:1981   */\n      dup5\n        /* \"#utility.yul\":1974:2013   */\n      add\n        /* \"#utility.yul\":1967:2013   */\n      swap2\n      pop\n        /* \"#utility.yul\":1744:2019   */\n      pop\n        /* \"#utility.yul\":1662:2019   */\n      swap3\n      swap2\n      pop\n      pop\n      jump\t// out\n        /* \"#utility.yul\":2025:2151   */\n    tag_77:\n        /* \"#utility.yul\":2062:2069   */\n      0x00\n        /* \"#utility.yul\":2102:2144   */\n      0xffffffffffffffffffffffffffffffffffffffff\n        /* \"#utility.yul\":2095:2100   */\n      dup3\n        /* \"#utility.yul\":2091:2145   */\n      and\n        /* \"#utility.yul\":2080:2145   */\n      swap1\n      pop\n        /* \"#utility.yul\":2025:2151   */\n      swap2\n      swap1\n      pop\n      jump\t// out\n        /* \"#utility.yul\":2157:2253   */\n    tag_78:\n        /* \"#utility.yul\":2194:2201   */\n      0x00\n        /* \"#utility.yul\":2223:2247   */\n      tag_143\n        /* \"#utility.yul\":2241:2246   */\n      dup3\n        /* \"#utility.yul\":2223:2247   */\n      tag_77\n      jump\t// in\n    tag_143:\n        /* \"#utility.yul\":2212:2247   */\n      swap1\n      pop\n        /* \"#utility.yul\":2157:2253   */\n      swap2\n      swap1\n      pop\n      jump\t// out\n        /* \"#utility.yul\":2259:2367   */\n    tag_79:\n        /* \"#utility.yul\":2336:2360   */\n      tag_145\n        /* \"#utility.yul\":2354:2359   */\n      dup2\n        /* \"#utility.yul\":2336:2360   */\n      tag_78\n      jump\t// in\n    tag_145:\n        /* \"#utility.yul\":2331:2334   */\n      dup3\n        /* \"#utility.yul\":2324:2361   */\n      mstore\n        /* \"#utility.yul\":2259:2367   */\n      pop\n      pop\n      jump\t// out\n        /* \"#utility.yul\":2373:2463   */\n    tag_80:\n        /* \"#utility.yul\":2407:2414   */\n      0x00\n        /* \"#utility.yul\":2450:2455   */\n      dup2\n        /* \"#utility.yul\":2443:2456   */\n      iszero\n        /* \"#utility.yul\":2436:2457   */\n      iszero\n        /* \"#utility.yul\":2425:2457   */\n      swap1\n      pop\n        /* \"#utility.yul\":2373:2463   */\n      swap2\n      swap1\n      pop\n      jump\t// out\n        /* \"#utility.yul\":2469:2568   */\n    tag_81:\n        /* \"#utility.yul\":2540:2561   */\n      tag_148\n        /* \"#utility.yul\":2555:2560   */\n      dup2\n        /* \"#utility.yul\":2540:2561   */\n      tag_80\n      jump\t// in\n    tag_148:\n        /* \"#utility.yul\":2535:2538   */\n      dup3\n        /* \"#utility.yul\":2528:2562   */\n      mstore\n        /* \"#utility.yul\":2469:2568   */\n      pop\n      pop\n      jump\t// out\n        /* \"#utility.yul\":2650:4024   */\n    tag_82:\n        /* \"#utility.yul\":2767:2770   */\n      0x00\n        /* \"#utility.yul\":2803:2807   */\n      0xc0\n        /* \"#utility.yul\":2798:2801   */\n      dup4\n        /* \"#utility.yul\":2794:2808   */\n      add\n        /* \"#utility.yul\":2888:2892   */\n      0x00\n        /* \"#utility.yul\":2881:2886   */\n      dup4\n        /* \"#utility.yul\":2877:2893   */\n      add\n        /* \"#utility.yul\":2871:2894   */\n      mload\n        /* \"#utility.yul\":2907:2970   */\n      tag_150\n        /* \"#utility.yul\":2964:2968   */\n      0x00\n        /* \"#utility.yul\":2959:2962   */\n      dup7\n        /* \"#utility.yul\":2955:2969   */\n      add\n        /* \"#utility.yul\":2941:2953   */\n      dup3\n        /* \"#utility.yul\":2907:2970   */\n      tag_71\n      jump\t// in\n    tag_150:\n        /* \"#utility.yul\":2818:2980   */\n      pop\n        /* \"#utility.yul\":3063:3067   */\n      0x20\n        /* \"#utility.yul\":3056:3061   */\n      dup4\n        /* \"#utility.yul\":3052:3068   */\n      add\n        /* \"#utility.yul\":3046:3069   */\n      mload\n        /* \"#utility.yul\":3116:3119   */\n      dup5\n        /* \"#utility.yul\":3110:3114   */\n      dup3\n        /* \"#utility.yul\":3106:3120   */\n      sub\n        /* \"#utility.yul\":3099:3103   */\n      0x20\n        /* \"#utility.yul\":3094:3097   */\n      dup7\n        /* \"#utility.yul\":3090:3104   */\n      add\n        /* \"#utility.yul\":3083:3121   */\n      mstore\n        /* \"#utility.yul\":3142:3215   */\n      tag_151\n        /* \"#utility.yul\":3210:3214   */\n      dup3\n        /* \"#utility.yul\":3196:3208   */\n      dup3\n        /* \"#utility.yul\":3142:3215   */\n      tag_76\n      jump\t// in\n    tag_151:\n        /* \"#utility.yul\":3134:3215   */\n      swap2\n      pop\n        /* \"#utility.yul\":2990:3226   */\n      pop\n        /* \"#utility.yul\":3312:3316   */\n      0x40\n        /* \"#utility.yul\":3305:3310   */\n      dup4\n        /* \"#utility.yul\":3301:3317   */\n      add\n        /* \"#utility.yul\":3295:3318   */\n      mload\n        /* \"#utility.yul\":3365:3368   */\n      dup5\n        /* \"#utility.yul\":3359:3363   */\n      dup3\n        /* \"#utility.yul\":3355:3369   */\n      sub\n        /* \"#utility.yul\":3348:3352   */\n      0x40\n        /* \"#utility.yul\":3343:3346   */\n      dup7\n        /* \"#utility.yul\":3339:3353   */\n      add\n        /* \"#utility.yul\":3332:3370   */\n      mstore\n        /* \"#utility.yul\":3391:3464   */\n      tag_152\n        /* \"#utility.yul\":3459:3463   */\n      dup3\n        /* \"#utility.yul\":3445:3457   */\n      dup3\n        /* \"#utility.yul\":3391:3464   */\n      tag_76\n      jump\t// in\n    tag_152:\n        /* \"#utility.yul\":3383:3464   */\n      swap2\n      pop\n        /* \"#utility.yul\":3236:3475   */\n      pop\n        /* \"#utility.yul\":3558:3562   */\n      0x60\n        /* \"#utility.yul\":3551:3556   */\n      dup4\n        /* \"#utility.yul\":3547:3563   */\n      add\n        /* \"#utility.yul\":3541:3564   */\n      mload\n        /* \"#utility.yul\":3577:3640   */\n      tag_153\n        /* \"#utility.yul\":3634:3638   */\n      0x60\n        /* \"#utility.yul\":3629:3632   */\n      dup7\n        /* \"#utility.yul\":3625:3639   */\n      add\n        /* \"#utility.yul\":3611:3623   */\n      dup3\n        /* \"#utility.yul\":3577:3640   */\n      tag_71\n      jump\t// in\n    tag_153:\n        /* \"#utility.yul\":3485:3650   */\n      pop\n        /* \"#utility.yul\":3733:3737   */\n      0x80\n        /* \"#utility.yul\":3726:3731   */\n      dup4\n        /* \"#utility.yul\":3722:3738   */\n      add\n        /* \"#utility.yul\":3716:3739   */\n      mload\n        /* \"#utility.yul\":3752:3815   */\n      tag_154\n        /* \"#utility.yul\":3809:3813   */\n      0x80\n        /* \"#utility.yul\":3804:3807   */\n      dup7\n        /* \"#utility.yul\":3800:3814   */\n      add\n        /* \"#utility.yul\":3786:3798   */\n      dup3\n        /* \"#utility.yul\":3752:3815   */\n      tag_79\n      jump\t// in\n    tag_154:\n        /* \"#utility.yul\":3660:3825   */\n      pop\n        /* \"#utility.yul\":3911:3915   */\n      0xa0\n        /* \"#utility.yul\":3904:3909   */\n      dup4\n        /* \"#utility.yul\":3900:3916   */\n      add\n        /* \"#utility.yul\":3894:3917   */\n      mload\n        /* \"#utility.yul\":3930:3987   */\n      tag_155\n        /* \"#utility.yul\":3981:3985   */\n      0xa0\n        /* \"#utility.yul\":3976:3979   */\n      dup7\n        /* \"#utility.yul\":3972:3986   */\n      add\n        /* \"#utility.yul\":3958:3970   */\n      dup3\n        /* \"#utility.yul\":3930:3987   */\n      tag_81\n      jump\t// in\n    tag_155:\n        /* \"#utility.yul\":3835:3997   */\n      pop\n        /* \"#utility.yul\":4014:4018   */\n      dup1\n        /* \"#utility.yul\":4007:4018   */\n      swap2\n      pop\n        /* \"#utility.yul\":2772:4024   */\n      pop\n        /* \"#utility.yul\":2650:4024   */\n      swap3\n      swap2\n      pop\n      pop\n      jump\t// out\n        /* \"#utility.yul\":4030:4399   */\n    tag_13:\n        /* \"#utility.yul\":4171:4175   */\n      0x00\n        /* \"#utility.yul\":4209:4211   */\n      0x20\n        /* \"#utility.yul\":4198:4207   */\n      dup3\n        /* \"#utility.yul\":4194:4212   */\n      add\n        /* \"#utility.yul\":4186:4212   */\n      swap1\n      pop\n        /* \"#utility.yul\":4258:4267   */\n      dup2\n        /* \"#utility.yul\":4252:4256   */\n      dup2\n        /* \"#utility.yul\":4248:4268   */\n      sub\n        /* \"#utility.yul\":4244:4245   */\n      0x00\n        /* \"#utility.yul\":4233:4242   */\n      dup4\n        /* \"#utility.yul\":4229:4246   */\n      add\n        /* \"#utility.yul\":4222:4269   */\n      mstore\n        /* \"#utility.yul\":4286:4392   */\n      tag_157\n        /* \"#utility.yul\":4387:4391   */\n      dup2\n        /* \"#utility.yul\":4378:4384   */\n      dup5\n        /* \"#utility.yul\":4286:4392   */\n      tag_82\n      jump\t// in\n    tag_157:\n        /* \"#utility.yul\":4278:4392   */\n      swap1\n      pop\n        /* \"#utility.yul\":4030:4399   */\n      swap3\n      swap2\n      pop\n      pop\n      jump\t// out\n        /* \"#utility.yul\":4405:4879   */\n    tag_16:\n        /* \"#utility.yul\":4473:4479   */\n      0x00\n        /* \"#utility.yul\":4481:4487   */\n      dup1\n        /* \"#utility.yul\":4530:4532   */\n      0x40\n        /* \"#utility.yul\":4518:4527   */\n      dup4\n        /* \"#utility.yul\":4509:4516   */\n      dup6\n        /* \"#utility.yul\":4505:4528   */\n      sub\n        /* \"#utility.yul\":4501:4533   */\n      slt\n        /* \"#utility.yul\":4498:4617   */\n      iszero\n      tag_159\n      jumpi\n        /* \"#utility.yul\":4536:4615   */\n      tag_160\n      tag_66\n      jump\t// in\n    tag_160:\n        /* \"#utility.yul\":4498:4617   */\n    tag_159:\n        /* \"#utility.yul\":4656:4657   */\n      0x00\n        /* \"#utility.yul\":4681:4734   */\n      tag_161\n        /* \"#utility.yul\":4726:4733   */\n      dup6\n        /* \"#utility.yul\":4717:4723   */\n      dup3\n        /* \"#utility.yul\":4706:4715   */\n      dup7\n        /* \"#utility.yul\":4702:4724   */\n      add\n        /* \"#utility.yul\":4681:4734   */\n      tag_70\n      jump\t// in\n    tag_161:\n        /* \"#utility.yul\":4671:4734   */\n      swap3\n      pop\n        /* \"#utility.yul\":4627:4744   */\n      pop\n        /* \"#utility.yul\":4783:4785   */\n      0x20\n        /* \"#utility.yul\":4809:4862   */\n      tag_162\n        /* \"#utility.yul\":4854:4861   */\n      dup6\n        /* \"#utility.yul\":4845:4851   */\n      dup3\n        /* \"#utility.yul\":4834:4843   */\n      dup7\n        /* \"#utility.yul\":4830:4852   */\n      add\n        /* \"#utility.yul\":4809:4862   */\n      tag_70\n      jump\t// in\n    tag_162:\n        /* \"#utility.yul\":4799:4862   */\n      swap2\n      pop\n        /* \"#utility.yul\":4754:4872   */\n      pop\n        /* \"#utility.yul\":4405:4879   */\n      swap3\n      pop\n      swap3\n      swap1\n      pop\n      jump\t// out\n        /* \"#utility.yul\":4885:5002   */\n    tag_83:\n        /* \"#utility.yul\":4994:4995   */\n      0x00\n        /* \"#utility.yul\":4991:4992   */\n      dup1\n        /* \"#utility.yul\":4984:4996   */\n      revert\n        /* \"#utility.yul\":5008:5125   */\n    tag_84:\n        /* \"#utility.yul\":5117:5118   */\n      0x00\n        /* \"#utility.yul\":5114:5115   */\n      dup1\n        /* \"#utility.yul\":5107:5119   */\n      revert\n        /* \"#utility.yul\":5131:5311   */\n    tag_85:\n        /* \"#utility.yul\":5179:5256   */\n      0x4e487b7100000000000000000000000000000000000000000000000000000000\n        /* \"#utility.yul\":5176:5177   */\n      0x00\n        /* \"#utility.yul\":5169:5257   */\n      mstore\n        /* \"#utility.yul\":5276:5280   */\n      0x41\n        /* \"#utility.yul\":5273:5274   */\n      0x04\n        /* \"#utility.yul\":5266:5281   */\n      mstore\n        /* \"#utility.yul\":5300:5304   */\n      0x24\n        /* \"#utility.yul\":5297:5298   */\n      0x00\n        /* \"#utility.yul\":5290:5305   */\n      revert\n        /* \"#utility.yul\":5317:5598   */\n    tag_86:\n        /* \"#utility.yul\":5400:5427   */\n      tag_167\n        /* \"#utility.yul\":5422:5426   */\n      dup3\n        /* \"#utility.yul\":5400:5427   */\n      tag_75\n      jump\t// in\n    tag_167:\n        /* \"#utility.yul\":5392:5398   */\n      dup2\n        /* \"#utility.yul\":5388:5428   */\n      add\n        /* \"#utility.yul\":5530:5536   */\n      dup2\n        /* \"#utility.yul\":5518:5528   */\n      dup2\n        /* \"#utility.yul\":5515:5537   */\n      lt\n        /* \"#utility.yul\":5494:5512   */\n      0xffffffffffffffff\n        /* \"#utility.yul\":5482:5492   */\n      dup3\n        /* \"#utility.yul\":5479:5513   */\n      gt\n        /* \"#utility.yul\":5476:5538   */\n      or\n        /* \"#utility.yul\":5473:5561   */\n      iszero\n      tag_168\n      jumpi\n        /* \"#utility.yul\":5541:5559   */\n      tag_169\n      tag_85\n      jump\t// in\n    tag_169:\n        /* \"#utility.yul\":5473:5561   */\n    tag_168:\n        /* \"#utility.yul\":5581:5591   */\n      dup1\n        /* \"#utility.yul\":5577:5579   */\n      0x40\n        /* \"#utility.yul\":5570:5592   */\n      mstore\n        /* \"#utility.yul\":5360:5598   */\n      pop\n        /* \"#utility.yul\":5317:5598   */\n      pop\n      pop\n      jump\t// out\n        /* \"#utility.yul\":5604:5733   */\n    tag_87:\n        /* \"#utility.yul\":5638:5644   */\n      0x00\n        /* \"#utility.yul\":5665:5685   */\n      tag_171\n      tag_65\n      jump\t// in\n    tag_171:\n        /* \"#utility.yul\":5655:5685   */\n      swap1\n      pop\n        /* \"#utility.yul\":5694:5727   */\n      tag_172\n        /* \"#utility.yul\":5722:5726   */\n      dup3\n        /* \"#utility.yul\":5714:5720   */\n      dup3\n        /* \"#utility.yul\":5694:5727   */\n      tag_86\n      jump\t// in\n    tag_172:\n        /* \"#utility.yul\":5604:5733   */\n      swap2\n      swap1\n      pop\n      jump\t// out\n        /* \"#utility.yul\":5739:6047   */\n    tag_88:\n        /* \"#utility.yul\":5801:5805   */\n      0x00\n        /* \"#utility.yul\":5891:5909   */\n      0xffffffffffffffff\n        /* \"#utility.yul\":5883:5889   */\n      dup3\n        /* \"#utility.yul\":5880:5910   */\n      gt\n        /* \"#utility.yul\":5877:5933   */\n      iszero\n      tag_174\n      jumpi\n        /* \"#utility.yul\":5913:5931   */\n      tag_175\n      tag_85\n      jump\t// in\n    tag_175:\n        /* \"#utility.yul\":5877:5933   */\n    tag_174:\n        /* \"#utility.yul\":5951:5980   */\n      tag_176\n        /* \"#utility.yul\":5973:5979   */\n      dup3\n        /* \"#utility.yul\":5951:5980   */\n      tag_75\n      jump\t// in\n    tag_176:\n        /* \"#utility.yul\":5943:5980   */\n      swap1\n      pop\n        /* \"#utility.yul\":6035:6039   */\n      0x20\n        /* \"#utility.yul\":6029:6033   */\n      dup2\n        /* \"#utility.yul\":6025:6040   */\n      add\n        /* \"#utility.yul\":6017:6040   */\n      swap1\n      pop\n        /* \"#utility.yul\":5739:6047   */\n      swap2\n      swap1\n      pop\n      jump\t// out\n        /* \"#utility.yul\":6053:6201   */\n    tag_89:\n        /* \"#utility.yul\":6151:6157   */\n      dup3\n        /* \"#utility.yul\":6146:6149   */\n      dup2\n        /* \"#utility.yul\":6141:6144   */\n      dup4\n        /* \"#utility.yul\":6128:6158   */\n      calldatacopy\n        /* \"#utility.yul\":6192:6193   */\n      0x00\n        /* \"#utility.yul\":6183:6189   */\n      dup4\n        /* \"#utility.yul\":6178:6181   */\n      dup4\n        /* \"#utility.yul\":6174:6190   */\n      add\n        /* \"#utility.yul\":6167:6194   */\n      mstore\n        /* \"#utility.yul\":6053:6201   */\n      pop\n      pop\n      pop\n      jump\t// out\n        /* \"#utility.yul\":6207:6632   */\n    tag_90:\n        /* \"#utility.yul\":6285:6290   */\n      0x00\n        /* \"#utility.yul\":6310:6376   */\n      tag_179\n        /* \"#utility.yul\":6326:6375   */\n      tag_180\n        /* \"#utility.yul\":6368:6374   */\n      dup5\n        /* \"#utility.yul\":6326:6375   */\n      tag_88\n      jump\t// in\n    tag_180:\n        /* \"#utility.yul\":6310:6376   */\n      tag_87\n      jump\t// in\n    tag_179:\n        /* \"#utility.yul\":6301:6376   */\n      swap1\n      pop\n        /* \"#utility.yul\":6399:6405   */\n      dup3\n        /* \"#utility.yul\":6392:6397   */\n      dup2\n        /* \"#utility.yul\":6385:6406   */\n      mstore\n        /* \"#utility.yul\":6437:6441   */\n      0x20\n        /* \"#utility.yul\":6430:6435   */\n      dup2\n        /* \"#utility.yul\":6426:6442   */\n      add\n        /* \"#utility.yul\":6475:6478   */\n      dup5\n        /* \"#utility.yul\":6466:6472   */\n      dup5\n        /* \"#utility.yul\":6461:6464   */\n      dup5\n        /* \"#utility.yul\":6457:6473   */\n      add\n        /* \"#utility.yul\":6454:6479   */\n      gt\n        /* \"#utility.yul\":6451:6563   */\n      iszero\n      tag_181\n      jumpi\n        /* \"#utility.yul\":6482:6561   */\n      tag_182\n      tag_84\n      jump\t// in\n    tag_182:\n        /* \"#utility.yul\":6451:6563   */\n    tag_181:\n        /* \"#utility.yul\":6572:6626   */\n      tag_183\n        /* \"#utility.yul\":6619:6625   */\n      dup5\n        /* \"#utility.yul\":6614:6617   */\n      dup3\n        /* \"#utility.yul\":6609:6612   */\n      dup6\n        /* \"#utility.yul\":6572:6626   */\n      tag_89\n      jump\t// in\n    tag_183:\n        /* \"#utility.yul\":6291:6632   */\n      pop\n        /* \"#utility.yul\":6207:6632   */\n      swap4\n      swap3\n      pop\n      pop\n      pop\n      jump\t// out\n        /* \"#utility.yul\":6652:6992   */\n    tag_91:\n        /* \"#utility.yul\":6708:6713   */\n      0x00\n        /* \"#utility.yul\":6757:6760   */\n      dup3\n        /* \"#utility.yul\":6750:6754   */\n      0x1f\n        /* \"#utility.yul\":6742:6748   */\n      dup4\n        /* \"#utility.yul\":6738:6755   */\n      add\n        /* \"#utility.yul\":6734:6761   */\n      slt\n        /* \"#utility.yul\":6724:6846   */\n      tag_185\n      jumpi\n        /* \"#utility.yul\":6765:6844   */\n      tag_186\n      tag_83\n      jump\t// in\n    tag_186:\n        /* \"#utility.yul\":6724:6846   */\n    tag_185:\n        /* \"#utility.yul\":6882:6888   */\n      dup2\n        /* \"#utility.yul\":6869:6889   */\n      calldataload\n        /* \"#utility.yul\":6907:6986   */\n      tag_187\n        /* \"#utility.yul\":6982:6985   */\n      dup5\n        /* \"#utility.yul\":6974:6980   */\n      dup3\n        /* \"#utility.yul\":6967:6971   */\n      0x20\n        /* \"#utility.yul\":6959:6965   */\n      dup7\n        /* \"#utility.yul\":6955:6972   */\n      add\n        /* \"#utility.yul\":6907:6986   */\n      tag_90\n      jump\t// in\n    tag_187:\n        /* \"#utility.yul\":6898:6986   */\n      swap2\n      pop\n        /* \"#utility.yul\":6714:6992   */\n      pop\n        /* \"#utility.yul\":6652:6992   */\n      swap3\n      swap2\n      pop\n      pop\n      jump\t// out\n        /* \"#utility.yul\":6998:7977   */\n    tag_20:\n        /* \"#utility.yul\":7095:7101   */\n      0x00\n        /* \"#utility.yul\":7103:7109   */\n      dup1\n        /* \"#utility.yul\":7111:7117   */\n      0x00\n        /* \"#utility.yul\":7160:7162   */\n      0x60\n        /* \"#utility.yul\":7148:7157   */\n      dup5\n        /* \"#utility.yul\":7139:7146   */\n      dup7\n        /* \"#utility.yul\":7135:7158   */\n      sub\n        /* \"#utility.yul\":7131:7163   */\n      slt\n        /* \"#utility.yul\":7128:7247   */\n      iszero\n      tag_189\n      jumpi\n        /* \"#utility.yul\":7166:7245   */\n      tag_190\n      tag_66\n      jump\t// in\n    tag_190:\n        /* \"#utility.yul\":7128:7247   */\n    tag_189:\n        /* \"#utility.yul\":7314:7315   */\n      0x00\n        /* \"#utility.yul\":7303:7312   */\n      dup5\n        /* \"#utility.yul\":7299:7316   */\n      add\n        /* \"#utility.yul\":7286:7317   */\n      calldataload\n        /* \"#utility.yul\":7344:7362   */\n      0xffffffffffffffff\n        /* \"#utility.yul\":7336:7342   */\n      dup2\n        /* \"#utility.yul\":7333:7363   */\n      gt\n        /* \"#utility.yul\":7330:7447   */\n      iszero\n      tag_191\n      jumpi\n        /* \"#utility.yul\":7366:7445   */\n      tag_192\n      tag_67\n      jump\t// in\n    tag_192:\n        /* \"#utility.yul\":7330:7447   */\n    tag_191:\n        /* \"#utility.yul\":7471:7534   */\n      tag_193\n        /* \"#utility.yul\":7526:7533   */\n      dup7\n        /* \"#utility.yul\":7517:7523   */\n      dup3\n        /* \"#utility.yul\":7506:7515   */\n      dup8\n        /* \"#utility.yul\":7502:7524   */\n      add\n        /* \"#utility.yul\":7471:7534   */\n      tag_91\n      jump\t// in\n    tag_193:\n        /* \"#utility.yul\":7461:7534   */\n      swap4\n      pop\n        /* \"#utility.yul\":7257:7544   */\n      pop\n        /* \"#utility.yul\":7611:7613   */\n      0x20\n        /* \"#utility.yul\":7600:7609   */\n      dup5\n        /* \"#utility.yul\":7596:7614   */\n      add\n        /* \"#utility.yul\":7583:7615   */\n      calldataload\n        /* \"#utility.yul\":7642:7660   */\n      0xffffffffffffffff\n        /* \"#utility.yul\":7634:7640   */\n      dup2\n        /* \"#utility.yul\":7631:7661   */\n      gt\n        /* \"#utility.yul\":7628:7745   */\n      iszero\n      tag_194\n      jumpi\n        /* \"#utility.yul\":7664:7743   */\n      tag_195\n      tag_67\n      jump\t// in\n    tag_195:\n        /* \"#utility.yul\":7628:7745   */\n    tag_194:\n        /* \"#utility.yul\":7769:7832   */\n      tag_196\n        /* \"#utility.yul\":7824:7831   */\n      dup7\n        /* \"#utility.yul\":7815:7821   */\n      dup3\n        /* \"#utility.yul\":7804:7813   */\n      dup8\n        /* \"#utility.yul\":7800:7822   */\n      add\n        /* \"#utility.yul\":7769:7832   */\n      tag_91\n      jump\t// in\n    tag_196:\n        /* \"#utility.yul\":7759:7832   */\n      swap3\n      pop\n        /* \"#utility.yul\":7554:7842   */\n      pop\n        /* \"#utility.yul\":7881:7883   */\n      0x40\n        /* \"#utility.yul\":7907:7960   */\n      tag_197\n        /* \"#utility.yul\":7952:7959   */\n      dup7\n        /* \"#utility.yul\":7943:7949   */\n      dup3\n        /* \"#utility.yul\":7932:7941   */\n      dup8\n        /* \"#utility.yul\":7928:7950   */\n      add\n        /* \"#utility.yul\":7907:7960   */\n      tag_70\n      jump\t// in\n    tag_197:\n        /* \"#utility.yul\":7897:7960   */\n      swap2\n      pop\n        /* \"#utility.yul\":7852:7970   */\n      pop\n        /* \"#utility.yul\":6998:7977   */\n      swap3\n      pop\n      swap3\n      pop\n      swap3\n      jump\t// out\n        /* \"#utility.yul\":7983:8101   */\n    tag_92:\n        /* \"#utility.yul\":8070:8094   */\n      tag_199\n        /* \"#utility.yul\":8088:8093   */\n      dup2\n        /* \"#utility.yul\":8070:8094   */\n      tag_68\n      jump\t// in\n    tag_199:\n        /* \"#utility.yul\":8065:8068   */\n      dup3\n        /* \"#utility.yul\":8058:8095   */\n      mstore\n        /* \"#utility.yul\":7983:8101   */\n      pop\n      pop\n      jump\t// out\n        /* \"#utility.yul\":8107:8329   */\n    tag_25:\n        /* \"#utility.yul\":8200:8204   */\n      0x00\n        /* \"#utility.yul\":8238:8240   */\n      0x20\n        /* \"#utility.yul\":8227:8236   */\n      dup3\n        /* \"#utility.yul\":8223:8241   */\n      add\n        /* \"#utility.yul\":8215:8241   */\n      swap1\n      pop\n        /* \"#utility.yul\":8251:8322   */\n      tag_201\n        /* \"#utility.yul\":8319:8320   */\n      0x00\n        /* \"#utility.yul\":8308:8317   */\n      dup4\n        /* \"#utility.yul\":8304:8321   */\n      add\n        /* \"#utility.yul\":8295:8301   */\n      dup5\n        /* \"#utility.yul\":8251:8322   */\n      tag_92\n      jump\t// in\n    tag_201:\n        /* \"#utility.yul\":8107:8329   */\n      swap3\n      swap2\n      pop\n      pop\n      jump\t// out\n        /* \"#utility.yul\":8335:8504   */\n    tag_93:\n        /* \"#utility.yul\":8419:8430   */\n      0x00\n        /* \"#utility.yul\":8453:8459   */\n      dup3\n        /* \"#utility.yul\":8448:8451   */\n      dup3\n        /* \"#utility.yul\":8441:8460   */\n      mstore\n        /* \"#utility.yul\":8493:8497   */\n      0x20\n        /* \"#utility.yul\":8488:8491   */\n      dup3\n        /* \"#utility.yul\":8484:8498   */\n      add\n        /* \"#utility.yul\":8469:8498   */\n      swap1\n      pop\n        /* \"#utility.yul\":8335:8504   */\n      swap3\n      swap2\n      pop\n      pop\n      jump\t// out\n        /* \"#utility.yul\":8510:8887   */\n    tag_94:\n        /* \"#utility.yul\":8598:8601   */\n      0x00\n        /* \"#utility.yul\":8626:8665   */\n      tag_204\n        /* \"#utility.yul\":8659:8664   */\n      dup3\n        /* \"#utility.yul\":8626:8665   */\n      tag_72\n      jump\t// in\n    tag_204:\n        /* \"#utility.yul\":8681:8752   */\n      tag_205\n        /* \"#utility.yul\":8745:8751   */\n      dup2\n        /* \"#utility.yul\":8740:8743   */\n      dup6\n        /* \"#utility.yul\":8681:8752   */\n      tag_93\n      jump\t// in\n    tag_205:\n        /* \"#utility.yul\":8674:8752   */\n      swap4\n      pop\n        /* \"#utility.yul\":8761:8826   */\n      tag_206\n        /* \"#utility.yul\":8819:8825   */\n      dup2\n        /* \"#utility.yul\":8814:8817   */\n      dup6\n        /* \"#utility.yul\":8807:8811   */\n      0x20\n        /* \"#utility.yul\":8800:8805   */\n      dup7\n        /* \"#utility.yul\":8796:8812   */\n      add\n        /* \"#utility.yul\":8761:8826   */\n      tag_74\n      jump\t// in\n    tag_206:\n        /* \"#utility.yul\":8851:8880   */\n      tag_207\n        /* \"#utility.yul\":8873:8879   */\n      dup2\n        /* \"#utility.yul\":8851:8880   */\n      tag_75\n      jump\t// in\n    tag_207:\n        /* \"#utility.yul\":8846:8849   */\n      dup5\n        /* \"#utility.yul\":8842:8881   */\n      add\n        /* \"#utility.yul\":8835:8881   */\n      swap2\n      pop\n        /* \"#utility.yul\":8602:8887   */\n      pop\n        /* \"#utility.yul\":8510:8887   */\n      swap3\n      swap2\n      pop\n      pop\n      jump\t// out\n        /* \"#utility.yul\":8893:9011   */\n    tag_95:\n        /* \"#utility.yul\":8980:9004   */\n      tag_209\n        /* \"#utility.yul\":8998:9003   */\n      dup2\n        /* \"#utility.yul\":8980:9004   */\n      tag_78\n      jump\t// in\n    tag_209:\n        /* \"#utility.yul\":8975:8978   */\n      dup3\n        /* \"#utility.yul\":8968:9005   */\n      mstore\n        /* \"#utility.yul\":8893:9011   */\n      pop\n      pop\n      jump\t// out\n        /* \"#utility.yul\":9017:9126   */\n    tag_96:\n        /* \"#utility.yul\":9098:9119   */\n      tag_211\n        /* \"#utility.yul\":9113:9118   */\n      dup2\n        /* \"#utility.yul\":9098:9119   */\n      tag_80\n      jump\t// in\n    tag_211:\n        /* \"#utility.yul\":9093:9096   */\n      dup3\n        /* \"#utility.yul\":9086:9120   */\n      mstore\n        /* \"#utility.yul\":9017:9126   */\n      pop\n      pop\n      jump\t// out\n        /* \"#utility.yul\":9132:10077   */\n    tag_30:\n        /* \"#utility.yul\":9399:9403   */\n      0x00\n        /* \"#utility.yul\":9437:9440   */\n      0xc0\n        /* \"#utility.yul\":9426:9435   */\n      dup3\n        /* \"#utility.yul\":9422:9441   */\n      add\n        /* \"#utility.yul\":9414:9441   */\n      swap1\n      pop\n        /* \"#utility.yul\":9451:9522   */\n      tag_213\n        /* \"#utility.yul\":9519:9520   */\n      0x00\n        /* \"#utility.yul\":9508:9517   */\n      dup4\n        /* \"#utility.yul\":9504:9521   */\n      add\n        /* \"#utility.yul\":9495:9501   */\n      dup10\n        /* \"#utility.yul\":9451:9522   */\n      tag_92\n      jump\t// in\n    tag_213:\n        /* \"#utility.yul\":9569:9578   */\n      dup2\n        /* \"#utility.yul\":9563:9567   */\n      dup2\n        /* \"#utility.yul\":9559:9579   */\n      sub\n        /* \"#utility.yul\":9554:9556   */\n      0x20\n        /* \"#utility.yul\":9543:9552   */\n      dup4\n        /* \"#utility.yul\":9539:9557   */\n      add\n        /* \"#utility.yul\":9532:9580   */\n      mstore\n        /* \"#utility.yul\":9597:9675   */\n      tag_214\n        /* \"#utility.yul\":9670:9674   */\n      dup2\n        /* \"#utility.yul\":9661:9667   */\n      dup9\n        /* \"#utility.yul\":9597:9675   */\n      tag_94\n      jump\t// in\n    tag_214:\n        /* \"#utility.yul\":9589:9675   */\n      swap1\n      pop\n        /* \"#utility.yul\":9722:9731   */\n      dup2\n        /* \"#utility.yul\":9716:9720   */\n      dup2\n        /* \"#utility.yul\":9712:9732   */\n      sub\n        /* \"#utility.yul\":9707:9709   */\n      0x40\n        /* \"#utility.yul\":9696:9705   */\n      dup4\n        /* \"#utility.yul\":9692:9710   */\n      add\n        /* \"#utility.yul\":9685:9733   */\n      mstore\n        /* \"#utility.yul\":9750:9828   */\n      tag_215\n        /* \"#utility.yul\":9823:9827   */\n      dup2\n        /* \"#utility.yul\":9814:9820   */\n      dup8\n        /* \"#utility.yul\":9750:9828   */\n      tag_94\n      jump\t// in\n    tag_215:\n        /* \"#utility.yul\":9742:9828   */\n      swap1\n      pop\n        /* \"#utility.yul\":9838:9910   */\n      tag_216\n        /* \"#utility.yul\":9906:9908   */\n      0x60\n        /* \"#utility.yul\":9895:9904   */\n      dup4\n        /* \"#utility.yul\":9891:9909   */\n      add\n        /* \"#utility.yul\":9882:9888   */\n      dup7\n        /* \"#utility.yul\":9838:9910   */\n      tag_92\n      jump\t// in\n    tag_216:\n        /* \"#utility.yul\":9920:9993   */\n      tag_217\n        /* \"#utility.yul\":9988:9991   */\n      0x80\n        /* \"#utility.yul\":9977:9986   */\n      dup4\n        /* \"#utility.yul\":9973:9992   */\n      add\n        /* \"#utility.yul\":9964:9970   */\n      dup6\n        /* \"#utility.yul\":9920:9993   */\n      tag_95\n      jump\t// in\n    tag_217:\n        /* \"#utility.yul\":10003:10070   */\n      tag_218\n        /* \"#utility.yul\":10065:10068   */\n      0xa0\n        /* \"#utility.yul\":10054:10063   */\n      dup4\n        /* \"#utility.yul\":10050:10069   */\n      add\n        /* \"#utility.yul\":10041:10047   */\n      dup5\n        /* \"#utility.yul\":10003:10070   */\n      tag_96\n      jump\t// in\n    tag_218:\n        /* \"#utility.yul\":9132:10077   */\n      swap8\n      swap7\n      pop\n      pop\n      pop\n      pop\n      pop\n      pop\n      pop\n      jump\t// out\n        /* \"#utility.yul\":10083:10263   */\n    tag_97:\n        /* \"#utility.yul\":10131:10208   */\n      0x4e487b7100000000000000000000000000000000000000000000000000000000\n        /* \"#utility.yul\":10128:10129   */\n      0x00\n        /* \"#utility.yul\":10121:10209   */\n      mstore\n        /* \"#utility.yul\":10228:10232   */\n      0x22\n        /* \"#utility.yul\":10225:10226   */\n      0x04\n        /* \"#utility.yul\":10218:10233   */\n      mstore\n        /* \"#utility.yul\":10252:10256   */\n      0x24\n        /* \"#utility.yul\":10249:10250   */\n      0x00\n        /* \"#utility.yul\":10242:10257   */\n      revert\n        /* \"#utility.yul\":10269:10589   */\n    tag_35:\n        /* \"#utility.yul\":10313:10319   */\n      0x00\n        /* \"#utility.yul\":10350:10351   */\n      0x02\n        /* \"#utility.yul\":10344:10348   */\n      dup3\n        /* \"#utility.yul\":10340:10352   */\n      div\n        /* \"#utility.yul\":10330:10352   */\n      swap1\n      pop\n        /* \"#utility.yul\":10397:10398   */\n      0x01\n        /* \"#utility.yul\":10391:10395   */\n      dup3\n        /* \"#utility.yul\":10387:10399   */\n      and\n        /* \"#utility.yul\":10418:10436   */\n      dup1\n        /* \"#utility.yul\":10408:10489   */\n      tag_221\n      jumpi\n        /* \"#utility.yul\":10474:10478   */\n      0x7f\n        /* \"#utility.yul\":10466:10472   */\n      dup3\n        /* \"#utility.yul\":10462:10479   */\n      and\n        /* \"#utility.yul\":10452:10479   */\n      swap2\n      pop\n        /* \"#utility.yul\":10408:10489   */\n    tag_221:\n        /* \"#utility.yul\":10536:10538   */\n      0x20\n        /* \"#utility.yul\":10528:10534   */\n      dup3\n        /* \"#utility.yul\":10525:10539   */\n      lt\n        /* \"#utility.yul\":10505:10523   */\n      dup2\n        /* \"#utility.yul\":10502:10540   */\n      sub\n        /* \"#utility.yul\":10499:10583   */\n      tag_222\n      jumpi\n        /* \"#utility.yul\":10555:10573   */\n      tag_223\n      tag_97\n      jump\t// in\n    tag_223:\n        /* \"#utility.yul\":10499:10583   */\n    tag_222:\n        /* \"#utility.yul\":10320:10589   */\n      pop\n        /* \"#utility.yul\":10269:10589   */\n      swap2\n      swap1\n      pop\n      jump\t// out\n        /* \"#utility.yul\":10595:10824   */\n    tag_98:\n        /* \"#utility.yul\":10735:10769   */\n      0x4f6e6c792070726f7065727479206f776e65722063616e207570646174652074\n        /* \"#utility.yul\":10731:10732   */\n      0x00\n        /* \"#utility.yul\":10723:10729   */\n      dup3\n        /* \"#utility.yul\":10719:10733   */\n      add\n        /* \"#utility.yul\":10712:10770   */\n      mstore\n        /* \"#utility.yul\":10804:10816   */\n      0x6865206c697374696e6700000000000000000000000000000000000000000000\n        /* \"#utility.yul\":10799:10801   */\n      0x20\n        /* \"#utility.yul\":10791:10797   */\n      dup3\n        /* \"#utility.yul\":10787:10802   */\n      add\n        /* \"#utility.yul\":10780:10817   */\n      mstore\n        /* \"#utility.yul\":10595:10824   */\n      pop\n      jump\t// out\n        /* \"#utility.yul\":10830:11196   */\n    tag_99:\n        /* \"#utility.yul\":10972:10975   */\n      0x00\n        /* \"#utility.yul\":10993:11060   */\n      tag_226\n        /* \"#utility.yul\":11057:11059   */\n      0x2a\n        /* \"#utility.yul\":11052:11055   */\n      dup4\n        /* \"#utility.yul\":10993:11060   */\n      tag_93\n      jump\t// in\n    tag_226:\n        /* \"#utility.yul\":10986:11060   */\n      swap2\n      pop\n        /* \"#utility.yul\":11069:11162   */\n      tag_227\n        /* \"#utility.yul\":11158:11161   */\n      dup3\n        /* \"#utility.yul\":11069:11162   */\n      tag_98\n      jump\t// in\n    tag_227:\n        /* \"#utility.yul\":11187:11189   */\n      0x40\n        /* \"#utility.yul\":11182:11185   */\n      dup3\n        /* \"#utility.yul\":11178:11190   */\n      add\n        /* \"#utility.yul\":11171:11190   */\n      swap1\n      pop\n        /* \"#utility.yul\":10830:11196   */\n      swap2\n      swap1\n      pop\n      jump\t// out\n        /* \"#utility.yul\":11202:11621   */\n    tag_48:\n        /* \"#utility.yul\":11368:11372   */\n      0x00\n        /* \"#utility.yul\":11406:11408   */\n      0x20\n        /* \"#utility.yul\":11395:11404   */\n      dup3\n        /* \"#utility.yul\":11391:11409   */\n      add\n        /* \"#utility.yul\":11383:11409   */\n      swap1\n      pop\n        /* \"#utility.yul\":11455:11464   */\n      dup2\n        /* \"#utility.yul\":11449:11453   */\n      dup2\n        /* \"#utility.yul\":11445:11465   */\n      sub\n        /* \"#utility.yul\":11441:11442   */\n      0x00\n        /* \"#utility.yul\":11430:11439   */\n      dup4\n        /* \"#utility.yul\":11426:11443   */\n      add\n        /* \"#utility.yul\":11419:11466   */\n      mstore\n        /* \"#utility.yul\":11483:11614   */\n      tag_229\n        /* \"#utility.yul\":11609:11613   */\n      dup2\n        /* \"#utility.yul\":11483:11614   */\n      tag_99\n      jump\t// in\n    tag_229:\n        /* \"#utility.yul\":11475:11614   */\n      swap1\n      pop\n        /* \"#utility.yul\":11202:11621   */\n      swap2\n      swap1\n      pop\n      jump\t// out\n        /* \"#utility.yul\":11627:11807   */\n    tag_100:\n        /* \"#utility.yul\":11675:11752   */\n      0x4e487b7100000000000000000000000000000000000000000000000000000000\n        /* \"#utility.yul\":11672:11673   */\n      0x00\n        /* \"#utility.yul\":11665:11753   */\n      mstore\n        /* \"#utility.yul\":11772:11776   */\n      0x11\n        /* \"#utility.yul\":11769:11770   */\n      0x04\n        /* \"#utility.yul\":11762:11777   */\n      mstore\n        /* \"#utility.yul\":11796:11800   */\n      0x24\n        /* \"#utility.yul\":11793:11794   */\n      0x00\n        /* \"#utility.yul\":11786:11801   */\n      revert\n        /* \"#utility.yul\":11813:12046   */\n    tag_51:\n        /* \"#utility.yul\":11852:11855   */\n      0x00\n        /* \"#utility.yul\":11875:11899   */\n      tag_232\n        /* \"#utility.yul\":11893:11898   */\n      dup3\n        /* \"#utility.yul\":11875:11899   */\n      tag_68\n      jump\t// in\n    tag_232:\n        /* \"#utility.yul\":11866:11899   */\n      swap2\n      pop\n        /* \"#utility.yul\":11921:11987   */\n      0xffffffffffffffffffffffffffffffffffffffffffffffffffffffffffffffff\n        /* \"#utility.yul\":11914:11919   */\n      dup3\n        /* \"#utility.yul\":11911:11988   */\n      sub\n        /* \"#utility.yul\":11908:12011   */\n      tag_233\n      jumpi\n        /* \"#utility.yul\":11991:12009   */\n      tag_234\n      tag_100\n      jump\t// in\n    tag_234:\n        /* \"#utility.yul\":11908:12011   */\n    tag_233:\n        /* \"#utility.yul\":12038:12039   */\n      0x01\n        /* \"#utility.yul\":12031:12036   */\n      dup3\n        /* \"#utility.yul\":12027:12040   */\n      add\n        /* \"#utility.yul\":12020:12040   */\n      swap1\n      pop\n        /* \"#utility.yul\":11813:12046   */\n      swap2\n      swap1\n      pop\n      jump\t// out\n        /* \"#utility.yul\":12052:12193   */\n    tag_101:\n        /* \"#utility.yul\":12101:12105   */\n      0x00\n        /* \"#utility.yul\":12124:12127   */\n      dup2\n        /* \"#utility.yul\":12116:12127   */\n      swap1\n      pop\n        /* \"#utility.yul\":12147:12150   */\n      dup2\n        /* \"#utility.yul\":12144:12145   */\n      0x00\n        /* \"#utility.yul\":12137:12151   */\n      mstore\n        /* \"#utility.yul\":12181:12185   */\n      0x20\n        /* \"#utility.yul\":12178:12179   */\n      0x00\n        /* \"#utility.yul\":12168:12186   */\n      keccak256\n        /* \"#utility.yul\":12160:12186   */\n      swap1\n      pop\n        /* \"#utility.yul\":12052:12193   */\n      swap2\n      swap1\n      pop\n      jump\t// out\n        /* \"#utility.yul\":12199:12292   */\n    tag_102:\n        /* \"#utility.yul\":12236:12242   */\n      0x00\n        /* \"#utility.yul\":12283:12285   */\n      0x20\n        /* \"#utility.yul\":12278:12280   */\n      0x1f\n        /* \"#utility.yul\":12271:12276   */\n      dup4\n        /* \"#utility.yul\":12267:12281   */\n      add\n        /* \"#utility.yul\":12263:12286   */\n      div\n        /* \"#utility.yul\":12253:12286   */\n      swap1\n      pop\n        /* \"#utility.yul\":12199:12292   */\n      swap2\n      swap1\n      pop\n      jump\t// out\n        /* \"#utility.yul\":12298:12405   */\n    tag_103:\n        /* \"#utility.yul\":12342:12350   */\n      0x00\n        /* \"#utility.yul\":12392:12397   */\n      dup3\n        /* \"#utility.yul\":12386:12390   */\n      dup3\n        /* \"#utility.yul\":12382:12398   */\n      shl\n        /* \"#utility.yul\":12361:12398   */\n      swap1\n      pop\n        /* \"#utility.yul\":12298:12405   */\n      swap3\n      swap2\n      pop\n      pop\n      jump\t// out\n        /* \"#utility.yul\":12411:12804   */\n    tag_104:\n        /* \"#utility.yul\":12480:12486   */\n      0x00\n        /* \"#utility.yul\":12530:12531   */\n      0x08\n        /* \"#utility.yul\":12518:12528   */\n      dup4\n        /* \"#utility.yul\":12514:12532   */\n      mul\n        /* \"#utility.yul\":12553:12650   */\n      tag_239\n        /* \"#utility.yul\":12583:12649   */\n      0xffffffffffffffffffffffffffffffffffffffffffffffffffffffffffffffff\n        /* \"#utility.yul\":12572:12581   */\n      dup3\n        /* \"#utility.yul\":12553:12650   */\n      tag_103\n      jump\t// in\n    tag_239:\n        /* \"#utility.yul\":12671:12710   */\n      tag_240\n        /* \"#utility.yul\":12701:12709   */\n      dup7\n        /* \"#utility.yul\":12690:12699   */\n      dup4\n        /* \"#utility.yul\":12671:12710   */\n      tag_103\n      jump\t// in\n    tag_240:\n        /* \"#utility.yul\":12659:12710   */\n      swap6\n      pop\n        /* \"#utility.yul\":12743:12747   */\n      dup1\n        /* \"#utility.yul\":12739:12748   */\n      not\n        /* \"#utility.yul\":12732:12737   */\n      dup5\n        /* \"#utility.yul\":12728:12749   */\n      and\n        /* \"#utility.yul\":12719:12749   */\n      swap4\n      pop\n        /* \"#utility.yul\":12792:12796   */\n      dup1\n        /* \"#utility.yul\":12782:12790   */\n      dup7\n        /* \"#utility.yul\":12778:12797   */\n      and\n        /* \"#utility.yul\":12771:12776   */\n      dup5\n        /* \"#utility.yul\":12768:12798   */\n      or\n        /* \"#utility.yul\":12758:12798   */\n      swap3\n      pop\n        /* \"#utility.yul\":12487:12804   */\n      pop\n      pop\n        /* \"#utility.yul\":12411:12804   */\n      swap4\n      swap3\n      pop\n      pop\n      pop\n      jump\t// out\n        /* \"#utility.yul\":12810:12870   */\n    tag_105:\n        /* \"#utility.yul\":12838:12841   */\n      0x00\n        /* \"#utility.yul\":12859:12864   */\n      dup2\n        /* \"#utility.yul\":12852:12864   */\n      swap1\n      pop\n        /* \"#utility.yul\":12810:12870   */\n      swap2\n      swap1\n      pop\n      jump\t// out\n        /* \"#utility.yul\":12876:13018   */\n    tag_106:\n        /* \"#utility.yul\":12926:12935   */\n      0x00\n        /* \"#utility.yul\":12959:13012   */\n      tag_243\n        /* \"#utility.yul\":12977:13011   */\n      tag_244\n        /* \"#utility.yul\":12986:13010   */\n      tag_245\n        /* \"#utility.yul\":13004:13009   */\n      dup5\n        /* \"#utility.yul\":12986:13010   */\n      tag_68\n      jump\t// in\n    tag_245:\n        /* \"#utility.yul\":12977:13011   */\n      tag_105\n      jump\t// in\n    tag_244:\n        /* \"#utility.yul\":12959:13012   */\n      tag_68\n      jump\t// in\n    tag_243:\n        /* \"#utility.yul\":12946:13012   */\n      swap1\n      pop\n        /* \"#utility.yul\":12876:13018   */\n      swap2\n      swap1\n      pop\n      jump\t// out\n        /* \"#utility.yul\":13024:13099   */\n    tag_107:\n        /* \"#utility.yul\":13067:13070   */\n      0x00\n        /* \"#utility.yul\":13088:13093   */\n      dup2\n        /* \"#utility.yul\":13081:13093   */\n      swap1\n      pop\n        /* \"#utility.yul\":13024:13099   */\n      swap2\n      swap1\n      pop\n      jump\t// out\n        /* \"#utility.yul\":13105:13374   */\n    tag_108:\n        /* \"#utility.yul\":13215:13254   */\n      tag_248\n        /* \"#utility.yul\":13246:13253   */\n      dup4\n        /* \"#utility.yul\":13215:13254   */\n      tag_106\n      jump\t// in\n    tag_248:\n        /* \"#utility.yul\":13276:13367   */\n      tag_249\n        /* \"#utility.yul\":13325:13366   */\n      tag_250\n        /* \"#utility.yul\":13349:13365   */\n      dup3\n        /* \"#utility.yul\":13325:13366   */\n      tag_107\n      jump\t// in\n    tag_250:\n        /* \"#utility.yul\":13317:13323   */\n      dup5\n        /* \"#utility.yul\":13310:13314   */\n      dup5\n        /* \"#utility.yul\":13304:13315   */\n      sload\n        /* \"#utility.yul\":13276:13367   */\n      tag_104\n      jump\t// in\n    tag_249:\n        /* \"#utility.yul\":13270:13274   */\n      dup3\n        /* \"#utility.yul\":13263:13368   */\n      sstore\n        /* \"#utility.yul\":13181:13374   */\n      pop\n        /* \"#utility.yul\":13105:13374   */\n      pop\n      pop\n      pop\n      jump\t// out\n        /* \"#utility.yul\":13380:13453   */\n    tag_109:\n        /* \"#utility.yul\":13425:13428   */\n      0x00\n        /* \"#utility.yul\":13380:13453   */\n      swap1\n      jump\t// out\n        /* \"#utility.yul\":13459:13648   */\n    tag_110:\n        /* \"#utility.yul\":13536:13568   */\n      tag_253\n      tag_109\n      jump\t// in\n    tag_253:\n        /* \"#utility.yul\":13577:13642   */\n      tag_254\n        /* \"#utility.yul\":13635:13641   */\n      dup2\n        /* \"#utility.yul\":13627:13633   */\n      dup5\n        /* \"#utility.yul\":13621:13625   */\n      dup5\n        /* \"#utility.yul\":13577:13642   */\n      tag_108\n      jump\t// in\n    tag_254:\n        /* \"#utility.yul\":13512:13648   */\n      pop\n        /* \"#utility.yul\":13459:13648   */\n      pop\n      pop\n      jump\t// out\n        /* \"#utility.yul\":13654:13840   */\n    tag_111:\n        /* \"#utility.yul\":13714:13834   */\n    tag_256:\n        /* \"#utility.yul\":13731:13734   */\n      dup2\n        /* \"#utility.yul\":13724:13729   */\n      dup2\n        /* \"#utility.yul\":13721:13735   */\n      lt\n        /* \"#utility.yul\":13714:13834   */\n      iszero\n      tag_258\n      jumpi\n        /* \"#utility.yul\":13785:13824   */\n      tag_259\n        /* \"#utility.yul\":13822:13823   */\n      0x00\n        /* \"#utility.yul\":13815:13820   */\n      dup3\n        /* \"#utility.yul\":13785:13824   */\n      tag_110\n      jump\t// in\n    tag_259:\n        /* \"#utility.yul\":13758:13759   */\n      0x01\n        /* \"#utility.yul\":13751:13756   */\n      dup2\n        /* \"#utility.yul\":13747:13760   */\n      add\n        /* \"#utility.yul\":13738:13760   */\n      swap1\n      pop\n        /* \"#utility.yul\":13714:13834   */\n      jump(tag_256)\n    tag_258:\n        /* \"#utility.yul\":13654:13840   */\n      pop\n      pop\n      jump\t// out\n        /* \"#utility.yul\":13846:14389   */\n    tag_112:\n        /* \"#utility.yul\":13947:13949   */\n      0x1f\n        /* \"#utility.yul\":13942:13945   */\n      dup3\n        /* \"#utility.yul\":13939:13950   */\n      gt\n        /* \"#utility.yul\":13936:14382   */\n      iszero\n      tag_261\n      jumpi\n        /* \"#utility.yul\":13981:14019   */\n      tag_262\n        /* \"#utility.yul\":14013:14018   */\n      dup2\n        /* \"#utility.yul\":13981:14019   */\n      tag_101\n      jump\t// in\n    tag_262:\n        /* \"#utility.yul\":14065:14094   */\n      tag_263\n        /* \"#utility.yul\":14083:14093   */\n      dup5\n        /* \"#utility.yul\":14065:14094   */\n      tag_102\n      jump\t// in\n    tag_263:\n        /* \"#utility.yul\":14055:14063   */\n      dup2\n        /* \"#utility.yul\":14051:14095   */\n      add\n        /* \"#utility.yul\":14248:14250   */\n      0x20\n        /* \"#utility.yul\":14236:14246   */\n      dup6\n        /* \"#utility.yul\":14233:14251   */\n      lt\n        /* \"#utility.yul\":14230:14279   */\n      iszero\n      tag_264\n      jumpi\n        /* \"#utility.yul\":14269:14277   */\n      dup2\n        /* \"#utility.yul\":14254:14277   */\n      swap1\n      pop\n        /* \"#utility.yul\":14230:14279   */\n    tag_264:\n        /* \"#utility.yul\":14292:14372   */\n      tag_265\n        /* \"#utility.yul\":14348:14370   */\n      tag_266\n        /* \"#utility.yul\":14366:14369   */\n      dup6\n        /* \"#utility.yul\":14348:14370   */\n      tag_102\n      jump\t// in\n    tag_266:\n        /* \"#utility.yul\":14338:14346   */\n      dup4\n        /* \"#utility.yul\":14334:14371   */\n      add\n        /* \"#utility.yul\":14321:14332   */\n      dup3\n        /* \"#utility.yul\":14292:14372   */\n      tag_111\n      jump\t// in\n    tag_265:\n        /* \"#utility.yul\":13951:14382   */\n      pop\n      pop\n        /* \"#utility.yul\":13936:14382   */\n    tag_261:\n        /* \"#utility.yul\":13846:14389   */\n      pop\n      pop\n      pop\n      jump\t// out\n        /* \"#utility.yul\":14395:14512   */\n    tag_113:\n        /* \"#utility.yul\":14449:14457   */\n      0x00\n        /* \"#utility.yul\":14499:14504   */\n      dup3\n        /* \"#utility.yul\":14493:14497   */\n      dup3\n        /* \"#utility.yul\":14489:14505   */\n      shr\n        /* \"#utility.yul\":14468:14505   */\n      swap1\n      pop\n        /* \"#utility.yul\":14395:14512   */\n      swap3\n      swap2\n      pop\n      pop\n      jump\t// out\n        /* \"#utility.yul\":14518:14687   */\n    tag_114:\n        /* \"#utility.yul\":14562:14568   */\n      0x00\n        /* \"#utility.yul\":14595:14646   */\n      tag_269\n        /* \"#utility.yul\":14643:14644   */\n      0x00\n        /* \"#utility.yul\":14639:14645   */\n      not\n        /* \"#utility.yul\":14631:14636   */\n      dup5\n        /* \"#utility.yul\":14628:14629   */\n      0x08\n        /* \"#utility.yul\":14624:14637   */\n      mul\n        /* \"#utility.yul\":14595:14646   */\n      tag_113\n      jump\t// in\n    tag_269:\n        /* \"#utility.yul\":14591:14647   */\n      not\n        /* \"#utility.yul\":14676:14680   */\n      dup1\n        /* \"#utility.yul\":14670:14674   */\n      dup4\n        /* \"#utility.yul\":14666:14681   */\n      and\n        /* \"#utility.yul\":14656:14681   */\n      swap2\n      pop\n        /* \"#utility.yul\":14569:14687   */\n      pop\n        /* \"#utility.yul\":14518:14687   */\n      swap3\n      swap2\n      pop\n      pop\n      jump\t// out\n        /* \"#utility.yul\":14692:14987   */\n    tag_115:\n        /* \"#utility.yul\":14768:14772   */\n      0x00\n        /* \"#utility.yul\":14914:14943   */\n      tag_271\n        /* \"#utility.yul\":14939:14942   */\n      dup4\n        /* \"#utility.yul\":14933:14937   */\n      dup4\n        /* \"#utility.yul\":14914:14943   */\n      tag_114\n      jump\t// in\n    tag_271:\n        /* \"#utility.yul\":14906:14943   */\n      swap2\n      pop\n        /* \"#utility.yul\":14976:14979   */\n      dup3\n        /* \"#utility.yul\":14973:14974   */\n      0x02\n        /* \"#utility.yul\":14969:14980   */\n      mul\n        /* \"#utility.yul\":14963:14967   */\n      dup3\n        /* \"#utility.yul\":14960:14981   */\n      or\n        /* \"#utility.yul\":14952:14981   */\n      swap1\n      pop\n        /* \"#utility.yul\":14692:14987   */\n      swap3\n      swap2\n      pop\n      pop\n      jump\t// out\n        /* \"#utility.yul\":14992:16387   */\n    tag_53:\n        /* \"#utility.yul\":15109:15146   */\n      tag_273\n        /* \"#utility.yul\":15142:15145   */\n      dup3\n        /* \"#utility.yul\":15109:15146   */\n      tag_72\n      jump\t// in\n    tag_273:\n        /* \"#utility.yul\":15211:15229   */\n      0xffffffffffffffff\n        /* \"#utility.yul\":15203:15209   */\n      dup2\n        /* \"#utility.yul\":15200:15230   */\n      gt\n        /* \"#utility.yul\":15197:15253   */\n      iszero\n      tag_274\n      jumpi\n        /* \"#utility.yul\":15233:15251   */\n      tag_275\n      tag_85\n      jump\t// in\n    tag_275:\n        /* \"#utility.yul\":15197:15253   */\n    tag_274:\n        /* \"#utility.yul\":15277:15315   */\n      tag_276\n        /* \"#utility.yul\":15309:15313   */\n      dup3\n        /* \"#utility.yul\":15303:15314   */\n      sload\n        /* \"#utility.yul\":15277:15315   */\n      tag_35\n      jump\t// in\n    tag_276:\n        /* \"#utility.yul\":15362:15429   */\n      tag_277\n        /* \"#utility.yul\":15422:15428   */\n      dup3\n        /* \"#utility.yul\":15414:15420   */\n      dup3\n        /* \"#utility.yul\":15408:15412   */\n      dup6\n        /* \"#utility.yul\":15362:15429   */\n      tag_112\n      jump\t// in\n    tag_277:\n        /* \"#utility.yul\":15456:15457   */\n      0x00\n        /* \"#utility.yul\":15480:15484   */\n      0x20\n        /* \"#utility.yul\":15467:15484   */\n      swap1\n      pop\n        /* \"#utility.yul\":15512:15514   */\n      0x1f\n        /* \"#utility.yul\":15504:15510   */\n      dup4\n        /* \"#utility.yul\":15501:15515   */\n      gt\n        /* \"#utility.yul\":15529:15530   */\n      0x01\n        /* \"#utility.yul\":15524:16142   */\n      dup2\n      eq\n      tag_279\n      jumpi\n        /* \"#utility.yul\":16186:16187   */\n      0x00\n        /* \"#utility.yul\":16203:16209   */\n      dup5\n        /* \"#utility.yul\":16200:16277   */\n      iszero\n      tag_280\n      jumpi\n        /* \"#utility.yul\":16252:16261   */\n      dup3\n        /* \"#utility.yul\":16247:16250   */\n      dup8\n        /* \"#utility.yul\":16243:16262   */\n      add\n        /* \"#utility.yul\":16237:16263   */\n      mload\n        /* \"#utility.yul\":16228:16263   */\n      swap1\n      pop\n        /* \"#utility.yul\":16200:16277   */\n    tag_280:\n        /* \"#utility.yul\":16303:16370   */\n      tag_281\n        /* \"#utility.yul\":16363:16369   */\n      dup6\n        /* \"#utility.yul\":16356:16361   */\n      dup3\n        /* \"#utility.yul\":16303:16370   */\n      tag_115\n      jump\t// in\n    tag_281:\n        /* \"#utility.yul\":16297:16301   */\n      dup7\n        /* \"#utility.yul\":16290:16371   */\n      sstore\n        /* \"#utility.yul\":16159:16381   */\n      pop\n        /* \"#utility.yul\":15494:16381   */\n      jump(tag_278)\n        /* \"#utility.yul\":15524:16142   */\n    tag_279:\n        /* \"#utility.yul\":15576:15580   */\n      0x1f\n        /* \"#utility.yul\":15572:15581   */\n      not\n        /* \"#utility.yul\":15564:15570   */\n      dup5\n        /* \"#utility.yul\":15560:15582   */\n      and\n        /* \"#utility.yul\":15610:15647   */\n      tag_282\n        /* \"#utility.yul\":15642:15646   */\n      dup7\n        /* \"#utility.yul\":15610:15647   */\n      tag_101\n      jump\t// in\n    tag_282:\n        /* \"#utility.yul\":15669:15670   */\n      0x00\n        /* \"#utility.yul\":15683:15891   */\n    tag_283:\n        /* \"#utility.yul\":15697:15704   */\n      dup3\n        /* \"#utility.yul\":15694:15695   */\n      dup2\n        /* \"#utility.yul\":15691:15705   */\n      lt\n        /* \"#utility.yul\":15683:15891   */\n      iszero\n      tag_285\n      jumpi\n        /* \"#utility.yul\":15776:15785   */\n      dup5\n        /* \"#utility.yul\":15771:15774   */\n      dup10\n        /* \"#utility.yul\":15767:15786   */\n      add\n        /* \"#utility.yul\":15761:15787   */\n      mload\n        /* \"#utility.yul\":15753:15759   */\n      dup3\n        /* \"#utility.yul\":15746:15788   */\n      sstore\n        /* \"#utility.yul\":15827:15828   */\n      0x01\n        /* \"#utility.yul\":15819:15825   */\n      dup3\n        /* \"#utility.yul\":15815:15829   */\n      add\n        /* \"#utility.yul\":15805:15829   */\n      swap2\n      pop\n        /* \"#utility.yul\":15874:15876   */\n      0x20\n        /* \"#utility.yul\":15863:15872   */\n      dup6\n        /* \"#utility.yul\":15859:15877   */\n      add\n        /* \"#utility.yul\":15846:15877   */\n      swap5\n      pop\n        /* \"#utility.yul\":15720:15724   */\n      0x20\n        /* \"#utility.yul\":15717:15718   */\n      dup2\n        /* \"#utility.yul\":15713:15725   */\n      add\n        /* \"#utility.yul\":15708:15725   */\n      swap1\n      pop\n        /* \"#utility.yul\":15683:15891   */\n      jump(tag_283)\n    tag_285:\n        /* \"#utility.yul\":15919:15925   */\n      dup7\n        /* \"#utility.yul\":15910:15917   */\n      dup4\n        /* \"#utility.yul\":15907:15926   */\n      lt\n        /* \"#utility.yul\":15904:16083   */\n      iszero\n      tag_286\n      jumpi\n        /* \"#utility.yul\":15977:15986   */\n      dup5\n        /* \"#utility.yul\":15972:15975   */\n      dup10\n        /* \"#utility.yul\":15968:15987   */\n      add\n        /* \"#utility.yul\":15962:15988   */\n      mload\n        /* \"#utility.yul\":16020:16068   */\n      tag_287\n        /* \"#utility.yul\":16062:16066   */\n      0x1f\n        /* \"#utility.yul\":16054:16060   */\n      dup10\n        /* \"#utility.yul\":16050:16067   */\n      and\n        /* \"#utility.yul\":16039:16048   */\n      dup3\n        /* \"#utility.yul\":16020:16068   */\n      tag_114\n      jump\t// in\n    tag_287:\n        /* \"#utility.yul\":16012:16018   */\n      dup4\n        /* \"#utility.yul\":16005:16069   */\n      sstore\n        /* \"#utility.yul\":15927:16083   */\n      pop\n        /* \"#utility.yul\":15904:16083   */\n    tag_286:\n        /* \"#utility.yul\":16129:16130   */\n      0x01\n        /* \"#utility.yul\":16125:16126   */\n      0x02\n        /* \"#utility.yul\":16117:16123   */\n      dup9\n        /* \"#utility.yul\":16113:16127   */\n      mul\n        /* \"#utility.yul\":16109:16131   */\n      add\n        /* \"#utility.yul\":16103:16107   */\n      dup9\n        /* \"#utility.yul\":16096:16132   */\n      sstore\n        /* \"#utility.yul\":15531:16142   */\n      pop\n      pop\n      pop\n        /* \"#utility.yul\":15494:16381   */\n    tag_278:\n      pop\n        /* \"#utility.yul\":15084:16387   */\n      pop\n      pop\n      pop\n        /* \"#utility.yul\":14992:16387   */\n      pop\n      pop\n      jump\t// out\n\n    auxdata: 0xa2646970667358221220c42afd2d9051d53291f917b171ce6281f9535693828174525661255f6c7b6c8d64736f6c63430008190033\n}\n",
				"bytecode": {
					"linkReferences": {},
					"object": "6080604052348015600e575f80fd5b50610f518061001c5f395ff3fe608060405234801561000f575f80fd5b5060043610610055575f3560e01c806332665ffb1461005957806344e034cc146100895780634cd378bc146100a5578063c361a335146100c1578063f7b10808146100df575b5f80fd5b610073600480360381019061006e91906106b3565b610114565b6040516100809190610843565b60405180910390f35b6100a3600480360381019061009e9190610863565b6102e1565b005b6100bf60048036038101906100ba91906109cd565b610393565b005b6100c96104b0565b6040516100d69190610a64565b60405180910390f35b6100f960048036038101906100f491906106b3565b6104b6565b60405161010b96959493929190610ae3565b60405180910390f35b61011c610625565b5f808381526020019081526020015f206040518060c00160405290815f820154815260200160018201805461015090610b7d565b80601f016020809104026020016040519081016040528092919081815260200182805461017c90610b7d565b80156101c75780601f1061019e576101008083540402835291602001916101c7565b820191905f5260205f20905b8154815290600101906020018083116101aa57829003601f168201915b505050505081526020016002820180546101e090610b7d565b80601f016020809104026020016040519081016040528092919081815260200182805461020c90610b7d565b80156102575780601f1061022e57610100808354040283529160200191610257565b820191905f5260205f20905b81548152906001019060200180831161023a57829003601f168201915b5050505050815260200160038201548152602001600482015f9054906101000a900473ffffffffffffffffffffffffffffffffffffffff1673ffffffffffffffffffffffffffffffffffffffff1673ffffffffffffffffffffffffffffffffffffffff1681526020016004820160149054906101000a900460ff1615151515815250509050919050565b5f805f8481526020019081526020015f209050806004015f9054906101000a900473ffffffffffffffffffffffffffffffffffffffff1673ffffffffffffffffffffffffffffffffffffffff163373ffffffffffffffffffffffffffffffffffffffff1614610385576040517f08c379a000000000000000000000000000000000000000000000000000000000815260040161037c90610c1d565b60405180910390fd5b818160030181905550505050565b60015f8154809291906103a590610c68565b91905055506040518060c0016040528060015481526020018481526020018381526020018281526020013373ffffffffffffffffffffffffffffffffffffffff168152602001600115158152505f8060015481526020019081526020015f205f820151815f015560208201518160010190816104219190610e4c565b5060408201518160020190816104379190610e4c565b50606082015181600301556080820151816004015f6101000a81548173ffffffffffffffffffffffffffffffffffffffff021916908373ffffffffffffffffffffffffffffffffffffffff16021790555060a08201518160040160146101000a81548160ff021916908315150217905550905050505050565b60015481565b5f602052805f5260405f205f91509050805f0154908060010180546104da90610b7d565b80601f016020809104026020016040519081016040528092919081815260200182805461050690610b7d565b80156105515780601f1061052857610100808354040283529160200191610551565b820191905f5260205f20905b81548152906001019060200180831161053457829003601f168201915b50505050509080600201805461056690610b7d565b80601f016020809104026020016040519081016040528092919081815260200182805461059290610b7d565b80156105dd5780601f106105b4576101008083540402835291602001916105dd565b820191905f5260205f20905b8154815290600101906020018083116105c057829003601f168201915b505050505090806003015490806004015f9054906101000a900473ffffffffffffffffffffffffffffffffffffffff16908060040160149054906101000a900460ff16905086565b6040518060c001604052805f815260200160608152602001606081526020015f81526020015f73ffffffffffffffffffffffffffffffffffffffff1681526020015f151581525090565b5f604051905090565b5f80fd5b5f80fd5b5f819050919050565b61069281610680565b811461069c575f80fd5b50565b5f813590506106ad81610689565b92915050565b5f602082840312156106c8576106c7610678565b5b5f6106d58482850161069f565b91505092915050565b6106e781610680565b82525050565b5f81519050919050565b5f82825260208201905092915050565b8281835e5f83830152505050565b5f601f19601f8301169050919050565b5f61072f826106ed565b61073981856106f7565b9350610749818560208601610707565b61075281610715565b840191505092915050565b5f73ffffffffffffffffffffffffffffffffffffffff82169050919050565b5f6107868261075d565b9050919050565b6107968161077c565b82525050565b5f8115159050919050565b6107b08161079c565b82525050565b5f60c083015f8301516107cb5f8601826106de565b50602083015184820360208601526107e38282610725565b915050604083015184820360408601526107fd8282610725565b915050606083015161081260608601826106de565b506080830151610825608086018261078d565b5060a083015161083860a08601826107a7565b508091505092915050565b5f6020820190508181035f83015261085b81846107b6565b905092915050565b5f806040838503121561087957610878610678565b5b5f6108868582860161069f565b92505060206108978582860161069f565b9150509250929050565b5f80fd5b5f80fd5b7f4e487b71000000000000000000000000000000000000000000000000000000005f52604160045260245ffd5b6108df82610715565b810181811067ffffffffffffffff821117156108fe576108fd6108a9565b5b80604052505050565b5f61091061066f565b905061091c82826108d6565b919050565b5f67ffffffffffffffff82111561093b5761093a6108a9565b5b61094482610715565b9050602081019050919050565b828183375f83830152505050565b5f61097161096c84610921565b610907565b90508281526020810184848401111561098d5761098c6108a5565b5b610998848285610951565b509392505050565b5f82601f8301126109b4576109b36108a1565b5b81356109c484826020860161095f565b91505092915050565b5f805f606084860312156109e4576109e3610678565b5b5f84013567ffffffffffffffff811115610a0157610a0061067c565b5b610a0d868287016109a0565b935050602084013567ffffffffffffffff811115610a2e57610a2d61067c565b5b610a3a868287016109a0565b9250506040610a4b8682870161069f565b9150509250925092565b610a5e81610680565b82525050565b5f602082019050610a775f830184610a55565b92915050565b5f82825260208201905092915050565b5f610a97826106ed565b610aa18185610a7d565b9350610ab1818560208601610707565b610aba81610715565b840191505092915050565b610ace8161077c565b82525050565b610add8161079c565b82525050565b5f60c082019050610af65f830189610a55565b8181036020830152610b088188610a8d565b90508181036040830152610b1c8187610a8d565b9050610b2b6060830186610a55565b610b386080830185610ac5565b610b4560a0830184610ad4565b979650505050505050565b7f4e487b71000000000000000000000000000000000000000000000000000000005f52602260045260245ffd5b5f6002820490506001821680610b9457607f821691505b602082108103610ba757610ba6610b50565b5b50919050565b7f4f6e6c792070726f7065727479206f776e65722063616e2075706461746520745f8201527f6865206c697374696e6700000000000000000000000000000000000000000000602082015250565b5f610c07602a83610a7d565b9150610c1282610bad565b604082019050919050565b5f6020820190508181035f830152610c3481610bfb565b9050919050565b7f4e487b71000000000000000000000000000000000000000000000000000000005f52601160045260245ffd5b5f610c7282610680565b91507fffffffffffffffffffffffffffffffffffffffffffffffffffffffffffffffff8203610ca457610ca3610c3b565b5b600182019050919050565b5f819050815f5260205f209050919050565b5f6020601f8301049050919050565b5f82821b905092915050565b5f60088302610d0b7fffffffffffffffffffffffffffffffffffffffffffffffffffffffffffffffff82610cd0565b610d158683610cd0565b95508019841693508086168417925050509392505050565b5f819050919050565b5f610d50610d4b610d4684610680565b610d2d565b610680565b9050919050565b5f819050919050565b610d6983610d36565b610d7d610d7582610d57565b848454610cdc565b825550505050565b5f90565b610d91610d85565b610d9c818484610d60565b505050565b5b81811015610dbf57610db45f82610d89565b600181019050610da2565b5050565b601f821115610e0457610dd581610caf565b610dde84610cc1565b81016020851015610ded578190505b610e01610df985610cc1565b830182610da1565b50505b505050565b5f82821c905092915050565b5f610e245f1984600802610e09565b1980831691505092915050565b5f610e3c8383610e15565b9150826002028217905092915050565b610e55826106ed565b67ffffffffffffffff811115610e6e57610e6d6108a9565b5b610e788254610b7d565b610e83828285610dc3565b5f60209050601f831160018114610eb4575f8415610ea2578287015190505b610eac8582610e31565b865550610f13565b601f198416610ec286610caf565b5f5b82811015610ee957848901518255600182019150602085019450602081019050610ec4565b86831015610f065784890151610f02601f891682610e15565b8355505b6001600288020188555050505b50505050505056fea2646970667358221220c42afd2d9051d53291f917b171ce6281f9535693828174525661255f6c7b6c8d64736f6c63430008190033",
					"opcodes": "PUSH1 0x80 PUSH1 0x40 MSTORE CALLVALUE DUP1 ISZERO PUSH1 0xE JUMPI PUSH0 DUP1 REVERT JUMPDEST POP PUSH2 0xF51 DUP1 PUSH2 0x1C PUSH0 CODECOPY PUSH0 RETURN INVALID PUSH1 0x80 PUSH1 0x40 MSTORE CALLVALUE DUP1 ISZERO PUSH2 0xF JUMPI PUSH0 DUP1 REVERT JUMPDEST POP PUSH1 0x4 CALLDATASIZE LT PUSH2 0x55 JUMPI PUSH0 CALLDATALOAD PUSH1 0xE0 SHR DUP1 PUSH4 0x32665FFB EQ PUSH2 0x59 JUMPI DUP1 PUSH4 0x44E034CC EQ PUSH2 0x89 JUMPI DUP1 PUSH4 0x4CD378BC EQ PUSH2 0xA5 JUMPI DUP1 PUSH4 0xC361A335 EQ PUSH2 0xC1 JUMPI DUP1 PUSH4 0xF7B10808 EQ PUSH2 0xDF JUMPI JUMPDEST PUSH0 DUP1 REVERT JUMPDEST PUSH2 0x73 PUSH1 0x4 DUP1 CALLDATASIZE SUB DUP2 ADD SWAP1 PUSH2 0x6E SWAP2 SWAP1 PUSH2 0x6B3 JUMP JUMPDEST PUSH2 0x114 JUMP JUMPDEST PUSH1 0x40 MLOAD PUSH2 0x80 SWAP2 SWAP1 PUSH2 0x843 JUMP JUMPDEST PUSH1 0x40 MLOAD DUP1 SWAP2 SUB SWAP1 RETURN JUMPDEST PUSH2 0xA3 PUSH1 0x4 DUP1 CALLDATASIZE SUB DUP2 ADD SWAP1 PUSH2 0x9E SWAP2 SWAP1 PUSH2 0x863 JUMP JUMPDEST PUSH2 0x2E1 JUMP JUMPDEST STOP JUMPDEST PUSH2 0xBF PUSH1 0x4 DUP1 CALLDATASIZE SUB DUP2 ADD SWAP1 PUSH2 0xBA SWAP2 SWAP1 PUSH2 0x9CD JUMP JUMPDEST PUSH2 0x393 JUMP JUMPDEST STOP JUMPDEST PUSH2 0xC9 PUSH2 0x4B0 JUMP JUMPDEST PUSH1 0x40 MLOAD PUSH2 0xD6 SWAP2 SWAP1 PUSH2 0xA64 JUMP JUMPDEST PUSH1 0x40 MLOAD DUP1 SWAP2 SUB SWAP1 RETURN JUMPDEST PUSH2 0xF9 PUSH1 0x4 DUP1 CALLDATASIZE SUB DUP2 ADD SWAP1 PUSH2 0xF4 SWAP2 SWAP1 PUSH2 0x6B3 JUMP JUMPDEST PUSH2 0x4B6 JUMP JUMPDEST PUSH1 0x40 MLOAD PUSH2 0x10B SWAP7 SWAP6 SWAP5 SWAP4 SWAP3 SWAP2 SWAP1 PUSH2 0xAE3 JUMP JUMPDEST PUSH1 0x40 MLOAD DUP1 SWAP2 SUB SWAP1 RETURN JUMPDEST PUSH2 0x11C PUSH2 0x625 JUMP JUMPDEST PUSH0 DUP1 DUP4 DUP2 MSTORE PUSH1 0x20 ADD SWAP1 DUP2 MSTORE PUSH1 0x20 ADD PUSH0 KECCAK256 PUSH1 0x40 MLOAD DUP1 PUSH1 0xC0 ADD PUSH1 0x40 MSTORE SWAP1 DUP2 PUSH0 DUP3 ADD SLOAD DUP2 MSTORE PUSH1 0x20 ADD PUSH1 0x1 DUP3 ADD DUP1 SLOAD PUSH2 0x150 SWAP1 PUSH2 0xB7D JUMP JUMPDEST DUP1 PUSH1 0x1F ADD PUSH1 0x20 DUP1 SWAP2 DIV MUL PUSH1 0x20 ADD PUSH1 0x40 MLOAD SWAP1 DUP2 ADD PUSH1 0x40 MSTORE DUP1 SWAP3 SWAP2 SWAP1 DUP2 DUP2 MSTORE PUSH1 0x20 ADD DUP3 DUP1 SLOAD PUSH2 0x17C SWAP1 PUSH2 0xB7D JUMP JUMPDEST DUP1 ISZERO PUSH2 0x1C7 JUMPI DUP1 PUSH1 0x1F LT PUSH2 0x19E JUMPI PUSH2 0x100 DUP1 DUP4 SLOAD DIV MUL DUP4 MSTORE SWAP2 PUSH1 0x20 ADD SWAP2 PUSH2 0x1C7 JUMP JUMPDEST DUP3 ADD SWAP2 SWAP1 PUSH0 MSTORE PUSH1 0x20 PUSH0 KECCAK256 SWAP1 JUMPDEST DUP2 SLOAD DUP2 MSTORE SWAP1 PUSH1 0x1 ADD SWAP1 PUSH1 0x20 ADD DUP1 DUP4 GT PUSH2 0x1AA JUMPI DUP3 SWAP1 SUB PUSH1 0x1F AND DUP3 ADD SWAP2 JUMPDEST POP POP POP POP POP DUP2 MSTORE PUSH1 0x20 ADD PUSH1 0x2 DUP3 ADD DUP1 SLOAD PUSH2 0x1E0 SWAP1 PUSH2 0xB7D JUMP JUMPDEST DUP1 PUSH1 0x1F ADD PUSH1 0x20 DUP1 SWAP2 DIV MUL PUSH1 0x20 ADD PUSH1 0x40 MLOAD SWAP1 DUP2 ADD PUSH1 0x40 MSTORE DUP1 SWAP3 SWAP2 SWAP1 DUP2 DUP2 MSTORE PUSH1 0x20 ADD DUP3 DUP1 SLOAD PUSH2 0x20C SWAP1 PUSH2 0xB7D JUMP JUMPDEST DUP1 ISZERO PUSH2 0x257 JUMPI DUP1 PUSH1 0x1F LT PUSH2 0x22E JUMPI PUSH2 0x100 DUP1 DUP4 SLOAD DIV MUL DUP4 MSTORE SWAP2 PUSH1 0x20 ADD SWAP2 PUSH2 0x257 JUMP JUMPDEST DUP3 ADD SWAP2 SWAP1 PUSH0 MSTORE PUSH1 0x20 PUSH0 KECCAK256 SWAP1 JUMPDEST DUP2 SLOAD DUP2 MSTORE SWAP1 PUSH1 0x1 ADD SWAP1 PUSH1 0x20 ADD DUP1 DUP4 GT PUSH2 0x23A JUMPI DUP3 SWAP1 SUB PUSH1 0x1F AND DUP3 ADD SWAP2 JUMPDEST POP POP POP POP POP DUP2 MSTORE PUSH1 0x20 ADD PUSH1 0x3 DUP3 ADD SLOAD DUP2 MSTORE PUSH1 0x20 ADD PUSH1 0x4 DUP3 ADD PUSH0 SWAP1 SLOAD SWAP1 PUSH2 0x100 EXP SWAP1 DIV PUSH20 0xFFFFFFFFFFFFFFFFFFFFFFFFFFFFFFFFFFFFFFFF AND PUSH20 0xFFFFFFFFFFFFFFFFFFFFFFFFFFFFFFFFFFFFFFFF AND PUSH20 0xFFFFFFFFFFFFFFFFFFFFFFFFFFFFFFFFFFFFFFFF AND DUP2 MSTORE PUSH1 0x20 ADD PUSH1 0x4 DUP3 ADD PUSH1 0x14 SWAP1 SLOAD SWAP1 PUSH2 0x100 EXP SWAP1 DIV PUSH1 0xFF AND ISZERO ISZERO ISZERO ISZERO DUP2 MSTORE POP POP SWAP1 POP SWAP2 SWAP1 POP JUMP JUMPDEST PUSH0 DUP1 PUSH0 DUP5 DUP2 MSTORE PUSH1 0x20 ADD SWAP1 DUP2 MSTORE PUSH1 0x20 ADD PUSH0 KECCAK256 SWAP1 POP DUP1 PUSH1 0x4 ADD PUSH0 SWAP1 SLOAD SWAP1 PUSH2 0x100 EXP SWAP1 DIV PUSH20 0xFFFFFFFFFFFFFFFFFFFFFFFFFFFFFFFFFFFFFFFF AND PUSH20 0xFFFFFFFFFFFFFFFFFFFFFFFFFFFFFFFFFFFFFFFF AND CALLER PUSH20 0xFFFFFFFFFFFFFFFFFFFFFFFFFFFFFFFFFFFFFFFF AND EQ PUSH2 0x385 JUMPI PUSH1 0x40 MLOAD PUSH32 0x8C379A000000000000000000000000000000000000000000000000000000000 DUP2 MSTORE PUSH1 0x4 ADD PUSH2 0x37C SWAP1 PUSH2 0xC1D JUMP JUMPDEST PUSH1 0x40 MLOAD DUP1 SWAP2 SUB SWAP1 REVERT JUMPDEST DUP2 DUP2 PUSH1 0x3 ADD DUP2 SWAP1 SSTORE POP POP POP POP JUMP JUMPDEST PUSH1 0x1 PUSH0 DUP2 SLOAD DUP1 SWAP3 SWAP2 SWAP1 PUSH2 0x3A5 SWAP1 PUSH2 0xC68 JUMP JUMPDEST SWAP2 SWAP1 POP SSTORE POP PUSH1 0x40 MLOAD DUP1 PUSH1 0xC0 ADD PUSH1 0x40 MSTORE DUP1 PUSH1 0x1 SLOAD DUP2 MSTORE PUSH1 0x20 ADD DUP5 DUP2 MSTORE PUSH1 0x20 ADD DUP4 DUP2 MSTORE PUSH1 0x20 ADD DUP3 DUP2 MSTORE PUSH1 0x20 ADD CALLER PUSH20 0xFFFFFFFFFFFFFFFFFFFFFFFFFFFFFFFFFFFFFFFF AND DUP2 MSTORE PUSH1 0x20 ADD PUSH1 0x1 ISZERO ISZERO DUP2 MSTORE POP PUSH0 DUP1 PUSH1 0x1 SLOAD DUP2 MSTORE PUSH1 0x20 ADD SWAP1 DUP2 MSTORE PUSH1 0x20 ADD PUSH0 KECCAK256 PUSH0 DUP3 ADD MLOAD DUP2 PUSH0 ADD SSTORE PUSH1 0x20 DUP3 ADD MLOAD DUP2 PUSH1 0x1 ADD SWAP1 DUP2 PUSH2 0x421 SWAP2 SWAP1 PUSH2 0xE4C JUMP JUMPDEST POP PUSH1 0x40 DUP3 ADD MLOAD DUP2 PUSH1 0x2 ADD SWAP1 DUP2 PUSH2 0x437 SWAP2 SWAP1 PUSH2 0xE4C JUMP JUMPDEST POP PUSH1 0x60 DUP3 ADD MLOAD DUP2 PUSH1 0x3 ADD SSTORE PUSH1 0x80 DUP3 ADD MLOAD DUP2 PUSH1 0x4 ADD PUSH0 PUSH2 0x100 EXP DUP2 SLOAD DUP2 PUSH20 0xFFFFFFFFFFFFFFFFFFFFFFFFFFFFFFFFFFFFFFFF MUL NOT AND SWAP1 DUP4 PUSH20 0xFFFFFFFFFFFFFFFFFFFFFFFFFFFFFFFFFFFFFFFF AND MUL OR SWAP1 SSTORE POP PUSH1 0xA0 DUP3 ADD MLOAD DUP2 PUSH1 0x4 ADD PUSH1 0x14 PUSH2 0x100 EXP DUP2 SLOAD DUP2 PUSH1 0xFF MUL NOT AND SWAP1 DUP4 ISZERO ISZERO MUL OR SWAP1 SSTORE POP SWAP1 POP POP POP POP POP JUMP JUMPDEST PUSH1 0x1 SLOAD DUP2 JUMP JUMPDEST PUSH0 PUSH1 0x20 MSTORE DUP1 PUSH0 MSTORE PUSH1 0x40 PUSH0 KECCAK256 PUSH0 SWAP2 POP SWAP1 POP DUP1 PUSH0 ADD SLOAD SWAP1 DUP1 PUSH1 0x1 ADD DUP1 SLOAD PUSH2 0x4DA SWAP1 PUSH2 0xB7D JUMP JUMPDEST DUP1 PUSH1 0x1F ADD PUSH1 0x20 DUP1 SWAP2 DIV MUL PUSH1 0x20 ADD PUSH1 0x40 MLOAD SWAP1 DUP2 ADD PUSH1 0x40 MSTORE DUP1 SWAP3 SWAP2 SWAP1 DUP2 DUP2 MSTORE PUSH1 0x20 ADD DUP3 DUP1 SLOAD PUSH2 0x506 SWAP1 PUSH2 0xB7D JUMP JUMPDEST DUP1 ISZERO PUSH2 0x551 JUMPI DUP1 PUSH1 0x1F LT PUSH2 0x528 JUMPI PUSH2 0x100 DUP1 DUP4 SLOAD DIV MUL DUP4 MSTORE SWAP2 PUSH1 0x20 ADD SWAP2 PUSH2 0x551 JUMP JUMPDEST DUP3 ADD SWAP2 SWAP1 PUSH0 MSTORE PUSH1 0x20 PUSH0 KECCAK256 SWAP1 JUMPDEST DUP2 SLOAD DUP2 MSTORE SWAP1 PUSH1 0x1 ADD SWAP1 PUSH1 0x20 ADD DUP1 DUP4 GT PUSH2 0x534 JUMPI DUP3 SWAP1 SUB PUSH1 0x1F AND DUP3 ADD SWAP2 JUMPDEST POP POP POP POP POP SWAP1 DUP1 PUSH1 0x2 ADD DUP1 SLOAD PUSH2 0x566 SWAP1 PUSH2 0xB7D JUMP JUMPDEST DUP1 PUSH1 0x1F ADD PUSH1 0x20 DUP1 SWAP2 DIV MUL PUSH1 0x20 ADD PUSH1 0x40 MLOAD SWAP1 DUP2 ADD PUSH1 0x40 MSTORE DUP1 SWAP3 SWAP2 SWAP1 DUP2 DUP2 MSTORE PUSH1 0x20 ADD DUP3 DUP1 SLOAD PUSH2 0x592 SWAP1 PUSH2 0xB7D JUMP JUMPDEST DUP1 ISZERO PUSH2 0x5DD JUMPI DUP1 PUSH1 0x1F LT PUSH2 0x5B4 JUMPI PUSH2 0x100 DUP1 DUP4 SLOAD DIV MUL DUP4 MSTORE SWAP2 PUSH1 0x20 ADD SWAP2 PUSH2 0x5DD JUMP JUMPDEST DUP3 ADD SWAP2 SWAP1 PUSH0 MSTORE PUSH1 0x20 PUSH0 KECCAK256 SWAP1 JUMPDEST DUP2 SLOAD DUP2 MSTORE SWAP1 PUSH1 0x1 ADD SWAP1 PUSH1 0x20 ADD DUP1 DUP4 GT PUSH2 0x5C0 JUMPI DUP3 SWAP1 SUB PUSH1 0x1F AND DUP3 ADD SWAP2 JUMPDEST POP POP POP POP POP SWAP1 DUP1 PUSH1 0x3 ADD SLOAD SWAP1 DUP1 PUSH1 0x4 ADD PUSH0 SWAP1 SLOAD SWAP1 PUSH2 0x100 EXP SWAP1 DIV PUSH20 0xFFFFFFFFFFFFFFFFFFFFFFFFFFFFFFFFFFFFFFFF AND SWAP1 DUP1 PUSH1 0x4 ADD PUSH1 0x14 SWAP1 SLOAD SWAP1 PUSH2 0x100 EXP SWAP1 DIV PUSH1 0xFF AND SWAP1 POP DUP7 JUMP JUMPDEST PUSH1 0x40 MLOAD DUP1 PUSH1 0xC0 ADD PUSH1 0x40 MSTORE DUP1 PUSH0 DUP2 MSTORE PUSH1 0x20 ADD PUSH1 0x60 DUP2 MSTORE PUSH1 0x20 ADD PUSH1 0x60 DUP2 MSTORE PUSH1 0x20 ADD PUSH0 DUP2 MSTORE PUSH1 0x20 ADD PUSH0 PUSH20 0xFFFFFFFFFFFFFFFFFFFFFFFFFFFFFFFFFFFFFFFF AND DUP2 MSTORE PUSH1 0x20 ADD PUSH0 ISZERO ISZERO DUP2 MSTORE POP SWAP1 JUMP JUMPDEST PUSH0 PUSH1 0x40 MLOAD SWAP1 POP SWAP1 JUMP JUMPDEST PUSH0 DUP1 REVERT JUMPDEST PUSH0 DUP1 REVERT JUMPDEST PUSH0 DUP2 SWAP1 POP SWAP2 SWAP1 POP JUMP JUMPDEST PUSH2 0x692 DUP2 PUSH2 0x680 JUMP JUMPDEST DUP2 EQ PUSH2 0x69C JUMPI PUSH0 DUP1 REVERT JUMPDEST POP JUMP JUMPDEST PUSH0 DUP2 CALLDATALOAD SWAP1 POP PUSH2 0x6AD DUP2 PUSH2 0x689 JUMP JUMPDEST SWAP3 SWAP2 POP POP JUMP JUMPDEST PUSH0 PUSH1 0x20 DUP3 DUP5 SUB SLT ISZERO PUSH2 0x6C8 JUMPI PUSH2 0x6C7 PUSH2 0x678 JUMP JUMPDEST JUMPDEST PUSH0 PUSH2 0x6D5 DUP5 DUP3 DUP6 ADD PUSH2 0x69F JUMP JUMPDEST SWAP2 POP POP SWAP3 SWAP2 POP POP JUMP JUMPDEST PUSH2 0x6E7 DUP2 PUSH2 0x680 JUMP JUMPDEST DUP3 MSTORE POP POP JUMP JUMPDEST PUSH0 DUP2 MLOAD SWAP1 POP SWAP2 SWAP1 POP JUMP JUMPDEST PUSH0 DUP3 DUP3 MSTORE PUSH1 0x20 DUP3 ADD SWAP1 POP SWAP3 SWAP2 POP POP JUMP JUMPDEST DUP3 DUP2 DUP4 MCOPY PUSH0 DUP4 DUP4 ADD MSTORE POP POP POP JUMP JUMPDEST PUSH0 PUSH1 0x1F NOT PUSH1 0x1F DUP4 ADD AND SWAP1 POP SWAP2 SWAP1 POP JUMP JUMPDEST PUSH0 PUSH2 0x72F DUP3 PUSH2 0x6ED JUMP JUMPDEST PUSH2 0x739 DUP2 DUP6 PUSH2 0x6F7 JUMP JUMPDEST SWAP4 POP PUSH2 0x749 DUP2 DUP6 PUSH1 0x20 DUP7 ADD PUSH2 0x707 JUMP JUMPDEST PUSH2 0x752 DUP2 PUSH2 0x715 JUMP JUMPDEST DUP5 ADD SWAP2 POP POP SWAP3 SWAP2 POP POP JUMP JUMPDEST PUSH0 PUSH20 0xFFFFFFFFFFFFFFFFFFFFFFFFFFFFFFFFFFFFFFFF DUP3 AND SWAP1 POP SWAP2 SWAP1 POP JUMP JUMPDEST PUSH0 PUSH2 0x786 DUP3 PUSH2 0x75D JUMP JUMPDEST SWAP1 POP SWAP2 SWAP1 POP JUMP JUMPDEST PUSH2 0x796 DUP2 PUSH2 0x77C JUMP JUMPDEST DUP3 MSTORE POP POP JUMP JUMPDEST PUSH0 DUP2 ISZERO ISZERO SWAP1 POP SWAP2 SWAP1 POP JUMP JUMPDEST PUSH2 0x7B0 DUP2 PUSH2 0x79C JUMP JUMPDEST DUP3 MSTORE POP POP JUMP JUMPDEST PUSH0 PUSH1 0xC0 DUP4 ADD PUSH0 DUP4 ADD MLOAD PUSH2 0x7CB PUSH0 DUP7 ADD DUP3 PUSH2 0x6DE JUMP JUMPDEST POP PUSH1 0x20 DUP4 ADD MLOAD DUP5 DUP3 SUB PUSH1 0x20 DUP7 ADD MSTORE PUSH2 0x7E3 DUP3 DUP3 PUSH2 0x725 JUMP JUMPDEST SWAP2 POP POP PUSH1 0x40 DUP4 ADD MLOAD DUP5 DUP3 SUB PUSH1 0x40 DUP7 ADD MSTORE PUSH2 0x7FD DUP3 DUP3 PUSH2 0x725 JUMP JUMPDEST SWAP2 POP POP PUSH1 0x60 DUP4 ADD MLOAD PUSH2 0x812 PUSH1 0x60 DUP7 ADD DUP3 PUSH2 0x6DE JUMP JUMPDEST POP PUSH1 0x80 DUP4 ADD MLOAD PUSH2 0x825 PUSH1 0x80 DUP7 ADD DUP3 PUSH2 0x78D JUMP JUMPDEST POP PUSH1 0xA0 DUP4 ADD MLOAD PUSH2 0x838 PUSH1 0xA0 DUP7 ADD DUP3 PUSH2 0x7A7 JUMP JUMPDEST POP DUP1 SWAP2 POP POP SWAP3 SWAP2 POP POP JUMP JUMPDEST PUSH0 PUSH1 0x20 DUP3 ADD SWAP1 POP DUP2 DUP2 SUB PUSH0 DUP4 ADD MSTORE PUSH2 0x85B DUP2 DUP5 PUSH2 0x7B6 JUMP JUMPDEST SWAP1 POP SWAP3 SWAP2 POP POP JUMP JUMPDEST PUSH0 DUP1 PUSH1 0x40 DUP4 DUP6 SUB SLT ISZERO PUSH2 0x879 JUMPI PUSH2 0x878 PUSH2 0x678 JUMP JUMPDEST JUMPDEST PUSH0 PUSH2 0x886 DUP6 DUP3 DUP7 ADD PUSH2 0x69F JUMP JUMPDEST SWAP3 POP POP PUSH1 0x20 PUSH2 0x897 DUP6 DUP3 DUP7 ADD PUSH2 0x69F JUMP JUMPDEST SWAP2 POP POP SWAP3 POP SWAP3 SWAP1 POP JUMP JUMPDEST PUSH0 DUP1 REVERT JUMPDEST PUSH0 DUP1 REVERT JUMPDEST PUSH32 0x4E487B7100000000000000000000000000000000000000000000000000000000 PUSH0 MSTORE PUSH1 0x41 PUSH1 0x4 MSTORE PUSH1 0x24 PUSH0 REVERT JUMPDEST PUSH2 0x8DF DUP3 PUSH2 0x715 JUMP JUMPDEST DUP2 ADD DUP2 DUP2 LT PUSH8 0xFFFFFFFFFFFFFFFF DUP3 GT OR ISZERO PUSH2 0x8FE JUMPI PUSH2 0x8FD PUSH2 0x8A9 JUMP JUMPDEST JUMPDEST DUP1 PUSH1 0x40 MSTORE POP POP POP JUMP JUMPDEST PUSH0 PUSH2 0x910 PUSH2 0x66F JUMP JUMPDEST SWAP1 POP PUSH2 0x91C DUP3 DUP3 PUSH2 0x8D6 JUMP JUMPDEST SWAP2 SWAP1 POP JUMP JUMPDEST PUSH0 PUSH8 0xFFFFFFFFFFFFFFFF DUP3 GT ISZERO PUSH2 0x93B JUMPI PUSH2 0x93A PUSH2 0x8A9 JUMP JUMPDEST JUMPDEST PUSH2 0x944 DUP3 PUSH2 0x715 JUMP JUMPDEST SWAP1 POP PUSH1 0x20 DUP2 ADD SWAP1 POP SWAP2 SWAP1 POP JUMP JUMPDEST DUP3 DUP2 DUP4 CALLDATACOPY PUSH0 DUP4 DUP4 ADD MSTORE POP POP POP JUMP JUMPDEST PUSH0 PUSH2 0x971 PUSH2 0x96C DUP5 PUSH2 0x921 JUMP JUMPDEST PUSH2 0x907 JUMP JUMPDEST SWAP1 POP DUP3 DUP2 MSTORE PUSH1 0x20 DUP2 ADD DUP5 DUP5 DUP5 ADD GT ISZERO PUSH2 0x98D JUMPI PUSH2 0x98C PUSH2 0x8A5 JUMP JUMPDEST JUMPDEST PUSH2 0x998 DUP5 DUP3 DUP6 PUSH2 0x951 JUMP JUMPDEST POP SWAP4 SWAP3 POP POP POP JUMP JUMPDEST PUSH0 DUP3 PUSH1 0x1F DUP4 ADD SLT PUSH2 0x9B4 JUMPI PUSH2 0x9B3 PUSH2 0x8A1 JUMP JUMPDEST JUMPDEST DUP2 CALLDATALOAD PUSH2 0x9C4 DUP5 DUP3 PUSH1 0x20 DUP7 ADD PUSH2 0x95F JUMP JUMPDEST SWAP2 POP POP SWAP3 SWAP2 POP POP JUMP JUMPDEST PUSH0 DUP1 PUSH0 PUSH1 0x60 DUP5 DUP7 SUB SLT ISZERO PUSH2 0x9E4 JUMPI PUSH2 0x9E3 PUSH2 0x678 JUMP JUMPDEST JUMPDEST PUSH0 DUP5 ADD CALLDATALOAD PUSH8 0xFFFFFFFFFFFFFFFF DUP2 GT ISZERO PUSH2 0xA01 JUMPI PUSH2 0xA00 PUSH2 0x67C JUMP JUMPDEST JUMPDEST PUSH2 0xA0D DUP7 DUP3 DUP8 ADD PUSH2 0x9A0 JUMP JUMPDEST SWAP4 POP POP PUSH1 0x20 DUP5 ADD CALLDATALOAD PUSH8 0xFFFFFFFFFFFFFFFF DUP2 GT ISZERO PUSH2 0xA2E JUMPI PUSH2 0xA2D PUSH2 0x67C JUMP JUMPDEST JUMPDEST PUSH2 0xA3A DUP7 DUP3 DUP8 ADD PUSH2 0x9A0 JUMP JUMPDEST SWAP3 POP POP PUSH1 0x40 PUSH2 0xA4B DUP7 DUP3 DUP8 ADD PUSH2 0x69F JUMP JUMPDEST SWAP2 POP POP SWAP3 POP SWAP3 POP SWAP3 JUMP JUMPDEST PUSH2 0xA5E DUP2 PUSH2 0x680 JUMP JUMPDEST DUP3 MSTORE POP POP JUMP JUMPDEST PUSH0 PUSH1 0x20 DUP3 ADD SWAP1 POP PUSH2 0xA77 PUSH0 DUP4 ADD DUP5 PUSH2 0xA55 JUMP JUMPDEST SWAP3 SWAP2 POP POP JUMP JUMPDEST PUSH0 DUP3 DUP3 MSTORE PUSH1 0x20 DUP3 ADD SWAP1 POP SWAP3 SWAP2 POP POP JUMP JUMPDEST PUSH0 PUSH2 0xA97 DUP3 PUSH2 0x6ED JUMP JUMPDEST PUSH2 0xAA1 DUP2 DUP6 PUSH2 0xA7D JUMP JUMPDEST SWAP4 POP PUSH2 0xAB1 DUP2 DUP6 PUSH1 0x20 DUP7 ADD PUSH2 0x707 JUMP JUMPDEST PUSH2 0xABA DUP2 PUSH2 0x715 JUMP JUMPDEST DUP5 ADD SWAP2 POP POP SWAP3 SWAP2 POP POP JUMP JUMPDEST PUSH2 0xACE DUP2 PUSH2 0x77C JUMP JUMPDEST DUP3 MSTORE POP POP JUMP JUMPDEST PUSH2 0xADD DUP2 PUSH2 0x79C JUMP JUMPDEST DUP3 MSTORE POP POP JUMP JUMPDEST PUSH0 PUSH1 0xC0 DUP3 ADD SWAP1 POP PUSH2 0xAF6 PUSH0 DUP4 ADD DUP10 PUSH2 0xA55 JUMP JUMPDEST DUP2 DUP2 SUB PUSH1 0x20 DUP4 ADD MSTORE PUSH2 0xB08 DUP2 DUP9 PUSH2 0xA8D JUMP JUMPDEST SWAP1 POP DUP2 DUP2 SUB PUSH1 0x40 DUP4 ADD MSTORE PUSH2 0xB1C DUP2 DUP8 PUSH2 0xA8D JUMP JUMPDEST SWAP1 POP PUSH2 0xB2B PUSH1 0x60 DUP4 ADD DUP7 PUSH2 0xA55 JUMP JUMPDEST PUSH2 0xB38 PUSH1 0x80 DUP4 ADD DUP6 PUSH2 0xAC5 JUMP JUMPDEST PUSH2 0xB45 PUSH1 0xA0 DUP4 ADD DUP5 PUSH2 0xAD4 JUMP JUMPDEST SWAP8 SWAP7 POP POP POP POP POP POP POP JUMP JUMPDEST PUSH32 0x4E487B7100000000000000000000000000000000000000000000000000000000 PUSH0 MSTORE PUSH1 0x22 PUSH1 0x4 MSTORE PUSH1 0x24 PUSH0 REVERT JUMPDEST PUSH0 PUSH1 0x2 DUP3 DIV SWAP1 POP PUSH1 0x1 DUP3 AND DUP1 PUSH2 0xB94 JUMPI PUSH1 0x7F DUP3 AND SWAP2 POP JUMPDEST PUSH1 0x20 DUP3 LT DUP2 SUB PUSH2 0xBA7 JUMPI PUSH2 0xBA6 PUSH2 0xB50 JUMP JUMPDEST JUMPDEST POP SWAP2 SWAP1 POP JUMP JUMPDEST PUSH32 0x4F6E6C792070726F7065727479206F776E65722063616E207570646174652074 PUSH0 DUP3 ADD MSTORE PUSH32 0x6865206C697374696E6700000000000000000000000000000000000000000000 PUSH1 0x20 DUP3 ADD MSTORE POP JUMP JUMPDEST PUSH0 PUSH2 0xC07 PUSH1 0x2A DUP4 PUSH2 0xA7D JUMP JUMPDEST SWAP2 POP PUSH2 0xC12 DUP3 PUSH2 0xBAD JUMP JUMPDEST PUSH1 0x40 DUP3 ADD SWAP1 POP SWAP2 SWAP1 POP JUMP JUMPDEST PUSH0 PUSH1 0x20 DUP3 ADD SWAP1 POP DUP2 DUP2 SUB PUSH0 DUP4 ADD MSTORE PUSH2 0xC34 DUP2 PUSH2 0xBFB JUMP JUMPDEST SWAP1 POP SWAP2 SWAP1 POP JUMP JUMPDEST PUSH32 0x4E487B7100000000000000000000000000000000000000000000000000000000 PUSH0 MSTORE PUSH1 0x11 PUSH1 0x4 MSTORE PUSH1 0x24 PUSH0 REVERT JUMPDEST PUSH0 PUSH2 0xC72 DUP3 PUSH2 0x680 JUMP JUMPDEST SWAP2 POP PUSH32 0xFFFFFFFFFFFFFFFFFFFFFFFFFFFFFFFFFFFFFFFFFFFFFFFFFFFFFFFFFFFFFFFF DUP3 SUB PUSH2 0xCA4 JUMPI PUSH2 0xCA3 PUSH2 0xC3B JUMP JUMPDEST JUMPDEST PUSH1 0x1 DUP3 ADD SWAP1 POP SWAP2 SWAP1 POP JUMP JUMPDEST PUSH0 DUP2 SWAP1 POP DUP2 PUSH0 MSTORE PUSH1 0x20 PUSH0 KECCAK256 SWAP1 POP SWAP2 SWAP1 POP JUMP JUMPDEST PUSH0 PUSH1 0x20 PUSH1 0x1F DUP4 ADD DIV SWAP1 POP SWAP2 SWAP1 POP JUMP JUMPDEST PUSH0 DUP3 DUP3 SHL SWAP1 POP SWAP3 SWAP2 POP POP JUMP JUMPDEST PUSH0 PUSH1 0x8 DUP4 MUL PUSH2 0xD0B PUSH32 0xFFFFFFFFFFFFFFFFFFFFFFFFFFFFFFFFFFFFFFFFFFFFFFFFFFFFFFFFFFFFFFFF DUP3 PUSH2 0xCD0 JUMP JUMPDEST PUSH2 0xD15 DUP7 DUP4 PUSH2 0xCD0 JUMP JUMPDEST SWAP6 POP DUP1 NOT DUP5 AND SWAP4 POP DUP1 DUP7 AND DUP5 OR SWAP3 POP POP POP SWAP4 SWAP3 POP POP POP JUMP JUMPDEST PUSH0 DUP2 SWAP1 POP SWAP2 SWAP1 POP JUMP JUMPDEST PUSH0 PUSH2 0xD50 PUSH2 0xD4B PUSH2 0xD46 DUP5 PUSH2 0x680 JUMP JUMPDEST PUSH2 0xD2D JUMP JUMPDEST PUSH2 0x680 JUMP JUMPDEST SWAP1 POP SWAP2 SWAP1 POP JUMP JUMPDEST PUSH0 DUP2 SWAP1 POP SWAP2 SWAP1 POP JUMP JUMPDEST PUSH2 0xD69 DUP4 PUSH2 0xD36 JUMP JUMPDEST PUSH2 0xD7D PUSH2 0xD75 DUP3 PUSH2 0xD57 JUMP JUMPDEST DUP5 DUP5 SLOAD PUSH2 0xCDC JUMP JUMPDEST DUP3 SSTORE POP POP POP POP JUMP JUMPDEST PUSH0 SWAP1 JUMP JUMPDEST PUSH2 0xD91 PUSH2 0xD85 JUMP JUMPDEST PUSH2 0xD9C DUP2 DUP5 DUP5 PUSH2 0xD60 JUMP JUMPDEST POP POP POP JUMP JUMPDEST JUMPDEST DUP2 DUP2 LT ISZERO PUSH2 0xDBF JUMPI PUSH2 0xDB4 PUSH0 DUP3 PUSH2 0xD89 JUMP JUMPDEST PUSH1 0x1 DUP2 ADD SWAP1 POP PUSH2 0xDA2 JUMP JUMPDEST POP POP JUMP JUMPDEST PUSH1 0x1F DUP3 GT ISZERO PUSH2 0xE04 JUMPI PUSH2 0xDD5 DUP2 PUSH2 0xCAF JUMP JUMPDEST PUSH2 0xDDE DUP5 PUSH2 0xCC1 JUMP JUMPDEST DUP2 ADD PUSH1 0x20 DUP6 LT ISZERO PUSH2 0xDED JUMPI DUP2 SWAP1 POP JUMPDEST PUSH2 0xE01 PUSH2 0xDF9 DUP6 PUSH2 0xCC1 JUMP JUMPDEST DUP4 ADD DUP3 PUSH2 0xDA1 JUMP JUMPDEST POP POP JUMPDEST POP POP POP JUMP JUMPDEST PUSH0 DUP3 DUP3 SHR SWAP1 POP SWAP3 SWAP2 POP POP JUMP JUMPDEST PUSH0 PUSH2 0xE24 PUSH0 NOT DUP5 PUSH1 0x8 MUL PUSH2 0xE09 JUMP JUMPDEST NOT DUP1 DUP4 AND SWAP2 POP POP SWAP3 SWAP2 POP POP JUMP JUMPDEST PUSH0 PUSH2 0xE3C DUP4 DUP4 PUSH2 0xE15 JUMP JUMPDEST SWAP2 POP DUP3 PUSH1 0x2 MUL DUP3 OR SWAP1 POP SWAP3 SWAP2 POP POP JUMP JUMPDEST PUSH2 0xE55 DUP3 PUSH2 0x6ED JUMP JUMPDEST PUSH8 0xFFFFFFFFFFFFFFFF DUP2 GT ISZERO PUSH2 0xE6E JUMPI PUSH2 0xE6D PUSH2 0x8A9 JUMP JUMPDEST JUMPDEST PUSH2 0xE78 DUP3 SLOAD PUSH2 0xB7D JUMP JUMPDEST PUSH2 0xE83 DUP3 DUP3 DUP6 PUSH2 0xDC3 JUMP JUMPDEST PUSH0 PUSH1 0x20 SWAP1 POP PUSH1 0x1F DUP4 GT PUSH1 0x1 DUP2 EQ PUSH2 0xEB4 JUMPI PUSH0 DUP5 ISZERO PUSH2 0xEA2 JUMPI DUP3 DUP8 ADD MLOAD SWAP1 POP JUMPDEST PUSH2 0xEAC DUP6 DUP3 PUSH2 0xE31 JUMP JUMPDEST DUP7 SSTORE POP PUSH2 0xF13 JUMP JUMPDEST PUSH1 0x1F NOT DUP5 AND PUSH2 0xEC2 DUP7 PUSH2 0xCAF JUMP JUMPDEST PUSH0 JUMPDEST DUP3 DUP2 LT ISZERO PUSH2 0xEE9 JUMPI DUP5 DUP10 ADD MLOAD DUP3 SSTORE PUSH1 0x1 DUP3 ADD SWAP2 POP PUSH1 0x20 DUP6 ADD SWAP5 POP PUSH1 0x20 DUP2 ADD SWAP1 POP PUSH2 0xEC4 JUMP JUMPDEST DUP7 DUP4 LT ISZERO PUSH2 0xF06 JUMPI DUP5 DUP10 ADD MLOAD PUSH2 0xF02 PUSH1 0x1F DUP10 AND DUP3 PUSH2 0xE15 JUMP JUMPDEST DUP4 SSTORE POP JUMPDEST PUSH1 0x1 PUSH1 0x2 DUP9 MUL ADD DUP9 SSTORE POP POP POP JUMPDEST POP POP POP POP POP POP JUMP INVALID LOG2 PUSH5 0x6970667358 0x22 SLT KECCAK256 0xC4 0x2A REVERT 0x2D SWAP1 MLOAD 0xD5 ORIGIN SWAP2 0xF9 OR 0xB1 PUSH18 0xCE6281F9535693828174525661255F6C7B6C DUP14 PUSH5 0x736F6C6343 STOP ADDMOD NOT STOP CALLER "
				},
				"gasEstimates": {
					"creation": {
						"codeDepositCost": "784200",
						"executionCost": "816",
						"totalCost": "785016"
					},
					"external": {
						"getProperty(uint256)": "infinite",
						"listProperty(string,string,uint256)": "infinite",
						"properties(uint256)": "infinite",
						"propertyCount()": "2469",
						"updateProperty(uint256,uint256)": "infinite"
					}
				},
				"methodIdentifiers": {
					"getProperty(uint256)": "32665ffb",
					"listProperty(string,string,uint256)": "4cd378bc",
					"properties(uint256)": "f7b10808",
					"propertyCount()": "c361a335",
					"updateProperty(uint256,uint256)": "44e034cc"
				}
			},
			"storageLayout": {
				"storage": [
					{
						"astId": 19,
						"contract": "contracts/6_PropertyContract.sol:PropertyContract",
						"label": "properties",
						"offset": 0,
						"slot": "0",
						"type": "t_mapping(t_uint256,t_struct(Property)14_storage)"
					},
					{
						"astId": 21,
						"contract": "contracts/6_PropertyContract.sol:PropertyContract",
						"label": "propertyCount",
						"offset": 0,
						"slot": "1",
						"type": "t_uint256"
					}
				],
				"types": {
					"t_address": {
						"encoding": "inplace",
						"label": "address",
						"numberOfBytes": "20"
					},
					"t_bool": {
						"encoding": "inplace",
						"label": "bool",
						"numberOfBytes": "1"
					},
					"t_mapping(t_uint256,t_struct(Property)14_storage)": {
						"encoding": "mapping",
						"key": "t_uint256",
						"label": "mapping(uint256 => struct PropertyContract.Property)",
						"numberOfBytes": "32",
						"value": "t_struct(Property)14_storage"
					},
					"t_string_storage": {
						"encoding": "bytes",
						"label": "string",
						"numberOfBytes": "32"
					},
					"t_struct(Property)14_storage": {
						"encoding": "inplace",
						"label": "struct PropertyContract.Property",
						"members": [
							{
								"astId": 3,
								"contract": "contracts/6_PropertyContract.sol:PropertyContract",
								"label": "id",
								"offset": 0,
								"slot": "0",
								"type": "t_uint256"
							},
							{
								"astId": 5,
								"contract": "contracts/6_PropertyContract.sol:PropertyContract",
								"label": "title",
								"offset": 0,
								"slot": "1",
								"type": "t_string_storage"
							},
							{
								"astId": 7,
								"contract": "contracts/6_PropertyContract.sol:PropertyContract",
								"label": "location",
								"offset": 0,
								"slot": "2",
								"type": "t_string_storage"
							},
							{
								"astId": 9,
								"contract": "contracts/6_PropertyContract.sol:PropertyContract",
								"label": "price",
								"offset": 0,
								"slot": "3",
								"type": "t_uint256"
							},
							{
								"astId": 11,
								"contract": "contracts/6_PropertyContract.sol:PropertyContract",
								"label": "owner",
								"offset": 0,
								"slot": "4",
								"type": "t_address"
							},
							{
								"astId": 13,
								"contract": "contracts/6_PropertyContract.sol:PropertyContract",
								"label": "isListed",
								"offset": 20,
								"slot": "4",
								"type": "t_bool"
							}
						],
						"numberOfBytes": "160"
					},
					"t_uint256": {
						"encoding": "inplace",
						"label": "uint256",
						"numberOfBytes": "32"
					}
				}
			},
			"userdoc": {
				"kind": "user",
				"methods": {},
				"version": 1
			}
		}
	}
}