{
	"contracts/18_New_ PropertyContract.sol": {
		"PropertyContract": {
			"abi": [
				{
					"anonymous": false,
					"inputs": [
						{
							"indexed": false,
							"internalType": "uint256",
							"name": "propertyId",
							"type": "uint256"
						},
						{
							"indexed": false,
							"internalType": "string",
							"name": "propertyDetails",
							"type": "string"
						},
						{
							"indexed": false,
							"internalType": "uint256",
							"name": "price",
							"type": "uint256"
						},
						{
							"indexed": false,
							"internalType": "address",
							"name": "owner",
							"type": "address"
						}
					],
					"name": "PropertyListed",
					"type": "event"
				},
				{
					"anonymous": false,
					"inputs": [
						{
							"indexed": false,
							"internalType": "uint256",
							"name": "propertyId",
							"type": "uint256"
						}
					],
					"name": "PropertyRemoved",
					"type": "event"
				},
				{
					"anonymous": false,
					"inputs": [
						{
							"indexed": false,
							"internalType": "uint256",
							"name": "propertyId",
							"type": "uint256"
						},
						{
							"indexed": false,
							"internalType": "string",
							"name": "propertyDetails",
							"type": "string"
						},
						{
							"indexed": false,
							"internalType": "uint256",
							"name": "price",
							"type": "uint256"
						}
					],
					"name": "PropertyUpdated",
					"type": "event"
				},
				{
					"inputs": [
						{
							"internalType": "uint256",
							"name": "propertyId",
							"type": "uint256"
						},
						{
							"internalType": "string",
							"name": "propertyDetails",
							"type": "string"
						},
						{
							"internalType": "uint256",
							"name": "price",
							"type": "uint256"
						}
					],
					"name": "addProperty",
					"outputs": [],
					"stateMutability": "nonpayable",
					"type": "function"
				},
				{
					"inputs": [
						{
							"internalType": "uint256",
							"name": "propertyId",
							"type": "uint256"
						}
					],
					"name": "getProperty",
					"outputs": [
						{
							"internalType": "string",
							"name": "",
							"type": "string"
						},
						{
							"internalType": "uint256",
							"name": "",
							"type": "uint256"
						}
					],
					"stateMutability": "view",
					"type": "function"
				},
				{
					"inputs": [
						{
							"internalType": "uint256",
							"name": "propertyId",
							"type": "uint256"
						}
					],
					"name": "removeProperty",
					"outputs": [],
					"stateMutability": "nonpayable",
					"type": "function"
				},
				{
					"inputs": [
						{
							"internalType": "uint256",
							"name": "propertyId",
							"type": "uint256"
						},
						{
							"internalType": "string",
							"name": "propertyDetails",
							"type": "string"
						},
						{
							"internalType": "uint256",
							"name": "price",
							"type": "uint256"
						}
					],
					"name": "updateProperty",
					"outputs": [],
					"stateMutability": "nonpayable",
					"type": "function"
				}
			],
			"devdoc": {
				"kind": "dev",
				"methods": {},
				"version": 1
			},
			"evm": {
				"assembly": "    /* \"contracts/18_New_ PropertyContract.sol\":60:1786  contract PropertyContract {... */\n  mstore(0x40, 0x80)\n  callvalue\n  dup1\n  iszero\n  tag_1\n  jumpi\n  0x00\n  dup1\n  revert\ntag_1:\n  pop\n  dataSize(sub_0)\n  dup1\n  dataOffset(sub_0)\n  0x00\n  codecopy\n  0x00\n  return\nstop\n\nsub_0: assembly {\n        /* \"contracts/18_New_ PropertyContract.sol\":60:1786  contract PropertyContract {... */\n      mstore(0x40, 0x80)\n      callvalue\n      dup1\n      iszero\n      tag_1\n      jumpi\n      0x00\n      dup1\n      revert\n    tag_1:\n      pop\n      jumpi(tag_2, lt(calldatasize, 0x04))\n      shr(0xe0, calldataload(0x00))\n      dup1\n      0x2d64c60a\n      eq\n      tag_3\n      jumpi\n      dup1\n      0x32665ffb\n      eq\n      tag_4\n      jumpi\n      dup1\n      0xbc43d06f\n      eq\n      tag_5\n      jumpi\n      dup1\n      0xfe93ba09\n      eq\n      tag_6\n      jumpi\n    tag_2:\n      0x00\n      dup1\n      revert\n        /* \"contracts/18_New_ PropertyContract.sol\":940:1320  function updateProperty(uint propertyId, string memory propertyDetails, uint price) public {... */\n    tag_3:\n      tag_7\n      0x04\n      dup1\n      calldatasize\n      sub\n      dup2\n      add\n      swap1\n      tag_8\n      swap2\n      swap1\n      tag_9\n      jump\t// in\n    tag_8:\n      tag_10\n      jump\t// in\n    tag_7:\n      stop\n        /* \"contracts/18_New_ PropertyContract.sol\":1575:1783  function getProperty(uint propertyId) public view returns (string memory, uint) {... */\n    tag_4:\n      tag_11\n      0x04\n      dup1\n      calldatasize\n      sub\n      dup2\n      add\n      swap1\n      tag_12\n      swap2\n      swap1\n      tag_13\n      jump\t// in\n    tag_12:\n      tag_14\n      jump\t// in\n    tag_11:\n      mload(0x40)\n      tag_15\n      swap3\n      swap2\n      swap1\n      tag_16\n      jump\t// in\n    tag_15:\n      mload(0x40)\n      dup1\n      swap2\n      sub\n      swap1\n      return\n        /* \"contracts/18_New_ PropertyContract.sol\":1328:1567  function removeProperty(uint propertyId) public {... */\n    tag_5:\n      tag_17\n      0x04\n      dup1\n      calldatasize\n      sub\n      dup2\n      add\n      swap1\n      tag_18\n      swap2\n      swap1\n      tag_13\n      jump\t// in\n    tag_18:\n      tag_19\n      jump\t// in\n    tag_17:\n      stop\n        /* \"contracts/18_New_ PropertyContract.sol\":538:932  function addProperty(uint propertyId, string memory propertyDetails, uint price) public {... */\n    tag_6:\n      tag_20\n      0x04\n      dup1\n      calldatasize\n      sub\n      dup2\n      add\n      swap1\n      tag_21\n      swap2\n      swap1\n      tag_9\n      jump\t// in\n    tag_21:\n      tag_22\n      jump\t// in\n    tag_20:\n      stop\n        /* \"contracts/18_New_ PropertyContract.sol\":940:1320  function updateProperty(uint propertyId, string memory propertyDetails, uint price) public {... */\n    tag_10:\n        /* \"contracts/18_New_ PropertyContract.sol\":1082:1092  msg.sender */\n      caller\n        /* \"contracts/18_New_ PropertyContract.sol\":1050:1092  properties[propertyId].owner == msg.sender */\n      0xffffffffffffffffffffffffffffffffffffffff\n      and\n        /* \"contracts/18_New_ PropertyContract.sol\":1050:1060  properties */\n      0x00\n        /* \"contracts/18_New_ PropertyContract.sol\":1050:1072  properties[propertyId] */\n      dup1\n        /* \"contracts/18_New_ PropertyContract.sol\":1061:1071  propertyId */\n      dup6\n        /* \"contracts/18_New_ PropertyContract.sol\":1050:1072  properties[propertyId] */\n      dup2\n      mstore\n      0x20\n      add\n      swap1\n      dup2\n      mstore\n      0x20\n      add\n      0x00\n      keccak256\n        /* \"contracts/18_New_ PropertyContract.sol\":1050:1078  properties[propertyId].owner */\n      0x03\n      add\n      0x00\n      swap1\n      sload\n      swap1\n      0x0100\n      exp\n      swap1\n      div\n      0xffffffffffffffffffffffffffffffffffffffff\n      and\n        /* \"contracts/18_New_ PropertyContract.sol\":1050:1092  properties[propertyId].owner == msg.sender */\n      0xffffffffffffffffffffffffffffffffffffffff\n      and\n      eq\n        /* \"contracts/18_New_ PropertyContract.sol\":1042:1131  require(properties[propertyId].owner == msg.sender, \"Only owner can update the property\") */\n      tag_24\n      jumpi\n      mload(0x40)\n      0x08c379a000000000000000000000000000000000000000000000000000000000\n      dup2\n      mstore\n      0x04\n      add\n      tag_25\n      swap1\n      tag_26\n      jump\t// in\n    tag_25:\n      mload(0x40)\n      dup1\n      swap2\n      sub\n      swap1\n      revert\n    tag_24:\n        /* \"contracts/18_New_ PropertyContract.sol\":1183:1198  propertyDetails */\n      dup2\n        /* \"contracts/18_New_ PropertyContract.sol\":1142:1152  properties */\n      0x00\n        /* \"contracts/18_New_ PropertyContract.sol\":1142:1164  properties[propertyId] */\n      dup1\n        /* \"contracts/18_New_ PropertyContract.sol\":1153:1163  propertyId */\n      dup6\n        /* \"contracts/18_New_ PropertyContract.sol\":1142:1164  properties[propertyId] */\n      dup2\n      mstore\n      0x20\n      add\n      swap1\n      dup2\n      mstore\n      0x20\n      add\n      0x00\n      keccak256\n        /* \"contracts/18_New_ PropertyContract.sol\":1142:1180  properties[propertyId].propertyDetails */\n      0x01\n      add\n        /* \"contracts/18_New_ PropertyContract.sol\":1142:1198  properties[propertyId].propertyDetails = propertyDetails */\n      swap1\n      dup2\n      tag_27\n      swap2\n      swap1\n      tag_28\n      jump\t// in\n    tag_27:\n      pop\n        /* \"contracts/18_New_ PropertyContract.sol\":1240:1245  price */\n      dup1\n        /* \"contracts/18_New_ PropertyContract.sol\":1209:1219  properties */\n      0x00\n        /* \"contracts/18_New_ PropertyContract.sol\":1209:1231  properties[propertyId] */\n      dup1\n        /* \"contracts/18_New_ PropertyContract.sol\":1220:1230  propertyId */\n      dup6\n        /* \"contracts/18_New_ PropertyContract.sol\":1209:1231  properties[propertyId] */\n      dup2\n      mstore\n      0x20\n      add\n      swap1\n      dup2\n      mstore\n      0x20\n      add\n      0x00\n      keccak256\n        /* \"contracts/18_New_ PropertyContract.sol\":1209:1237  properties[propertyId].price */\n      0x02\n      add\n        /* \"contracts/18_New_ PropertyContract.sol\":1209:1245  properties[propertyId].price = price */\n      dup2\n      swap1\n      sstore\n      pop\n        /* \"contracts/18_New_ PropertyContract.sol\":1261:1312  PropertyUpdated(propertyId, propertyDetails, price) */\n      0xc7d6594ab03628ef3f6852d4225a8d2b1461544207142d9c0fba9747a789ade5\n        /* \"contracts/18_New_ PropertyContract.sol\":1277:1287  propertyId */\n      dup4\n        /* \"contracts/18_New_ PropertyContract.sol\":1289:1304  propertyDetails */\n      dup4\n        /* \"contracts/18_New_ PropertyContract.sol\":1306:1311  price */\n      dup4\n        /* \"contracts/18_New_ PropertyContract.sol\":1261:1312  PropertyUpdated(propertyId, propertyDetails, price) */\n      mload(0x40)\n      tag_29\n      swap4\n      swap3\n      swap2\n      swap1\n      tag_30\n      jump\t// in\n    tag_29:\n      mload(0x40)\n      dup1\n      swap2\n      sub\n      swap1\n      log1\n        /* \"contracts/18_New_ PropertyContract.sol\":940:1320  function updateProperty(uint propertyId, string memory propertyDetails, uint price) public {... */\n      pop\n      pop\n      pop\n      jump\t// out\n        /* \"contracts/18_New_ PropertyContract.sol\":1575:1783  function getProperty(uint propertyId) public view returns (string memory, uint) {... */\n    tag_14:\n        /* \"contracts/18_New_ PropertyContract.sol\":1634:1647  string memory */\n      0x60\n        /* \"contracts/18_New_ PropertyContract.sol\":1649:1653  uint */\n      0x00\n        /* \"contracts/18_New_ PropertyContract.sol\":1666:1690  Property memory property */\n      dup1\n        /* \"contracts/18_New_ PropertyContract.sol\":1693:1703  properties */\n      0x00\n        /* \"contracts/18_New_ PropertyContract.sol\":1693:1715  properties[propertyId] */\n      dup1\n        /* \"contracts/18_New_ PropertyContract.sol\":1704:1714  propertyId */\n      dup6\n        /* \"contracts/18_New_ PropertyContract.sol\":1693:1715  properties[propertyId] */\n      dup2\n      mstore\n      0x20\n      add\n      swap1\n      dup2\n      mstore\n      0x20\n      add\n      0x00\n      keccak256\n        /* \"contracts/18_New_ PropertyContract.sol\":1666:1715  Property memory property = properties[propertyId] */\n      mload(0x40)\n      dup1\n      0x80\n      add\n      0x40\n      mstore\n      swap1\n      dup2\n      0x00\n      dup3\n      add\n      sload\n      dup2\n      mstore\n      0x20\n      add\n      0x01\n      dup3\n      add\n      dup1\n      sload\n      tag_32\n      swap1\n      tag_33\n      jump\t// in\n    tag_32:\n      dup1\n      0x1f\n      add\n      0x20\n      dup1\n      swap2\n      div\n      mul\n      0x20\n      add\n      mload(0x40)\n      swap1\n      dup2\n      add\n      0x40\n      mstore\n      dup1\n      swap3\n      swap2\n      swap1\n      dup2\n      dup2\n      mstore\n      0x20\n      add\n      dup3\n      dup1\n      sload\n      tag_34\n      swap1\n      tag_33\n      jump\t// in\n    tag_34:\n      dup1\n      iszero\n      tag_35\n      jumpi\n      dup1\n      0x1f\n      lt\n      tag_36\n      jumpi\n      0x0100\n      dup1\n      dup4\n      sload\n      div\n      mul\n      dup4\n      mstore\n      swap2\n      0x20\n      add\n      swap2\n      jump(tag_35)\n    tag_36:\n      dup3\n      add\n      swap2\n      swap1\n      0x00\n      mstore\n      keccak256(0x00, 0x20)\n      swap1\n    tag_37:\n      dup2\n      sload\n      dup2\n      mstore\n      swap1\n      0x01\n      add\n      swap1\n      0x20\n      add\n      dup1\n      dup4\n      gt\n      tag_37\n      jumpi\n      dup3\n      swap1\n      sub\n      0x1f\n      and\n      dup3\n      add\n      swap2\n    tag_35:\n      pop\n      pop\n      pop\n      pop\n      pop\n      dup2\n      mstore\n      0x20\n      add\n      0x02\n      dup3\n      add\n      sload\n      dup2\n      mstore\n      0x20\n      add\n      0x03\n      dup3\n      add\n      0x00\n      swap1\n      sload\n      swap1\n      0x0100\n      exp\n      swap1\n      div\n      0xffffffffffffffffffffffffffffffffffffffff\n      and\n      0xffffffffffffffffffffffffffffffffffffffff\n      and\n      0xffffffffffffffffffffffffffffffffffffffff\n      and\n      dup2\n      mstore\n      pop\n      pop\n      swap1\n      pop\n        /* \"contracts/18_New_ PropertyContract.sol\":1734:1742  property */\n      dup1\n        /* \"contracts/18_New_ PropertyContract.sol\":1734:1758  property.propertyDetails */\n      0x20\n      add\n      mload\n        /* \"contracts/18_New_ PropertyContract.sol\":1760:1768  property */\n      dup2\n        /* \"contracts/18_New_ PropertyContract.sol\":1760:1774  property.price */\n      0x40\n      add\n      mload\n        /* \"contracts/18_New_ PropertyContract.sol\":1726:1775  return (property.propertyDetails, property.price) */\n      swap3\n      pop\n      swap3\n      pop\n      pop\n        /* \"contracts/18_New_ PropertyContract.sol\":1575:1783  function getProperty(uint propertyId) public view returns (string memory, uint) {... */\n      swap2\n      pop\n      swap2\n      jump\t// out\n        /* \"contracts/18_New_ PropertyContract.sol\":1328:1567  function removeProperty(uint propertyId) public {... */\n    tag_19:\n        /* \"contracts/18_New_ PropertyContract.sol\":1427:1437  msg.sender */\n      caller\n        /* \"contracts/18_New_ PropertyContract.sol\":1395:1437  properties[propertyId].owner == msg.sender */\n      0xffffffffffffffffffffffffffffffffffffffff\n      and\n        /* \"contracts/18_New_ PropertyContract.sol\":1395:1405  properties */\n      0x00\n        /* \"contracts/18_New_ PropertyContract.sol\":1395:1417  properties[propertyId] */\n      dup1\n        /* \"contracts/18_New_ PropertyContract.sol\":1406:1416  propertyId */\n      dup4\n        /* \"contracts/18_New_ PropertyContract.sol\":1395:1417  properties[propertyId] */\n      dup2\n      mstore\n      0x20\n      add\n      swap1\n      dup2\n      mstore\n      0x20\n      add\n      0x00\n      keccak256\n        /* \"contracts/18_New_ PropertyContract.sol\":1395:1423  properties[propertyId].owner */\n      0x03\n      add\n      0x00\n      swap1\n      sload\n      swap1\n      0x0100\n      exp\n      swap1\n      div\n      0xffffffffffffffffffffffffffffffffffffffff\n      and\n        /* \"contracts/18_New_ PropertyContract.sol\":1395:1437  properties[propertyId].owner == msg.sender */\n      0xffffffffffffffffffffffffffffffffffffffff\n      and\n      eq\n        /* \"contracts/18_New_ PropertyContract.sol\":1387:1476  require(properties[propertyId].owner == msg.sender, \"Only owner can remove the property\") */\n      tag_39\n      jumpi\n      mload(0x40)\n      0x08c379a000000000000000000000000000000000000000000000000000000000\n      dup2\n      mstore\n      0x04\n      add\n      tag_40\n      swap1\n      tag_41\n      jump\t// in\n    tag_40:\n      mload(0x40)\n      dup1\n      swap2\n      sub\n      swap1\n      revert\n    tag_39:\n        /* \"contracts/18_New_ PropertyContract.sol\":1494:1504  properties */\n      0x00\n        /* \"contracts/18_New_ PropertyContract.sol\":1494:1516  properties[propertyId] */\n      dup1\n        /* \"contracts/18_New_ PropertyContract.sol\":1505:1515  propertyId */\n      dup3\n        /* \"contracts/18_New_ PropertyContract.sol\":1494:1516  properties[propertyId] */\n      dup2\n      mstore\n      0x20\n      add\n      swap1\n      dup2\n      mstore\n      0x20\n      add\n      0x00\n      keccak256\n      0x00\n        /* \"contracts/18_New_ PropertyContract.sol\":1487:1516  delete properties[propertyId] */\n      dup1\n      dup3\n      add\n      0x00\n      swap1\n      sstore\n      0x01\n      dup3\n      add\n      0x00\n      tag_42\n      swap2\n      swap1\n      tag_43\n      jump\t// in\n    tag_42:\n      0x02\n      dup3\n      add\n      0x00\n      swap1\n      sstore\n      0x03\n      dup3\n      add\n      exp(0x0100, 0x00)\n      dup2\n      sload\n      swap1\n      0xffffffffffffffffffffffffffffffffffffffff\n      mul\n      not\n      and\n      swap1\n      sstore\n      pop\n      pop\n        /* \"contracts/18_New_ PropertyContract.sol\":1532:1559  PropertyRemoved(propertyId) */\n      0x586b7d6bbe3535c99fbb4b183ce687d76307b7b4cb5a6a11e32ce06199d811fc\n        /* \"contracts/18_New_ PropertyContract.sol\":1548:1558  propertyId */\n      dup2\n        /* \"contracts/18_New_ PropertyContract.sol\":1532:1559  PropertyRemoved(propertyId) */\n      mload(0x40)\n      tag_44\n      swap2\n      swap1\n      tag_45\n      jump\t// in\n    tag_44:\n      mload(0x40)\n      dup1\n      swap2\n      sub\n      swap1\n      log1\n        /* \"contracts/18_New_ PropertyContract.sol\":1328:1567  function removeProperty(uint propertyId) public {... */\n      pop\n      jump\t// out\n        /* \"contracts/18_New_ PropertyContract.sol\":538:932  function addProperty(uint propertyId, string memory propertyDetails, uint price) public {... */\n    tag_22:\n        /* \"contracts/18_New_ PropertyContract.sol\":685:686  0 */\n      0x00\n        /* \"contracts/18_New_ PropertyContract.sol\":645:687  properties[propertyId].owner == address(0) */\n      0xffffffffffffffffffffffffffffffffffffffff\n      and\n        /* \"contracts/18_New_ PropertyContract.sol\":645:655  properties */\n      0x00\n        /* \"contracts/18_New_ PropertyContract.sol\":645:667  properties[propertyId] */\n      dup1\n        /* \"contracts/18_New_ PropertyContract.sol\":656:666  propertyId */\n      dup6\n        /* \"contracts/18_New_ PropertyContract.sol\":645:667  properties[propertyId] */\n      dup2\n      mstore\n      0x20\n      add\n      swap1\n      dup2\n      mstore\n      0x20\n      add\n      0x00\n      keccak256\n        /* \"contracts/18_New_ PropertyContract.sol\":645:673  properties[propertyId].owner */\n      0x03\n      add\n      0x00\n      swap1\n      sload\n      swap1\n      0x0100\n      exp\n      swap1\n      div\n      0xffffffffffffffffffffffffffffffffffffffff\n      and\n        /* \"contracts/18_New_ PropertyContract.sol\":645:687  properties[propertyId].owner == address(0) */\n      0xffffffffffffffffffffffffffffffffffffffff\n      and\n      eq\n        /* \"contracts/18_New_ PropertyContract.sol\":637:715  require(properties[propertyId].owner == address(0), \"Property already exists\") */\n      tag_47\n      jumpi\n      mload(0x40)\n      0x08c379a000000000000000000000000000000000000000000000000000000000\n      dup2\n      mstore\n      0x04\n      add\n      tag_48\n      swap1\n      tag_49\n      jump\t// in\n    tag_48:\n      mload(0x40)\n      dup1\n      swap2\n      sub\n      swap1\n      revert\n    tag_47:\n        /* \"contracts/18_New_ PropertyContract.sol\":751:807  Property(propertyId, propertyDetails, price, msg.sender) */\n      mload(0x40)\n      dup1\n      0x80\n      add\n      0x40\n      mstore\n      dup1\n        /* \"contracts/18_New_ PropertyContract.sol\":760:770  propertyId */\n      dup5\n        /* \"contracts/18_New_ PropertyContract.sol\":751:807  Property(propertyId, propertyDetails, price, msg.sender) */\n      dup2\n      mstore\n      0x20\n      add\n        /* \"contracts/18_New_ PropertyContract.sol\":772:787  propertyDetails */\n      dup4\n        /* \"contracts/18_New_ PropertyContract.sol\":751:807  Property(propertyId, propertyDetails, price, msg.sender) */\n      dup2\n      mstore\n      0x20\n      add\n        /* \"contracts/18_New_ PropertyContract.sol\":789:794  price */\n      dup3\n        /* \"contracts/18_New_ PropertyContract.sol\":751:807  Property(propertyId, propertyDetails, price, msg.sender) */\n      dup2\n      mstore\n      0x20\n      add\n        /* \"contracts/18_New_ PropertyContract.sol\":796:806  msg.sender */\n      caller\n        /* \"contracts/18_New_ PropertyContract.sol\":751:807  Property(propertyId, propertyDetails, price, msg.sender) */\n      0xffffffffffffffffffffffffffffffffffffffff\n      and\n      dup2\n      mstore\n      pop\n        /* \"contracts/18_New_ PropertyContract.sol\":726:736  properties */\n      0x00\n        /* \"contracts/18_New_ PropertyContract.sol\":726:748  properties[propertyId] */\n      dup1\n        /* \"contracts/18_New_ PropertyContract.sol\":737:747  propertyId */\n      dup6\n        /* \"contracts/18_New_ PropertyContract.sol\":726:748  properties[propertyId] */\n      dup2\n      mstore\n      0x20\n      add\n      swap1\n      dup2\n      mstore\n      0x20\n      add\n      0x00\n      keccak256\n        /* \"contracts/18_New_ PropertyContract.sol\":726:807  properties[propertyId] = Property(propertyId, propertyDetails, price, msg.sender) */\n      0x00\n      dup3\n      add\n      mload\n      dup2\n      0x00\n      add\n      sstore\n      0x20\n      dup3\n      add\n      mload\n      dup2\n      0x01\n      add\n      swap1\n      dup2\n      tag_50\n      swap2\n      swap1\n      tag_28\n      jump\t// in\n    tag_50:\n      pop\n      0x40\n      dup3\n      add\n      mload\n      dup2\n      0x02\n      add\n      sstore\n      0x60\n      dup3\n      add\n      mload\n      dup2\n      0x03\n      add\n      exp(0x0100, 0x00)\n      dup2\n      sload\n      dup2\n      0xffffffffffffffffffffffffffffffffffffffff\n      mul\n      not\n      and\n      swap1\n      dup4\n      0xffffffffffffffffffffffffffffffffffffffff\n      and\n      mul\n      or\n      swap1\n      sstore\n      pop\n      swap1\n      pop\n      pop\n        /* \"contracts/18_New_ PropertyContract.sol\":818:829  propertyIds */\n      0x01\n        /* \"contracts/18_New_ PropertyContract.sol\":835:845  propertyId */\n      dup4\n        /* \"contracts/18_New_ PropertyContract.sol\":818:846  propertyIds.push(propertyId) */\n      swap1\n      dup1\n      0x01\n      dup2\n      sload\n      add\n      dup1\n      dup3\n      sstore\n      dup1\n      swap2\n      pop\n      pop\n      0x01\n      swap1\n      sub\n      swap1\n      0x00\n      mstore\n      keccak256(0x00, 0x20)\n      add\n      0x00\n      swap1\n      swap2\n      swap1\n      swap2\n      swap1\n      swap2\n      pop\n      sstore\n        /* \"contracts/18_New_ PropertyContract.sol\":862:924  PropertyListed(propertyId, propertyDetails, price, msg.sender) */\n      0xe0de464e657fdeb1f668e5e64fb92e159b463403ee20baa688fe16a63b0542c4\n        /* \"contracts/18_New_ PropertyContract.sol\":877:887  propertyId */\n      dup4\n        /* \"contracts/18_New_ PropertyContract.sol\":889:904  propertyDetails */\n      dup4\n        /* \"contracts/18_New_ PropertyContract.sol\":906:911  price */\n      dup4\n        /* \"contracts/18_New_ PropertyContract.sol\":913:923  msg.sender */\n      caller\n        /* \"contracts/18_New_ PropertyContract.sol\":862:924  PropertyListed(propertyId, propertyDetails, price, msg.sender) */\n      mload(0x40)\n      tag_52\n      swap5\n      swap4\n      swap3\n      swap2\n      swap1\n      tag_53\n      jump\t// in\n    tag_52:\n      mload(0x40)\n      dup1\n      swap2\n      sub\n      swap1\n      log1\n        /* \"contracts/18_New_ PropertyContract.sol\":538:932  function addProperty(uint propertyId, string memory propertyDetails, uint price) public {... */\n      pop\n      pop\n      pop\n      jump\t// out\n    tag_43:\n      pop\n      dup1\n      sload\n      tag_54\n      swap1\n      tag_33\n      jump\t// in\n    tag_54:\n      0x00\n      dup3\n      sstore\n      dup1\n      0x1f\n      lt\n      tag_56\n      jumpi\n      pop\n      jump(tag_55)\n    tag_56:\n      0x1f\n      add\n      0x20\n      swap1\n      div\n      swap1\n      0x00\n      mstore\n      keccak256(0x00, 0x20)\n      swap1\n      dup2\n      add\n      swap1\n      tag_57\n      swap2\n      swap1\n      tag_58\n      jump\t// in\n    tag_57:\n    tag_55:\n      pop\n      jump\t// out\n    tag_58:\n    tag_59:\n      dup1\n      dup3\n      gt\n      iszero\n      tag_60\n      jumpi\n      0x00\n      dup2\n      0x00\n      swap1\n      sstore\n      pop\n      0x01\n      add\n      jump(tag_59)\n    tag_60:\n      pop\n      swap1\n      jump\t// out\n        /* \"#utility.yul\":7:82   */\n    tag_61:\n        /* \"#utility.yul\":40:46   */\n      0x00\n        /* \"#utility.yul\":73:75   */\n      0x40\n        /* \"#utility.yul\":67:76   */\n      mload\n        /* \"#utility.yul\":57:76   */\n      swap1\n      pop\n        /* \"#utility.yul\":7:82   */\n      swap1\n      jump\t// out\n        /* \"#utility.yul\":88:205   */\n    tag_62:\n        /* \"#utility.yul\":197:198   */\n      0x00\n        /* \"#utility.yul\":194:195   */\n      dup1\n        /* \"#utility.yul\":187:199   */\n      revert\n        /* \"#utility.yul\":211:328   */\n    tag_63:\n        /* \"#utility.yul\":320:321   */\n      0x00\n        /* \"#utility.yul\":317:318   */\n      dup1\n        /* \"#utility.yul\":310:322   */\n      revert\n        /* \"#utility.yul\":334:411   */\n    tag_64:\n        /* \"#utility.yul\":371:378   */\n      0x00\n        /* \"#utility.yul\":400:405   */\n      dup2\n        /* \"#utility.yul\":389:405   */\n      swap1\n      pop\n        /* \"#utility.yul\":334:411   */\n      swap2\n      swap1\n      pop\n      jump\t// out\n        /* \"#utility.yul\":417:539   */\n    tag_65:\n        /* \"#utility.yul\":490:514   */\n      tag_113\n        /* \"#utility.yul\":508:513   */\n      dup2\n        /* \"#utility.yul\":490:514   */\n      tag_64\n      jump\t// in\n    tag_113:\n        /* \"#utility.yul\":483:488   */\n      dup2\n        /* \"#utility.yul\":480:515   */\n      eq\n        /* \"#utility.yul\":470:533   */\n      tag_114\n      jumpi\n        /* \"#utility.yul\":529:530   */\n      0x00\n        /* \"#utility.yul\":526:527   */\n      dup1\n        /* \"#utility.yul\":519:531   */\n      revert\n        /* \"#utility.yul\":470:533   */\n    tag_114:\n        /* \"#utility.yul\":417:539   */\n      pop\n      jump\t// out\n        /* \"#utility.yul\":545:684   */\n    tag_66:\n        /* \"#utility.yul\":591:596   */\n      0x00\n        /* \"#utility.yul\":629:635   */\n      dup2\n        /* \"#utility.yul\":616:636   */\n      calldataload\n        /* \"#utility.yul\":607:636   */\n      swap1\n      pop\n        /* \"#utility.yul\":645:678   */\n      tag_116\n        /* \"#utility.yul\":672:677   */\n      dup2\n        /* \"#utility.yul\":645:678   */\n      tag_65\n      jump\t// in\n    tag_116:\n        /* \"#utility.yul\":545:684   */\n      swap3\n      swap2\n      pop\n      pop\n      jump\t// out\n        /* \"#utility.yul\":690:807   */\n    tag_67:\n        /* \"#utility.yul\":799:800   */\n      0x00\n        /* \"#utility.yul\":796:797   */\n      dup1\n        /* \"#utility.yul\":789:801   */\n      revert\n        /* \"#utility.yul\":813:930   */\n    tag_68:\n        /* \"#utility.yul\":922:923   */\n      0x00\n        /* \"#utility.yul\":919:920   */\n      dup1\n        /* \"#utility.yul\":912:924   */\n      revert\n        /* \"#utility.yul\":936:1038   */\n    tag_69:\n        /* \"#utility.yul\":977:983   */\n      0x00\n        /* \"#utility.yul\":1028:1030   */\n      0x1f\n        /* \"#utility.yul\":1024:1031   */\n      not\n        /* \"#utility.yul\":1019:1021   */\n      0x1f\n        /* \"#utility.yul\":1012:1017   */\n      dup4\n        /* \"#utility.yul\":1008:1022   */\n      add\n        /* \"#utility.yul\":1004:1032   */\n      and\n        /* \"#utility.yul\":994:1032   */\n      swap1\n      pop\n        /* \"#utility.yul\":936:1038   */\n      swap2\n      swap1\n      pop\n      jump\t// out\n        /* \"#utility.yul\":1044:1224   */\n    tag_70:\n        /* \"#utility.yul\":1092:1169   */\n      0x4e487b7100000000000000000000000000000000000000000000000000000000\n        /* \"#utility.yul\":1089:1090   */\n      0x00\n        /* \"#utility.yul\":1082:1170   */\n      mstore\n        /* \"#utility.yul\":1189:1193   */\n      0x41\n        /* \"#utility.yul\":1186:1187   */\n      0x04\n        /* \"#utility.yul\":1179:1194   */\n      mstore\n        /* \"#utility.yul\":1213:1217   */\n      0x24\n        /* \"#utility.yul\":1210:1211   */\n      0x00\n        /* \"#utility.yul\":1203:1218   */\n      revert\n        /* \"#utility.yul\":1230:1511   */\n    tag_71:\n        /* \"#utility.yul\":1313:1340   */\n      tag_122\n        /* \"#utility.yul\":1335:1339   */\n      dup3\n        /* \"#utility.yul\":1313:1340   */\n      tag_69\n      jump\t// in\n    tag_122:\n        /* \"#utility.yul\":1305:1311   */\n      dup2\n        /* \"#utility.yul\":1301:1341   */\n      add\n        /* \"#utility.yul\":1443:1449   */\n      dup2\n        /* \"#utility.yul\":1431:1441   */\n      dup2\n        /* \"#utility.yul\":1428:1450   */\n      lt\n        /* \"#utility.yul\":1407:1425   */\n      0xffffffffffffffff\n        /* \"#utility.yul\":1395:1405   */\n      dup3\n        /* \"#utility.yul\":1392:1426   */\n      gt\n        /* \"#utility.yul\":1389:1451   */\n      or\n        /* \"#utility.yul\":1386:1474   */\n      iszero\n      tag_123\n      jumpi\n        /* \"#utility.yul\":1454:1472   */\n      tag_124\n      tag_70\n      jump\t// in\n    tag_124:\n        /* \"#utility.yul\":1386:1474   */\n    tag_123:\n        /* \"#utility.yul\":1494:1504   */\n      dup1\n        /* \"#utility.yul\":1490:1492   */\n      0x40\n        /* \"#utility.yul\":1483:1505   */\n      mstore\n        /* \"#utility.yul\":1273:1511   */\n      pop\n        /* \"#utility.yul\":1230:1511   */\n      pop\n      pop\n      jump\t// out\n        /* \"#utility.yul\":1517:1646   */\n    tag_72:\n        /* \"#utility.yul\":1551:1557   */\n      0x00\n        /* \"#utility.yul\":1578:1598   */\n      tag_126\n      tag_61\n      jump\t// in\n    tag_126:\n        /* \"#utility.yul\":1568:1598   */\n      swap1\n      pop\n        /* \"#utility.yul\":1607:1640   */\n      tag_127\n        /* \"#utility.yul\":1635:1639   */\n      dup3\n        /* \"#utility.yul\":1627:1633   */\n      dup3\n        /* \"#utility.yul\":1607:1640   */\n      tag_71\n      jump\t// in\n    tag_127:\n        /* \"#utility.yul\":1517:1646   */\n      swap2\n      swap1\n      pop\n      jump\t// out\n        /* \"#utility.yul\":1652:1960   */\n    tag_73:\n        /* \"#utility.yul\":1714:1718   */\n      0x00\n        /* \"#utility.yul\":1804:1822   */\n      0xffffffffffffffff\n        /* \"#utility.yul\":1796:1802   */\n      dup3\n        /* \"#utility.yul\":1793:1823   */\n      gt\n        /* \"#utility.yul\":1790:1846   */\n      iszero\n      tag_129\n      jumpi\n        /* \"#utility.yul\":1826:1844   */\n      tag_130\n      tag_70\n      jump\t// in\n    tag_130:\n        /* \"#utility.yul\":1790:1846   */\n    tag_129:\n        /* \"#utility.yul\":1864:1893   */\n      tag_131\n        /* \"#utility.yul\":1886:1892   */\n      dup3\n        /* \"#utility.yul\":1864:1893   */\n      tag_69\n      jump\t// in\n    tag_131:\n        /* \"#utility.yul\":1856:1893   */\n      swap1\n      pop\n        /* \"#utility.yul\":1948:1952   */\n      0x20\n        /* \"#utility.yul\":1942:1946   */\n      dup2\n        /* \"#utility.yul\":1938:1953   */\n      add\n        /* \"#utility.yul\":1930:1953   */\n      swap1\n      pop\n        /* \"#utility.yul\":1652:1960   */\n      swap2\n      swap1\n      pop\n      jump\t// out\n        /* \"#utility.yul\":1966:2114   */\n    tag_74:\n        /* \"#utility.yul\":2064:2070   */\n      dup3\n        /* \"#utility.yul\":2059:2062   */\n      dup2\n        /* \"#utility.yul\":2054:2057   */\n      dup4\n        /* \"#utility.yul\":2041:2071   */\n      calldatacopy\n        /* \"#utility.yul\":2105:2106   */\n      0x00\n        /* \"#utility.yul\":2096:2102   */\n      dup4\n        /* \"#utility.yul\":2091:2094   */\n      dup4\n        /* \"#utility.yul\":2087:2103   */\n      add\n        /* \"#utility.yul\":2080:2107   */\n      mstore\n        /* \"#utility.yul\":1966:2114   */\n      pop\n      pop\n      pop\n      jump\t// out\n        /* \"#utility.yul\":2120:2545   */\n    tag_75:\n        /* \"#utility.yul\":2198:2203   */\n      0x00\n        /* \"#utility.yul\":2223:2289   */\n      tag_134\n        /* \"#utility.yul\":2239:2288   */\n      tag_135\n        /* \"#utility.yul\":2281:2287   */\n      dup5\n        /* \"#utility.yul\":2239:2288   */\n      tag_73\n      jump\t// in\n    tag_135:\n        /* \"#utility.yul\":2223:2289   */\n      tag_72\n      jump\t// in\n    tag_134:\n        /* \"#utility.yul\":2214:2289   */\n      swap1\n      pop\n        /* \"#utility.yul\":2312:2318   */\n      dup3\n        /* \"#utility.yul\":2305:2310   */\n      dup2\n        /* \"#utility.yul\":2298:2319   */\n      mstore\n        /* \"#utility.yul\":2350:2354   */\n      0x20\n        /* \"#utility.yul\":2343:2348   */\n      dup2\n        /* \"#utility.yul\":2339:2355   */\n      add\n        /* \"#utility.yul\":2388:2391   */\n      dup5\n        /* \"#utility.yul\":2379:2385   */\n      dup5\n        /* \"#utility.yul\":2374:2377   */\n      dup5\n        /* \"#utility.yul\":2370:2386   */\n      add\n        /* \"#utility.yul\":2367:2392   */\n      gt\n        /* \"#utility.yul\":2364:2476   */\n      iszero\n      tag_136\n      jumpi\n        /* \"#utility.yul\":2395:2474   */\n      tag_137\n      tag_68\n      jump\t// in\n    tag_137:\n        /* \"#utility.yul\":2364:2476   */\n    tag_136:\n        /* \"#utility.yul\":2485:2539   */\n      tag_138\n        /* \"#utility.yul\":2532:2538   */\n      dup5\n        /* \"#utility.yul\":2527:2530   */\n      dup3\n        /* \"#utility.yul\":2522:2525   */\n      dup6\n        /* \"#utility.yul\":2485:2539   */\n      tag_74\n      jump\t// in\n    tag_138:\n        /* \"#utility.yul\":2204:2545   */\n      pop\n        /* \"#utility.yul\":2120:2545   */\n      swap4\n      swap3\n      pop\n      pop\n      pop\n      jump\t// out\n        /* \"#utility.yul\":2565:2905   */\n    tag_76:\n        /* \"#utility.yul\":2621:2626   */\n      0x00\n        /* \"#utility.yul\":2670:2673   */\n      dup3\n        /* \"#utility.yul\":2663:2667   */\n      0x1f\n        /* \"#utility.yul\":2655:2661   */\n      dup4\n        /* \"#utility.yul\":2651:2668   */\n      add\n        /* \"#utility.yul\":2647:2674   */\n      slt\n        /* \"#utility.yul\":2637:2759   */\n      tag_140\n      jumpi\n        /* \"#utility.yul\":2678:2757   */\n      tag_141\n      tag_67\n      jump\t// in\n    tag_141:\n        /* \"#utility.yul\":2637:2759   */\n    tag_140:\n        /* \"#utility.yul\":2795:2801   */\n      dup2\n        /* \"#utility.yul\":2782:2802   */\n      calldataload\n        /* \"#utility.yul\":2820:2899   */\n      tag_142\n        /* \"#utility.yul\":2895:2898   */\n      dup5\n        /* \"#utility.yul\":2887:2893   */\n      dup3\n        /* \"#utility.yul\":2880:2884   */\n      0x20\n        /* \"#utility.yul\":2872:2878   */\n      dup7\n        /* \"#utility.yul\":2868:2885   */\n      add\n        /* \"#utility.yul\":2820:2899   */\n      tag_75\n      jump\t// in\n    tag_142:\n        /* \"#utility.yul\":2811:2899   */\n      swap2\n      pop\n        /* \"#utility.yul\":2627:2905   */\n      pop\n        /* \"#utility.yul\":2565:2905   */\n      swap3\n      swap2\n      pop\n      pop\n      jump\t// out\n        /* \"#utility.yul\":2911:3710   */\n    tag_9:\n        /* \"#utility.yul\":2998:3004   */\n      0x00\n        /* \"#utility.yul\":3006:3012   */\n      dup1\n        /* \"#utility.yul\":3014:3020   */\n      0x00\n        /* \"#utility.yul\":3063:3065   */\n      0x60\n        /* \"#utility.yul\":3051:3060   */\n      dup5\n        /* \"#utility.yul\":3042:3049   */\n      dup7\n        /* \"#utility.yul\":3038:3061   */\n      sub\n        /* \"#utility.yul\":3034:3066   */\n      slt\n        /* \"#utility.yul\":3031:3150   */\n      iszero\n      tag_144\n      jumpi\n        /* \"#utility.yul\":3069:3148   */\n      tag_145\n      tag_62\n      jump\t// in\n    tag_145:\n        /* \"#utility.yul\":3031:3150   */\n    tag_144:\n        /* \"#utility.yul\":3189:3190   */\n      0x00\n        /* \"#utility.yul\":3214:3267   */\n      tag_146\n        /* \"#utility.yul\":3259:3266   */\n      dup7\n        /* \"#utility.yul\":3250:3256   */\n      dup3\n        /* \"#utility.yul\":3239:3248   */\n      dup8\n        /* \"#utility.yul\":3235:3257   */\n      add\n        /* \"#utility.yul\":3214:3267   */\n      tag_66\n      jump\t// in\n    tag_146:\n        /* \"#utility.yul\":3204:3267   */\n      swap4\n      pop\n        /* \"#utility.yul\":3160:3277   */\n      pop\n        /* \"#utility.yul\":3344:3346   */\n      0x20\n        /* \"#utility.yul\":3333:3342   */\n      dup5\n        /* \"#utility.yul\":3329:3347   */\n      add\n        /* \"#utility.yul\":3316:3348   */\n      calldataload\n        /* \"#utility.yul\":3375:3393   */\n      0xffffffffffffffff\n        /* \"#utility.yul\":3367:3373   */\n      dup2\n        /* \"#utility.yul\":3364:3394   */\n      gt\n        /* \"#utility.yul\":3361:3478   */\n      iszero\n      tag_147\n      jumpi\n        /* \"#utility.yul\":3397:3476   */\n      tag_148\n      tag_63\n      jump\t// in\n    tag_148:\n        /* \"#utility.yul\":3361:3478   */\n    tag_147:\n        /* \"#utility.yul\":3502:3565   */\n      tag_149\n        /* \"#utility.yul\":3557:3564   */\n      dup7\n        /* \"#utility.yul\":3548:3554   */\n      dup3\n        /* \"#utility.yul\":3537:3546   */\n      dup8\n        /* \"#utility.yul\":3533:3555   */\n      add\n        /* \"#utility.yul\":3502:3565   */\n      tag_76\n      jump\t// in\n    tag_149:\n        /* \"#utility.yul\":3492:3565   */\n      swap3\n      pop\n        /* \"#utility.yul\":3287:3575   */\n      pop\n        /* \"#utility.yul\":3614:3616   */\n      0x40\n        /* \"#utility.yul\":3640:3693   */\n      tag_150\n        /* \"#utility.yul\":3685:3692   */\n      dup7\n        /* \"#utility.yul\":3676:3682   */\n      dup3\n        /* \"#utility.yul\":3665:3674   */\n      dup8\n        /* \"#utility.yul\":3661:3683   */\n      add\n        /* \"#utility.yul\":3640:3693   */\n      tag_66\n      jump\t// in\n    tag_150:\n        /* \"#utility.yul\":3630:3693   */\n      swap2\n      pop\n        /* \"#utility.yul\":3585:3703   */\n      pop\n        /* \"#utility.yul\":2911:3710   */\n      swap3\n      pop\n      swap3\n      pop\n      swap3\n      jump\t// out\n        /* \"#utility.yul\":3716:4045   */\n    tag_13:\n        /* \"#utility.yul\":3775:3781   */\n      0x00\n        /* \"#utility.yul\":3824:3826   */\n      0x20\n        /* \"#utility.yul\":3812:3821   */\n      dup3\n        /* \"#utility.yul\":3803:3810   */\n      dup5\n        /* \"#utility.yul\":3799:3822   */\n      sub\n        /* \"#utility.yul\":3795:3827   */\n      slt\n        /* \"#utility.yul\":3792:3911   */\n      iszero\n      tag_152\n      jumpi\n        /* \"#utility.yul\":3830:3909   */\n      tag_153\n      tag_62\n      jump\t// in\n    tag_153:\n        /* \"#utility.yul\":3792:3911   */\n    tag_152:\n        /* \"#utility.yul\":3950:3951   */\n      0x00\n        /* \"#utility.yul\":3975:4028   */\n      tag_154\n        /* \"#utility.yul\":4020:4027   */\n      dup5\n        /* \"#utility.yul\":4011:4017   */\n      dup3\n        /* \"#utility.yul\":4000:4009   */\n      dup6\n        /* \"#utility.yul\":3996:4018   */\n      add\n        /* \"#utility.yul\":3975:4028   */\n      tag_66\n      jump\t// in\n    tag_154:\n        /* \"#utility.yul\":3965:4028   */\n      swap2\n      pop\n        /* \"#utility.yul\":3921:4038   */\n      pop\n        /* \"#utility.yul\":3716:4045   */\n      swap3\n      swap2\n      pop\n      pop\n      jump\t// out\n        /* \"#utility.yul\":4051:4150   */\n    tag_77:\n        /* \"#utility.yul\":4103:4109   */\n      0x00\n        /* \"#utility.yul\":4137:4142   */\n      dup2\n        /* \"#utility.yul\":4131:4143   */\n      mload\n        /* \"#utility.yul\":4121:4143   */\n      swap1\n      pop\n        /* \"#utility.yul\":4051:4150   */\n      swap2\n      swap1\n      pop\n      jump\t// out\n        /* \"#utility.yul\":4156:4325   */\n    tag_78:\n        /* \"#utility.yul\":4240:4251   */\n      0x00\n        /* \"#utility.yul\":4274:4280   */\n      dup3\n        /* \"#utility.yul\":4269:4272   */\n      dup3\n        /* \"#utility.yul\":4262:4281   */\n      mstore\n        /* \"#utility.yul\":4314:4318   */\n      0x20\n        /* \"#utility.yul\":4309:4312   */\n      dup3\n        /* \"#utility.yul\":4305:4319   */\n      add\n        /* \"#utility.yul\":4290:4319   */\n      swap1\n      pop\n        /* \"#utility.yul\":4156:4325   */\n      swap3\n      swap2\n      pop\n      pop\n      jump\t// out\n        /* \"#utility.yul\":4331:4470   */\n    tag_79:\n        /* \"#utility.yul\":4420:4426   */\n      dup3\n        /* \"#utility.yul\":4415:4418   */\n      dup2\n        /* \"#utility.yul\":4410:4413   */\n      dup4\n        /* \"#utility.yul\":4404:4427   */\n      mcopy\n        /* \"#utility.yul\":4461:4462   */\n      0x00\n        /* \"#utility.yul\":4452:4458   */\n      dup4\n        /* \"#utility.yul\":4447:4450   */\n      dup4\n        /* \"#utility.yul\":4443:4459   */\n      add\n        /* \"#utility.yul\":4436:4463   */\n      mstore\n        /* \"#utility.yul\":4331:4470   */\n      pop\n      pop\n      pop\n      jump\t// out\n        /* \"#utility.yul\":4476:4853   */\n    tag_80:\n        /* \"#utility.yul\":4564:4567   */\n      0x00\n        /* \"#utility.yul\":4592:4631   */\n      tag_159\n        /* \"#utility.yul\":4625:4630   */\n      dup3\n        /* \"#utility.yul\":4592:4631   */\n      tag_77\n      jump\t// in\n    tag_159:\n        /* \"#utility.yul\":4647:4718   */\n      tag_160\n        /* \"#utility.yul\":4711:4717   */\n      dup2\n        /* \"#utility.yul\":4706:4709   */\n      dup6\n        /* \"#utility.yul\":4647:4718   */\n      tag_78\n      jump\t// in\n    tag_160:\n        /* \"#utility.yul\":4640:4718   */\n      swap4\n      pop\n        /* \"#utility.yul\":4727:4792   */\n      tag_161\n        /* \"#utility.yul\":4785:4791   */\n      dup2\n        /* \"#utility.yul\":4780:4783   */\n      dup6\n        /* \"#utility.yul\":4773:4777   */\n      0x20\n        /* \"#utility.yul\":4766:4771   */\n      dup7\n        /* \"#utility.yul\":4762:4778   */\n      add\n        /* \"#utility.yul\":4727:4792   */\n      tag_79\n      jump\t// in\n    tag_161:\n        /* \"#utility.yul\":4817:4846   */\n      tag_162\n        /* \"#utility.yul\":4839:4845   */\n      dup2\n        /* \"#utility.yul\":4817:4846   */\n      tag_69\n      jump\t// in\n    tag_162:\n        /* \"#utility.yul\":4812:4815   */\n      dup5\n        /* \"#utility.yul\":4808:4847   */\n      add\n        /* \"#utility.yul\":4801:4847   */\n      swap2\n      pop\n        /* \"#utility.yul\":4568:4853   */\n      pop\n        /* \"#utility.yul\":4476:4853   */\n      swap3\n      swap2\n      pop\n      pop\n      jump\t// out\n        /* \"#utility.yul\":4859:4977   */\n    tag_81:\n        /* \"#utility.yul\":4946:4970   */\n      tag_164\n        /* \"#utility.yul\":4964:4969   */\n      dup2\n        /* \"#utility.yul\":4946:4970   */\n      tag_64\n      jump\t// in\n    tag_164:\n        /* \"#utility.yul\":4941:4944   */\n      dup3\n        /* \"#utility.yul\":4934:4971   */\n      mstore\n        /* \"#utility.yul\":4859:4977   */\n      pop\n      pop\n      jump\t// out\n        /* \"#utility.yul\":4983:5406   */\n    tag_16:\n        /* \"#utility.yul\":5124:5128   */\n      0x00\n        /* \"#utility.yul\":5162:5164   */\n      0x40\n        /* \"#utility.yul\":5151:5160   */\n      dup3\n        /* \"#utility.yul\":5147:5165   */\n      add\n        /* \"#utility.yul\":5139:5165   */\n      swap1\n      pop\n        /* \"#utility.yul\":5211:5220   */\n      dup2\n        /* \"#utility.yul\":5205:5209   */\n      dup2\n        /* \"#utility.yul\":5201:5221   */\n      sub\n        /* \"#utility.yul\":5197:5198   */\n      0x00\n        /* \"#utility.yul\":5186:5195   */\n      dup4\n        /* \"#utility.yul\":5182:5199   */\n      add\n        /* \"#utility.yul\":5175:5222   */\n      mstore\n        /* \"#utility.yul\":5239:5317   */\n      tag_166\n        /* \"#utility.yul\":5312:5316   */\n      dup2\n        /* \"#utility.yul\":5303:5309   */\n      dup6\n        /* \"#utility.yul\":5239:5317   */\n      tag_80\n      jump\t// in\n    tag_166:\n        /* \"#utility.yul\":5231:5317   */\n      swap1\n      pop\n        /* \"#utility.yul\":5327:5399   */\n      tag_167\n        /* \"#utility.yul\":5395:5397   */\n      0x20\n        /* \"#utility.yul\":5384:5393   */\n      dup4\n        /* \"#utility.yul\":5380:5398   */\n      add\n        /* \"#utility.yul\":5371:5377   */\n      dup5\n        /* \"#utility.yul\":5327:5399   */\n      tag_81\n      jump\t// in\n    tag_167:\n        /* \"#utility.yul\":4983:5406   */\n      swap4\n      swap3\n      pop\n      pop\n      pop\n      jump\t// out\n        /* \"#utility.yul\":5412:5633   */\n    tag_82:\n        /* \"#utility.yul\":5552:5586   */\n      0x4f6e6c79206f776e65722063616e20757064617465207468652070726f706572\n        /* \"#utility.yul\":5548:5549   */\n      0x00\n        /* \"#utility.yul\":5540:5546   */\n      dup3\n        /* \"#utility.yul\":5536:5550   */\n      add\n        /* \"#utility.yul\":5529:5587   */\n      mstore\n        /* \"#utility.yul\":5621:5625   */\n      0x7479000000000000000000000000000000000000000000000000000000000000\n        /* \"#utility.yul\":5616:5618   */\n      0x20\n        /* \"#utility.yul\":5608:5614   */\n      dup3\n        /* \"#utility.yul\":5604:5619   */\n      add\n        /* \"#utility.yul\":5597:5626   */\n      mstore\n        /* \"#utility.yul\":5412:5633   */\n      pop\n      jump\t// out\n        /* \"#utility.yul\":5639:6005   */\n    tag_83:\n        /* \"#utility.yul\":5781:5784   */\n      0x00\n        /* \"#utility.yul\":5802:5869   */\n      tag_170\n        /* \"#utility.yul\":5866:5868   */\n      0x22\n        /* \"#utility.yul\":5861:5864   */\n      dup4\n        /* \"#utility.yul\":5802:5869   */\n      tag_78\n      jump\t// in\n    tag_170:\n        /* \"#utility.yul\":5795:5869   */\n      swap2\n      pop\n        /* \"#utility.yul\":5878:5971   */\n      tag_171\n        /* \"#utility.yul\":5967:5970   */\n      dup3\n        /* \"#utility.yul\":5878:5971   */\n      tag_82\n      jump\t// in\n    tag_171:\n        /* \"#utility.yul\":5996:5998   */\n      0x40\n        /* \"#utility.yul\":5991:5994   */\n      dup3\n        /* \"#utility.yul\":5987:5999   */\n      add\n        /* \"#utility.yul\":5980:5999   */\n      swap1\n      pop\n        /* \"#utility.yul\":5639:6005   */\n      swap2\n      swap1\n      pop\n      jump\t// out\n        /* \"#utility.yul\":6011:6430   */\n    tag_26:\n        /* \"#utility.yul\":6177:6181   */\n      0x00\n        /* \"#utility.yul\":6215:6217   */\n      0x20\n        /* \"#utility.yul\":6204:6213   */\n      dup3\n        /* \"#utility.yul\":6200:6218   */\n      add\n        /* \"#utility.yul\":6192:6218   */\n      swap1\n      pop\n        /* \"#utility.yul\":6264:6273   */\n      dup2\n        /* \"#utility.yul\":6258:6262   */\n      dup2\n        /* \"#utility.yul\":6254:6274   */\n      sub\n        /* \"#utility.yul\":6250:6251   */\n      0x00\n        /* \"#utility.yul\":6239:6248   */\n      dup4\n        /* \"#utility.yul\":6235:6252   */\n      add\n        /* \"#utility.yul\":6228:6275   */\n      mstore\n        /* \"#utility.yul\":6292:6423   */\n      tag_173\n        /* \"#utility.yul\":6418:6422   */\n      dup2\n        /* \"#utility.yul\":6292:6423   */\n      tag_83\n      jump\t// in\n    tag_173:\n        /* \"#utility.yul\":6284:6423   */\n      swap1\n      pop\n        /* \"#utility.yul\":6011:6430   */\n      swap2\n      swap1\n      pop\n      jump\t// out\n        /* \"#utility.yul\":6436:6616   */\n    tag_84:\n        /* \"#utility.yul\":6484:6561   */\n      0x4e487b7100000000000000000000000000000000000000000000000000000000\n        /* \"#utility.yul\":6481:6482   */\n      0x00\n        /* \"#utility.yul\":6474:6562   */\n      mstore\n        /* \"#utility.yul\":6581:6585   */\n      0x22\n        /* \"#utility.yul\":6578:6579   */\n      0x04\n        /* \"#utility.yul\":6571:6586   */\n      mstore\n        /* \"#utility.yul\":6605:6609   */\n      0x24\n        /* \"#utility.yul\":6602:6603   */\n      0x00\n        /* \"#utility.yul\":6595:6610   */\n      revert\n        /* \"#utility.yul\":6622:6942   */\n    tag_33:\n        /* \"#utility.yul\":6666:6672   */\n      0x00\n        /* \"#utility.yul\":6703:6704   */\n      0x02\n        /* \"#utility.yul\":6697:6701   */\n      dup3\n        /* \"#utility.yul\":6693:6705   */\n      div\n        /* \"#utility.yul\":6683:6705   */\n      swap1\n      pop\n        /* \"#utility.yul\":6750:6751   */\n      0x01\n        /* \"#utility.yul\":6744:6748   */\n      dup3\n        /* \"#utility.yul\":6740:6752   */\n      and\n        /* \"#utility.yul\":6771:6789   */\n      dup1\n        /* \"#utility.yul\":6761:6842   */\n      tag_176\n      jumpi\n        /* \"#utility.yul\":6827:6831   */\n      0x7f\n        /* \"#utility.yul\":6819:6825   */\n      dup3\n        /* \"#utility.yul\":6815:6832   */\n      and\n        /* \"#utility.yul\":6805:6832   */\n      swap2\n      pop\n        /* \"#utility.yul\":6761:6842   */\n    tag_176:\n        /* \"#utility.yul\":6889:6891   */\n      0x20\n        /* \"#utility.yul\":6881:6887   */\n      dup3\n        /* \"#utility.yul\":6878:6892   */\n      lt\n        /* \"#utility.yul\":6858:6876   */\n      dup2\n        /* \"#utility.yul\":6855:6893   */\n      sub\n        /* \"#utility.yul\":6852:6936   */\n      tag_177\n      jumpi\n        /* \"#utility.yul\":6908:6926   */\n      tag_178\n      tag_84\n      jump\t// in\n    tag_178:\n        /* \"#utility.yul\":6852:6936   */\n    tag_177:\n        /* \"#utility.yul\":6673:6942   */\n      pop\n        /* \"#utility.yul\":6622:6942   */\n      swap2\n      swap1\n      pop\n      jump\t// out\n        /* \"#utility.yul\":6948:7089   */\n    tag_85:\n        /* \"#utility.yul\":6997:7001   */\n      0x00\n        /* \"#utility.yul\":7020:7023   */\n      dup2\n        /* \"#utility.yul\":7012:7023   */\n      swap1\n      pop\n        /* \"#utility.yul\":7043:7046   */\n      dup2\n        /* \"#utility.yul\":7040:7041   */\n      0x00\n        /* \"#utility.yul\":7033:7047   */\n      mstore\n        /* \"#utility.yul\":7077:7081   */\n      0x20\n        /* \"#utility.yul\":7074:7075   */\n      0x00\n        /* \"#utility.yul\":7064:7082   */\n      keccak256\n        /* \"#utility.yul\":7056:7082   */\n      swap1\n      pop\n        /* \"#utility.yul\":6948:7089   */\n      swap2\n      swap1\n      pop\n      jump\t// out\n        /* \"#utility.yul\":7095:7188   */\n    tag_86:\n        /* \"#utility.yul\":7132:7138   */\n      0x00\n        /* \"#utility.yul\":7179:7181   */\n      0x20\n        /* \"#utility.yul\":7174:7176   */\n      0x1f\n        /* \"#utility.yul\":7167:7172   */\n      dup4\n        /* \"#utility.yul\":7163:7177   */\n      add\n        /* \"#utility.yul\":7159:7182   */\n      div\n        /* \"#utility.yul\":7149:7182   */\n      swap1\n      pop\n        /* \"#utility.yul\":7095:7188   */\n      swap2\n      swap1\n      pop\n      jump\t// out\n        /* \"#utility.yul\":7194:7301   */\n    tag_87:\n        /* \"#utility.yul\":7238:7246   */\n      0x00\n        /* \"#utility.yul\":7288:7293   */\n      dup3\n        /* \"#utility.yul\":7282:7286   */\n      dup3\n        /* \"#utility.yul\":7278:7294   */\n      shl\n        /* \"#utility.yul\":7257:7294   */\n      swap1\n      pop\n        /* \"#utility.yul\":7194:7301   */\n      swap3\n      swap2\n      pop\n      pop\n      jump\t// out\n        /* \"#utility.yul\":7307:7700   */\n    tag_88:\n        /* \"#utility.yul\":7376:7382   */\n      0x00\n        /* \"#utility.yul\":7426:7427   */\n      0x08\n        /* \"#utility.yul\":7414:7424   */\n      dup4\n        /* \"#utility.yul\":7410:7428   */\n      mul\n        /* \"#utility.yul\":7449:7546   */\n      tag_183\n        /* \"#utility.yul\":7479:7545   */\n      0xffffffffffffffffffffffffffffffffffffffffffffffffffffffffffffffff\n        /* \"#utility.yul\":7468:7477   */\n      dup3\n        /* \"#utility.yul\":7449:7546   */\n      tag_87\n      jump\t// in\n    tag_183:\n        /* \"#utility.yul\":7567:7606   */\n      tag_184\n        /* \"#utility.yul\":7597:7605   */\n      dup7\n        /* \"#utility.yul\":7586:7595   */\n      dup4\n        /* \"#utility.yul\":7567:7606   */\n      tag_87\n      jump\t// in\n    tag_184:\n        /* \"#utility.yul\":7555:7606   */\n      swap6\n      pop\n        /* \"#utility.yul\":7639:7643   */\n      dup1\n        /* \"#utility.yul\":7635:7644   */\n      not\n        /* \"#utility.yul\":7628:7633   */\n      dup5\n        /* \"#utility.yul\":7624:7645   */\n      and\n        /* \"#utility.yul\":7615:7645   */\n      swap4\n      pop\n        /* \"#utility.yul\":7688:7692   */\n      dup1\n        /* \"#utility.yul\":7678:7686   */\n      dup7\n        /* \"#utility.yul\":7674:7693   */\n      and\n        /* \"#utility.yul\":7667:7672   */\n      dup5\n        /* \"#utility.yul\":7664:7694   */\n      or\n        /* \"#utility.yul\":7654:7694   */\n      swap3\n      pop\n        /* \"#utility.yul\":7383:7700   */\n      pop\n      pop\n        /* \"#utility.yul\":7307:7700   */\n      swap4\n      swap3\n      pop\n      pop\n      pop\n      jump\t// out\n        /* \"#utility.yul\":7706:7766   */\n    tag_89:\n        /* \"#utility.yul\":7734:7737   */\n      0x00\n        /* \"#utility.yul\":7755:7760   */\n      dup2\n        /* \"#utility.yul\":7748:7760   */\n      swap1\n      pop\n        /* \"#utility.yul\":7706:7766   */\n      swap2\n      swap1\n      pop\n      jump\t// out\n        /* \"#utility.yul\":7772:7914   */\n    tag_90:\n        /* \"#utility.yul\":7822:7831   */\n      0x00\n        /* \"#utility.yul\":7855:7908   */\n      tag_187\n        /* \"#utility.yul\":7873:7907   */\n      tag_188\n        /* \"#utility.yul\":7882:7906   */\n      tag_189\n        /* \"#utility.yul\":7900:7905   */\n      dup5\n        /* \"#utility.yul\":7882:7906   */\n      tag_64\n      jump\t// in\n    tag_189:\n        /* \"#utility.yul\":7873:7907   */\n      tag_89\n      jump\t// in\n    tag_188:\n        /* \"#utility.yul\":7855:7908   */\n      tag_64\n      jump\t// in\n    tag_187:\n        /* \"#utility.yul\":7842:7908   */\n      swap1\n      pop\n        /* \"#utility.yul\":7772:7914   */\n      swap2\n      swap1\n      pop\n      jump\t// out\n        /* \"#utility.yul\":7920:7995   */\n    tag_91:\n        /* \"#utility.yul\":7963:7966   */\n      0x00\n        /* \"#utility.yul\":7984:7989   */\n      dup2\n        /* \"#utility.yul\":7977:7989   */\n      swap1\n      pop\n        /* \"#utility.yul\":7920:7995   */\n      swap2\n      swap1\n      pop\n      jump\t// out\n        /* \"#utility.yul\":8001:8270   */\n    tag_92:\n        /* \"#utility.yul\":8111:8150   */\n      tag_192\n        /* \"#utility.yul\":8142:8149   */\n      dup4\n        /* \"#utility.yul\":8111:8150   */\n      tag_90\n      jump\t// in\n    tag_192:\n        /* \"#utility.yul\":8172:8263   */\n      tag_193\n        /* \"#utility.yul\":8221:8262   */\n      tag_194\n        /* \"#utility.yul\":8245:8261   */\n      dup3\n        /* \"#utility.yul\":8221:8262   */\n      tag_91\n      jump\t// in\n    tag_194:\n        /* \"#utility.yul\":8213:8219   */\n      dup5\n        /* \"#utility.yul\":8206:8210   */\n      dup5\n        /* \"#utility.yul\":8200:8211   */\n      sload\n        /* \"#utility.yul\":8172:8263   */\n      tag_88\n      jump\t// in\n    tag_193:\n        /* \"#utility.yul\":8166:8170   */\n      dup3\n        /* \"#utility.yul\":8159:8264   */\n      sstore\n        /* \"#utility.yul\":8077:8270   */\n      pop\n        /* \"#utility.yul\":8001:8270   */\n      pop\n      pop\n      pop\n      jump\t// out\n        /* \"#utility.yul\":8276:8349   */\n    tag_93:\n        /* \"#utility.yul\":8321:8324   */\n      0x00\n        /* \"#utility.yul\":8276:8349   */\n      swap1\n      jump\t// out\n        /* \"#utility.yul\":8355:8544   */\n    tag_94:\n        /* \"#utility.yul\":8432:8464   */\n      tag_197\n      tag_93\n      jump\t// in\n    tag_197:\n        /* \"#utility.yul\":8473:8538   */\n      tag_198\n        /* \"#utility.yul\":8531:8537   */\n      dup2\n        /* \"#utility.yul\":8523:8529   */\n      dup5\n        /* \"#utility.yul\":8517:8521   */\n      dup5\n        /* \"#utility.yul\":8473:8538   */\n      tag_92\n      jump\t// in\n    tag_198:\n        /* \"#utility.yul\":8408:8544   */\n      pop\n        /* \"#utility.yul\":8355:8544   */\n      pop\n      pop\n      jump\t// out\n        /* \"#utility.yul\":8550:8736   */\n    tag_95:\n        /* \"#utility.yul\":8610:8730   */\n    tag_200:\n        /* \"#utility.yul\":8627:8630   */\n      dup2\n        /* \"#utility.yul\":8620:8625   */\n      dup2\n        /* \"#utility.yul\":8617:8631   */\n      lt\n        /* \"#utility.yul\":8610:8730   */\n      iszero\n      tag_202\n      jumpi\n        /* \"#utility.yul\":8681:8720   */\n      tag_203\n        /* \"#utility.yul\":8718:8719   */\n      0x00\n        /* \"#utility.yul\":8711:8716   */\n      dup3\n        /* \"#utility.yul\":8681:8720   */\n      tag_94\n      jump\t// in\n    tag_203:\n        /* \"#utility.yul\":8654:8655   */\n      0x01\n        /* \"#utility.yul\":8647:8652   */\n      dup2\n        /* \"#utility.yul\":8643:8656   */\n      add\n        /* \"#utility.yul\":8634:8656   */\n      swap1\n      pop\n        /* \"#utility.yul\":8610:8730   */\n      jump(tag_200)\n    tag_202:\n        /* \"#utility.yul\":8550:8736   */\n      pop\n      pop\n      jump\t// out\n        /* \"#utility.yul\":8742:9285   */\n    tag_96:\n        /* \"#utility.yul\":8843:8845   */\n      0x1f\n        /* \"#utility.yul\":8838:8841   */\n      dup3\n        /* \"#utility.yul\":8835:8846   */\n      gt\n        /* \"#utility.yul\":8832:9278   */\n      iszero\n      tag_205\n      jumpi\n        /* \"#utility.yul\":8877:8915   */\n      tag_206\n        /* \"#utility.yul\":8909:8914   */\n      dup2\n        /* \"#utility.yul\":8877:8915   */\n      tag_85\n      jump\t// in\n    tag_206:\n        /* \"#utility.yul\":8961:8990   */\n      tag_207\n        /* \"#utility.yul\":8979:8989   */\n      dup5\n        /* \"#utility.yul\":8961:8990   */\n      tag_86\n      jump\t// in\n    tag_207:\n        /* \"#utility.yul\":8951:8959   */\n      dup2\n        /* \"#utility.yul\":8947:8991   */\n      add\n        /* \"#utility.yul\":9144:9146   */\n      0x20\n        /* \"#utility.yul\":9132:9142   */\n      dup6\n        /* \"#utility.yul\":9129:9147   */\n      lt\n        /* \"#utility.yul\":9126:9175   */\n      iszero\n      tag_208\n      jumpi\n        /* \"#utility.yul\":9165:9173   */\n      dup2\n        /* \"#utility.yul\":9150:9173   */\n      swap1\n      pop\n        /* \"#utility.yul\":9126:9175   */\n    tag_208:\n        /* \"#utility.yul\":9188:9268   */\n      tag_209\n        /* \"#utility.yul\":9244:9266   */\n      tag_210\n        /* \"#utility.yul\":9262:9265   */\n      dup6\n        /* \"#utility.yul\":9244:9266   */\n      tag_86\n      jump\t// in\n    tag_210:\n        /* \"#utility.yul\":9234:9242   */\n      dup4\n        /* \"#utility.yul\":9230:9267   */\n      add\n        /* \"#utility.yul\":9217:9228   */\n      dup3\n        /* \"#utility.yul\":9188:9268   */\n      tag_95\n      jump\t// in\n    tag_209:\n        /* \"#utility.yul\":8847:9278   */\n      pop\n      pop\n        /* \"#utility.yul\":8832:9278   */\n    tag_205:\n        /* \"#utility.yul\":8742:9285   */\n      pop\n      pop\n      pop\n      jump\t// out\n        /* \"#utility.yul\":9291:9408   */\n    tag_97:\n        /* \"#utility.yul\":9345:9353   */\n      0x00\n        /* \"#utility.yul\":9395:9400   */\n      dup3\n        /* \"#utility.yul\":9389:9393   */\n      dup3\n        /* \"#utility.yul\":9385:9401   */\n      shr\n        /* \"#utility.yul\":9364:9401   */\n      swap1\n      pop\n        /* \"#utility.yul\":9291:9408   */\n      swap3\n      swap2\n      pop\n      pop\n      jump\t// out\n        /* \"#utility.yul\":9414:9583   */\n    tag_98:\n        /* \"#utility.yul\":9458:9464   */\n      0x00\n        /* \"#utility.yul\":9491:9542   */\n      tag_213\n        /* \"#utility.yul\":9539:9540   */\n      0x00\n        /* \"#utility.yul\":9535:9541   */\n      not\n        /* \"#utility.yul\":9527:9532   */\n      dup5\n        /* \"#utility.yul\":9524:9525   */\n      0x08\n        /* \"#utility.yul\":9520:9533   */\n      mul\n        /* \"#utility.yul\":9491:9542   */\n      tag_97\n      jump\t// in\n    tag_213:\n        /* \"#utility.yul\":9487:9543   */\n      not\n        /* \"#utility.yul\":9572:9576   */\n      dup1\n        /* \"#utility.yul\":9566:9570   */\n      dup4\n        /* \"#utility.yul\":9562:9577   */\n      and\n        /* \"#utility.yul\":9552:9577   */\n      swap2\n      pop\n        /* \"#utility.yul\":9465:9583   */\n      pop\n        /* \"#utility.yul\":9414:9583   */\n      swap3\n      swap2\n      pop\n      pop\n      jump\t// out\n        /* \"#utility.yul\":9588:9883   */\n    tag_99:\n        /* \"#utility.yul\":9664:9668   */\n      0x00\n        /* \"#utility.yul\":9810:9839   */\n      tag_215\n        /* \"#utility.yul\":9835:9838   */\n      dup4\n        /* \"#utility.yul\":9829:9833   */\n      dup4\n        /* \"#utility.yul\":9810:9839   */\n      tag_98\n      jump\t// in\n    tag_215:\n        /* \"#utility.yul\":9802:9839   */\n      swap2\n      pop\n        /* \"#utility.yul\":9872:9875   */\n      dup3\n        /* \"#utility.yul\":9869:9870   */\n      0x02\n        /* \"#utility.yul\":9865:9876   */\n      mul\n        /* \"#utility.yul\":9859:9863   */\n      dup3\n        /* \"#utility.yul\":9856:9877   */\n      or\n        /* \"#utility.yul\":9848:9877   */\n      swap1\n      pop\n        /* \"#utility.yul\":9588:9883   */\n      swap3\n      swap2\n      pop\n      pop\n      jump\t// out\n        /* \"#utility.yul\":9888:11283   */\n    tag_28:\n        /* \"#utility.yul\":10005:10042   */\n      tag_217\n        /* \"#utility.yul\":10038:10041   */\n      dup3\n        /* \"#utility.yul\":10005:10042   */\n      tag_77\n      jump\t// in\n    tag_217:\n        /* \"#utility.yul\":10107:10125   */\n      0xffffffffffffffff\n        /* \"#utility.yul\":10099:10105   */\n      dup2\n        /* \"#utility.yul\":10096:10126   */\n      gt\n        /* \"#utility.yul\":10093:10149   */\n      iszero\n      tag_218\n      jumpi\n        /* \"#utility.yul\":10129:10147   */\n      tag_219\n      tag_70\n      jump\t// in\n    tag_219:\n        /* \"#utility.yul\":10093:10149   */\n    tag_218:\n        /* \"#utility.yul\":10173:10211   */\n      tag_220\n        /* \"#utility.yul\":10205:10209   */\n      dup3\n        /* \"#utility.yul\":10199:10210   */\n      sload\n        /* \"#utility.yul\":10173:10211   */\n      tag_33\n      jump\t// in\n    tag_220:\n        /* \"#utility.yul\":10258:10325   */\n      tag_221\n        /* \"#utility.yul\":10318:10324   */\n      dup3\n        /* \"#utility.yul\":10310:10316   */\n      dup3\n        /* \"#utility.yul\":10304:10308   */\n      dup6\n        /* \"#utility.yul\":10258:10325   */\n      tag_96\n      jump\t// in\n    tag_221:\n        /* \"#utility.yul\":10352:10353   */\n      0x00\n        /* \"#utility.yul\":10376:10380   */\n      0x20\n        /* \"#utility.yul\":10363:10380   */\n      swap1\n      pop\n        /* \"#utility.yul\":10408:10410   */\n      0x1f\n        /* \"#utility.yul\":10400:10406   */\n      dup4\n        /* \"#utility.yul\":10397:10411   */\n      gt\n        /* \"#utility.yul\":10425:10426   */\n      0x01\n        /* \"#utility.yul\":10420:11038   */\n      dup2\n      eq\n      tag_223\n      jumpi\n        /* \"#utility.yul\":11082:11083   */\n      0x00\n        /* \"#utility.yul\":11099:11105   */\n      dup5\n        /* \"#utility.yul\":11096:11173   */\n      iszero\n      tag_224\n      jumpi\n        /* \"#utility.yul\":11148:11157   */\n      dup3\n        /* \"#utility.yul\":11143:11146   */\n      dup8\n        /* \"#utility.yul\":11139:11158   */\n      add\n        /* \"#utility.yul\":11133:11159   */\n      mload\n        /* \"#utility.yul\":11124:11159   */\n      swap1\n      pop\n        /* \"#utility.yul\":11096:11173   */\n    tag_224:\n        /* \"#utility.yul\":11199:11266   */\n      tag_225\n        /* \"#utility.yul\":11259:11265   */\n      dup6\n        /* \"#utility.yul\":11252:11257   */\n      dup3\n        /* \"#utility.yul\":11199:11266   */\n      tag_99\n      jump\t// in\n    tag_225:\n        /* \"#utility.yul\":11193:11197   */\n      dup7\n        /* \"#utility.yul\":11186:11267   */\n      sstore\n        /* \"#utility.yul\":11055:11277   */\n      pop\n        /* \"#utility.yul\":10390:11277   */\n      jump(tag_222)\n        /* \"#utility.yul\":10420:11038   */\n    tag_223:\n        /* \"#utility.yul\":10472:10476   */\n      0x1f\n        /* \"#utility.yul\":10468:10477   */\n      not\n        /* \"#utility.yul\":10460:10466   */\n      dup5\n        /* \"#utility.yul\":10456:10478   */\n      and\n        /* \"#utility.yul\":10506:10543   */\n      tag_226\n        /* \"#utility.yul\":10538:10542   */\n      dup7\n        /* \"#utility.yul\":10506:10543   */\n      tag_85\n      jump\t// in\n    tag_226:\n        /* \"#utility.yul\":10565:10566   */\n      0x00\n        /* \"#utility.yul\":10579:10787   */\n    tag_227:\n        /* \"#utility.yul\":10593:10600   */\n      dup3\n        /* \"#utility.yul\":10590:10591   */\n      dup2\n        /* \"#utility.yul\":10587:10601   */\n      lt\n        /* \"#utility.yul\":10579:10787   */\n      iszero\n      tag_229\n      jumpi\n        /* \"#utility.yul\":10672:10681   */\n      dup5\n        /* \"#utility.yul\":10667:10670   */\n      dup10\n        /* \"#utility.yul\":10663:10682   */\n      add\n        /* \"#utility.yul\":10657:10683   */\n      mload\n        /* \"#utility.yul\":10649:10655   */\n      dup3\n        /* \"#utility.yul\":10642:10684   */\n      sstore\n        /* \"#utility.yul\":10723:10724   */\n      0x01\n        /* \"#utility.yul\":10715:10721   */\n      dup3\n        /* \"#utility.yul\":10711:10725   */\n      add\n        /* \"#utility.yul\":10701:10725   */\n      swap2\n      pop\n        /* \"#utility.yul\":10770:10772   */\n      0x20\n        /* \"#utility.yul\":10759:10768   */\n      dup6\n        /* \"#utility.yul\":10755:10773   */\n      add\n        /* \"#utility.yul\":10742:10773   */\n      swap5\n      pop\n        /* \"#utility.yul\":10616:10620   */\n      0x20\n        /* \"#utility.yul\":10613:10614   */\n      dup2\n        /* \"#utility.yul\":10609:10621   */\n      add\n        /* \"#utility.yul\":10604:10621   */\n      swap1\n      pop\n        /* \"#utility.yul\":10579:10787   */\n      jump(tag_227)\n    tag_229:\n        /* \"#utility.yul\":10815:10821   */\n      dup7\n        /* \"#utility.yul\":10806:10813   */\n      dup4\n        /* \"#utility.yul\":10803:10822   */\n      lt\n        /* \"#utility.yul\":10800:10979   */\n      iszero\n      tag_230\n      jumpi\n        /* \"#utility.yul\":10873:10882   */\n      dup5\n        /* \"#utility.yul\":10868:10871   */\n      dup10\n        /* \"#utility.yul\":10864:10883   */\n      add\n        /* \"#utility.yul\":10858:10884   */\n      mload\n        /* \"#utility.yul\":10916:10964   */\n      tag_231\n        /* \"#utility.yul\":10958:10962   */\n      0x1f\n        /* \"#utility.yul\":10950:10956   */\n      dup10\n        /* \"#utility.yul\":10946:10963   */\n      and\n        /* \"#utility.yul\":10935:10944   */\n      dup3\n        /* \"#utility.yul\":10916:10964   */\n      tag_98\n      jump\t// in\n    tag_231:\n        /* \"#utility.yul\":10908:10914   */\n      dup4\n        /* \"#utility.yul\":10901:10965   */\n      sstore\n        /* \"#utility.yul\":10823:10979   */\n      pop\n        /* \"#utility.yul\":10800:10979   */\n    tag_230:\n        /* \"#utility.yul\":11025:11026   */\n      0x01\n        /* \"#utility.yul\":11021:11022   */\n      0x02\n        /* \"#utility.yul\":11013:11019   */\n      dup9\n        /* \"#utility.yul\":11009:11023   */\n      mul\n        /* \"#utility.yul\":11005:11027   */\n      add\n        /* \"#utility.yul\":10999:11003   */\n      dup9\n        /* \"#utility.yul\":10992:11028   */\n      sstore\n        /* \"#utility.yul\":10427:11038   */\n      pop\n      pop\n      pop\n        /* \"#utility.yul\":10390:11277   */\n    tag_222:\n      pop\n        /* \"#utility.yul\":9980:11283   */\n      pop\n      pop\n      pop\n        /* \"#utility.yul\":9888:11283   */\n      pop\n      pop\n      jump\t// out\n        /* \"#utility.yul\":11289:11822   */\n    tag_30:\n        /* \"#utility.yul\":11458:11462   */\n      0x00\n        /* \"#utility.yul\":11496:11498   */\n      0x60\n        /* \"#utility.yul\":11485:11494   */\n      dup3\n        /* \"#utility.yul\":11481:11499   */\n      add\n        /* \"#utility.yul\":11473:11499   */\n      swap1\n      pop\n        /* \"#utility.yul\":11509:11580   */\n      tag_233\n        /* \"#utility.yul\":11577:11578   */\n      0x00\n        /* \"#utility.yul\":11566:11575   */\n      dup4\n        /* \"#utility.yul\":11562:11579   */\n      add\n        /* \"#utility.yul\":11553:11559   */\n      dup7\n        /* \"#utility.yul\":11509:11580   */\n      tag_81\n      jump\t// in\n    tag_233:\n        /* \"#utility.yul\":11627:11636   */\n      dup2\n        /* \"#utility.yul\":11621:11625   */\n      dup2\n        /* \"#utility.yul\":11617:11637   */\n      sub\n        /* \"#utility.yul\":11612:11614   */\n      0x20\n        /* \"#utility.yul\":11601:11610   */\n      dup4\n        /* \"#utility.yul\":11597:11615   */\n      add\n        /* \"#utility.yul\":11590:11638   */\n      mstore\n        /* \"#utility.yul\":11655:11733   */\n      tag_234\n        /* \"#utility.yul\":11728:11732   */\n      dup2\n        /* \"#utility.yul\":11719:11725   */\n      dup6\n        /* \"#utility.yul\":11655:11733   */\n      tag_80\n      jump\t// in\n    tag_234:\n        /* \"#utility.yul\":11647:11733   */\n      swap1\n      pop\n        /* \"#utility.yul\":11743:11815   */\n      tag_235\n        /* \"#utility.yul\":11811:11813   */\n      0x40\n        /* \"#utility.yul\":11800:11809   */\n      dup4\n        /* \"#utility.yul\":11796:11814   */\n      add\n        /* \"#utility.yul\":11787:11793   */\n      dup5\n        /* \"#utility.yul\":11743:11815   */\n      tag_81\n      jump\t// in\n    tag_235:\n        /* \"#utility.yul\":11289:11822   */\n      swap5\n      swap4\n      pop\n      pop\n      pop\n      pop\n      jump\t// out\n        /* \"#utility.yul\":11828:12049   */\n    tag_100:\n        /* \"#utility.yul\":11968:12002   */\n      0x4f6e6c79206f776e65722063616e2072656d6f7665207468652070726f706572\n        /* \"#utility.yul\":11964:11965   */\n      0x00\n        /* \"#utility.yul\":11956:11962   */\n      dup3\n        /* \"#utility.yul\":11952:11966   */\n      add\n        /* \"#utility.yul\":11945:12003   */\n      mstore\n        /* \"#utility.yul\":12037:12041   */\n      0x7479000000000000000000000000000000000000000000000000000000000000\n        /* \"#utility.yul\":12032:12034   */\n      0x20\n        /* \"#utility.yul\":12024:12030   */\n      dup3\n        /* \"#utility.yul\":12020:12035   */\n      add\n        /* \"#utility.yul\":12013:12042   */\n      mstore\n        /* \"#utility.yul\":11828:12049   */\n      pop\n      jump\t// out\n        /* \"#utility.yul\":12055:12421   */\n    tag_101:\n        /* \"#utility.yul\":12197:12200   */\n      0x00\n        /* \"#utility.yul\":12218:12285   */\n      tag_238\n        /* \"#utility.yul\":12282:12284   */\n      0x22\n        /* \"#utility.yul\":12277:12280   */\n      dup4\n        /* \"#utility.yul\":12218:12285   */\n      tag_78\n      jump\t// in\n    tag_238:\n        /* \"#utility.yul\":12211:12285   */\n      swap2\n      pop\n        /* \"#utility.yul\":12294:12387   */\n      tag_239\n        /* \"#utility.yul\":12383:12386   */\n      dup3\n        /* \"#utility.yul\":12294:12387   */\n      tag_100\n      jump\t// in\n    tag_239:\n        /* \"#utility.yul\":12412:12414   */\n      0x40\n        /* \"#utility.yul\":12407:12410   */\n      dup3\n        /* \"#utility.yul\":12403:12415   */\n      add\n        /* \"#utility.yul\":12396:12415   */\n      swap1\n      pop\n        /* \"#utility.yul\":12055:12421   */\n      swap2\n      swap1\n      pop\n      jump\t// out\n        /* \"#utility.yul\":12427:12846   */\n    tag_41:\n        /* \"#utility.yul\":12593:12597   */\n      0x00\n        /* \"#utility.yul\":12631:12633   */\n      0x20\n        /* \"#utility.yul\":12620:12629   */\n      dup3\n        /* \"#utility.yul\":12616:12634   */\n      add\n        /* \"#utility.yul\":12608:12634   */\n      swap1\n      pop\n        /* \"#utility.yul\":12680:12689   */\n      dup2\n        /* \"#utility.yul\":12674:12678   */\n      dup2\n        /* \"#utility.yul\":12670:12690   */\n      sub\n        /* \"#utility.yul\":12666:12667   */\n      0x00\n        /* \"#utility.yul\":12655:12664   */\n      dup4\n        /* \"#utility.yul\":12651:12668   */\n      add\n        /* \"#utility.yul\":12644:12691   */\n      mstore\n        /* \"#utility.yul\":12708:12839   */\n      tag_241\n        /* \"#utility.yul\":12834:12838   */\n      dup2\n        /* \"#utility.yul\":12708:12839   */\n      tag_101\n      jump\t// in\n    tag_241:\n        /* \"#utility.yul\":12700:12839   */\n      swap1\n      pop\n        /* \"#utility.yul\":12427:12846   */\n      swap2\n      swap1\n      pop\n      jump\t// out\n        /* \"#utility.yul\":12852:13074   */\n    tag_45:\n        /* \"#utility.yul\":12945:12949   */\n      0x00\n        /* \"#utility.yul\":12983:12985   */\n      0x20\n        /* \"#utility.yul\":12972:12981   */\n      dup3\n        /* \"#utility.yul\":12968:12986   */\n      add\n        /* \"#utility.yul\":12960:12986   */\n      swap1\n      pop\n        /* \"#utility.yul\":12996:13067   */\n      tag_243\n        /* \"#utility.yul\":13064:13065   */\n      0x00\n        /* \"#utility.yul\":13053:13062   */\n      dup4\n        /* \"#utility.yul\":13049:13066   */\n      add\n        /* \"#utility.yul\":13040:13046   */\n      dup5\n        /* \"#utility.yul\":12996:13067   */\n      tag_81\n      jump\t// in\n    tag_243:\n        /* \"#utility.yul\":12852:13074   */\n      swap3\n      swap2\n      pop\n      pop\n      jump\t// out\n        /* \"#utility.yul\":13080:13253   */\n    tag_102:\n        /* \"#utility.yul\":13220:13245   */\n      0x50726f706572747920616c726561647920657869737473000000000000000000\n        /* \"#utility.yul\":13216:13217   */\n      0x00\n        /* \"#utility.yul\":13208:13214   */\n      dup3\n        /* \"#utility.yul\":13204:13218   */\n      add\n        /* \"#utility.yul\":13197:13246   */\n      mstore\n        /* \"#utility.yul\":13080:13253   */\n      pop\n      jump\t// out\n        /* \"#utility.yul\":13259:13625   */\n    tag_103:\n        /* \"#utility.yul\":13401:13404   */\n      0x00\n        /* \"#utility.yul\":13422:13489   */\n      tag_246\n        /* \"#utility.yul\":13486:13488   */\n      0x17\n        /* \"#utility.yul\":13481:13484   */\n      dup4\n        /* \"#utility.yul\":13422:13489   */\n      tag_78\n      jump\t// in\n    tag_246:\n        /* \"#utility.yul\":13415:13489   */\n      swap2\n      pop\n        /* \"#utility.yul\":13498:13591   */\n      tag_247\n        /* \"#utility.yul\":13587:13590   */\n      dup3\n        /* \"#utility.yul\":13498:13591   */\n      tag_102\n      jump\t// in\n    tag_247:\n        /* \"#utility.yul\":13616:13618   */\n      0x20\n        /* \"#utility.yul\":13611:13614   */\n      dup3\n        /* \"#utility.yul\":13607:13619   */\n      add\n        /* \"#utility.yul\":13600:13619   */\n      swap1\n      pop\n        /* \"#utility.yul\":13259:13625   */\n      swap2\n      swap1\n      pop\n      jump\t// out\n        /* \"#utility.yul\":13631:14050   */\n    tag_49:\n        /* \"#utility.yul\":13797:13801   */\n      0x00\n        /* \"#utility.yul\":13835:13837   */\n      0x20\n        /* \"#utility.yul\":13824:13833   */\n      dup3\n        /* \"#utility.yul\":13820:13838   */\n      add\n        /* \"#utility.yul\":13812:13838   */\n      swap1\n      pop\n        /* \"#utility.yul\":13884:13893   */\n      dup2\n        /* \"#utility.yul\":13878:13882   */\n      dup2\n        /* \"#utility.yul\":13874:13894   */\n      sub\n        /* \"#utility.yul\":13870:13871   */\n      0x00\n        /* \"#utility.yul\":13859:13868   */\n      dup4\n        /* \"#utility.yul\":13855:13872   */\n      add\n        /* \"#utility.yul\":13848:13895   */\n      mstore\n        /* \"#utility.yul\":13912:14043   */\n      tag_249\n        /* \"#utility.yul\":14038:14042   */\n      dup2\n        /* \"#utility.yul\":13912:14043   */\n      tag_103\n      jump\t// in\n    tag_249:\n        /* \"#utility.yul\":13904:14043   */\n      swap1\n      pop\n        /* \"#utility.yul\":13631:14050   */\n      swap2\n      swap1\n      pop\n      jump\t// out\n        /* \"#utility.yul\":14056:14182   */\n    tag_104:\n        /* \"#utility.yul\":14093:14100   */\n      0x00\n        /* \"#utility.yul\":14133:14175   */\n      0xffffffffffffffffffffffffffffffffffffffff\n        /* \"#utility.yul\":14126:14131   */\n      dup3\n        /* \"#utility.yul\":14122:14176   */\n      and\n        /* \"#utility.yul\":14111:14176   */\n      swap1\n      pop\n        /* \"#utility.yul\":14056:14182   */\n      swap2\n      swap1\n      pop\n      jump\t// out\n        /* \"#utility.yul\":14188:14284   */\n    tag_105:\n        /* \"#utility.yul\":14225:14232   */\n      0x00\n        /* \"#utility.yul\":14254:14278   */\n      tag_252\n        /* \"#utility.yul\":14272:14277   */\n      dup3\n        /* \"#utility.yul\":14254:14278   */\n      tag_104\n      jump\t// in\n    tag_252:\n        /* \"#utility.yul\":14243:14278   */\n      swap1\n      pop\n        /* \"#utility.yul\":14188:14284   */\n      swap2\n      swap1\n      pop\n      jump\t// out\n        /* \"#utility.yul\":14290:14408   */\n    tag_106:\n        /* \"#utility.yul\":14377:14401   */\n      tag_254\n        /* \"#utility.yul\":14395:14400   */\n      dup2\n        /* \"#utility.yul\":14377:14401   */\n      tag_105\n      jump\t// in\n    tag_254:\n        /* \"#utility.yul\":14372:14375   */\n      dup3\n        /* \"#utility.yul\":14365:14402   */\n      mstore\n        /* \"#utility.yul\":14290:14408   */\n      pop\n      pop\n      jump\t// out\n        /* \"#utility.yul\":14414:15058   */\n    tag_53:\n        /* \"#utility.yul\":14611:14615   */\n      0x00\n        /* \"#utility.yul\":14649:14652   */\n      0x80\n        /* \"#utility.yul\":14638:14647   */\n      dup3\n        /* \"#utility.yul\":14634:14653   */\n      add\n        /* \"#utility.yul\":14626:14653   */\n      swap1\n      pop\n        /* \"#utility.yul\":14663:14734   */\n      tag_256\n        /* \"#utility.yul\":14731:14732   */\n      0x00\n        /* \"#utility.yul\":14720:14729   */\n      dup4\n        /* \"#utility.yul\":14716:14733   */\n      add\n        /* \"#utility.yul\":14707:14713   */\n      dup8\n        /* \"#utility.yul\":14663:14734   */\n      tag_81\n      jump\t// in\n    tag_256:\n        /* \"#utility.yul\":14781:14790   */\n      dup2\n        /* \"#utility.yul\":14775:14779   */\n      dup2\n        /* \"#utility.yul\":14771:14791   */\n      sub\n        /* \"#utility.yul\":14766:14768   */\n      0x20\n        /* \"#utility.yul\":14755:14764   */\n      dup4\n        /* \"#utility.yul\":14751:14769   */\n      add\n        /* \"#utility.yul\":14744:14792   */\n      mstore\n        /* \"#utility.yul\":14809:14887   */\n      tag_257\n        /* \"#utility.yul\":14882:14886   */\n      dup2\n        /* \"#utility.yul\":14873:14879   */\n      dup7\n        /* \"#utility.yul\":14809:14887   */\n      tag_80\n      jump\t// in\n    tag_257:\n        /* \"#utility.yul\":14801:14887   */\n      swap1\n      pop\n        /* \"#utility.yul\":14897:14969   */\n      tag_258\n        /* \"#utility.yul\":14965:14967   */\n      0x40\n        /* \"#utility.yul\":14954:14963   */\n      dup4\n        /* \"#utility.yul\":14950:14968   */\n      add\n        /* \"#utility.yul\":14941:14947   */\n      dup6\n        /* \"#utility.yul\":14897:14969   */\n      tag_81\n      jump\t// in\n    tag_258:\n        /* \"#utility.yul\":14979:15051   */\n      tag_259\n        /* \"#utility.yul\":15047:15049   */\n      0x60\n        /* \"#utility.yul\":15036:15045   */\n      dup4\n        /* \"#utility.yul\":15032:15050   */\n      add\n        /* \"#utility.yul\":15023:15029   */\n      dup5\n        /* \"#utility.yul\":14979:15051   */\n      tag_106\n      jump\t// in\n    tag_259:\n        /* \"#utility.yul\":14414:15058   */\n      swap6\n      swap5\n      pop\n      pop\n      pop\n      pop\n      pop\n      jump\t// out\n\n    auxdata: 0xa26469706673582212208313f074a3e270ca27707eb7b0b921902a42d0de6ca5c8288e4b5e1d1e6451c464736f6c634300081a0033\n}\n",
				"bytecode": {
					"linkReferences": {},
					"object": "6080604052348015600e575f80fd5b50610e758061001c5f395ff3fe608060405234801561000f575f80fd5b506004361061004a575f3560e01c80632d64c60a1461004e57806332665ffb1461006a578063bc43d06f1461009b578063fe93ba09146100b7575b5f80fd5b610068600480360381019061006391906107e0565b6100d3565b005b610084600480360381019061007f919061084c565b6101ec565b6040516100929291906108e6565b60405180910390f35b6100b560048036038101906100b0919061084c565b610319565b005b6100d160048036038101906100cc91906107e0565b610448565b005b3373ffffffffffffffffffffffffffffffffffffffff165f808581526020019081526020015f206003015f9054906101000a900473ffffffffffffffffffffffffffffffffffffffff1673ffffffffffffffffffffffffffffffffffffffff1614610173576040517f08c379a000000000000000000000000000000000000000000000000000000000815260040161016a90610984565b60405180910390fd5b815f808581526020019081526020015f2060010190816101939190610b9c565b50805f808581526020019081526020015f20600201819055507fc7d6594ab03628ef3f6852d4225a8d2b1461544207142d9c0fba9747a789ade58383836040516101df93929190610c6b565b60405180910390a1505050565b60605f805f808581526020019081526020015f206040518060800160405290815f8201548152602001600182018054610224906109cf565b80601f0160208091040260200160405190810160405280929190818152602001828054610250906109cf565b801561029b5780601f106102725761010080835404028352916020019161029b565b820191905f5260205f20905b81548152906001019060200180831161027e57829003601f168201915b5050505050815260200160028201548152602001600382015f9054906101000a900473ffffffffffffffffffffffffffffffffffffffff1673ffffffffffffffffffffffffffffffffffffffff1673ffffffffffffffffffffffffffffffffffffffff16815250509050806020015181604001519250925050915091565b3373ffffffffffffffffffffffffffffffffffffffff165f808381526020019081526020015f206003015f9054906101000a900473ffffffffffffffffffffffffffffffffffffffff1673ffffffffffffffffffffffffffffffffffffffff16146103b9576040517f08c379a00000000000000000000000000000000000000000000000000000000081526004016103b090610d17565b60405180910390fd5b5f808281526020019081526020015f205f8082015f9055600182015f6103df9190610608565b600282015f9055600382015f6101000a81549073ffffffffffffffffffffffffffffffffffffffff021916905550507f586b7d6bbe3535c99fbb4b183ce687d76307b7b4cb5a6a11e32ce06199d811fc8160405161043d9190610d35565b60405180910390a150565b5f73ffffffffffffffffffffffffffffffffffffffff165f808581526020019081526020015f206003015f9054906101000a900473ffffffffffffffffffffffffffffffffffffffff1673ffffffffffffffffffffffffffffffffffffffff16146104e8576040517f08c379a00000000000000000000000000000000000000000000000000000000081526004016104df90610d98565b60405180910390fd5b60405180608001604052808481526020018381526020018281526020013373ffffffffffffffffffffffffffffffffffffffff168152505f808581526020019081526020015f205f820151815f0155602082015181600101908161054c9190610b9c565b50604082015181600201556060820151816003015f6101000a81548173ffffffffffffffffffffffffffffffffffffffff021916908373ffffffffffffffffffffffffffffffffffffffff160217905550905050600183908060018154018082558091505060019003905f5260205f20015f90919091909150557fe0de464e657fdeb1f668e5e64fb92e159b463403ee20baa688fe16a63b0542c4838383336040516105fb9493929190610df5565b60405180910390a1505050565b508054610614906109cf565b5f825580601f106106255750610642565b601f0160209004905f5260205f20908101906106419190610645565b5b50565b5b8082111561065c575f815f905550600101610646565b5090565b5f604051905090565b5f80fd5b5f80fd5b5f819050919050565b61068381610671565b811461068d575f80fd5b50565b5f8135905061069e8161067a565b92915050565b5f80fd5b5f80fd5b5f601f19601f8301169050919050565b7f4e487b71000000000000000000000000000000000000000000000000000000005f52604160045260245ffd5b6106f2826106ac565b810181811067ffffffffffffffff82111715610711576107106106bc565b5b80604052505050565b5f610723610660565b905061072f82826106e9565b919050565b5f67ffffffffffffffff82111561074e5761074d6106bc565b5b610757826106ac565b9050602081019050919050565b828183375f83830152505050565b5f61078461077f84610734565b61071a565b9050828152602081018484840111156107a05761079f6106a8565b5b6107ab848285610764565b509392505050565b5f82601f8301126107c7576107c66106a4565b5b81356107d7848260208601610772565b91505092915050565b5f805f606084860312156107f7576107f6610669565b5b5f61080486828701610690565b935050602084013567ffffffffffffffff8111156108255761082461066d565b5b610831868287016107b3565b925050604061084286828701610690565b9150509250925092565b5f6020828403121561086157610860610669565b5b5f61086e84828501610690565b91505092915050565b5f81519050919050565b5f82825260208201905092915050565b8281835e5f83830152505050565b5f6108a982610877565b6108b38185610881565b93506108c3818560208601610891565b6108cc816106ac565b840191505092915050565b6108e081610671565b82525050565b5f6040820190508181035f8301526108fe818561089f565b905061090d60208301846108d7565b9392505050565b7f4f6e6c79206f776e65722063616e20757064617465207468652070726f7065725f8201527f7479000000000000000000000000000000000000000000000000000000000000602082015250565b5f61096e602283610881565b915061097982610914565b604082019050919050565b5f6020820190508181035f83015261099b81610962565b9050919050565b7f4e487b71000000000000000000000000000000000000000000000000000000005f52602260045260245ffd5b5f60028204905060018216806109e657607f821691505b6020821081036109f9576109f86109a2565b5b50919050565b5f819050815f5260205f209050919050565b5f6020601f8301049050919050565b5f82821b905092915050565b5f60088302610a5b7fffffffffffffffffffffffffffffffffffffffffffffffffffffffffffffffff82610a20565b610a658683610a20565b95508019841693508086168417925050509392505050565b5f819050919050565b5f610aa0610a9b610a9684610671565b610a7d565b610671565b9050919050565b5f819050919050565b610ab983610a86565b610acd610ac582610aa7565b848454610a2c565b825550505050565b5f90565b610ae1610ad5565b610aec818484610ab0565b505050565b5b81811015610b0f57610b045f82610ad9565b600181019050610af2565b5050565b601f821115610b5457610b25816109ff565b610b2e84610a11565b81016020851015610b3d578190505b610b51610b4985610a11565b830182610af1565b50505b505050565b5f82821c905092915050565b5f610b745f1984600802610b59565b1980831691505092915050565b5f610b8c8383610b65565b9150826002028217905092915050565b610ba582610877565b67ffffffffffffffff811115610bbe57610bbd6106bc565b5b610bc882546109cf565b610bd3828285610b13565b5f60209050601f831160018114610c04575f8415610bf2578287015190505b610bfc8582610b81565b865550610c63565b601f198416610c12866109ff565b5f5b82811015610c3957848901518255600182019150602085019450602081019050610c14565b86831015610c565784890151610c52601f891682610b65565b8355505b6001600288020188555050505b505050505050565b5f606082019050610c7e5f8301866108d7565b8181036020830152610c90818561089f565b9050610c9f60408301846108d7565b949350505050565b7f4f6e6c79206f776e65722063616e2072656d6f7665207468652070726f7065725f8201527f7479000000000000000000000000000000000000000000000000000000000000602082015250565b5f610d01602283610881565b9150610d0c82610ca7565b604082019050919050565b5f6020820190508181035f830152610d2e81610cf5565b9050919050565b5f602082019050610d485f8301846108d7565b92915050565b7f50726f706572747920616c7265616479206578697374730000000000000000005f82015250565b5f610d82601783610881565b9150610d8d82610d4e565b602082019050919050565b5f6020820190508181035f830152610daf81610d76565b9050919050565b5f73ffffffffffffffffffffffffffffffffffffffff82169050919050565b5f610ddf82610db6565b9050919050565b610def81610dd5565b82525050565b5f608082019050610e085f8301876108d7565b8181036020830152610e1a818661089f565b9050610e2960408301856108d7565b610e366060830184610de6565b9594505050505056fea26469706673582212208313f074a3e270ca27707eb7b0b921902a42d0de6ca5c8288e4b5e1d1e6451c464736f6c634300081a0033",
					"opcodes": "PUSH1 0x80 PUSH1 0x40 MSTORE CALLVALUE DUP1 ISZERO PUSH1 0xE JUMPI PUSH0 DUP1 REVERT JUMPDEST POP PUSH2 0xE75 DUP1 PUSH2 0x1C PUSH0 CODECOPY PUSH0 RETURN INVALID PUSH1 0x80 PUSH1 0x40 MSTORE CALLVALUE DUP1 ISZERO PUSH2 0xF JUMPI PUSH0 DUP1 REVERT JUMPDEST POP PUSH1 0x4 CALLDATASIZE LT PUSH2 0x4A JUMPI PUSH0 CALLDATALOAD PUSH1 0xE0 SHR DUP1 PUSH4 0x2D64C60A EQ PUSH2 0x4E JUMPI DUP1 PUSH4 0x32665FFB EQ PUSH2 0x6A JUMPI DUP1 PUSH4 0xBC43D06F EQ PUSH2 0x9B JUMPI DUP1 PUSH4 0xFE93BA09 EQ PUSH2 0xB7 JUMPI JUMPDEST PUSH0 DUP1 REVERT JUMPDEST PUSH2 0x68 PUSH1 0x4 DUP1 CALLDATASIZE SUB DUP2 ADD SWAP1 PUSH2 0x63 SWAP2 SWAP1 PUSH2 0x7E0 JUMP JUMPDEST PUSH2 0xD3 JUMP JUMPDEST STOP JUMPDEST PUSH2 0x84 PUSH1 0x4 DUP1 CALLDATASIZE SUB DUP2 ADD SWAP1 PUSH2 0x7F SWAP2 SWAP1 PUSH2 0x84C JUMP JUMPDEST PUSH2 0x1EC JUMP JUMPDEST PUSH1 0x40 MLOAD PUSH2 0x92 SWAP3 SWAP2 SWAP1 PUSH2 0x8E6 JUMP JUMPDEST PUSH1 0x40 MLOAD DUP1 SWAP2 SUB SWAP1 RETURN JUMPDEST PUSH2 0xB5 PUSH1 0x4 DUP1 CALLDATASIZE SUB DUP2 ADD SWAP1 PUSH2 0xB0 SWAP2 SWAP1 PUSH2 0x84C JUMP JUMPDEST PUSH2 0x319 JUMP JUMPDEST STOP JUMPDEST PUSH2 0xD1 PUSH1 0x4 DUP1 CALLDATASIZE SUB DUP2 ADD SWAP1 PUSH2 0xCC SWAP2 SWAP1 PUSH2 0x7E0 JUMP JUMPDEST PUSH2 0x448 JUMP JUMPDEST STOP JUMPDEST CALLER PUSH20 0xFFFFFFFFFFFFFFFFFFFFFFFFFFFFFFFFFFFFFFFF AND PUSH0 DUP1 DUP6 DUP2 MSTORE PUSH1 0x20 ADD SWAP1 DUP2 MSTORE PUSH1 0x20 ADD PUSH0 KECCAK256 PUSH1 0x3 ADD PUSH0 SWAP1 SLOAD SWAP1 PUSH2 0x100 EXP SWAP1 DIV PUSH20 0xFFFFFFFFFFFFFFFFFFFFFFFFFFFFFFFFFFFFFFFF AND PUSH20 0xFFFFFFFFFFFFFFFFFFFFFFFFFFFFFFFFFFFFFFFF AND EQ PUSH2 0x173 JUMPI PUSH1 0x40 MLOAD PUSH32 0x8C379A000000000000000000000000000000000000000000000000000000000 DUP2 MSTORE PUSH1 0x4 ADD PUSH2 0x16A SWAP1 PUSH2 0x984 JUMP JUMPDEST PUSH1 0x40 MLOAD DUP1 SWAP2 SUB SWAP1 REVERT JUMPDEST DUP2 PUSH0 DUP1 DUP6 DUP2 MSTORE PUSH1 0x20 ADD SWAP1 DUP2 MSTORE PUSH1 0x20 ADD PUSH0 KECCAK256 PUSH1 0x1 ADD SWAP1 DUP2 PUSH2 0x193 SWAP2 SWAP1 PUSH2 0xB9C JUMP JUMPDEST POP DUP1 PUSH0 DUP1 DUP6 DUP2 MSTORE PUSH1 0x20 ADD SWAP1 DUP2 MSTORE PUSH1 0x20 ADD PUSH0 KECCAK256 PUSH1 0x2 ADD DUP2 SWAP1 SSTORE POP PUSH32 0xC7D6594AB03628EF3F6852D4225A8D2B1461544207142D9C0FBA9747A789ADE5 DUP4 DUP4 DUP4 PUSH1 0x40 MLOAD PUSH2 0x1DF SWAP4 SWAP3 SWAP2 SWAP1 PUSH2 0xC6B JUMP JUMPDEST PUSH1 0x40 MLOAD DUP1 SWAP2 SUB SWAP1 LOG1 POP POP POP JUMP JUMPDEST PUSH1 0x60 PUSH0 DUP1 PUSH0 DUP1 DUP6 DUP2 MSTORE PUSH1 0x20 ADD SWAP1 DUP2 MSTORE PUSH1 0x20 ADD PUSH0 KECCAK256 PUSH1 0x40 MLOAD DUP1 PUSH1 0x80 ADD PUSH1 0x40 MSTORE SWAP1 DUP2 PUSH0 DUP3 ADD SLOAD DUP2 MSTORE PUSH1 0x20 ADD PUSH1 0x1 DUP3 ADD DUP1 SLOAD PUSH2 0x224 SWAP1 PUSH2 0x9CF JUMP JUMPDEST DUP1 PUSH1 0x1F ADD PUSH1 0x20 DUP1 SWAP2 DIV MUL PUSH1 0x20 ADD PUSH1 0x40 MLOAD SWAP1 DUP2 ADD PUSH1 0x40 MSTORE DUP1 SWAP3 SWAP2 SWAP1 DUP2 DUP2 MSTORE PUSH1 0x20 ADD DUP3 DUP1 SLOAD PUSH2 0x250 SWAP1 PUSH2 0x9CF JUMP JUMPDEST DUP1 ISZERO PUSH2 0x29B JUMPI DUP1 PUSH1 0x1F LT PUSH2 0x272 JUMPI PUSH2 0x100 DUP1 DUP4 SLOAD DIV MUL DUP4 MSTORE SWAP2 PUSH1 0x20 ADD SWAP2 PUSH2 0x29B JUMP JUMPDEST DUP3 ADD SWAP2 SWAP1 PUSH0 MSTORE PUSH1 0x20 PUSH0 KECCAK256 SWAP1 JUMPDEST DUP2 SLOAD DUP2 MSTORE SWAP1 PUSH1 0x1 ADD SWAP1 PUSH1 0x20 ADD DUP1 DUP4 GT PUSH2 0x27E JUMPI DUP3 SWAP1 SUB PUSH1 0x1F AND DUP3 ADD SWAP2 JUMPDEST POP POP POP POP POP DUP2 MSTORE PUSH1 0x20 ADD PUSH1 0x2 DUP3 ADD SLOAD DUP2 MSTORE PUSH1 0x20 ADD PUSH1 0x3 DUP3 ADD PUSH0 SWAP1 SLOAD SWAP1 PUSH2 0x100 EXP SWAP1 DIV PUSH20 0xFFFFFFFFFFFFFFFFFFFFFFFFFFFFFFFFFFFFFFFF AND PUSH20 0xFFFFFFFFFFFFFFFFFFFFFFFFFFFFFFFFFFFFFFFF AND PUSH20 0xFFFFFFFFFFFFFFFFFFFFFFFFFFFFFFFFFFFFFFFF AND DUP2 MSTORE POP POP SWAP1 POP DUP1 PUSH1 0x20 ADD MLOAD DUP2 PUSH1 0x40 ADD MLOAD SWAP3 POP SWAP3 POP POP SWAP2 POP SWAP2 JUMP JUMPDEST CALLER PUSH20 0xFFFFFFFFFFFFFFFFFFFFFFFFFFFFFFFFFFFFFFFF AND PUSH0 DUP1 DUP4 DUP2 MSTORE PUSH1 0x20 ADD SWAP1 DUP2 MSTORE PUSH1 0x20 ADD PUSH0 KECCAK256 PUSH1 0x3 ADD PUSH0 SWAP1 SLOAD SWAP1 PUSH2 0x100 EXP SWAP1 DIV PUSH20 0xFFFFFFFFFFFFFFFFFFFFFFFFFFFFFFFFFFFFFFFF AND PUSH20 0xFFFFFFFFFFFFFFFFFFFFFFFFFFFFFFFFFFFFFFFF AND EQ PUSH2 0x3B9 JUMPI PUSH1 0x40 MLOAD PUSH32 0x8C379A000000000000000000000000000000000000000000000000000000000 DUP2 MSTORE PUSH1 0x4 ADD PUSH2 0x3B0 SWAP1 PUSH2 0xD17 JUMP JUMPDEST PUSH1 0x40 MLOAD DUP1 SWAP2 SUB SWAP1 REVERT JUMPDEST PUSH0 DUP1 DUP3 DUP2 MSTORE PUSH1 0x20 ADD SWAP1 DUP2 MSTORE PUSH1 0x20 ADD PUSH0 KECCAK256 PUSH0 DUP1 DUP3 ADD PUSH0 SWAP1 SSTORE PUSH1 0x1 DUP3 ADD PUSH0 PUSH2 0x3DF SWAP2 SWAP1 PUSH2 0x608 JUMP JUMPDEST PUSH1 0x2 DUP3 ADD PUSH0 SWAP1 SSTORE PUSH1 0x3 DUP3 ADD PUSH0 PUSH2 0x100 EXP DUP2 SLOAD SWAP1 PUSH20 0xFFFFFFFFFFFFFFFFFFFFFFFFFFFFFFFFFFFFFFFF MUL NOT AND SWAP1 SSTORE POP POP PUSH32 0x586B7D6BBE3535C99FBB4B183CE687D76307B7B4CB5A6A11E32CE06199D811FC DUP2 PUSH1 0x40 MLOAD PUSH2 0x43D SWAP2 SWAP1 PUSH2 0xD35 JUMP JUMPDEST PUSH1 0x40 MLOAD DUP1 SWAP2 SUB SWAP1 LOG1 POP JUMP JUMPDEST PUSH0 PUSH20 0xFFFFFFFFFFFFFFFFFFFFFFFFFFFFFFFFFFFFFFFF AND PUSH0 DUP1 DUP6 DUP2 MSTORE PUSH1 0x20 ADD SWAP1 DUP2 MSTORE PUSH1 0x20 ADD PUSH0 KECCAK256 PUSH1 0x3 ADD PUSH0 SWAP1 SLOAD SWAP1 PUSH2 0x100 EXP SWAP1 DIV PUSH20 0xFFFFFFFFFFFFFFFFFFFFFFFFFFFFFFFFFFFFFFFF AND PUSH20 0xFFFFFFFFFFFFFFFFFFFFFFFFFFFFFFFFFFFFFFFF AND EQ PUSH2 0x4E8 JUMPI PUSH1 0x40 MLOAD PUSH32 0x8C379A000000000000000000000000000000000000000000000000000000000 DUP2 MSTORE PUSH1 0x4 ADD PUSH2 0x4DF SWAP1 PUSH2 0xD98 JUMP JUMPDEST PUSH1 0x40 MLOAD DUP1 SWAP2 SUB SWAP1 REVERT JUMPDEST PUSH1 0x40 MLOAD DUP1 PUSH1 0x80 ADD PUSH1 0x40 MSTORE DUP1 DUP5 DUP2 MSTORE PUSH1 0x20 ADD DUP4 DUP2 MSTORE PUSH1 0x20 ADD DUP3 DUP2 MSTORE PUSH1 0x20 ADD CALLER PUSH20 0xFFFFFFFFFFFFFFFFFFFFFFFFFFFFFFFFFFFFFFFF AND DUP2 MSTORE POP PUSH0 DUP1 DUP6 DUP2 MSTORE PUSH1 0x20 ADD SWAP1 DUP2 MSTORE PUSH1 0x20 ADD PUSH0 KECCAK256 PUSH0 DUP3 ADD MLOAD DUP2 PUSH0 ADD SSTORE PUSH1 0x20 DUP3 ADD MLOAD DUP2 PUSH1 0x1 ADD SWAP1 DUP2 PUSH2 0x54C SWAP2 SWAP1 PUSH2 0xB9C JUMP JUMPDEST POP PUSH1 0x40 DUP3 ADD MLOAD DUP2 PUSH1 0x2 ADD SSTORE PUSH1 0x60 DUP3 ADD MLOAD DUP2 PUSH1 0x3 ADD PUSH0 PUSH2 0x100 EXP DUP2 SLOAD DUP2 PUSH20 0xFFFFFFFFFFFFFFFFFFFFFFFFFFFFFFFFFFFFFFFF MUL NOT AND SWAP1 DUP4 PUSH20 0xFFFFFFFFFFFFFFFFFFFFFFFFFFFFFFFFFFFFFFFF AND MUL OR SWAP1 SSTORE POP SWAP1 POP POP PUSH1 0x1 DUP4 SWAP1 DUP1 PUSH1 0x1 DUP2 SLOAD ADD DUP1 DUP3 SSTORE DUP1 SWAP2 POP POP PUSH1 0x1 SWAP1 SUB SWAP1 PUSH0 MSTORE PUSH1 0x20 PUSH0 KECCAK256 ADD PUSH0 SWAP1 SWAP2 SWAP1 SWAP2 SWAP1 SWAP2 POP SSTORE PUSH32 0xE0DE464E657FDEB1F668E5E64FB92E159B463403EE20BAA688FE16A63B0542C4 DUP4 DUP4 DUP4 CALLER PUSH1 0x40 MLOAD PUSH2 0x5FB SWAP5 SWAP4 SWAP3 SWAP2 SWAP1 PUSH2 0xDF5 JUMP JUMPDEST PUSH1 0x40 MLOAD DUP1 SWAP2 SUB SWAP1 LOG1 POP POP POP JUMP JUMPDEST POP DUP1 SLOAD PUSH2 0x614 SWAP1 PUSH2 0x9CF JUMP JUMPDEST PUSH0 DUP3 SSTORE DUP1 PUSH1 0x1F LT PUSH2 0x625 JUMPI POP PUSH2 0x642 JUMP JUMPDEST PUSH1 0x1F ADD PUSH1 0x20 SWAP1 DIV SWAP1 PUSH0 MSTORE PUSH1 0x20 PUSH0 KECCAK256 SWAP1 DUP2 ADD SWAP1 PUSH2 0x641 SWAP2 SWAP1 PUSH2 0x645 JUMP JUMPDEST JUMPDEST POP JUMP JUMPDEST JUMPDEST DUP1 DUP3 GT ISZERO PUSH2 0x65C JUMPI PUSH0 DUP2 PUSH0 SWAP1 SSTORE POP PUSH1 0x1 ADD PUSH2 0x646 JUMP JUMPDEST POP SWAP1 JUMP JUMPDEST PUSH0 PUSH1 0x40 MLOAD SWAP1 POP SWAP1 JUMP JUMPDEST PUSH0 DUP1 REVERT JUMPDEST PUSH0 DUP1 REVERT JUMPDEST PUSH0 DUP2 SWAP1 POP SWAP2 SWAP1 POP JUMP JUMPDEST PUSH2 0x683 DUP2 PUSH2 0x671 JUMP JUMPDEST DUP2 EQ PUSH2 0x68D JUMPI PUSH0 DUP1 REVERT JUMPDEST POP JUMP JUMPDEST PUSH0 DUP2 CALLDATALOAD SWAP1 POP PUSH2 0x69E DUP2 PUSH2 0x67A JUMP JUMPDEST SWAP3 SWAP2 POP POP JUMP JUMPDEST PUSH0 DUP1 REVERT JUMPDEST PUSH0 DUP1 REVERT JUMPDEST PUSH0 PUSH1 0x1F NOT PUSH1 0x1F DUP4 ADD AND SWAP1 POP SWAP2 SWAP1 POP JUMP JUMPDEST PUSH32 0x4E487B7100000000000000000000000000000000000000000000000000000000 PUSH0 MSTORE PUSH1 0x41 PUSH1 0x4 MSTORE PUSH1 0x24 PUSH0 REVERT JUMPDEST PUSH2 0x6F2 DUP3 PUSH2 0x6AC JUMP JUMPDEST DUP2 ADD DUP2 DUP2 LT PUSH8 0xFFFFFFFFFFFFFFFF DUP3 GT OR ISZERO PUSH2 0x711 JUMPI PUSH2 0x710 PUSH2 0x6BC JUMP JUMPDEST JUMPDEST DUP1 PUSH1 0x40 MSTORE POP POP POP JUMP JUMPDEST PUSH0 PUSH2 0x723 PUSH2 0x660 JUMP JUMPDEST SWAP1 POP PUSH2 0x72F DUP3 DUP3 PUSH2 0x6E9 JUMP JUMPDEST SWAP2 SWAP1 POP JUMP JUMPDEST PUSH0 PUSH8 0xFFFFFFFFFFFFFFFF DUP3 GT ISZERO PUSH2 0x74E JUMPI PUSH2 0x74D PUSH2 0x6BC JUMP JUMPDEST JUMPDEST PUSH2 0x757 DUP3 PUSH2 0x6AC JUMP JUMPDEST SWAP1 POP PUSH1 0x20 DUP2 ADD SWAP1 POP SWAP2 SWAP1 POP JUMP JUMPDEST DUP3 DUP2 DUP4 CALLDATACOPY PUSH0 DUP4 DUP4 ADD MSTORE POP POP POP JUMP JUMPDEST PUSH0 PUSH2 0x784 PUSH2 0x77F DUP5 PUSH2 0x734 JUMP JUMPDEST PUSH2 0x71A JUMP JUMPDEST SWAP1 POP DUP3 DUP2 MSTORE PUSH1 0x20 DUP2 ADD DUP5 DUP5 DUP5 ADD GT ISZERO PUSH2 0x7A0 JUMPI PUSH2 0x79F PUSH2 0x6A8 JUMP JUMPDEST JUMPDEST PUSH2 0x7AB DUP5 DUP3 DUP6 PUSH2 0x764 JUMP JUMPDEST POP SWAP4 SWAP3 POP POP POP JUMP JUMPDEST PUSH0 DUP3 PUSH1 0x1F DUP4 ADD SLT PUSH2 0x7C7 JUMPI PUSH2 0x7C6 PUSH2 0x6A4 JUMP JUMPDEST JUMPDEST DUP2 CALLDATALOAD PUSH2 0x7D7 DUP5 DUP3 PUSH1 0x20 DUP7 ADD PUSH2 0x772 JUMP JUMPDEST SWAP2 POP POP SWAP3 SWAP2 POP POP JUMP JUMPDEST PUSH0 DUP1 PUSH0 PUSH1 0x60 DUP5 DUP7 SUB SLT ISZERO PUSH2 0x7F7 JUMPI PUSH2 0x7F6 PUSH2 0x669 JUMP JUMPDEST JUMPDEST PUSH0 PUSH2 0x804 DUP7 DUP3 DUP8 ADD PUSH2 0x690 JUMP JUMPDEST SWAP4 POP POP PUSH1 0x20 DUP5 ADD CALLDATALOAD PUSH8 0xFFFFFFFFFFFFFFFF DUP2 GT ISZERO PUSH2 0x825 JUMPI PUSH2 0x824 PUSH2 0x66D JUMP JUMPDEST JUMPDEST PUSH2 0x831 DUP7 DUP3 DUP8 ADD PUSH2 0x7B3 JUMP JUMPDEST SWAP3 POP POP PUSH1 0x40 PUSH2 0x842 DUP7 DUP3 DUP8 ADD PUSH2 0x690 JUMP JUMPDEST SWAP2 POP POP SWAP3 POP SWAP3 POP SWAP3 JUMP JUMPDEST PUSH0 PUSH1 0x20 DUP3 DUP5 SUB SLT ISZERO PUSH2 0x861 JUMPI PUSH2 0x860 PUSH2 0x669 JUMP JUMPDEST JUMPDEST PUSH0 PUSH2 0x86E DUP5 DUP3 DUP6 ADD PUSH2 0x690 JUMP JUMPDEST SWAP2 POP POP SWAP3 SWAP2 POP POP JUMP JUMPDEST PUSH0 DUP2 MLOAD SWAP1 POP SWAP2 SWAP1 POP JUMP JUMPDEST PUSH0 DUP3 DUP3 MSTORE PUSH1 0x20 DUP3 ADD SWAP1 POP SWAP3 SWAP2 POP POP JUMP JUMPDEST DUP3 DUP2 DUP4 MCOPY PUSH0 DUP4 DUP4 ADD MSTORE POP POP POP JUMP JUMPDEST PUSH0 PUSH2 0x8A9 DUP3 PUSH2 0x877 JUMP JUMPDEST PUSH2 0x8B3 DUP2 DUP6 PUSH2 0x881 JUMP JUMPDEST SWAP4 POP PUSH2 0x8C3 DUP2 DUP6 PUSH1 0x20 DUP7 ADD PUSH2 0x891 JUMP JUMPDEST PUSH2 0x8CC DUP2 PUSH2 0x6AC JUMP JUMPDEST DUP5 ADD SWAP2 POP POP SWAP3 SWAP2 POP POP JUMP JUMPDEST PUSH2 0x8E0 DUP2 PUSH2 0x671 JUMP JUMPDEST DUP3 MSTORE POP POP JUMP JUMPDEST PUSH0 PUSH1 0x40 DUP3 ADD SWAP1 POP DUP2 DUP2 SUB PUSH0 DUP4 ADD MSTORE PUSH2 0x8FE DUP2 DUP6 PUSH2 0x89F JUMP JUMPDEST SWAP1 POP PUSH2 0x90D PUSH1 0x20 DUP4 ADD DUP5 PUSH2 0x8D7 JUMP JUMPDEST SWAP4 SWAP3 POP POP POP JUMP JUMPDEST PUSH32 0x4F6E6C79206F776E65722063616E20757064617465207468652070726F706572 PUSH0 DUP3 ADD MSTORE PUSH32 0x7479000000000000000000000000000000000000000000000000000000000000 PUSH1 0x20 DUP3 ADD MSTORE POP JUMP JUMPDEST PUSH0 PUSH2 0x96E PUSH1 0x22 DUP4 PUSH2 0x881 JUMP JUMPDEST SWAP2 POP PUSH2 0x979 DUP3 PUSH2 0x914 JUMP JUMPDEST PUSH1 0x40 DUP3 ADD SWAP1 POP SWAP2 SWAP1 POP JUMP JUMPDEST PUSH0 PUSH1 0x20 DUP3 ADD SWAP1 POP DUP2 DUP2 SUB PUSH0 DUP4 ADD MSTORE PUSH2 0x99B DUP2 PUSH2 0x962 JUMP JUMPDEST SWAP1 POP SWAP2 SWAP1 POP JUMP JUMPDEST PUSH32 0x4E487B7100000000000000000000000000000000000000000000000000000000 PUSH0 MSTORE PUSH1 0x22 PUSH1 0x4 MSTORE PUSH1 0x24 PUSH0 REVERT JUMPDEST PUSH0 PUSH1 0x2 DUP3 DIV SWAP1 POP PUSH1 0x1 DUP3 AND DUP1 PUSH2 0x9E6 JUMPI PUSH1 0x7F DUP3 AND SWAP2 POP JUMPDEST PUSH1 0x20 DUP3 LT DUP2 SUB PUSH2 0x9F9 JUMPI PUSH2 0x9F8 PUSH2 0x9A2 JUMP JUMPDEST JUMPDEST POP SWAP2 SWAP1 POP JUMP JUMPDEST PUSH0 DUP2 SWAP1 POP DUP2 PUSH0 MSTORE PUSH1 0x20 PUSH0 KECCAK256 SWAP1 POP SWAP2 SWAP1 POP JUMP JUMPDEST PUSH0 PUSH1 0x20 PUSH1 0x1F DUP4 ADD DIV SWAP1 POP SWAP2 SWAP1 POP JUMP JUMPDEST PUSH0 DUP3 DUP3 SHL SWAP1 POP SWAP3 SWAP2 POP POP JUMP JUMPDEST PUSH0 PUSH1 0x8 DUP4 MUL PUSH2 0xA5B PUSH32 0xFFFFFFFFFFFFFFFFFFFFFFFFFFFFFFFFFFFFFFFFFFFFFFFFFFFFFFFFFFFFFFFF DUP3 PUSH2 0xA20 JUMP JUMPDEST PUSH2 0xA65 DUP7 DUP4 PUSH2 0xA20 JUMP JUMPDEST SWAP6 POP DUP1 NOT DUP5 AND SWAP4 POP DUP1 DUP7 AND DUP5 OR SWAP3 POP POP POP SWAP4 SWAP3 POP POP POP JUMP JUMPDEST PUSH0 DUP2 SWAP1 POP SWAP2 SWAP1 POP JUMP JUMPDEST PUSH0 PUSH2 0xAA0 PUSH2 0xA9B PUSH2 0xA96 DUP5 PUSH2 0x671 JUMP JUMPDEST PUSH2 0xA7D JUMP JUMPDEST PUSH2 0x671 JUMP JUMPDEST SWAP1 POP SWAP2 SWAP1 POP JUMP JUMPDEST PUSH0 DUP2 SWAP1 POP SWAP2 SWAP1 POP JUMP JUMPDEST PUSH2 0xAB9 DUP4 PUSH2 0xA86 JUMP JUMPDEST PUSH2 0xACD PUSH2 0xAC5 DUP3 PUSH2 0xAA7 JUMP JUMPDEST DUP5 DUP5 SLOAD PUSH2 0xA2C JUMP JUMPDEST DUP3 SSTORE POP POP POP POP JUMP JUMPDEST PUSH0 SWAP1 JUMP JUMPDEST PUSH2 0xAE1 PUSH2 0xAD5 JUMP JUMPDEST PUSH2 0xAEC DUP2 DUP5 DUP5 PUSH2 0xAB0 JUMP JUMPDEST POP POP POP JUMP JUMPDEST JUMPDEST DUP2 DUP2 LT ISZERO PUSH2 0xB0F JUMPI PUSH2 0xB04 PUSH0 DUP3 PUSH2 0xAD9 JUMP JUMPDEST PUSH1 0x1 DUP2 ADD SWAP1 POP PUSH2 0xAF2 JUMP JUMPDEST POP POP JUMP JUMPDEST PUSH1 0x1F DUP3 GT ISZERO PUSH2 0xB54 JUMPI PUSH2 0xB25 DUP2 PUSH2 0x9FF JUMP JUMPDEST PUSH2 0xB2E DUP5 PUSH2 0xA11 JUMP JUMPDEST DUP2 ADD PUSH1 0x20 DUP6 LT ISZERO PUSH2 0xB3D JUMPI DUP2 SWAP1 POP JUMPDEST PUSH2 0xB51 PUSH2 0xB49 DUP6 PUSH2 0xA11 JUMP JUMPDEST DUP4 ADD DUP3 PUSH2 0xAF1 JUMP JUMPDEST POP POP JUMPDEST POP POP POP JUMP JUMPDEST PUSH0 DUP3 DUP3 SHR SWAP1 POP SWAP3 SWAP2 POP POP JUMP JUMPDEST PUSH0 PUSH2 0xB74 PUSH0 NOT DUP5 PUSH1 0x8 MUL PUSH2 0xB59 JUMP JUMPDEST NOT DUP1 DUP4 AND SWAP2 POP POP SWAP3 SWAP2 POP POP JUMP JUMPDEST PUSH0 PUSH2 0xB8C DUP4 DUP4 PUSH2 0xB65 JUMP JUMPDEST SWAP2 POP DUP3 PUSH1 0x2 MUL DUP3 OR SWAP1 POP SWAP3 SWAP2 POP POP JUMP JUMPDEST PUSH2 0xBA5 DUP3 PUSH2 0x877 JUMP JUMPDEST PUSH8 0xFFFFFFFFFFFFFFFF DUP2 GT ISZERO PUSH2 0xBBE JUMPI PUSH2 0xBBD PUSH2 0x6BC JUMP JUMPDEST JUMPDEST PUSH2 0xBC8 DUP3 SLOAD PUSH2 0x9CF JUMP JUMPDEST PUSH2 0xBD3 DUP3 DUP3 DUP6 PUSH2 0xB13 JUMP JUMPDEST PUSH0 PUSH1 0x20 SWAP1 POP PUSH1 0x1F DUP4 GT PUSH1 0x1 DUP2 EQ PUSH2 0xC04 JUMPI PUSH0 DUP5 ISZERO PUSH2 0xBF2 JUMPI DUP3 DUP8 ADD MLOAD SWAP1 POP JUMPDEST PUSH2 0xBFC DUP6 DUP3 PUSH2 0xB81 JUMP JUMPDEST DUP7 SSTORE POP PUSH2 0xC63 JUMP JUMPDEST PUSH1 0x1F NOT DUP5 AND PUSH2 0xC12 DUP7 PUSH2 0x9FF JUMP JUMPDEST PUSH0 JUMPDEST DUP3 DUP2 LT ISZERO PUSH2 0xC39 JUMPI DUP5 DUP10 ADD MLOAD DUP3 SSTORE PUSH1 0x1 DUP3 ADD SWAP2 POP PUSH1 0x20 DUP6 ADD SWAP5 POP PUSH1 0x20 DUP2 ADD SWAP1 POP PUSH2 0xC14 JUMP JUMPDEST DUP7 DUP4 LT ISZERO PUSH2 0xC56 JUMPI DUP5 DUP10 ADD MLOAD PUSH2 0xC52 PUSH1 0x1F DUP10 AND DUP3 PUSH2 0xB65 JUMP JUMPDEST DUP4 SSTORE POP JUMPDEST PUSH1 0x1 PUSH1 0x2 DUP9 MUL ADD DUP9 SSTORE POP POP POP JUMPDEST POP POP POP POP POP POP JUMP JUMPDEST PUSH0 PUSH1 0x60 DUP3 ADD SWAP1 POP PUSH2 0xC7E PUSH0 DUP4 ADD DUP7 PUSH2 0x8D7 JUMP JUMPDEST DUP2 DUP2 SUB PUSH1 0x20 DUP4 ADD MSTORE PUSH2 0xC90 DUP2 DUP6 PUSH2 0x89F JUMP JUMPDEST SWAP1 POP PUSH2 0xC9F PUSH1 0x40 DUP4 ADD DUP5 PUSH2 0x8D7 JUMP JUMPDEST SWAP5 SWAP4 POP POP POP POP JUMP JUMPDEST PUSH32 0x4F6E6C79206F776E65722063616E2072656D6F7665207468652070726F706572 PUSH0 DUP3 ADD MSTORE PUSH32 0x7479000000000000000000000000000000000000000000000000000000000000 PUSH1 0x20 DUP3 ADD MSTORE POP JUMP JUMPDEST PUSH0 PUSH2 0xD01 PUSH1 0x22 DUP4 PUSH2 0x881 JUMP JUMPDEST SWAP2 POP PUSH2 0xD0C DUP3 PUSH2 0xCA7 JUMP JUMPDEST PUSH1 0x40 DUP3 ADD SWAP1 POP SWAP2 SWAP1 POP JUMP JUMPDEST PUSH0 PUSH1 0x20 DUP3 ADD SWAP1 POP DUP2 DUP2 SUB PUSH0 DUP4 ADD MSTORE PUSH2 0xD2E DUP2 PUSH2 0xCF5 JUMP JUMPDEST SWAP1 POP SWAP2 SWAP1 POP JUMP JUMPDEST PUSH0 PUSH1 0x20 DUP3 ADD SWAP1 POP PUSH2 0xD48 PUSH0 DUP4 ADD DUP5 PUSH2 0x8D7 JUMP JUMPDEST SWAP3 SWAP2 POP POP JUMP JUMPDEST PUSH32 0x50726F706572747920616C726561647920657869737473000000000000000000 PUSH0 DUP3 ADD MSTORE POP JUMP JUMPDEST PUSH0 PUSH2 0xD82 PUSH1 0x17 DUP4 PUSH2 0x881 JUMP JUMPDEST SWAP2 POP PUSH2 0xD8D DUP3 PUSH2 0xD4E JUMP JUMPDEST PUSH1 0x20 DUP3 ADD SWAP1 POP SWAP2 SWAP1 POP JUMP JUMPDEST PUSH0 PUSH1 0x20 DUP3 ADD SWAP1 POP DUP2 DUP2 SUB PUSH0 DUP4 ADD MSTORE PUSH2 0xDAF DUP2 PUSH2 0xD76 JUMP JUMPDEST SWAP1 POP SWAP2 SWAP1 POP JUMP JUMPDEST PUSH0 PUSH20 0xFFFFFFFFFFFFFFFFFFFFFFFFFFFFFFFFFFFFFFFF DUP3 AND SWAP1 POP SWAP2 SWAP1 POP JUMP JUMPDEST PUSH0 PUSH2 0xDDF DUP3 PUSH2 0xDB6 JUMP JUMPDEST SWAP1 POP SWAP2 SWAP1 POP JUMP JUMPDEST PUSH2 0xDEF DUP2 PUSH2 0xDD5 JUMP JUMPDEST DUP3 MSTORE POP POP JUMP JUMPDEST PUSH0 PUSH1 0x80 DUP3 ADD SWAP1 POP PUSH2 0xE08 PUSH0 DUP4 ADD DUP8 PUSH2 0x8D7 JUMP JUMPDEST DUP2 DUP2 SUB PUSH1 0x20 DUP4 ADD MSTORE PUSH2 0xE1A DUP2 DUP7 PUSH2 0x89F JUMP JUMPDEST SWAP1 POP PUSH2 0xE29 PUSH1 0x40 DUP4 ADD DUP6 PUSH2 0x8D7 JUMP JUMPDEST PUSH2 0xE36 PUSH1 0x60 DUP4 ADD DUP5 PUSH2 0xDE6 JUMP JUMPDEST SWAP6 SWAP5 POP POP POP POP POP JUMP INVALID LOG2 PUSH5 0x6970667358 0x22 SLT KECCAK256 DUP4 SGT CREATE PUSH21 0xA3E270CA27707EB7B0B921902A42D0DE6CA5C8288E 0x4B MCOPY SAR 0x1E PUSH5 0x51C464736F PUSH13 0x634300081A0033000000000000 "
				},
				"gasEstimates": {
					"creation": {
						"codeDepositCost": "740200",
						"executionCost": "771",
						"totalCost": "740971"
					},
					"external": {
						"addProperty(uint256,string,uint256)": "infinite",
						"getProperty(uint256)": "infinite",
						"removeProperty(uint256)": "infinite",
						"updateProperty(uint256,string,uint256)": "infinite"
					}
				},
				"methodIdentifiers": {
					"addProperty(uint256,string,uint256)": "fe93ba09",
					"getProperty(uint256)": "32665ffb",
					"removeProperty(uint256)": "bc43d06f",
					"updateProperty(uint256,string,uint256)": "2d64c60a"
				}
			},
			"storageLayout": {
				"storage": [
					{
						"astId": 15,
						"contract": "contracts/18_New_ PropertyContract.sol:PropertyContract",
						"label": "properties",
						"offset": 0,
						"slot": "0",
						"type": "t_mapping(t_uint256,t_struct(Property)10_storage)"
					},
					{
						"astId": 18,
						"contract": "contracts/18_New_ PropertyContract.sol:PropertyContract",
						"label": "propertyIds",
						"offset": 0,
						"slot": "1",
						"type": "t_array(t_uint256)dyn_storage"
					}
				],
				"types": {
					"t_address": {
						"encoding": "inplace",
						"label": "address",
						"numberOfBytes": "20"
					},
					"t_array(t_uint256)dyn_storage": {
						"base": "t_uint256",
						"encoding": "dynamic_array",
						"label": "uint256[]",
						"numberOfBytes": "32"
					},
					"t_mapping(t_uint256,t_struct(Property)10_storage)": {
						"encoding": "mapping",
						"key": "t_uint256",
						"label": "mapping(uint256 => struct PropertyContract.Property)",
						"numberOfBytes": "32",
						"value": "t_struct(Property)10_storage"
					},
					"t_string_storage": {
						"encoding": "bytes",
						"label": "string",
						"numberOfBytes": "32"
					},
					"t_struct(Property)10_storage": {
						"encoding": "inplace",
						"label": "struct PropertyContract.Property",
						"members": [
							{
								"astId": 3,
								"contract": "contracts/18_New_ PropertyContract.sol:PropertyContract",
								"label": "propertyId",
								"offset": 0,
								"slot": "0",
								"type": "t_uint256"
							},
							{
								"astId": 5,
								"contract": "contracts/18_New_ PropertyContract.sol:PropertyContract",
								"label": "propertyDetails",
								"offset": 0,
								"slot": "1",
								"type": "t_string_storage"
							},
							{
								"astId": 7,
								"contract": "contracts/18_New_ PropertyContract.sol:PropertyContract",
								"label": "price",
								"offset": 0,
								"slot": "2",
								"type": "t_uint256"
							},
							{
								"astId": 9,
								"contract": "contracts/18_New_ PropertyContract.sol:PropertyContract",
								"label": "owner",
								"offset": 0,
								"slot": "3",
								"type": "t_address"
							}
						],
						"numberOfBytes": "128"
					},
					"t_uint256": {
						"encoding": "inplace",
						"label": "uint256",
						"numberOfBytes": "32"
					}
				}
			},
			"userdoc": {
				"kind": "user",
				"methods": {},
				"version": 1
			}
		}
	}
}