{
	"data": {
		"bytecode": {
			"linkReferences": {},
			"object": "6080604052348015600e575f80fd5b50610aec8061001c5f395ff3fe608060405234801561000f575f80fd5b5060043610610034575f3560e01c8063cf51b45d14610038578063fd5234db14610054575b5f80fd5b610052600480360381019061004d91906104d2565b610070565b005b61006e60048036038101906100699190610586565b61014d565b005b5f805f8481526020019081526020015f205f0154036100c4576040517f08c379a00000000000000000000000000000000000000000000000000000000081526004016100bb90610673565b60405180910390fd5b60015f808481526020019081526020015f206005015f6101000a81548160ff021916908315150217905550805f808481526020019081526020015f20600601908161010f9190610895565b507f831764ac02a33c193cba23a0de34c986e9b50402bf3c9febf6ff2f63d4c0435d82826040516101419291906109b9565b60405180910390a15050565b5f805f8781526020019081526020015f205f0154146101a1576040517f08c379a000000000000000000000000000000000000000000000000000000000815260040161019890610a31565b60405180910390fd5b6040518060e001604052808681526020018581526020018473ffffffffffffffffffffffffffffffffffffffff1681526020018373ffffffffffffffffffffffffffffffffffffffff1681526020018281526020015f1515815260200160405180602001604052805f8152508152505f808781526020019081526020015f205f820151815f0155602082015181600101556040820151816002015f6101000a81548173ffffffffffffffffffffffffffffffffffffffff021916908373ffffffffffffffffffffffffffffffffffffffff1602179055506060820151816003015f6101000a81548173ffffffffffffffffffffffffffffffffffffffff021916908373ffffffffffffffffffffffffffffffffffffffff16021790555060808201518160040190816102d39190610895565b5060a0820151816005015f6101000a81548160ff02191690831515021790555060c08201518160060190816103089190610895565b509050507f0d5a23e6b70d1d58f8d2fe7d4f3c5da682f90b2493dc02b6ca3842690c8a7ac28585858585604051610343959493929190610a5e565b60405180910390a15050505050565b5f604051905090565b5f80fd5b5f80fd5b5f819050919050565b61037581610363565b811461037f575f80fd5b50565b5f813590506103908161036c565b92915050565b5f80fd5b5f80fd5b5f601f19601f8301169050919050565b7f4e487b71000000000000000000000000000000000000000000000000000000005f52604160045260245ffd5b6103e48261039e565b810181811067ffffffffffffffff82111715610403576104026103ae565b5b80604052505050565b5f610415610352565b905061042182826103db565b919050565b5f67ffffffffffffffff8211156104405761043f6103ae565b5b6104498261039e565b9050602081019050919050565b828183375f83830152505050565b5f61047661047184610426565b61040c565b9050828152602081018484840111156104925761049161039a565b5b61049d848285610456565b509392505050565b5f82601f8301126104b9576104b8610396565b5b81356104c9848260208601610464565b91505092915050565b5f80604083850312156104e8576104e761035b565b5b5f6104f585828601610382565b925050602083013567ffffffffffffffff8111156105165761051561035f565b5b610522858286016104a5565b9150509250929050565b5f73ffffffffffffffffffffffffffffffffffffffff82169050919050565b5f6105558261052c565b9050919050565b6105658161054b565b811461056f575f80fd5b50565b5f813590506105808161055c565b92915050565b5f805f805f60a0868803121561059f5761059e61035b565b5b5f6105ac88828901610382565b95505060206105bd88828901610382565b94505060406105ce88828901610572565b93505060606105df88828901610572565b925050608086013567ffffffffffffffff811115610600576105ff61035f565b5b61060c888289016104a5565b9150509295509295909350565b5f82825260208201905092915050565b7f4469737075746520646f6573206e6f74206578697374000000000000000000005f82015250565b5f61065d601683610619565b915061066882610629565b602082019050919050565b5f6020820190508181035f83015261068a81610651565b9050919050565b5f81519050919050565b7f4e487b71000000000000000000000000000000000000000000000000000000005f52602260045260245ffd5b5f60028204905060018216806106df57607f821691505b6020821081036106f2576106f161069b565b5b50919050565b5f819050815f5260205f209050919050565b5f6020601f8301049050919050565b5f82821b905092915050565b5f600883026107547fffffffffffffffffffffffffffffffffffffffffffffffffffffffffffffffff82610719565b61075e8683610719565b95508019841693508086168417925050509392505050565b5f819050919050565b5f61079961079461078f84610363565b610776565b610363565b9050919050565b5f819050919050565b6107b28361077f565b6107c66107be826107a0565b848454610725565b825550505050565b5f90565b6107da6107ce565b6107e58184846107a9565b505050565b5b81811015610808576107fd5f826107d2565b6001810190506107eb565b5050565b601f82111561084d5761081e816106f8565b6108278461070a565b81016020851015610836578190505b61084a6108428561070a565b8301826107ea565b50505b505050565b5f82821c905092915050565b5f61086d5f1984600802610852565b1980831691505092915050565b5f610885838361085e565b9150826002028217905092915050565b61089e82610691565b67ffffffffffffffff8111156108b7576108b66103ae565b5b6108c182546106c8565b6108cc82828561080c565b5f60209050601f8311600181146108fd575f84156108eb578287015190505b6108f5858261087a565b86555061095c565b601f19841661090b866106f8565b5f5b828110156109325784890151825560018201915060208501945060208101905061090d565b8683101561094f578489015161094b601f89168261085e565b8355505b6001600288020188555050505b505050505050565b61096d81610363565b82525050565b8281835e5f83830152505050565b5f61098b82610691565b6109958185610619565b93506109a5818560208601610973565b6109ae8161039e565b840191505092915050565b5f6040820190506109cc5f830185610964565b81810360208301526109de8184610981565b90509392505050565b7f4469737075746520616c726561647920657869737473000000000000000000005f82015250565b5f610a1b601683610619565b9150610a26826109e7565b602082019050919050565b5f6020820190508181035f830152610a4881610a0f565b9050919050565b610a588161054b565b82525050565b5f60a082019050610a715f830188610964565b610a7e6020830187610964565b610a8b6040830186610a4f565b610a986060830185610a4f565b8181036080830152610aaa8184610981565b9050969550505050505056fea26469706673582212200a79805fe0d3b8ead16f90c052a38fe1afc0aa2484eeadbcc2670b991c2deaf264736f6c634300081a0033",
			"opcodes": "PUSH1 0x80 PUSH1 0x40 MSTORE CALLVALUE DUP1 ISZERO PUSH1 0xE JUMPI PUSH0 DUP1 REVERT JUMPDEST POP PUSH2 0xAEC DUP1 PUSH2 0x1C PUSH0 CODECOPY PUSH0 RETURN INVALID PUSH1 0x80 PUSH1 0x40 MSTORE CALLVALUE DUP1 ISZERO PUSH2 0xF JUMPI PUSH0 DUP1 REVERT JUMPDEST POP PUSH1 0x4 CALLDATASIZE LT PUSH2 0x34 JUMPI PUSH0 CALLDATALOAD PUSH1 0xE0 SHR DUP1 PUSH4 0xCF51B45D EQ PUSH2 0x38 JUMPI DUP1 PUSH4 0xFD5234DB EQ PUSH2 0x54 JUMPI JUMPDEST PUSH0 DUP1 REVERT JUMPDEST PUSH2 0x52 PUSH1 0x4 DUP1 CALLDATASIZE SUB DUP2 ADD SWAP1 PUSH2 0x4D SWAP2 SWAP1 PUSH2 0x4D2 JUMP JUMPDEST PUSH2 0x70 JUMP JUMPDEST STOP JUMPDEST PUSH2 0x6E PUSH1 0x4 DUP1 CALLDATASIZE SUB DUP2 ADD SWAP1 PUSH2 0x69 SWAP2 SWAP1 PUSH2 0x586 JUMP JUMPDEST PUSH2 0x14D JUMP JUMPDEST STOP JUMPDEST PUSH0 DUP1 PUSH0 DUP5 DUP2 MSTORE PUSH1 0x20 ADD SWAP1 DUP2 MSTORE PUSH1 0x20 ADD PUSH0 KECCAK256 PUSH0 ADD SLOAD SUB PUSH2 0xC4 JUMPI PUSH1 0x40 MLOAD PUSH32 0x8C379A000000000000000000000000000000000000000000000000000000000 DUP2 MSTORE PUSH1 0x4 ADD PUSH2 0xBB SWAP1 PUSH2 0x673 JUMP JUMPDEST PUSH1 0x40 MLOAD DUP1 SWAP2 SUB SWAP1 REVERT JUMPDEST PUSH1 0x1 PUSH0 DUP1 DUP5 DUP2 MSTORE PUSH1 0x20 ADD SWAP1 DUP2 MSTORE PUSH1 0x20 ADD PUSH0 KECCAK256 PUSH1 0x5 ADD PUSH0 PUSH2 0x100 EXP DUP2 SLOAD DUP2 PUSH1 0xFF MUL NOT AND SWAP1 DUP4 ISZERO ISZERO MUL OR SWAP1 SSTORE POP DUP1 PUSH0 DUP1 DUP5 DUP2 MSTORE PUSH1 0x20 ADD SWAP1 DUP2 MSTORE PUSH1 0x20 ADD PUSH0 KECCAK256 PUSH1 0x6 ADD SWAP1 DUP2 PUSH2 0x10F SWAP2 SWAP1 PUSH2 0x895 JUMP JUMPDEST POP PUSH32 0x831764AC02A33C193CBA23A0DE34C986E9B50402BF3C9FEBF6FF2F63D4C0435D DUP3 DUP3 PUSH1 0x40 MLOAD PUSH2 0x141 SWAP3 SWAP2 SWAP1 PUSH2 0x9B9 JUMP JUMPDEST PUSH1 0x40 MLOAD DUP1 SWAP2 SUB SWAP1 LOG1 POP POP JUMP JUMPDEST PUSH0 DUP1 PUSH0 DUP8 DUP2 MSTORE PUSH1 0x20 ADD SWAP1 DUP2 MSTORE PUSH1 0x20 ADD PUSH0 KECCAK256 PUSH0 ADD SLOAD EQ PUSH2 0x1A1 JUMPI PUSH1 0x40 MLOAD PUSH32 0x8C379A000000000000000000000000000000000000000000000000000000000 DUP2 MSTORE PUSH1 0x4 ADD PUSH2 0x198 SWAP1 PUSH2 0xA31 JUMP JUMPDEST PUSH1 0x40 MLOAD DUP1 SWAP2 SUB SWAP1 REVERT JUMPDEST PUSH1 0x40 MLOAD DUP1 PUSH1 0xE0 ADD PUSH1 0x40 MSTORE DUP1 DUP7 DUP2 MSTORE PUSH1 0x20 ADD DUP6 DUP2 MSTORE PUSH1 0x20 ADD DUP5 PUSH20 0xFFFFFFFFFFFFFFFFFFFFFFFFFFFFFFFFFFFFFFFF AND DUP2 MSTORE PUSH1 0x20 ADD DUP4 PUSH20 0xFFFFFFFFFFFFFFFFFFFFFFFFFFFFFFFFFFFFFFFF AND DUP2 MSTORE PUSH1 0x20 ADD DUP3 DUP2 MSTORE PUSH1 0x20 ADD PUSH0 ISZERO ISZERO DUP2 MSTORE PUSH1 0x20 ADD PUSH1 0x40 MLOAD DUP1 PUSH1 0x20 ADD PUSH1 0x40 MSTORE DUP1 PUSH0 DUP2 MSTORE POP DUP2 MSTORE POP PUSH0 DUP1 DUP8 DUP2 MSTORE PUSH1 0x20 ADD SWAP1 DUP2 MSTORE PUSH1 0x20 ADD PUSH0 KECCAK256 PUSH0 DUP3 ADD MLOAD DUP2 PUSH0 ADD SSTORE PUSH1 0x20 DUP3 ADD MLOAD DUP2 PUSH1 0x1 ADD SSTORE PUSH1 0x40 DUP3 ADD MLOAD DUP2 PUSH1 0x2 ADD PUSH0 PUSH2 0x100 EXP DUP2 SLOAD DUP2 PUSH20 0xFFFFFFFFFFFFFFFFFFFFFFFFFFFFFFFFFFFFFFFF MUL NOT AND SWAP1 DUP4 PUSH20 0xFFFFFFFFFFFFFFFFFFFFFFFFFFFFFFFFFFFFFFFF AND MUL OR SWAP1 SSTORE POP PUSH1 0x60 DUP3 ADD MLOAD DUP2 PUSH1 0x3 ADD PUSH0 PUSH2 0x100 EXP DUP2 SLOAD DUP2 PUSH20 0xFFFFFFFFFFFFFFFFFFFFFFFFFFFFFFFFFFFFFFFF MUL NOT AND SWAP1 DUP4 PUSH20 0xFFFFFFFFFFFFFFFFFFFFFFFFFFFFFFFFFFFFFFFF AND MUL OR SWAP1 SSTORE POP PUSH1 0x80 DUP3 ADD MLOAD DUP2 PUSH1 0x4 ADD SWAP1 DUP2 PUSH2 0x2D3 SWAP2 SWAP1 PUSH2 0x895 JUMP JUMPDEST POP PUSH1 0xA0 DUP3 ADD MLOAD DUP2 PUSH1 0x5 ADD PUSH0 PUSH2 0x100 EXP DUP2 SLOAD DUP2 PUSH1 0xFF MUL NOT AND SWAP1 DUP4 ISZERO ISZERO MUL OR SWAP1 SSTORE POP PUSH1 0xC0 DUP3 ADD MLOAD DUP2 PUSH1 0x6 ADD SWAP1 DUP2 PUSH2 0x308 SWAP2 SWAP1 PUSH2 0x895 JUMP JUMPDEST POP SWAP1 POP POP PUSH32 0xD5A23E6B70D1D58F8D2FE7D4F3C5DA682F90B2493DC02B6CA3842690C8A7AC2 DUP6 DUP6 DUP6 DUP6 DUP6 PUSH1 0x40 MLOAD PUSH2 0x343 SWAP6 SWAP5 SWAP4 SWAP3 SWAP2 SWAP1 PUSH2 0xA5E JUMP JUMPDEST PUSH1 0x40 MLOAD DUP1 SWAP2 SUB SWAP1 LOG1 POP POP POP POP POP JUMP JUMPDEST PUSH0 PUSH1 0x40 MLOAD SWAP1 POP SWAP1 JUMP JUMPDEST PUSH0 DUP1 REVERT JUMPDEST PUSH0 DUP1 REVERT JUMPDEST PUSH0 DUP2 SWAP1 POP SWAP2 SWAP1 POP JUMP JUMPDEST PUSH2 0x375 DUP2 PUSH2 0x363 JUMP JUMPDEST DUP2 EQ PUSH2 0x37F JUMPI PUSH0 DUP1 REVERT JUMPDEST POP JUMP JUMPDEST PUSH0 DUP2 CALLDATALOAD SWAP1 POP PUSH2 0x390 DUP2 PUSH2 0x36C JUMP JUMPDEST SWAP3 SWAP2 POP POP JUMP JUMPDEST PUSH0 DUP1 REVERT JUMPDEST PUSH0 DUP1 REVERT JUMPDEST PUSH0 PUSH1 0x1F NOT PUSH1 0x1F DUP4 ADD AND SWAP1 POP SWAP2 SWAP1 POP JUMP JUMPDEST PUSH32 0x4E487B7100000000000000000000000000000000000000000000000000000000 PUSH0 MSTORE PUSH1 0x41 PUSH1 0x4 MSTORE PUSH1 0x24 PUSH0 REVERT JUMPDEST PUSH2 0x3E4 DUP3 PUSH2 0x39E JUMP JUMPDEST DUP2 ADD DUP2 DUP2 LT PUSH8 0xFFFFFFFFFFFFFFFF DUP3 GT OR ISZERO PUSH2 0x403 JUMPI PUSH2 0x402 PUSH2 0x3AE JUMP JUMPDEST JUMPDEST DUP1 PUSH1 0x40 MSTORE POP POP POP JUMP JUMPDEST PUSH0 PUSH2 0x415 PUSH2 0x352 JUMP JUMPDEST SWAP1 POP PUSH2 0x421 DUP3 DUP3 PUSH2 0x3DB JUMP JUMPDEST SWAP2 SWAP1 POP JUMP JUMPDEST PUSH0 PUSH8 0xFFFFFFFFFFFFFFFF DUP3 GT ISZERO PUSH2 0x440 JUMPI PUSH2 0x43F PUSH2 0x3AE JUMP JUMPDEST JUMPDEST PUSH2 0x449 DUP3 PUSH2 0x39E JUMP JUMPDEST SWAP1 POP PUSH1 0x20 DUP2 ADD SWAP1 POP SWAP2 SWAP1 POP JUMP JUMPDEST DUP3 DUP2 DUP4 CALLDATACOPY PUSH0 DUP4 DUP4 ADD MSTORE POP POP POP JUMP JUMPDEST PUSH0 PUSH2 0x476 PUSH2 0x471 DUP5 PUSH2 0x426 JUMP JUMPDEST PUSH2 0x40C JUMP JUMPDEST SWAP1 POP DUP3 DUP2 MSTORE PUSH1 0x20 DUP2 ADD DUP5 DUP5 DUP5 ADD GT ISZERO PUSH2 0x492 JUMPI PUSH2 0x491 PUSH2 0x39A JUMP JUMPDEST JUMPDEST PUSH2 0x49D DUP5 DUP3 DUP6 PUSH2 0x456 JUMP JUMPDEST POP SWAP4 SWAP3 POP POP POP JUMP JUMPDEST PUSH0 DUP3 PUSH1 0x1F DUP4 ADD SLT PUSH2 0x4B9 JUMPI PUSH2 0x4B8 PUSH2 0x396 JUMP JUMPDEST JUMPDEST DUP2 CALLDATALOAD PUSH2 0x4C9 DUP5 DUP3 PUSH1 0x20 DUP7 ADD PUSH2 0x464 JUMP JUMPDEST SWAP2 POP POP SWAP3 SWAP2 POP POP JUMP JUMPDEST PUSH0 DUP1 PUSH1 0x40 DUP4 DUP6 SUB SLT ISZERO PUSH2 0x4E8 JUMPI PUSH2 0x4E7 PUSH2 0x35B JUMP JUMPDEST JUMPDEST PUSH0 PUSH2 0x4F5 DUP6 DUP3 DUP7 ADD PUSH2 0x382 JUMP JUMPDEST SWAP3 POP POP PUSH1 0x20 DUP4 ADD CALLDATALOAD PUSH8 0xFFFFFFFFFFFFFFFF DUP2 GT ISZERO PUSH2 0x516 JUMPI PUSH2 0x515 PUSH2 0x35F JUMP JUMPDEST JUMPDEST PUSH2 0x522 DUP6 DUP3 DUP7 ADD PUSH2 0x4A5 JUMP JUMPDEST SWAP2 POP POP SWAP3 POP SWAP3 SWAP1 POP JUMP JUMPDEST PUSH0 PUSH20 0xFFFFFFFFFFFFFFFFFFFFFFFFFFFFFFFFFFFFFFFF DUP3 AND SWAP1 POP SWAP2 SWAP1 POP JUMP JUMPDEST PUSH0 PUSH2 0x555 DUP3 PUSH2 0x52C JUMP JUMPDEST SWAP1 POP SWAP2 SWAP1 POP JUMP JUMPDEST PUSH2 0x565 DUP2 PUSH2 0x54B JUMP JUMPDEST DUP2 EQ PUSH2 0x56F JUMPI PUSH0 DUP1 REVERT JUMPDEST POP JUMP JUMPDEST PUSH0 DUP2 CALLDATALOAD SWAP1 POP PUSH2 0x580 DUP2 PUSH2 0x55C JUMP JUMPDEST SWAP3 SWAP2 POP POP JUMP JUMPDEST PUSH0 DUP1 PUSH0 DUP1 PUSH0 PUSH1 0xA0 DUP7 DUP9 SUB SLT ISZERO PUSH2 0x59F JUMPI PUSH2 0x59E PUSH2 0x35B JUMP JUMPDEST JUMPDEST PUSH0 PUSH2 0x5AC DUP9 DUP3 DUP10 ADD PUSH2 0x382 JUMP JUMPDEST SWAP6 POP POP PUSH1 0x20 PUSH2 0x5BD DUP9 DUP3 DUP10 ADD PUSH2 0x382 JUMP JUMPDEST SWAP5 POP POP PUSH1 0x40 PUSH2 0x5CE DUP9 DUP3 DUP10 ADD PUSH2 0x572 JUMP JUMPDEST SWAP4 POP POP PUSH1 0x60 PUSH2 0x5DF DUP9 DUP3 DUP10 ADD PUSH2 0x572 JUMP JUMPDEST SWAP3 POP POP PUSH1 0x80 DUP7 ADD CALLDATALOAD PUSH8 0xFFFFFFFFFFFFFFFF DUP2 GT ISZERO PUSH2 0x600 JUMPI PUSH2 0x5FF PUSH2 0x35F JUMP JUMPDEST JUMPDEST PUSH2 0x60C DUP9 DUP3 DUP10 ADD PUSH2 0x4A5 JUMP JUMPDEST SWAP2 POP POP SWAP3 SWAP6 POP SWAP3 SWAP6 SWAP1 SWAP4 POP JUMP JUMPDEST PUSH0 DUP3 DUP3 MSTORE PUSH1 0x20 DUP3 ADD SWAP1 POP SWAP3 SWAP2 POP POP JUMP JUMPDEST PUSH32 0x4469737075746520646F6573206E6F7420657869737400000000000000000000 PUSH0 DUP3 ADD MSTORE POP JUMP JUMPDEST PUSH0 PUSH2 0x65D PUSH1 0x16 DUP4 PUSH2 0x619 JUMP JUMPDEST SWAP2 POP PUSH2 0x668 DUP3 PUSH2 0x629 JUMP JUMPDEST PUSH1 0x20 DUP3 ADD SWAP1 POP SWAP2 SWAP1 POP JUMP JUMPDEST PUSH0 PUSH1 0x20 DUP3 ADD SWAP1 POP DUP2 DUP2 SUB PUSH0 DUP4 ADD MSTORE PUSH2 0x68A DUP2 PUSH2 0x651 JUMP JUMPDEST SWAP1 POP SWAP2 SWAP1 POP JUMP JUMPDEST PUSH0 DUP2 MLOAD SWAP1 POP SWAP2 SWAP1 POP JUMP JUMPDEST PUSH32 0x4E487B7100000000000000000000000000000000000000000000000000000000 PUSH0 MSTORE PUSH1 0x22 PUSH1 0x4 MSTORE PUSH1 0x24 PUSH0 REVERT JUMPDEST PUSH0 PUSH1 0x2 DUP3 DIV SWAP1 POP PUSH1 0x1 DUP3 AND DUP1 PUSH2 0x6DF JUMPI PUSH1 0x7F DUP3 AND SWAP2 POP JUMPDEST PUSH1 0x20 DUP3 LT DUP2 SUB PUSH2 0x6F2 JUMPI PUSH2 0x6F1 PUSH2 0x69B JUMP JUMPDEST JUMPDEST POP SWAP2 SWAP1 POP JUMP JUMPDEST PUSH0 DUP2 SWAP1 POP DUP2 PUSH0 MSTORE PUSH1 0x20 PUSH0 KECCAK256 SWAP1 POP SWAP2 SWAP1 POP JUMP JUMPDEST PUSH0 PUSH1 0x20 PUSH1 0x1F DUP4 ADD DIV SWAP1 POP SWAP2 SWAP1 POP JUMP JUMPDEST PUSH0 DUP3 DUP3 SHL SWAP1 POP SWAP3 SWAP2 POP POP JUMP JUMPDEST PUSH0 PUSH1 0x8 DUP4 MUL PUSH2 0x754 PUSH32 0xFFFFFFFFFFFFFFFFFFFFFFFFFFFFFFFFFFFFFFFFFFFFFFFFFFFFFFFFFFFFFFFF DUP3 PUSH2 0x719 JUMP JUMPDEST PUSH2 0x75E DUP7 DUP4 PUSH2 0x719 JUMP JUMPDEST SWAP6 POP DUP1 NOT DUP5 AND SWAP4 POP DUP1 DUP7 AND DUP5 OR SWAP3 POP POP POP SWAP4 SWAP3 POP POP POP JUMP JUMPDEST PUSH0 DUP2 SWAP1 POP SWAP2 SWAP1 POP JUMP JUMPDEST PUSH0 PUSH2 0x799 PUSH2 0x794 PUSH2 0x78F DUP5 PUSH2 0x363 JUMP JUMPDEST PUSH2 0x776 JUMP JUMPDEST PUSH2 0x363 JUMP JUMPDEST SWAP1 POP SWAP2 SWAP1 POP JUMP JUMPDEST PUSH0 DUP2 SWAP1 POP SWAP2 SWAP1 POP JUMP JUMPDEST PUSH2 0x7B2 DUP4 PUSH2 0x77F JUMP JUMPDEST PUSH2 0x7C6 PUSH2 0x7BE DUP3 PUSH2 0x7A0 JUMP JUMPDEST DUP5 DUP5 SLOAD PUSH2 0x725 JUMP JUMPDEST DUP3 SSTORE POP POP POP POP JUMP JUMPDEST PUSH0 SWAP1 JUMP JUMPDEST PUSH2 0x7DA PUSH2 0x7CE JUMP JUMPDEST PUSH2 0x7E5 DUP2 DUP5 DUP5 PUSH2 0x7A9 JUMP JUMPDEST POP POP POP JUMP JUMPDEST JUMPDEST DUP2 DUP2 LT ISZERO PUSH2 0x808 JUMPI PUSH2 0x7FD PUSH0 DUP3 PUSH2 0x7D2 JUMP JUMPDEST PUSH1 0x1 DUP2 ADD SWAP1 POP PUSH2 0x7EB JUMP JUMPDEST POP POP JUMP JUMPDEST PUSH1 0x1F DUP3 GT ISZERO PUSH2 0x84D JUMPI PUSH2 0x81E DUP2 PUSH2 0x6F8 JUMP JUMPDEST PUSH2 0x827 DUP5 PUSH2 0x70A JUMP JUMPDEST DUP2 ADD PUSH1 0x20 DUP6 LT ISZERO PUSH2 0x836 JUMPI DUP2 SWAP1 POP JUMPDEST PUSH2 0x84A PUSH2 0x842 DUP6 PUSH2 0x70A JUMP JUMPDEST DUP4 ADD DUP3 PUSH2 0x7EA JUMP JUMPDEST POP POP JUMPDEST POP POP POP JUMP JUMPDEST PUSH0 DUP3 DUP3 SHR SWAP1 POP SWAP3 SWAP2 POP POP JUMP JUMPDEST PUSH0 PUSH2 0x86D PUSH0 NOT DUP5 PUSH1 0x8 MUL PUSH2 0x852 JUMP JUMPDEST NOT DUP1 DUP4 AND SWAP2 POP POP SWAP3 SWAP2 POP POP JUMP JUMPDEST PUSH0 PUSH2 0x885 DUP4 DUP4 PUSH2 0x85E JUMP JUMPDEST SWAP2 POP DUP3 PUSH1 0x2 MUL DUP3 OR SWAP1 POP SWAP3 SWAP2 POP POP JUMP JUMPDEST PUSH2 0x89E DUP3 PUSH2 0x691 JUMP JUMPDEST PUSH8 0xFFFFFFFFFFFFFFFF DUP2 GT ISZERO PUSH2 0x8B7 JUMPI PUSH2 0x8B6 PUSH2 0x3AE JUMP JUMPDEST JUMPDEST PUSH2 0x8C1 DUP3 SLOAD PUSH2 0x6C8 JUMP JUMPDEST PUSH2 0x8CC DUP3 DUP3 DUP6 PUSH2 0x80C JUMP JUMPDEST PUSH0 PUSH1 0x20 SWAP1 POP PUSH1 0x1F DUP4 GT PUSH1 0x1 DUP2 EQ PUSH2 0x8FD JUMPI PUSH0 DUP5 ISZERO PUSH2 0x8EB JUMPI DUP3 DUP8 ADD MLOAD SWAP1 POP JUMPDEST PUSH2 0x8F5 DUP6 DUP3 PUSH2 0x87A JUMP JUMPDEST DUP7 SSTORE POP PUSH2 0x95C JUMP JUMPDEST PUSH1 0x1F NOT DUP5 AND PUSH2 0x90B DUP7 PUSH2 0x6F8 JUMP JUMPDEST PUSH0 JUMPDEST DUP3 DUP2 LT ISZERO PUSH2 0x932 JUMPI DUP5 DUP10 ADD MLOAD DUP3 SSTORE PUSH1 0x1 DUP3 ADD SWAP2 POP PUSH1 0x20 DUP6 ADD SWAP5 POP PUSH1 0x20 DUP2 ADD SWAP1 POP PUSH2 0x90D JUMP JUMPDEST DUP7 DUP4 LT ISZERO PUSH2 0x94F JUMPI DUP5 DUP10 ADD MLOAD PUSH2 0x94B PUSH1 0x1F DUP10 AND DUP3 PUSH2 0x85E JUMP JUMPDEST DUP4 SSTORE POP JUMPDEST PUSH1 0x1 PUSH1 0x2 DUP9 MUL ADD DUP9 SSTORE POP POP POP JUMPDEST POP POP POP POP POP POP JUMP JUMPDEST PUSH2 0x96D DUP2 PUSH2 0x363 JUMP JUMPDEST DUP3 MSTORE POP POP JUMP JUMPDEST DUP3 DUP2 DUP4 MCOPY PUSH0 DUP4 DUP4 ADD MSTORE POP POP POP JUMP JUMPDEST PUSH0 PUSH2 0x98B DUP3 PUSH2 0x691 JUMP JUMPDEST PUSH2 0x995 DUP2 DUP6 PUSH2 0x619 JUMP JUMPDEST SWAP4 POP PUSH2 0x9A5 DUP2 DUP6 PUSH1 0x20 DUP7 ADD PUSH2 0x973 JUMP JUMPDEST PUSH2 0x9AE DUP2 PUSH2 0x39E JUMP JUMPDEST DUP5 ADD SWAP2 POP POP SWAP3 SWAP2 POP POP JUMP JUMPDEST PUSH0 PUSH1 0x40 DUP3 ADD SWAP1 POP PUSH2 0x9CC PUSH0 DUP4 ADD DUP6 PUSH2 0x964 JUMP JUMPDEST DUP2 DUP2 SUB PUSH1 0x20 DUP4 ADD MSTORE PUSH2 0x9DE DUP2 DUP5 PUSH2 0x981 JUMP JUMPDEST SWAP1 POP SWAP4 SWAP3 POP POP POP JUMP JUMPDEST PUSH32 0x4469737075746520616C72656164792065786973747300000000000000000000 PUSH0 DUP3 ADD MSTORE POP JUMP JUMPDEST PUSH0 PUSH2 0xA1B PUSH1 0x16 DUP4 PUSH2 0x619 JUMP JUMPDEST SWAP2 POP PUSH2 0xA26 DUP3 PUSH2 0x9E7 JUMP JUMPDEST PUSH1 0x20 DUP3 ADD SWAP1 POP SWAP2 SWAP1 POP JUMP JUMPDEST PUSH0 PUSH1 0x20 DUP3 ADD SWAP1 POP DUP2 DUP2 SUB PUSH0 DUP4 ADD MSTORE PUSH2 0xA48 DUP2 PUSH2 0xA0F JUMP JUMPDEST SWAP1 POP SWAP2 SWAP1 POP JUMP JUMPDEST PUSH2 0xA58 DUP2 PUSH2 0x54B JUMP JUMPDEST DUP3 MSTORE POP POP JUMP JUMPDEST PUSH0 PUSH1 0xA0 DUP3 ADD SWAP1 POP PUSH2 0xA71 PUSH0 DUP4 ADD DUP9 PUSH2 0x964 JUMP JUMPDEST PUSH2 0xA7E PUSH1 0x20 DUP4 ADD DUP8 PUSH2 0x964 JUMP JUMPDEST PUSH2 0xA8B PUSH1 0x40 DUP4 ADD DUP7 PUSH2 0xA4F JUMP JUMPDEST PUSH2 0xA98 PUSH1 0x60 DUP4 ADD DUP6 PUSH2 0xA4F JUMP JUMPDEST DUP2 DUP2 SUB PUSH1 0x80 DUP4 ADD MSTORE PUSH2 0xAAA DUP2 DUP5 PUSH2 0x981 JUMP JUMPDEST SWAP1 POP SWAP7 SWAP6 POP POP POP POP POP POP JUMP INVALID LOG2 PUSH5 0x6970667358 0x22 SLT KECCAK256 EXP PUSH26 0x805FE0D3B8EAD16F90C052A38FE1AFC0AA2484EEADBCC2670B99 SHR 0x2D 0xEA CALLCODE PUSH5 0x736F6C6343 STOP ADDMOD BYTE STOP CALLER "
		},
		"gasEstimates": {
			"creation": {
				"codeDepositCost": "559200",
				"executionCost": "592",
				"totalCost": "559792"
			},
			"external": {
				"raiseDispute(uint256,uint256,address,address,string)": "infinite",
				"resolveDispute(uint256,string)": "infinite"
			}
		},
		"methodIdentifiers": {
			"raiseDispute(uint256,uint256,address,address,string)": "fd5234db",
			"resolveDispute(uint256,string)": "cf51b45d"
		}
	},
	"abi": [
		{
			"anonymous": false,
			"inputs": [
				{
					"indexed": false,
					"internalType": "uint256",
					"name": "disputeId",
					"type": "uint256"
				},
				{
					"indexed": false,
					"internalType": "uint256",
					"name": "transactionId",
					"type": "uint256"
				},
				{
					"indexed": false,
					"internalType": "address",
					"name": "buyer",
					"type": "address"
				},
				{
					"indexed": false,
					"internalType": "address",
					"name": "seller",
					"type": "address"
				},
				{
					"indexed": false,
					"internalType": "string",
					"name": "reason",
					"type": "string"
				}
			],
			"name": "DisputeRaised",
			"type": "event"
		},
		{
			"anonymous": false,
			"inputs": [
				{
					"indexed": false,
					"internalType": "uint256",
					"name": "disputeId",
					"type": "uint256"
				},
				{
					"indexed": false,
					"internalType": "string",
					"name": "resolution",
					"type": "string"
				}
			],
			"name": "DisputeResolved",
			"type": "event"
		},
		{
			"inputs": [
				{
					"internalType": "uint256",
					"name": "disputeId",
					"type": "uint256"
				},
				{
					"internalType": "uint256",
					"name": "transactionId",
					"type": "uint256"
				},
				{
					"internalType": "address",
					"name": "buyer",
					"type": "address"
				},
				{
					"internalType": "address",
					"name": "seller",
					"type": "address"
				},
				{
					"internalType": "string",
					"name": "reason",
					"type": "string"
				}
			],
			"name": "raiseDispute",
			"outputs": [],
			"stateMutability": "nonpayable",
			"type": "function"
		},
		{
			"inputs": [
				{
					"internalType": "uint256",
					"name": "disputeId",
					"type": "uint256"
				},
				{
					"internalType": "string",
					"name": "resolution",
					"type": "string"
				}
			],
			"name": "resolveDispute",
			"outputs": [],
			"stateMutability": "nonpayable",
			"type": "function"
		}
	]
}