{
	"data": {
		"bytecode": {
			"linkReferences": {},
			"object": "6080604052348015600e575f80fd5b50610a1d8061001c5f395ff3fe608060405234801561000f575f80fd5b506004361061003f575f3560e01c80633f9b250a146100435780636dda61d91461007457806379cda77214610090575b5f80fd5b61005d6004803603810190610058919061038f565b6100ac565b60405161006b929190610444565b60405180910390f35b61008e6004803603810190610089919061038f565b610194565b005b6100aa60048036038101906100a5919061059e565b61024d565b005b60605f805f808581526020019081526020015f206040518060600160405290815f82015481526020016001820180546100e490610625565b80601f016020809104026020016040519081016040528092919081815260200182805461011090610625565b801561015b5780601f106101325761010080835404028352916020019161015b565b820191905f5260205f20905b81548152906001019060200180831161013e57829003601f168201915b50505050508152602001600282015f9054906101000a900460ff1615151515815250509050806020015181604001519250925050915091565b5f805f8381526020019081526020015f205f0154036101e8576040517f08c379a00000000000000000000000000000000000000000000000000000000081526004016101df9061069f565b60405180910390fd5b60015f808381526020019081526020015f206002015f6101000a81548160ff0219169083151502179055507f4b93fd5160fbc8b35d08aff650902cf41c86e6df325a3eabab5bcca811976cf78160405161024291906106cc565b60405180910390a150565b5f805f8481526020019081526020015f205f0154146102a1576040517f08c379a00000000000000000000000000000000000000000000000000000000081526004016102989061072f565b60405180910390fd5b60405180606001604052808381526020018281526020015f15158152505f808481526020019081526020015f205f820151815f015560208201518160010190816102eb91906108ea565b506040820151816002015f6101000a81548160ff0219169083151502179055509050507f7e70084d84488f1d46902bb7fa3b765328c23f5713ec1e5d426bc7c9b2e9e104828260405161033f9291906109b9565b60405180910390a15050565b5f604051905090565b5f80fd5b5f80fd5b5f819050919050565b61036e8161035c565b8114610378575f80fd5b50565b5f8135905061038981610365565b92915050565b5f602082840312156103a4576103a3610354565b5b5f6103b18482850161037b565b91505092915050565b5f81519050919050565b5f82825260208201905092915050565b8281835e5f83830152505050565b5f601f19601f8301169050919050565b5f6103fc826103ba565b61040681856103c4565b93506104168185602086016103d4565b61041f816103e2565b840191505092915050565b5f8115159050919050565b61043e8161042a565b82525050565b5f6040820190508181035f83015261045c81856103f2565b905061046b6020830184610435565b9392505050565b5f80fd5b5f80fd5b7f4e487b71000000000000000000000000000000000000000000000000000000005f52604160045260245ffd5b6104b0826103e2565b810181811067ffffffffffffffff821117156104cf576104ce61047a565b5b80604052505050565b5f6104e161034b565b90506104ed82826104a7565b919050565b5f67ffffffffffffffff82111561050c5761050b61047a565b5b610515826103e2565b9050602081019050919050565b828183375f83830152505050565b5f61054261053d846104f2565b6104d8565b90508281526020810184848401111561055e5761055d610476565b5b610569848285610522565b509392505050565b5f82601f83011261058557610584610472565b5b8135610595848260208601610530565b91505092915050565b5f80604083850312156105b4576105b3610354565b5b5f6105c18582860161037b565b925050602083013567ffffffffffffffff8111156105e2576105e1610358565b5b6105ee85828601610571565b9150509250929050565b7f4e487b71000000000000000000000000000000000000000000000000000000005f52602260045260245ffd5b5f600282049050600182168061063c57607f821691505b60208210810361064f5761064e6105f8565b5b50919050565b7f446f63756d656e7420646f6573206e6f742065786973740000000000000000005f82015250565b5f6106896017836103c4565b915061069482610655565b602082019050919050565b5f6020820190508181035f8301526106b68161067d565b9050919050565b6106c68161035c565b82525050565b5f6020820190506106df5f8301846106bd565b92915050565b7f446f63756d656e7420616c7265616479206578697374730000000000000000005f82015250565b5f6107196017836103c4565b9150610724826106e5565b602082019050919050565b5f6020820190508181035f8301526107468161070d565b9050919050565b5f819050815f5260205f209050919050565b5f6020601f8301049050919050565b5f82821b905092915050565b5f600883026107a97fffffffffffffffffffffffffffffffffffffffffffffffffffffffffffffffff8261076e565b6107b3868361076e565b95508019841693508086168417925050509392505050565b5f819050919050565b5f6107ee6107e96107e48461035c565b6107cb565b61035c565b9050919050565b5f819050919050565b610807836107d4565b61081b610813826107f5565b84845461077a565b825550505050565b5f90565b61082f610823565b61083a8184846107fe565b505050565b5b8181101561085d576108525f82610827565b600181019050610840565b5050565b601f8211156108a2576108738161074d565b61087c8461075f565b8101602085101561088b578190505b61089f6108978561075f565b83018261083f565b50505b505050565b5f82821c905092915050565b5f6108c25f19846008026108a7565b1980831691505092915050565b5f6108da83836108b3565b9150826002028217905092915050565b6108f3826103ba565b67ffffffffffffffff81111561090c5761090b61047a565b5b6109168254610625565b610921828285610861565b5f60209050601f831160018114610952575f8415610940578287015190505b61094a85826108cf565b8655506109b1565b601f1984166109608661074d565b5f5b8281101561098757848901518255600182019150602085019450602081019050610962565b868310156109a457848901516109a0601f8916826108b3565b8355505b6001600288020188555050505b505050505050565b5f6040820190506109cc5f8301856106bd565b81810360208301526109de81846103f2565b9050939250505056fea2646970667358221220d31819128fce562ee7576793112cae1c6dd4d9a2a792de5b6bc1272c2de56c2a64736f6c634300081a0033",
			"opcodes": "PUSH1 0x80 PUSH1 0x40 MSTORE CALLVALUE DUP1 ISZERO PUSH1 0xE JUMPI PUSH0 DUP1 REVERT JUMPDEST POP PUSH2 0xA1D DUP1 PUSH2 0x1C PUSH0 CODECOPY PUSH0 RETURN INVALID PUSH1 0x80 PUSH1 0x40 MSTORE CALLVALUE DUP1 ISZERO PUSH2 0xF JUMPI PUSH0 DUP1 REVERT JUMPDEST POP PUSH1 0x4 CALLDATASIZE LT PUSH2 0x3F JUMPI PUSH0 CALLDATALOAD PUSH1 0xE0 SHR DUP1 PUSH4 0x3F9B250A EQ PUSH2 0x43 JUMPI DUP1 PUSH4 0x6DDA61D9 EQ PUSH2 0x74 JUMPI DUP1 PUSH4 0x79CDA772 EQ PUSH2 0x90 JUMPI JUMPDEST PUSH0 DUP1 REVERT JUMPDEST PUSH2 0x5D PUSH1 0x4 DUP1 CALLDATASIZE SUB DUP2 ADD SWAP1 PUSH2 0x58 SWAP2 SWAP1 PUSH2 0x38F JUMP JUMPDEST PUSH2 0xAC JUMP JUMPDEST PUSH1 0x40 MLOAD PUSH2 0x6B SWAP3 SWAP2 SWAP1 PUSH2 0x444 JUMP JUMPDEST PUSH1 0x40 MLOAD DUP1 SWAP2 SUB SWAP1 RETURN JUMPDEST PUSH2 0x8E PUSH1 0x4 DUP1 CALLDATASIZE SUB DUP2 ADD SWAP1 PUSH2 0x89 SWAP2 SWAP1 PUSH2 0x38F JUMP JUMPDEST PUSH2 0x194 JUMP JUMPDEST STOP JUMPDEST PUSH2 0xAA PUSH1 0x4 DUP1 CALLDATASIZE SUB DUP2 ADD SWAP1 PUSH2 0xA5 SWAP2 SWAP1 PUSH2 0x59E JUMP JUMPDEST PUSH2 0x24D JUMP JUMPDEST STOP JUMPDEST PUSH1 0x60 PUSH0 DUP1 PUSH0 DUP1 DUP6 DUP2 MSTORE PUSH1 0x20 ADD SWAP1 DUP2 MSTORE PUSH1 0x20 ADD PUSH0 KECCAK256 PUSH1 0x40 MLOAD DUP1 PUSH1 0x60 ADD PUSH1 0x40 MSTORE SWAP1 DUP2 PUSH0 DUP3 ADD SLOAD DUP2 MSTORE PUSH1 0x20 ADD PUSH1 0x1 DUP3 ADD DUP1 SLOAD PUSH2 0xE4 SWAP1 PUSH2 0x625 JUMP JUMPDEST DUP1 PUSH1 0x1F ADD PUSH1 0x20 DUP1 SWAP2 DIV MUL PUSH1 0x20 ADD PUSH1 0x40 MLOAD SWAP1 DUP2 ADD PUSH1 0x40 MSTORE DUP1 SWAP3 SWAP2 SWAP1 DUP2 DUP2 MSTORE PUSH1 0x20 ADD DUP3 DUP1 SLOAD PUSH2 0x110 SWAP1 PUSH2 0x625 JUMP JUMPDEST DUP1 ISZERO PUSH2 0x15B JUMPI DUP1 PUSH1 0x1F LT PUSH2 0x132 JUMPI PUSH2 0x100 DUP1 DUP4 SLOAD DIV MUL DUP4 MSTORE SWAP2 PUSH1 0x20 ADD SWAP2 PUSH2 0x15B JUMP JUMPDEST DUP3 ADD SWAP2 SWAP1 PUSH0 MSTORE PUSH1 0x20 PUSH0 KECCAK256 SWAP1 JUMPDEST DUP2 SLOAD DUP2 MSTORE SWAP1 PUSH1 0x1 ADD SWAP1 PUSH1 0x20 ADD DUP1 DUP4 GT PUSH2 0x13E JUMPI DUP3 SWAP1 SUB PUSH1 0x1F AND DUP3 ADD SWAP2 JUMPDEST POP POP POP POP POP DUP2 MSTORE PUSH1 0x20 ADD PUSH1 0x2 DUP3 ADD PUSH0 SWAP1 SLOAD SWAP1 PUSH2 0x100 EXP SWAP1 DIV PUSH1 0xFF AND ISZERO ISZERO ISZERO ISZERO DUP2 MSTORE POP POP SWAP1 POP DUP1 PUSH1 0x20 ADD MLOAD DUP2 PUSH1 0x40 ADD MLOAD SWAP3 POP SWAP3 POP POP SWAP2 POP SWAP2 JUMP JUMPDEST PUSH0 DUP1 PUSH0 DUP4 DUP2 MSTORE PUSH1 0x20 ADD SWAP1 DUP2 MSTORE PUSH1 0x20 ADD PUSH0 KECCAK256 PUSH0 ADD SLOAD SUB PUSH2 0x1E8 JUMPI PUSH1 0x40 MLOAD PUSH32 0x8C379A000000000000000000000000000000000000000000000000000000000 DUP2 MSTORE PUSH1 0x4 ADD PUSH2 0x1DF SWAP1 PUSH2 0x69F JUMP JUMPDEST PUSH1 0x40 MLOAD DUP1 SWAP2 SUB SWAP1 REVERT JUMPDEST PUSH1 0x1 PUSH0 DUP1 DUP4 DUP2 MSTORE PUSH1 0x20 ADD SWAP1 DUP2 MSTORE PUSH1 0x20 ADD PUSH0 KECCAK256 PUSH1 0x2 ADD PUSH0 PUSH2 0x100 EXP DUP2 SLOAD DUP2 PUSH1 0xFF MUL NOT AND SWAP1 DUP4 ISZERO ISZERO MUL OR SWAP1 SSTORE POP PUSH32 0x4B93FD5160FBC8B35D08AFF650902CF41C86E6DF325A3EABAB5BCCA811976CF7 DUP2 PUSH1 0x40 MLOAD PUSH2 0x242 SWAP2 SWAP1 PUSH2 0x6CC JUMP JUMPDEST PUSH1 0x40 MLOAD DUP1 SWAP2 SUB SWAP1 LOG1 POP JUMP JUMPDEST PUSH0 DUP1 PUSH0 DUP5 DUP2 MSTORE PUSH1 0x20 ADD SWAP1 DUP2 MSTORE PUSH1 0x20 ADD PUSH0 KECCAK256 PUSH0 ADD SLOAD EQ PUSH2 0x2A1 JUMPI PUSH1 0x40 MLOAD PUSH32 0x8C379A000000000000000000000000000000000000000000000000000000000 DUP2 MSTORE PUSH1 0x4 ADD PUSH2 0x298 SWAP1 PUSH2 0x72F JUMP JUMPDEST PUSH1 0x40 MLOAD DUP1 SWAP2 SUB SWAP1 REVERT JUMPDEST PUSH1 0x40 MLOAD DUP1 PUSH1 0x60 ADD PUSH1 0x40 MSTORE DUP1 DUP4 DUP2 MSTORE PUSH1 0x20 ADD DUP3 DUP2 MSTORE PUSH1 0x20 ADD PUSH0 ISZERO ISZERO DUP2 MSTORE POP PUSH0 DUP1 DUP5 DUP2 MSTORE PUSH1 0x20 ADD SWAP1 DUP2 MSTORE PUSH1 0x20 ADD PUSH0 KECCAK256 PUSH0 DUP3 ADD MLOAD DUP2 PUSH0 ADD SSTORE PUSH1 0x20 DUP3 ADD MLOAD DUP2 PUSH1 0x1 ADD SWAP1 DUP2 PUSH2 0x2EB SWAP2 SWAP1 PUSH2 0x8EA JUMP JUMPDEST POP PUSH1 0x40 DUP3 ADD MLOAD DUP2 PUSH1 0x2 ADD PUSH0 PUSH2 0x100 EXP DUP2 SLOAD DUP2 PUSH1 0xFF MUL NOT AND SWAP1 DUP4 ISZERO ISZERO MUL OR SWAP1 SSTORE POP SWAP1 POP POP PUSH32 0x7E70084D84488F1D46902BB7FA3B765328C23F5713EC1E5D426BC7C9B2E9E104 DUP3 DUP3 PUSH1 0x40 MLOAD PUSH2 0x33F SWAP3 SWAP2 SWAP1 PUSH2 0x9B9 JUMP JUMPDEST PUSH1 0x40 MLOAD DUP1 SWAP2 SUB SWAP1 LOG1 POP POP JUMP JUMPDEST PUSH0 PUSH1 0x40 MLOAD SWAP1 POP SWAP1 JUMP JUMPDEST PUSH0 DUP1 REVERT JUMPDEST PUSH0 DUP1 REVERT JUMPDEST PUSH0 DUP2 SWAP1 POP SWAP2 SWAP1 POP JUMP JUMPDEST PUSH2 0x36E DUP2 PUSH2 0x35C JUMP JUMPDEST DUP2 EQ PUSH2 0x378 JUMPI PUSH0 DUP1 REVERT JUMPDEST POP JUMP JUMPDEST PUSH0 DUP2 CALLDATALOAD SWAP1 POP PUSH2 0x389 DUP2 PUSH2 0x365 JUMP JUMPDEST SWAP3 SWAP2 POP POP JUMP JUMPDEST PUSH0 PUSH1 0x20 DUP3 DUP5 SUB SLT ISZERO PUSH2 0x3A4 JUMPI PUSH2 0x3A3 PUSH2 0x354 JUMP JUMPDEST JUMPDEST PUSH0 PUSH2 0x3B1 DUP5 DUP3 DUP6 ADD PUSH2 0x37B JUMP JUMPDEST SWAP2 POP POP SWAP3 SWAP2 POP POP JUMP JUMPDEST PUSH0 DUP2 MLOAD SWAP1 POP SWAP2 SWAP1 POP JUMP JUMPDEST PUSH0 DUP3 DUP3 MSTORE PUSH1 0x20 DUP3 ADD SWAP1 POP SWAP3 SWAP2 POP POP JUMP JUMPDEST DUP3 DUP2 DUP4 MCOPY PUSH0 DUP4 DUP4 ADD MSTORE POP POP POP JUMP JUMPDEST PUSH0 PUSH1 0x1F NOT PUSH1 0x1F DUP4 ADD AND SWAP1 POP SWAP2 SWAP1 POP JUMP JUMPDEST PUSH0 PUSH2 0x3FC DUP3 PUSH2 0x3BA JUMP JUMPDEST PUSH2 0x406 DUP2 DUP6 PUSH2 0x3C4 JUMP JUMPDEST SWAP4 POP PUSH2 0x416 DUP2 DUP6 PUSH1 0x20 DUP7 ADD PUSH2 0x3D4 JUMP JUMPDEST PUSH2 0x41F DUP2 PUSH2 0x3E2 JUMP JUMPDEST DUP5 ADD SWAP2 POP POP SWAP3 SWAP2 POP POP JUMP JUMPDEST PUSH0 DUP2 ISZERO ISZERO SWAP1 POP SWAP2 SWAP1 POP JUMP JUMPDEST PUSH2 0x43E DUP2 PUSH2 0x42A JUMP JUMPDEST DUP3 MSTORE POP POP JUMP JUMPDEST PUSH0 PUSH1 0x40 DUP3 ADD SWAP1 POP DUP2 DUP2 SUB PUSH0 DUP4 ADD MSTORE PUSH2 0x45C DUP2 DUP6 PUSH2 0x3F2 JUMP JUMPDEST SWAP1 POP PUSH2 0x46B PUSH1 0x20 DUP4 ADD DUP5 PUSH2 0x435 JUMP JUMPDEST SWAP4 SWAP3 POP POP POP JUMP JUMPDEST PUSH0 DUP1 REVERT JUMPDEST PUSH0 DUP1 REVERT JUMPDEST PUSH32 0x4E487B7100000000000000000000000000000000000000000000000000000000 PUSH0 MSTORE PUSH1 0x41 PUSH1 0x4 MSTORE PUSH1 0x24 PUSH0 REVERT JUMPDEST PUSH2 0x4B0 DUP3 PUSH2 0x3E2 JUMP JUMPDEST DUP2 ADD DUP2 DUP2 LT PUSH8 0xFFFFFFFFFFFFFFFF DUP3 GT OR ISZERO PUSH2 0x4CF JUMPI PUSH2 0x4CE PUSH2 0x47A JUMP JUMPDEST JUMPDEST DUP1 PUSH1 0x40 MSTORE POP POP POP JUMP JUMPDEST PUSH0 PUSH2 0x4E1 PUSH2 0x34B JUMP JUMPDEST SWAP1 POP PUSH2 0x4ED DUP3 DUP3 PUSH2 0x4A7 JUMP JUMPDEST SWAP2 SWAP1 POP JUMP JUMPDEST PUSH0 PUSH8 0xFFFFFFFFFFFFFFFF DUP3 GT ISZERO PUSH2 0x50C JUMPI PUSH2 0x50B PUSH2 0x47A JUMP JUMPDEST JUMPDEST PUSH2 0x515 DUP3 PUSH2 0x3E2 JUMP JUMPDEST SWAP1 POP PUSH1 0x20 DUP2 ADD SWAP1 POP SWAP2 SWAP1 POP JUMP JUMPDEST DUP3 DUP2 DUP4 CALLDATACOPY PUSH0 DUP4 DUP4 ADD MSTORE POP POP POP JUMP JUMPDEST PUSH0 PUSH2 0x542 PUSH2 0x53D DUP5 PUSH2 0x4F2 JUMP JUMPDEST PUSH2 0x4D8 JUMP JUMPDEST SWAP1 POP DUP3 DUP2 MSTORE PUSH1 0x20 DUP2 ADD DUP5 DUP5 DUP5 ADD GT ISZERO PUSH2 0x55E JUMPI PUSH2 0x55D PUSH2 0x476 JUMP JUMPDEST JUMPDEST PUSH2 0x569 DUP5 DUP3 DUP6 PUSH2 0x522 JUMP JUMPDEST POP SWAP4 SWAP3 POP POP POP JUMP JUMPDEST PUSH0 DUP3 PUSH1 0x1F DUP4 ADD SLT PUSH2 0x585 JUMPI PUSH2 0x584 PUSH2 0x472 JUMP JUMPDEST JUMPDEST DUP2 CALLDATALOAD PUSH2 0x595 DUP5 DUP3 PUSH1 0x20 DUP7 ADD PUSH2 0x530 JUMP JUMPDEST SWAP2 POP POP SWAP3 SWAP2 POP POP JUMP JUMPDEST PUSH0 DUP1 PUSH1 0x40 DUP4 DUP6 SUB SLT ISZERO PUSH2 0x5B4 JUMPI PUSH2 0x5B3 PUSH2 0x354 JUMP JUMPDEST JUMPDEST PUSH0 PUSH2 0x5C1 DUP6 DUP3 DUP7 ADD PUSH2 0x37B JUMP JUMPDEST SWAP3 POP POP PUSH1 0x20 DUP4 ADD CALLDATALOAD PUSH8 0xFFFFFFFFFFFFFFFF DUP2 GT ISZERO PUSH2 0x5E2 JUMPI PUSH2 0x5E1 PUSH2 0x358 JUMP JUMPDEST JUMPDEST PUSH2 0x5EE DUP6 DUP3 DUP7 ADD PUSH2 0x571 JUMP JUMPDEST SWAP2 POP POP SWAP3 POP SWAP3 SWAP1 POP JUMP JUMPDEST PUSH32 0x4E487B7100000000000000000000000000000000000000000000000000000000 PUSH0 MSTORE PUSH1 0x22 PUSH1 0x4 MSTORE PUSH1 0x24 PUSH0 REVERT JUMPDEST PUSH0 PUSH1 0x2 DUP3 DIV SWAP1 POP PUSH1 0x1 DUP3 AND DUP1 PUSH2 0x63C JUMPI PUSH1 0x7F DUP3 AND SWAP2 POP JUMPDEST PUSH1 0x20 DUP3 LT DUP2 SUB PUSH2 0x64F JUMPI PUSH2 0x64E PUSH2 0x5F8 JUMP JUMPDEST JUMPDEST POP SWAP2 SWAP1 POP JUMP JUMPDEST PUSH32 0x446F63756D656E7420646F6573206E6F74206578697374000000000000000000 PUSH0 DUP3 ADD MSTORE POP JUMP JUMPDEST PUSH0 PUSH2 0x689 PUSH1 0x17 DUP4 PUSH2 0x3C4 JUMP JUMPDEST SWAP2 POP PUSH2 0x694 DUP3 PUSH2 0x655 JUMP JUMPDEST PUSH1 0x20 DUP3 ADD SWAP1 POP SWAP2 SWAP1 POP JUMP JUMPDEST PUSH0 PUSH1 0x20 DUP3 ADD SWAP1 POP DUP2 DUP2 SUB PUSH0 DUP4 ADD MSTORE PUSH2 0x6B6 DUP2 PUSH2 0x67D JUMP JUMPDEST SWAP1 POP SWAP2 SWAP1 POP JUMP JUMPDEST PUSH2 0x6C6 DUP2 PUSH2 0x35C JUMP JUMPDEST DUP3 MSTORE POP POP JUMP JUMPDEST PUSH0 PUSH1 0x20 DUP3 ADD SWAP1 POP PUSH2 0x6DF PUSH0 DUP4 ADD DUP5 PUSH2 0x6BD JUMP JUMPDEST SWAP3 SWAP2 POP POP JUMP JUMPDEST PUSH32 0x446F63756D656E7420616C726561647920657869737473000000000000000000 PUSH0 DUP3 ADD MSTORE POP JUMP JUMPDEST PUSH0 PUSH2 0x719 PUSH1 0x17 DUP4 PUSH2 0x3C4 JUMP JUMPDEST SWAP2 POP PUSH2 0x724 DUP3 PUSH2 0x6E5 JUMP JUMPDEST PUSH1 0x20 DUP3 ADD SWAP1 POP SWAP2 SWAP1 POP JUMP JUMPDEST PUSH0 PUSH1 0x20 DUP3 ADD SWAP1 POP DUP2 DUP2 SUB PUSH0 DUP4 ADD MSTORE PUSH2 0x746 DUP2 PUSH2 0x70D JUMP JUMPDEST SWAP1 POP SWAP2 SWAP1 POP JUMP JUMPDEST PUSH0 DUP2 SWAP1 POP DUP2 PUSH0 MSTORE PUSH1 0x20 PUSH0 KECCAK256 SWAP1 POP SWAP2 SWAP1 POP JUMP JUMPDEST PUSH0 PUSH1 0x20 PUSH1 0x1F DUP4 ADD DIV SWAP1 POP SWAP2 SWAP1 POP JUMP JUMPDEST PUSH0 DUP3 DUP3 SHL SWAP1 POP SWAP3 SWAP2 POP POP JUMP JUMPDEST PUSH0 PUSH1 0x8 DUP4 MUL PUSH2 0x7A9 PUSH32 0xFFFFFFFFFFFFFFFFFFFFFFFFFFFFFFFFFFFFFFFFFFFFFFFFFFFFFFFFFFFFFFFF DUP3 PUSH2 0x76E JUMP JUMPDEST PUSH2 0x7B3 DUP7 DUP4 PUSH2 0x76E JUMP JUMPDEST SWAP6 POP DUP1 NOT DUP5 AND SWAP4 POP DUP1 DUP7 AND DUP5 OR SWAP3 POP POP POP SWAP4 SWAP3 POP POP POP JUMP JUMPDEST PUSH0 DUP2 SWAP1 POP SWAP2 SWAP1 POP JUMP JUMPDEST PUSH0 PUSH2 0x7EE PUSH2 0x7E9 PUSH2 0x7E4 DUP5 PUSH2 0x35C JUMP JUMPDEST PUSH2 0x7CB JUMP JUMPDEST PUSH2 0x35C JUMP JUMPDEST SWAP1 POP SWAP2 SWAP1 POP JUMP JUMPDEST PUSH0 DUP2 SWAP1 POP SWAP2 SWAP1 POP JUMP JUMPDEST PUSH2 0x807 DUP4 PUSH2 0x7D4 JUMP JUMPDEST PUSH2 0x81B PUSH2 0x813 DUP3 PUSH2 0x7F5 JUMP JUMPDEST DUP5 DUP5 SLOAD PUSH2 0x77A JUMP JUMPDEST DUP3 SSTORE POP POP POP POP JUMP JUMPDEST PUSH0 SWAP1 JUMP JUMPDEST PUSH2 0x82F PUSH2 0x823 JUMP JUMPDEST PUSH2 0x83A DUP2 DUP5 DUP5 PUSH2 0x7FE JUMP JUMPDEST POP POP POP JUMP JUMPDEST JUMPDEST DUP2 DUP2 LT ISZERO PUSH2 0x85D JUMPI PUSH2 0x852 PUSH0 DUP3 PUSH2 0x827 JUMP JUMPDEST PUSH1 0x1 DUP2 ADD SWAP1 POP PUSH2 0x840 JUMP JUMPDEST POP POP JUMP JUMPDEST PUSH1 0x1F DUP3 GT ISZERO PUSH2 0x8A2 JUMPI PUSH2 0x873 DUP2 PUSH2 0x74D JUMP JUMPDEST PUSH2 0x87C DUP5 PUSH2 0x75F JUMP JUMPDEST DUP2 ADD PUSH1 0x20 DUP6 LT ISZERO PUSH2 0x88B JUMPI DUP2 SWAP1 POP JUMPDEST PUSH2 0x89F PUSH2 0x897 DUP6 PUSH2 0x75F JUMP JUMPDEST DUP4 ADD DUP3 PUSH2 0x83F JUMP JUMPDEST POP POP JUMPDEST POP POP POP JUMP JUMPDEST PUSH0 DUP3 DUP3 SHR SWAP1 POP SWAP3 SWAP2 POP POP JUMP JUMPDEST PUSH0 PUSH2 0x8C2 PUSH0 NOT DUP5 PUSH1 0x8 MUL PUSH2 0x8A7 JUMP JUMPDEST NOT DUP1 DUP4 AND SWAP2 POP POP SWAP3 SWAP2 POP POP JUMP JUMPDEST PUSH0 PUSH2 0x8DA DUP4 DUP4 PUSH2 0x8B3 JUMP JUMPDEST SWAP2 POP DUP3 PUSH1 0x2 MUL DUP3 OR SWAP1 POP SWAP3 SWAP2 POP POP JUMP JUMPDEST PUSH2 0x8F3 DUP3 PUSH2 0x3BA JUMP JUMPDEST PUSH8 0xFFFFFFFFFFFFFFFF DUP2 GT ISZERO PUSH2 0x90C JUMPI PUSH2 0x90B PUSH2 0x47A JUMP JUMPDEST JUMPDEST PUSH2 0x916 DUP3 SLOAD PUSH2 0x625 JUMP JUMPDEST PUSH2 0x921 DUP3 DUP3 DUP6 PUSH2 0x861 JUMP JUMPDEST PUSH0 PUSH1 0x20 SWAP1 POP PUSH1 0x1F DUP4 GT PUSH1 0x1 DUP2 EQ PUSH2 0x952 JUMPI PUSH0 DUP5 ISZERO PUSH2 0x940 JUMPI DUP3 DUP8 ADD MLOAD SWAP1 POP JUMPDEST PUSH2 0x94A DUP6 DUP3 PUSH2 0x8CF JUMP JUMPDEST DUP7 SSTORE POP PUSH2 0x9B1 JUMP JUMPDEST PUSH1 0x1F NOT DUP5 AND PUSH2 0x960 DUP7 PUSH2 0x74D JUMP JUMPDEST PUSH0 JUMPDEST DUP3 DUP2 LT ISZERO PUSH2 0x987 JUMPI DUP5 DUP10 ADD MLOAD DUP3 SSTORE PUSH1 0x1 DUP3 ADD SWAP2 POP PUSH1 0x20 DUP6 ADD SWAP5 POP PUSH1 0x20 DUP2 ADD SWAP1 POP PUSH2 0x962 JUMP JUMPDEST DUP7 DUP4 LT ISZERO PUSH2 0x9A4 JUMPI DUP5 DUP10 ADD MLOAD PUSH2 0x9A0 PUSH1 0x1F DUP10 AND DUP3 PUSH2 0x8B3 JUMP JUMPDEST DUP4 SSTORE POP JUMPDEST PUSH1 0x1 PUSH1 0x2 DUP9 MUL ADD DUP9 SSTORE POP POP POP JUMPDEST POP POP POP POP POP POP JUMP JUMPDEST PUSH0 PUSH1 0x40 DUP3 ADD SWAP1 POP PUSH2 0x9CC PUSH0 DUP4 ADD DUP6 PUSH2 0x6BD JUMP JUMPDEST DUP2 DUP2 SUB PUSH1 0x20 DUP4 ADD MSTORE PUSH2 0x9DE DUP2 DUP5 PUSH2 0x3F2 JUMP JUMPDEST SWAP1 POP SWAP4 SWAP3 POP POP POP JUMP INVALID LOG2 PUSH5 0x6970667358 0x22 SLT KECCAK256 0xD3 XOR NOT SLT DUP16 0xCE JUMP 0x2E 0xE7 JUMPI PUSH8 0x93112CAE1C6DD4D9 LOG2 0xA7 SWAP3 0xDE JUMPDEST PUSH12 0xC1272C2DE56C2A64736F6C63 NUMBER STOP ADDMOD BYTE STOP CALLER "
		},
		"gasEstimates": {
			"creation": {
				"codeDepositCost": "517800",
				"executionCost": "547",
				"totalCost": "518347"
			},
			"external": {
				"getDocument(uint256)": "infinite",
				"uploadDocument(uint256,string)": "infinite",
				"verifyDocument(uint256)": "infinite"
			}
		},
		"methodIdentifiers": {
			"getDocument(uint256)": "3f9b250a",
			"uploadDocument(uint256,string)": "79cda772",
			"verifyDocument(uint256)": "6dda61d9"
		}
	},
	"abi": [
		{
			"anonymous": false,
			"inputs": [
				{
					"indexed": false,
					"internalType": "uint256",
					"name": "documentId",
					"type": "uint256"
				},
				{
					"indexed": false,
					"internalType": "string",
					"name": "documentHash",
					"type": "string"
				}
			],
			"name": "DocumentUploaded",
			"type": "event"
		},
		{
			"anonymous": false,
			"inputs": [
				{
					"indexed": false,
					"internalType": "uint256",
					"name": "documentId",
					"type": "uint256"
				}
			],
			"name": "DocumentVerified",
			"type": "event"
		},
		{
			"inputs": [
				{
					"internalType": "uint256",
					"name": "documentId",
					"type": "uint256"
				}
			],
			"name": "getDocument",
			"outputs": [
				{
					"internalType": "string",
					"name": "",
					"type": "string"
				},
				{
					"internalType": "bool",
					"name": "",
					"type": "bool"
				}
			],
			"stateMutability": "view",
			"type": "function"
		},
		{
			"inputs": [
				{
					"internalType": "uint256",
					"name": "documentId",
					"type": "uint256"
				},
				{
					"internalType": "string",
					"name": "documentHash",
					"type": "string"
				}
			],
			"name": "uploadDocument",
			"outputs": [],
			"stateMutability": "nonpayable",
			"type": "function"
		},
		{
			"inputs": [
				{
					"internalType": "uint256",
					"name": "documentId",
					"type": "uint256"
				}
			],
			"name": "verifyDocument",
			"outputs": [],
			"stateMutability": "nonpayable",
			"type": "function"
		}
	]
}