{
	"data": {
		"bytecode": {
			"linkReferences": {},
			"object": "6080604052348015600e575f80fd5b506107658061001c5f395ff3fe608060405234801561000f575f80fd5b506004361061003f575f3560e01c80634f01c6f2146100435780635b057fd11461005f578063685e96a21461007b575b5f80fd5b61005d60048036038101906100589190610484565b610097565b005b61007960048036038101906100749190610484565b6101b0565b005b61009560048036038101906100909190610509565b610269565b005b5f805f8381526020019081526020015f205f0154036100eb576040517f08c379a00000000000000000000000000000000000000000000000000000000081526004016100e2906105c7565b60405180910390fd5b5f808281526020019081526020015f206004015f9054906101000a900460ff1661014a576040517f08c379a00000000000000000000000000000000000000000000000000000000081526004016101419061062f565b60405180910390fd5b60015f808381526020019081526020015f2060040160016101000a81548160ff0219169083151502179055507f6bef1b5e95b741d6e665eb9b5c2d3e1203c46a771451055a9d41e0b8ff4510b7816040516101a5919061065c565b60405180910390a150565b5f805f8381526020019081526020015f205f015403610204576040517f08c379a00000000000000000000000000000000000000000000000000000000081526004016101fb906105c7565b60405180910390fd5b60015f808381526020019081526020015f206004015f6101000a81548160ff0219169083151502179055507ffba5e95c7019bce78b9f892c6ced099cddb93ab803a0475345ced0659277834f8160405161025e919061065c565b60405180910390a150565b5f805f8681526020019081526020015f205f0154146102bd576040517f08c379a00000000000000000000000000000000000000000000000000000000081526004016102b4906106bf565b60405180910390fd5b6040518060c001604052808581526020018473ffffffffffffffffffffffffffffffffffffffff1681526020018373ffffffffffffffffffffffffffffffffffffffff1681526020018281526020015f151581526020015f15158152505f808681526020019081526020015f205f820151815f01556020820151816001015f6101000a81548173ffffffffffffffffffffffffffffffffffffffff021916908373ffffffffffffffffffffffffffffffffffffffff1602179055506040820151816002015f6101000a81548173ffffffffffffffffffffffffffffffffffffffff021916908373ffffffffffffffffffffffffffffffffffffffff160217905550606082015181600301556080820151816004015f6101000a81548160ff02191690831515021790555060a08201518160040160016101000a81548160ff0219169083151502179055509050507fe064501ff0c8345e3c252ac92add47e0e28225460e48f354750dfda9d72df7518484848460405161043f94939291906106ec565b60405180910390a150505050565b5f80fd5b5f819050919050565b61046381610451565b811461046d575f80fd5b50565b5f8135905061047e8161045a565b92915050565b5f602082840312156104995761049861044d565b5b5f6104a684828501610470565b91505092915050565b5f73ffffffffffffffffffffffffffffffffffffffff82169050919050565b5f6104d8826104af565b9050919050565b6104e8816104ce565b81146104f2575f80fd5b50565b5f81359050610503816104df565b92915050565b5f805f80608085870312156105215761052061044d565b5b5f61052e87828801610470565b945050602061053f878288016104f5565b9350506040610550878288016104f5565b925050606061056187828801610470565b91505092959194509250565b5f82825260208201905092915050565b7f5061796d656e7420646f6573206e6f74206578697374000000000000000000005f82015250565b5f6105b160168361056d565b91506105bc8261057d565b602082019050919050565b5f6020820190508181035f8301526105de816105a5565b9050919050565b7f5061796d656e74206e6f742076657269666965640000000000000000000000005f82015250565b5f61061960148361056d565b9150610624826105e5565b602082019050919050565b5f6020820190508181035f8301526106468161060d565b9050919050565b61065681610451565b82525050565b5f60208201905061066f5f83018461064d565b92915050565b7f5061796d656e7420616c726561647920657869737473000000000000000000005f82015250565b5f6106a960168361056d565b91506106b482610675565b602082019050919050565b5f6020820190508181035f8301526106d68161069d565b9050919050565b6106e6816104ce565b82525050565b5f6080820190506106ff5f83018761064d565b61070c60208301866106dd565b61071960408301856106dd565b610726606083018461064d565b9594505050505056fea264697066735822122058233dc2aa6d5ef9799e18e2a0da7a4fed7d983dac4cb00c71653b09f365351364736f6c634300081a0033",
			"opcodes": "PUSH1 0x80 PUSH1 0x40 MSTORE CALLVALUE DUP1 ISZERO PUSH1 0xE JUMPI PUSH0 DUP1 REVERT JUMPDEST POP PUSH2 0x765 DUP1 PUSH2 0x1C PUSH0 CODECOPY PUSH0 RETURN INVALID PUSH1 0x80 PUSH1 0x40 MSTORE CALLVALUE DUP1 ISZERO PUSH2 0xF JUMPI PUSH0 DUP1 REVERT JUMPDEST POP PUSH1 0x4 CALLDATASIZE LT PUSH2 0x3F JUMPI PUSH0 CALLDATALOAD PUSH1 0xE0 SHR DUP1 PUSH4 0x4F01C6F2 EQ PUSH2 0x43 JUMPI DUP1 PUSH4 0x5B057FD1 EQ PUSH2 0x5F JUMPI DUP1 PUSH4 0x685E96A2 EQ PUSH2 0x7B JUMPI JUMPDEST PUSH0 DUP1 REVERT JUMPDEST PUSH2 0x5D PUSH1 0x4 DUP1 CALLDATASIZE SUB DUP2 ADD SWAP1 PUSH2 0x58 SWAP2 SWAP1 PUSH2 0x484 JUMP JUMPDEST PUSH2 0x97 JUMP JUMPDEST STOP JUMPDEST PUSH2 0x79 PUSH1 0x4 DUP1 CALLDATASIZE SUB DUP2 ADD SWAP1 PUSH2 0x74 SWAP2 SWAP1 PUSH2 0x484 JUMP JUMPDEST PUSH2 0x1B0 JUMP JUMPDEST STOP JUMPDEST PUSH2 0x95 PUSH1 0x4 DUP1 CALLDATASIZE SUB DUP2 ADD SWAP1 PUSH2 0x90 SWAP2 SWAP1 PUSH2 0x509 JUMP JUMPDEST PUSH2 0x269 JUMP JUMPDEST STOP JUMPDEST PUSH0 DUP1 PUSH0 DUP4 DUP2 MSTORE PUSH1 0x20 ADD SWAP1 DUP2 MSTORE PUSH1 0x20 ADD PUSH0 KECCAK256 PUSH0 ADD SLOAD SUB PUSH2 0xEB JUMPI PUSH1 0x40 MLOAD PUSH32 0x8C379A000000000000000000000000000000000000000000000000000000000 DUP2 MSTORE PUSH1 0x4 ADD PUSH2 0xE2 SWAP1 PUSH2 0x5C7 JUMP JUMPDEST PUSH1 0x40 MLOAD DUP1 SWAP2 SUB SWAP1 REVERT JUMPDEST PUSH0 DUP1 DUP3 DUP2 MSTORE PUSH1 0x20 ADD SWAP1 DUP2 MSTORE PUSH1 0x20 ADD PUSH0 KECCAK256 PUSH1 0x4 ADD PUSH0 SWAP1 SLOAD SWAP1 PUSH2 0x100 EXP SWAP1 DIV PUSH1 0xFF AND PUSH2 0x14A JUMPI PUSH1 0x40 MLOAD PUSH32 0x8C379A000000000000000000000000000000000000000000000000000000000 DUP2 MSTORE PUSH1 0x4 ADD PUSH2 0x141 SWAP1 PUSH2 0x62F JUMP JUMPDEST PUSH1 0x40 MLOAD DUP1 SWAP2 SUB SWAP1 REVERT JUMPDEST PUSH1 0x1 PUSH0 DUP1 DUP4 DUP2 MSTORE PUSH1 0x20 ADD SWAP1 DUP2 MSTORE PUSH1 0x20 ADD PUSH0 KECCAK256 PUSH1 0x4 ADD PUSH1 0x1 PUSH2 0x100 EXP DUP2 SLOAD DUP2 PUSH1 0xFF MUL NOT AND SWAP1 DUP4 ISZERO ISZERO MUL OR SWAP1 SSTORE POP PUSH32 0x6BEF1B5E95B741D6E665EB9B5C2D3E1203C46A771451055A9D41E0B8FF4510B7 DUP2 PUSH1 0x40 MLOAD PUSH2 0x1A5 SWAP2 SWAP1 PUSH2 0x65C JUMP JUMPDEST PUSH1 0x40 MLOAD DUP1 SWAP2 SUB SWAP1 LOG1 POP JUMP JUMPDEST PUSH0 DUP1 PUSH0 DUP4 DUP2 MSTORE PUSH1 0x20 ADD SWAP1 DUP2 MSTORE PUSH1 0x20 ADD PUSH0 KECCAK256 PUSH0 ADD SLOAD SUB PUSH2 0x204 JUMPI PUSH1 0x40 MLOAD PUSH32 0x8C379A000000000000000000000000000000000000000000000000000000000 DUP2 MSTORE PUSH1 0x4 ADD PUSH2 0x1FB SWAP1 PUSH2 0x5C7 JUMP JUMPDEST PUSH1 0x40 MLOAD DUP1 SWAP2 SUB SWAP1 REVERT JUMPDEST PUSH1 0x1 PUSH0 DUP1 DUP4 DUP2 MSTORE PUSH1 0x20 ADD SWAP1 DUP2 MSTORE PUSH1 0x20 ADD PUSH0 KECCAK256 PUSH1 0x4 ADD PUSH0 PUSH2 0x100 EXP DUP2 SLOAD DUP2 PUSH1 0xFF MUL NOT AND SWAP1 DUP4 ISZERO ISZERO MUL OR SWAP1 SSTORE POP PUSH32 0xFBA5E95C7019BCE78B9F892C6CED099CDDB93AB803A0475345CED0659277834F DUP2 PUSH1 0x40 MLOAD PUSH2 0x25E SWAP2 SWAP1 PUSH2 0x65C JUMP JUMPDEST PUSH1 0x40 MLOAD DUP1 SWAP2 SUB SWAP1 LOG1 POP JUMP JUMPDEST PUSH0 DUP1 PUSH0 DUP7 DUP2 MSTORE PUSH1 0x20 ADD SWAP1 DUP2 MSTORE PUSH1 0x20 ADD PUSH0 KECCAK256 PUSH0 ADD SLOAD EQ PUSH2 0x2BD JUMPI PUSH1 0x40 MLOAD PUSH32 0x8C379A000000000000000000000000000000000000000000000000000000000 DUP2 MSTORE PUSH1 0x4 ADD PUSH2 0x2B4 SWAP1 PUSH2 0x6BF JUMP JUMPDEST PUSH1 0x40 MLOAD DUP1 SWAP2 SUB SWAP1 REVERT JUMPDEST PUSH1 0x40 MLOAD DUP1 PUSH1 0xC0 ADD PUSH1 0x40 MSTORE DUP1 DUP6 DUP2 MSTORE PUSH1 0x20 ADD DUP5 PUSH20 0xFFFFFFFFFFFFFFFFFFFFFFFFFFFFFFFFFFFFFFFF AND DUP2 MSTORE PUSH1 0x20 ADD DUP4 PUSH20 0xFFFFFFFFFFFFFFFFFFFFFFFFFFFFFFFFFFFFFFFF AND DUP2 MSTORE PUSH1 0x20 ADD DUP3 DUP2 MSTORE PUSH1 0x20 ADD PUSH0 ISZERO ISZERO DUP2 MSTORE PUSH1 0x20 ADD PUSH0 ISZERO ISZERO DUP2 MSTORE POP PUSH0 DUP1 DUP7 DUP2 MSTORE PUSH1 0x20 ADD SWAP1 DUP2 MSTORE PUSH1 0x20 ADD PUSH0 KECCAK256 PUSH0 DUP3 ADD MLOAD DUP2 PUSH0 ADD SSTORE PUSH1 0x20 DUP3 ADD MLOAD DUP2 PUSH1 0x1 ADD PUSH0 PUSH2 0x100 EXP DUP2 SLOAD DUP2 PUSH20 0xFFFFFFFFFFFFFFFFFFFFFFFFFFFFFFFFFFFFFFFF MUL NOT AND SWAP1 DUP4 PUSH20 0xFFFFFFFFFFFFFFFFFFFFFFFFFFFFFFFFFFFFFFFF AND MUL OR SWAP1 SSTORE POP PUSH1 0x40 DUP3 ADD MLOAD DUP2 PUSH1 0x2 ADD PUSH0 PUSH2 0x100 EXP DUP2 SLOAD DUP2 PUSH20 0xFFFFFFFFFFFFFFFFFFFFFFFFFFFFFFFFFFFFFFFF MUL NOT AND SWAP1 DUP4 PUSH20 0xFFFFFFFFFFFFFFFFFFFFFFFFFFFFFFFFFFFFFFFF AND MUL OR SWAP1 SSTORE POP PUSH1 0x60 DUP3 ADD MLOAD DUP2 PUSH1 0x3 ADD SSTORE PUSH1 0x80 DUP3 ADD MLOAD DUP2 PUSH1 0x4 ADD PUSH0 PUSH2 0x100 EXP DUP2 SLOAD DUP2 PUSH1 0xFF MUL NOT AND SWAP1 DUP4 ISZERO ISZERO MUL OR SWAP1 SSTORE POP PUSH1 0xA0 DUP3 ADD MLOAD DUP2 PUSH1 0x4 ADD PUSH1 0x1 PUSH2 0x100 EXP DUP2 SLOAD DUP2 PUSH1 0xFF MUL NOT AND SWAP1 DUP4 ISZERO ISZERO MUL OR SWAP1 SSTORE POP SWAP1 POP POP PUSH32 0xE064501FF0C8345E3C252AC92ADD47E0E28225460E48F354750DFDA9D72DF751 DUP5 DUP5 DUP5 DUP5 PUSH1 0x40 MLOAD PUSH2 0x43F SWAP5 SWAP4 SWAP3 SWAP2 SWAP1 PUSH2 0x6EC JUMP JUMPDEST PUSH1 0x40 MLOAD DUP1 SWAP2 SUB SWAP1 LOG1 POP POP POP POP JUMP JUMPDEST PUSH0 DUP1 REVERT JUMPDEST PUSH0 DUP2 SWAP1 POP SWAP2 SWAP1 POP JUMP JUMPDEST PUSH2 0x463 DUP2 PUSH2 0x451 JUMP JUMPDEST DUP2 EQ PUSH2 0x46D JUMPI PUSH0 DUP1 REVERT JUMPDEST POP JUMP JUMPDEST PUSH0 DUP2 CALLDATALOAD SWAP1 POP PUSH2 0x47E DUP2 PUSH2 0x45A JUMP JUMPDEST SWAP3 SWAP2 POP POP JUMP JUMPDEST PUSH0 PUSH1 0x20 DUP3 DUP5 SUB SLT ISZERO PUSH2 0x499 JUMPI PUSH2 0x498 PUSH2 0x44D JUMP JUMPDEST JUMPDEST PUSH0 PUSH2 0x4A6 DUP5 DUP3 DUP6 ADD PUSH2 0x470 JUMP JUMPDEST SWAP2 POP POP SWAP3 SWAP2 POP POP JUMP JUMPDEST PUSH0 PUSH20 0xFFFFFFFFFFFFFFFFFFFFFFFFFFFFFFFFFFFFFFFF DUP3 AND SWAP1 POP SWAP2 SWAP1 POP JUMP JUMPDEST PUSH0 PUSH2 0x4D8 DUP3 PUSH2 0x4AF JUMP JUMPDEST SWAP1 POP SWAP2 SWAP1 POP JUMP JUMPDEST PUSH2 0x4E8 DUP2 PUSH2 0x4CE JUMP JUMPDEST DUP2 EQ PUSH2 0x4F2 JUMPI PUSH0 DUP1 REVERT JUMPDEST POP JUMP JUMPDEST PUSH0 DUP2 CALLDATALOAD SWAP1 POP PUSH2 0x503 DUP2 PUSH2 0x4DF JUMP JUMPDEST SWAP3 SWAP2 POP POP JUMP JUMPDEST PUSH0 DUP1 PUSH0 DUP1 PUSH1 0x80 DUP6 DUP8 SUB SLT ISZERO PUSH2 0x521 JUMPI PUSH2 0x520 PUSH2 0x44D JUMP JUMPDEST JUMPDEST PUSH0 PUSH2 0x52E DUP8 DUP3 DUP9 ADD PUSH2 0x470 JUMP JUMPDEST SWAP5 POP POP PUSH1 0x20 PUSH2 0x53F DUP8 DUP3 DUP9 ADD PUSH2 0x4F5 JUMP JUMPDEST SWAP4 POP POP PUSH1 0x40 PUSH2 0x550 DUP8 DUP3 DUP9 ADD PUSH2 0x4F5 JUMP JUMPDEST SWAP3 POP POP PUSH1 0x60 PUSH2 0x561 DUP8 DUP3 DUP9 ADD PUSH2 0x470 JUMP JUMPDEST SWAP2 POP POP SWAP3 SWAP6 SWAP2 SWAP5 POP SWAP3 POP JUMP JUMPDEST PUSH0 DUP3 DUP3 MSTORE PUSH1 0x20 DUP3 ADD SWAP1 POP SWAP3 SWAP2 POP POP JUMP JUMPDEST PUSH32 0x5061796D656E7420646F6573206E6F7420657869737400000000000000000000 PUSH0 DUP3 ADD MSTORE POP JUMP JUMPDEST PUSH0 PUSH2 0x5B1 PUSH1 0x16 DUP4 PUSH2 0x56D JUMP JUMPDEST SWAP2 POP PUSH2 0x5BC DUP3 PUSH2 0x57D JUMP JUMPDEST PUSH1 0x20 DUP3 ADD SWAP1 POP SWAP2 SWAP1 POP JUMP JUMPDEST PUSH0 PUSH1 0x20 DUP3 ADD SWAP1 POP DUP2 DUP2 SUB PUSH0 DUP4 ADD MSTORE PUSH2 0x5DE DUP2 PUSH2 0x5A5 JUMP JUMPDEST SWAP1 POP SWAP2 SWAP1 POP JUMP JUMPDEST PUSH32 0x5061796D656E74206E6F74207665726966696564000000000000000000000000 PUSH0 DUP3 ADD MSTORE POP JUMP JUMPDEST PUSH0 PUSH2 0x619 PUSH1 0x14 DUP4 PUSH2 0x56D JUMP JUMPDEST SWAP2 POP PUSH2 0x624 DUP3 PUSH2 0x5E5 JUMP JUMPDEST PUSH1 0x20 DUP3 ADD SWAP1 POP SWAP2 SWAP1 POP JUMP JUMPDEST PUSH0 PUSH1 0x20 DUP3 ADD SWAP1 POP DUP2 DUP2 SUB PUSH0 DUP4 ADD MSTORE PUSH2 0x646 DUP2 PUSH2 0x60D JUMP JUMPDEST SWAP1 POP SWAP2 SWAP1 POP JUMP JUMPDEST PUSH2 0x656 DUP2 PUSH2 0x451 JUMP JUMPDEST DUP3 MSTORE POP POP JUMP JUMPDEST PUSH0 PUSH1 0x20 DUP3 ADD SWAP1 POP PUSH2 0x66F PUSH0 DUP4 ADD DUP5 PUSH2 0x64D JUMP JUMPDEST SWAP3 SWAP2 POP POP JUMP JUMPDEST PUSH32 0x5061796D656E7420616C72656164792065786973747300000000000000000000 PUSH0 DUP3 ADD MSTORE POP JUMP JUMPDEST PUSH0 PUSH2 0x6A9 PUSH1 0x16 DUP4 PUSH2 0x56D JUMP JUMPDEST SWAP2 POP PUSH2 0x6B4 DUP3 PUSH2 0x675 JUMP JUMPDEST PUSH1 0x20 DUP3 ADD SWAP1 POP SWAP2 SWAP1 POP JUMP JUMPDEST PUSH0 PUSH1 0x20 DUP3 ADD SWAP1 POP DUP2 DUP2 SUB PUSH0 DUP4 ADD MSTORE PUSH2 0x6D6 DUP2 PUSH2 0x69D JUMP JUMPDEST SWAP1 POP SWAP2 SWAP1 POP JUMP JUMPDEST PUSH2 0x6E6 DUP2 PUSH2 0x4CE JUMP JUMPDEST DUP3 MSTORE POP POP JUMP JUMPDEST PUSH0 PUSH1 0x80 DUP3 ADD SWAP1 POP PUSH2 0x6FF PUSH0 DUP4 ADD DUP8 PUSH2 0x64D JUMP JUMPDEST PUSH2 0x70C PUSH1 0x20 DUP4 ADD DUP7 PUSH2 0x6DD JUMP JUMPDEST PUSH2 0x719 PUSH1 0x40 DUP4 ADD DUP6 PUSH2 0x6DD JUMP JUMPDEST PUSH2 0x726 PUSH1 0x60 DUP4 ADD DUP5 PUSH2 0x64D JUMP JUMPDEST SWAP6 SWAP5 POP POP POP POP POP JUMP INVALID LOG2 PUSH5 0x6970667358 0x22 SLT KECCAK256 PC 0x23 RETURNDATASIZE 0xC2 0xAA PUSH14 0x5EF9799E18E2A0DA7A4FED7D983D 0xAC 0x4C 0xB0 0xC PUSH18 0x653B09F365351364736F6C634300081A0033 "
		},
		"gasEstimates": {
			"creation": {
				"codeDepositCost": "378600",
				"executionCost": "416",
				"totalCost": "379016"
			},
			"external": {
				"completePayment(uint256)": "infinite",
				"initiatePayment(uint256,address,address,uint256)": "infinite",
				"verifyPayment(uint256)": "infinite"
			}
		},
		"methodIdentifiers": {
			"completePayment(uint256)": "4f01c6f2",
			"initiatePayment(uint256,address,address,uint256)": "685e96a2",
			"verifyPayment(uint256)": "5b057fd1"
		}
	},
	"abi": [
		{
			"anonymous": false,
			"inputs": [
				{
					"indexed": false,
					"internalType": "uint256",
					"name": "paymentId",
					"type": "uint256"
				}
			],
			"name": "PaymentCompleted",
			"type": "event"
		},
		{
			"anonymous": false,
			"inputs": [
				{
					"indexed": false,
					"internalType": "uint256",
					"name": "paymentId",
					"type": "uint256"
				},
				{
					"indexed": false,
					"internalType": "address",
					"name": "buyer",
					"type": "address"
				},
				{
					"indexed": false,
					"internalType": "address",
					"name": "seller",
					"type": "address"
				},
				{
					"indexed": false,
					"internalType": "uint256",
					"name": "amount",
					"type": "uint256"
				}
			],
			"name": "PaymentInitiated",
			"type": "event"
		},
		{
			"anonymous": false,
			"inputs": [
				{
					"indexed": false,
					"internalType": "uint256",
					"name": "paymentId",
					"type": "uint256"
				}
			],
			"name": "PaymentVerified",
			"type": "event"
		},
		{
			"inputs": [
				{
					"internalType": "uint256",
					"name": "paymentId",
					"type": "uint256"
				}
			],
			"name": "completePayment",
			"outputs": [],
			"stateMutability": "nonpayable",
			"type": "function"
		},
		{
			"inputs": [
				{
					"internalType": "uint256",
					"name": "paymentId",
					"type": "uint256"
				},
				{
					"internalType": "address",
					"name": "buyer",
					"type": "address"
				},
				{
					"internalType": "address",
					"name": "seller",
					"type": "address"
				},
				{
					"internalType": "uint256",
					"name": "amount",
					"type": "uint256"
				}
			],
			"name": "initiatePayment",
			"outputs": [],
			"stateMutability": "nonpayable",
			"type": "function"
		},
		{
			"inputs": [
				{
					"internalType": "uint256",
					"name": "paymentId",
					"type": "uint256"
				}
			],
			"name": "verifyPayment",
			"outputs": [],
			"stateMutability": "nonpayable",
			"type": "function"
		}
	]
}