{
	"data": {
		"bytecode": {
			"linkReferences": {},
			"object": "6080604052348015600e575f80fd5b50610d398061001c5f395ff3fe608060405260043610610049575f3560e01c80633380c0d81461004d5780635a22147e146100755780639ace38c214610091578063b77bf600146100d2578063f5e83e17146100fc575b5f80fd5b348015610058575f80fd5b50610073600480360381019061006e9190610864565b610124565b005b61008f600480360381019061008a91906108e9565b610369565b005b34801561009c575f80fd5b506100b760048036038101906100b29190610864565b610561565b6040516100c9969594939291906109ca565b60405180910390f35b3480156100dd575f80fd5b506100e66105e2565b6040516100f39190610a29565b60405180910390f35b348015610107575f80fd5b50610122600480360381019061011d9190610864565b6105e8565b005b5f805f8381526020019081526020015f2090505f600281111561014a57610149610957565b5b816005015f9054906101000a900460ff16600281111561016d5761016c610957565b5b146101ad576040517f08c379a00000000000000000000000000000000000000000000000000000000081526004016101a490610a9c565b60405180910390fd5b3373ffffffffffffffffffffffffffffffffffffffff16816002015f9054906101000a900473ffffffffffffffffffffffffffffffffffffffff1673ffffffffffffffffffffffffffffffffffffffff16148061025857503373ffffffffffffffffffffffffffffffffffffffff16816003015f9054906101000a900473ffffffffffffffffffffffffffffffffffffffff1673ffffffffffffffffffffffffffffffffffffffff16145b610297576040517f08c379a000000000000000000000000000000000000000000000000000000000815260040161028e90610b2a565b60405180910390fd5b6002816005015f6101000a81548160ff021916908360028111156102be576102bd610957565b5b0217905550806002015f9054906101000a900473ffffffffffffffffffffffffffffffffffffffff1673ffffffffffffffffffffffffffffffffffffffff166108fc826004015490811502906040515f60405180830381858888f1935050505015801561032d573d5f803e3d5ffd5b507f956fb32199d8b882b2039a14e1be35ab14f7a80b9089fc223f14b43937173e608260405161035d9190610a29565b60405180910390a15050565b8034146103ab576040517f08c379a00000000000000000000000000000000000000000000000000000000081526004016103a290610b92565b60405180910390fd5b60015f8154809291906103bd90610bdd565b91905055506040518060c0016040528060015481526020018481526020013373ffffffffffffffffffffffffffffffffffffffff1681526020018373ffffffffffffffffffffffffffffffffffffffff1681526020018281526020015f600281111561042c5761042b610957565b5b8152505f8060015481526020019081526020015f205f820151815f0155602082015181600101556040820151816002015f6101000a81548173ffffffffffffffffffffffffffffffffffffffff021916908373ffffffffffffffffffffffffffffffffffffffff1602179055506060820151816003015f6101000a81548173ffffffffffffffffffffffffffffffffffffffff021916908373ffffffffffffffffffffffffffffffffffffffff1602179055506080820151816004015560a0820151816005015f6101000a81548160ff0219169083600281111561051357610512610957565b5b02179055509050507fbc0a297ed09e86fffd7685f7ecbf0caec7b0dca893da471ed9e8139094463ac760015484338585604051610554959493929190610c24565b60405180910390a1505050565b5f602052805f5260405f205f91509050805f015490806001015490806002015f9054906101000a900473ffffffffffffffffffffffffffffffffffffffff1690806003015f9054906101000a900473ffffffffffffffffffffffffffffffffffffffff1690806004015490806005015f9054906101000a900460ff16905086565b60015481565b5f805f8381526020019081526020015f2090505f600281111561060e5761060d610957565b5b816005015f9054906101000a900460ff16600281111561063157610630610957565b5b14610671576040517f08c379a000000000000000000000000000000000000000000000000000000000815260040161066890610a9c565b60405180910390fd5b3373ffffffffffffffffffffffffffffffffffffffff16816002015f9054906101000a900473ffffffffffffffffffffffffffffffffffffffff1673ffffffffffffffffffffffffffffffffffffffff16148061071c57503373ffffffffffffffffffffffffffffffffffffffff16816003015f9054906101000a900473ffffffffffffffffffffffffffffffffffffffff1673ffffffffffffffffffffffffffffffffffffffff16145b61075b576040517f08c379a000000000000000000000000000000000000000000000000000000000815260040161075290610ce5565b60405180910390fd5b6001816005015f6101000a81548160ff0219169083600281111561078257610781610957565b5b0217905550806003015f9054906101000a900473ffffffffffffffffffffffffffffffffffffffff1673ffffffffffffffffffffffffffffffffffffffff166108fc826004015490811502906040515f60405180830381858888f193505050501580156107f1573d5f803e3d5ffd5b507f161186077e0cdfa49fae16d54ce01ea091439dbf14243419593fa6c051c906c8826040516108219190610a29565b60405180910390a15050565b5f80fd5b5f819050919050565b61084381610831565b811461084d575f80fd5b50565b5f8135905061085e8161083a565b92915050565b5f602082840312156108795761087861082d565b5b5f61088684828501610850565b91505092915050565b5f73ffffffffffffffffffffffffffffffffffffffff82169050919050565b5f6108b88261088f565b9050919050565b6108c8816108ae565b81146108d2575f80fd5b50565b5f813590506108e3816108bf565b92915050565b5f805f60608486031215610900576108ff61082d565b5b5f61090d86828701610850565b935050602061091e868287016108d5565b925050604061092f86828701610850565b9150509250925092565b61094281610831565b82525050565b610951816108ae565b82525050565b7f4e487b71000000000000000000000000000000000000000000000000000000005f52602160045260245ffd5b6003811061099557610994610957565b5b50565b5f8190506109a582610984565b919050565b5f6109b482610998565b9050919050565b6109c4816109aa565b82525050565b5f60c0820190506109dd5f830189610939565b6109ea6020830188610939565b6109f76040830187610948565b610a046060830186610948565b610a116080830185610939565b610a1e60a08301846109bb565b979650505050505050565b5f602082019050610a3c5f830184610939565b92915050565b5f82825260208201905092915050565b7f5472616e73616374696f6e206e6f742070656e64696e670000000000000000005f82015250565b5f610a86601783610a42565b9150610a9182610a52565b602082019050919050565b5f6020820190508181035f830152610ab381610a7a565b9050919050565b7f4f6e6c79206275796572206f722073656c6c65722063616e2063616e63656c205f8201527f746865207472616e73616374696f6e0000000000000000000000000000000000602082015250565b5f610b14602f83610a42565b9150610b1f82610aba565b604082019050919050565b5f6020820190508181035f830152610b4181610b08565b9050919050565b7f496e73756666696369656e742066756e64732073656e740000000000000000005f82015250565b5f610b7c601783610a42565b9150610b8782610b48565b602082019050919050565b5f6020820190508181035f830152610ba981610b70565b9050919050565b7f4e487b71000000000000000000000000000000000000000000000000000000005f52601160045260245ffd5b5f610be782610831565b91507fffffffffffffffffffffffffffffffffffffffffffffffffffffffffffffffff8203610c1957610c18610bb0565b5b600182019050919050565b5f60a082019050610c375f830188610939565b610c446020830187610939565b610c516040830186610948565b610c5e6060830185610948565b610c6b6080830184610939565b9695505050505050565b7f4f6e6c79206275796572206f722073656c6c65722063616e20636f6d706c65745f8201527f6520746865207472616e73616374696f6e000000000000000000000000000000602082015250565b5f610ccf603183610a42565b9150610cda82610c75565b604082019050919050565b5f6020820190508181035f830152610cfc81610cc3565b905091905056fea2646970667358221220932bc0a81bac4ab0234355cbc68d9d5570a8d49ab21cf751ce39774a8a76618f64736f6c63430008190033",
			"opcodes": "PUSH1 0x80 PUSH1 0x40 MSTORE CALLVALUE DUP1 ISZERO PUSH1 0xE JUMPI PUSH0 DUP1 REVERT JUMPDEST POP PUSH2 0xD39 DUP1 PUSH2 0x1C PUSH0 CODECOPY PUSH0 RETURN INVALID PUSH1 0x80 PUSH1 0x40 MSTORE PUSH1 0x4 CALLDATASIZE LT PUSH2 0x49 JUMPI PUSH0 CALLDATALOAD PUSH1 0xE0 SHR DUP1 PUSH4 0x3380C0D8 EQ PUSH2 0x4D JUMPI DUP1 PUSH4 0x5A22147E EQ PUSH2 0x75 JUMPI DUP1 PUSH4 0x9ACE38C2 EQ PUSH2 0x91 JUMPI DUP1 PUSH4 0xB77BF600 EQ PUSH2 0xD2 JUMPI DUP1 PUSH4 0xF5E83E17 EQ PUSH2 0xFC JUMPI JUMPDEST PUSH0 DUP1 REVERT JUMPDEST CALLVALUE DUP1 ISZERO PUSH2 0x58 JUMPI PUSH0 DUP1 REVERT JUMPDEST POP PUSH2 0x73 PUSH1 0x4 DUP1 CALLDATASIZE SUB DUP2 ADD SWAP1 PUSH2 0x6E SWAP2 SWAP1 PUSH2 0x864 JUMP JUMPDEST PUSH2 0x124 JUMP JUMPDEST STOP JUMPDEST PUSH2 0x8F PUSH1 0x4 DUP1 CALLDATASIZE SUB DUP2 ADD SWAP1 PUSH2 0x8A SWAP2 SWAP1 PUSH2 0x8E9 JUMP JUMPDEST PUSH2 0x369 JUMP JUMPDEST STOP JUMPDEST CALLVALUE DUP1 ISZERO PUSH2 0x9C JUMPI PUSH0 DUP1 REVERT JUMPDEST POP PUSH2 0xB7 PUSH1 0x4 DUP1 CALLDATASIZE SUB DUP2 ADD SWAP1 PUSH2 0xB2 SWAP2 SWAP1 PUSH2 0x864 JUMP JUMPDEST PUSH2 0x561 JUMP JUMPDEST PUSH1 0x40 MLOAD PUSH2 0xC9 SWAP7 SWAP6 SWAP5 SWAP4 SWAP3 SWAP2 SWAP1 PUSH2 0x9CA JUMP JUMPDEST PUSH1 0x40 MLOAD DUP1 SWAP2 SUB SWAP1 RETURN JUMPDEST CALLVALUE DUP1 ISZERO PUSH2 0xDD JUMPI PUSH0 DUP1 REVERT JUMPDEST POP PUSH2 0xE6 PUSH2 0x5E2 JUMP JUMPDEST PUSH1 0x40 MLOAD PUSH2 0xF3 SWAP2 SWAP1 PUSH2 0xA29 JUMP JUMPDEST PUSH1 0x40 MLOAD DUP1 SWAP2 SUB SWAP1 RETURN JUMPDEST CALLVALUE DUP1 ISZERO PUSH2 0x107 JUMPI PUSH0 DUP1 REVERT JUMPDEST POP PUSH2 0x122 PUSH1 0x4 DUP1 CALLDATASIZE SUB DUP2 ADD SWAP1 PUSH2 0x11D SWAP2 SWAP1 PUSH2 0x864 JUMP JUMPDEST PUSH2 0x5E8 JUMP JUMPDEST STOP JUMPDEST PUSH0 DUP1 PUSH0 DUP4 DUP2 MSTORE PUSH1 0x20 ADD SWAP1 DUP2 MSTORE PUSH1 0x20 ADD PUSH0 KECCAK256 SWAP1 POP PUSH0 PUSH1 0x2 DUP2 GT ISZERO PUSH2 0x14A JUMPI PUSH2 0x149 PUSH2 0x957 JUMP JUMPDEST JUMPDEST DUP2 PUSH1 0x5 ADD PUSH0 SWAP1 SLOAD SWAP1 PUSH2 0x100 EXP SWAP1 DIV PUSH1 0xFF AND PUSH1 0x2 DUP2 GT ISZERO PUSH2 0x16D JUMPI PUSH2 0x16C PUSH2 0x957 JUMP JUMPDEST JUMPDEST EQ PUSH2 0x1AD JUMPI PUSH1 0x40 MLOAD PUSH32 0x8C379A000000000000000000000000000000000000000000000000000000000 DUP2 MSTORE PUSH1 0x4 ADD PUSH2 0x1A4 SWAP1 PUSH2 0xA9C JUMP JUMPDEST PUSH1 0x40 MLOAD DUP1 SWAP2 SUB SWAP1 REVERT JUMPDEST CALLER PUSH20 0xFFFFFFFFFFFFFFFFFFFFFFFFFFFFFFFFFFFFFFFF AND DUP2 PUSH1 0x2 ADD PUSH0 SWAP1 SLOAD SWAP1 PUSH2 0x100 EXP SWAP1 DIV PUSH20 0xFFFFFFFFFFFFFFFFFFFFFFFFFFFFFFFFFFFFFFFF AND PUSH20 0xFFFFFFFFFFFFFFFFFFFFFFFFFFFFFFFFFFFFFFFF AND EQ DUP1 PUSH2 0x258 JUMPI POP CALLER PUSH20 0xFFFFFFFFFFFFFFFFFFFFFFFFFFFFFFFFFFFFFFFF AND DUP2 PUSH1 0x3 ADD PUSH0 SWAP1 SLOAD SWAP1 PUSH2 0x100 EXP SWAP1 DIV PUSH20 0xFFFFFFFFFFFFFFFFFFFFFFFFFFFFFFFFFFFFFFFF AND PUSH20 0xFFFFFFFFFFFFFFFFFFFFFFFFFFFFFFFFFFFFFFFF AND EQ JUMPDEST PUSH2 0x297 JUMPI PUSH1 0x40 MLOAD PUSH32 0x8C379A000000000000000000000000000000000000000000000000000000000 DUP2 MSTORE PUSH1 0x4 ADD PUSH2 0x28E SWAP1 PUSH2 0xB2A JUMP JUMPDEST PUSH1 0x40 MLOAD DUP1 SWAP2 SUB SWAP1 REVERT JUMPDEST PUSH1 0x2 DUP2 PUSH1 0x5 ADD PUSH0 PUSH2 0x100 EXP DUP2 SLOAD DUP2 PUSH1 0xFF MUL NOT AND SWAP1 DUP4 PUSH1 0x2 DUP2 GT ISZERO PUSH2 0x2BE JUMPI PUSH2 0x2BD PUSH2 0x957 JUMP JUMPDEST JUMPDEST MUL OR SWAP1 SSTORE POP DUP1 PUSH1 0x2 ADD PUSH0 SWAP1 SLOAD SWAP1 PUSH2 0x100 EXP SWAP1 DIV PUSH20 0xFFFFFFFFFFFFFFFFFFFFFFFFFFFFFFFFFFFFFFFF AND PUSH20 0xFFFFFFFFFFFFFFFFFFFFFFFFFFFFFFFFFFFFFFFF AND PUSH2 0x8FC DUP3 PUSH1 0x4 ADD SLOAD SWAP1 DUP2 ISZERO MUL SWAP1 PUSH1 0x40 MLOAD PUSH0 PUSH1 0x40 MLOAD DUP1 DUP4 SUB DUP2 DUP6 DUP9 DUP9 CALL SWAP4 POP POP POP POP ISZERO DUP1 ISZERO PUSH2 0x32D JUMPI RETURNDATASIZE PUSH0 DUP1 RETURNDATACOPY RETURNDATASIZE PUSH0 REVERT JUMPDEST POP PUSH32 0x956FB32199D8B882B2039A14E1BE35AB14F7A80B9089FC223F14B43937173E60 DUP3 PUSH1 0x40 MLOAD PUSH2 0x35D SWAP2 SWAP1 PUSH2 0xA29 JUMP JUMPDEST PUSH1 0x40 MLOAD DUP1 SWAP2 SUB SWAP1 LOG1 POP POP JUMP JUMPDEST DUP1 CALLVALUE EQ PUSH2 0x3AB JUMPI PUSH1 0x40 MLOAD PUSH32 0x8C379A000000000000000000000000000000000000000000000000000000000 DUP2 MSTORE PUSH1 0x4 ADD PUSH2 0x3A2 SWAP1 PUSH2 0xB92 JUMP JUMPDEST PUSH1 0x40 MLOAD DUP1 SWAP2 SUB SWAP1 REVERT JUMPDEST PUSH1 0x1 PUSH0 DUP2 SLOAD DUP1 SWAP3 SWAP2 SWAP1 PUSH2 0x3BD SWAP1 PUSH2 0xBDD JUMP JUMPDEST SWAP2 SWAP1 POP SSTORE POP PUSH1 0x40 MLOAD DUP1 PUSH1 0xC0 ADD PUSH1 0x40 MSTORE DUP1 PUSH1 0x1 SLOAD DUP2 MSTORE PUSH1 0x20 ADD DUP5 DUP2 MSTORE PUSH1 0x20 ADD CALLER PUSH20 0xFFFFFFFFFFFFFFFFFFFFFFFFFFFFFFFFFFFFFFFF AND DUP2 MSTORE PUSH1 0x20 ADD DUP4 PUSH20 0xFFFFFFFFFFFFFFFFFFFFFFFFFFFFFFFFFFFFFFFF AND DUP2 MSTORE PUSH1 0x20 ADD DUP3 DUP2 MSTORE PUSH1 0x20 ADD PUSH0 PUSH1 0x2 DUP2 GT ISZERO PUSH2 0x42C JUMPI PUSH2 0x42B PUSH2 0x957 JUMP JUMPDEST JUMPDEST DUP2 MSTORE POP PUSH0 DUP1 PUSH1 0x1 SLOAD DUP2 MSTORE PUSH1 0x20 ADD SWAP1 DUP2 MSTORE PUSH1 0x20 ADD PUSH0 KECCAK256 PUSH0 DUP3 ADD MLOAD DUP2 PUSH0 ADD SSTORE PUSH1 0x20 DUP3 ADD MLOAD DUP2 PUSH1 0x1 ADD SSTORE PUSH1 0x40 DUP3 ADD MLOAD DUP2 PUSH1 0x2 ADD PUSH0 PUSH2 0x100 EXP DUP2 SLOAD DUP2 PUSH20 0xFFFFFFFFFFFFFFFFFFFFFFFFFFFFFFFFFFFFFFFF MUL NOT AND SWAP1 DUP4 PUSH20 0xFFFFFFFFFFFFFFFFFFFFFFFFFFFFFFFFFFFFFFFF AND MUL OR SWAP1 SSTORE POP PUSH1 0x60 DUP3 ADD MLOAD DUP2 PUSH1 0x3 ADD PUSH0 PUSH2 0x100 EXP DUP2 SLOAD DUP2 PUSH20 0xFFFFFFFFFFFFFFFFFFFFFFFFFFFFFFFFFFFFFFFF MUL NOT AND SWAP1 DUP4 PUSH20 0xFFFFFFFFFFFFFFFFFFFFFFFFFFFFFFFFFFFFFFFF AND MUL OR SWAP1 SSTORE POP PUSH1 0x80 DUP3 ADD MLOAD DUP2 PUSH1 0x4 ADD SSTORE PUSH1 0xA0 DUP3 ADD MLOAD DUP2 PUSH1 0x5 ADD PUSH0 PUSH2 0x100 EXP DUP2 SLOAD DUP2 PUSH1 0xFF MUL NOT AND SWAP1 DUP4 PUSH1 0x2 DUP2 GT ISZERO PUSH2 0x513 JUMPI PUSH2 0x512 PUSH2 0x957 JUMP JUMPDEST JUMPDEST MUL OR SWAP1 SSTORE POP SWAP1 POP POP PUSH32 0xBC0A297ED09E86FFFD7685F7ECBF0CAEC7B0DCA893DA471ED9E8139094463AC7 PUSH1 0x1 SLOAD DUP5 CALLER DUP6 DUP6 PUSH1 0x40 MLOAD PUSH2 0x554 SWAP6 SWAP5 SWAP4 SWAP3 SWAP2 SWAP1 PUSH2 0xC24 JUMP JUMPDEST PUSH1 0x40 MLOAD DUP1 SWAP2 SUB SWAP1 LOG1 POP POP POP JUMP JUMPDEST PUSH0 PUSH1 0x20 MSTORE DUP1 PUSH0 MSTORE PUSH1 0x40 PUSH0 KECCAK256 PUSH0 SWAP2 POP SWAP1 POP DUP1 PUSH0 ADD SLOAD SWAP1 DUP1 PUSH1 0x1 ADD SLOAD SWAP1 DUP1 PUSH1 0x2 ADD PUSH0 SWAP1 SLOAD SWAP1 PUSH2 0x100 EXP SWAP1 DIV PUSH20 0xFFFFFFFFFFFFFFFFFFFFFFFFFFFFFFFFFFFFFFFF AND SWAP1 DUP1 PUSH1 0x3 ADD PUSH0 SWAP1 SLOAD SWAP1 PUSH2 0x100 EXP SWAP1 DIV PUSH20 0xFFFFFFFFFFFFFFFFFFFFFFFFFFFFFFFFFFFFFFFF AND SWAP1 DUP1 PUSH1 0x4 ADD SLOAD SWAP1 DUP1 PUSH1 0x5 ADD PUSH0 SWAP1 SLOAD SWAP1 PUSH2 0x100 EXP SWAP1 DIV PUSH1 0xFF AND SWAP1 POP DUP7 JUMP JUMPDEST PUSH1 0x1 SLOAD DUP2 JUMP JUMPDEST PUSH0 DUP1 PUSH0 DUP4 DUP2 MSTORE PUSH1 0x20 ADD SWAP1 DUP2 MSTORE PUSH1 0x20 ADD PUSH0 KECCAK256 SWAP1 POP PUSH0 PUSH1 0x2 DUP2 GT ISZERO PUSH2 0x60E JUMPI PUSH2 0x60D PUSH2 0x957 JUMP JUMPDEST JUMPDEST DUP2 PUSH1 0x5 ADD PUSH0 SWAP1 SLOAD SWAP1 PUSH2 0x100 EXP SWAP1 DIV PUSH1 0xFF AND PUSH1 0x2 DUP2 GT ISZERO PUSH2 0x631 JUMPI PUSH2 0x630 PUSH2 0x957 JUMP JUMPDEST JUMPDEST EQ PUSH2 0x671 JUMPI PUSH1 0x40 MLOAD PUSH32 0x8C379A000000000000000000000000000000000000000000000000000000000 DUP2 MSTORE PUSH1 0x4 ADD PUSH2 0x668 SWAP1 PUSH2 0xA9C JUMP JUMPDEST PUSH1 0x40 MLOAD DUP1 SWAP2 SUB SWAP1 REVERT JUMPDEST CALLER PUSH20 0xFFFFFFFFFFFFFFFFFFFFFFFFFFFFFFFFFFFFFFFF AND DUP2 PUSH1 0x2 ADD PUSH0 SWAP1 SLOAD SWAP1 PUSH2 0x100 EXP SWAP1 DIV PUSH20 0xFFFFFFFFFFFFFFFFFFFFFFFFFFFFFFFFFFFFFFFF AND PUSH20 0xFFFFFFFFFFFFFFFFFFFFFFFFFFFFFFFFFFFFFFFF AND EQ DUP1 PUSH2 0x71C JUMPI POP CALLER PUSH20 0xFFFFFFFFFFFFFFFFFFFFFFFFFFFFFFFFFFFFFFFF AND DUP2 PUSH1 0x3 ADD PUSH0 SWAP1 SLOAD SWAP1 PUSH2 0x100 EXP SWAP1 DIV PUSH20 0xFFFFFFFFFFFFFFFFFFFFFFFFFFFFFFFFFFFFFFFF AND PUSH20 0xFFFFFFFFFFFFFFFFFFFFFFFFFFFFFFFFFFFFFFFF AND EQ JUMPDEST PUSH2 0x75B JUMPI PUSH1 0x40 MLOAD PUSH32 0x8C379A000000000000000000000000000000000000000000000000000000000 DUP2 MSTORE PUSH1 0x4 ADD PUSH2 0x752 SWAP1 PUSH2 0xCE5 JUMP JUMPDEST PUSH1 0x40 MLOAD DUP1 SWAP2 SUB SWAP1 REVERT JUMPDEST PUSH1 0x1 DUP2 PUSH1 0x5 ADD PUSH0 PUSH2 0x100 EXP DUP2 SLOAD DUP2 PUSH1 0xFF MUL NOT AND SWAP1 DUP4 PUSH1 0x2 DUP2 GT ISZERO PUSH2 0x782 JUMPI PUSH2 0x781 PUSH2 0x957 JUMP JUMPDEST JUMPDEST MUL OR SWAP1 SSTORE POP DUP1 PUSH1 0x3 ADD PUSH0 SWAP1 SLOAD SWAP1 PUSH2 0x100 EXP SWAP1 DIV PUSH20 0xFFFFFFFFFFFFFFFFFFFFFFFFFFFFFFFFFFFFFFFF AND PUSH20 0xFFFFFFFFFFFFFFFFFFFFFFFFFFFFFFFFFFFFFFFF AND PUSH2 0x8FC DUP3 PUSH1 0x4 ADD SLOAD SWAP1 DUP2 ISZERO MUL SWAP1 PUSH1 0x40 MLOAD PUSH0 PUSH1 0x40 MLOAD DUP1 DUP4 SUB DUP2 DUP6 DUP9 DUP9 CALL SWAP4 POP POP POP POP ISZERO DUP1 ISZERO PUSH2 0x7F1 JUMPI RETURNDATASIZE PUSH0 DUP1 RETURNDATACOPY RETURNDATASIZE PUSH0 REVERT JUMPDEST POP PUSH32 0x161186077E0CDFA49FAE16D54CE01EA091439DBF14243419593FA6C051C906C8 DUP3 PUSH1 0x40 MLOAD PUSH2 0x821 SWAP2 SWAP1 PUSH2 0xA29 JUMP JUMPDEST PUSH1 0x40 MLOAD DUP1 SWAP2 SUB SWAP1 LOG1 POP POP JUMP JUMPDEST PUSH0 DUP1 REVERT JUMPDEST PUSH0 DUP2 SWAP1 POP SWAP2 SWAP1 POP JUMP JUMPDEST PUSH2 0x843 DUP2 PUSH2 0x831 JUMP JUMPDEST DUP2 EQ PUSH2 0x84D JUMPI PUSH0 DUP1 REVERT JUMPDEST POP JUMP JUMPDEST PUSH0 DUP2 CALLDATALOAD SWAP1 POP PUSH2 0x85E DUP2 PUSH2 0x83A JUMP JUMPDEST SWAP3 SWAP2 POP POP JUMP JUMPDEST PUSH0 PUSH1 0x20 DUP3 DUP5 SUB SLT ISZERO PUSH2 0x879 JUMPI PUSH2 0x878 PUSH2 0x82D JUMP JUMPDEST JUMPDEST PUSH0 PUSH2 0x886 DUP5 DUP3 DUP6 ADD PUSH2 0x850 JUMP JUMPDEST SWAP2 POP POP SWAP3 SWAP2 POP POP JUMP JUMPDEST PUSH0 PUSH20 0xFFFFFFFFFFFFFFFFFFFFFFFFFFFFFFFFFFFFFFFF DUP3 AND SWAP1 POP SWAP2 SWAP1 POP JUMP JUMPDEST PUSH0 PUSH2 0x8B8 DUP3 PUSH2 0x88F JUMP JUMPDEST SWAP1 POP SWAP2 SWAP1 POP JUMP JUMPDEST PUSH2 0x8C8 DUP2 PUSH2 0x8AE JUMP JUMPDEST DUP2 EQ PUSH2 0x8D2 JUMPI PUSH0 DUP1 REVERT JUMPDEST POP JUMP JUMPDEST PUSH0 DUP2 CALLDATALOAD SWAP1 POP PUSH2 0x8E3 DUP2 PUSH2 0x8BF JUMP JUMPDEST SWAP3 SWAP2 POP POP JUMP JUMPDEST PUSH0 DUP1 PUSH0 PUSH1 0x60 DUP5 DUP7 SUB SLT ISZERO PUSH2 0x900 JUMPI PUSH2 0x8FF PUSH2 0x82D JUMP JUMPDEST JUMPDEST PUSH0 PUSH2 0x90D DUP7 DUP3 DUP8 ADD PUSH2 0x850 JUMP JUMPDEST SWAP4 POP POP PUSH1 0x20 PUSH2 0x91E DUP7 DUP3 DUP8 ADD PUSH2 0x8D5 JUMP JUMPDEST SWAP3 POP POP PUSH1 0x40 PUSH2 0x92F DUP7 DUP3 DUP8 ADD PUSH2 0x850 JUMP JUMPDEST SWAP2 POP POP SWAP3 POP SWAP3 POP SWAP3 JUMP JUMPDEST PUSH2 0x942 DUP2 PUSH2 0x831 JUMP JUMPDEST DUP3 MSTORE POP POP JUMP JUMPDEST PUSH2 0x951 DUP2 PUSH2 0x8AE JUMP JUMPDEST DUP3 MSTORE POP POP JUMP JUMPDEST PUSH32 0x4E487B7100000000000000000000000000000000000000000000000000000000 PUSH0 MSTORE PUSH1 0x21 PUSH1 0x4 MSTORE PUSH1 0x24 PUSH0 REVERT JUMPDEST PUSH1 0x3 DUP2 LT PUSH2 0x995 JUMPI PUSH2 0x994 PUSH2 0x957 JUMP JUMPDEST JUMPDEST POP JUMP JUMPDEST PUSH0 DUP2 SWAP1 POP PUSH2 0x9A5 DUP3 PUSH2 0x984 JUMP JUMPDEST SWAP2 SWAP1 POP JUMP JUMPDEST PUSH0 PUSH2 0x9B4 DUP3 PUSH2 0x998 JUMP JUMPDEST SWAP1 POP SWAP2 SWAP1 POP JUMP JUMPDEST PUSH2 0x9C4 DUP2 PUSH2 0x9AA JUMP JUMPDEST DUP3 MSTORE POP POP JUMP JUMPDEST PUSH0 PUSH1 0xC0 DUP3 ADD SWAP1 POP PUSH2 0x9DD PUSH0 DUP4 ADD DUP10 PUSH2 0x939 JUMP JUMPDEST PUSH2 0x9EA PUSH1 0x20 DUP4 ADD DUP9 PUSH2 0x939 JUMP JUMPDEST PUSH2 0x9F7 PUSH1 0x40 DUP4 ADD DUP8 PUSH2 0x948 JUMP JUMPDEST PUSH2 0xA04 PUSH1 0x60 DUP4 ADD DUP7 PUSH2 0x948 JUMP JUMPDEST PUSH2 0xA11 PUSH1 0x80 DUP4 ADD DUP6 PUSH2 0x939 JUMP JUMPDEST PUSH2 0xA1E PUSH1 0xA0 DUP4 ADD DUP5 PUSH2 0x9BB JUMP JUMPDEST SWAP8 SWAP7 POP POP POP POP POP POP POP JUMP JUMPDEST PUSH0 PUSH1 0x20 DUP3 ADD SWAP1 POP PUSH2 0xA3C PUSH0 DUP4 ADD DUP5 PUSH2 0x939 JUMP JUMPDEST SWAP3 SWAP2 POP POP JUMP JUMPDEST PUSH0 DUP3 DUP3 MSTORE PUSH1 0x20 DUP3 ADD SWAP1 POP SWAP3 SWAP2 POP POP JUMP JUMPDEST PUSH32 0x5472616E73616374696F6E206E6F742070656E64696E67000000000000000000 PUSH0 DUP3 ADD MSTORE POP JUMP JUMPDEST PUSH0 PUSH2 0xA86 PUSH1 0x17 DUP4 PUSH2 0xA42 JUMP JUMPDEST SWAP2 POP PUSH2 0xA91 DUP3 PUSH2 0xA52 JUMP JUMPDEST PUSH1 0x20 DUP3 ADD SWAP1 POP SWAP2 SWAP1 POP JUMP JUMPDEST PUSH0 PUSH1 0x20 DUP3 ADD SWAP1 POP DUP2 DUP2 SUB PUSH0 DUP4 ADD MSTORE PUSH2 0xAB3 DUP2 PUSH2 0xA7A JUMP JUMPDEST SWAP1 POP SWAP2 SWAP1 POP JUMP JUMPDEST PUSH32 0x4F6E6C79206275796572206F722073656C6C65722063616E2063616E63656C20 PUSH0 DUP3 ADD MSTORE PUSH32 0x746865207472616E73616374696F6E0000000000000000000000000000000000 PUSH1 0x20 DUP3 ADD MSTORE POP JUMP JUMPDEST PUSH0 PUSH2 0xB14 PUSH1 0x2F DUP4 PUSH2 0xA42 JUMP JUMPDEST SWAP2 POP PUSH2 0xB1F DUP3 PUSH2 0xABA JUMP JUMPDEST PUSH1 0x40 DUP3 ADD SWAP1 POP SWAP2 SWAP1 POP JUMP JUMPDEST PUSH0 PUSH1 0x20 DUP3 ADD SWAP1 POP DUP2 DUP2 SUB PUSH0 DUP4 ADD MSTORE PUSH2 0xB41 DUP2 PUSH2 0xB08 JUMP JUMPDEST SWAP1 POP SWAP2 SWAP1 POP JUMP JUMPDEST PUSH32 0x496E73756666696369656E742066756E64732073656E74000000000000000000 PUSH0 DUP3 ADD MSTORE POP JUMP JUMPDEST PUSH0 PUSH2 0xB7C PUSH1 0x17 DUP4 PUSH2 0xA42 JUMP JUMPDEST SWAP2 POP PUSH2 0xB87 DUP3 PUSH2 0xB48 JUMP JUMPDEST PUSH1 0x20 DUP3 ADD SWAP1 POP SWAP2 SWAP1 POP JUMP JUMPDEST PUSH0 PUSH1 0x20 DUP3 ADD SWAP1 POP DUP2 DUP2 SUB PUSH0 DUP4 ADD MSTORE PUSH2 0xBA9 DUP2 PUSH2 0xB70 JUMP JUMPDEST SWAP1 POP SWAP2 SWAP1 POP JUMP JUMPDEST PUSH32 0x4E487B7100000000000000000000000000000000000000000000000000000000 PUSH0 MSTORE PUSH1 0x11 PUSH1 0x4 MSTORE PUSH1 0x24 PUSH0 REVERT JUMPDEST PUSH0 PUSH2 0xBE7 DUP3 PUSH2 0x831 JUMP JUMPDEST SWAP2 POP PUSH32 0xFFFFFFFFFFFFFFFFFFFFFFFFFFFFFFFFFFFFFFFFFFFFFFFFFFFFFFFFFFFFFFFF DUP3 SUB PUSH2 0xC19 JUMPI PUSH2 0xC18 PUSH2 0xBB0 JUMP JUMPDEST JUMPDEST PUSH1 0x1 DUP3 ADD SWAP1 POP SWAP2 SWAP1 POP JUMP JUMPDEST PUSH0 PUSH1 0xA0 DUP3 ADD SWAP1 POP PUSH2 0xC37 PUSH0 DUP4 ADD DUP9 PUSH2 0x939 JUMP JUMPDEST PUSH2 0xC44 PUSH1 0x20 DUP4 ADD DUP8 PUSH2 0x939 JUMP JUMPDEST PUSH2 0xC51 PUSH1 0x40 DUP4 ADD DUP7 PUSH2 0x948 JUMP JUMPDEST PUSH2 0xC5E PUSH1 0x60 DUP4 ADD DUP6 PUSH2 0x948 JUMP JUMPDEST PUSH2 0xC6B PUSH1 0x80 DUP4 ADD DUP5 PUSH2 0x939 JUMP JUMPDEST SWAP7 SWAP6 POP POP POP POP POP POP JUMP JUMPDEST PUSH32 0x4F6E6C79206275796572206F722073656C6C65722063616E20636F6D706C6574 PUSH0 DUP3 ADD MSTORE PUSH32 0x6520746865207472616E73616374696F6E000000000000000000000000000000 PUSH1 0x20 DUP3 ADD MSTORE POP JUMP JUMPDEST PUSH0 PUSH2 0xCCF PUSH1 0x31 DUP4 PUSH2 0xA42 JUMP JUMPDEST SWAP2 POP PUSH2 0xCDA DUP3 PUSH2 0xC75 JUMP JUMPDEST PUSH1 0x40 DUP3 ADD SWAP1 POP SWAP2 SWAP1 POP JUMP JUMPDEST PUSH0 PUSH1 0x20 DUP3 ADD SWAP1 POP DUP2 DUP2 SUB PUSH0 DUP4 ADD MSTORE PUSH2 0xCFC DUP2 PUSH2 0xCC3 JUMP JUMPDEST SWAP1 POP SWAP2 SWAP1 POP JUMP INVALID LOG2 PUSH5 0x6970667358 0x22 SLT KECCAK256 SWAP4 0x2B 0xC0 0xA8 SHL 0xAC BLOBBASEFEE 0xB0 0x23 NUMBER SSTORE 0xCB 0xC6 DUP14 SWAP14 SSTORE PUSH17 0xA8D49AB21CF751CE39774A8A76618F6473 PUSH16 0x6C634300081900330000000000000000 "
		},
		"gasEstimates": {
			"creation": {
				"codeDepositCost": "677000",
				"executionCost": "706",
				"totalCost": "677706"
			},
			"external": {
				"cancelTransaction(uint256)": "infinite",
				"completeTransaction(uint256)": "infinite",
				"initiateTransaction(uint256,address,uint256)": "infinite",
				"transactionCount()": "2469",
				"transactions(uint256)": "infinite"
			}
		},
		"methodIdentifiers": {
			"cancelTransaction(uint256)": "3380c0d8",
			"completeTransaction(uint256)": "f5e83e17",
			"initiateTransaction(uint256,address,uint256)": "5a22147e",
			"transactionCount()": "b77bf600",
			"transactions(uint256)": "9ace38c2"
		}
	},
	"abi": [
		{
			"anonymous": false,
			"inputs": [
				{
					"indexed": false,
					"internalType": "uint256",
					"name": "id",
					"type": "uint256"
				}
			],
			"name": "TransactionCancelled",
			"type": "event"
		},
		{
			"anonymous": false,
			"inputs": [
				{
					"indexed": false,
					"internalType": "uint256",
					"name": "id",
					"type": "uint256"
				}
			],
			"name": "TransactionCompleted",
			"type": "event"
		},
		{
			"anonymous": false,
			"inputs": [
				{
					"indexed": false,
					"internalType": "uint256",
					"name": "id",
					"type": "uint256"
				},
				{
					"indexed": false,
					"internalType": "uint256",
					"name": "propertyId",
					"type": "uint256"
				},
				{
					"indexed": false,
					"internalType": "address",
					"name": "buyer",
					"type": "address"
				},
				{
					"indexed": false,
					"internalType": "address",
					"name": "seller",
					"type": "address"
				},
				{
					"indexed": false,
					"internalType": "uint256",
					"name": "amount",
					"type": "uint256"
				}
			],
			"name": "TransactionInitiated",
			"type": "event"
		},
		{
			"inputs": [
				{
					"internalType": "uint256",
					"name": "_id",
					"type": "uint256"
				}
			],
			"name": "cancelTransaction",
			"outputs": [],
			"stateMutability": "nonpayable",
			"type": "function"
		},
		{
			"inputs": [
				{
					"internalType": "uint256",
					"name": "_id",
					"type": "uint256"
				}
			],
			"name": "completeTransaction",
			"outputs": [],
			"stateMutability": "nonpayable",
			"type": "function"
		},
		{
			"inputs": [
				{
					"internalType": "uint256",
					"name": "_propertyId",
					"type": "uint256"
				},
				{
					"internalType": "address",
					"name": "_seller",
					"type": "address"
				},
				{
					"internalType": "uint256",
					"name": "_amount",
					"type": "uint256"
				}
			],
			"name": "initiateTransaction",
			"outputs": [],
			"stateMutability": "payable",
			"type": "function"
		},
		{
			"inputs": [],
			"name": "transactionCount",
			"outputs": [
				{
					"internalType": "uint256",
					"name": "",
					"type": "uint256"
				}
			],
			"stateMutability": "view",
			"type": "function"
		},
		{
			"inputs": [
				{
					"internalType": "uint256",
					"name": "",
					"type": "uint256"
				}
			],
			"name": "transactions",
			"outputs": [
				{
					"internalType": "uint256",
					"name": "id",
					"type": "uint256"
				},
				{
					"internalType": "uint256",
					"name": "propertyId",
					"type": "uint256"
				},
				{
					"internalType": "address",
					"name": "buyer",
					"type": "address"
				},
				{
					"internalType": "address",
					"name": "seller",
					"type": "address"
				},
				{
					"internalType": "uint256",
					"name": "amount",
					"type": "uint256"
				},
				{
					"internalType": "enum PropertyTransaction.Status",
					"name": "status",
					"type": "uint8"
				}
			],
			"stateMutability": "view",
			"type": "function"
		}
	]
}