{
	"data": {
		"bytecode": {
			"linkReferences": {
				"remix_tests.sol": {
					"Assert": [
						{
							"length": 20,
							"start": 663
						},
						{
							"length": 20,
							"start": 1089
						},
						{
							"length": 20,
							"start": 1212
						},
						{
							"length": 20,
							"start": 1335
						},
						{
							"length": 20,
							"start": 1463
						}
					]
				}
			},
			"object": "6080604052348015600e575f80fd5b5061204d8061001c5f395ff3fe608060405234801561000f575f80fd5b506004361061003f575f3560e01c80637fea0d4b14610043578063912443271461004d578063e2ab151c14610057575b5f80fd5b61004b610061565b005b6100556100c7565b005b61005f6102fc565b005b60405161006d9061061a565b604051809103905ff080158015610086573d5f803e3d5ffd5b505f806101000a81548173ffffffffffffffffffffffffffffffffffffffff021916908373ffffffffffffffffffffffffffffffffffffffff160217905550565b5f8054906101000a900473ffffffffffffffffffffffffffffffffffffffff1673ffffffffffffffffffffffffffffffffffffffff16634cd378bc620249f06040518263ffffffff1660e01b81526004016101229190610716565b5f604051808303815f87803b158015610139575f80fd5b505af115801561014b573d5f803e3d5ffd5b505050505f8054906101000a900473ffffffffffffffffffffffffffffffffffffffff1673ffffffffffffffffffffffffffffffffffffffff166344e034cc6002620271006040518363ffffffff1660e01b81526004016101ad9291906107c7565b5f604051808303815f87803b1580156101c4575f80fd5b505af11580156101d6573d5f803e3d5ffd5b505050505f805f9054906101000a900473ffffffffffffffffffffffffffffffffffffffff1673ffffffffffffffffffffffffffffffffffffffff166332665ffb60026040518263ffffffff1660e01b815260040161023591906107ee565b5f60405180830381865afa15801561024f573d5f803e3d5ffd5b505050506040513d5f823e3d601f19601f820116820180604052508101906102779190610aea565b905073__$acbfb1c35000d78352310b16a054a6b106$__63abcd79608260600151620271006040518363ffffffff1660e01b81526004016102b9929190610bcf565b602060405180830381865af41580156102d4573d5f803e3d5ffd5b505050506040513d601f19601f820116820180604052508101906102f89190610c09565b5050565b5f8054906101000a900473ffffffffffffffffffffffffffffffffffffffff1673ffffffffffffffffffffffffffffffffffffffff16634cd378bc620186a06040518263ffffffff1660e01b81526004016103579190610d01565b5f604051808303815f87803b15801561036e575f80fd5b505af1158015610380573d5f803e3d5ffd5b505050505f805f9054906101000a900473ffffffffffffffffffffffffffffffffffffffff1673ffffffffffffffffffffffffffffffffffffffff166332665ffb60016040518263ffffffff1660e01b81526004016103df9190610d79565b5f60405180830381865afa1580156103f9573d5f803e3d5ffd5b505050506040513d5f823e3d601f19601f820116820180604052508101906104219190610aea565b905073__$acbfb1c35000d78352310b16a054a6b106$__63e8c2cb1682602001516040518263ffffffff1660e01b815260040161045e9190610e66565b602060405180830381865af4158015610479573d5f803e3d5ffd5b505050506040513d601f19601f8201168201806040525081019061049d9190610c09565b5073__$acbfb1c35000d78352310b16a054a6b106$__63e8c2cb1682604001516040518263ffffffff1660e01b81526004016104d99190610f3e565b602060405180830381865af41580156104f4573d5f803e3d5ffd5b505050506040513d601f19601f820116820180604052508101906105189190610c09565b5073__$acbfb1c35000d78352310b16a054a6b106$__63abcd79608260600151620186a06040518363ffffffff1660e01b8152600401610559929190610fdd565b602060405180830381865af4158015610574573d5f803e3d5ffd5b505050506040513d601f19601f820116820180604052508101906105989190610c09565b5073__$acbfb1c35000d78352310b16a054a6b106$__63767392b38260a0015160016040518363ffffffff1660e01b81526004016105d7929190611070565b602060405180830381865af41580156105f2573d5f803e3d5ffd5b505050506040513d601f19601f820116820180604052508101906106169190610c09565b5050565b610f6d806110ab83390190565b5f82825260208201905092915050565b7f4c616b6520486f757365000000000000000000000000000000000000000000005f82015250565b5f61066b600a83610627565b915061067682610637565b602082019050919050565b7f343536204c616b652052640000000000000000000000000000000000000000005f82015250565b5f6106b5600b83610627565b91506106c082610681565b602082019050919050565b5f819050919050565b5f819050919050565b5f819050919050565b5f6107006106fb6106f6846106cb565b6106dd565b6106d4565b9050919050565b610710816106e6565b82525050565b5f6060820190508181035f83015261072d8161065f565b90508181036020830152610740816106a9565b905061074f6040830184610707565b92915050565b5f819050919050565b5f61077861077361076e84610755565b6106dd565b6106d4565b9050919050565b6107888161075e565b82525050565b5f819050919050565b5f6107b16107ac6107a78461078e565b6106dd565b6106d4565b9050919050565b6107c181610797565b82525050565b5f6040820190506107da5f83018561077f565b6107e760208301846107b8565b9392505050565b5f6020820190506108015f83018461077f565b92915050565b5f604051905090565b5f80fd5b5f80fd5b5f80fd5b5f601f19601f8301169050919050565b7f4e487b71000000000000000000000000000000000000000000000000000000005f52604160045260245ffd5b6108628261081c565b810181811067ffffffffffffffff821117156108815761088061082c565b5b80604052505050565b5f610893610807565b905061089f8282610859565b919050565b5f80fd5b6108b1816106d4565b81146108bb575f80fd5b50565b5f815190506108cc816108a8565b92915050565b5f80fd5b5f80fd5b5f67ffffffffffffffff8211156108f4576108f361082c565b5b6108fd8261081c565b9050602081019050919050565b8281835e5f83830152505050565b5f61092a610925846108da565b61088a565b905082815260208101848484011115610946576109456108d6565b5b61095184828561090a565b509392505050565b5f82601f83011261096d5761096c6108d2565b5b815161097d848260208601610918565b91505092915050565b5f73ffffffffffffffffffffffffffffffffffffffff82169050919050565b5f6109af82610986565b9050919050565b6109bf816109a5565b81146109c9575f80fd5b50565b5f815190506109da816109b6565b92915050565b5f8115159050919050565b6109f4816109e0565b81146109fe575f80fd5b50565b5f81519050610a0f816109eb565b92915050565b5f60c08284031215610a2a57610a29610818565b5b610a3460c061088a565b90505f610a43848285016108be565b5f83015250602082015167ffffffffffffffff811115610a6657610a656108a4565b5b610a7284828501610959565b602083015250604082015167ffffffffffffffff811115610a9657610a956108a4565b5b610aa284828501610959565b6040830152506060610ab6848285016108be565b6060830152506080610aca848285016109cc565b60808301525060a0610ade84828501610a01565b60a08301525092915050565b5f60208284031215610aff57610afe610810565b5b5f82015167ffffffffffffffff811115610b1c57610b1b610814565b5b610b2884828501610a15565b91505092915050565b610b3a816106d4565b82525050565b610b4981610797565b82525050565b5f82825260208201905092915050565b7f50726f70657274792070726963652073686f756c6420626520757064617465645f8201527f20746f2031363030303000000000000000000000000000000000000000000000602082015250565b5f610bb9602a83610b4f565b9150610bc482610b5f565b604082019050919050565b5f606082019050610be25f830185610b31565b610bef6020830184610b40565b8181036040830152610c0081610bad565b90509392505050565b5f60208284031215610c1e57610c1d610810565b5b5f610c2b84828501610a01565b91505092915050565b7f447265616d20486f6d65000000000000000000000000000000000000000000005f82015250565b5f610c68600a83610627565b9150610c7382610c34565b602082019050919050565b7f313233204d61696e2053740000000000000000000000000000000000000000005f82015250565b5f610cb2600b83610627565b9150610cbd82610c7e565b602082019050919050565b5f819050919050565b5f610ceb610ce6610ce184610cc8565b6106dd565b6106d4565b9050919050565b610cfb81610cd1565b82525050565b5f6060820190508181035f830152610d1881610c5c565b90508181036020830152610d2b81610ca6565b9050610d3a6040830184610cf2565b92915050565b5f819050919050565b5f610d63610d5e610d5984610d40565b6106dd565b6106d4565b9050919050565b610d7381610d49565b82525050565b5f602082019050610d8c5f830184610d6a565b92915050565b5f81519050919050565b5f610da682610d92565b610db08185610b4f565b9350610dc081856020860161090a565b610dc98161081c565b840191505092915050565b5f610de0600a83610b4f565b9150610deb82610c34565b602082019050919050565b7f50726f7065727479207469746c652073686f756c642062652027447265616d205f8201527f486f6d6527000000000000000000000000000000000000000000000000000000602082015250565b5f610e50602583610b4f565b9150610e5b82610df6565b604082019050919050565b5f6060820190508181035f830152610e7e8184610d9c565b90508181036020830152610e9181610dd4565b90508181036040830152610ea481610e44565b905092915050565b5f610eb8600b83610b4f565b9150610ec382610c7e565b602082019050919050565b7f50726f7065727479206c6f636174696f6e2073686f756c6420626520273132335f8201527f204d61696e205374270000000000000000000000000000000000000000000000602082015250565b5f610f28602983610b4f565b9150610f3382610ece565b604082019050919050565b5f6060820190508181035f830152610f568184610d9c565b90508181036020830152610f6981610eac565b90508181036040830152610f7c81610f1c565b905092915050565b610f8d81610cd1565b82525050565b7f50726f70657274792070726963652073686f756c6420626520313030303030005f82015250565b5f610fc7601f83610b4f565b9150610fd282610f93565b602082019050919050565b5f606082019050610ff05f830185610b31565b610ffd6020830184610f84565b818103604083015261100e81610fbb565b90509392505050565b611020816109e0565b82525050565b7f50726f70657274792073686f756c64206265206c6973746564000000000000005f82015250565b5f61105a601983610b4f565b915061106582611026565b602082019050919050565b5f6060820190506110835f830185611017565b6110906020830184611017565b81810360408301526110a18161104e565b9050939250505056fe6080604052348015600e575f80fd5b50610f518061001c5f395ff3fe608060405234801561000f575f80fd5b5060043610610055575f3560e01c806332665ffb1461005957806344e034cc146100895780634cd378bc146100a5578063c361a335146100c1578063f7b10808146100df575b5f80fd5b610073600480360381019061006e91906106b3565b610114565b6040516100809190610843565b60405180910390f35b6100a3600480360381019061009e9190610863565b6102e1565b005b6100bf60048036038101906100ba91906109cd565b610393565b005b6100c96104b0565b6040516100d69190610a64565b60405180910390f35b6100f960048036038101906100f491906106b3565b6104b6565b60405161010b96959493929190610ae3565b60405180910390f35b61011c610625565b5f808381526020019081526020015f206040518060c00160405290815f820154815260200160018201805461015090610b7d565b80601f016020809104026020016040519081016040528092919081815260200182805461017c90610b7d565b80156101c75780601f1061019e576101008083540402835291602001916101c7565b820191905f5260205f20905b8154815290600101906020018083116101aa57829003601f168201915b505050505081526020016002820180546101e090610b7d565b80601f016020809104026020016040519081016040528092919081815260200182805461020c90610b7d565b80156102575780601f1061022e57610100808354040283529160200191610257565b820191905f5260205f20905b81548152906001019060200180831161023a57829003601f168201915b5050505050815260200160038201548152602001600482015f9054906101000a900473ffffffffffffffffffffffffffffffffffffffff1673ffffffffffffffffffffffffffffffffffffffff1673ffffffffffffffffffffffffffffffffffffffff1681526020016004820160149054906101000a900460ff1615151515815250509050919050565b5f805f8481526020019081526020015f209050806004015f9054906101000a900473ffffffffffffffffffffffffffffffffffffffff1673ffffffffffffffffffffffffffffffffffffffff163373ffffffffffffffffffffffffffffffffffffffff1614610385576040517f08c379a000000000000000000000000000000000000000000000000000000000815260040161037c90610c1d565b60405180910390fd5b818160030181905550505050565b60015f8154809291906103a590610c68565b91905055506040518060c0016040528060015481526020018481526020018381526020018281526020013373ffffffffffffffffffffffffffffffffffffffff168152602001600115158152505f8060015481526020019081526020015f205f820151815f015560208201518160010190816104219190610e4c565b5060408201518160020190816104379190610e4c565b50606082015181600301556080820151816004015f6101000a81548173ffffffffffffffffffffffffffffffffffffffff021916908373ffffffffffffffffffffffffffffffffffffffff16021790555060a08201518160040160146101000a81548160ff021916908315150217905550905050505050565b60015481565b5f602052805f5260405f205f91509050805f0154908060010180546104da90610b7d565b80601f016020809104026020016040519081016040528092919081815260200182805461050690610b7d565b80156105515780601f1061052857610100808354040283529160200191610551565b820191905f5260205f20905b81548152906001019060200180831161053457829003601f168201915b50505050509080600201805461056690610b7d565b80601f016020809104026020016040519081016040528092919081815260200182805461059290610b7d565b80156105dd5780601f106105b4576101008083540402835291602001916105dd565b820191905f5260205f20905b8154815290600101906020018083116105c057829003601f168201915b505050505090806003015490806004015f9054906101000a900473ffffffffffffffffffffffffffffffffffffffff16908060040160149054906101000a900460ff16905086565b6040518060c001604052805f815260200160608152602001606081526020015f81526020015f73ffffffffffffffffffffffffffffffffffffffff1681526020015f151581525090565b5f604051905090565b5f80fd5b5f80fd5b5f819050919050565b61069281610680565b811461069c575f80fd5b50565b5f813590506106ad81610689565b92915050565b5f602082840312156106c8576106c7610678565b5b5f6106d58482850161069f565b91505092915050565b6106e781610680565b82525050565b5f81519050919050565b5f82825260208201905092915050565b8281835e5f83830152505050565b5f601f19601f8301169050919050565b5f61072f826106ed565b61073981856106f7565b9350610749818560208601610707565b61075281610715565b840191505092915050565b5f73ffffffffffffffffffffffffffffffffffffffff82169050919050565b5f6107868261075d565b9050919050565b6107968161077c565b82525050565b5f8115159050919050565b6107b08161079c565b82525050565b5f60c083015f8301516107cb5f8601826106de565b50602083015184820360208601526107e38282610725565b915050604083015184820360408601526107fd8282610725565b915050606083015161081260608601826106de565b506080830151610825608086018261078d565b5060a083015161083860a08601826107a7565b508091505092915050565b5f6020820190508181035f83015261085b81846107b6565b905092915050565b5f806040838503121561087957610878610678565b5b5f6108868582860161069f565b92505060206108978582860161069f565b9150509250929050565b5f80fd5b5f80fd5b7f4e487b71000000000000000000000000000000000000000000000000000000005f52604160045260245ffd5b6108df82610715565b810181811067ffffffffffffffff821117156108fe576108fd6108a9565b5b80604052505050565b5f61091061066f565b905061091c82826108d6565b919050565b5f67ffffffffffffffff82111561093b5761093a6108a9565b5b61094482610715565b9050602081019050919050565b828183375f83830152505050565b5f61097161096c84610921565b610907565b90508281526020810184848401111561098d5761098c6108a5565b5b610998848285610951565b509392505050565b5f82601f8301126109b4576109b36108a1565b5b81356109c484826020860161095f565b91505092915050565b5f805f606084860312156109e4576109e3610678565b5b5f84013567ffffffffffffffff811115610a0157610a0061067c565b5b610a0d868287016109a0565b935050602084013567ffffffffffffffff811115610a2e57610a2d61067c565b5b610a3a868287016109a0565b9250506040610a4b8682870161069f565b9150509250925092565b610a5e81610680565b82525050565b5f602082019050610a775f830184610a55565b92915050565b5f82825260208201905092915050565b5f610a97826106ed565b610aa18185610a7d565b9350610ab1818560208601610707565b610aba81610715565b840191505092915050565b610ace8161077c565b82525050565b610add8161079c565b82525050565b5f60c082019050610af65f830189610a55565b8181036020830152610b088188610a8d565b90508181036040830152610b1c8187610a8d565b9050610b2b6060830186610a55565b610b386080830185610ac5565b610b4560a0830184610ad4565b979650505050505050565b7f4e487b71000000000000000000000000000000000000000000000000000000005f52602260045260245ffd5b5f6002820490506001821680610b9457607f821691505b602082108103610ba757610ba6610b50565b5b50919050565b7f4f6e6c792070726f7065727479206f776e65722063616e2075706461746520745f8201527f6865206c697374696e6700000000000000000000000000000000000000000000602082015250565b5f610c07602a83610a7d565b9150610c1282610bad565b604082019050919050565b5f6020820190508181035f830152610c3481610bfb565b9050919050565b7f4e487b71000000000000000000000000000000000000000000000000000000005f52601160045260245ffd5b5f610c7282610680565b91507fffffffffffffffffffffffffffffffffffffffffffffffffffffffffffffffff8203610ca457610ca3610c3b565b5b600182019050919050565b5f819050815f5260205f209050919050565b5f6020601f8301049050919050565b5f82821b905092915050565b5f60088302610d0b7fffffffffffffffffffffffffffffffffffffffffffffffffffffffffffffffff82610cd0565b610d158683610cd0565b95508019841693508086168417925050509392505050565b5f819050919050565b5f610d50610d4b610d4684610680565b610d2d565b610680565b9050919050565b5f819050919050565b610d6983610d36565b610d7d610d7582610d57565b848454610cdc565b825550505050565b5f90565b610d91610d85565b610d9c818484610d60565b505050565b5b81811015610dbf57610db45f82610d89565b600181019050610da2565b5050565b601f821115610e0457610dd581610caf565b610dde84610cc1565b81016020851015610ded578190505b610e01610df985610cc1565b830182610da1565b50505b505050565b5f82821c905092915050565b5f610e245f1984600802610e09565b1980831691505092915050565b5f610e3c8383610e15565b9150826002028217905092915050565b610e55826106ed565b67ffffffffffffffff811115610e6e57610e6d6108a9565b5b610e788254610b7d565b610e83828285610dc3565b5f60209050601f831160018114610eb4575f8415610ea2578287015190505b610eac8582610e31565b865550610f13565b601f198416610ec286610caf565b5f5b82811015610ee957848901518255600182019150602085019450602081019050610ec4565b86831015610f065784890151610f02601f891682610e15565b8355505b6001600288020188555050505b50505050505056fea2646970667358221220c42afd2d9051d53291f917b171ce6281f9535693828174525661255f6c7b6c8d64736f6c63430008190033a264697066735822122032f3abfb5828613488a8df2c7389adfe01736a6f0a5428843ae74a39f7e9dfc064736f6c63430008190033",
			"opcodes": "PUSH1 0x80 PUSH1 0x40 MSTORE CALLVALUE DUP1 ISZERO PUSH1 0xE JUMPI PUSH0 DUP1 REVERT JUMPDEST POP PUSH2 0x204D DUP1 PUSH2 0x1C PUSH0 CODECOPY PUSH0 RETURN INVALID PUSH1 0x80 PUSH1 0x40 MSTORE CALLVALUE DUP1 ISZERO PUSH2 0xF JUMPI PUSH0 DUP1 REVERT JUMPDEST POP PUSH1 0x4 CALLDATASIZE LT PUSH2 0x3F JUMPI PUSH0 CALLDATALOAD PUSH1 0xE0 SHR DUP1 PUSH4 0x7FEA0D4B EQ PUSH2 0x43 JUMPI DUP1 PUSH4 0x91244327 EQ PUSH2 0x4D JUMPI DUP1 PUSH4 0xE2AB151C EQ PUSH2 0x57 JUMPI JUMPDEST PUSH0 DUP1 REVERT JUMPDEST PUSH2 0x4B PUSH2 0x61 JUMP JUMPDEST STOP JUMPDEST PUSH2 0x55 PUSH2 0xC7 JUMP JUMPDEST STOP JUMPDEST PUSH2 0x5F PUSH2 0x2FC JUMP JUMPDEST STOP JUMPDEST PUSH1 0x40 MLOAD PUSH2 0x6D SWAP1 PUSH2 0x61A JUMP JUMPDEST PUSH1 0x40 MLOAD DUP1 SWAP2 SUB SWAP1 PUSH0 CREATE DUP1 ISZERO DUP1 ISZERO PUSH2 0x86 JUMPI RETURNDATASIZE PUSH0 DUP1 RETURNDATACOPY RETURNDATASIZE PUSH0 REVERT JUMPDEST POP PUSH0 DUP1 PUSH2 0x100 EXP DUP2 SLOAD DUP2 PUSH20 0xFFFFFFFFFFFFFFFFFFFFFFFFFFFFFFFFFFFFFFFF MUL NOT AND SWAP1 DUP4 PUSH20 0xFFFFFFFFFFFFFFFFFFFFFFFFFFFFFFFFFFFFFFFF AND MUL OR SWAP1 SSTORE POP JUMP JUMPDEST PUSH0 DUP1 SLOAD SWAP1 PUSH2 0x100 EXP SWAP1 DIV PUSH20 0xFFFFFFFFFFFFFFFFFFFFFFFFFFFFFFFFFFFFFFFF AND PUSH20 0xFFFFFFFFFFFFFFFFFFFFFFFFFFFFFFFFFFFFFFFF AND PUSH4 0x4CD378BC PUSH3 0x249F0 PUSH1 0x40 MLOAD DUP3 PUSH4 0xFFFFFFFF AND PUSH1 0xE0 SHL DUP2 MSTORE PUSH1 0x4 ADD PUSH2 0x122 SWAP2 SWAP1 PUSH2 0x716 JUMP JUMPDEST PUSH0 PUSH1 0x40 MLOAD DUP1 DUP4 SUB DUP2 PUSH0 DUP8 DUP1 EXTCODESIZE ISZERO DUP1 ISZERO PUSH2 0x139 JUMPI PUSH0 DUP1 REVERT JUMPDEST POP GAS CALL ISZERO DUP1 ISZERO PUSH2 0x14B JUMPI RETURNDATASIZE PUSH0 DUP1 RETURNDATACOPY RETURNDATASIZE PUSH0 REVERT JUMPDEST POP POP POP POP PUSH0 DUP1 SLOAD SWAP1 PUSH2 0x100 EXP SWAP1 DIV PUSH20 0xFFFFFFFFFFFFFFFFFFFFFFFFFFFFFFFFFFFFFFFF AND PUSH20 0xFFFFFFFFFFFFFFFFFFFFFFFFFFFFFFFFFFFFFFFF AND PUSH4 0x44E034CC PUSH1 0x2 PUSH3 0x27100 PUSH1 0x40 MLOAD DUP4 PUSH4 0xFFFFFFFF AND PUSH1 0xE0 SHL DUP2 MSTORE PUSH1 0x4 ADD PUSH2 0x1AD SWAP3 SWAP2 SWAP1 PUSH2 0x7C7 JUMP JUMPDEST PUSH0 PUSH1 0x40 MLOAD DUP1 DUP4 SUB DUP2 PUSH0 DUP8 DUP1 EXTCODESIZE ISZERO DUP1 ISZERO PUSH2 0x1C4 JUMPI PUSH0 DUP1 REVERT JUMPDEST POP GAS CALL ISZERO DUP1 ISZERO PUSH2 0x1D6 JUMPI RETURNDATASIZE PUSH0 DUP1 RETURNDATACOPY RETURNDATASIZE PUSH0 REVERT JUMPDEST POP POP POP POP PUSH0 DUP1 PUSH0 SWAP1 SLOAD SWAP1 PUSH2 0x100 EXP SWAP1 DIV PUSH20 0xFFFFFFFFFFFFFFFFFFFFFFFFFFFFFFFFFFFFFFFF AND PUSH20 0xFFFFFFFFFFFFFFFFFFFFFFFFFFFFFFFFFFFFFFFF AND PUSH4 0x32665FFB PUSH1 0x2 PUSH1 0x40 MLOAD DUP3 PUSH4 0xFFFFFFFF AND PUSH1 0xE0 SHL DUP2 MSTORE PUSH1 0x4 ADD PUSH2 0x235 SWAP2 SWAP1 PUSH2 0x7EE JUMP JUMPDEST PUSH0 PUSH1 0x40 MLOAD DUP1 DUP4 SUB DUP2 DUP7 GAS STATICCALL ISZERO DUP1 ISZERO PUSH2 0x24F JUMPI RETURNDATASIZE PUSH0 DUP1 RETURNDATACOPY RETURNDATASIZE PUSH0 REVERT JUMPDEST POP POP POP POP PUSH1 0x40 MLOAD RETURNDATASIZE PUSH0 DUP3 RETURNDATACOPY RETURNDATASIZE PUSH1 0x1F NOT PUSH1 0x1F DUP3 ADD AND DUP3 ADD DUP1 PUSH1 0x40 MSTORE POP DUP2 ADD SWAP1 PUSH2 0x277 SWAP2 SWAP1 PUSH2 0xAEA JUMP JUMPDEST SWAP1 POP PUSH20 0x0 PUSH4 0xABCD7960 DUP3 PUSH1 0x60 ADD MLOAD PUSH3 0x27100 PUSH1 0x40 MLOAD DUP4 PUSH4 0xFFFFFFFF AND PUSH1 0xE0 SHL DUP2 MSTORE PUSH1 0x4 ADD PUSH2 0x2B9 SWAP3 SWAP2 SWAP1 PUSH2 0xBCF JUMP JUMPDEST PUSH1 0x20 PUSH1 0x40 MLOAD DUP1 DUP4 SUB DUP2 DUP7 GAS DELEGATECALL ISZERO DUP1 ISZERO PUSH2 0x2D4 JUMPI RETURNDATASIZE PUSH0 DUP1 RETURNDATACOPY RETURNDATASIZE PUSH0 REVERT JUMPDEST POP POP POP POP PUSH1 0x40 MLOAD RETURNDATASIZE PUSH1 0x1F NOT PUSH1 0x1F DUP3 ADD AND DUP3 ADD DUP1 PUSH1 0x40 MSTORE POP DUP2 ADD SWAP1 PUSH2 0x2F8 SWAP2 SWAP1 PUSH2 0xC09 JUMP JUMPDEST POP POP JUMP JUMPDEST PUSH0 DUP1 SLOAD SWAP1 PUSH2 0x100 EXP SWAP1 DIV PUSH20 0xFFFFFFFFFFFFFFFFFFFFFFFFFFFFFFFFFFFFFFFF AND PUSH20 0xFFFFFFFFFFFFFFFFFFFFFFFFFFFFFFFFFFFFFFFF AND PUSH4 0x4CD378BC PUSH3 0x186A0 PUSH1 0x40 MLOAD DUP3 PUSH4 0xFFFFFFFF AND PUSH1 0xE0 SHL DUP2 MSTORE PUSH1 0x4 ADD PUSH2 0x357 SWAP2 SWAP1 PUSH2 0xD01 JUMP JUMPDEST PUSH0 PUSH1 0x40 MLOAD DUP1 DUP4 SUB DUP2 PUSH0 DUP8 DUP1 EXTCODESIZE ISZERO DUP1 ISZERO PUSH2 0x36E JUMPI PUSH0 DUP1 REVERT JUMPDEST POP GAS CALL ISZERO DUP1 ISZERO PUSH2 0x380 JUMPI RETURNDATASIZE PUSH0 DUP1 RETURNDATACOPY RETURNDATASIZE PUSH0 REVERT JUMPDEST POP POP POP POP PUSH0 DUP1 PUSH0 SWAP1 SLOAD SWAP1 PUSH2 0x100 EXP SWAP1 DIV PUSH20 0xFFFFFFFFFFFFFFFFFFFFFFFFFFFFFFFFFFFFFFFF AND PUSH20 0xFFFFFFFFFFFFFFFFFFFFFFFFFFFFFFFFFFFFFFFF AND PUSH4 0x32665FFB PUSH1 0x1 PUSH1 0x40 MLOAD DUP3 PUSH4 0xFFFFFFFF AND PUSH1 0xE0 SHL DUP2 MSTORE PUSH1 0x4 ADD PUSH2 0x3DF SWAP2 SWAP1 PUSH2 0xD79 JUMP JUMPDEST PUSH0 PUSH1 0x40 MLOAD DUP1 DUP4 SUB DUP2 DUP7 GAS STATICCALL ISZERO DUP1 ISZERO PUSH2 0x3F9 JUMPI RETURNDATASIZE PUSH0 DUP1 RETURNDATACOPY RETURNDATASIZE PUSH0 REVERT JUMPDEST POP POP POP POP PUSH1 0x40 MLOAD RETURNDATASIZE PUSH0 DUP3 RETURNDATACOPY RETURNDATASIZE PUSH1 0x1F NOT PUSH1 0x1F DUP3 ADD AND DUP3 ADD DUP1 PUSH1 0x40 MSTORE POP DUP2 ADD SWAP1 PUSH2 0x421 SWAP2 SWAP1 PUSH2 0xAEA JUMP JUMPDEST SWAP1 POP PUSH20 0x0 PUSH4 0xE8C2CB16 DUP3 PUSH1 0x20 ADD MLOAD PUSH1 0x40 MLOAD DUP3 PUSH4 0xFFFFFFFF AND PUSH1 0xE0 SHL DUP2 MSTORE PUSH1 0x4 ADD PUSH2 0x45E SWAP2 SWAP1 PUSH2 0xE66 JUMP JUMPDEST PUSH1 0x20 PUSH1 0x40 MLOAD DUP1 DUP4 SUB DUP2 DUP7 GAS DELEGATECALL ISZERO DUP1 ISZERO PUSH2 0x479 JUMPI RETURNDATASIZE PUSH0 DUP1 RETURNDATACOPY RETURNDATASIZE PUSH0 REVERT JUMPDEST POP POP POP POP PUSH1 0x40 MLOAD RETURNDATASIZE PUSH1 0x1F NOT PUSH1 0x1F DUP3 ADD AND DUP3 ADD DUP1 PUSH1 0x40 MSTORE POP DUP2 ADD SWAP1 PUSH2 0x49D SWAP2 SWAP1 PUSH2 0xC09 JUMP JUMPDEST POP PUSH20 0x0 PUSH4 0xE8C2CB16 DUP3 PUSH1 0x40 ADD MLOAD PUSH1 0x40 MLOAD DUP3 PUSH4 0xFFFFFFFF AND PUSH1 0xE0 SHL DUP2 MSTORE PUSH1 0x4 ADD PUSH2 0x4D9 SWAP2 SWAP1 PUSH2 0xF3E JUMP JUMPDEST PUSH1 0x20 PUSH1 0x40 MLOAD DUP1 DUP4 SUB DUP2 DUP7 GAS DELEGATECALL ISZERO DUP1 ISZERO PUSH2 0x4F4 JUMPI RETURNDATASIZE PUSH0 DUP1 RETURNDATACOPY RETURNDATASIZE PUSH0 REVERT JUMPDEST POP POP POP POP PUSH1 0x40 MLOAD RETURNDATASIZE PUSH1 0x1F NOT PUSH1 0x1F DUP3 ADD AND DUP3 ADD DUP1 PUSH1 0x40 MSTORE POP DUP2 ADD SWAP1 PUSH2 0x518 SWAP2 SWAP1 PUSH2 0xC09 JUMP JUMPDEST POP PUSH20 0x0 PUSH4 0xABCD7960 DUP3 PUSH1 0x60 ADD MLOAD PUSH3 0x186A0 PUSH1 0x40 MLOAD DUP4 PUSH4 0xFFFFFFFF AND PUSH1 0xE0 SHL DUP2 MSTORE PUSH1 0x4 ADD PUSH2 0x559 SWAP3 SWAP2 SWAP1 PUSH2 0xFDD JUMP JUMPDEST PUSH1 0x20 PUSH1 0x40 MLOAD DUP1 DUP4 SUB DUP2 DUP7 GAS DELEGATECALL ISZERO DUP1 ISZERO PUSH2 0x574 JUMPI RETURNDATASIZE PUSH0 DUP1 RETURNDATACOPY RETURNDATASIZE PUSH0 REVERT JUMPDEST POP POP POP POP PUSH1 0x40 MLOAD RETURNDATASIZE PUSH1 0x1F NOT PUSH1 0x1F DUP3 ADD AND DUP3 ADD DUP1 PUSH1 0x40 MSTORE POP DUP2 ADD SWAP1 PUSH2 0x598 SWAP2 SWAP1 PUSH2 0xC09 JUMP JUMPDEST POP PUSH20 0x0 PUSH4 0x767392B3 DUP3 PUSH1 0xA0 ADD MLOAD PUSH1 0x1 PUSH1 0x40 MLOAD DUP4 PUSH4 0xFFFFFFFF AND PUSH1 0xE0 SHL DUP2 MSTORE PUSH1 0x4 ADD PUSH2 0x5D7 SWAP3 SWAP2 SWAP1 PUSH2 0x1070 JUMP JUMPDEST PUSH1 0x20 PUSH1 0x40 MLOAD DUP1 DUP4 SUB DUP2 DUP7 GAS DELEGATECALL ISZERO DUP1 ISZERO PUSH2 0x5F2 JUMPI RETURNDATASIZE PUSH0 DUP1 RETURNDATACOPY RETURNDATASIZE PUSH0 REVERT JUMPDEST POP POP POP POP PUSH1 0x40 MLOAD RETURNDATASIZE PUSH1 0x1F NOT PUSH1 0x1F DUP3 ADD AND DUP3 ADD DUP1 PUSH1 0x40 MSTORE POP DUP2 ADD SWAP1 PUSH2 0x616 SWAP2 SWAP1 PUSH2 0xC09 JUMP JUMPDEST POP POP JUMP JUMPDEST PUSH2 0xF6D DUP1 PUSH2 0x10AB DUP4 CODECOPY ADD SWAP1 JUMP JUMPDEST PUSH0 DUP3 DUP3 MSTORE PUSH1 0x20 DUP3 ADD SWAP1 POP SWAP3 SWAP2 POP POP JUMP JUMPDEST PUSH32 0x4C616B6520486F75736500000000000000000000000000000000000000000000 PUSH0 DUP3 ADD MSTORE POP JUMP JUMPDEST PUSH0 PUSH2 0x66B PUSH1 0xA DUP4 PUSH2 0x627 JUMP JUMPDEST SWAP2 POP PUSH2 0x676 DUP3 PUSH2 0x637 JUMP JUMPDEST PUSH1 0x20 DUP3 ADD SWAP1 POP SWAP2 SWAP1 POP JUMP JUMPDEST PUSH32 0x343536204C616B65205264000000000000000000000000000000000000000000 PUSH0 DUP3 ADD MSTORE POP JUMP JUMPDEST PUSH0 PUSH2 0x6B5 PUSH1 0xB DUP4 PUSH2 0x627 JUMP JUMPDEST SWAP2 POP PUSH2 0x6C0 DUP3 PUSH2 0x681 JUMP JUMPDEST PUSH1 0x20 DUP3 ADD SWAP1 POP SWAP2 SWAP1 POP JUMP JUMPDEST PUSH0 DUP2 SWAP1 POP SWAP2 SWAP1 POP JUMP JUMPDEST PUSH0 DUP2 SWAP1 POP SWAP2 SWAP1 POP JUMP JUMPDEST PUSH0 DUP2 SWAP1 POP SWAP2 SWAP1 POP JUMP JUMPDEST PUSH0 PUSH2 0x700 PUSH2 0x6FB PUSH2 0x6F6 DUP5 PUSH2 0x6CB JUMP JUMPDEST PUSH2 0x6DD JUMP JUMPDEST PUSH2 0x6D4 JUMP JUMPDEST SWAP1 POP SWAP2 SWAP1 POP JUMP JUMPDEST PUSH2 0x710 DUP2 PUSH2 0x6E6 JUMP JUMPDEST DUP3 MSTORE POP POP JUMP JUMPDEST PUSH0 PUSH1 0x60 DUP3 ADD SWAP1 POP DUP2 DUP2 SUB PUSH0 DUP4 ADD MSTORE PUSH2 0x72D DUP2 PUSH2 0x65F JUMP JUMPDEST SWAP1 POP DUP2 DUP2 SUB PUSH1 0x20 DUP4 ADD MSTORE PUSH2 0x740 DUP2 PUSH2 0x6A9 JUMP JUMPDEST SWAP1 POP PUSH2 0x74F PUSH1 0x40 DUP4 ADD DUP5 PUSH2 0x707 JUMP JUMPDEST SWAP3 SWAP2 POP POP JUMP JUMPDEST PUSH0 DUP2 SWAP1 POP SWAP2 SWAP1 POP JUMP JUMPDEST PUSH0 PUSH2 0x778 PUSH2 0x773 PUSH2 0x76E DUP5 PUSH2 0x755 JUMP JUMPDEST PUSH2 0x6DD JUMP JUMPDEST PUSH2 0x6D4 JUMP JUMPDEST SWAP1 POP SWAP2 SWAP1 POP JUMP JUMPDEST PUSH2 0x788 DUP2 PUSH2 0x75E JUMP JUMPDEST DUP3 MSTORE POP POP JUMP JUMPDEST PUSH0 DUP2 SWAP1 POP SWAP2 SWAP1 POP JUMP JUMPDEST PUSH0 PUSH2 0x7B1 PUSH2 0x7AC PUSH2 0x7A7 DUP5 PUSH2 0x78E JUMP JUMPDEST PUSH2 0x6DD JUMP JUMPDEST PUSH2 0x6D4 JUMP JUMPDEST SWAP1 POP SWAP2 SWAP1 POP JUMP JUMPDEST PUSH2 0x7C1 DUP2 PUSH2 0x797 JUMP JUMPDEST DUP3 MSTORE POP POP JUMP JUMPDEST PUSH0 PUSH1 0x40 DUP3 ADD SWAP1 POP PUSH2 0x7DA PUSH0 DUP4 ADD DUP6 PUSH2 0x77F JUMP JUMPDEST PUSH2 0x7E7 PUSH1 0x20 DUP4 ADD DUP5 PUSH2 0x7B8 JUMP JUMPDEST SWAP4 SWAP3 POP POP POP JUMP JUMPDEST PUSH0 PUSH1 0x20 DUP3 ADD SWAP1 POP PUSH2 0x801 PUSH0 DUP4 ADD DUP5 PUSH2 0x77F JUMP JUMPDEST SWAP3 SWAP2 POP POP JUMP JUMPDEST PUSH0 PUSH1 0x40 MLOAD SWAP1 POP SWAP1 JUMP JUMPDEST PUSH0 DUP1 REVERT JUMPDEST PUSH0 DUP1 REVERT JUMPDEST PUSH0 DUP1 REVERT JUMPDEST PUSH0 PUSH1 0x1F NOT PUSH1 0x1F DUP4 ADD AND SWAP1 POP SWAP2 SWAP1 POP JUMP JUMPDEST PUSH32 0x4E487B7100000000000000000000000000000000000000000000000000000000 PUSH0 MSTORE PUSH1 0x41 PUSH1 0x4 MSTORE PUSH1 0x24 PUSH0 REVERT JUMPDEST PUSH2 0x862 DUP3 PUSH2 0x81C JUMP JUMPDEST DUP2 ADD DUP2 DUP2 LT PUSH8 0xFFFFFFFFFFFFFFFF DUP3 GT OR ISZERO PUSH2 0x881 JUMPI PUSH2 0x880 PUSH2 0x82C JUMP JUMPDEST JUMPDEST DUP1 PUSH1 0x40 MSTORE POP POP POP JUMP JUMPDEST PUSH0 PUSH2 0x893 PUSH2 0x807 JUMP JUMPDEST SWAP1 POP PUSH2 0x89F DUP3 DUP3 PUSH2 0x859 JUMP JUMPDEST SWAP2 SWAP1 POP JUMP JUMPDEST PUSH0 DUP1 REVERT JUMPDEST PUSH2 0x8B1 DUP2 PUSH2 0x6D4 JUMP JUMPDEST DUP2 EQ PUSH2 0x8BB JUMPI PUSH0 DUP1 REVERT JUMPDEST POP JUMP JUMPDEST PUSH0 DUP2 MLOAD SWAP1 POP PUSH2 0x8CC DUP2 PUSH2 0x8A8 JUMP JUMPDEST SWAP3 SWAP2 POP POP JUMP JUMPDEST PUSH0 DUP1 REVERT JUMPDEST PUSH0 DUP1 REVERT JUMPDEST PUSH0 PUSH8 0xFFFFFFFFFFFFFFFF DUP3 GT ISZERO PUSH2 0x8F4 JUMPI PUSH2 0x8F3 PUSH2 0x82C JUMP JUMPDEST JUMPDEST PUSH2 0x8FD DUP3 PUSH2 0x81C JUMP JUMPDEST SWAP1 POP PUSH1 0x20 DUP2 ADD SWAP1 POP SWAP2 SWAP1 POP JUMP JUMPDEST DUP3 DUP2 DUP4 MCOPY PUSH0 DUP4 DUP4 ADD MSTORE POP POP POP JUMP JUMPDEST PUSH0 PUSH2 0x92A PUSH2 0x925 DUP5 PUSH2 0x8DA JUMP JUMPDEST PUSH2 0x88A JUMP JUMPDEST SWAP1 POP DUP3 DUP2 MSTORE PUSH1 0x20 DUP2 ADD DUP5 DUP5 DUP5 ADD GT ISZERO PUSH2 0x946 JUMPI PUSH2 0x945 PUSH2 0x8D6 JUMP JUMPDEST JUMPDEST PUSH2 0x951 DUP5 DUP3 DUP6 PUSH2 0x90A JUMP JUMPDEST POP SWAP4 SWAP3 POP POP POP JUMP JUMPDEST PUSH0 DUP3 PUSH1 0x1F DUP4 ADD SLT PUSH2 0x96D JUMPI PUSH2 0x96C PUSH2 0x8D2 JUMP JUMPDEST JUMPDEST DUP2 MLOAD PUSH2 0x97D DUP5 DUP3 PUSH1 0x20 DUP7 ADD PUSH2 0x918 JUMP JUMPDEST SWAP2 POP POP SWAP3 SWAP2 POP POP JUMP JUMPDEST PUSH0 PUSH20 0xFFFFFFFFFFFFFFFFFFFFFFFFFFFFFFFFFFFFFFFF DUP3 AND SWAP1 POP SWAP2 SWAP1 POP JUMP JUMPDEST PUSH0 PUSH2 0x9AF DUP3 PUSH2 0x986 JUMP JUMPDEST SWAP1 POP SWAP2 SWAP1 POP JUMP JUMPDEST PUSH2 0x9BF DUP2 PUSH2 0x9A5 JUMP JUMPDEST DUP2 EQ PUSH2 0x9C9 JUMPI PUSH0 DUP1 REVERT JUMPDEST POP JUMP JUMPDEST PUSH0 DUP2 MLOAD SWAP1 POP PUSH2 0x9DA DUP2 PUSH2 0x9B6 JUMP JUMPDEST SWAP3 SWAP2 POP POP JUMP JUMPDEST PUSH0 DUP2 ISZERO ISZERO SWAP1 POP SWAP2 SWAP1 POP JUMP JUMPDEST PUSH2 0x9F4 DUP2 PUSH2 0x9E0 JUMP JUMPDEST DUP2 EQ PUSH2 0x9FE JUMPI PUSH0 DUP1 REVERT JUMPDEST POP JUMP JUMPDEST PUSH0 DUP2 MLOAD SWAP1 POP PUSH2 0xA0F DUP2 PUSH2 0x9EB JUMP JUMPDEST SWAP3 SWAP2 POP POP JUMP JUMPDEST PUSH0 PUSH1 0xC0 DUP3 DUP5 SUB SLT ISZERO PUSH2 0xA2A JUMPI PUSH2 0xA29 PUSH2 0x818 JUMP JUMPDEST JUMPDEST PUSH2 0xA34 PUSH1 0xC0 PUSH2 0x88A JUMP JUMPDEST SWAP1 POP PUSH0 PUSH2 0xA43 DUP5 DUP3 DUP6 ADD PUSH2 0x8BE JUMP JUMPDEST PUSH0 DUP4 ADD MSTORE POP PUSH1 0x20 DUP3 ADD MLOAD PUSH8 0xFFFFFFFFFFFFFFFF DUP2 GT ISZERO PUSH2 0xA66 JUMPI PUSH2 0xA65 PUSH2 0x8A4 JUMP JUMPDEST JUMPDEST PUSH2 0xA72 DUP5 DUP3 DUP6 ADD PUSH2 0x959 JUMP JUMPDEST PUSH1 0x20 DUP4 ADD MSTORE POP PUSH1 0x40 DUP3 ADD MLOAD PUSH8 0xFFFFFFFFFFFFFFFF DUP2 GT ISZERO PUSH2 0xA96 JUMPI PUSH2 0xA95 PUSH2 0x8A4 JUMP JUMPDEST JUMPDEST PUSH2 0xAA2 DUP5 DUP3 DUP6 ADD PUSH2 0x959 JUMP JUMPDEST PUSH1 0x40 DUP4 ADD MSTORE POP PUSH1 0x60 PUSH2 0xAB6 DUP5 DUP3 DUP6 ADD PUSH2 0x8BE JUMP JUMPDEST PUSH1 0x60 DUP4 ADD MSTORE POP PUSH1 0x80 PUSH2 0xACA DUP5 DUP3 DUP6 ADD PUSH2 0x9CC JUMP JUMPDEST PUSH1 0x80 DUP4 ADD MSTORE POP PUSH1 0xA0 PUSH2 0xADE DUP5 DUP3 DUP6 ADD PUSH2 0xA01 JUMP JUMPDEST PUSH1 0xA0 DUP4 ADD MSTORE POP SWAP3 SWAP2 POP POP JUMP JUMPDEST PUSH0 PUSH1 0x20 DUP3 DUP5 SUB SLT ISZERO PUSH2 0xAFF JUMPI PUSH2 0xAFE PUSH2 0x810 JUMP JUMPDEST JUMPDEST PUSH0 DUP3 ADD MLOAD PUSH8 0xFFFFFFFFFFFFFFFF DUP2 GT ISZERO PUSH2 0xB1C JUMPI PUSH2 0xB1B PUSH2 0x814 JUMP JUMPDEST JUMPDEST PUSH2 0xB28 DUP5 DUP3 DUP6 ADD PUSH2 0xA15 JUMP JUMPDEST SWAP2 POP POP SWAP3 SWAP2 POP POP JUMP JUMPDEST PUSH2 0xB3A DUP2 PUSH2 0x6D4 JUMP JUMPDEST DUP3 MSTORE POP POP JUMP JUMPDEST PUSH2 0xB49 DUP2 PUSH2 0x797 JUMP JUMPDEST DUP3 MSTORE POP POP JUMP JUMPDEST PUSH0 DUP3 DUP3 MSTORE PUSH1 0x20 DUP3 ADD SWAP1 POP SWAP3 SWAP2 POP POP JUMP JUMPDEST PUSH32 0x50726F70657274792070726963652073686F756C642062652075706461746564 PUSH0 DUP3 ADD MSTORE PUSH32 0x20746F2031363030303000000000000000000000000000000000000000000000 PUSH1 0x20 DUP3 ADD MSTORE POP JUMP JUMPDEST PUSH0 PUSH2 0xBB9 PUSH1 0x2A DUP4 PUSH2 0xB4F JUMP JUMPDEST SWAP2 POP PUSH2 0xBC4 DUP3 PUSH2 0xB5F JUMP JUMPDEST PUSH1 0x40 DUP3 ADD SWAP1 POP SWAP2 SWAP1 POP JUMP JUMPDEST PUSH0 PUSH1 0x60 DUP3 ADD SWAP1 POP PUSH2 0xBE2 PUSH0 DUP4 ADD DUP6 PUSH2 0xB31 JUMP JUMPDEST PUSH2 0xBEF PUSH1 0x20 DUP4 ADD DUP5 PUSH2 0xB40 JUMP JUMPDEST DUP2 DUP2 SUB PUSH1 0x40 DUP4 ADD MSTORE PUSH2 0xC00 DUP2 PUSH2 0xBAD JUMP JUMPDEST SWAP1 POP SWAP4 SWAP3 POP POP POP JUMP JUMPDEST PUSH0 PUSH1 0x20 DUP3 DUP5 SUB SLT ISZERO PUSH2 0xC1E JUMPI PUSH2 0xC1D PUSH2 0x810 JUMP JUMPDEST JUMPDEST PUSH0 PUSH2 0xC2B DUP5 DUP3 DUP6 ADD PUSH2 0xA01 JUMP JUMPDEST SWAP2 POP POP SWAP3 SWAP2 POP POP JUMP JUMPDEST PUSH32 0x447265616D20486F6D6500000000000000000000000000000000000000000000 PUSH0 DUP3 ADD MSTORE POP JUMP JUMPDEST PUSH0 PUSH2 0xC68 PUSH1 0xA DUP4 PUSH2 0x627 JUMP JUMPDEST SWAP2 POP PUSH2 0xC73 DUP3 PUSH2 0xC34 JUMP JUMPDEST PUSH1 0x20 DUP3 ADD SWAP1 POP SWAP2 SWAP1 POP JUMP JUMPDEST PUSH32 0x313233204D61696E205374000000000000000000000000000000000000000000 PUSH0 DUP3 ADD MSTORE POP JUMP JUMPDEST PUSH0 PUSH2 0xCB2 PUSH1 0xB DUP4 PUSH2 0x627 JUMP JUMPDEST SWAP2 POP PUSH2 0xCBD DUP3 PUSH2 0xC7E JUMP JUMPDEST PUSH1 0x20 DUP3 ADD SWAP1 POP SWAP2 SWAP1 POP JUMP JUMPDEST PUSH0 DUP2 SWAP1 POP SWAP2 SWAP1 POP JUMP JUMPDEST PUSH0 PUSH2 0xCEB PUSH2 0xCE6 PUSH2 0xCE1 DUP5 PUSH2 0xCC8 JUMP JUMPDEST PUSH2 0x6DD JUMP JUMPDEST PUSH2 0x6D4 JUMP JUMPDEST SWAP1 POP SWAP2 SWAP1 POP JUMP JUMPDEST PUSH2 0xCFB DUP2 PUSH2 0xCD1 JUMP JUMPDEST DUP3 MSTORE POP POP JUMP JUMPDEST PUSH0 PUSH1 0x60 DUP3 ADD SWAP1 POP DUP2 DUP2 SUB PUSH0 DUP4 ADD MSTORE PUSH2 0xD18 DUP2 PUSH2 0xC5C JUMP JUMPDEST SWAP1 POP DUP2 DUP2 SUB PUSH1 0x20 DUP4 ADD MSTORE PUSH2 0xD2B DUP2 PUSH2 0xCA6 JUMP JUMPDEST SWAP1 POP PUSH2 0xD3A PUSH1 0x40 DUP4 ADD DUP5 PUSH2 0xCF2 JUMP JUMPDEST SWAP3 SWAP2 POP POP JUMP JUMPDEST PUSH0 DUP2 SWAP1 POP SWAP2 SWAP1 POP JUMP JUMPDEST PUSH0 PUSH2 0xD63 PUSH2 0xD5E PUSH2 0xD59 DUP5 PUSH2 0xD40 JUMP JUMPDEST PUSH2 0x6DD JUMP JUMPDEST PUSH2 0x6D4 JUMP JUMPDEST SWAP1 POP SWAP2 SWAP1 POP JUMP JUMPDEST PUSH2 0xD73 DUP2 PUSH2 0xD49 JUMP JUMPDEST DUP3 MSTORE POP POP JUMP JUMPDEST PUSH0 PUSH1 0x20 DUP3 ADD SWAP1 POP PUSH2 0xD8C PUSH0 DUP4 ADD DUP5 PUSH2 0xD6A JUMP JUMPDEST SWAP3 SWAP2 POP POP JUMP JUMPDEST PUSH0 DUP2 MLOAD SWAP1 POP SWAP2 SWAP1 POP JUMP JUMPDEST PUSH0 PUSH2 0xDA6 DUP3 PUSH2 0xD92 JUMP JUMPDEST PUSH2 0xDB0 DUP2 DUP6 PUSH2 0xB4F JUMP JUMPDEST SWAP4 POP PUSH2 0xDC0 DUP2 DUP6 PUSH1 0x20 DUP7 ADD PUSH2 0x90A JUMP JUMPDEST PUSH2 0xDC9 DUP2 PUSH2 0x81C JUMP JUMPDEST DUP5 ADD SWAP2 POP POP SWAP3 SWAP2 POP POP JUMP JUMPDEST PUSH0 PUSH2 0xDE0 PUSH1 0xA DUP4 PUSH2 0xB4F JUMP JUMPDEST SWAP2 POP PUSH2 0xDEB DUP3 PUSH2 0xC34 JUMP JUMPDEST PUSH1 0x20 DUP3 ADD SWAP1 POP SWAP2 SWAP1 POP JUMP JUMPDEST PUSH32 0x50726F7065727479207469746C652073686F756C642062652027447265616D20 PUSH0 DUP3 ADD MSTORE PUSH32 0x486F6D6527000000000000000000000000000000000000000000000000000000 PUSH1 0x20 DUP3 ADD MSTORE POP JUMP JUMPDEST PUSH0 PUSH2 0xE50 PUSH1 0x25 DUP4 PUSH2 0xB4F JUMP JUMPDEST SWAP2 POP PUSH2 0xE5B DUP3 PUSH2 0xDF6 JUMP JUMPDEST PUSH1 0x40 DUP3 ADD SWAP1 POP SWAP2 SWAP1 POP JUMP JUMPDEST PUSH0 PUSH1 0x60 DUP3 ADD SWAP1 POP DUP2 DUP2 SUB PUSH0 DUP4 ADD MSTORE PUSH2 0xE7E DUP2 DUP5 PUSH2 0xD9C JUMP JUMPDEST SWAP1 POP DUP2 DUP2 SUB PUSH1 0x20 DUP4 ADD MSTORE PUSH2 0xE91 DUP2 PUSH2 0xDD4 JUMP JUMPDEST SWAP1 POP DUP2 DUP2 SUB PUSH1 0x40 DUP4 ADD MSTORE PUSH2 0xEA4 DUP2 PUSH2 0xE44 JUMP JUMPDEST SWAP1 POP SWAP3 SWAP2 POP POP JUMP JUMPDEST PUSH0 PUSH2 0xEB8 PUSH1 0xB DUP4 PUSH2 0xB4F JUMP JUMPDEST SWAP2 POP PUSH2 0xEC3 DUP3 PUSH2 0xC7E JUMP JUMPDEST PUSH1 0x20 DUP3 ADD SWAP1 POP SWAP2 SWAP1 POP JUMP JUMPDEST PUSH32 0x50726F7065727479206C6F636174696F6E2073686F756C642062652027313233 PUSH0 DUP3 ADD MSTORE PUSH32 0x204D61696E205374270000000000000000000000000000000000000000000000 PUSH1 0x20 DUP3 ADD MSTORE POP JUMP JUMPDEST PUSH0 PUSH2 0xF28 PUSH1 0x29 DUP4 PUSH2 0xB4F JUMP JUMPDEST SWAP2 POP PUSH2 0xF33 DUP3 PUSH2 0xECE JUMP JUMPDEST PUSH1 0x40 DUP3 ADD SWAP1 POP SWAP2 SWAP1 POP JUMP JUMPDEST PUSH0 PUSH1 0x60 DUP3 ADD SWAP1 POP DUP2 DUP2 SUB PUSH0 DUP4 ADD MSTORE PUSH2 0xF56 DUP2 DUP5 PUSH2 0xD9C JUMP JUMPDEST SWAP1 POP DUP2 DUP2 SUB PUSH1 0x20 DUP4 ADD MSTORE PUSH2 0xF69 DUP2 PUSH2 0xEAC JUMP JUMPDEST SWAP1 POP DUP2 DUP2 SUB PUSH1 0x40 DUP4 ADD MSTORE PUSH2 0xF7C DUP2 PUSH2 0xF1C JUMP JUMPDEST SWAP1 POP SWAP3 SWAP2 POP POP JUMP JUMPDEST PUSH2 0xF8D DUP2 PUSH2 0xCD1 JUMP JUMPDEST DUP3 MSTORE POP POP JUMP JUMPDEST PUSH32 0x50726F70657274792070726963652073686F756C642062652031303030303000 PUSH0 DUP3 ADD MSTORE POP JUMP JUMPDEST PUSH0 PUSH2 0xFC7 PUSH1 0x1F DUP4 PUSH2 0xB4F JUMP JUMPDEST SWAP2 POP PUSH2 0xFD2 DUP3 PUSH2 0xF93 JUMP JUMPDEST PUSH1 0x20 DUP3 ADD SWAP1 POP SWAP2 SWAP1 POP JUMP JUMPDEST PUSH0 PUSH1 0x60 DUP3 ADD SWAP1 POP PUSH2 0xFF0 PUSH0 DUP4 ADD DUP6 PUSH2 0xB31 JUMP JUMPDEST PUSH2 0xFFD PUSH1 0x20 DUP4 ADD DUP5 PUSH2 0xF84 JUMP JUMPDEST DUP2 DUP2 SUB PUSH1 0x40 DUP4 ADD MSTORE PUSH2 0x100E DUP2 PUSH2 0xFBB JUMP JUMPDEST SWAP1 POP SWAP4 SWAP3 POP POP POP JUMP JUMPDEST PUSH2 0x1020 DUP2 PUSH2 0x9E0 JUMP JUMPDEST DUP3 MSTORE POP POP JUMP JUMPDEST PUSH32 0x50726F70657274792073686F756C64206265206C697374656400000000000000 PUSH0 DUP3 ADD MSTORE POP JUMP JUMPDEST PUSH0 PUSH2 0x105A PUSH1 0x19 DUP4 PUSH2 0xB4F JUMP JUMPDEST SWAP2 POP PUSH2 0x1065 DUP3 PUSH2 0x1026 JUMP JUMPDEST PUSH1 0x20 DUP3 ADD SWAP1 POP SWAP2 SWAP1 POP JUMP JUMPDEST PUSH0 PUSH1 0x60 DUP3 ADD SWAP1 POP PUSH2 0x1083 PUSH0 DUP4 ADD DUP6 PUSH2 0x1017 JUMP JUMPDEST PUSH2 0x1090 PUSH1 0x20 DUP4 ADD DUP5 PUSH2 0x1017 JUMP JUMPDEST DUP2 DUP2 SUB PUSH1 0x40 DUP4 ADD MSTORE PUSH2 0x10A1 DUP2 PUSH2 0x104E JUMP JUMPDEST SWAP1 POP SWAP4 SWAP3 POP POP POP JUMP INVALID PUSH1 0x80 PUSH1 0x40 MSTORE CALLVALUE DUP1 ISZERO PUSH1 0xE JUMPI PUSH0 DUP1 REVERT JUMPDEST POP PUSH2 0xF51 DUP1 PUSH2 0x1C PUSH0 CODECOPY PUSH0 RETURN INVALID PUSH1 0x80 PUSH1 0x40 MSTORE CALLVALUE DUP1 ISZERO PUSH2 0xF JUMPI PUSH0 DUP1 REVERT JUMPDEST POP PUSH1 0x4 CALLDATASIZE LT PUSH2 0x55 JUMPI PUSH0 CALLDATALOAD PUSH1 0xE0 SHR DUP1 PUSH4 0x32665FFB EQ PUSH2 0x59 JUMPI DUP1 PUSH4 0x44E034CC EQ PUSH2 0x89 JUMPI DUP1 PUSH4 0x4CD378BC EQ PUSH2 0xA5 JUMPI DUP1 PUSH4 0xC361A335 EQ PUSH2 0xC1 JUMPI DUP1 PUSH4 0xF7B10808 EQ PUSH2 0xDF JUMPI JUMPDEST PUSH0 DUP1 REVERT JUMPDEST PUSH2 0x73 PUSH1 0x4 DUP1 CALLDATASIZE SUB DUP2 ADD SWAP1 PUSH2 0x6E SWAP2 SWAP1 PUSH2 0x6B3 JUMP JUMPDEST PUSH2 0x114 JUMP JUMPDEST PUSH1 0x40 MLOAD PUSH2 0x80 SWAP2 SWAP1 PUSH2 0x843 JUMP JUMPDEST PUSH1 0x40 MLOAD DUP1 SWAP2 SUB SWAP1 RETURN JUMPDEST PUSH2 0xA3 PUSH1 0x4 DUP1 CALLDATASIZE SUB DUP2 ADD SWAP1 PUSH2 0x9E SWAP2 SWAP1 PUSH2 0x863 JUMP JUMPDEST PUSH2 0x2E1 JUMP JUMPDEST STOP JUMPDEST PUSH2 0xBF PUSH1 0x4 DUP1 CALLDATASIZE SUB DUP2 ADD SWAP1 PUSH2 0xBA SWAP2 SWAP1 PUSH2 0x9CD JUMP JUMPDEST PUSH2 0x393 JUMP JUMPDEST STOP JUMPDEST PUSH2 0xC9 PUSH2 0x4B0 JUMP JUMPDEST PUSH1 0x40 MLOAD PUSH2 0xD6 SWAP2 SWAP1 PUSH2 0xA64 JUMP JUMPDEST PUSH1 0x40 MLOAD DUP1 SWAP2 SUB SWAP1 RETURN JUMPDEST PUSH2 0xF9 PUSH1 0x4 DUP1 CALLDATASIZE SUB DUP2 ADD SWAP1 PUSH2 0xF4 SWAP2 SWAP1 PUSH2 0x6B3 JUMP JUMPDEST PUSH2 0x4B6 JUMP JUMPDEST PUSH1 0x40 MLOAD PUSH2 0x10B SWAP7 SWAP6 SWAP5 SWAP4 SWAP3 SWAP2 SWAP1 PUSH2 0xAE3 JUMP JUMPDEST PUSH1 0x40 MLOAD DUP1 SWAP2 SUB SWAP1 RETURN JUMPDEST PUSH2 0x11C PUSH2 0x625 JUMP JUMPDEST PUSH0 DUP1 DUP4 DUP2 MSTORE PUSH1 0x20 ADD SWAP1 DUP2 MSTORE PUSH1 0x20 ADD PUSH0 KECCAK256 PUSH1 0x40 MLOAD DUP1 PUSH1 0xC0 ADD PUSH1 0x40 MSTORE SWAP1 DUP2 PUSH0 DUP3 ADD SLOAD DUP2 MSTORE PUSH1 0x20 ADD PUSH1 0x1 DUP3 ADD DUP1 SLOAD PUSH2 0x150 SWAP1 PUSH2 0xB7D JUMP JUMPDEST DUP1 PUSH1 0x1F ADD PUSH1 0x20 DUP1 SWAP2 DIV MUL PUSH1 0x20 ADD PUSH1 0x40 MLOAD SWAP1 DUP2 ADD PUSH1 0x40 MSTORE DUP1 SWAP3 SWAP2 SWAP1 DUP2 DUP2 MSTORE PUSH1 0x20 ADD DUP3 DUP1 SLOAD PUSH2 0x17C SWAP1 PUSH2 0xB7D JUMP JUMPDEST DUP1 ISZERO PUSH2 0x1C7 JUMPI DUP1 PUSH1 0x1F LT PUSH2 0x19E JUMPI PUSH2 0x100 DUP1 DUP4 SLOAD DIV MUL DUP4 MSTORE SWAP2 PUSH1 0x20 ADD SWAP2 PUSH2 0x1C7 JUMP JUMPDEST DUP3 ADD SWAP2 SWAP1 PUSH0 MSTORE PUSH1 0x20 PUSH0 KECCAK256 SWAP1 JUMPDEST DUP2 SLOAD DUP2 MSTORE SWAP1 PUSH1 0x1 ADD SWAP1 PUSH1 0x20 ADD DUP1 DUP4 GT PUSH2 0x1AA JUMPI DUP3 SWAP1 SUB PUSH1 0x1F AND DUP3 ADD SWAP2 JUMPDEST POP POP POP POP POP DUP2 MSTORE PUSH1 0x20 ADD PUSH1 0x2 DUP3 ADD DUP1 SLOAD PUSH2 0x1E0 SWAP1 PUSH2 0xB7D JUMP JUMPDEST DUP1 PUSH1 0x1F ADD PUSH1 0x20 DUP1 SWAP2 DIV MUL PUSH1 0x20 ADD PUSH1 0x40 MLOAD SWAP1 DUP2 ADD PUSH1 0x40 MSTORE DUP1 SWAP3 SWAP2 SWAP1 DUP2 DUP2 MSTORE PUSH1 0x20 ADD DUP3 DUP1 SLOAD PUSH2 0x20C SWAP1 PUSH2 0xB7D JUMP JUMPDEST DUP1 ISZERO PUSH2 0x257 JUMPI DUP1 PUSH1 0x1F LT PUSH2 0x22E JUMPI PUSH2 0x100 DUP1 DUP4 SLOAD DIV MUL DUP4 MSTORE SWAP2 PUSH1 0x20 ADD SWAP2 PUSH2 0x257 JUMP JUMPDEST DUP3 ADD SWAP2 SWAP1 PUSH0 MSTORE PUSH1 0x20 PUSH0 KECCAK256 SWAP1 JUMPDEST DUP2 SLOAD DUP2 MSTORE SWAP1 PUSH1 0x1 ADD SWAP1 PUSH1 0x20 ADD DUP1 DUP4 GT PUSH2 0x23A JUMPI DUP3 SWAP1 SUB PUSH1 0x1F AND DUP3 ADD SWAP2 JUMPDEST POP POP POP POP POP DUP2 MSTORE PUSH1 0x20 ADD PUSH1 0x3 DUP3 ADD SLOAD DUP2 MSTORE PUSH1 0x20 ADD PUSH1 0x4 DUP3 ADD PUSH0 SWAP1 SLOAD SWAP1 PUSH2 0x100 EXP SWAP1 DIV PUSH20 0xFFFFFFFFFFFFFFFFFFFFFFFFFFFFFFFFFFFFFFFF AND PUSH20 0xFFFFFFFFFFFFFFFFFFFFFFFFFFFFFFFFFFFFFFFF AND PUSH20 0xFFFFFFFFFFFFFFFFFFFFFFFFFFFFFFFFFFFFFFFF AND DUP2 MSTORE PUSH1 0x20 ADD PUSH1 0x4 DUP3 ADD PUSH1 0x14 SWAP1 SLOAD SWAP1 PUSH2 0x100 EXP SWAP1 DIV PUSH1 0xFF AND ISZERO ISZERO ISZERO ISZERO DUP2 MSTORE POP POP SWAP1 POP SWAP2 SWAP1 POP JUMP JUMPDEST PUSH0 DUP1 PUSH0 DUP5 DUP2 MSTORE PUSH1 0x20 ADD SWAP1 DUP2 MSTORE PUSH1 0x20 ADD PUSH0 KECCAK256 SWAP1 POP DUP1 PUSH1 0x4 ADD PUSH0 SWAP1 SLOAD SWAP1 PUSH2 0x100 EXP SWAP1 DIV PUSH20 0xFFFFFFFFFFFFFFFFFFFFFFFFFFFFFFFFFFFFFFFF AND PUSH20 0xFFFFFFFFFFFFFFFFFFFFFFFFFFFFFFFFFFFFFFFF AND CALLER PUSH20 0xFFFFFFFFFFFFFFFFFFFFFFFFFFFFFFFFFFFFFFFF AND EQ PUSH2 0x385 JUMPI PUSH1 0x40 MLOAD PUSH32 0x8C379A000000000000000000000000000000000000000000000000000000000 DUP2 MSTORE PUSH1 0x4 ADD PUSH2 0x37C SWAP1 PUSH2 0xC1D JUMP JUMPDEST PUSH1 0x40 MLOAD DUP1 SWAP2 SUB SWAP1 REVERT JUMPDEST DUP2 DUP2 PUSH1 0x3 ADD DUP2 SWAP1 SSTORE POP POP POP POP JUMP JUMPDEST PUSH1 0x1 PUSH0 DUP2 SLOAD DUP1 SWAP3 SWAP2 SWAP1 PUSH2 0x3A5 SWAP1 PUSH2 0xC68 JUMP JUMPDEST SWAP2 SWAP1 POP SSTORE POP PUSH1 0x40 MLOAD DUP1 PUSH1 0xC0 ADD PUSH1 0x40 MSTORE DUP1 PUSH1 0x1 SLOAD DUP2 MSTORE PUSH1 0x20 ADD DUP5 DUP2 MSTORE PUSH1 0x20 ADD DUP4 DUP2 MSTORE PUSH1 0x20 ADD DUP3 DUP2 MSTORE PUSH1 0x20 ADD CALLER PUSH20 0xFFFFFFFFFFFFFFFFFFFFFFFFFFFFFFFFFFFFFFFF AND DUP2 MSTORE PUSH1 0x20 ADD PUSH1 0x1 ISZERO ISZERO DUP2 MSTORE POP PUSH0 DUP1 PUSH1 0x1 SLOAD DUP2 MSTORE PUSH1 0x20 ADD SWAP1 DUP2 MSTORE PUSH1 0x20 ADD PUSH0 KECCAK256 PUSH0 DUP3 ADD MLOAD DUP2 PUSH0 ADD SSTORE PUSH1 0x20 DUP3 ADD MLOAD DUP2 PUSH1 0x1 ADD SWAP1 DUP2 PUSH2 0x421 SWAP2 SWAP1 PUSH2 0xE4C JUMP JUMPDEST POP PUSH1 0x40 DUP3 ADD MLOAD DUP2 PUSH1 0x2 ADD SWAP1 DUP2 PUSH2 0x437 SWAP2 SWAP1 PUSH2 0xE4C JUMP JUMPDEST POP PUSH1 0x60 DUP3 ADD MLOAD DUP2 PUSH1 0x3 ADD SSTORE PUSH1 0x80 DUP3 ADD MLOAD DUP2 PUSH1 0x4 ADD PUSH0 PUSH2 0x100 EXP DUP2 SLOAD DUP2 PUSH20 0xFFFFFFFFFFFFFFFFFFFFFFFFFFFFFFFFFFFFFFFF MUL NOT AND SWAP1 DUP4 PUSH20 0xFFFFFFFFFFFFFFFFFFFFFFFFFFFFFFFFFFFFFFFF AND MUL OR SWAP1 SSTORE POP PUSH1 0xA0 DUP3 ADD MLOAD DUP2 PUSH1 0x4 ADD PUSH1 0x14 PUSH2 0x100 EXP DUP2 SLOAD DUP2 PUSH1 0xFF MUL NOT AND SWAP1 DUP4 ISZERO ISZERO MUL OR SWAP1 SSTORE POP SWAP1 POP POP POP POP POP JUMP JUMPDEST PUSH1 0x1 SLOAD DUP2 JUMP JUMPDEST PUSH0 PUSH1 0x20 MSTORE DUP1 PUSH0 MSTORE PUSH1 0x40 PUSH0 KECCAK256 PUSH0 SWAP2 POP SWAP1 POP DUP1 PUSH0 ADD SLOAD SWAP1 DUP1 PUSH1 0x1 ADD DUP1 SLOAD PUSH2 0x4DA SWAP1 PUSH2 0xB7D JUMP JUMPDEST DUP1 PUSH1 0x1F ADD PUSH1 0x20 DUP1 SWAP2 DIV MUL PUSH1 0x20 ADD PUSH1 0x40 MLOAD SWAP1 DUP2 ADD PUSH1 0x40 MSTORE DUP1 SWAP3 SWAP2 SWAP1 DUP2 DUP2 MSTORE PUSH1 0x20 ADD DUP3 DUP1 SLOAD PUSH2 0x506 SWAP1 PUSH2 0xB7D JUMP JUMPDEST DUP1 ISZERO PUSH2 0x551 JUMPI DUP1 PUSH1 0x1F LT PUSH2 0x528 JUMPI PUSH2 0x100 DUP1 DUP4 SLOAD DIV MUL DUP4 MSTORE SWAP2 PUSH1 0x20 ADD SWAP2 PUSH2 0x551 JUMP JUMPDEST DUP3 ADD SWAP2 SWAP1 PUSH0 MSTORE PUSH1 0x20 PUSH0 KECCAK256 SWAP1 JUMPDEST DUP2 SLOAD DUP2 MSTORE SWAP1 PUSH1 0x1 ADD SWAP1 PUSH1 0x20 ADD DUP1 DUP4 GT PUSH2 0x534 JUMPI DUP3 SWAP1 SUB PUSH1 0x1F AND DUP3 ADD SWAP2 JUMPDEST POP POP POP POP POP SWAP1 DUP1 PUSH1 0x2 ADD DUP1 SLOAD PUSH2 0x566 SWAP1 PUSH2 0xB7D JUMP JUMPDEST DUP1 PUSH1 0x1F ADD PUSH1 0x20 DUP1 SWAP2 DIV MUL PUSH1 0x20 ADD PUSH1 0x40 MLOAD SWAP1 DUP2 ADD PUSH1 0x40 MSTORE DUP1 SWAP3 SWAP2 SWAP1 DUP2 DUP2 MSTORE PUSH1 0x20 ADD DUP3 DUP1 SLOAD PUSH2 0x592 SWAP1 PUSH2 0xB7D JUMP JUMPDEST DUP1 ISZERO PUSH2 0x5DD JUMPI DUP1 PUSH1 0x1F LT PUSH2 0x5B4 JUMPI PUSH2 0x100 DUP1 DUP4 SLOAD DIV MUL DUP4 MSTORE SWAP2 PUSH1 0x20 ADD SWAP2 PUSH2 0x5DD JUMP JUMPDEST DUP3 ADD SWAP2 SWAP1 PUSH0 MSTORE PUSH1 0x20 PUSH0 KECCAK256 SWAP1 JUMPDEST DUP2 SLOAD DUP2 MSTORE SWAP1 PUSH1 0x1 ADD SWAP1 PUSH1 0x20 ADD DUP1 DUP4 GT PUSH2 0x5C0 JUMPI DUP3 SWAP1 SUB PUSH1 0x1F AND DUP3 ADD SWAP2 JUMPDEST POP POP POP POP POP SWAP1 DUP1 PUSH1 0x3 ADD SLOAD SWAP1 DUP1 PUSH1 0x4 ADD PUSH0 SWAP1 SLOAD SWAP1 PUSH2 0x100 EXP SWAP1 DIV PUSH20 0xFFFFFFFFFFFFFFFFFFFFFFFFFFFFFFFFFFFFFFFF AND SWAP1 DUP1 PUSH1 0x4 ADD PUSH1 0x14 SWAP1 SLOAD SWAP1 PUSH2 0x100 EXP SWAP1 DIV PUSH1 0xFF AND SWAP1 POP DUP7 JUMP JUMPDEST PUSH1 0x40 MLOAD DUP1 PUSH1 0xC0 ADD PUSH1 0x40 MSTORE DUP1 PUSH0 DUP2 MSTORE PUSH1 0x20 ADD PUSH1 0x60 DUP2 MSTORE PUSH1 0x20 ADD PUSH1 0x60 DUP2 MSTORE PUSH1 0x20 ADD PUSH0 DUP2 MSTORE PUSH1 0x20 ADD PUSH0 PUSH20 0xFFFFFFFFFFFFFFFFFFFFFFFFFFFFFFFFFFFFFFFF AND DUP2 MSTORE PUSH1 0x20 ADD PUSH0 ISZERO ISZERO DUP2 MSTORE POP SWAP1 JUMP JUMPDEST PUSH0 PUSH1 0x40 MLOAD SWAP1 POP SWAP1 JUMP JUMPDEST PUSH0 DUP1 REVERT JUMPDEST PUSH0 DUP1 REVERT JUMPDEST PUSH0 DUP2 SWAP1 POP SWAP2 SWAP1 POP JUMP JUMPDEST PUSH2 0x692 DUP2 PUSH2 0x680 JUMP JUMPDEST DUP2 EQ PUSH2 0x69C JUMPI PUSH0 DUP1 REVERT JUMPDEST POP JUMP JUMPDEST PUSH0 DUP2 CALLDATALOAD SWAP1 POP PUSH2 0x6AD DUP2 PUSH2 0x689 JUMP JUMPDEST SWAP3 SWAP2 POP POP JUMP JUMPDEST PUSH0 PUSH1 0x20 DUP3 DUP5 SUB SLT ISZERO PUSH2 0x6C8 JUMPI PUSH2 0x6C7 PUSH2 0x678 JUMP JUMPDEST JUMPDEST PUSH0 PUSH2 0x6D5 DUP5 DUP3 DUP6 ADD PUSH2 0x69F JUMP JUMPDEST SWAP2 POP POP SWAP3 SWAP2 POP POP JUMP JUMPDEST PUSH2 0x6E7 DUP2 PUSH2 0x680 JUMP JUMPDEST DUP3 MSTORE POP POP JUMP JUMPDEST PUSH0 DUP2 MLOAD SWAP1 POP SWAP2 SWAP1 POP JUMP JUMPDEST PUSH0 DUP3 DUP3 MSTORE PUSH1 0x20 DUP3 ADD SWAP1 POP SWAP3 SWAP2 POP POP JUMP JUMPDEST DUP3 DUP2 DUP4 MCOPY PUSH0 DUP4 DUP4 ADD MSTORE POP POP POP JUMP JUMPDEST PUSH0 PUSH1 0x1F NOT PUSH1 0x1F DUP4 ADD AND SWAP1 POP SWAP2 SWAP1 POP JUMP JUMPDEST PUSH0 PUSH2 0x72F DUP3 PUSH2 0x6ED JUMP JUMPDEST PUSH2 0x739 DUP2 DUP6 PUSH2 0x6F7 JUMP JUMPDEST SWAP4 POP PUSH2 0x749 DUP2 DUP6 PUSH1 0x20 DUP7 ADD PUSH2 0x707 JUMP JUMPDEST PUSH2 0x752 DUP2 PUSH2 0x715 JUMP JUMPDEST DUP5 ADD SWAP2 POP POP SWAP3 SWAP2 POP POP JUMP JUMPDEST PUSH0 PUSH20 0xFFFFFFFFFFFFFFFFFFFFFFFFFFFFFFFFFFFFFFFF DUP3 AND SWAP1 POP SWAP2 SWAP1 POP JUMP JUMPDEST PUSH0 PUSH2 0x786 DUP3 PUSH2 0x75D JUMP JUMPDEST SWAP1 POP SWAP2 SWAP1 POP JUMP JUMPDEST PUSH2 0x796 DUP2 PUSH2 0x77C JUMP JUMPDEST DUP3 MSTORE POP POP JUMP JUMPDEST PUSH0 DUP2 ISZERO ISZERO SWAP1 POP SWAP2 SWAP1 POP JUMP JUMPDEST PUSH2 0x7B0 DUP2 PUSH2 0x79C JUMP JUMPDEST DUP3 MSTORE POP POP JUMP JUMPDEST PUSH0 PUSH1 0xC0 DUP4 ADD PUSH0 DUP4 ADD MLOAD PUSH2 0x7CB PUSH0 DUP7 ADD DUP3 PUSH2 0x6DE JUMP JUMPDEST POP PUSH1 0x20 DUP4 ADD MLOAD DUP5 DUP3 SUB PUSH1 0x20 DUP7 ADD MSTORE PUSH2 0x7E3 DUP3 DUP3 PUSH2 0x725 JUMP JUMPDEST SWAP2 POP POP PUSH1 0x40 DUP4 ADD MLOAD DUP5 DUP3 SUB PUSH1 0x40 DUP7 ADD MSTORE PUSH2 0x7FD DUP3 DUP3 PUSH2 0x725 JUMP JUMPDEST SWAP2 POP POP PUSH1 0x60 DUP4 ADD MLOAD PUSH2 0x812 PUSH1 0x60 DUP7 ADD DUP3 PUSH2 0x6DE JUMP JUMPDEST POP PUSH1 0x80 DUP4 ADD MLOAD PUSH2 0x825 PUSH1 0x80 DUP7 ADD DUP3 PUSH2 0x78D JUMP JUMPDEST POP PUSH1 0xA0 DUP4 ADD MLOAD PUSH2 0x838 PUSH1 0xA0 DUP7 ADD DUP3 PUSH2 0x7A7 JUMP JUMPDEST POP DUP1 SWAP2 POP POP SWAP3 SWAP2 POP POP JUMP JUMPDEST PUSH0 PUSH1 0x20 DUP3 ADD SWAP1 POP DUP2 DUP2 SUB PUSH0 DUP4 ADD MSTORE PUSH2 0x85B DUP2 DUP5 PUSH2 0x7B6 JUMP JUMPDEST SWAP1 POP SWAP3 SWAP2 POP POP JUMP JUMPDEST PUSH0 DUP1 PUSH1 0x40 DUP4 DUP6 SUB SLT ISZERO PUSH2 0x879 JUMPI PUSH2 0x878 PUSH2 0x678 JUMP JUMPDEST JUMPDEST PUSH0 PUSH2 0x886 DUP6 DUP3 DUP7 ADD PUSH2 0x69F JUMP JUMPDEST SWAP3 POP POP PUSH1 0x20 PUSH2 0x897 DUP6 DUP3 DUP7 ADD PUSH2 0x69F JUMP JUMPDEST SWAP2 POP POP SWAP3 POP SWAP3 SWAP1 POP JUMP JUMPDEST PUSH0 DUP1 REVERT JUMPDEST PUSH0 DUP1 REVERT JUMPDEST PUSH32 0x4E487B7100000000000000000000000000000000000000000000000000000000 PUSH0 MSTORE PUSH1 0x41 PUSH1 0x4 MSTORE PUSH1 0x24 PUSH0 REVERT JUMPDEST PUSH2 0x8DF DUP3 PUSH2 0x715 JUMP JUMPDEST DUP2 ADD DUP2 DUP2 LT PUSH8 0xFFFFFFFFFFFFFFFF DUP3 GT OR ISZERO PUSH2 0x8FE JUMPI PUSH2 0x8FD PUSH2 0x8A9 JUMP JUMPDEST JUMPDEST DUP1 PUSH1 0x40 MSTORE POP POP POP JUMP JUMPDEST PUSH0 PUSH2 0x910 PUSH2 0x66F JUMP JUMPDEST SWAP1 POP PUSH2 0x91C DUP3 DUP3 PUSH2 0x8D6 JUMP JUMPDEST SWAP2 SWAP1 POP JUMP JUMPDEST PUSH0 PUSH8 0xFFFFFFFFFFFFFFFF DUP3 GT ISZERO PUSH2 0x93B JUMPI PUSH2 0x93A PUSH2 0x8A9 JUMP JUMPDEST JUMPDEST PUSH2 0x944 DUP3 PUSH2 0x715 JUMP JUMPDEST SWAP1 POP PUSH1 0x20 DUP2 ADD SWAP1 POP SWAP2 SWAP1 POP JUMP JUMPDEST DUP3 DUP2 DUP4 CALLDATACOPY PUSH0 DUP4 DUP4 ADD MSTORE POP POP POP JUMP JUMPDEST PUSH0 PUSH2 0x971 PUSH2 0x96C DUP5 PUSH2 0x921 JUMP JUMPDEST PUSH2 0x907 JUMP JUMPDEST SWAP1 POP DUP3 DUP2 MSTORE PUSH1 0x20 DUP2 ADD DUP5 DUP5 DUP5 ADD GT ISZERO PUSH2 0x98D JUMPI PUSH2 0x98C PUSH2 0x8A5 JUMP JUMPDEST JUMPDEST PUSH2 0x998 DUP5 DUP3 DUP6 PUSH2 0x951 JUMP JUMPDEST POP SWAP4 SWAP3 POP POP POP JUMP JUMPDEST PUSH0 DUP3 PUSH1 0x1F DUP4 ADD SLT PUSH2 0x9B4 JUMPI PUSH2 0x9B3 PUSH2 0x8A1 JUMP JUMPDEST JUMPDEST DUP2 CALLDATALOAD PUSH2 0x9C4 DUP5 DUP3 PUSH1 0x20 DUP7 ADD PUSH2 0x95F JUMP JUMPDEST SWAP2 POP POP SWAP3 SWAP2 POP POP JUMP JUMPDEST PUSH0 DUP1 PUSH0 PUSH1 0x60 DUP5 DUP7 SUB SLT ISZERO PUSH2 0x9E4 JUMPI PUSH2 0x9E3 PUSH2 0x678 JUMP JUMPDEST JUMPDEST PUSH0 DUP5 ADD CALLDATALOAD PUSH8 0xFFFFFFFFFFFFFFFF DUP2 GT ISZERO PUSH2 0xA01 JUMPI PUSH2 0xA00 PUSH2 0x67C JUMP JUMPDEST JUMPDEST PUSH2 0xA0D DUP7 DUP3 DUP8 ADD PUSH2 0x9A0 JUMP JUMPDEST SWAP4 POP POP PUSH1 0x20 DUP5 ADD CALLDATALOAD PUSH8 0xFFFFFFFFFFFFFFFF DUP2 GT ISZERO PUSH2 0xA2E JUMPI PUSH2 0xA2D PUSH2 0x67C JUMP JUMPDEST JUMPDEST PUSH2 0xA3A DUP7 DUP3 DUP8 ADD PUSH2 0x9A0 JUMP JUMPDEST SWAP3 POP POP PUSH1 0x40 PUSH2 0xA4B DUP7 DUP3 DUP8 ADD PUSH2 0x69F JUMP JUMPDEST SWAP2 POP POP SWAP3 POP SWAP3 POP SWAP3 JUMP JUMPDEST PUSH2 0xA5E DUP2 PUSH2 0x680 JUMP JUMPDEST DUP3 MSTORE POP POP JUMP JUMPDEST PUSH0 PUSH1 0x20 DUP3 ADD SWAP1 POP PUSH2 0xA77 PUSH0 DUP4 ADD DUP5 PUSH2 0xA55 JUMP JUMPDEST SWAP3 SWAP2 POP POP JUMP JUMPDEST PUSH0 DUP3 DUP3 MSTORE PUSH1 0x20 DUP3 ADD SWAP1 POP SWAP3 SWAP2 POP POP JUMP JUMPDEST PUSH0 PUSH2 0xA97 DUP3 PUSH2 0x6ED JUMP JUMPDEST PUSH2 0xAA1 DUP2 DUP6 PUSH2 0xA7D JUMP JUMPDEST SWAP4 POP PUSH2 0xAB1 DUP2 DUP6 PUSH1 0x20 DUP7 ADD PUSH2 0x707 JUMP JUMPDEST PUSH2 0xABA DUP2 PUSH2 0x715 JUMP JUMPDEST DUP5 ADD SWAP2 POP POP SWAP3 SWAP2 POP POP JUMP JUMPDEST PUSH2 0xACE DUP2 PUSH2 0x77C JUMP JUMPDEST DUP3 MSTORE POP POP JUMP JUMPDEST PUSH2 0xADD DUP2 PUSH2 0x79C JUMP JUMPDEST DUP3 MSTORE POP POP JUMP JUMPDEST PUSH0 PUSH1 0xC0 DUP3 ADD SWAP1 POP PUSH2 0xAF6 PUSH0 DUP4 ADD DUP10 PUSH2 0xA55 JUMP JUMPDEST DUP2 DUP2 SUB PUSH1 0x20 DUP4 ADD MSTORE PUSH2 0xB08 DUP2 DUP9 PUSH2 0xA8D JUMP JUMPDEST SWAP1 POP DUP2 DUP2 SUB PUSH1 0x40 DUP4 ADD MSTORE PUSH2 0xB1C DUP2 DUP8 PUSH2 0xA8D JUMP JUMPDEST SWAP1 POP PUSH2 0xB2B PUSH1 0x60 DUP4 ADD DUP7 PUSH2 0xA55 JUMP JUMPDEST PUSH2 0xB38 PUSH1 0x80 DUP4 ADD DUP6 PUSH2 0xAC5 JUMP JUMPDEST PUSH2 0xB45 PUSH1 0xA0 DUP4 ADD DUP5 PUSH2 0xAD4 JUMP JUMPDEST SWAP8 SWAP7 POP POP POP POP POP POP POP JUMP JUMPDEST PUSH32 0x4E487B7100000000000000000000000000000000000000000000000000000000 PUSH0 MSTORE PUSH1 0x22 PUSH1 0x4 MSTORE PUSH1 0x24 PUSH0 REVERT JUMPDEST PUSH0 PUSH1 0x2 DUP3 DIV SWAP1 POP PUSH1 0x1 DUP3 AND DUP1 PUSH2 0xB94 JUMPI PUSH1 0x7F DUP3 AND SWAP2 POP JUMPDEST PUSH1 0x20 DUP3 LT DUP2 SUB PUSH2 0xBA7 JUMPI PUSH2 0xBA6 PUSH2 0xB50 JUMP JUMPDEST JUMPDEST POP SWAP2 SWAP1 POP JUMP JUMPDEST PUSH32 0x4F6E6C792070726F7065727479206F776E65722063616E207570646174652074 PUSH0 DUP3 ADD MSTORE PUSH32 0x6865206C697374696E6700000000000000000000000000000000000000000000 PUSH1 0x20 DUP3 ADD MSTORE POP JUMP JUMPDEST PUSH0 PUSH2 0xC07 PUSH1 0x2A DUP4 PUSH2 0xA7D JUMP JUMPDEST SWAP2 POP PUSH2 0xC12 DUP3 PUSH2 0xBAD JUMP JUMPDEST PUSH1 0x40 DUP3 ADD SWAP1 POP SWAP2 SWAP1 POP JUMP JUMPDEST PUSH0 PUSH1 0x20 DUP3 ADD SWAP1 POP DUP2 DUP2 SUB PUSH0 DUP4 ADD MSTORE PUSH2 0xC34 DUP2 PUSH2 0xBFB JUMP JUMPDEST SWAP1 POP SWAP2 SWAP1 POP JUMP JUMPDEST PUSH32 0x4E487B7100000000000000000000000000000000000000000000000000000000 PUSH0 MSTORE PUSH1 0x11 PUSH1 0x4 MSTORE PUSH1 0x24 PUSH0 REVERT JUMPDEST PUSH0 PUSH2 0xC72 DUP3 PUSH2 0x680 JUMP JUMPDEST SWAP2 POP PUSH32 0xFFFFFFFFFFFFFFFFFFFFFFFFFFFFFFFFFFFFFFFFFFFFFFFFFFFFFFFFFFFFFFFF DUP3 SUB PUSH2 0xCA4 JUMPI PUSH2 0xCA3 PUSH2 0xC3B JUMP JUMPDEST JUMPDEST PUSH1 0x1 DUP3 ADD SWAP1 POP SWAP2 SWAP1 POP JUMP JUMPDEST PUSH0 DUP2 SWAP1 POP DUP2 PUSH0 MSTORE PUSH1 0x20 PUSH0 KECCAK256 SWAP1 POP SWAP2 SWAP1 POP JUMP JUMPDEST PUSH0 PUSH1 0x20 PUSH1 0x1F DUP4 ADD DIV SWAP1 POP SWAP2 SWAP1 POP JUMP JUMPDEST PUSH0 DUP3 DUP3 SHL SWAP1 POP SWAP3 SWAP2 POP POP JUMP JUMPDEST PUSH0 PUSH1 0x8 DUP4 MUL PUSH2 0xD0B PUSH32 0xFFFFFFFFFFFFFFFFFFFFFFFFFFFFFFFFFFFFFFFFFFFFFFFFFFFFFFFFFFFFFFFF DUP3 PUSH2 0xCD0 JUMP JUMPDEST PUSH2 0xD15 DUP7 DUP4 PUSH2 0xCD0 JUMP JUMPDEST SWAP6 POP DUP1 NOT DUP5 AND SWAP4 POP DUP1 DUP7 AND DUP5 OR SWAP3 POP POP POP SWAP4 SWAP3 POP POP POP JUMP JUMPDEST PUSH0 DUP2 SWAP1 POP SWAP2 SWAP1 POP JUMP JUMPDEST PUSH0 PUSH2 0xD50 PUSH2 0xD4B PUSH2 0xD46 DUP5 PUSH2 0x680 JUMP JUMPDEST PUSH2 0xD2D JUMP JUMPDEST PUSH2 0x680 JUMP JUMPDEST SWAP1 POP SWAP2 SWAP1 POP JUMP JUMPDEST PUSH0 DUP2 SWAP1 POP SWAP2 SWAP1 POP JUMP JUMPDEST PUSH2 0xD69 DUP4 PUSH2 0xD36 JUMP JUMPDEST PUSH2 0xD7D PUSH2 0xD75 DUP3 PUSH2 0xD57 JUMP JUMPDEST DUP5 DUP5 SLOAD PUSH2 0xCDC JUMP JUMPDEST DUP3 SSTORE POP POP POP POP JUMP JUMPDEST PUSH0 SWAP1 JUMP JUMPDEST PUSH2 0xD91 PUSH2 0xD85 JUMP JUMPDEST PUSH2 0xD9C DUP2 DUP5 DUP5 PUSH2 0xD60 JUMP JUMPDEST POP POP POP JUMP JUMPDEST JUMPDEST DUP2 DUP2 LT ISZERO PUSH2 0xDBF JUMPI PUSH2 0xDB4 PUSH0 DUP3 PUSH2 0xD89 JUMP JUMPDEST PUSH1 0x1 DUP2 ADD SWAP1 POP PUSH2 0xDA2 JUMP JUMPDEST POP POP JUMP JUMPDEST PUSH1 0x1F DUP3 GT ISZERO PUSH2 0xE04 JUMPI PUSH2 0xDD5 DUP2 PUSH2 0xCAF JUMP JUMPDEST PUSH2 0xDDE DUP5 PUSH2 0xCC1 JUMP JUMPDEST DUP2 ADD PUSH1 0x20 DUP6 LT ISZERO PUSH2 0xDED JUMPI DUP2 SWAP1 POP JUMPDEST PUSH2 0xE01 PUSH2 0xDF9 DUP6 PUSH2 0xCC1 JUMP JUMPDEST DUP4 ADD DUP3 PUSH2 0xDA1 JUMP JUMPDEST POP POP JUMPDEST POP POP POP JUMP JUMPDEST PUSH0 DUP3 DUP3 SHR SWAP1 POP SWAP3 SWAP2 POP POP JUMP JUMPDEST PUSH0 PUSH2 0xE24 PUSH0 NOT DUP5 PUSH1 0x8 MUL PUSH2 0xE09 JUMP JUMPDEST NOT DUP1 DUP4 AND SWAP2 POP POP SWAP3 SWAP2 POP POP JUMP JUMPDEST PUSH0 PUSH2 0xE3C DUP4 DUP4 PUSH2 0xE15 JUMP JUMPDEST SWAP2 POP DUP3 PUSH1 0x2 MUL DUP3 OR SWAP1 POP SWAP3 SWAP2 POP POP JUMP JUMPDEST PUSH2 0xE55 DUP3 PUSH2 0x6ED JUMP JUMPDEST PUSH8 0xFFFFFFFFFFFFFFFF DUP2 GT ISZERO PUSH2 0xE6E JUMPI PUSH2 0xE6D PUSH2 0x8A9 JUMP JUMPDEST JUMPDEST PUSH2 0xE78 DUP3 SLOAD PUSH2 0xB7D JUMP JUMPDEST PUSH2 0xE83 DUP3 DUP3 DUP6 PUSH2 0xDC3 JUMP JUMPDEST PUSH0 PUSH1 0x20 SWAP1 POP PUSH1 0x1F DUP4 GT PUSH1 0x1 DUP2 EQ PUSH2 0xEB4 JUMPI PUSH0 DUP5 ISZERO PUSH2 0xEA2 JUMPI DUP3 DUP8 ADD MLOAD SWAP1 POP JUMPDEST PUSH2 0xEAC DUP6 DUP3 PUSH2 0xE31 JUMP JUMPDEST DUP7 SSTORE POP PUSH2 0xF13 JUMP JUMPDEST PUSH1 0x1F NOT DUP5 AND PUSH2 0xEC2 DUP7 PUSH2 0xCAF JUMP JUMPDEST PUSH0 JUMPDEST DUP3 DUP2 LT ISZERO PUSH2 0xEE9 JUMPI DUP5 DUP10 ADD MLOAD DUP3 SSTORE PUSH1 0x1 DUP3 ADD SWAP2 POP PUSH1 0x20 DUP6 ADD SWAP5 POP PUSH1 0x20 DUP2 ADD SWAP1 POP PUSH2 0xEC4 JUMP JUMPDEST DUP7 DUP4 LT ISZERO PUSH2 0xF06 JUMPI DUP5 DUP10 ADD MLOAD PUSH2 0xF02 PUSH1 0x1F DUP10 AND DUP3 PUSH2 0xE15 JUMP JUMPDEST DUP4 SSTORE POP JUMPDEST PUSH1 0x1 PUSH1 0x2 DUP9 MUL ADD DUP9 SSTORE POP POP POP JUMPDEST POP POP POP POP POP POP JUMP INVALID LOG2 PUSH5 0x6970667358 0x22 SLT KECCAK256 0xC4 0x2A REVERT 0x2D SWAP1 MLOAD 0xD5 ORIGIN SWAP2 0xF9 OR 0xB1 PUSH18 0xCE6281F9535693828174525661255F6C7B6C DUP14 PUSH5 0x736F6C6343 STOP ADDMOD NOT STOP CALLER LOG2 PUSH5 0x6970667358 0x22 SLT KECCAK256 ORIGIN RETURN 0xAB 0xFB PC 0x28 PUSH2 0x3488 0xA8 0xDF 0x2C PUSH20 0x89ADFE01736A6F0A5428843AE74A39F7E9DFC064 PUSH20 0x6F6C634300081900330000000000000000000000 "
		},
		"gasEstimates": {
			"creation": {
				"codeDepositCost": "1653800",
				"executionCost": "1734",
				"totalCost": "1655534"
			},
			"external": {
				"beforeAll()": "infinite",
				"testPropertyListing()": "infinite",
				"testUpdatePropertyPrice()": "infinite"
			}
		},
		"methodIdentifiers": {
			"beforeAll()": "7fea0d4b",
			"testPropertyListing()": "e2ab151c",
			"testUpdatePropertyPrice()": "91244327"
		}
	},
	"abi": [
		{
			"inputs": [],
			"name": "beforeAll",
			"outputs": [],
			"stateMutability": "nonpayable",
			"type": "function"
		},
		{
			"inputs": [],
			"name": "testPropertyListing",
			"outputs": [],
			"stateMutability": "nonpayable",
			"type": "function"
		},
		{
			"inputs": [],
			"name": "testUpdatePropertyPrice",
			"outputs": [],
			"stateMutability": "nonpayable",
			"type": "function"
		}
	]
}