{
	"data": {
		"bytecode": {
			"linkReferences": {
				"remix_tests.sol": {
					"Assert": [
						{
							"length": 20,
							"start": 270
						},
						{
							"length": 20,
							"start": 813
						},
						{
							"length": 20,
							"start": 1109
						},
						{
							"length": 20,
							"start": 1496
						}
					]
				}
			},
			"object": "6080604052348015600e575f80fd5b506116ea8061001c5f395ff3fe608060405234801561000f575f80fd5b506004361061004a575f3560e01c80631a94c7ec1461004e5780637fea0d4b14610058578063b2f26d4314610062578063b4685bad1461006c575b5f80fd5b610056610076565b005b61006061021a565b005b61006a610280565b005b610074610540565b005b5f8054906101000a900473ffffffffffffffffffffffffffffffffffffffff1673ffffffffffffffffffffffffffffffffffffffff1663b3ae1d2c6040518163ffffffff1660e01b81526004015f604051808303815f87803b1580156100da575f80fd5b505af11580156100ec573d5f803e3d5ffd5b5050505073__$acbfb1c35000d78352310b16a054a6b106$__63abcd79605f8054906101000a900473ffffffffffffffffffffffffffffffffffffffff1673ffffffffffffffffffffffffffffffffffffffff1663c19d93fb6040518163ffffffff1660e01b8152600401602060405180830381865afa158015610172573d5f803e3d5ffd5b505050506040513d601f19601f820116820180604052508101906101969190610719565b60028111156101a8576101a7610744565b5b6002808111156101bb576101ba610744565b5b6040518363ffffffff1660e01b81526004016101d89291906107e3565b602060405180830381865af41580156101f3573d5f803e3d5ffd5b505050506040513d601f19601f820116820180604052508101906102179190610852565b50565b604051610226906106e5565b604051809103905ff08015801561023f573d5f803e3d5ffd5b505f806101000a81548173ffffffffffffffffffffffffffffffffffffffff021916908373ffffffffffffffffffffffffffffffffffffffff160217905550565b5f8054906101000a900473ffffffffffffffffffffffffffffffffffffffff1673ffffffffffffffffffffffffffffffffffffffff1663e42bb8aa620186a060016101236040518463ffffffff1660e01b81526004016102e19291906108fe565b5f604051808303818588803b1580156102f8575f80fd5b505af115801561030a573d5f803e3d5ffd5b505050505073__$acbfb1c35000d78352310b16a054a6b106$__63abcd79605f8054906101000a900473ffffffffffffffffffffffffffffffffffffffff1673ffffffffffffffffffffffffffffffffffffffff1663c19d93fb6040518163ffffffff1660e01b8152600401602060405180830381865afa158015610391573d5f803e3d5ffd5b505050506040513d601f19601f820116820180604052508101906103b59190610719565b60028111156103c7576103c6610744565b5b5f60028111156103da576103d9610744565b5b6040518363ffffffff1660e01b81526004016103f792919061096f565b602060405180830381865af4158015610412573d5f803e3d5ffd5b505050506040513d601f19601f820116820180604052508101906104369190610852565b5073__$acbfb1c35000d78352310b16a054a6b106$__63abcd79605f8054906101000a900473ffffffffffffffffffffffffffffffffffffffff1673ffffffffffffffffffffffffffffffffffffffff16633fa4f2456040518163ffffffff1660e01b8152600401602060405180830381865afa1580156104b9573d5f803e3d5ffd5b505050506040513d601f19601f820116820180604052508101906104dd91906109d3565b620186a06040518363ffffffff1660e01b81526004016104fe929190610aa7565b602060405180830381865af4158015610519573d5f803e3d5ffd5b505050506040513d601f19601f8201168201806040525081019061053d9190610852565b50565b5f8054906101000a900473ffffffffffffffffffffffffffffffffffffffff1673ffffffffffffffffffffffffffffffffffffffff1663c7a6c4546040518163ffffffff1660e01b81526004015f604051808303815f87803b1580156105a4575f80fd5b505af11580156105b6573d5f803e3d5ffd5b5050505073__$acbfb1c35000d78352310b16a054a6b106$__63abcd79605f8054906101000a900473ffffffffffffffffffffffffffffffffffffffff1673ffffffffffffffffffffffffffffffffffffffff1663c19d93fb6040518163ffffffff1660e01b8152600401602060405180830381865afa15801561063c573d5f803e3d5ffd5b505050506040513d601f19601f820116820180604052508101906106609190610719565b600281111561067257610671610744565b5b6001600281111561068657610685610744565b5b6040518363ffffffff1660e01b81526004016106a3929190610b2b565b602060405180830381865af41580156106be573d5f803e3d5ffd5b505050506040513d601f19601f820116820180604052508101906106e29190610852565b50565b610b4f80610b6683390190565b5f80fd5b60038110610702575f80fd5b50565b5f81519050610713816106f6565b92915050565b5f6020828403121561072e5761072d6106f2565b5b5f61073b84828501610705565b91505092915050565b7f4e487b71000000000000000000000000000000000000000000000000000000005f52602160045260245ffd5b5f819050919050565b61078381610771565b82525050565b5f82825260208201905092915050565b7f53746174652073686f756c642062652027496e616374697665270000000000005f82015250565b5f6107cd601a83610789565b91506107d882610799565b602082019050919050565b5f6060820190506107f65f83018561077a565b610803602083018461077a565b8181036040830152610814816107c1565b90509392505050565b5f8115159050919050565b6108318161081d565b811461083b575f80fd5b50565b5f8151905061084c81610828565b92915050565b5f60208284031215610867576108666106f2565b5b5f6108748482850161083e565b91505092915050565b5f819050919050565b5f819050919050565b5f6108a96108a461089f8461087d565b610886565b610771565b9050919050565b6108b98161088f565b82525050565b5f73ffffffffffffffffffffffffffffffffffffffff82169050919050565b5f6108e8826108bf565b9050919050565b6108f8816108de565b82525050565b5f6040820190506109115f8301856108b0565b61091e60208301846108ef565b9392505050565b7f53746174652073686f756c6420626520274372656174656427000000000000005f82015250565b5f610959601983610789565b915061096482610925565b602082019050919050565b5f6060820190506109825f83018561077a565b61098f602083018461077a565b81810360408301526109a08161094d565b90509392505050565b6109b281610771565b81146109bc575f80fd5b50565b5f815190506109cd816109a9565b92915050565b5f602082840312156109e8576109e76106f2565b5b5f6109f5848285016109bf565b91505092915050565b5f819050919050565b5f610a21610a1c610a17846109fe565b610886565b610771565b9050919050565b610a3181610a07565b82525050565b7f5472616e73616374696f6e2076616c75652073686f756c6420626520313030305f8201527f3030000000000000000000000000000000000000000000000000000000000000602082015250565b5f610a91602283610789565b9150610a9c82610a37565b604082019050919050565b5f606082019050610aba5f83018561077a565b610ac76020830184610a28565b8181036040830152610ad881610a85565b90509392505050565b7f53746174652073686f756c6420626520274c6f636b65642700000000000000005f82015250565b5f610b15601883610789565b9150610b2082610ae1565b602082019050919050565b5f606082019050610b3e5f83018561077a565b610b4b602083018461077a565b8181036040830152610b5c81610b09565b9050939250505056fe6080604052348015600e575f80fd5b50610b338061001c5f395ff3fe608060405260043610610085575f3560e01c8063b3ae1d2c11610058578063b3ae1d2c1461011d578063c19d93fb14610133578063c7a6c4541461015d578063e42bb8aa14610173578063ee7a3b8e1461018f57610085565b806308551a5314610089578063370c6001146100b35780633fa4f245146100c95780637150d8ae146100f3575b5f80fd5b348015610094575f80fd5b5061009d6101b9565b6040516100aa919061076f565b60405180910390f35b3480156100be575f80fd5b506100c76101de565b005b3480156100d4575f80fd5b506100dd610371565b6040516100ea91906107a0565b60405180910390f35b3480156100fe575f80fd5b50610107610377565b604051610114919061076f565b60405180910390f35b348015610128575f80fd5b5061013161039c565b005b34801561013e575f80fd5b50610147610532565b604051610154919061082c565b60405180910390f35b348015610168575f80fd5b50610171610542565b005b61018d6004803603810190610188919061089d565b610670565b005b34801561019a575f80fd5b506101a361072a565b6040516101b091906107a0565b60405180910390f35b60015f9054906101000a900473ffffffffffffffffffffffffffffffffffffffff1681565b5f8060028111156101f2576101f16107b9565b5b5f8054906101000a900460ff166002811115610211576102106107b9565b5b14610251576040517f08c379a000000000000000000000000000000000000000000000000000000000815260040161024890610935565b60405180910390fd5b5f60019054906101000a900473ffffffffffffffffffffffffffffffffffffffff1673ffffffffffffffffffffffffffffffffffffffff163373ffffffffffffffffffffffffffffffffffffffff16146102e0576040517f08c379a00000000000000000000000000000000000000000000000000000000081526004016102d7906109c3565b60405180910390fd5b5f60019054906101000a900473ffffffffffffffffffffffffffffffffffffffff1673ffffffffffffffffffffffffffffffffffffffff166108fc4790811502906040515f60405180830381858888f19350505050158015610344573d5f803e3d5ffd5b5060025f806101000a81548160ff02191690836002811115610369576103686107b9565b5b021790555050565b60025481565b5f60019054906101000a900473ffffffffffffffffffffffffffffffffffffffff1681565b60018060028111156103b1576103b06107b9565b5b5f8054906101000a900460ff1660028111156103d0576103cf6107b9565b5b14610410576040517f08c379a000000000000000000000000000000000000000000000000000000000815260040161040790610935565b60405180910390fd5b5f60019054906101000a900473ffffffffffffffffffffffffffffffffffffffff1673ffffffffffffffffffffffffffffffffffffffff163373ffffffffffffffffffffffffffffffffffffffff161461049f576040517f08c379a000000000000000000000000000000000000000000000000000000000815260040161049690610a51565b60405180910390fd5b60015f9054906101000a900473ffffffffffffffffffffffffffffffffffffffff1673ffffffffffffffffffffffffffffffffffffffff166108fc60025490811502906040515f60405180830381858888f19350505050158015610505573d5f803e3d5ffd5b5060025f806101000a81548160ff0219169083600281111561052a576105296107b9565b5b021790555050565b5f8054906101000a900460ff1681565b5f806002811115610556576105556107b9565b5b5f8054906101000a900460ff166002811115610575576105746107b9565b5b146105b5576040517f08c379a00000000000000000000000000000000000000000000000000000000081526004016105ac90610935565b60405180910390fd5b5f60019054906101000a900473ffffffffffffffffffffffffffffffffffffffff1673ffffffffffffffffffffffffffffffffffffffff163373ffffffffffffffffffffffffffffffffffffffff1614610644576040517f08c379a000000000000000000000000000000000000000000000000000000000815260040161063b90610adf565b60405180910390fd5b60015f806101000a81548160ff02191690836002811115610668576106676107b9565b5b021790555050565b335f60016101000a81548173ffffffffffffffffffffffffffffffffffffffff021916908373ffffffffffffffffffffffffffffffffffffffff1602179055508060015f6101000a81548173ffffffffffffffffffffffffffffffffffffffff021916908373ffffffffffffffffffffffffffffffffffffffff16021790555081600381905550346002819055505f805f6101000a81548160ff02191690836002811115610721576107206107b9565b5b02179055505050565b60035481565b5f73ffffffffffffffffffffffffffffffffffffffff82169050919050565b5f61075982610730565b9050919050565b6107698161074f565b82525050565b5f6020820190506107825f830184610760565b92915050565b5f819050919050565b61079a81610788565b82525050565b5f6020820190506107b35f830184610791565b92915050565b7f4e487b71000000000000000000000000000000000000000000000000000000005f52602160045260245ffd5b600381106107f7576107f66107b9565b5b50565b5f819050610807826107e6565b919050565b5f610816826107fa565b9050919050565b6108268161080c565b82525050565b5f60208201905061083f5f83018461081d565b92915050565b5f80fd5b61085281610788565b811461085c575f80fd5b50565b5f8135905061086d81610849565b92915050565b61087c8161074f565b8114610886575f80fd5b50565b5f8135905061089781610873565b92915050565b5f80604083850312156108b3576108b2610845565b5b5f6108c08582860161085f565b92505060206108d185828601610889565b9150509250929050565b5f82825260208201905092915050565b7f496e76616c69642073746174652e0000000000000000000000000000000000005f82015250565b5f61091f600e836108db565b915061092a826108eb565b602082019050919050565b5f6020820190508181035f83015261094c81610913565b9050919050565b7f4f6e6c792062757965722063616e2061626f727420746865207472616e7361635f8201527f74696f6e2e000000000000000000000000000000000000000000000000000000602082015250565b5f6109ad6025836108db565b91506109b882610953565b604082019050919050565b5f6020820190508181035f8301526109da816109a1565b9050919050565b7f4f6e6c792062757965722063616e20636f6d706c65746520746865207472616e5f8201527f73616374696f6e2e000000000000000000000000000000000000000000000000602082015250565b5f610a3b6028836108db565b9150610a46826109e1565b604082019050919050565b5f6020820190508181035f830152610a6881610a2f565b9050919050565b7f4f6e6c792062757965722063616e20636f6e6669726d20746865207472616e735f8201527f616374696f6e2e00000000000000000000000000000000000000000000000000602082015250565b5f610ac96027836108db565b9150610ad482610a6f565b604082019050919050565b5f6020820190508181035f830152610af681610abd565b905091905056fea2646970667358221220e704fbed37a725db7f629c97ba1e3b9325a33d0befbc65c1c30cb40741d5a9bd64736f6c63430008190033a2646970667358221220dd8c35377d3541688f1c3e92a9c9d5991a0ca92758d78d325b2551e328ed340c64736f6c63430008190033",
			"opcodes": "PUSH1 0x80 PUSH1 0x40 MSTORE CALLVALUE DUP1 ISZERO PUSH1 0xE JUMPI PUSH0 DUP1 REVERT JUMPDEST POP PUSH2 0x16EA DUP1 PUSH2 0x1C PUSH0 CODECOPY PUSH0 RETURN INVALID PUSH1 0x80 PUSH1 0x40 MSTORE CALLVALUE DUP1 ISZERO PUSH2 0xF JUMPI PUSH0 DUP1 REVERT JUMPDEST POP PUSH1 0x4 CALLDATASIZE LT PUSH2 0x4A JUMPI PUSH0 CALLDATALOAD PUSH1 0xE0 SHR DUP1 PUSH4 0x1A94C7EC EQ PUSH2 0x4E JUMPI DUP1 PUSH4 0x7FEA0D4B EQ PUSH2 0x58 JUMPI DUP1 PUSH4 0xB2F26D43 EQ PUSH2 0x62 JUMPI DUP1 PUSH4 0xB4685BAD EQ PUSH2 0x6C JUMPI JUMPDEST PUSH0 DUP1 REVERT JUMPDEST PUSH2 0x56 PUSH2 0x76 JUMP JUMPDEST STOP JUMPDEST PUSH2 0x60 PUSH2 0x21A JUMP JUMPDEST STOP JUMPDEST PUSH2 0x6A PUSH2 0x280 JUMP JUMPDEST STOP JUMPDEST PUSH2 0x74 PUSH2 0x540 JUMP JUMPDEST STOP JUMPDEST PUSH0 DUP1 SLOAD SWAP1 PUSH2 0x100 EXP SWAP1 DIV PUSH20 0xFFFFFFFFFFFFFFFFFFFFFFFFFFFFFFFFFFFFFFFF AND PUSH20 0xFFFFFFFFFFFFFFFFFFFFFFFFFFFFFFFFFFFFFFFF AND PUSH4 0xB3AE1D2C PUSH1 0x40 MLOAD DUP2 PUSH4 0xFFFFFFFF AND PUSH1 0xE0 SHL DUP2 MSTORE PUSH1 0x4 ADD PUSH0 PUSH1 0x40 MLOAD DUP1 DUP4 SUB DUP2 PUSH0 DUP8 DUP1 EXTCODESIZE ISZERO DUP1 ISZERO PUSH2 0xDA JUMPI PUSH0 DUP1 REVERT JUMPDEST POP GAS CALL ISZERO DUP1 ISZERO PUSH2 0xEC JUMPI RETURNDATASIZE PUSH0 DUP1 RETURNDATACOPY RETURNDATASIZE PUSH0 REVERT JUMPDEST POP POP POP POP PUSH20 0x0 PUSH4 0xABCD7960 PUSH0 DUP1 SLOAD SWAP1 PUSH2 0x100 EXP SWAP1 DIV PUSH20 0xFFFFFFFFFFFFFFFFFFFFFFFFFFFFFFFFFFFFFFFF AND PUSH20 0xFFFFFFFFFFFFFFFFFFFFFFFFFFFFFFFFFFFFFFFF AND PUSH4 0xC19D93FB PUSH1 0x40 MLOAD DUP2 PUSH4 0xFFFFFFFF AND PUSH1 0xE0 SHL DUP2 MSTORE PUSH1 0x4 ADD PUSH1 0x20 PUSH1 0x40 MLOAD DUP1 DUP4 SUB DUP2 DUP7 GAS STATICCALL ISZERO DUP1 ISZERO PUSH2 0x172 JUMPI RETURNDATASIZE PUSH0 DUP1 RETURNDATACOPY RETURNDATASIZE PUSH0 REVERT JUMPDEST POP POP POP POP PUSH1 0x40 MLOAD RETURNDATASIZE PUSH1 0x1F NOT PUSH1 0x1F DUP3 ADD AND DUP3 ADD DUP1 PUSH1 0x40 MSTORE POP DUP2 ADD SWAP1 PUSH2 0x196 SWAP2 SWAP1 PUSH2 0x719 JUMP JUMPDEST PUSH1 0x2 DUP2 GT ISZERO PUSH2 0x1A8 JUMPI PUSH2 0x1A7 PUSH2 0x744 JUMP JUMPDEST JUMPDEST PUSH1 0x2 DUP1 DUP2 GT ISZERO PUSH2 0x1BB JUMPI PUSH2 0x1BA PUSH2 0x744 JUMP JUMPDEST JUMPDEST PUSH1 0x40 MLOAD DUP4 PUSH4 0xFFFFFFFF AND PUSH1 0xE0 SHL DUP2 MSTORE PUSH1 0x4 ADD PUSH2 0x1D8 SWAP3 SWAP2 SWAP1 PUSH2 0x7E3 JUMP JUMPDEST PUSH1 0x20 PUSH1 0x40 MLOAD DUP1 DUP4 SUB DUP2 DUP7 GAS DELEGATECALL ISZERO DUP1 ISZERO PUSH2 0x1F3 JUMPI RETURNDATASIZE PUSH0 DUP1 RETURNDATACOPY RETURNDATASIZE PUSH0 REVERT JUMPDEST POP POP POP POP PUSH1 0x40 MLOAD RETURNDATASIZE PUSH1 0x1F NOT PUSH1 0x1F DUP3 ADD AND DUP3 ADD DUP1 PUSH1 0x40 MSTORE POP DUP2 ADD SWAP1 PUSH2 0x217 SWAP2 SWAP1 PUSH2 0x852 JUMP JUMPDEST POP JUMP JUMPDEST PUSH1 0x40 MLOAD PUSH2 0x226 SWAP1 PUSH2 0x6E5 JUMP JUMPDEST PUSH1 0x40 MLOAD DUP1 SWAP2 SUB SWAP1 PUSH0 CREATE DUP1 ISZERO DUP1 ISZERO PUSH2 0x23F JUMPI RETURNDATASIZE PUSH0 DUP1 RETURNDATACOPY RETURNDATASIZE PUSH0 REVERT JUMPDEST POP PUSH0 DUP1 PUSH2 0x100 EXP DUP2 SLOAD DUP2 PUSH20 0xFFFFFFFFFFFFFFFFFFFFFFFFFFFFFFFFFFFFFFFF MUL NOT AND SWAP1 DUP4 PUSH20 0xFFFFFFFFFFFFFFFFFFFFFFFFFFFFFFFFFFFFFFFF AND MUL OR SWAP1 SSTORE POP JUMP JUMPDEST PUSH0 DUP1 SLOAD SWAP1 PUSH2 0x100 EXP SWAP1 DIV PUSH20 0xFFFFFFFFFFFFFFFFFFFFFFFFFFFFFFFFFFFFFFFF AND PUSH20 0xFFFFFFFFFFFFFFFFFFFFFFFFFFFFFFFFFFFFFFFF AND PUSH4 0xE42BB8AA PUSH3 0x186A0 PUSH1 0x1 PUSH2 0x123 PUSH1 0x40 MLOAD DUP5 PUSH4 0xFFFFFFFF AND PUSH1 0xE0 SHL DUP2 MSTORE PUSH1 0x4 ADD PUSH2 0x2E1 SWAP3 SWAP2 SWAP1 PUSH2 0x8FE JUMP JUMPDEST PUSH0 PUSH1 0x40 MLOAD DUP1 DUP4 SUB DUP2 DUP6 DUP9 DUP1 EXTCODESIZE ISZERO DUP1 ISZERO PUSH2 0x2F8 JUMPI PUSH0 DUP1 REVERT JUMPDEST POP GAS CALL ISZERO DUP1 ISZERO PUSH2 0x30A JUMPI RETURNDATASIZE PUSH0 DUP1 RETURNDATACOPY RETURNDATASIZE PUSH0 REVERT JUMPDEST POP POP POP POP POP PUSH20 0x0 PUSH4 0xABCD7960 PUSH0 DUP1 SLOAD SWAP1 PUSH2 0x100 EXP SWAP1 DIV PUSH20 0xFFFFFFFFFFFFFFFFFFFFFFFFFFFFFFFFFFFFFFFF AND PUSH20 0xFFFFFFFFFFFFFFFFFFFFFFFFFFFFFFFFFFFFFFFF AND PUSH4 0xC19D93FB PUSH1 0x40 MLOAD DUP2 PUSH4 0xFFFFFFFF AND PUSH1 0xE0 SHL DUP2 MSTORE PUSH1 0x4 ADD PUSH1 0x20 PUSH1 0x40 MLOAD DUP1 DUP4 SUB DUP2 DUP7 GAS STATICCALL ISZERO DUP1 ISZERO PUSH2 0x391 JUMPI RETURNDATASIZE PUSH0 DUP1 RETURNDATACOPY RETURNDATASIZE PUSH0 REVERT JUMPDEST POP POP POP POP PUSH1 0x40 MLOAD RETURNDATASIZE PUSH1 0x1F NOT PUSH1 0x1F DUP3 ADD AND DUP3 ADD DUP1 PUSH1 0x40 MSTORE POP DUP2 ADD SWAP1 PUSH2 0x3B5 SWAP2 SWAP1 PUSH2 0x719 JUMP JUMPDEST PUSH1 0x2 DUP2 GT ISZERO PUSH2 0x3C7 JUMPI PUSH2 0x3C6 PUSH2 0x744 JUMP JUMPDEST JUMPDEST PUSH0 PUSH1 0x2 DUP2 GT ISZERO PUSH2 0x3DA JUMPI PUSH2 0x3D9 PUSH2 0x744 JUMP JUMPDEST JUMPDEST PUSH1 0x40 MLOAD DUP4 PUSH4 0xFFFFFFFF AND PUSH1 0xE0 SHL DUP2 MSTORE PUSH1 0x4 ADD PUSH2 0x3F7 SWAP3 SWAP2 SWAP1 PUSH2 0x96F JUMP JUMPDEST PUSH1 0x20 PUSH1 0x40 MLOAD DUP1 DUP4 SUB DUP2 DUP7 GAS DELEGATECALL ISZERO DUP1 ISZERO PUSH2 0x412 JUMPI RETURNDATASIZE PUSH0 DUP1 RETURNDATACOPY RETURNDATASIZE PUSH0 REVERT JUMPDEST POP POP POP POP PUSH1 0x40 MLOAD RETURNDATASIZE PUSH1 0x1F NOT PUSH1 0x1F DUP3 ADD AND DUP3 ADD DUP1 PUSH1 0x40 MSTORE POP DUP2 ADD SWAP1 PUSH2 0x436 SWAP2 SWAP1 PUSH2 0x852 JUMP JUMPDEST POP PUSH20 0x0 PUSH4 0xABCD7960 PUSH0 DUP1 SLOAD SWAP1 PUSH2 0x100 EXP SWAP1 DIV PUSH20 0xFFFFFFFFFFFFFFFFFFFFFFFFFFFFFFFFFFFFFFFF AND PUSH20 0xFFFFFFFFFFFFFFFFFFFFFFFFFFFFFFFFFFFFFFFF AND PUSH4 0x3FA4F245 PUSH1 0x40 MLOAD DUP2 PUSH4 0xFFFFFFFF AND PUSH1 0xE0 SHL DUP2 MSTORE PUSH1 0x4 ADD PUSH1 0x20 PUSH1 0x40 MLOAD DUP1 DUP4 SUB DUP2 DUP7 GAS STATICCALL ISZERO DUP1 ISZERO PUSH2 0x4B9 JUMPI RETURNDATASIZE PUSH0 DUP1 RETURNDATACOPY RETURNDATASIZE PUSH0 REVERT JUMPDEST POP POP POP POP PUSH1 0x40 MLOAD RETURNDATASIZE PUSH1 0x1F NOT PUSH1 0x1F DUP3 ADD AND DUP3 ADD DUP1 PUSH1 0x40 MSTORE POP DUP2 ADD SWAP1 PUSH2 0x4DD SWAP2 SWAP1 PUSH2 0x9D3 JUMP JUMPDEST PUSH3 0x186A0 PUSH1 0x40 MLOAD DUP4 PUSH4 0xFFFFFFFF AND PUSH1 0xE0 SHL DUP2 MSTORE PUSH1 0x4 ADD PUSH2 0x4FE SWAP3 SWAP2 SWAP1 PUSH2 0xAA7 JUMP JUMPDEST PUSH1 0x20 PUSH1 0x40 MLOAD DUP1 DUP4 SUB DUP2 DUP7 GAS DELEGATECALL ISZERO DUP1 ISZERO PUSH2 0x519 JUMPI RETURNDATASIZE PUSH0 DUP1 RETURNDATACOPY RETURNDATASIZE PUSH0 REVERT JUMPDEST POP POP POP POP PUSH1 0x40 MLOAD RETURNDATASIZE PUSH1 0x1F NOT PUSH1 0x1F DUP3 ADD AND DUP3 ADD DUP1 PUSH1 0x40 MSTORE POP DUP2 ADD SWAP1 PUSH2 0x53D SWAP2 SWAP1 PUSH2 0x852 JUMP JUMPDEST POP JUMP JUMPDEST PUSH0 DUP1 SLOAD SWAP1 PUSH2 0x100 EXP SWAP1 DIV PUSH20 0xFFFFFFFFFFFFFFFFFFFFFFFFFFFFFFFFFFFFFFFF AND PUSH20 0xFFFFFFFFFFFFFFFFFFFFFFFFFFFFFFFFFFFFFFFF AND PUSH4 0xC7A6C454 PUSH1 0x40 MLOAD DUP2 PUSH4 0xFFFFFFFF AND PUSH1 0xE0 SHL DUP2 MSTORE PUSH1 0x4 ADD PUSH0 PUSH1 0x40 MLOAD DUP1 DUP4 SUB DUP2 PUSH0 DUP8 DUP1 EXTCODESIZE ISZERO DUP1 ISZERO PUSH2 0x5A4 JUMPI PUSH0 DUP1 REVERT JUMPDEST POP GAS CALL ISZERO DUP1 ISZERO PUSH2 0x5B6 JUMPI RETURNDATASIZE PUSH0 DUP1 RETURNDATACOPY RETURNDATASIZE PUSH0 REVERT JUMPDEST POP POP POP POP PUSH20 0x0 PUSH4 0xABCD7960 PUSH0 DUP1 SLOAD SWAP1 PUSH2 0x100 EXP SWAP1 DIV PUSH20 0xFFFFFFFFFFFFFFFFFFFFFFFFFFFFFFFFFFFFFFFF AND PUSH20 0xFFFFFFFFFFFFFFFFFFFFFFFFFFFFFFFFFFFFFFFF AND PUSH4 0xC19D93FB PUSH1 0x40 MLOAD DUP2 PUSH4 0xFFFFFFFF AND PUSH1 0xE0 SHL DUP2 MSTORE PUSH1 0x4 ADD PUSH1 0x20 PUSH1 0x40 MLOAD DUP1 DUP4 SUB DUP2 DUP7 GAS STATICCALL ISZERO DUP1 ISZERO PUSH2 0x63C JUMPI RETURNDATASIZE PUSH0 DUP1 RETURNDATACOPY RETURNDATASIZE PUSH0 REVERT JUMPDEST POP POP POP POP PUSH1 0x40 MLOAD RETURNDATASIZE PUSH1 0x1F NOT PUSH1 0x1F DUP3 ADD AND DUP3 ADD DUP1 PUSH1 0x40 MSTORE POP DUP2 ADD SWAP1 PUSH2 0x660 SWAP2 SWAP1 PUSH2 0x719 JUMP JUMPDEST PUSH1 0x2 DUP2 GT ISZERO PUSH2 0x672 JUMPI PUSH2 0x671 PUSH2 0x744 JUMP JUMPDEST JUMPDEST PUSH1 0x1 PUSH1 0x2 DUP2 GT ISZERO PUSH2 0x686 JUMPI PUSH2 0x685 PUSH2 0x744 JUMP JUMPDEST JUMPDEST PUSH1 0x40 MLOAD DUP4 PUSH4 0xFFFFFFFF AND PUSH1 0xE0 SHL DUP2 MSTORE PUSH1 0x4 ADD PUSH2 0x6A3 SWAP3 SWAP2 SWAP1 PUSH2 0xB2B JUMP JUMPDEST PUSH1 0x20 PUSH1 0x40 MLOAD DUP1 DUP4 SUB DUP2 DUP7 GAS DELEGATECALL ISZERO DUP1 ISZERO PUSH2 0x6BE JUMPI RETURNDATASIZE PUSH0 DUP1 RETURNDATACOPY RETURNDATASIZE PUSH0 REVERT JUMPDEST POP POP POP POP PUSH1 0x40 MLOAD RETURNDATASIZE PUSH1 0x1F NOT PUSH1 0x1F DUP3 ADD AND DUP3 ADD DUP1 PUSH1 0x40 MSTORE POP DUP2 ADD SWAP1 PUSH2 0x6E2 SWAP2 SWAP1 PUSH2 0x852 JUMP JUMPDEST POP JUMP JUMPDEST PUSH2 0xB4F DUP1 PUSH2 0xB66 DUP4 CODECOPY ADD SWAP1 JUMP JUMPDEST PUSH0 DUP1 REVERT JUMPDEST PUSH1 0x3 DUP2 LT PUSH2 0x702 JUMPI PUSH0 DUP1 REVERT JUMPDEST POP JUMP JUMPDEST PUSH0 DUP2 MLOAD SWAP1 POP PUSH2 0x713 DUP2 PUSH2 0x6F6 JUMP JUMPDEST SWAP3 SWAP2 POP POP JUMP JUMPDEST PUSH0 PUSH1 0x20 DUP3 DUP5 SUB SLT ISZERO PUSH2 0x72E JUMPI PUSH2 0x72D PUSH2 0x6F2 JUMP JUMPDEST JUMPDEST PUSH0 PUSH2 0x73B DUP5 DUP3 DUP6 ADD PUSH2 0x705 JUMP JUMPDEST SWAP2 POP POP SWAP3 SWAP2 POP POP JUMP JUMPDEST PUSH32 0x4E487B7100000000000000000000000000000000000000000000000000000000 PUSH0 MSTORE PUSH1 0x21 PUSH1 0x4 MSTORE PUSH1 0x24 PUSH0 REVERT JUMPDEST PUSH0 DUP2 SWAP1 POP SWAP2 SWAP1 POP JUMP JUMPDEST PUSH2 0x783 DUP2 PUSH2 0x771 JUMP JUMPDEST DUP3 MSTORE POP POP JUMP JUMPDEST PUSH0 DUP3 DUP3 MSTORE PUSH1 0x20 DUP3 ADD SWAP1 POP SWAP3 SWAP2 POP POP JUMP JUMPDEST PUSH32 0x53746174652073686F756C642062652027496E61637469766527000000000000 PUSH0 DUP3 ADD MSTORE POP JUMP JUMPDEST PUSH0 PUSH2 0x7CD PUSH1 0x1A DUP4 PUSH2 0x789 JUMP JUMPDEST SWAP2 POP PUSH2 0x7D8 DUP3 PUSH2 0x799 JUMP JUMPDEST PUSH1 0x20 DUP3 ADD SWAP1 POP SWAP2 SWAP1 POP JUMP JUMPDEST PUSH0 PUSH1 0x60 DUP3 ADD SWAP1 POP PUSH2 0x7F6 PUSH0 DUP4 ADD DUP6 PUSH2 0x77A JUMP JUMPDEST PUSH2 0x803 PUSH1 0x20 DUP4 ADD DUP5 PUSH2 0x77A JUMP JUMPDEST DUP2 DUP2 SUB PUSH1 0x40 DUP4 ADD MSTORE PUSH2 0x814 DUP2 PUSH2 0x7C1 JUMP JUMPDEST SWAP1 POP SWAP4 SWAP3 POP POP POP JUMP JUMPDEST PUSH0 DUP2 ISZERO ISZERO SWAP1 POP SWAP2 SWAP1 POP JUMP JUMPDEST PUSH2 0x831 DUP2 PUSH2 0x81D JUMP JUMPDEST DUP2 EQ PUSH2 0x83B JUMPI PUSH0 DUP1 REVERT JUMPDEST POP JUMP JUMPDEST PUSH0 DUP2 MLOAD SWAP1 POP PUSH2 0x84C DUP2 PUSH2 0x828 JUMP JUMPDEST SWAP3 SWAP2 POP POP JUMP JUMPDEST PUSH0 PUSH1 0x20 DUP3 DUP5 SUB SLT ISZERO PUSH2 0x867 JUMPI PUSH2 0x866 PUSH2 0x6F2 JUMP JUMPDEST JUMPDEST PUSH0 PUSH2 0x874 DUP5 DUP3 DUP6 ADD PUSH2 0x83E JUMP JUMPDEST SWAP2 POP POP SWAP3 SWAP2 POP POP JUMP JUMPDEST PUSH0 DUP2 SWAP1 POP SWAP2 SWAP1 POP JUMP JUMPDEST PUSH0 DUP2 SWAP1 POP SWAP2 SWAP1 POP JUMP JUMPDEST PUSH0 PUSH2 0x8A9 PUSH2 0x8A4 PUSH2 0x89F DUP5 PUSH2 0x87D JUMP JUMPDEST PUSH2 0x886 JUMP JUMPDEST PUSH2 0x771 JUMP JUMPDEST SWAP1 POP SWAP2 SWAP1 POP JUMP JUMPDEST PUSH2 0x8B9 DUP2 PUSH2 0x88F JUMP JUMPDEST DUP3 MSTORE POP POP JUMP JUMPDEST PUSH0 PUSH20 0xFFFFFFFFFFFFFFFFFFFFFFFFFFFFFFFFFFFFFFFF DUP3 AND SWAP1 POP SWAP2 SWAP1 POP JUMP JUMPDEST PUSH0 PUSH2 0x8E8 DUP3 PUSH2 0x8BF JUMP JUMPDEST SWAP1 POP SWAP2 SWAP1 POP JUMP JUMPDEST PUSH2 0x8F8 DUP2 PUSH2 0x8DE JUMP JUMPDEST DUP3 MSTORE POP POP JUMP JUMPDEST PUSH0 PUSH1 0x40 DUP3 ADD SWAP1 POP PUSH2 0x911 PUSH0 DUP4 ADD DUP6 PUSH2 0x8B0 JUMP JUMPDEST PUSH2 0x91E PUSH1 0x20 DUP4 ADD DUP5 PUSH2 0x8EF JUMP JUMPDEST SWAP4 SWAP3 POP POP POP JUMP JUMPDEST PUSH32 0x53746174652073686F756C642062652027437265617465642700000000000000 PUSH0 DUP3 ADD MSTORE POP JUMP JUMPDEST PUSH0 PUSH2 0x959 PUSH1 0x19 DUP4 PUSH2 0x789 JUMP JUMPDEST SWAP2 POP PUSH2 0x964 DUP3 PUSH2 0x925 JUMP JUMPDEST PUSH1 0x20 DUP3 ADD SWAP1 POP SWAP2 SWAP1 POP JUMP JUMPDEST PUSH0 PUSH1 0x60 DUP3 ADD SWAP1 POP PUSH2 0x982 PUSH0 DUP4 ADD DUP6 PUSH2 0x77A JUMP JUMPDEST PUSH2 0x98F PUSH1 0x20 DUP4 ADD DUP5 PUSH2 0x77A JUMP JUMPDEST DUP2 DUP2 SUB PUSH1 0x40 DUP4 ADD MSTORE PUSH2 0x9A0 DUP2 PUSH2 0x94D JUMP JUMPDEST SWAP1 POP SWAP4 SWAP3 POP POP POP JUMP JUMPDEST PUSH2 0x9B2 DUP2 PUSH2 0x771 JUMP JUMPDEST DUP2 EQ PUSH2 0x9BC JUMPI PUSH0 DUP1 REVERT JUMPDEST POP JUMP JUMPDEST PUSH0 DUP2 MLOAD SWAP1 POP PUSH2 0x9CD DUP2 PUSH2 0x9A9 JUMP JUMPDEST SWAP3 SWAP2 POP POP JUMP JUMPDEST PUSH0 PUSH1 0x20 DUP3 DUP5 SUB SLT ISZERO PUSH2 0x9E8 JUMPI PUSH2 0x9E7 PUSH2 0x6F2 JUMP JUMPDEST JUMPDEST PUSH0 PUSH2 0x9F5 DUP5 DUP3 DUP6 ADD PUSH2 0x9BF JUMP JUMPDEST SWAP2 POP POP SWAP3 SWAP2 POP POP JUMP JUMPDEST PUSH0 DUP2 SWAP1 POP SWAP2 SWAP1 POP JUMP JUMPDEST PUSH0 PUSH2 0xA21 PUSH2 0xA1C PUSH2 0xA17 DUP5 PUSH2 0x9FE JUMP JUMPDEST PUSH2 0x886 JUMP JUMPDEST PUSH2 0x771 JUMP JUMPDEST SWAP1 POP SWAP2 SWAP1 POP JUMP JUMPDEST PUSH2 0xA31 DUP2 PUSH2 0xA07 JUMP JUMPDEST DUP3 MSTORE POP POP JUMP JUMPDEST PUSH32 0x5472616E73616374696F6E2076616C75652073686F756C642062652031303030 PUSH0 DUP3 ADD MSTORE PUSH32 0x3030000000000000000000000000000000000000000000000000000000000000 PUSH1 0x20 DUP3 ADD MSTORE POP JUMP JUMPDEST PUSH0 PUSH2 0xA91 PUSH1 0x22 DUP4 PUSH2 0x789 JUMP JUMPDEST SWAP2 POP PUSH2 0xA9C DUP3 PUSH2 0xA37 JUMP JUMPDEST PUSH1 0x40 DUP3 ADD SWAP1 POP SWAP2 SWAP1 POP JUMP JUMPDEST PUSH0 PUSH1 0x60 DUP3 ADD SWAP1 POP PUSH2 0xABA PUSH0 DUP4 ADD DUP6 PUSH2 0x77A JUMP JUMPDEST PUSH2 0xAC7 PUSH1 0x20 DUP4 ADD DUP5 PUSH2 0xA28 JUMP JUMPDEST DUP2 DUP2 SUB PUSH1 0x40 DUP4 ADD MSTORE PUSH2 0xAD8 DUP2 PUSH2 0xA85 JUMP JUMPDEST SWAP1 POP SWAP4 SWAP3 POP POP POP JUMP JUMPDEST PUSH32 0x53746174652073686F756C6420626520274C6F636B6564270000000000000000 PUSH0 DUP3 ADD MSTORE POP JUMP JUMPDEST PUSH0 PUSH2 0xB15 PUSH1 0x18 DUP4 PUSH2 0x789 JUMP JUMPDEST SWAP2 POP PUSH2 0xB20 DUP3 PUSH2 0xAE1 JUMP JUMPDEST PUSH1 0x20 DUP3 ADD SWAP1 POP SWAP2 SWAP1 POP JUMP JUMPDEST PUSH0 PUSH1 0x60 DUP3 ADD SWAP1 POP PUSH2 0xB3E PUSH0 DUP4 ADD DUP6 PUSH2 0x77A JUMP JUMPDEST PUSH2 0xB4B PUSH1 0x20 DUP4 ADD DUP5 PUSH2 0x77A JUMP JUMPDEST DUP2 DUP2 SUB PUSH1 0x40 DUP4 ADD MSTORE PUSH2 0xB5C DUP2 PUSH2 0xB09 JUMP JUMPDEST SWAP1 POP SWAP4 SWAP3 POP POP POP JUMP INVALID PUSH1 0x80 PUSH1 0x40 MSTORE CALLVALUE DUP1 ISZERO PUSH1 0xE JUMPI PUSH0 DUP1 REVERT JUMPDEST POP PUSH2 0xB33 DUP1 PUSH2 0x1C PUSH0 CODECOPY PUSH0 RETURN INVALID PUSH1 0x80 PUSH1 0x40 MSTORE PUSH1 0x4 CALLDATASIZE LT PUSH2 0x85 JUMPI PUSH0 CALLDATALOAD PUSH1 0xE0 SHR DUP1 PUSH4 0xB3AE1D2C GT PUSH2 0x58 JUMPI DUP1 PUSH4 0xB3AE1D2C EQ PUSH2 0x11D JUMPI DUP1 PUSH4 0xC19D93FB EQ PUSH2 0x133 JUMPI DUP1 PUSH4 0xC7A6C454 EQ PUSH2 0x15D JUMPI DUP1 PUSH4 0xE42BB8AA EQ PUSH2 0x173 JUMPI DUP1 PUSH4 0xEE7A3B8E EQ PUSH2 0x18F JUMPI PUSH2 0x85 JUMP JUMPDEST DUP1 PUSH4 0x8551A53 EQ PUSH2 0x89 JUMPI DUP1 PUSH4 0x370C6001 EQ PUSH2 0xB3 JUMPI DUP1 PUSH4 0x3FA4F245 EQ PUSH2 0xC9 JUMPI DUP1 PUSH4 0x7150D8AE EQ PUSH2 0xF3 JUMPI JUMPDEST PUSH0 DUP1 REVERT JUMPDEST CALLVALUE DUP1 ISZERO PUSH2 0x94 JUMPI PUSH0 DUP1 REVERT JUMPDEST POP PUSH2 0x9D PUSH2 0x1B9 JUMP JUMPDEST PUSH1 0x40 MLOAD PUSH2 0xAA SWAP2 SWAP1 PUSH2 0x76F JUMP JUMPDEST PUSH1 0x40 MLOAD DUP1 SWAP2 SUB SWAP1 RETURN JUMPDEST CALLVALUE DUP1 ISZERO PUSH2 0xBE JUMPI PUSH0 DUP1 REVERT JUMPDEST POP PUSH2 0xC7 PUSH2 0x1DE JUMP JUMPDEST STOP JUMPDEST CALLVALUE DUP1 ISZERO PUSH2 0xD4 JUMPI PUSH0 DUP1 REVERT JUMPDEST POP PUSH2 0xDD PUSH2 0x371 JUMP JUMPDEST PUSH1 0x40 MLOAD PUSH2 0xEA SWAP2 SWAP1 PUSH2 0x7A0 JUMP JUMPDEST PUSH1 0x40 MLOAD DUP1 SWAP2 SUB SWAP1 RETURN JUMPDEST CALLVALUE DUP1 ISZERO PUSH2 0xFE JUMPI PUSH0 DUP1 REVERT JUMPDEST POP PUSH2 0x107 PUSH2 0x377 JUMP JUMPDEST PUSH1 0x40 MLOAD PUSH2 0x114 SWAP2 SWAP1 PUSH2 0x76F JUMP JUMPDEST PUSH1 0x40 MLOAD DUP1 SWAP2 SUB SWAP1 RETURN JUMPDEST CALLVALUE DUP1 ISZERO PUSH2 0x128 JUMPI PUSH0 DUP1 REVERT JUMPDEST POP PUSH2 0x131 PUSH2 0x39C JUMP JUMPDEST STOP JUMPDEST CALLVALUE DUP1 ISZERO PUSH2 0x13E JUMPI PUSH0 DUP1 REVERT JUMPDEST POP PUSH2 0x147 PUSH2 0x532 JUMP JUMPDEST PUSH1 0x40 MLOAD PUSH2 0x154 SWAP2 SWAP1 PUSH2 0x82C JUMP JUMPDEST PUSH1 0x40 MLOAD DUP1 SWAP2 SUB SWAP1 RETURN JUMPDEST CALLVALUE DUP1 ISZERO PUSH2 0x168 JUMPI PUSH0 DUP1 REVERT JUMPDEST POP PUSH2 0x171 PUSH2 0x542 JUMP JUMPDEST STOP JUMPDEST PUSH2 0x18D PUSH1 0x4 DUP1 CALLDATASIZE SUB DUP2 ADD SWAP1 PUSH2 0x188 SWAP2 SWAP1 PUSH2 0x89D JUMP JUMPDEST PUSH2 0x670 JUMP JUMPDEST STOP JUMPDEST CALLVALUE DUP1 ISZERO PUSH2 0x19A JUMPI PUSH0 DUP1 REVERT JUMPDEST POP PUSH2 0x1A3 PUSH2 0x72A JUMP JUMPDEST PUSH1 0x40 MLOAD PUSH2 0x1B0 SWAP2 SWAP1 PUSH2 0x7A0 JUMP JUMPDEST PUSH1 0x40 MLOAD DUP1 SWAP2 SUB SWAP1 RETURN JUMPDEST PUSH1 0x1 PUSH0 SWAP1 SLOAD SWAP1 PUSH2 0x100 EXP SWAP1 DIV PUSH20 0xFFFFFFFFFFFFFFFFFFFFFFFFFFFFFFFFFFFFFFFF AND DUP2 JUMP JUMPDEST PUSH0 DUP1 PUSH1 0x2 DUP2 GT ISZERO PUSH2 0x1F2 JUMPI PUSH2 0x1F1 PUSH2 0x7B9 JUMP JUMPDEST JUMPDEST PUSH0 DUP1 SLOAD SWAP1 PUSH2 0x100 EXP SWAP1 DIV PUSH1 0xFF AND PUSH1 0x2 DUP2 GT ISZERO PUSH2 0x211 JUMPI PUSH2 0x210 PUSH2 0x7B9 JUMP JUMPDEST JUMPDEST EQ PUSH2 0x251 JUMPI PUSH1 0x40 MLOAD PUSH32 0x8C379A000000000000000000000000000000000000000000000000000000000 DUP2 MSTORE PUSH1 0x4 ADD PUSH2 0x248 SWAP1 PUSH2 0x935 JUMP JUMPDEST PUSH1 0x40 MLOAD DUP1 SWAP2 SUB SWAP1 REVERT JUMPDEST PUSH0 PUSH1 0x1 SWAP1 SLOAD SWAP1 PUSH2 0x100 EXP SWAP1 DIV PUSH20 0xFFFFFFFFFFFFFFFFFFFFFFFFFFFFFFFFFFFFFFFF AND PUSH20 0xFFFFFFFFFFFFFFFFFFFFFFFFFFFFFFFFFFFFFFFF AND CALLER PUSH20 0xFFFFFFFFFFFFFFFFFFFFFFFFFFFFFFFFFFFFFFFF AND EQ PUSH2 0x2E0 JUMPI PUSH1 0x40 MLOAD PUSH32 0x8C379A000000000000000000000000000000000000000000000000000000000 DUP2 MSTORE PUSH1 0x4 ADD PUSH2 0x2D7 SWAP1 PUSH2 0x9C3 JUMP JUMPDEST PUSH1 0x40 MLOAD DUP1 SWAP2 SUB SWAP1 REVERT JUMPDEST PUSH0 PUSH1 0x1 SWAP1 SLOAD SWAP1 PUSH2 0x100 EXP SWAP1 DIV PUSH20 0xFFFFFFFFFFFFFFFFFFFFFFFFFFFFFFFFFFFFFFFF AND PUSH20 0xFFFFFFFFFFFFFFFFFFFFFFFFFFFFFFFFFFFFFFFF AND PUSH2 0x8FC SELFBALANCE SWAP1 DUP2 ISZERO MUL SWAP1 PUSH1 0x40 MLOAD PUSH0 PUSH1 0x40 MLOAD DUP1 DUP4 SUB DUP2 DUP6 DUP9 DUP9 CALL SWAP4 POP POP POP POP ISZERO DUP1 ISZERO PUSH2 0x344 JUMPI RETURNDATASIZE PUSH0 DUP1 RETURNDATACOPY RETURNDATASIZE PUSH0 REVERT JUMPDEST POP PUSH1 0x2 PUSH0 DUP1 PUSH2 0x100 EXP DUP2 SLOAD DUP2 PUSH1 0xFF MUL NOT AND SWAP1 DUP4 PUSH1 0x2 DUP2 GT ISZERO PUSH2 0x369 JUMPI PUSH2 0x368 PUSH2 0x7B9 JUMP JUMPDEST JUMPDEST MUL OR SWAP1 SSTORE POP POP JUMP JUMPDEST PUSH1 0x2 SLOAD DUP2 JUMP JUMPDEST PUSH0 PUSH1 0x1 SWAP1 SLOAD SWAP1 PUSH2 0x100 EXP SWAP1 DIV PUSH20 0xFFFFFFFFFFFFFFFFFFFFFFFFFFFFFFFFFFFFFFFF AND DUP2 JUMP JUMPDEST PUSH1 0x1 DUP1 PUSH1 0x2 DUP2 GT ISZERO PUSH2 0x3B1 JUMPI PUSH2 0x3B0 PUSH2 0x7B9 JUMP JUMPDEST JUMPDEST PUSH0 DUP1 SLOAD SWAP1 PUSH2 0x100 EXP SWAP1 DIV PUSH1 0xFF AND PUSH1 0x2 DUP2 GT ISZERO PUSH2 0x3D0 JUMPI PUSH2 0x3CF PUSH2 0x7B9 JUMP JUMPDEST JUMPDEST EQ PUSH2 0x410 JUMPI PUSH1 0x40 MLOAD PUSH32 0x8C379A000000000000000000000000000000000000000000000000000000000 DUP2 MSTORE PUSH1 0x4 ADD PUSH2 0x407 SWAP1 PUSH2 0x935 JUMP JUMPDEST PUSH1 0x40 MLOAD DUP1 SWAP2 SUB SWAP1 REVERT JUMPDEST PUSH0 PUSH1 0x1 SWAP1 SLOAD SWAP1 PUSH2 0x100 EXP SWAP1 DIV PUSH20 0xFFFFFFFFFFFFFFFFFFFFFFFFFFFFFFFFFFFFFFFF AND PUSH20 0xFFFFFFFFFFFFFFFFFFFFFFFFFFFFFFFFFFFFFFFF AND CALLER PUSH20 0xFFFFFFFFFFFFFFFFFFFFFFFFFFFFFFFFFFFFFFFF AND EQ PUSH2 0x49F JUMPI PUSH1 0x40 MLOAD PUSH32 0x8C379A000000000000000000000000000000000000000000000000000000000 DUP2 MSTORE PUSH1 0x4 ADD PUSH2 0x496 SWAP1 PUSH2 0xA51 JUMP JUMPDEST PUSH1 0x40 MLOAD DUP1 SWAP2 SUB SWAP1 REVERT JUMPDEST PUSH1 0x1 PUSH0 SWAP1 SLOAD SWAP1 PUSH2 0x100 EXP SWAP1 DIV PUSH20 0xFFFFFFFFFFFFFFFFFFFFFFFFFFFFFFFFFFFFFFFF AND PUSH20 0xFFFFFFFFFFFFFFFFFFFFFFFFFFFFFFFFFFFFFFFF AND PUSH2 0x8FC PUSH1 0x2 SLOAD SWAP1 DUP2 ISZERO MUL SWAP1 PUSH1 0x40 MLOAD PUSH0 PUSH1 0x40 MLOAD DUP1 DUP4 SUB DUP2 DUP6 DUP9 DUP9 CALL SWAP4 POP POP POP POP ISZERO DUP1 ISZERO PUSH2 0x505 JUMPI RETURNDATASIZE PUSH0 DUP1 RETURNDATACOPY RETURNDATASIZE PUSH0 REVERT JUMPDEST POP PUSH1 0x2 PUSH0 DUP1 PUSH2 0x100 EXP DUP2 SLOAD DUP2 PUSH1 0xFF MUL NOT AND SWAP1 DUP4 PUSH1 0x2 DUP2 GT ISZERO PUSH2 0x52A JUMPI PUSH2 0x529 PUSH2 0x7B9 JUMP JUMPDEST JUMPDEST MUL OR SWAP1 SSTORE POP POP JUMP JUMPDEST PUSH0 DUP1 SLOAD SWAP1 PUSH2 0x100 EXP SWAP1 DIV PUSH1 0xFF AND DUP2 JUMP JUMPDEST PUSH0 DUP1 PUSH1 0x2 DUP2 GT ISZERO PUSH2 0x556 JUMPI PUSH2 0x555 PUSH2 0x7B9 JUMP JUMPDEST JUMPDEST PUSH0 DUP1 SLOAD SWAP1 PUSH2 0x100 EXP SWAP1 DIV PUSH1 0xFF AND PUSH1 0x2 DUP2 GT ISZERO PUSH2 0x575 JUMPI PUSH2 0x574 PUSH2 0x7B9 JUMP JUMPDEST JUMPDEST EQ PUSH2 0x5B5 JUMPI PUSH1 0x40 MLOAD PUSH32 0x8C379A000000000000000000000000000000000000000000000000000000000 DUP2 MSTORE PUSH1 0x4 ADD PUSH2 0x5AC SWAP1 PUSH2 0x935 JUMP JUMPDEST PUSH1 0x40 MLOAD DUP1 SWAP2 SUB SWAP1 REVERT JUMPDEST PUSH0 PUSH1 0x1 SWAP1 SLOAD SWAP1 PUSH2 0x100 EXP SWAP1 DIV PUSH20 0xFFFFFFFFFFFFFFFFFFFFFFFFFFFFFFFFFFFFFFFF AND PUSH20 0xFFFFFFFFFFFFFFFFFFFFFFFFFFFFFFFFFFFFFFFF AND CALLER PUSH20 0xFFFFFFFFFFFFFFFFFFFFFFFFFFFFFFFFFFFFFFFF AND EQ PUSH2 0x644 JUMPI PUSH1 0x40 MLOAD PUSH32 0x8C379A000000000000000000000000000000000000000000000000000000000 DUP2 MSTORE PUSH1 0x4 ADD PUSH2 0x63B SWAP1 PUSH2 0xADF JUMP JUMPDEST PUSH1 0x40 MLOAD DUP1 SWAP2 SUB SWAP1 REVERT JUMPDEST PUSH1 0x1 PUSH0 DUP1 PUSH2 0x100 EXP DUP2 SLOAD DUP2 PUSH1 0xFF MUL NOT AND SWAP1 DUP4 PUSH1 0x2 DUP2 GT ISZERO PUSH2 0x668 JUMPI PUSH2 0x667 PUSH2 0x7B9 JUMP JUMPDEST JUMPDEST MUL OR SWAP1 SSTORE POP POP JUMP JUMPDEST CALLER PUSH0 PUSH1 0x1 PUSH2 0x100 EXP DUP2 SLOAD DUP2 PUSH20 0xFFFFFFFFFFFFFFFFFFFFFFFFFFFFFFFFFFFFFFFF MUL NOT AND SWAP1 DUP4 PUSH20 0xFFFFFFFFFFFFFFFFFFFFFFFFFFFFFFFFFFFFFFFF AND MUL OR SWAP1 SSTORE POP DUP1 PUSH1 0x1 PUSH0 PUSH2 0x100 EXP DUP2 SLOAD DUP2 PUSH20 0xFFFFFFFFFFFFFFFFFFFFFFFFFFFFFFFFFFFFFFFF MUL NOT AND SWAP1 DUP4 PUSH20 0xFFFFFFFFFFFFFFFFFFFFFFFFFFFFFFFFFFFFFFFF AND MUL OR SWAP1 SSTORE POP DUP2 PUSH1 0x3 DUP2 SWAP1 SSTORE POP CALLVALUE PUSH1 0x2 DUP2 SWAP1 SSTORE POP PUSH0 DUP1 PUSH0 PUSH2 0x100 EXP DUP2 SLOAD DUP2 PUSH1 0xFF MUL NOT AND SWAP1 DUP4 PUSH1 0x2 DUP2 GT ISZERO PUSH2 0x721 JUMPI PUSH2 0x720 PUSH2 0x7B9 JUMP JUMPDEST JUMPDEST MUL OR SWAP1 SSTORE POP POP POP JUMP JUMPDEST PUSH1 0x3 SLOAD DUP2 JUMP JUMPDEST PUSH0 PUSH20 0xFFFFFFFFFFFFFFFFFFFFFFFFFFFFFFFFFFFFFFFF DUP3 AND SWAP1 POP SWAP2 SWAP1 POP JUMP JUMPDEST PUSH0 PUSH2 0x759 DUP3 PUSH2 0x730 JUMP JUMPDEST SWAP1 POP SWAP2 SWAP1 POP JUMP JUMPDEST PUSH2 0x769 DUP2 PUSH2 0x74F JUMP JUMPDEST DUP3 MSTORE POP POP JUMP JUMPDEST PUSH0 PUSH1 0x20 DUP3 ADD SWAP1 POP PUSH2 0x782 PUSH0 DUP4 ADD DUP5 PUSH2 0x760 JUMP JUMPDEST SWAP3 SWAP2 POP POP JUMP JUMPDEST PUSH0 DUP2 SWAP1 POP SWAP2 SWAP1 POP JUMP JUMPDEST PUSH2 0x79A DUP2 PUSH2 0x788 JUMP JUMPDEST DUP3 MSTORE POP POP JUMP JUMPDEST PUSH0 PUSH1 0x20 DUP3 ADD SWAP1 POP PUSH2 0x7B3 PUSH0 DUP4 ADD DUP5 PUSH2 0x791 JUMP JUMPDEST SWAP3 SWAP2 POP POP JUMP JUMPDEST PUSH32 0x4E487B7100000000000000000000000000000000000000000000000000000000 PUSH0 MSTORE PUSH1 0x21 PUSH1 0x4 MSTORE PUSH1 0x24 PUSH0 REVERT JUMPDEST PUSH1 0x3 DUP2 LT PUSH2 0x7F7 JUMPI PUSH2 0x7F6 PUSH2 0x7B9 JUMP JUMPDEST JUMPDEST POP JUMP JUMPDEST PUSH0 DUP2 SWAP1 POP PUSH2 0x807 DUP3 PUSH2 0x7E6 JUMP JUMPDEST SWAP2 SWAP1 POP JUMP JUMPDEST PUSH0 PUSH2 0x816 DUP3 PUSH2 0x7FA JUMP JUMPDEST SWAP1 POP SWAP2 SWAP1 POP JUMP JUMPDEST PUSH2 0x826 DUP2 PUSH2 0x80C JUMP JUMPDEST DUP3 MSTORE POP POP JUMP JUMPDEST PUSH0 PUSH1 0x20 DUP3 ADD SWAP1 POP PUSH2 0x83F PUSH0 DUP4 ADD DUP5 PUSH2 0x81D JUMP JUMPDEST SWAP3 SWAP2 POP POP JUMP JUMPDEST PUSH0 DUP1 REVERT JUMPDEST PUSH2 0x852 DUP2 PUSH2 0x788 JUMP JUMPDEST DUP2 EQ PUSH2 0x85C JUMPI PUSH0 DUP1 REVERT JUMPDEST POP JUMP JUMPDEST PUSH0 DUP2 CALLDATALOAD SWAP1 POP PUSH2 0x86D DUP2 PUSH2 0x849 JUMP JUMPDEST SWAP3 SWAP2 POP POP JUMP JUMPDEST PUSH2 0x87C DUP2 PUSH2 0x74F JUMP JUMPDEST DUP2 EQ PUSH2 0x886 JUMPI PUSH0 DUP1 REVERT JUMPDEST POP JUMP JUMPDEST PUSH0 DUP2 CALLDATALOAD SWAP1 POP PUSH2 0x897 DUP2 PUSH2 0x873 JUMP JUMPDEST SWAP3 SWAP2 POP POP JUMP JUMPDEST PUSH0 DUP1 PUSH1 0x40 DUP4 DUP6 SUB SLT ISZERO PUSH2 0x8B3 JUMPI PUSH2 0x8B2 PUSH2 0x845 JUMP JUMPDEST JUMPDEST PUSH0 PUSH2 0x8C0 DUP6 DUP3 DUP7 ADD PUSH2 0x85F JUMP JUMPDEST SWAP3 POP POP PUSH1 0x20 PUSH2 0x8D1 DUP6 DUP3 DUP7 ADD PUSH2 0x889 JUMP JUMPDEST SWAP2 POP POP SWAP3 POP SWAP3 SWAP1 POP JUMP JUMPDEST PUSH0 DUP3 DUP3 MSTORE PUSH1 0x20 DUP3 ADD SWAP1 POP SWAP3 SWAP2 POP POP JUMP JUMPDEST PUSH32 0x496E76616C69642073746174652E000000000000000000000000000000000000 PUSH0 DUP3 ADD MSTORE POP JUMP JUMPDEST PUSH0 PUSH2 0x91F PUSH1 0xE DUP4 PUSH2 0x8DB JUMP JUMPDEST SWAP2 POP PUSH2 0x92A DUP3 PUSH2 0x8EB JUMP JUMPDEST PUSH1 0x20 DUP3 ADD SWAP1 POP SWAP2 SWAP1 POP JUMP JUMPDEST PUSH0 PUSH1 0x20 DUP3 ADD SWAP1 POP DUP2 DUP2 SUB PUSH0 DUP4 ADD MSTORE PUSH2 0x94C DUP2 PUSH2 0x913 JUMP JUMPDEST SWAP1 POP SWAP2 SWAP1 POP JUMP JUMPDEST PUSH32 0x4F6E6C792062757965722063616E2061626F727420746865207472616E736163 PUSH0 DUP3 ADD MSTORE PUSH32 0x74696F6E2E000000000000000000000000000000000000000000000000000000 PUSH1 0x20 DUP3 ADD MSTORE POP JUMP JUMPDEST PUSH0 PUSH2 0x9AD PUSH1 0x25 DUP4 PUSH2 0x8DB JUMP JUMPDEST SWAP2 POP PUSH2 0x9B8 DUP3 PUSH2 0x953 JUMP JUMPDEST PUSH1 0x40 DUP3 ADD SWAP1 POP SWAP2 SWAP1 POP JUMP JUMPDEST PUSH0 PUSH1 0x20 DUP3 ADD SWAP1 POP DUP2 DUP2 SUB PUSH0 DUP4 ADD MSTORE PUSH2 0x9DA DUP2 PUSH2 0x9A1 JUMP JUMPDEST SWAP1 POP SWAP2 SWAP1 POP JUMP JUMPDEST PUSH32 0x4F6E6C792062757965722063616E20636F6D706C65746520746865207472616E PUSH0 DUP3 ADD MSTORE PUSH32 0x73616374696F6E2E000000000000000000000000000000000000000000000000 PUSH1 0x20 DUP3 ADD MSTORE POP JUMP JUMPDEST PUSH0 PUSH2 0xA3B PUSH1 0x28 DUP4 PUSH2 0x8DB JUMP JUMPDEST SWAP2 POP PUSH2 0xA46 DUP3 PUSH2 0x9E1 JUMP JUMPDEST PUSH1 0x40 DUP3 ADD SWAP1 POP SWAP2 SWAP1 POP JUMP JUMPDEST PUSH0 PUSH1 0x20 DUP3 ADD SWAP1 POP DUP2 DUP2 SUB PUSH0 DUP4 ADD MSTORE PUSH2 0xA68 DUP2 PUSH2 0xA2F JUMP JUMPDEST SWAP1 POP SWAP2 SWAP1 POP JUMP JUMPDEST PUSH32 0x4F6E6C792062757965722063616E20636F6E6669726D20746865207472616E73 PUSH0 DUP3 ADD MSTORE PUSH32 0x616374696F6E2E00000000000000000000000000000000000000000000000000 PUSH1 0x20 DUP3 ADD MSTORE POP JUMP JUMPDEST PUSH0 PUSH2 0xAC9 PUSH1 0x27 DUP4 PUSH2 0x8DB JUMP JUMPDEST SWAP2 POP PUSH2 0xAD4 DUP3 PUSH2 0xA6F JUMP JUMPDEST PUSH1 0x40 DUP3 ADD SWAP1 POP SWAP2 SWAP1 POP JUMP JUMPDEST PUSH0 PUSH1 0x20 DUP3 ADD SWAP1 POP DUP2 DUP2 SUB PUSH0 DUP4 ADD MSTORE PUSH2 0xAF6 DUP2 PUSH2 0xABD JUMP JUMPDEST SWAP1 POP SWAP2 SWAP1 POP JUMP INVALID LOG2 PUSH5 0x6970667358 0x22 SLT KECCAK256 0xE7 DIV 0xFB 0xED CALLDATACOPY 0xA7 0x25 0xDB PUSH32 0x629C97BA1E3B9325A33D0BEFBC65C1C30CB40741D5A9BD64736F6C6343000819 STOP CALLER LOG2 PUSH5 0x6970667358 0x22 SLT KECCAK256 0xDD DUP13 CALLDATALOAD CALLDATACOPY PUSH30 0x3541688F1C3E92A9C9D5991A0CA92758D78D325B2551E328ED340C64736F PUSH13 0x63430008190033000000000000 "
		},
		"gasEstimates": {
			"creation": {
				"codeDepositCost": "1173200",
				"executionCost": "1219",
				"totalCost": "1174419"
			},
			"external": {
				"beforeAll()": "infinite",
				"testCompleteTransaction()": "infinite",
				"testConfirmTransaction()": "infinite",
				"testInitiateTransaction()": "infinite"
			}
		},
		"methodIdentifiers": {
			"beforeAll()": "7fea0d4b",
			"testCompleteTransaction()": "1a94c7ec",
			"testConfirmTransaction()": "b4685bad",
			"testInitiateTransaction()": "b2f26d43"
		}
	},
	"abi": [
		{
			"inputs": [],
			"name": "beforeAll",
			"outputs": [],
			"stateMutability": "nonpayable",
			"type": "function"
		},
		{
			"inputs": [],
			"name": "testCompleteTransaction",
			"outputs": [],
			"stateMutability": "nonpayable",
			"type": "function"
		},
		{
			"inputs": [],
			"name": "testConfirmTransaction",
			"outputs": [],
			"stateMutability": "nonpayable",
			"type": "function"
		},
		{
			"inputs": [],
			"name": "testInitiateTransaction",
			"outputs": [],
			"stateMutability": "nonpayable",
			"type": "function"
		}
	]
}