{
	"data": {
		"bytecode": {
			"linkReferences": {},
			"object": "6080604052348015600e575f80fd5b506109888061001c5f395ff3fe608060405234801561000f575f80fd5b506004361061003f575f3560e01c80630ea126f914610043578063163f75221461005f57806377ec1d901461008f575b5f80fd5b61005d600480360381019061005891906104c3565b6100bf565b005b6100796004803603810190610074919061051d565b610274565b6040516100869190610562565b60405180910390f35b6100a960048036038101906100a4919061051d565b6102c8565b6040516100b69190610562565b60405180910390f35b5f808373ffffffffffffffffffffffffffffffffffffffff1673ffffffffffffffffffffffffffffffffffffffff1681526020019081526020015f206002015f9054906101000a900460ff161561014b576040517f08c379a0000000000000000000000000000000000000000000000000000000008152600401610142906105d5565b60405180910390fd5b60405180606001604052808373ffffffffffffffffffffffffffffffffffffffff168152602001828152602001600115158152505f808473ffffffffffffffffffffffffffffffffffffffff1673ffffffffffffffffffffffffffffffffffffffff1681526020019081526020015f205f820151815f015f6101000a81548173ffffffffffffffffffffffffffffffffffffffff021916908373ffffffffffffffffffffffffffffffffffffffff16021790555060208201518160010190816102149190610800565b506040820151816002015f6101000a81548160ff0219169083151502179055509050507f48cac28ad4dc618e15f4c2dd5e97751182f166de97b25618318b2112aa951a2f8282604051610268929190610924565b60405180910390a15050565b5f805f8373ffffffffffffffffffffffffffffffffffffffff1673ffffffffffffffffffffffffffffffffffffffff1681526020019081526020015f206002015f9054906101000a900460ff169050919050565b5f805f8373ffffffffffffffffffffffffffffffffffffffff1673ffffffffffffffffffffffffffffffffffffffff1681526020019081526020015f206002015f9054906101000a900460ff169050919050565b5f604051905090565b5f80fd5b5f80fd5b5f73ffffffffffffffffffffffffffffffffffffffff82169050919050565b5f6103568261032d565b9050919050565b6103668161034c565b8114610370575f80fd5b50565b5f813590506103818161035d565b92915050565b5f80fd5b5f80fd5b5f601f19601f8301169050919050565b7f4e487b71000000000000000000000000000000000000000000000000000000005f52604160045260245ffd5b6103d58261038f565b810181811067ffffffffffffffff821117156103f4576103f361039f565b5b80604052505050565b5f61040661031c565b905061041282826103cc565b919050565b5f67ffffffffffffffff8211156104315761043061039f565b5b61043a8261038f565b9050602081019050919050565b828183375f83830152505050565b5f61046761046284610417565b6103fd565b9050828152602081018484840111156104835761048261038b565b5b61048e848285610447565b509392505050565b5f82601f8301126104aa576104a9610387565b5b81356104ba848260208601610455565b91505092915050565b5f80604083850312156104d9576104d8610325565b5b5f6104e685828601610373565b925050602083013567ffffffffffffffff81111561050757610506610329565b5b61051385828601610496565b9150509250929050565b5f6020828403121561053257610531610325565b5b5f61053f84828501610373565b91505092915050565b5f8115159050919050565b61055c81610548565b82525050565b5f6020820190506105755f830184610553565b92915050565b5f82825260208201905092915050565b7f5573657220616c726561647920726567697374657265640000000000000000005f82015250565b5f6105bf60178361057b565b91506105ca8261058b565b602082019050919050565b5f6020820190508181035f8301526105ec816105b3565b9050919050565b5f81519050919050565b7f4e487b71000000000000000000000000000000000000000000000000000000005f52602260045260245ffd5b5f600282049050600182168061064157607f821691505b602082108103610654576106536105fd565b5b50919050565b5f819050815f5260205f209050919050565b5f6020601f8301049050919050565b5f82821b905092915050565b5f600883026106b67fffffffffffffffffffffffffffffffffffffffffffffffffffffffffffffffff8261067b565b6106c0868361067b565b95508019841693508086168417925050509392505050565b5f819050919050565b5f819050919050565b5f6107046106ff6106fa846106d8565b6106e1565b6106d8565b9050919050565b5f819050919050565b61071d836106ea565b6107316107298261070b565b848454610687565b825550505050565b5f90565b610745610739565b610750818484610714565b505050565b5b81811015610773576107685f8261073d565b600181019050610756565b5050565b601f8211156107b8576107898161065a565b6107928461066c565b810160208510156107a1578190505b6107b56107ad8561066c565b830182610755565b50505b505050565b5f82821c905092915050565b5f6107d85f19846008026107bd565b1980831691505092915050565b5f6107f083836107c9565b9150826002028217905092915050565b610809826105f3565b67ffffffffffffffff8111156108225761082161039f565b5b61082c825461062a565b610837828285610777565b5f60209050601f831160018114610868575f8415610856578287015190505b61086085826107e5565b8655506108c7565b601f1984166108768661065a565b5f5b8281101561089d57848901518255600182019150602085019450602081019050610878565b868310156108ba57848901516108b6601f8916826107c9565b8355505b6001600288020188555050505b505050505050565b6108d88161034c565b82525050565b8281835e5f83830152505050565b5f6108f6826105f3565b610900818561057b565b93506109108185602086016108de565b6109198161038f565b840191505092915050565b5f6040820190506109375f8301856108cf565b818103602083015261094981846108ec565b9050939250505056fea26469706673582212205ae41d25686b708095a380c6013bbf8ad798f42df99772f6d4fdac012e47c05a64736f6c634300081a0033",
			"opcodes": "PUSH1 0x80 PUSH1 0x40 MSTORE CALLVALUE DUP1 ISZERO PUSH1 0xE JUMPI PUSH0 DUP1 REVERT JUMPDEST POP PUSH2 0x988 DUP1 PUSH2 0x1C PUSH0 CODECOPY PUSH0 RETURN INVALID PUSH1 0x80 PUSH1 0x40 MSTORE CALLVALUE DUP1 ISZERO PUSH2 0xF JUMPI PUSH0 DUP1 REVERT JUMPDEST POP PUSH1 0x4 CALLDATASIZE LT PUSH2 0x3F JUMPI PUSH0 CALLDATALOAD PUSH1 0xE0 SHR DUP1 PUSH4 0xEA126F9 EQ PUSH2 0x43 JUMPI DUP1 PUSH4 0x163F7522 EQ PUSH2 0x5F JUMPI DUP1 PUSH4 0x77EC1D90 EQ PUSH2 0x8F JUMPI JUMPDEST PUSH0 DUP1 REVERT JUMPDEST PUSH2 0x5D PUSH1 0x4 DUP1 CALLDATASIZE SUB DUP2 ADD SWAP1 PUSH2 0x58 SWAP2 SWAP1 PUSH2 0x4C3 JUMP JUMPDEST PUSH2 0xBF JUMP JUMPDEST STOP JUMPDEST PUSH2 0x79 PUSH1 0x4 DUP1 CALLDATASIZE SUB DUP2 ADD SWAP1 PUSH2 0x74 SWAP2 SWAP1 PUSH2 0x51D JUMP JUMPDEST PUSH2 0x274 JUMP JUMPDEST PUSH1 0x40 MLOAD PUSH2 0x86 SWAP2 SWAP1 PUSH2 0x562 JUMP JUMPDEST PUSH1 0x40 MLOAD DUP1 SWAP2 SUB SWAP1 RETURN JUMPDEST PUSH2 0xA9 PUSH1 0x4 DUP1 CALLDATASIZE SUB DUP2 ADD SWAP1 PUSH2 0xA4 SWAP2 SWAP1 PUSH2 0x51D JUMP JUMPDEST PUSH2 0x2C8 JUMP JUMPDEST PUSH1 0x40 MLOAD PUSH2 0xB6 SWAP2 SWAP1 PUSH2 0x562 JUMP JUMPDEST PUSH1 0x40 MLOAD DUP1 SWAP2 SUB SWAP1 RETURN JUMPDEST PUSH0 DUP1 DUP4 PUSH20 0xFFFFFFFFFFFFFFFFFFFFFFFFFFFFFFFFFFFFFFFF AND PUSH20 0xFFFFFFFFFFFFFFFFFFFFFFFFFFFFFFFFFFFFFFFF AND DUP2 MSTORE PUSH1 0x20 ADD SWAP1 DUP2 MSTORE PUSH1 0x20 ADD PUSH0 KECCAK256 PUSH1 0x2 ADD PUSH0 SWAP1 SLOAD SWAP1 PUSH2 0x100 EXP SWAP1 DIV PUSH1 0xFF AND ISZERO PUSH2 0x14B JUMPI PUSH1 0x40 MLOAD PUSH32 0x8C379A000000000000000000000000000000000000000000000000000000000 DUP2 MSTORE PUSH1 0x4 ADD PUSH2 0x142 SWAP1 PUSH2 0x5D5 JUMP JUMPDEST PUSH1 0x40 MLOAD DUP1 SWAP2 SUB SWAP1 REVERT JUMPDEST PUSH1 0x40 MLOAD DUP1 PUSH1 0x60 ADD PUSH1 0x40 MSTORE DUP1 DUP4 PUSH20 0xFFFFFFFFFFFFFFFFFFFFFFFFFFFFFFFFFFFFFFFF AND DUP2 MSTORE PUSH1 0x20 ADD DUP3 DUP2 MSTORE PUSH1 0x20 ADD PUSH1 0x1 ISZERO ISZERO DUP2 MSTORE POP PUSH0 DUP1 DUP5 PUSH20 0xFFFFFFFFFFFFFFFFFFFFFFFFFFFFFFFFFFFFFFFF AND PUSH20 0xFFFFFFFFFFFFFFFFFFFFFFFFFFFFFFFFFFFFFFFF AND DUP2 MSTORE PUSH1 0x20 ADD SWAP1 DUP2 MSTORE PUSH1 0x20 ADD PUSH0 KECCAK256 PUSH0 DUP3 ADD MLOAD DUP2 PUSH0 ADD PUSH0 PUSH2 0x100 EXP DUP2 SLOAD DUP2 PUSH20 0xFFFFFFFFFFFFFFFFFFFFFFFFFFFFFFFFFFFFFFFF MUL NOT AND SWAP1 DUP4 PUSH20 0xFFFFFFFFFFFFFFFFFFFFFFFFFFFFFFFFFFFFFFFF AND MUL OR SWAP1 SSTORE POP PUSH1 0x20 DUP3 ADD MLOAD DUP2 PUSH1 0x1 ADD SWAP1 DUP2 PUSH2 0x214 SWAP2 SWAP1 PUSH2 0x800 JUMP JUMPDEST POP PUSH1 0x40 DUP3 ADD MLOAD DUP2 PUSH1 0x2 ADD PUSH0 PUSH2 0x100 EXP DUP2 SLOAD DUP2 PUSH1 0xFF MUL NOT AND SWAP1 DUP4 ISZERO ISZERO MUL OR SWAP1 SSTORE POP SWAP1 POP POP PUSH32 0x48CAC28AD4DC618E15F4C2DD5E97751182F166DE97B25618318B2112AA951A2F DUP3 DUP3 PUSH1 0x40 MLOAD PUSH2 0x268 SWAP3 SWAP2 SWAP1 PUSH2 0x924 JUMP JUMPDEST PUSH1 0x40 MLOAD DUP1 SWAP2 SUB SWAP1 LOG1 POP POP JUMP JUMPDEST PUSH0 DUP1 PUSH0 DUP4 PUSH20 0xFFFFFFFFFFFFFFFFFFFFFFFFFFFFFFFFFFFFFFFF AND PUSH20 0xFFFFFFFFFFFFFFFFFFFFFFFFFFFFFFFFFFFFFFFF AND DUP2 MSTORE PUSH1 0x20 ADD SWAP1 DUP2 MSTORE PUSH1 0x20 ADD PUSH0 KECCAK256 PUSH1 0x2 ADD PUSH0 SWAP1 SLOAD SWAP1 PUSH2 0x100 EXP SWAP1 DIV PUSH1 0xFF AND SWAP1 POP SWAP2 SWAP1 POP JUMP JUMPDEST PUSH0 DUP1 PUSH0 DUP4 PUSH20 0xFFFFFFFFFFFFFFFFFFFFFFFFFFFFFFFFFFFFFFFF AND PUSH20 0xFFFFFFFFFFFFFFFFFFFFFFFFFFFFFFFFFFFFFFFF AND DUP2 MSTORE PUSH1 0x20 ADD SWAP1 DUP2 MSTORE PUSH1 0x20 ADD PUSH0 KECCAK256 PUSH1 0x2 ADD PUSH0 SWAP1 SLOAD SWAP1 PUSH2 0x100 EXP SWAP1 DIV PUSH1 0xFF AND SWAP1 POP SWAP2 SWAP1 POP JUMP JUMPDEST PUSH0 PUSH1 0x40 MLOAD SWAP1 POP SWAP1 JUMP JUMPDEST PUSH0 DUP1 REVERT JUMPDEST PUSH0 DUP1 REVERT JUMPDEST PUSH0 PUSH20 0xFFFFFFFFFFFFFFFFFFFFFFFFFFFFFFFFFFFFFFFF DUP3 AND SWAP1 POP SWAP2 SWAP1 POP JUMP JUMPDEST PUSH0 PUSH2 0x356 DUP3 PUSH2 0x32D JUMP JUMPDEST SWAP1 POP SWAP2 SWAP1 POP JUMP JUMPDEST PUSH2 0x366 DUP2 PUSH2 0x34C JUMP JUMPDEST DUP2 EQ PUSH2 0x370 JUMPI PUSH0 DUP1 REVERT JUMPDEST POP JUMP JUMPDEST PUSH0 DUP2 CALLDATALOAD SWAP1 POP PUSH2 0x381 DUP2 PUSH2 0x35D JUMP JUMPDEST SWAP3 SWAP2 POP POP JUMP JUMPDEST PUSH0 DUP1 REVERT JUMPDEST PUSH0 DUP1 REVERT JUMPDEST PUSH0 PUSH1 0x1F NOT PUSH1 0x1F DUP4 ADD AND SWAP1 POP SWAP2 SWAP1 POP JUMP JUMPDEST PUSH32 0x4E487B7100000000000000000000000000000000000000000000000000000000 PUSH0 MSTORE PUSH1 0x41 PUSH1 0x4 MSTORE PUSH1 0x24 PUSH0 REVERT JUMPDEST PUSH2 0x3D5 DUP3 PUSH2 0x38F JUMP JUMPDEST DUP2 ADD DUP2 DUP2 LT PUSH8 0xFFFFFFFFFFFFFFFF DUP3 GT OR ISZERO PUSH2 0x3F4 JUMPI PUSH2 0x3F3 PUSH2 0x39F JUMP JUMPDEST JUMPDEST DUP1 PUSH1 0x40 MSTORE POP POP POP JUMP JUMPDEST PUSH0 PUSH2 0x406 PUSH2 0x31C JUMP JUMPDEST SWAP1 POP PUSH2 0x412 DUP3 DUP3 PUSH2 0x3CC JUMP JUMPDEST SWAP2 SWAP1 POP JUMP JUMPDEST PUSH0 PUSH8 0xFFFFFFFFFFFFFFFF DUP3 GT ISZERO PUSH2 0x431 JUMPI PUSH2 0x430 PUSH2 0x39F JUMP JUMPDEST JUMPDEST PUSH2 0x43A DUP3 PUSH2 0x38F JUMP JUMPDEST SWAP1 POP PUSH1 0x20 DUP2 ADD SWAP1 POP SWAP2 SWAP1 POP JUMP JUMPDEST DUP3 DUP2 DUP4 CALLDATACOPY PUSH0 DUP4 DUP4 ADD MSTORE POP POP POP JUMP JUMPDEST PUSH0 PUSH2 0x467 PUSH2 0x462 DUP5 PUSH2 0x417 JUMP JUMPDEST PUSH2 0x3FD JUMP JUMPDEST SWAP1 POP DUP3 DUP2 MSTORE PUSH1 0x20 DUP2 ADD DUP5 DUP5 DUP5 ADD GT ISZERO PUSH2 0x483 JUMPI PUSH2 0x482 PUSH2 0x38B JUMP JUMPDEST JUMPDEST PUSH2 0x48E DUP5 DUP3 DUP6 PUSH2 0x447 JUMP JUMPDEST POP SWAP4 SWAP3 POP POP POP JUMP JUMPDEST PUSH0 DUP3 PUSH1 0x1F DUP4 ADD SLT PUSH2 0x4AA JUMPI PUSH2 0x4A9 PUSH2 0x387 JUMP JUMPDEST JUMPDEST DUP2 CALLDATALOAD PUSH2 0x4BA DUP5 DUP3 PUSH1 0x20 DUP7 ADD PUSH2 0x455 JUMP JUMPDEST SWAP2 POP POP SWAP3 SWAP2 POP POP JUMP JUMPDEST PUSH0 DUP1 PUSH1 0x40 DUP4 DUP6 SUB SLT ISZERO PUSH2 0x4D9 JUMPI PUSH2 0x4D8 PUSH2 0x325 JUMP JUMPDEST JUMPDEST PUSH0 PUSH2 0x4E6 DUP6 DUP3 DUP7 ADD PUSH2 0x373 JUMP JUMPDEST SWAP3 POP POP PUSH1 0x20 DUP4 ADD CALLDATALOAD PUSH8 0xFFFFFFFFFFFFFFFF DUP2 GT ISZERO PUSH2 0x507 JUMPI PUSH2 0x506 PUSH2 0x329 JUMP JUMPDEST JUMPDEST PUSH2 0x513 DUP6 DUP3 DUP7 ADD PUSH2 0x496 JUMP JUMPDEST SWAP2 POP POP SWAP3 POP SWAP3 SWAP1 POP JUMP JUMPDEST PUSH0 PUSH1 0x20 DUP3 DUP5 SUB SLT ISZERO PUSH2 0x532 JUMPI PUSH2 0x531 PUSH2 0x325 JUMP JUMPDEST JUMPDEST PUSH0 PUSH2 0x53F DUP5 DUP3 DUP6 ADD PUSH2 0x373 JUMP JUMPDEST SWAP2 POP POP SWAP3 SWAP2 POP POP JUMP JUMPDEST PUSH0 DUP2 ISZERO ISZERO SWAP1 POP SWAP2 SWAP1 POP JUMP JUMPDEST PUSH2 0x55C DUP2 PUSH2 0x548 JUMP JUMPDEST DUP3 MSTORE POP POP JUMP JUMPDEST PUSH0 PUSH1 0x20 DUP3 ADD SWAP1 POP PUSH2 0x575 PUSH0 DUP4 ADD DUP5 PUSH2 0x553 JUMP JUMPDEST SWAP3 SWAP2 POP POP JUMP JUMPDEST PUSH0 DUP3 DUP3 MSTORE PUSH1 0x20 DUP3 ADD SWAP1 POP SWAP3 SWAP2 POP POP JUMP JUMPDEST PUSH32 0x5573657220616C72656164792072656769737465726564000000000000000000 PUSH0 DUP3 ADD MSTORE POP JUMP JUMPDEST PUSH0 PUSH2 0x5BF PUSH1 0x17 DUP4 PUSH2 0x57B JUMP JUMPDEST SWAP2 POP PUSH2 0x5CA DUP3 PUSH2 0x58B JUMP JUMPDEST PUSH1 0x20 DUP3 ADD SWAP1 POP SWAP2 SWAP1 POP JUMP JUMPDEST PUSH0 PUSH1 0x20 DUP3 ADD SWAP1 POP DUP2 DUP2 SUB PUSH0 DUP4 ADD MSTORE PUSH2 0x5EC DUP2 PUSH2 0x5B3 JUMP JUMPDEST SWAP1 POP SWAP2 SWAP1 POP JUMP JUMPDEST PUSH0 DUP2 MLOAD SWAP1 POP SWAP2 SWAP1 POP JUMP JUMPDEST PUSH32 0x4E487B7100000000000000000000000000000000000000000000000000000000 PUSH0 MSTORE PUSH1 0x22 PUSH1 0x4 MSTORE PUSH1 0x24 PUSH0 REVERT JUMPDEST PUSH0 PUSH1 0x2 DUP3 DIV SWAP1 POP PUSH1 0x1 DUP3 AND DUP1 PUSH2 0x641 JUMPI PUSH1 0x7F DUP3 AND SWAP2 POP JUMPDEST PUSH1 0x20 DUP3 LT DUP2 SUB PUSH2 0x654 JUMPI PUSH2 0x653 PUSH2 0x5FD JUMP JUMPDEST JUMPDEST POP SWAP2 SWAP1 POP JUMP JUMPDEST PUSH0 DUP2 SWAP1 POP DUP2 PUSH0 MSTORE PUSH1 0x20 PUSH0 KECCAK256 SWAP1 POP SWAP2 SWAP1 POP JUMP JUMPDEST PUSH0 PUSH1 0x20 PUSH1 0x1F DUP4 ADD DIV SWAP1 POP SWAP2 SWAP1 POP JUMP JUMPDEST PUSH0 DUP3 DUP3 SHL SWAP1 POP SWAP3 SWAP2 POP POP JUMP JUMPDEST PUSH0 PUSH1 0x8 DUP4 MUL PUSH2 0x6B6 PUSH32 0xFFFFFFFFFFFFFFFFFFFFFFFFFFFFFFFFFFFFFFFFFFFFFFFFFFFFFFFFFFFFFFFF DUP3 PUSH2 0x67B JUMP JUMPDEST PUSH2 0x6C0 DUP7 DUP4 PUSH2 0x67B JUMP JUMPDEST SWAP6 POP DUP1 NOT DUP5 AND SWAP4 POP DUP1 DUP7 AND DUP5 OR SWAP3 POP POP POP SWAP4 SWAP3 POP POP POP JUMP JUMPDEST PUSH0 DUP2 SWAP1 POP SWAP2 SWAP1 POP JUMP JUMPDEST PUSH0 DUP2 SWAP1 POP SWAP2 SWAP1 POP JUMP JUMPDEST PUSH0 PUSH2 0x704 PUSH2 0x6FF PUSH2 0x6FA DUP5 PUSH2 0x6D8 JUMP JUMPDEST PUSH2 0x6E1 JUMP JUMPDEST PUSH2 0x6D8 JUMP JUMPDEST SWAP1 POP SWAP2 SWAP1 POP JUMP JUMPDEST PUSH0 DUP2 SWAP1 POP SWAP2 SWAP1 POP JUMP JUMPDEST PUSH2 0x71D DUP4 PUSH2 0x6EA JUMP JUMPDEST PUSH2 0x731 PUSH2 0x729 DUP3 PUSH2 0x70B JUMP JUMPDEST DUP5 DUP5 SLOAD PUSH2 0x687 JUMP JUMPDEST DUP3 SSTORE POP POP POP POP JUMP JUMPDEST PUSH0 SWAP1 JUMP JUMPDEST PUSH2 0x745 PUSH2 0x739 JUMP JUMPDEST PUSH2 0x750 DUP2 DUP5 DUP5 PUSH2 0x714 JUMP JUMPDEST POP POP POP JUMP JUMPDEST JUMPDEST DUP2 DUP2 LT ISZERO PUSH2 0x773 JUMPI PUSH2 0x768 PUSH0 DUP3 PUSH2 0x73D JUMP JUMPDEST PUSH1 0x1 DUP2 ADD SWAP1 POP PUSH2 0x756 JUMP JUMPDEST POP POP JUMP JUMPDEST PUSH1 0x1F DUP3 GT ISZERO PUSH2 0x7B8 JUMPI PUSH2 0x789 DUP2 PUSH2 0x65A JUMP JUMPDEST PUSH2 0x792 DUP5 PUSH2 0x66C JUMP JUMPDEST DUP2 ADD PUSH1 0x20 DUP6 LT ISZERO PUSH2 0x7A1 JUMPI DUP2 SWAP1 POP JUMPDEST PUSH2 0x7B5 PUSH2 0x7AD DUP6 PUSH2 0x66C JUMP JUMPDEST DUP4 ADD DUP3 PUSH2 0x755 JUMP JUMPDEST POP POP JUMPDEST POP POP POP JUMP JUMPDEST PUSH0 DUP3 DUP3 SHR SWAP1 POP SWAP3 SWAP2 POP POP JUMP JUMPDEST PUSH0 PUSH2 0x7D8 PUSH0 NOT DUP5 PUSH1 0x8 MUL PUSH2 0x7BD JUMP JUMPDEST NOT DUP1 DUP4 AND SWAP2 POP POP SWAP3 SWAP2 POP POP JUMP JUMPDEST PUSH0 PUSH2 0x7F0 DUP4 DUP4 PUSH2 0x7C9 JUMP JUMPDEST SWAP2 POP DUP3 PUSH1 0x2 MUL DUP3 OR SWAP1 POP SWAP3 SWAP2 POP POP JUMP JUMPDEST PUSH2 0x809 DUP3 PUSH2 0x5F3 JUMP JUMPDEST PUSH8 0xFFFFFFFFFFFFFFFF DUP2 GT ISZERO PUSH2 0x822 JUMPI PUSH2 0x821 PUSH2 0x39F JUMP JUMPDEST JUMPDEST PUSH2 0x82C DUP3 SLOAD PUSH2 0x62A JUMP JUMPDEST PUSH2 0x837 DUP3 DUP3 DUP6 PUSH2 0x777 JUMP JUMPDEST PUSH0 PUSH1 0x20 SWAP1 POP PUSH1 0x1F DUP4 GT PUSH1 0x1 DUP2 EQ PUSH2 0x868 JUMPI PUSH0 DUP5 ISZERO PUSH2 0x856 JUMPI DUP3 DUP8 ADD MLOAD SWAP1 POP JUMPDEST PUSH2 0x860 DUP6 DUP3 PUSH2 0x7E5 JUMP JUMPDEST DUP7 SSTORE POP PUSH2 0x8C7 JUMP JUMPDEST PUSH1 0x1F NOT DUP5 AND PUSH2 0x876 DUP7 PUSH2 0x65A JUMP JUMPDEST PUSH0 JUMPDEST DUP3 DUP2 LT ISZERO PUSH2 0x89D JUMPI DUP5 DUP10 ADD MLOAD DUP3 SSTORE PUSH1 0x1 DUP3 ADD SWAP2 POP PUSH1 0x20 DUP6 ADD SWAP5 POP PUSH1 0x20 DUP2 ADD SWAP1 POP PUSH2 0x878 JUMP JUMPDEST DUP7 DUP4 LT ISZERO PUSH2 0x8BA JUMPI DUP5 DUP10 ADD MLOAD PUSH2 0x8B6 PUSH1 0x1F DUP10 AND DUP3 PUSH2 0x7C9 JUMP JUMPDEST DUP4 SSTORE POP JUMPDEST PUSH1 0x1 PUSH1 0x2 DUP9 MUL ADD DUP9 SSTORE POP POP POP JUMPDEST POP POP POP POP POP POP JUMP JUMPDEST PUSH2 0x8D8 DUP2 PUSH2 0x34C JUMP JUMPDEST DUP3 MSTORE POP POP JUMP JUMPDEST DUP3 DUP2 DUP4 MCOPY PUSH0 DUP4 DUP4 ADD MSTORE POP POP POP JUMP JUMPDEST PUSH0 PUSH2 0x8F6 DUP3 PUSH2 0x5F3 JUMP JUMPDEST PUSH2 0x900 DUP2 DUP6 PUSH2 0x57B JUMP JUMPDEST SWAP4 POP PUSH2 0x910 DUP2 DUP6 PUSH1 0x20 DUP7 ADD PUSH2 0x8DE JUMP JUMPDEST PUSH2 0x919 DUP2 PUSH2 0x38F JUMP JUMPDEST DUP5 ADD SWAP2 POP POP SWAP3 SWAP2 POP POP JUMP JUMPDEST PUSH0 PUSH1 0x40 DUP3 ADD SWAP1 POP PUSH2 0x937 PUSH0 DUP4 ADD DUP6 PUSH2 0x8CF JUMP JUMPDEST DUP2 DUP2 SUB PUSH1 0x20 DUP4 ADD MSTORE PUSH2 0x949 DUP2 DUP5 PUSH2 0x8EC JUMP JUMPDEST SWAP1 POP SWAP4 SWAP3 POP POP POP JUMP INVALID LOG2 PUSH5 0x6970667358 0x22 SLT KECCAK256 GAS 0xE4 SAR 0x25 PUSH9 0x6B708095A380C6013B 0xBF DUP11 0xD7 SWAP9 DELEGATECALL 0x2D 0xF9 SWAP8 PUSH19 0xF6D4FDAC012E47C05A64736F6C634300081A00 CALLER "
		},
		"gasEstimates": {
			"creation": {
				"codeDepositCost": "488000",
				"executionCost": "522",
				"totalCost": "488522"
			},
			"external": {
				"authenticateUser(address)": "2898",
				"isUserRegistered(address)": "2876",
				"registerUser(address,string)": "infinite"
			}
		},
		"methodIdentifiers": {
			"authenticateUser(address)": "77ec1d90",
			"isUserRegistered(address)": "163f7522",
			"registerUser(address,string)": "0ea126f9"
		}
	},
	"abi": [
		{
			"anonymous": false,
			"inputs": [
				{
					"indexed": false,
					"internalType": "address",
					"name": "userAddress",
					"type": "address"
				},
				{
					"indexed": false,
					"internalType": "string",
					"name": "userDetails",
					"type": "string"
				}
			],
			"name": "UserRegistered",
			"type": "event"
		},
		{
			"inputs": [
				{
					"internalType": "address",
					"name": "userAddress",
					"type": "address"
				}
			],
			"name": "authenticateUser",
			"outputs": [
				{
					"internalType": "bool",
					"name": "",
					"type": "bool"
				}
			],
			"stateMutability": "view",
			"type": "function"
		},
		{
			"inputs": [
				{
					"internalType": "address",
					"name": "userAddress",
					"type": "address"
				}
			],
			"name": "isUserRegistered",
			"outputs": [
				{
					"internalType": "bool",
					"name": "",
					"type": "bool"
				}
			],
			"stateMutability": "view",
			"type": "function"
		},
		{
			"inputs": [
				{
					"internalType": "address",
					"name": "userAddress",
					"type": "address"
				},
				{
					"internalType": "string",
					"name": "userDetails",
					"type": "string"
				}
			],
			"name": "registerUser",
			"outputs": [],
			"stateMutability": "nonpayable",
			"type": "function"
		}
	]
}